{
  "contractName": "CrawlerIndex",
  "abi": [
    {
      "inputs": [
        {
          "internalType": "address",
          "name": "generator_",
          "type": "address"
        },
        {
          "internalType": "address",
          "name": "mapper_",
          "type": "address"
        },
        {
          "internalType": "address",
          "name": "renderer_",
          "type": "address"
        }
      ],
      "stateMutability": "nonpayable",
      "type": "constructor"
    },
    {
      "anonymous": false,
      "inputs": [
        {
          "indexed": true,
          "internalType": "uint256",
          "name": "chapterNumber",
          "type": "uint256"
        }
      ],
      "name": "ChangedChapter",
      "type": "event"
    },
    {
      "anonymous": false,
      "inputs": [
        {
          "indexed": true,
          "internalType": "address",
          "name": "previousOwner",
          "type": "address"
        },
        {
          "indexed": true,
          "internalType": "address",
          "name": "newOwner",
          "type": "address"
        }
      ],
      "name": "OwnershipTransferred",
      "type": "event"
    },
    {
      "inputs": [],
      "name": "_chamberGenerator",
      "outputs": [
        {
          "internalType": "contract ICrawlerChamberGenerator",
          "name": "",
          "type": "address"
        }
      ],
      "stateMutability": "view",
      "type": "function",
      "constant": true
    },
    {
      "inputs": [],
      "name": "_tokenContract",
      "outputs": [
        {
          "internalType": "contract ICrawlerToken",
          "name": "",
          "type": "address"
        }
      ],
      "stateMutability": "view",
      "type": "function",
      "constant": true
    },
    {
      "inputs": [],
      "name": "owner",
      "outputs": [
        {
          "internalType": "address",
          "name": "",
          "type": "address"
        }
      ],
      "stateMutability": "view",
      "type": "function",
      "constant": true
    },
    {
      "inputs": [],
      "name": "renounceOwnership",
      "outputs": [],
      "stateMutability": "nonpayable",
      "type": "function"
    },
    {
      "inputs": [
        {
          "internalType": "address",
          "name": "newOwner",
          "type": "address"
        }
      ],
      "name": "transferOwnership",
      "outputs": [],
      "stateMutability": "nonpayable",
      "type": "function"
    },
    {
      "inputs": [
        {
          "internalType": "address",
          "name": "tokenContract_",
          "type": "address"
        }
      ],
      "name": "setTokenContract",
      "outputs": [],
      "stateMutability": "nonpayable",
      "type": "function"
    },
    {
      "inputs": [
        {
          "internalType": "uint8",
          "name": "chapterNumber",
          "type": "uint8"
        },
        {
          "internalType": "address",
          "name": "generator_",
          "type": "address"
        },
        {
          "internalType": "address",
          "name": "mapper_",
          "type": "address"
        },
        {
          "internalType": "address",
          "name": "renderer_",
          "type": "address"
        }
      ],
      "name": "setupChapter",
      "outputs": [],
      "stateMutability": "nonpayable",
      "type": "function"
    },
    {
      "inputs": [
        {
          "internalType": "uint8",
          "name": "chapterNumber",
          "type": "uint8"
        }
      ],
      "name": "setCurrentChapter",
      "outputs": [],
      "stateMutability": "nonpayable",
      "type": "function"
    },
    {
      "inputs": [],
      "name": "getCurrentChapterNumber",
      "outputs": [
        {
          "internalType": "uint8",
          "name": "",
          "type": "uint8"
        }
      ],
      "stateMutability": "view",
      "type": "function",
      "constant": true
    },
    {
      "inputs": [],
      "name": "getCurrentChapter",
      "outputs": [
        {
          "components": [
            {
              "internalType": "uint8",
              "name": "chapterNumber",
              "type": "uint8"
            },
            {
              "internalType": "contract ICrawlerGenerator",
              "name": "generator",
              "type": "address"
            },
            {
              "internalType": "contract ICrawlerMapper",
              "name": "mapper",
              "type": "address"
            },
            {
              "internalType": "contract ICrawlerRenderer",
              "name": "renderer",
              "type": "address"
            }
          ],
          "internalType": "struct ICrawlerIndex.Chapter",
          "name": "",
          "type": "tuple"
        }
      ],
      "stateMutability": "view",
      "type": "function",
      "constant": true
    },
    {
      "inputs": [
        {
          "internalType": "uint8",
          "name": "chapterNumber",
          "type": "uint8"
        }
      ],
      "name": "getChapter",
      "outputs": [
        {
          "components": [
            {
              "internalType": "uint8",
              "name": "chapterNumber",
              "type": "uint8"
            },
            {
              "internalType": "contract ICrawlerGenerator",
              "name": "generator",
              "type": "address"
            },
            {
              "internalType": "contract ICrawlerMapper",
              "name": "mapper",
              "type": "address"
            },
            {
              "internalType": "contract ICrawlerRenderer",
              "name": "renderer",
              "type": "address"
            }
          ],
          "internalType": "struct ICrawlerIndex.Chapter",
          "name": "",
          "type": "tuple"
        }
      ],
      "stateMutability": "view",
      "type": "function",
      "constant": true
    },
    {
      "inputs": [],
      "name": "getChamberGenerator",
      "outputs": [
        {
          "internalType": "contract ICrawlerChamberGenerator",
          "name": "",
          "type": "address"
        }
      ],
      "stateMutability": "view",
      "type": "function",
      "constant": true
    },
    {
      "inputs": [
        {
          "internalType": "uint8",
          "name": "chapterNumber",
          "type": "uint8"
        }
      ],
      "name": "getGenerator",
      "outputs": [
        {
          "internalType": "contract ICrawlerGenerator",
          "name": "",
          "type": "address"
        }
      ],
      "stateMutability": "view",
      "type": "function",
      "constant": true
    },
    {
      "inputs": [
        {
          "internalType": "uint8",
          "name": "chapterNumber",
          "type": "uint8"
        }
      ],
      "name": "getMapper",
      "outputs": [
        {
          "internalType": "contract ICrawlerMapper",
          "name": "",
          "type": "address"
        }
      ],
      "stateMutability": "view",
      "type": "function",
      "constant": true
    },
    {
      "inputs": [
        {
          "internalType": "uint8",
          "name": "chapterNumber",
          "type": "uint8"
        }
      ],
      "name": "getRenderer",
      "outputs": [
        {
          "internalType": "contract ICrawlerRenderer",
          "name": "",
          "type": "address"
        }
      ],
      "stateMutability": "view",
      "type": "function",
      "constant": true
    },
    {
      "inputs": [
        {
          "internalType": "uint8",
          "name": "chapterNumber",
          "type": "uint8"
        },
        {
          "internalType": "uint256",
          "name": "coord",
          "type": "uint256"
        },
        {
          "components": [
            {
              "internalType": "uint256",
              "name": "tokenId",
              "type": "uint256"
            },
            {
              "internalType": "uint256",
              "name": "seed",
              "type": "uint256"
            },
            {
              "internalType": "uint232",
              "name": "yonder",
              "type": "uint232"
            },
            {
              "internalType": "uint8",
              "name": "chapter",
              "type": "uint8"
            },
            {
              "internalType": "enum Crawl.Terrain",
              "name": "terrain",
              "type": "uint8"
            },
            {
              "internalType": "enum Crawl.Dir",
              "name": "entryDir",
              "type": "uint8"
            }
          ],
          "internalType": "struct Crawl.ChamberSeed",
          "name": "chamberSeed",
          "type": "tuple"
        },
        {
          "internalType": "bool",
          "name": "generateMaps",
          "type": "bool"
        }
      ],
      "name": "getChamberData",
      "outputs": [
        {
          "components": [
            {
              "internalType": "uint256",
              "name": "coord",
              "type": "uint256"
            },
            {
              "internalType": "uint256",
              "name": "tokenId",
              "type": "uint256"
            },
            {
              "internalType": "uint256",
              "name": "seed",
              "type": "uint256"
            },
            {
              "internalType": "uint232",
              "name": "yonder",
              "type": "uint232"
            },
            {
              "internalType": "uint8",
              "name": "chapter",
              "type": "uint8"
            },
            {
              "internalType": "enum Crawl.Terrain",
              "name": "terrain",
              "type": "uint8"
            },
            {
              "internalType": "enum Crawl.Dir",
              "name": "entryDir",
              "type": "uint8"
            },
            {
              "components": [
                {
                  "internalType": "enum Crawl.Gem",
                  "name": "gemType",
                  "type": "uint8"
                },
                {
                  "internalType": "uint16",
                  "name": "coins",
                  "type": "uint16"
                },
                {
                  "internalType": "uint16",
                  "name": "worth",
                  "type": "uint16"
                }
              ],
              "internalType": "struct Crawl.Hoard",
              "name": "hoard",
              "type": "tuple"
            },
            {
              "internalType": "uint8",
              "name": "gemPos",
              "type": "uint8"
            },
            {
              "internalType": "uint8[4]",
              "name": "doors",
              "type": "uint8[4]"
            },
            {
              "internalType": "uint8[4]",
              "name": "locks",
              "type": "uint8[4]"
            },
            {
              "internalType": "uint256",
              "name": "bitmap",
              "type": "uint256"
            },
            {
              "internalType": "bytes",
              "name": "tilemap",
              "type": "bytes"
            },
            {
              "components": [
                {
                  "internalType": "enum Crawl.CustomDataType",
                  "name": "dataType",
                  "type": "uint8"
                },
                {
                  "internalType": "bytes",
                  "name": "data",
                  "type": "bytes"
                }
              ],
              "internalType": "struct Crawl.CustomData[]",
              "name": "customData",
              "type": "tuple[]"
            }
          ],
          "internalType": "struct Crawl.ChamberData",
          "name": "result",
          "type": "tuple"
        }
      ],
      "stateMutability": "view",
      "type": "function",
      "constant": true
    },
    {
      "inputs": [
        {
          "internalType": "uint8",
          "name": "chapterNumber",
          "type": "uint8"
        },
        {
          "internalType": "uint256",
          "name": "coord",
          "type": "uint256"
        },
        {
          "components": [
            {
              "internalType": "uint256",
              "name": "tokenId",
              "type": "uint256"
            },
            {
              "internalType": "uint256",
              "name": "seed",
              "type": "uint256"
            },
            {
              "internalType": "uint232",
              "name": "yonder",
              "type": "uint232"
            },
            {
              "internalType": "uint8",
              "name": "chapter",
              "type": "uint8"
            },
            {
              "internalType": "enum Crawl.Terrain",
              "name": "terrain",
              "type": "uint8"
            },
            {
              "internalType": "enum Crawl.Dir",
              "name": "entryDir",
              "type": "uint8"
            }
          ],
          "internalType": "struct Crawl.ChamberSeed",
          "name": "chamberSeed",
          "type": "tuple"
        }
      ],
      "name": "getChamberMetadata",
      "outputs": [
        {
          "internalType": "string",
          "name": "",
          "type": "string"
        }
      ],
      "stateMutability": "view",
      "type": "function",
      "constant": true
    },
    {
      "inputs": [
        {
          "internalType": "uint8",
          "name": "chapterNumber",
          "type": "uint8"
        },
        {
          "internalType": "uint256",
          "name": "coord",
          "type": "uint256"
        },
        {
          "components": [
            {
              "internalType": "uint256",
              "name": "tokenId",
              "type": "uint256"
            },
            {
              "internalType": "uint256",
              "name": "seed",
              "type": "uint256"
            },
            {
              "internalType": "uint232",
              "name": "yonder",
              "type": "uint232"
            },
            {
              "internalType": "uint8",
              "name": "chapter",
              "type": "uint8"
            },
            {
              "internalType": "enum Crawl.Terrain",
              "name": "terrain",
              "type": "uint8"
            },
            {
              "internalType": "enum Crawl.Dir",
              "name": "entryDir",
              "type": "uint8"
            }
          ],
          "internalType": "struct Crawl.ChamberSeed",
          "name": "chamberSeed",
          "type": "tuple"
        }
      ],
      "name": "getMapMetadata",
      "outputs": [
        {
          "internalType": "string",
          "name": "",
          "type": "string"
        }
      ],
      "stateMutability": "view",
      "type": "function",
      "constant": true
    },
    {
      "inputs": [
        {
          "internalType": "uint8",
          "name": "chapterNumber",
          "type": "uint8"
        },
        {
          "internalType": "uint256",
          "name": "coord",
          "type": "uint256"
        },
        {
          "components": [
            {
              "internalType": "uint256",
              "name": "tokenId",
              "type": "uint256"
            },
            {
              "internalType": "uint256",
              "name": "seed",
              "type": "uint256"
            },
            {
              "internalType": "uint232",
              "name": "yonder",
              "type": "uint232"
            },
            {
              "internalType": "uint8",
              "name": "chapter",
              "type": "uint8"
            },
            {
              "internalType": "enum Crawl.Terrain",
              "name": "terrain",
              "type": "uint8"
            },
            {
              "internalType": "enum Crawl.Dir",
              "name": "entryDir",
              "type": "uint8"
            }
          ],
          "internalType": "struct Crawl.ChamberSeed",
          "name": "chamberSeed",
          "type": "tuple"
        }
      ],
      "name": "getTokenMetadata",
      "outputs": [
        {
          "internalType": "string",
          "name": "",
          "type": "string"
        }
      ],
      "stateMutability": "view",
      "type": "function",
      "constant": true
    }
  ],
  "bytecode": "0x60806040523480156200001157600080fd5b506040516200516e3803806200516e833981810160405281019062000037919062000c8d565b620000576200004b6200008760201b60201c565b6200008f60201b60201c565b6200006c60018484846200015360201b60201c565b6200007e60016200094260201b60201c565b50505062001052565b600033905090565b60008060009054906101000a900473ffffffffffffffffffffffffffffffffffffffff169050816000806101000a81548173ffffffffffffffffffffffffffffffffffffffff021916908373ffffffffffffffffffffffffffffffffffffffff1602179055508173ffffffffffffffffffffffffffffffffffffffff168173ffffffffffffffffffffffffffffffffffffffff167f8be0079c531659141344cd1fd0a4f28419497f9722a3daafe3b4186f6b6457e060405160405180910390a35050565b6200016362000a1260201b60201c565b6000600360008660ff1660ff1681526020019081526020016000209050848160000160006101000a81548160ff021916908360ff160217905550600073ffffffffffffffffffffffffffffffffffffffff168473ffffffffffffffffffffffffffffffffffffffff1614620002e25762000209847ff2c785970000000000000000000000000000000000000000000000000000000062000aa360201b620016c21760201c565b6200024b576040517f08c379a0000000000000000000000000000000000000000000000000000000008152600401620002429062000d70565b60405180910390fd5b60018560ff1603620002995783600260006101000a81548173ffffffffffffffffffffffffffffffffffffffff021916908373ffffffffffffffffffffffffffffffffffffffff1602179055505b838160000160016101000a81548173ffffffffffffffffffffffffffffffffffffffff021916908373ffffffffffffffffffffffffffffffffffffffff160217905550620003db565b600073ffffffffffffffffffffffffffffffffffffffff168160000160019054906101000a900473ffffffffffffffffffffffffffffffffffffffff1673ffffffffffffffffffffffffffffffffffffffff1614801562000346575060018560ff16115b15620003da57600360006001876200035f919062000dce565b60ff1660ff16815260200190815260200160002060000160019054906101000a900473ffffffffffffffffffffffffffffffffffffffff168160000160016101000a81548173ffffffffffffffffffffffffffffffffffffffff021916908373ffffffffffffffffffffffffffffffffffffffff1602179055505b5b600073ffffffffffffffffffffffffffffffffffffffff168373ffffffffffffffffffffffffffffffffffffffff1614620004d25762000447837fadb3aae60000000000000000000000000000000000000000000000000000000062000aa360201b620016c21760201c565b62000489576040517f08c379a0000000000000000000000000000000000000000000000000000000008152600401620004809062000e5a565b60405180910390fd5b828160010160006101000a81548173ffffffffffffffffffffffffffffffffffffffff021916908373ffffffffffffffffffffffffffffffffffffffff160217905550620005cb565b600073ffffffffffffffffffffffffffffffffffffffff168160010160009054906101000a900473ffffffffffffffffffffffffffffffffffffffff1673ffffffffffffffffffffffffffffffffffffffff1614801562000536575060018560ff16115b15620005ca57600360006001876200054f919062000dce565b60ff1660ff16815260200190815260200160002060010160009054906101000a900473ffffffffffffffffffffffffffffffffffffffff168160010160006101000a81548173ffffffffffffffffffffffffffffffffffffffff021916908373ffffffffffffffffffffffffffffffffffffffff1602179055505b5b600073ffffffffffffffffffffffffffffffffffffffff168273ffffffffffffffffffffffffffffffffffffffff1614620006c25762000637827f605009fe0000000000000000000000000000000000000000000000000000000062000aa360201b620016c21760201c565b62000679576040517f08c379a0000000000000000000000000000000000000000000000000000000008152600401620006709062000ef2565b60405180910390fd5b818160020160006101000a81548173ffffffffffffffffffffffffffffffffffffffff021916908373ffffffffffffffffffffffffffffffffffffffff160217905550620007bb565b600073ffffffffffffffffffffffffffffffffffffffff168160020160009054906101000a900473ffffffffffffffffffffffffffffffffffffffff1673ffffffffffffffffffffffffffffffffffffffff1614801562000726575060018560ff16115b15620007ba57600360006001876200073f919062000dce565b60ff1660ff16815260200190815260200160002060020160009054906101000a900473ffffffffffffffffffffffffffffffffffffffff168160020160006101000a81548173ffffffffffffffffffffffffffffffffffffffff021916908373ffffffffffffffffffffffffffffffffffffffff1602179055505b5b80600360008760ff1660ff1681526020019081526020016000206000820160009054906101000a900460ff168160000160006101000a81548160ff021916908360ff1602179055506000820160019054906101000a900473ffffffffffffffffffffffffffffffffffffffff168160000160016101000a81548173ffffffffffffffffffffffffffffffffffffffff021916908373ffffffffffffffffffffffffffffffffffffffff1602179055506001820160009054906101000a900473ffffffffffffffffffffffffffffffffffffffff168160010160006101000a81548173ffffffffffffffffffffffffffffffffffffffff021916908373ffffffffffffffffffffffffffffffffffffffff1602179055506002820160009054906101000a900473ffffffffffffffffffffffffffffffffffffffff168160020160006101000a81548173ffffffffffffffffffffffffffffffffffffffff021916908373ffffffffffffffffffffffffffffffffffffffff1602179055509050505050505050565b6200095262000a1260201b60201c565b6000600360008360ff1660ff16815260200190815260200160002060000160009054906101000a900460ff1660ff1603620009c4576040517f08c379a0000000000000000000000000000000000000000000000000000000008152600401620009bb9062000f64565b60405180910390fd5b80600460006101000a81548160ff021916908360ff1602179055508060ff167feceea64ced340ac87edf4ffbf378af9289feeac4d2fd281629b2e420fb37c0af60405160405180910390a250565b62000a226200008760201b60201c565b73ffffffffffffffffffffffffffffffffffffffff1662000a4862000ad960201b60201c565b73ffffffffffffffffffffffffffffffffffffffff161462000aa1576040517f08c379a000000000000000000000000000000000000000000000000000000000815260040162000a989062000fd6565b60405180910390fd5b565b600062000ab68362000b0260201b60201c565b801562000ad1575062000ad0838362000b6060201b60201c565b5b905092915050565b60008060009054906101000a900473ffffffffffffffffffffffffffffffffffffffff16905090565b600062000b36827f01ffc9a70000000000000000000000000000000000000000000000000000000062000b6060201b60201c565b801562000b59575062000b578263ffffffff60e01b62000b6060201b60201c565b155b9050919050565b6000806301ffc9a760e01b8360405160240162000b7e919062001035565b604051602081830303815290604052907bffffffffffffffffffffffffffffffffffffffffffffffffffffffff19166020820180517bffffffffffffffffffffffffffffffffffffffffffffffffffffffff838183161783525050505090506000806000602060008551602087018a617530fa92503d9150600051905082801562000c0a575060208210155b801562000c175750600081115b94505050505092915050565b600080fd5b600073ffffffffffffffffffffffffffffffffffffffff82169050919050565b600062000c558262000c28565b9050919050565b62000c678162000c48565b811462000c7357600080fd5b50565b60008151905062000c878162000c5c565b92915050565b60008060006060848603121562000ca95762000ca862000c23565b5b600062000cb98682870162000c76565b935050602062000ccc8682870162000c76565b925050604062000cdf8682870162000c76565b9150509250925092565b600082825260208201905092915050565b7f496e76616c69642049437261776c657247656e657261746f7220636f6e74726160008201527f6374000000000000000000000000000000000000000000000000000000000000602082015250565b600062000d5860228362000ce9565b915062000d658262000cfa565b604082019050919050565b6000602082019050818103600083015262000d8b8162000d49565b9050919050565b600060ff82169050919050565b7f4e487b7100000000000000000000000000000000000000000000000000000000600052601160045260246000fd5b600062000ddb8262000d92565b915062000de88362000d92565b9250828203905060ff81111562000e045762000e0362000d9f565b5b92915050565b7f496e76616c69642049437261776c65724d617070657220636f6e747261637400600082015250565b600062000e42601f8362000ce9565b915062000e4f8262000e0a565b602082019050919050565b6000602082019050818103600083015262000e758162000e33565b9050919050565b7f496e76616c69642049437261776c657252656e646572657220636f6e7472616360008201527f7400000000000000000000000000000000000000000000000000000000000000602082015250565b600062000eda60218362000ce9565b915062000ee78262000e7c565b604082019050919050565b6000602082019050818103600083015262000f0d8162000ecb565b9050919050565b7f496e76616c696420436861707465720000000000000000000000000000000000600082015250565b600062000f4c600f8362000ce9565b915062000f598262000f14565b602082019050919050565b6000602082019050818103600083015262000f7f8162000f3d565b9050919050565b7f4f776e61626c653a2063616c6c6572206973206e6f7420746865206f776e6572600082015250565b600062000fbe60208362000ce9565b915062000fcb8262000f86565b602082019050919050565b6000602082019050818103600083015262000ff18162000faf565b9050919050565b60007fffffffff0000000000000000000000000000000000000000000000000000000082169050919050565b6200102f8162000ff8565b82525050565b60006020820190506200104c600083018462001024565b92915050565b61410c80620010626000396000f3fe608060405234801561001057600080fd5b50600436106101215760003560e01c80638e3b60a0116100ad578063cc84c2a811610071578063cc84c2a81461031e578063cff270eb1461034e578063e7595c7c1461036c578063f1e608f314610388578063f2fde38b146103b857610121565b80638e3b60a014610266578063aa327f1e14610284578063ac261922146102b4578063b1ee6632146102e4578063bbcd5bbe1461030257610121565b806362720950116100f457806362720950146101c2578063715018a6146101f257806378b14cb7146101fc5780638736f3a6146102185780638da5cb5b1461024857610121565b80630fe487f314610126578063414cbde0146101565780634eb18bb8146101745780636026e277146101a4575b600080fd5b610140600480360381019061013b91906124a5565b6103d4565b60405161014d9190612578565b60405180910390f35b61015e61050c565b60405161016b9190612619565b60405180910390f35b61018e6004803603810190610189919061266c565b610532565b60405161019b9190612bd5565b60405180910390f35b6101ac6106f4565b6040516101b99190612c18565b60405180910390f35b6101dc60048036038101906101d79190612c33565b61071a565b6040516101e99190612c81565b60405180910390f35b6101fa610750565b005b61021660048036038101906102119190612cda565b610764565b005b610232600480360381019061022d9190612c33565b610f08565b60405161023f9190612d62565b60405180910390f35b610250610f3e565b60405161025d9190612d8c565b60405180910390f35b61026e610f67565b60405161027b9190612db6565b60405180910390f35b61029e60048036038101906102999190612c33565b610f7e565b6040516102ab9190612df2565b60405180910390f35b6102ce60048036038101906102c991906124a5565b610fb4565b6040516102db9190612578565b60405180910390f35b6102ec6110ec565b6040516102f99190612e8f565b60405180910390f35b61031c60048036038101906103179190612eaa565b61124b565b005b61033860048036038101906103339190612c33565b611297565b6040516103459190612e8f565b60405180910390f35b610356611409565b6040516103639190612619565b60405180910390f35b61038660048036038101906103819190612c33565b611433565b005b6103a2600480360381019061039d91906124a5565b6114f8565b6040516103af9190612578565b60405180910390f35b6103d260048036038101906103cd9190612eaa565b61163f565b005b6060600082600001510361041f576040518060400160405280600281526020017f7b7d0000000000000000000000000000000000000000000000000000000000008152509050610505565b600061042a856116e7565b90508060020160009054906101000a900473ffffffffffffffffffffffffffffffffffffffff1673ffffffffffffffffffffffffffffffffffffffff16633d29d6e36104798787876001610532565b8360010160009054906101000a900473ffffffffffffffffffffffffffffffffffffffff166040518363ffffffff1660e01b81526004016104bb929190612ed7565b600060405180830381865afa1580156104d8573d6000803e3d6000fd5b505050506040513d6000823e3d601f19601f820116820180604052508101906105019190612fb2565b9150505b9392505050565b600260009054906101000a900473ffffffffffffffffffffffffffffffffffffffff1681565b61053a6120b9565b6000610545866116e7565b9050600260009054906101000a900473ffffffffffffffffffffffffffffffffffffffff1673ffffffffffffffffffffffffffffffffffffffff16631b9bb442868686600160009054906101000a900473ffffffffffffffffffffffffffffffffffffffff168660000160019054906101000a900473ffffffffffffffffffffffffffffffffffffffff166040518663ffffffff1660e01b81526004016105f0959493929190613094565b600060405180830381865afa15801561060d573d6000803e3d6000fd5b505050506040513d6000823e3d601f19601f820116820180604052508101906106369190613657565b915082156106eb578060010160009054906101000a900473ffffffffffffffffffffffffffffffffffffffff1673ffffffffffffffffffffffffffffffffffffffff166329bead78836040518263ffffffff1660e01b815260040161069b9190612bd5565b600060405180830381865afa1580156106b8573d6000803e3d6000fd5b505050506040513d6000823e3d601f19601f820116820180604052508101906106e191906136a0565b8261018001819052505b50949350505050565b600160009054906101000a900473ffffffffffffffffffffffffffffffffffffffff1681565b6000610725826116e7565b60020160009054906101000a900473ffffffffffffffffffffffffffffffffffffffff169050919050565b610758611729565b61076260006117a7565b565b61076c611729565b6000600360008660ff1660ff1681526020019081526020016000209050848160000160006101000a81548160ff021916908360ff160217905550600073ffffffffffffffffffffffffffffffffffffffff168473ffffffffffffffffffffffffffffffffffffffff16146108d857610804847ff2c78597000000000000000000000000000000000000000000000000000000006116c2565b610843576040517f08c379a000000000000000000000000000000000000000000000000000000000815260040161083a9061375b565b60405180910390fd5b60018560ff16036108905783600260006101000a81548173ffffffffffffffffffffffffffffffffffffffff021916908373ffffffffffffffffffffffffffffffffffffffff1602179055505b838160000160016101000a81548173ffffffffffffffffffffffffffffffffffffffff021916908373ffffffffffffffffffffffffffffffffffffffff1602179055506109cd565b600073ffffffffffffffffffffffffffffffffffffffff168160000160019054906101000a900473ffffffffffffffffffffffffffffffffffffffff1673ffffffffffffffffffffffffffffffffffffffff1614801561093b575060018560ff16115b156109cc576003600060018761095191906137aa565b60ff1660ff16815260200190815260200160002060000160019054906101000a900473ffffffffffffffffffffffffffffffffffffffff168160000160016101000a81548173ffffffffffffffffffffffffffffffffffffffff021916908373ffffffffffffffffffffffffffffffffffffffff1602179055505b5b600073ffffffffffffffffffffffffffffffffffffffff168373ffffffffffffffffffffffffffffffffffffffff1614610ab257610a2b837fadb3aae6000000000000000000000000000000000000000000000000000000006116c2565b610a6a576040517f08c379a0000000000000000000000000000000000000000000000000000000008152600401610a619061382b565b60405180910390fd5b828160010160006101000a81548173ffffffffffffffffffffffffffffffffffffffff021916908373ffffffffffffffffffffffffffffffffffffffff160217905550610ba7565b600073ffffffffffffffffffffffffffffffffffffffff168160010160009054906101000a900473ffffffffffffffffffffffffffffffffffffffff1673ffffffffffffffffffffffffffffffffffffffff16148015610b15575060018560ff16115b15610ba65760036000600187610b2b91906137aa565b60ff1660ff16815260200190815260200160002060010160009054906101000a900473ffffffffffffffffffffffffffffffffffffffff168160010160006101000a81548173ffffffffffffffffffffffffffffffffffffffff021916908373ffffffffffffffffffffffffffffffffffffffff1602179055505b5b600073ffffffffffffffffffffffffffffffffffffffff168273ffffffffffffffffffffffffffffffffffffffff1614610c8c57610c05827f605009fe000000000000000000000000000000000000000000000000000000006116c2565b610c44576040517f08c379a0000000000000000000000000000000000000000000000000000000008152600401610c3b906138bd565b60405180910390fd5b818160020160006101000a81548173ffffffffffffffffffffffffffffffffffffffff021916908373ffffffffffffffffffffffffffffffffffffffff160217905550610d81565b600073ffffffffffffffffffffffffffffffffffffffff168160020160009054906101000a900473ffffffffffffffffffffffffffffffffffffffff1673ffffffffffffffffffffffffffffffffffffffff16148015610cef575060018560ff16115b15610d805760036000600187610d0591906137aa565b60ff1660ff16815260200190815260200160002060020160009054906101000a900473ffffffffffffffffffffffffffffffffffffffff168160020160006101000a81548173ffffffffffffffffffffffffffffffffffffffff021916908373ffffffffffffffffffffffffffffffffffffffff1602179055505b5b80600360008760ff1660ff1681526020019081526020016000206000820160009054906101000a900460ff168160000160006101000a81548160ff021916908360ff1602179055506000820160019054906101000a900473ffffffffffffffffffffffffffffffffffffffff168160000160016101000a81548173ffffffffffffffffffffffffffffffffffffffff021916908373ffffffffffffffffffffffffffffffffffffffff1602179055506001820160009054906101000a900473ffffffffffffffffffffffffffffffffffffffff168160010160006101000a81548173ffffffffffffffffffffffffffffffffffffffff021916908373ffffffffffffffffffffffffffffffffffffffff1602179055506002820160009054906101000a900473ffffffffffffffffffffffffffffffffffffffff168160020160006101000a81548173ffffffffffffffffffffffffffffffffffffffff021916908373ffffffffffffffffffffffffffffffffffffffff1602179055509050505050505050565b6000610f13826116e7565b60010160009054906101000a900473ffffffffffffffffffffffffffffffffffffffff169050919050565b60008060009054906101000a900473ffffffffffffffffffffffffffffffffffffffff16905090565b6000600460009054906101000a900460ff16905090565b6000610f89826116e7565b60000160019054906101000a900473ffffffffffffffffffffffffffffffffffffffff169050919050565b60606000826000015103610fff576040518060400160405280600281526020017f7b7d00000000000000000000000000000000000000000000000000000000000081525090506110e5565b600061100a856116e7565b90508060020160009054906101000a900473ffffffffffffffffffffffffffffffffffffffff1673ffffffffffffffffffffffffffffffffffffffff1663b542a7c56110598787876001610532565b8360010160009054906101000a900473ffffffffffffffffffffffffffffffffffffffff166040518363ffffffff1660e01b815260040161109b929190612ed7565b600060405180830381865afa1580156110b8573d6000803e3d6000fd5b505050506040513d6000823e3d601f19601f820116820180604052508101906110e19190612fb2565b9150505b9392505050565b6110f4612183565b60036000600460009054906101000a900460ff1660ff1660ff1681526020019081526020016000206040518060800160405290816000820160009054906101000a900460ff1660ff1660ff1681526020016000820160019054906101000a900473ffffffffffffffffffffffffffffffffffffffff1673ffffffffffffffffffffffffffffffffffffffff1673ffffffffffffffffffffffffffffffffffffffff1681526020016001820160009054906101000a900473ffffffffffffffffffffffffffffffffffffffff1673ffffffffffffffffffffffffffffffffffffffff1673ffffffffffffffffffffffffffffffffffffffff1681526020016002820160009054906101000a900473ffffffffffffffffffffffffffffffffffffffff1673ffffffffffffffffffffffffffffffffffffffff1673ffffffffffffffffffffffffffffffffffffffff1681525050905090565b611253611729565b80600160006101000a81548173ffffffffffffffffffffffffffffffffffffffff021916908373ffffffffffffffffffffffffffffffffffffffff16021790555050565b61129f612183565b60036000808460ff16146112b357836112c4565b600460009054906101000a900460ff165b60ff1660ff1681526020019081526020016000206040518060800160405290816000820160009054906101000a900460ff1660ff1660ff1681526020016000820160019054906101000a900473ffffffffffffffffffffffffffffffffffffffff1673ffffffffffffffffffffffffffffffffffffffff1673ffffffffffffffffffffffffffffffffffffffff1681526020016001820160009054906101000a900473ffffffffffffffffffffffffffffffffffffffff1673ffffffffffffffffffffffffffffffffffffffff1673ffffffffffffffffffffffffffffffffffffffff1681526020016002820160009054906101000a900473ffffffffffffffffffffffffffffffffffffffff1673ffffffffffffffffffffffffffffffffffffffff1673ffffffffffffffffffffffffffffffffffffffff16815250509050919050565b6000600260009054906101000a900473ffffffffffffffffffffffffffffffffffffffff16905090565b61143b611729565b6000600360008360ff1660ff16815260200190815260200160002060000160009054906101000a900460ff1660ff16036114aa576040517f08c379a00000000000000000000000000000000000000000000000000000000081526004016114a190613929565b60405180910390fd5b80600460006101000a81548160ff021916908360ff1602179055508060ff167feceea64ced340ac87edf4ffbf378af9289feeac4d2fd281629b2e420fb37c0af60405160405180910390a250565b60606000826000015103611543576040518060400160405280600281526020017f7b7d0000000000000000000000000000000000000000000000000000000000008152509050611638565b600061154e856116e7565b9050600061155f8686866000610532565b9050611633818360020160009054906101000a900473ffffffffffffffffffffffffffffffffffffffff1673ffffffffffffffffffffffffffffffffffffffff1663e83b78d8848660010160009054906101000a900473ffffffffffffffffffffffffffffffffffffffff166040518363ffffffff1660e01b81526004016115e8929190612ed7565b600060405180830381865afa158015611605573d6000803e3d6000fd5b505050506040513d6000823e3d601f19601f8201168201806040525081019061162e9190612fb2565b61186b565b925050505b9392505050565b611647611729565b600073ffffffffffffffffffffffffffffffffffffffff168173ffffffffffffffffffffffffffffffffffffffff16036116b6576040517f08c379a00000000000000000000000000000000000000000000000000000000081526004016116ad906139bb565b60405180910390fd5b6116bf816117a7565b50565b60006116cd83611992565b80156116df57506116de83836119df565b5b905092915050565b600060036000808460ff16146116fd578361170e565b600460009054906101000a900460ff165b60ff1660ff1681526020019081526020016000209050919050565b611731611a9e565b73ffffffffffffffffffffffffffffffffffffffff1661174f610f3e565b73ffffffffffffffffffffffffffffffffffffffff16146117a5576040517f08c379a000000000000000000000000000000000000000000000000000000000815260040161179c90613a27565b60405180910390fd5b565b60008060009054906101000a900473ffffffffffffffffffffffffffffffffffffffff169050816000806101000a81548173ffffffffffffffffffffffffffffffffffffffff021916908373ffffffffffffffffffffffffffffffffffffffff1602179055508173ffffffffffffffffffffffffffffffffffffffff168173ffffffffffffffffffffffffffffffffffffffff167f8be0079c531659141344cd1fd0a4f28419497f9722a3daafe3b4186f6b6457e060405160405180910390a35050565b606061187a8360200151611aa6565b61188f61188a8560200151611aa6565b611b74565b61189f856080015160ff16611aa6565b6118be8660a0015160048111156118b9576118b8612702565b5b611aa6565b6118e18760e001516000015160088111156118dc576118db612702565b5b611aa6565b6118f68860e001516020015161ffff16611aa6565b61190b8960e001516040015161ffff16611aa6565b6119188a60000151611aa6565b6119448b606001517cffffffffffffffffffffffffffffffffffffffffffffffffffffffffff16611aa6565b6119518c60000151611b9d565b61195f8d6101400151611ce7565b8c60405160200161197b9c9b9a99989796959493929190613c25565b604051602081830303815290604052905092915050565b60006119be827f01ffc9a7000000000000000000000000000000000000000000000000000000006119df565b80156119d857506119d68263ffffffff60e01b6119df565b155b9050919050565b6000806301ffc9a760e01b836040516024016119fb9190613dab565b604051602081830303815290604052907bffffffffffffffffffffffffffffffffffffffffffffffffffffffff19166020820180517bffffffffffffffffffffffffffffffffffffffffffffffffffffffff838183161783525050505090506000806000602060008551602087018a617530fa92503d91506000519050828015611a86575060208210155b8015611a925750600081115b94505050505092915050565b600033905090565b606060006001611ab584611f66565b01905060008167ffffffffffffffff811115611ad457611ad36122e6565b5b6040519080825280601f01601f191660200182016040528015611b065781602001600182028036833780820191505090505b509050600082602001820190505b600115611b69578080600190039150507f3031323334353637383961626364656600000000000000000000000000000000600a86061a8153600a8581611b5d57611b5c613dc6565b5b04945060008503611b14575b819350505050919050565b606081604051602001611b879190613e1b565b6040516020818303038152906040529050919050565b6060600060c067ffffffffffffffff8016901b831611611bf057611bcc67ffffffffffffffff80168316611aa6565b604051602001611bdc9190613e67565b604051602081830303815290604052611c2c565b611c0c60c08067ffffffffffffffff8016901b8416901c611aa6565b604051602001611c1c9190613eb3565b6040516020818303038152906040525b6000608067ffffffffffffffff8016901b841611611c8457611c6060408067ffffffffffffffff8016901b8516901c611aa6565b604051602001611c709190613eff565b604051602081830303815290604052611cc0565b611ca060808067ffffffffffffffff8016901b8516901c611aa6565b604051602001611cb09190613f4b565b6040516020818303038152906040525b604051602001611cd1929190613fbd565b6040516020818303038152906040529050919050565b6060600082600060048110611cff57611cfe613fff565b5b602002015160ff1614611d47576040518060400160405280600581526020017f747275652c000000000000000000000000000000000000000000000000000000815250611d7e565b6040518060400160405280600681526020017f66616c73652c00000000000000000000000000000000000000000000000000008152505b600083600160048110611d9457611d93613fff565b5b602002015160ff1614611ddc576040518060400160405280600581526020017f747275652c000000000000000000000000000000000000000000000000000000815250611e13565b6040518060400160405280600681526020017f66616c73652c00000000000000000000000000000000000000000000000000008152505b600084600260048110611e2957611e28613fff565b5b602002015160ff1614611e71576040518060400160405280600581526020017f747275652c000000000000000000000000000000000000000000000000000000815250611ea8565b6040518060400160405280600681526020017f66616c73652c00000000000000000000000000000000000000000000000000008152505b600085600360048110611ebe57611ebd613fff565b5b602002015160ff1614611f06576040518060400160405280600481526020017f7472756500000000000000000000000000000000000000000000000000000000815250611f3d565b6040518060400160405280600581526020017f66616c73650000000000000000000000000000000000000000000000000000008152505b604051602001611f50949392919061407a565b6040516020818303038152906040529050919050565b600080600090507a184f03e93ff9f4daa797ed6e38ed64bf6a1f0100000000000000008310611fc4577a184f03e93ff9f4daa797ed6e38ed64bf6a1f0100000000000000008381611fba57611fb9613dc6565b5b0492506040810190505b6d04ee2d6d415b85acef81000000008310612001576d04ee2d6d415b85acef81000000008381611ff757611ff6613dc6565b5b0492506020810190505b662386f26fc10000831061203057662386f26fc10000838161202657612025613dc6565b5b0492506010810190505b6305f5e1008310612059576305f5e100838161204f5761204e613dc6565b5b0492506008810190505b612710831061207e57612710838161207457612073613dc6565b5b0492506004810190505b606483106120a1576064838161209757612096613dc6565b5b0492506002810190505b600a83106120b0576001810190505b80915050919050565b604051806101c0016040528060008152602001600081526020016000815260200160007cffffffffffffffffffffffffffffffffffffffffffffffffffffffffff168152602001600060ff1681526020016000600481111561211e5761211d612702565b5b81526020016000600381111561213757612136612702565b5b81526020016121446121f0565b8152602001600060ff16815260200161215b61222b565b815260200161216861222b565b81526020016000815260200160608152602001606081525090565b6040518060800160405280600060ff168152602001600073ffffffffffffffffffffffffffffffffffffffff168152602001600073ffffffffffffffffffffffffffffffffffffffff168152602001600073ffffffffffffffffffffffffffffffffffffffff1681525090565b60405180606001604052806000600881111561220f5761220e612702565b5b8152602001600061ffff168152602001600061ffff1681525090565b6040518060800160405280600490602082028036833780820191505090505090565b6000604051905090565b600080fd5b600080fd5b600060ff82169050919050565b61227781612261565b811461228257600080fd5b50565b6000813590506122948161226e565b92915050565b6000819050919050565b6122ad8161229a565b81146122b857600080fd5b50565b6000813590506122ca816122a4565b92915050565b600080fd5b6000601f19601f8301169050919050565b7f4e487b7100000000000000000000000000000000000000000000000000000000600052604160045260246000fd5b61231e826122d5565b810181811067ffffffffffffffff8211171561233d5761233c6122e6565b5b80604052505050565b600061235061224d565b905061235c8282612315565b919050565b600080fd5b60007cffffffffffffffffffffffffffffffffffffffffffffffffffffffffff82169050919050565b61239881612366565b81146123a357600080fd5b50565b6000813590506123b58161238f565b92915050565b600581106123c857600080fd5b50565b6000813590506123da816123bb565b92915050565b600481106123ed57600080fd5b50565b6000813590506123ff816123e0565b92915050565b600060c0828403121561241b5761241a6122d0565b5b61242560c0612346565b90506000612435848285016122bb565b6000830152506020612449848285016122bb565b602083015250604061245d848285016123a6565b604083015250606061247184828501612285565b6060830152506080612485848285016123cb565b60808301525060a0612499848285016123f0565b60a08301525092915050565b600080600061010084860312156124bf576124be612257565b5b60006124cd86828701612285565b93505060206124de868287016122bb565b92505060406124ef86828701612405565b9150509250925092565b600081519050919050565b600082825260208201905092915050565b60005b83811015612533578082015181840152602081019050612518565b60008484015250505050565b600061254a826124f9565b6125548185612504565b9350612564818560208601612515565b61256d816122d5565b840191505092915050565b60006020820190508181036000830152612592818461253f565b905092915050565b600073ffffffffffffffffffffffffffffffffffffffff82169050919050565b6000819050919050565b60006125df6125da6125d58461259a565b6125ba565b61259a565b9050919050565b60006125f1826125c4565b9050919050565b6000612603826125e6565b9050919050565b612613816125f8565b82525050565b600060208201905061262e600083018461260a565b92915050565b60008115159050919050565b61264981612634565b811461265457600080fd5b50565b60008135905061266681612640565b92915050565b600080600080610120858703121561268757612686612257565b5b600061269587828801612285565b94505060206126a6878288016122bb565b93505060406126b787828801612405565b9250506101006126c987828801612657565b91505092959194509250565b6126de8161229a565b82525050565b6126ed81612366565b82525050565b6126fc81612261565b82525050565b7f4e487b7100000000000000000000000000000000000000000000000000000000600052602160045260246000fd5b6005811061274257612741612702565b5b50565b600081905061275382612731565b919050565b600061276382612745565b9050919050565b61277381612758565b82525050565b6004811061278a57612789612702565b5b50565b600081905061279b82612779565b919050565b60006127ab8261278d565b9050919050565b6127bb816127a0565b82525050565b600981106127d2576127d1612702565b5b50565b60008190506127e3826127c1565b919050565b60006127f3826127d5565b9050919050565b612803816127e8565b82525050565b600061ffff82169050919050565b61282081612809565b82525050565b60608201600082015161283c60008501826127fa565b50602082015161284f6020850182612817565b5060408201516128626040850182612817565b50505050565b600060049050919050565b600081905092915050565b6000819050919050565b600061289483836126f3565b60208301905092915050565b6000602082019050919050565b6128b681612868565b6128c08184612873565b92506128cb8261287e565b8060005b838110156128fc5781516128e38782612888565b96506128ee836128a0565b9250506001810190506128cf565b505050505050565b600081519050919050565b600082825260208201905092915050565b600061292b82612904565b612935818561290f565b9350612945818560208601612515565b61294e816122d5565b840191505092915050565b600081519050919050565b600082825260208201905092915050565b6000819050602082019050919050565b6010811061299657612995612702565b5b50565b60008190506129a782612985565b919050565b60006129b782612999565b9050919050565b6129c7816129ac565b82525050565b60006040830160008301516129e560008601826129be565b50602083015184820360208601526129fd8282612920565b9150508091505092915050565b6000612a1683836129cd565b905092915050565b6000602082019050919050565b6000612a3682612959565b612a408185612964565b935083602082028501612a5285612975565b8060005b85811015612a8e5784840389528151612a6f8582612a0a565b9450612a7a83612a1e565b925060208a01995050600181019050612a56565b50829750879550505050505092915050565b60006102c083016000830151612ab960008601826126d5565b506020830151612acc60208601826126d5565b506040830151612adf60408601826126d5565b506060830151612af260608601826126e4565b506080830151612b0560808601826126f3565b5060a0830151612b1860a086018261276a565b5060c0830151612b2b60c08601826127b2565b5060e0830151612b3e60e0860182612826565b50610100830151612b536101408601826126f3565b50610120830151612b686101608601826128ad565b50610140830151612b7d6101e08601826128ad565b50610160830151612b926102608601826126d5565b50610180830151848203610280860152612bac8282612920565b9150506101a08301518482036102a0860152612bc88282612a2b565b9150508091505092915050565b60006020820190508181036000830152612bef8184612aa0565b905092915050565b6000612c02826125e6565b9050919050565b612c1281612bf7565b82525050565b6000602082019050612c2d6000830184612c09565b92915050565b600060208284031215612c4957612c48612257565b5b6000612c5784828501612285565b91505092915050565b6000612c6b826125e6565b9050919050565b612c7b81612c60565b82525050565b6000602082019050612c966000830184612c72565b92915050565b6000612ca78261259a565b9050919050565b612cb781612c9c565b8114612cc257600080fd5b50565b600081359050612cd481612cae565b92915050565b60008060008060808587031215612cf457612cf3612257565b5b6000612d0287828801612285565b9450506020612d1387828801612cc5565b9350506040612d2487828801612cc5565b9250506060612d3587828801612cc5565b91505092959194509250565b6000612d4c826125e6565b9050919050565b612d5c81612d41565b82525050565b6000602082019050612d776000830184612d53565b92915050565b612d8681612c9c565b82525050565b6000602082019050612da16000830184612d7d565b92915050565b612db081612261565b82525050565b6000602082019050612dcb6000830184612da7565b92915050565b6000612ddc826125e6565b9050919050565b612dec81612dd1565b82525050565b6000602082019050612e076000830184612de3565b92915050565b612e1681612dd1565b82525050565b612e2581612d41565b82525050565b612e3481612c60565b82525050565b608082016000820151612e5060008501826126f3565b506020820151612e636020850182612e0d565b506040820151612e766040850182612e1c565b506060820151612e896060850182612e2b565b50505050565b6000608082019050612ea46000830184612e3a565b92915050565b600060208284031215612ec057612ebf612257565b5b6000612ece84828501612cc5565b91505092915050565b60006040820190508181036000830152612ef18185612aa0565b9050612f006020830184612d53565b9392505050565b600080fd5b600080fd5b600067ffffffffffffffff821115612f2c57612f2b6122e6565b5b612f35826122d5565b9050602081019050919050565b6000612f55612f5084612f11565b612346565b905082815260208101848484011115612f7157612f70612f0c565b5b612f7c848285612515565b509392505050565b600082601f830112612f9957612f98612f07565b5b8151612fa9848260208601612f42565b91505092915050565b600060208284031215612fc857612fc7612257565b5b600082015167ffffffffffffffff811115612fe657612fe561225c565b5b612ff284828501612f84565b91505092915050565b6130048161229a565b82525050565b60c08201600082015161302060008501826126d5565b50602082015161303360208501826126d5565b50604082015161304660408501826126e4565b50606082015161305960608501826126f3565b50608082015161306c608085018261276a565b5060a082015161307f60a08501826127b2565b50505050565b61308e81612634565b82525050565b6000610140820190506130aa6000830188612ffb565b6130b7602083018761300a565b6130c460e0830186613085565b6130d2610100830185612c09565b6130e0610120830184612de3565b9695505050505050565b6000815190506130f9816122a4565b92915050565b60008151905061310e8161238f565b92915050565b6000815190506131238161226e565b92915050565b600081519050613138816123bb565b92915050565b60008151905061314d816123e0565b92915050565b6009811061316057600080fd5b50565b60008151905061317281613153565b92915050565b61318181612809565b811461318c57600080fd5b50565b60008151905061319e81613178565b92915050565b6000606082840312156131ba576131b96122d0565b5b6131c46060612346565b905060006131d484828501613163565b60008301525060206131e88482850161318f565b60208301525060406131fc8482850161318f565b60408301525092915050565b600067ffffffffffffffff821115613223576132226122e6565b5b602082029050919050565b600080fd5b600061324661324184613208565b612346565b905080602084028301858111156132605761325f61322e565b5b835b8181101561328957806132758882613114565b845260208401935050602081019050613262565b5050509392505050565b600082601f8301126132a8576132a7612f07565b5b60046132b5848285613233565b91505092915050565b600067ffffffffffffffff8211156132d9576132d86122e6565b5b6132e2826122d5565b9050602081019050919050565b60006133026132fd846132be565b612346565b90508281526020810184848401111561331e5761331d612f0c565b5b613329848285612515565b509392505050565b600082601f83011261334657613345612f07565b5b81516133568482602086016132ef565b91505092915050565b600067ffffffffffffffff82111561337a576133796122e6565b5b602082029050602081019050919050565b6010811061339857600080fd5b50565b6000815190506133aa8161338b565b92915050565b6000604082840312156133c6576133c56122d0565b5b6133d06040612346565b905060006133e08482850161339b565b600083015250602082015167ffffffffffffffff81111561340457613403612361565b5b61341084828501613331565b60208301525092915050565b600061342f61342a8461335f565b612346565b905080838252602082019050602084028301858111156134525761345161322e565b5b835b8181101561349957805167ffffffffffffffff81111561347757613476612f07565b5b80860161348489826133b0565b85526020850194505050602081019050613454565b5050509392505050565b600082601f8301126134b8576134b7612f07565b5b81516134c884826020860161341c565b91505092915050565b60006102c082840312156134e8576134e76122d0565b5b6134f36101c0612346565b90506000613503848285016130ea565b6000830152506020613517848285016130ea565b602083015250604061352b848285016130ea565b604083015250606061353f848285016130ff565b606083015250608061355384828501613114565b60808301525060a061356784828501613129565b60a08301525060c061357b8482850161313e565b60c08301525060e061358f848285016131a4565b60e0830152506101406135a484828501613114565b610100830152506101606135ba84828501613293565b610120830152506101e06135d084828501613293565b610140830152506102606135e6848285016130ea565b6101608301525061028082015167ffffffffffffffff81111561360c5761360b612361565b5b61361884828501613331565b610180830152506102a082015167ffffffffffffffff81111561363e5761363d612361565b5b61364a848285016134a3565b6101a08301525092915050565b60006020828403121561366d5761366c612257565b5b600082015167ffffffffffffffff81111561368b5761368a61225c565b5b613697848285016134d1565b91505092915050565b6000602082840312156136b6576136b5612257565b5b600082015167ffffffffffffffff8111156136d4576136d361225c565b5b6136e084828501613331565b91505092915050565b7f496e76616c69642049437261776c657247656e657261746f7220636f6e74726160008201527f6374000000000000000000000000000000000000000000000000000000000000602082015250565b6000613745602283612504565b9150613750826136e9565b604082019050919050565b6000602082019050818103600083015261377481613738565b9050919050565b7f4e487b7100000000000000000000000000000000000000000000000000000000600052601160045260246000fd5b60006137b582612261565b91506137c083612261565b9250828203905060ff8111156137d9576137d861377b565b5b92915050565b7f496e76616c69642049437261776c65724d617070657220636f6e747261637400600082015250565b6000613815601f83612504565b9150613820826137df565b602082019050919050565b6000602082019050818103600083015261384481613808565b9050919050565b7f496e76616c69642049437261776c657252656e646572657220636f6e7472616360008201527f7400000000000000000000000000000000000000000000000000000000000000602082015250565b60006138a7602183612504565b91506138b28261384b565b604082019050919050565b600060208201905081810360008301526138d68161389a565b9050919050565b7f496e76616c696420436861707465720000000000000000000000000000000000600082015250565b6000613913600f83612504565b915061391e826138dd565b602082019050919050565b6000602082019050818103600083015261394281613906565b9050919050565b7f4f776e61626c653a206e6577206f776e657220697320746865207a65726f206160008201527f6464726573730000000000000000000000000000000000000000000000000000602082015250565b60006139a5602683612504565b91506139b082613949565b604082019050919050565b600060208201905081810360008301526139d481613998565b9050919050565b7f4f776e61626c653a2063616c6c6572206973206e6f7420746865206f776e6572600082015250565b6000613a11602083612504565b9150613a1c826139db565b602082019050919050565b60006020820190508181036000830152613a4081613a04565b9050919050565b7f7b22746f6b656e4964223a220000000000000000000000000000000000000000815250565b600081905092915050565b6000613a83826124f9565b613a8d8185613a6d565b9350613a9d818560208601612515565b80840191505092915050565b7f222c226e616d65223a2200000000000000000000000000000000000000000000815250565b7f222c2263686170746572223a2200000000000000000000000000000000000000815250565b7f222c227465727261696e223a2200000000000000000000000000000000000000815250565b7f222c2267656d223a220000000000000000000000000000000000000000000000815250565b7f222c22636f696e73223a22000000000000000000000000000000000000000000815250565b7f222c22776f727468223a22000000000000000000000000000000000000000000815250565b7f222c22636f6f7264223a22000000000000000000000000000000000000000000815250565b7f222c22796f6e646572223a220000000000000000000000000000000000000000815250565b7f222c000000000000000000000000000000000000000000000000000000000000815250565b7f7d00000000000000000000000000000000000000000000000000000000000000815250565b6000613c3082613a47565b600c82019150613c40828f613a78565b9150613c4b82613aa9565b600a82019150613c5b828e613a78565b9150613c6682613acf565b600d82019150613c76828d613a78565b9150613c8182613af5565b600d82019150613c91828c613a78565b9150613c9c82613b1b565b600982019150613cac828b613a78565b9150613cb782613b41565b600b82019150613cc7828a613a78565b9150613cd282613b67565b600b82019150613ce28289613a78565b9150613ced82613b8d565b600b82019150613cfd8288613a78565b9150613d0882613bb3565b600c82019150613d188287613a78565b9150613d2382613bd9565b600282019150613d338286613a78565b9150613d3f8285613a78565b9150613d4b8284613a78565b9150613d5682613bff565b6001820191508190509d9c50505050505050505050505050565b60007fffffffff0000000000000000000000000000000000000000000000000000000082169050919050565b613da581613d70565b82525050565b6000602082019050613dc06000830184613d9c565b92915050565b7f4e487b7100000000000000000000000000000000000000000000000000000000600052601260045260246000fd5b7f4368616d62657220230000000000000000000000000000000000000000000000815250565b6000613e2682613df5565b600982019150613e368284613a78565b915081905092915050565b7f22736f757468223a220000000000000000000000000000000000000000000000815250565b6000613e7282613e41565b600982019150613e828284613a78565b915081905092915050565b7f226e6f727468223a220000000000000000000000000000000000000000000000815250565b6000613ebe82613e8d565b600982019150613ece8284613a78565b915081905092915050565b7f222c2277657374223a2200000000000000000000000000000000000000000000815250565b6000613f0a82613ed9565b600a82019150613f1a8284613a78565b915081905092915050565b7f222c2265617374223a2200000000000000000000000000000000000000000000815250565b6000613f5682613f25565b600a82019150613f668284613a78565b915081905092915050565b7f22636f6d70617373223a7b000000000000000000000000000000000000000000815250565b7f227d2c0000000000000000000000000000000000000000000000000000000000815250565b6000613fc882613f71565b600b82019150613fd88285613a78565b9150613fe48284613a78565b9150613fef82613f97565b6003820191508190509392505050565b7f4e487b7100000000000000000000000000000000000000000000000000000000600052603260045260246000fd5b7f226c6f636b73223a5b0000000000000000000000000000000000000000000000815250565b7f5d2c000000000000000000000000000000000000000000000000000000000000815250565b60006140858261402e565b6009820191506140958287613a78565b91506140a18286613a78565b91506140ad8285613a78565b91506140b98284613a78565b91506140c482614054565b6002820191508190509594505050505056fea26469706673582212201c5d98e9c184b5b3c098289be95d2c0b163b0a2b91716ca008581d6d3cf19dd664736f6c63430008100033",
  "immutableReferences": {},
  "source": "// SPDX-License-Identifier: MIT\n//\n//    \n//             \n//              \n//              \n//              \n//          \n//        \n//      \n//\n// https://endlesscrawler.io\n// @EndlessCrawler\n//\n/// @title Endless Crawler Chapter Index\n/// @author Studio Avante\n/// @notice Manages Chapters contracts\n/// @dev Depends on ICrawlerToken (chambers)\n//\npragma solidity ^0.8.16;\nimport { Ownable } from '@openzeppelin/contracts/access/Ownable.sol';\nimport { ERC165Checker } from '@openzeppelin/contracts/utils/introspection/ERC165Checker.sol';\nimport { ICrawlerIndex } from './ICrawlerIndex.sol';\nimport { ICrawlerToken } from './ICrawlerToken.sol';\nimport { ICrawlerChamberGenerator } from './ICrawlerChamberGenerator.sol';\nimport { ICrawlerGenerator } from './ICrawlerGenerator.sol';\nimport { ICrawlerMapper } from './ICrawlerMapper.sol';\nimport { ICrawlerRenderer } from './ICrawlerRenderer.sol';\nimport { Crawl } from './Crawl.sol';\n\ncontract CrawlerIndex is Ownable, ICrawlerIndex {\n\n\tICrawlerToken public _tokenContract;\n\n\tICrawlerChamberGenerator public _chamberGenerator;\n\n\tmapping(uint8 => Chapter) private _chapters;\n\n\tuint8 private _currentChapterNumber;\n\n\tevent ChangedChapter(uint256 indexed chapterNumber);\n\n\tconstructor(address generator_, address mapper_, address renderer_) {\n\t\tsetupChapter(1, generator_, mapper_, renderer_);\n\t\tsetCurrentChapter(1);\n\t}\n\n\t//---------------\n\t// Admin\n\t//\n\n\t/// @notice Admin function\n\tfunction setTokenContract(address tokenContract_) public onlyOwner {\n\t\t_tokenContract = ICrawlerToken(tokenContract_);\n\t}\n\n\t/// @notice Admin function\n\tfunction setupChapter(uint8 chapterNumber, address generator_, address mapper_, address renderer_) public onlyOwner {\n\t\t// create or edit a chapter\n\t\tChapter storage chapter = _chapters[chapterNumber];\n\n\t\tchapter.chapterNumber = chapterNumber;\n\n\t\tif(generator_ != address(0)) {\n\t\t\trequire(ERC165Checker.supportsInterface(generator_, type(ICrawlerGenerator).interfaceId), 'Invalid ICrawlerGenerator contract');\n\t\t\tif(chapterNumber == 1) {\n\t\t\t\t_chamberGenerator = ICrawlerChamberGenerator(generator_);\n\t\t\t}\n\t\t\tchapter.generator = ICrawlerGenerator(generator_); // set new contract\n\t\t} else if (address(chapter.generator) == address(0) && chapterNumber > 1) {\n\t\t\tchapter.generator = _chapters[chapterNumber - 1].generator; // use previous chapter contract\n\t\t}\n\n\t\tif(mapper_ != address(0)) {\n\t\t\trequire(ERC165Checker.supportsInterface(mapper_, type(ICrawlerMapper).interfaceId), 'Invalid ICrawlerMapper contract');\n\t\t\tchapter.mapper = ICrawlerMapper(mapper_); // set new contract\n\t\t} else if (address(chapter.mapper) == address(0) && chapterNumber > 1) {\n\t\t\tchapter.mapper = _chapters[chapterNumber - 1].mapper; // use previous chapter contract\n\t\t}\n\n\t\tif(renderer_ != address(0)) {\n\t\t\trequire(ERC165Checker.supportsInterface(renderer_, type(ICrawlerRenderer).interfaceId), 'Invalid ICrawlerRenderer contract');\n\t\t\tchapter.renderer = ICrawlerRenderer(renderer_); // set new contract\n\t\t} else if (address(chapter.renderer) == address(0) && chapterNumber > 1) {\n\t\t\tchapter.renderer = _chapters[chapterNumber - 1].renderer; // use previous chapter contract\n\t\t}\n\n\t\t_chapters[chapterNumber] = chapter;\n\t}\n\n\t/// @notice Admin function\n\tfunction setCurrentChapter(uint8 chapterNumber) public onlyOwner {\n\t\trequire(_chapters[chapterNumber].chapterNumber != 0, 'Invalid Chapter');\n\t\t_currentChapterNumber = chapterNumber;\n\t\temit ChangedChapter(chapterNumber);\n\t}\n\n\t//---------------\n\t// Public\n\t//\n\n\t/// @notice Get the current Chapter number\n\t/// @return chapterNumber\n\tfunction getCurrentChapterNumber() public view override returns (uint8) {\n\t\treturn _currentChapterNumber;\n\t}\n\n\t/// @notice Get them current Chapter contracts\n\t/// @return chapter Structure containing contract addresses\n\tfunction getCurrentChapter() public view override returns (Chapter memory) {\n\t\treturn _chapters[_currentChapterNumber];\n\t}\n\n\t/// @notice Get a Chapter's contracts\n\t/// @param chapterNumber The Chapter number, or 0 for current chapter\n\t/// @return chapter Structure containing contract addresses\n\tfunction getChapter(uint8 chapterNumber) public view override returns (Chapter memory) {\n\t\treturn _chapters[chapterNumber == 0 ? _currentChapterNumber : chapterNumber];\n\t}\n\n\t/// @notice Get a Chapter's contracts\n\t/// @dev internal version can use storage, cheaper\n\t/// @param chapterNumber The Chapter number, or 0 for current chapter\n\t/// @return chapter Structure containing contract addresses\n\tfunction _getChapter(uint8 chapterNumber) internal view returns (Chapter storage) {\n\t\treturn _chapters[chapterNumber == 0 ? _currentChapterNumber : chapterNumber];\n\t}\n\n\t/// @notice Get the ICrawlerChamberGenerator contract\n\t/// @return generator contract address\n\tfunction getChamberGenerator() public view override returns (ICrawlerChamberGenerator) {\n\t\treturn _chamberGenerator;\n\t}\n\n\t/// @notice Get an ICrawlerGenerator contract\n\t/// @param chapterNumber The Chapter number, or 0 for current chapter\n\t/// @return generator contract address\n\tfunction getGenerator(uint8 chapterNumber) public view override returns (ICrawlerGenerator) {\n\t\treturn _getChapter(chapterNumber).generator;\n\t}\n\n\t/// @notice Get an ICrawlerMapper contract\n\t/// @param chapterNumber The Chapter number, or 0 for current chapter\n\t/// @return mapper contract address\n\tfunction getMapper(uint8 chapterNumber) public view override returns (ICrawlerMapper) {\n\t\treturn _getChapter(chapterNumber).mapper;\n\t}\n\n\t/// @notice Get an ICrawlerRenderer contract\n\t/// @param chapterNumber The Chapter number, or 0 for current chapter\n\t/// @return renderer contract address\n\tfunction getRenderer(uint8 chapterNumber) public view override returns (ICrawlerRenderer) {\n\t\treturn _getChapter(chapterNumber).renderer;\n\t}\n\n\n\t//---------------------------------------\n\t// Token / Metadata calls\n\t//\n\n\t/// @notice Generate and returns everything about a chamber\n\t/// @param chapterNumber The Chapter number, or 0 for current chapter\n\t/// @param coord Chamber coordinate\n\t/// @param chamberSeed Chamber static data\n\t/// @param generateMaps If True, will generate bitmap and tilemap (slower)\n\t/// @return result Crawler.ChamberData struct\n\tfunction getChamberData(uint8 chapterNumber, uint256 coord, Crawl.ChamberSeed memory chamberSeed, bool generateMaps) public view override returns (Crawl.ChamberData memory result) {\n\t\tChapter storage chapter = _getChapter(chapterNumber);\n\t\tresult = _chamberGenerator.generateChamberData(coord, chamberSeed, generateMaps, _tokenContract, chapter.generator);\n\t\tif (generateMaps) {\n\t\t\tresult.tilemap = chapter.mapper.generateTileMap(result);\n\t\t}\n\t}\n\n\t/// @notice Returns a Chamber metadata, without maps\n\t/// @param chapterNumber The Chapter number, or 0 for current chapter\n\t/// @param coord Chamber coordinate\n\t/// @param chamberSeed Chamber static data\n\t/// @return metadata Metadata, as plain json string\n\tfunction getChamberMetadata(uint8 chapterNumber, uint256 coord, Crawl.ChamberSeed memory chamberSeed) public view override returns (string memory) {\n\t\tif (chamberSeed.tokenId == 0) return '{}';\n\t\tChapter storage chapter = _getChapter(chapterNumber);\n\t\tCrawl.ChamberData memory chamber = getChamberData(chapterNumber, coord, chamberSeed, false);\n\t\treturn Crawl.renderChamberMetadata(chamber, chapter.renderer.renderAdditionalChamberMetadata(chamber, chapter.mapper));\n\t}\n\n\t/// @notice Returns the seed and tilemap of a Chamber, used for world building\n\t/// @param chapterNumber The Chapter number, or 0 for current chapter\n\t/// @param coord Chamber coordinate\n\t/// @param chamberSeed Chamber static data\n\t/// @return metadata Metadata, as plain json string\n\tfunction getMapMetadata(uint8 chapterNumber, uint256 coord, Crawl.ChamberSeed memory chamberSeed) public view override returns (string memory) {\n\t\tif (chamberSeed.tokenId == 0) return '{}';\n\t\tChapter storage chapter = _getChapter(chapterNumber);\n\t\treturn chapter.renderer.renderMapMetadata(getChamberData(chapterNumber, coord, chamberSeed, true), chapter.mapper);\n\t}\n\n\t/// @notice Returns IERC721Metadata compliant metadata, used by tokenURI()\n\t/// @param chapterNumber The Chapter number, or 0 for current chapter\n\t/// @param coord Chamber coordinate\n\t/// @param chamberSeed Chamber static data\n\t/// @return metadata Metadata, as base64 json string\n\tfunction getTokenMetadata(uint8 chapterNumber, uint256 coord, Crawl.ChamberSeed memory chamberSeed) public view override returns (string memory) {\n\t\tif (chamberSeed.tokenId == 0) return '{}';\n\t\tChapter storage chapter = _getChapter(chapterNumber);\n\t\treturn chapter.renderer.renderTokenMetadata(getChamberData(chapterNumber, coord, chamberSeed, true), chapter.mapper);\n\t}\n\n}\n",
  "sourcePath": "/Users/roger/Dev/Blockchain/Truffle/ec-crawler/contracts/CrawlerIndex.sol",
  "compiler": {
    "name": "solc",
    "version": "0.8.16+commit.07a7930e.Emscripten.clang"
  },
  "schemaVersion": "3.4.11",
  "updatedAt": "2022-12-05T06:28:01.946Z",
  "networkType": "ethereum",
  "devdoc": {
    "kind": "dev",
    "methods": {
      "getChamberData(uint8,uint256,(uint256,uint256,uint232,uint8,uint8,uint8),bool)": {
        "params": {
          "chamberSeed": "Chamber static data",
          "chapterNumber": "The Chapter number, or 0 for current chapter",
          "coord": "Chamber coordinate",
          "generateMaps": "If True, will generate bitmap and tilemap (slower)"
        },
        "returns": {
          "result": "Crawler.ChamberData struct"
        }
      },
      "getChamberGenerator()": {
        "returns": {
          "_0": "generator contract address"
        }
      },
      "getChamberMetadata(uint8,uint256,(uint256,uint256,uint232,uint8,uint8,uint8))": {
        "params": {
          "chamberSeed": "Chamber static data",
          "chapterNumber": "The Chapter number, or 0 for current chapter",
          "coord": "Chamber coordinate"
        },
        "returns": {
          "_0": "metadata Metadata, as plain json string"
        }
      },
      "getChapter(uint8)": {
        "params": {
          "chapterNumber": "The Chapter number, or 0 for current chapter"
        },
        "returns": {
          "_0": "chapter Structure containing contract addresses"
        }
      },
      "getCurrentChapter()": {
        "returns": {
          "_0": "chapter Structure containing contract addresses"
        }
      },
      "getCurrentChapterNumber()": {
        "returns": {
          "_0": "chapterNumber"
        }
      },
      "getGenerator(uint8)": {
        "params": {
          "chapterNumber": "The Chapter number, or 0 for current chapter"
        },
        "returns": {
          "_0": "generator contract address"
        }
      },
      "getMapMetadata(uint8,uint256,(uint256,uint256,uint232,uint8,uint8,uint8))": {
        "params": {
          "chamberSeed": "Chamber static data",
          "chapterNumber": "The Chapter number, or 0 for current chapter",
          "coord": "Chamber coordinate"
        },
        "returns": {
          "_0": "metadata Metadata, as plain json string"
        }
      },
      "getMapper(uint8)": {
        "params": {
          "chapterNumber": "The Chapter number, or 0 for current chapter"
        },
        "returns": {
          "_0": "mapper contract address"
        }
      },
      "getRenderer(uint8)": {
        "params": {
          "chapterNumber": "The Chapter number, or 0 for current chapter"
        },
        "returns": {
          "_0": "renderer contract address"
        }
      },
      "getTokenMetadata(uint8,uint256,(uint256,uint256,uint232,uint8,uint8,uint8))": {
        "params": {
          "chamberSeed": "Chamber static data",
          "chapterNumber": "The Chapter number, or 0 for current chapter",
          "coord": "Chamber coordinate"
        },
        "returns": {
          "_0": "metadata Metadata, as base64 json string"
        }
      },
      "owner()": {
        "details": "Returns the address of the current owner."
      },
      "renounceOwnership()": {
        "details": "Leaves the contract without owner. It will not be possible to call `onlyOwner` functions anymore. Can only be called by the current owner. NOTE: Renouncing ownership will leave the contract without an owner, thereby removing any functionality that is only available to the owner."
      },
      "transferOwnership(address)": {
        "details": "Transfers ownership of the contract to a new account (`newOwner`). Can only be called by the current owner."
      }
    },
    "version": 1
  },
  "userdoc": {
    "kind": "user",
    "methods": {
      "getChamberData(uint8,uint256,(uint256,uint256,uint232,uint8,uint8,uint8),bool)": {
        "notice": "Generate and returns everything about a chamber"
      },
      "getChamberGenerator()": {
        "notice": "Get the ICrawlerChamberGenerator contract"
      },
      "getChamberMetadata(uint8,uint256,(uint256,uint256,uint232,uint8,uint8,uint8))": {
        "notice": "Returns a Chamber metadata, without maps"
      },
      "getChapter(uint8)": {
        "notice": "Get a Chapter's contracts"
      },
      "getCurrentChapter()": {
        "notice": "Get them current Chapter contracts"
      },
      "getCurrentChapterNumber()": {
        "notice": "Get the current Chapter number"
      },
      "getGenerator(uint8)": {
        "notice": "Get an ICrawlerGenerator contract"
      },
      "getMapMetadata(uint8,uint256,(uint256,uint256,uint232,uint8,uint8,uint8))": {
        "notice": "Returns the seed and tilemap of a Chamber, used for world building"
      },
      "getMapper(uint8)": {
        "notice": "Get an ICrawlerMapper contract"
      },
      "getRenderer(uint8)": {
        "notice": "Get an ICrawlerRenderer contract"
      },
      "getTokenMetadata(uint8,uint256,(uint256,uint256,uint232,uint8,uint8,uint8))": {
        "notice": "Returns IERC721Metadata compliant metadata, used by tokenURI()"
      },
      "setCurrentChapter(uint8)": {
        "notice": "Admin function"
      },
      "setTokenContract(address)": {
        "notice": "Admin function"
      },
      "setupChapter(uint8,address,address,address)": {
        "notice": "Admin function"
      }
    },
    "version": 1
  }
}