{
  "contractName": "CrawlerMapperV1",
  "abi": [
    {
      "inputs": [],
      "stateMutability": "nonpayable",
      "type": "constructor"
    },
    {
      "inputs": [],
      "name": "contractChapterNumber",
      "outputs": [
        {
          "internalType": "uint8",
          "name": "",
          "type": "uint8"
        }
      ],
      "stateMutability": "view",
      "type": "function"
    },
    {
      "inputs": [],
      "name": "contractName",
      "outputs": [
        {
          "internalType": "string",
          "name": "",
          "type": "string"
        }
      ],
      "stateMutability": "view",
      "type": "function"
    },
    {
      "inputs": [],
      "name": "contractVersion",
      "outputs": [
        {
          "internalType": "uint8",
          "name": "",
          "type": "uint8"
        }
      ],
      "stateMutability": "view",
      "type": "function"
    },
    {
      "inputs": [
        {
          "internalType": "bytes4",
          "name": "interfaceId",
          "type": "bytes4"
        }
      ],
      "name": "supportsInterface",
      "outputs": [
        {
          "internalType": "bool",
          "name": "",
          "type": "bool"
        }
      ],
      "stateMutability": "view",
      "type": "function"
    },
    {
      "inputs": [
        {
          "components": [
            {
              "internalType": "uint256",
              "name": "coord",
              "type": "uint256"
            },
            {
              "internalType": "uint256",
              "name": "tokenId",
              "type": "uint256"
            },
            {
              "internalType": "uint256",
              "name": "seed",
              "type": "uint256"
            },
            {
              "internalType": "uint232",
              "name": "yonder",
              "type": "uint232"
            },
            {
              "internalType": "uint8",
              "name": "chapter",
              "type": "uint8"
            },
            {
              "internalType": "enum Crawl.Terrain",
              "name": "terrain",
              "type": "uint8"
            },
            {
              "internalType": "enum Crawl.Dir",
              "name": "entryDir",
              "type": "uint8"
            },
            {
              "components": [
                {
                  "internalType": "enum Crawl.Gem",
                  "name": "gemType",
                  "type": "uint8"
                },
                {
                  "internalType": "uint16",
                  "name": "coins",
                  "type": "uint16"
                },
                {
                  "internalType": "uint16",
                  "name": "worth",
                  "type": "uint16"
                }
              ],
              "internalType": "struct Crawl.Hoard",
              "name": "hoard",
              "type": "tuple"
            },
            {
              "internalType": "uint8",
              "name": "gemPos",
              "type": "uint8"
            },
            {
              "internalType": "uint8[4]",
              "name": "doors",
              "type": "uint8[4]"
            },
            {
              "internalType": "uint8[4]",
              "name": "locks",
              "type": "uint8[4]"
            },
            {
              "internalType": "uint256",
              "name": "bitmap",
              "type": "uint256"
            },
            {
              "internalType": "bytes",
              "name": "tilemap",
              "type": "bytes"
            },
            {
              "components": [
                {
                  "internalType": "enum Crawl.CustomDataType",
                  "name": "dataType",
                  "type": "uint8"
                },
                {
                  "internalType": "bytes",
                  "name": "data",
                  "type": "bytes"
                }
              ],
              "internalType": "struct Crawl.CustomData[]",
              "name": "customData",
              "type": "tuple[]"
            }
          ],
          "internalType": "struct Crawl.ChamberData",
          "name": "chamber",
          "type": "tuple"
        }
      ],
      "name": "generateTileMap",
      "outputs": [
        {
          "internalType": "bytes",
          "name": "result",
          "type": "bytes"
        }
      ],
      "stateMutability": "pure",
      "type": "function"
    },
    {
      "inputs": [
        {
          "internalType": "bytes1",
          "name": "tile",
          "type": "bytes1"
        },
        {
          "internalType": "uint8",
          "name": "bitPos",
          "type": "uint8"
        }
      ],
      "name": "getTileName",
      "outputs": [
        {
          "internalType": "string",
          "name": "",
          "type": "string"
        }
      ],
      "stateMutability": "view",
      "type": "function"
    },
    {
      "inputs": [
        {
          "internalType": "enum Crawl.Terrain",
          "name": "terrain",
          "type": "uint8"
        }
      ],
      "name": "getTerrainName",
      "outputs": [
        {
          "internalType": "string",
          "name": "",
          "type": "string"
        }
      ],
      "stateMutability": "view",
      "type": "function"
    },
    {
      "inputs": [
        {
          "internalType": "enum Crawl.Gem",
          "name": "gem",
          "type": "uint8"
        }
      ],
      "name": "getGemName",
      "outputs": [
        {
          "internalType": "string",
          "name": "",
          "type": "string"
        }
      ],
      "stateMutability": "view",
      "type": "function"
    },
    {
      "inputs": [
        {
          "internalType": "enum Crawl.Terrain",
          "name": "terrain",
          "type": "uint8"
        }
      ],
      "name": "getColors",
      "outputs": [
        {
          "internalType": "string[]",
          "name": "result",
          "type": "string[]"
        }
      ],
      "stateMutability": "view",
      "type": "function"
    },
    {
      "inputs": [
        {
          "internalType": "enum Crawl.Terrain",
          "name": "terrain",
          "type": "uint8"
        },
        {
          "internalType": "uint8",
          "name": "colorId",
          "type": "uint8"
        }
      ],
      "name": "getColor",
      "outputs": [
        {
          "internalType": "string",
          "name": "",
          "type": "string"
        }
      ],
      "stateMutability": "view",
      "type": "function"
    },
    {
      "inputs": [],
      "name": "getGemColors",
      "outputs": [
        {
          "internalType": "string[]",
          "name": "result",
          "type": "string[]"
        }
      ],
      "stateMutability": "view",
      "type": "function"
    },
    {
      "inputs": [
        {
          "internalType": "enum Crawl.Gem",
          "name": "gemType",
          "type": "uint8"
        }
      ],
      "name": "getGemColor",
      "outputs": [
        {
          "internalType": "string",
          "name": "",
          "type": "string"
        }
      ],
      "stateMutability": "view",
      "type": "function"
    },
    {
      "inputs": [
        {
          "components": [
            {
              "internalType": "uint256",
              "name": "coord",
              "type": "uint256"
            },
            {
              "internalType": "uint256",
              "name": "tokenId",
              "type": "uint256"
            },
            {
              "internalType": "uint256",
              "name": "seed",
              "type": "uint256"
            },
            {
              "internalType": "uint232",
              "name": "yonder",
              "type": "uint232"
            },
            {
              "internalType": "uint8",
              "name": "chapter",
              "type": "uint8"
            },
            {
              "internalType": "enum Crawl.Terrain",
              "name": "terrain",
              "type": "uint8"
            },
            {
              "internalType": "enum Crawl.Dir",
              "name": "entryDir",
              "type": "uint8"
            },
            {
              "components": [
                {
                  "internalType": "enum Crawl.Gem",
                  "name": "gemType",
                  "type": "uint8"
                },
                {
                  "internalType": "uint16",
                  "name": "coins",
                  "type": "uint16"
                },
                {
                  "internalType": "uint16",
                  "name": "worth",
                  "type": "uint16"
                }
              ],
              "internalType": "struct Crawl.Hoard",
              "name": "hoard",
              "type": "tuple"
            },
            {
              "internalType": "uint8",
              "name": "gemPos",
              "type": "uint8"
            },
            {
              "internalType": "uint8[4]",
              "name": "doors",
              "type": "uint8[4]"
            },
            {
              "internalType": "uint8[4]",
              "name": "locks",
              "type": "uint8[4]"
            },
            {
              "internalType": "uint256",
              "name": "bitmap",
              "type": "uint256"
            },
            {
              "internalType": "bytes",
              "name": "tilemap",
              "type": "bytes"
            },
            {
              "components": [
                {
                  "internalType": "enum Crawl.CustomDataType",
                  "name": "dataType",
                  "type": "uint8"
                },
                {
                  "internalType": "bytes",
                  "name": "data",
                  "type": "bytes"
                }
              ],
              "internalType": "struct Crawl.CustomData[]",
              "name": "customData",
              "type": "tuple[]"
            }
          ],
          "internalType": "struct Crawl.ChamberData",
          "name": "chamber",
          "type": "tuple"
        }
      ],
      "name": "getAttributes",
      "outputs": [
        {
          "internalType": "string[]",
          "name": "labels",
          "type": "string[]"
        },
        {
          "internalType": "string[]",
          "name": "values",
          "type": "string[]"
        }
      ],
      "stateMutability": "view",
      "type": "function"
    },
    {
      "inputs": [
        {
          "components": [
            {
              "internalType": "uint256",
              "name": "coord",
              "type": "uint256"
            },
            {
              "internalType": "uint256",
              "name": "tokenId",
              "type": "uint256"
            },
            {
              "internalType": "uint256",
              "name": "seed",
              "type": "uint256"
            },
            {
              "internalType": "uint232",
              "name": "yonder",
              "type": "uint232"
            },
            {
              "internalType": "uint8",
              "name": "chapter",
              "type": "uint8"
            },
            {
              "internalType": "enum Crawl.Terrain",
              "name": "terrain",
              "type": "uint8"
            },
            {
              "internalType": "enum Crawl.Dir",
              "name": "entryDir",
              "type": "uint8"
            },
            {
              "components": [
                {
                  "internalType": "enum Crawl.Gem",
                  "name": "gemType",
                  "type": "uint8"
                },
                {
                  "internalType": "uint16",
                  "name": "coins",
                  "type": "uint16"
                },
                {
                  "internalType": "uint16",
                  "name": "worth",
                  "type": "uint16"
                }
              ],
              "internalType": "struct Crawl.Hoard",
              "name": "hoard",
              "type": "tuple"
            },
            {
              "internalType": "uint8",
              "name": "gemPos",
              "type": "uint8"
            },
            {
              "internalType": "uint8[4]",
              "name": "doors",
              "type": "uint8[4]"
            },
            {
              "internalType": "uint8[4]",
              "name": "locks",
              "type": "uint8[4]"
            },
            {
              "internalType": "uint256",
              "name": "bitmap",
              "type": "uint256"
            },
            {
              "internalType": "bytes",
              "name": "tilemap",
              "type": "bytes"
            },
            {
              "components": [
                {
                  "internalType": "enum Crawl.CustomDataType",
                  "name": "dataType",
                  "type": "uint8"
                },
                {
                  "internalType": "bytes",
                  "name": "data",
                  "type": "bytes"
                }
              ],
              "internalType": "struct Crawl.CustomData[]",
              "name": "customData",
              "type": "tuple[]"
            }
          ],
          "internalType": "struct Crawl.ChamberData",
          "name": "",
          "type": "tuple"
        }
      ],
      "name": "renderSvgStyles",
      "outputs": [
        {
          "internalType": "string",
          "name": "",
          "type": "string"
        }
      ],
      "stateMutability": "view",
      "type": "function"
    },
    {
      "inputs": [
        {
          "components": [
            {
              "internalType": "uint256",
              "name": "coord",
              "type": "uint256"
            },
            {
              "internalType": "uint256",
              "name": "tokenId",
              "type": "uint256"
            },
            {
              "internalType": "uint256",
              "name": "seed",
              "type": "uint256"
            },
            {
              "internalType": "uint232",
              "name": "yonder",
              "type": "uint232"
            },
            {
              "internalType": "uint8",
              "name": "chapter",
              "type": "uint8"
            },
            {
              "internalType": "enum Crawl.Terrain",
              "name": "terrain",
              "type": "uint8"
            },
            {
              "internalType": "enum Crawl.Dir",
              "name": "entryDir",
              "type": "uint8"
            },
            {
              "components": [
                {
                  "internalType": "enum Crawl.Gem",
                  "name": "gemType",
                  "type": "uint8"
                },
                {
                  "internalType": "uint16",
                  "name": "coins",
                  "type": "uint16"
                },
                {
                  "internalType": "uint16",
                  "name": "worth",
                  "type": "uint16"
                }
              ],
              "internalType": "struct Crawl.Hoard",
              "name": "hoard",
              "type": "tuple"
            },
            {
              "internalType": "uint8",
              "name": "gemPos",
              "type": "uint8"
            },
            {
              "internalType": "uint8[4]",
              "name": "doors",
              "type": "uint8[4]"
            },
            {
              "internalType": "uint8[4]",
              "name": "locks",
              "type": "uint8[4]"
            },
            {
              "internalType": "uint256",
              "name": "bitmap",
              "type": "uint256"
            },
            {
              "internalType": "bytes",
              "name": "tilemap",
              "type": "bytes"
            },
            {
              "components": [
                {
                  "internalType": "enum Crawl.CustomDataType",
                  "name": "dataType",
                  "type": "uint8"
                },
                {
                  "internalType": "bytes",
                  "name": "data",
                  "type": "bytes"
                }
              ],
              "internalType": "struct Crawl.CustomData[]",
              "name": "customData",
              "type": "tuple[]"
            }
          ],
          "internalType": "struct Crawl.ChamberData",
          "name": "",
          "type": "tuple"
        }
      ],
      "name": "renderSvgDefs",
      "outputs": [
        {
          "internalType": "string",
          "name": "",
          "type": "string"
        }
      ],
      "stateMutability": "pure",
      "type": "function"
    }
  ],
  "bytecode": "0x608060405260405180608001604052806040518060a001604052806040518060400160405280600681526020017f314631413231000000000000000000000000000000000000000000000000000081525081526020016040518060400160405280600681526020017f394636373532000000000000000000000000000000000000000000000000000081525081526020016040518060400160405280600681526020017f463345394333000000000000000000000000000000000000000000000000000081525081526020016040518060400160405280600681526020017f374434453146000000000000000000000000000000000000000000000000000081525081526020016040518060400160405280600681526020017f464642454136000000000000000000000000000000000000000000000000000081525081525081526020016040518060a001604052806040518060400160405280600681526020017f314431413242000000000000000000000000000000000000000000000000000081525081526020016040518060400160405280600681526020017f344137444432000000000000000000000000000000000000000000000000000081525081526020016040518060400160405280600681526020017f424445454646000000000000000000000000000000000000000000000000000081525081526020016040518060400160405280600681526020017f304336343832000000000000000000000000000000000000000000000000000081525081526020016040518060400160405280600681526020017f464642454136000000000000000000000000000000000000000000000000000081525081525081526020016040518060a001604052806040518060400160405280600681526020017f323131453330000000000000000000000000000000000000000000000000000081525081526020016040518060400160405280600681526020017f383439364131000000000000000000000000000000000000000000000000000081525081526020016040518060400160405280600681526020017f443246464631000000000000000000000000000000000000000000000000000081525081526020016040518060400160405280600681526020017f304635463931000000000000000000000000000000000000000000000000000081525081526020016040518060400160405280600681526020017f464642454136000000000000000000000000000000000000000000000000000081525081525081526020016040518060a001604052806040518060400160405280600681526020017f333031453236000000000000000000000000000000000000000000000000000081525081526020016040518060400160405280600681526020017f424434313243000000000000000000000000000000000000000000000000000081525081526020016040518060400160405280600681526020017f464641463437000000000000000000000000000000000000000000000000000081525081526020016040518060400160405280600681526020017f443131433030000000000000000000000000000000000000000000000000000081525081526020016040518060400160405280600681526020017f46464245413600000000000000000000000000000000000000000000000000008152508152508152506005906004620004f392919062001230565b506040518061012001604052806040518060400160405280600681526020017f424242424242000000000000000000000000000000000000000000000000000081525081526020016040518060400160405280600681526020017f464646463444000000000000000000000000000000000000000000000000000081525081526020016040518060400160405280600681526020017f323934354646000000000000000000000000000000000000000000000000000081525081526020016040518060400160405280600681526020017f344446463634000000000000000000000000000000000000000000000000000081525081526020016040518060400160405280600681526020017f464633333333000000000000000000000000000000000000000000000000000081525081526020016040518060400160405280600681526020017f464646464646000000000000000000000000000000000000000000000000000081525081526020016040518060400160405280600681526020017f464636364334000000000000000000000000000000000000000000000000000081525081526020016040518060400160405280600681526020017f303030303030000000000000000000000000000000000000000000000000000081525081526020016040518060400160405280600681526020017f464646464646000000000000000000000000000000000000000000000000000081525081525060199060096200072392919062001288565b503480156200073157600080fd5b506200077b6040518060400160405280600681526020017f4d61707065720000000000000000000000000000000000000000000000000000815250600180620011e460201b60201c565b6040518060400160405280600481526020017f57616c6c00000000000000000000000000000000000000000000000000000000815250600260008060f81b7effffffffffffffffffffffffffffffffffffffffffffffffffffffffffffff19167effffffffffffffffffffffffffffffffffffffffffffffffffffffffffffff19168152602001908152602001600020908162000819919062001672565b506040518060400160405280600581526020017f456e74727900000000000000000000000000000000000000000000000000000081525060026000600160f81b7effffffffffffffffffffffffffffffffffffffffffffffffffffffffffffff19167effffffffffffffffffffffffffffffffffffffffffffffffffffffffffffff191681526020019081526020016000209081620008b9919062001672565b506040518060400160405280600481526020017f457869740000000000000000000000000000000000000000000000000000000081525060026000600260f81b7effffffffffffffffffffffffffffffffffffffffffffffffffffffffffffff19167effffffffffffffffffffffffffffffffffffffffffffffffffffffffffffff19168152602001908152602001600020908162000959919062001672565b506040518060400160405280600681526020017f4c6f636b6564000000000000000000000000000000000000000000000000000081525060026000600360f81b7effffffffffffffffffffffffffffffffffffffffffffffffffffffffffffff19167effffffffffffffffffffffffffffffffffffffffffffffffffffffffffffff191681526020019081526020016000209081620009f9919062001672565b506040518060400160405280600381526020017f47656d000000000000000000000000000000000000000000000000000000000081525060026000600460f81b7effffffffffffffffffffffffffffffffffffffffffffffffffffffffffffff19167effffffffffffffffffffffffffffffffffffffffffffffffffffffffffffff19168152602001908152602001600020908162000a99919062001672565b506040518060400160405280600481526020017f50617468000000000000000000000000000000000000000000000000000000008152506002600060ff60f81b7effffffffffffffffffffffffffffffffffffffffffffffffffffffffffffff19167effffffffffffffffffffffffffffffffffffffffffffffffffffffffffffff19168152602001908152602001600020908162000b39919062001672565b506040518060400160405280600581526020017f4561727468000000000000000000000000000000000000000000000000000000815250600360006001600481111562000b8b5762000b8a62001759565b5b600481111562000ba05762000b9f62001759565b5b8152602001908152602001600020908162000bbc919062001672565b506040518060400160405280600581526020017f5761746572000000000000000000000000000000000000000000000000000000815250600360006002600481111562000c0e5762000c0d62001759565b5b600481111562000c235762000c2262001759565b5b8152602001908152602001600020908162000c3f919062001672565b506040518060400160405280600381526020017f4169720000000000000000000000000000000000000000000000000000000000815250600360006003600481111562000c915762000c9062001759565b5b600481111562000ca65762000ca562001759565b5b8152602001908152602001600020908162000cc2919062001672565b506040518060400160405280600481526020017f46697265000000000000000000000000000000000000000000000000000000008152506003600060048081111562000d135762000d1262001759565b5b600481111562000d285762000d2762001759565b5b8152602001908152602001600020908162000d44919062001672565b506040518060400160405280600681526020017f53696c76657200000000000000000000000000000000000000000000000000008152506004600080600881111562000d955762000d9462001759565b5b600881111562000daa5762000da962001759565b5b8152602001908152602001600020908162000dc6919062001672565b506040518060400160405280600481526020017f476f6c6400000000000000000000000000000000000000000000000000000000815250600460006001600881111562000e185762000e1762001759565b5b600881111562000e2d5762000e2c62001759565b5b8152602001908152602001600020908162000e49919062001672565b506040518060400160405280600881526020017f5361707068697265000000000000000000000000000000000000000000000000815250600460006002600881111562000e9b5762000e9a62001759565b5b600881111562000eb05762000eaf62001759565b5b8152602001908152602001600020908162000ecc919062001672565b506040518060400160405280600781526020017f456d6572616c6400000000000000000000000000000000000000000000000000815250600460006003600881111562000f1e5762000f1d62001759565b5b600881111562000f335762000f3262001759565b5b8152602001908152602001600020908162000f4f919062001672565b506040518060400160405280600481526020017f5275627900000000000000000000000000000000000000000000000000000000815250600460006004600881111562000fa15762000fa062001759565b5b600881111562000fb65762000fb562001759565b5b8152602001908152602001600020908162000fd2919062001672565b506040518060400160405280600781526020017f4469616d6f6e6400000000000000000000000000000000000000000000000000815250600460006005600881111562001024576200102362001759565b5b600881111562001039576200103862001759565b5b8152602001908152602001600020908162001055919062001672565b506040518060400160405280600981526020017f45746865726e69746500000000000000000000000000000000000000000000008152506004600060066008811115620010a757620010a662001759565b5b6008811115620010bc57620010bb62001759565b5b81526020019081526020016000209081620010d8919062001672565b506040518060400160405280600381526020017f4b616f000000000000000000000000000000000000000000000000000000000081525060046000600760088111156200112a576200112962001759565b5b60088111156200113f576200113e62001759565b5b815260200190815260200160002090816200115b919062001672565b506040518060400160405280600481526020017f436f696e0000000000000000000000000000000000000000000000000000000081525060046000600880811115620011ac57620011ab62001759565b5b6008811115620011c157620011c062001759565b5b81526020019081526020016000209081620011dd919062001672565b5062001788565b8260019081620011f5919062001672565b50816000806101000a81548160ff021916908360ff16021790555080600060016101000a81548160ff021916908360ff160217905550505050565b826004600502810192821562001275579160200282015b82811115620012745782518290600562001263929190620012db565b509160200191906005019062001247565b5b5090506200128491906200132e565b5090565b8260098101928215620012c8579160200282015b82811115620012c7578251829081620012b6919062001672565b50916020019190600101906200129c565b5b509050620012d7919062001356565b5090565b82600581019282156200131b579160200282015b828111156200131a57825182908162001309919062001672565b5091602001919060010190620012ef565b5b5090506200132a919062001356565b5090565b5b808211156200135257600081816200134891906200137e565b506005016200132f565b5090565b5b808211156200137a576000818162001370919062001393565b5060010162001357565b5090565b50806005019062001390919062001356565b50565b508054620013a19062001461565b6000825580601f10620013b55750620013d6565b601f016020900490600052602060002090810190620013d59190620013d9565b5b50565b5b80821115620013f4576000816000905550600101620013da565b5090565b600081519050919050565b7f4e487b7100000000000000000000000000000000000000000000000000000000600052604160045260246000fd5b7f4e487b7100000000000000000000000000000000000000000000000000000000600052602260045260246000fd5b600060028204905060018216806200147a57607f821691505b60208210810362001490576200148f62001432565b5b50919050565b60008190508160005260206000209050919050565b60006020601f8301049050919050565b600082821b905092915050565b600060088302620014fa7fffffffffffffffffffffffffffffffffffffffffffffffffffffffffffffffff82620014bb565b620015068683620014bb565b95508019841693508086168417925050509392505050565b6000819050919050565b6000819050919050565b6000620015536200154d62001547846200151e565b62001528565b6200151e565b9050919050565b6000819050919050565b6200156f8362001532565b620015876200157e826200155a565b848454620014c8565b825550505050565b600090565b6200159e6200158f565b620015ab81848462001564565b505050565b5b81811015620015d357620015c760008262001594565b600181019050620015b1565b5050565b601f8211156200162257620015ec8162001496565b620015f784620014ab565b8101602085101562001607578190505b6200161f6200161685620014ab565b830182620015b0565b50505b505050565b600082821c905092915050565b6000620016476000198460080262001627565b1980831691505092915050565b600062001662838362001634565b9150826002028217905092915050565b6200167d82620013f8565b67ffffffffffffffff81111562001699576200169862001403565b5b620016a5825462001461565b620016b2828285620015d7565b600060209050601f831160018114620016ea5760008415620016d5578287015190505b620016e1858262001654565b86555062001751565b601f198416620016fa8662001496565b60005b828110156200172457848901518255600182019150602085019450602081019050620016fd565b8683101562001744578489015162001740601f89168262001634565b8355505b6001600288020188555050505b505050505050565b7f4e487b7100000000000000000000000000000000000000000000000000000000600052602160045260246000fd5b612f7f80620017986000396000f3fe608060405234801561001057600080fd5b50600436106100f45760003560e01c806368b78b7a11610097578063db1bede511610066578063db1bede5146102d4578063dbedeb3e146102f2578063f319922a14610322578063fa171c6514610352576100f4565b806368b78b7a1461023857806375d0c0dc14610268578063a0a8e46014610286578063bb912809146102a4576100f4565b806333328591116100d3578063333285911461018957806337210818146101ba5780635a4e066b146101ea5780635c322f261461021a576100f4565b80628ea79b146100f957806301ffc9a71461012957806329bead7814610159575b600080fd5b610113600480360381019061010e9190611f12565b610382565b6040516101209190611fcf565b60405180910390f35b610143600480360381019061013e9190612049565b61044b565b6040516101509190612091565b60405180910390f35b610173600480360381019061016e9190612745565b6104c5565b60405161018091906127e3565b60405180910390f35b6101a3600480360381019061019e9190612745565b61079b565b6040516101b1929190612911565b60405180910390f35b6101d460048036038101906101cf9190612948565b6110c0565b6040516101e19190611fcf565b60405180910390f35b61020460048036038101906101ff91906129cd565b611179565b6040516102119190611fcf565b60405180910390f35b610222611574565b60405161022f9190612a1c565b60405180910390f35b610252600480360381019061024d9190612a37565b6115db565b60405161025f9190611fcf565b60405180910390f35b6102706116ba565b60405161027d9190611fcf565b60405180910390f35b61028e61179d565b60405161029b9190612a1c565b60405180910390f35b6102be60048036038101906102b99190612745565b611808565b6040516102cb9190611fcf565b60405180910390f35b6102dc611821565b6040516102e99190612a77565b60405180910390f35b61030c60048036038101906103079190612745565b61195a565b6040516103199190611fcf565b60405180910390f35b61033c60048036038101906103379190611f12565b61197f565b6040516103499190612a77565b60405180910390f35b61036c60048036038101906103679190612948565b611aee565b6040516103799190611fcf565b60405180910390f35b60606003600083600481111561039b5761039a612a99565b5b60048111156103ad576103ac612a99565b5b815260200190815260200160002080546103c690612af7565b80601f01602080910402602001604051908101604052809291908181526020018280546103f290612af7565b801561043f5780601f106104145761010080835404028352916020019161043f565b820191906000526020600020905b81548152906001019060200180831161042257829003601f168201915b50505050509050919050565b60007fadb3aae6000000000000000000000000000000000000000000000000000000007bffffffffffffffffffffffffffffffffffffffffffffffffffffffff1916827bffffffffffffffffffffffffffffffffffffffffffffffffffffffff191614806104be57506104bd82611bb7565b5b9050919050565b606061010067ffffffffffffffff8111156104e3576104e26120b1565b5b6040519080825280601f01601f1916602001820160405280156105155781602001600182028036833780820191505090505b50905060008260c00151905060005b60048160ff1610156106565760008461012001518260ff166004811061054d5761054c612b28565b5b602002015160ff161115610645578060ff16600381111561057157610570612a99565b5b600381111561058357610582612a99565b5b82600381111561059657610595612a99565b5b146105da5760008461014001518260ff16600481106105b8576105b7612b28565b5b602002015160ff16146105cf57600360f81b6105d5565b600260f81b5b6105e0565b600160f81b5b838561012001518360ff16600481106105fc576105fb612b28565b5b602002015160ff168151811061061557610614612b28565b5b60200101907effffffffffffffffffffffffffffffffffffffffffffffffffffffffffffff1916908160001a9053505b8061064f90612b86565b9050610524565b50600460f81b8284610100015160ff168151811061067757610676612b28565b5b60200101907effffffffffffffffffffffffffffffffffffffffffffffffffffffffffffff1916908160001a90535060005b61010081101561079457600060f81b7effffffffffffffffffffffffffffffffffffffffffffffffffffffffffffff19168382815181106106ed576106ec612b28565b5b602001015160f81c60f81b7effffffffffffffffffffffffffffffffffffffffffffffffffffffffffffff19161480156107365750600061072d82611c31565b85610160015116115b156107835760ff60f81b83828151811061075357610752612b28565b5b60200101907effffffffffffffffffffffffffffffffffffffffffffffffffffffffffffff1916908160001a9053505b8061078d90612baf565b90506106a9565b5050919050565b606080600967ffffffffffffffff8111156107b9576107b86120b1565b5b6040519080825280602002602001820160405280156107ec57816020015b60608152602001906001900390816107d75790505b509150600967ffffffffffffffff81111561080a576108096120b1565b5b60405190808252806020026020018201604052801561083d57816020015b60608152602001906001900390816108285790505b5090506040518060400160405280600781526020017f43686170746572000000000000000000000000000000000000000000000000008152508260008151811061088a57610889612b28565b5b60200260200101819052506108a5836080015160ff16611c4e565b816000815181106108b9576108b8612b28565b5b60200260200101819052506040518060400160405280600781526020017f5465727261696e000000000000000000000000000000000000000000000000008152508260018151811061090e5761090d612b28565b5b6020026020010181905250600360008460a00151600481111561093457610933612a99565b5b600481111561094657610945612a99565b5b8152602001908152602001600020805461095f90612af7565b80601f016020809104026020016040519081016040528092919081815260200182805461098b90612af7565b80156109d85780601f106109ad576101008083540402835291602001916109d8565b820191906000526020600020905b8154815290600101906020018083116109bb57829003601f168201915b5050505050816001815181106109f1576109f0612b28565b5b6020026020010181905250600060c067ffffffffffffffff8016901b8460000151161115610ab2576040518060400160405280600581526020017f4e6f72746800000000000000000000000000000000000000000000000000000081525082600281518110610a6357610a62612b28565b5b6020026020010181905250610a8e60c08067ffffffffffffffff8016901b856000015116901c611c4e565b81600281518110610aa257610aa1612b28565b5b6020026020010181905250610b40565b6040518060400160405280600581526020017f536f75746800000000000000000000000000000000000000000000000000000081525082600281518110610afc57610afb612b28565b5b6020026020010181905250610b2067ffffffffffffffff8016846000015116611c4e565b81600281518110610b3457610b33612b28565b5b60200260200101819052505b6000608067ffffffffffffffff8016901b8460000151161115610bf6576040518060400160405280600481526020017f456173740000000000000000000000000000000000000000000000000000000081525082600381518110610ba757610ba6612b28565b5b6020026020010181905250610bd260808067ffffffffffffffff8016901b856000015116901c611c4e565b81600381518110610be657610be5612b28565b5b6020026020010181905250610c8b565b6040518060400160405280600481526020017f576573740000000000000000000000000000000000000000000000000000000081525082600381518110610c4057610c3f612b28565b5b6020026020010181905250610c6b60408067ffffffffffffffff8016901b856000015116901c611c4e565b81600381518110610c7f57610c7e612b28565b5b60200260200101819052505b6040518060400160405280600a81526020017f436f6f7264696e6174650000000000000000000000000000000000000000000081525082600481518110610cd557610cd4612b28565b5b602002602001018190525081600281518110610cf457610cf3612b28565b5b6020026020010151600081518110610d0f57610d0e612b28565b5b602001015160f81c60f81b81600281518110610d2e57610d2d612b28565b5b602002602001015183600381518110610d4a57610d49612b28565b5b6020026020010151600081518110610d6557610d64612b28565b5b602001015160f81c60f81b83600381518110610d8457610d83612b28565b5b6020026020010151604051602001610d9f9493929190612c54565b60405160208183030381529060405281600481518110610dc257610dc1612b28565b5b60200260200101819052506040518060400160405280600681526020017f596f6e646572000000000000000000000000000000000000000000000000000081525082600581518110610e1757610e16612b28565b5b6020026020010181905250610e4e83606001517cffffffffffffffffffffffffffffffffffffffffffffffffffffffffff16611c4e565b81600581518110610e6257610e61612b28565b5b60200260200101819052506040518060400160405280600381526020017f47656d000000000000000000000000000000000000000000000000000000000081525082600681518110610eb757610eb6612b28565b5b6020026020010181905250600460008460e00151600001516008811115610ee157610ee0612a99565b5b6008811115610ef357610ef2612a99565b5b81526020019081526020016000208054610f0c90612af7565b80601f0160208091040260200160405190810160405280929190818152602001828054610f3890612af7565b8015610f855780601f10610f5a57610100808354040283529160200191610f85565b820191906000526020600020905b815481529060010190602001808311610f6857829003601f168201915b505050505081600681518110610f9e57610f9d612b28565b5b60200260200101819052506040518060400160405280600581526020017f436f696e7300000000000000000000000000000000000000000000000000000081525082600781518110610ff357610ff2612b28565b5b60200260200101819052506110138360e001516020015161ffff16611c4e565b8160078151811061102757611026612b28565b5b60200260200101819052506040518060400160405280600581526020017f576f7274680000000000000000000000000000000000000000000000000000008152508260088151811061107c5761107b612b28565b5b602002602001018190525061109c8360e001516040015161ffff16611c4e565b816008815181106110b0576110af612b28565b5b6020026020010181905250915091565b606060198260088111156110d7576110d6612a99565b5b600981106110e8576110e7612b28565b5b0180546110f490612af7565b80601f016020809104026020016040519081016040528092919081815260200182805461112090612af7565b801561116d5780601f106111425761010080835404028352916020019161116d565b820191906000526020600020905b81548152906001019060200180831161115057829003601f168201915b50505050509050919050565b6060600160f81b7effffffffffffffffffffffffffffffffffffffffffffffffffffffffffffff1916837effffffffffffffffffffffffffffffffffffffffffffffffffffffffffffff1916036113035760006010836111d99190612cc9565b60ff160361121e576040518060400160405280600481526020017f446f776e00000000000000000000000000000000000000000000000000000000815250905061156e565b600f60108361122d9190612cc9565b60ff1603611272576040518060400160405280600281526020017f5570000000000000000000000000000000000000000000000000000000000000815250905061156e565b60006010836112819190612cfa565b60ff16036112c6576040518060400160405280600581526020017f5269676874000000000000000000000000000000000000000000000000000000815250905061156e565b6040518060400160405280600481526020017f4c65667400000000000000000000000000000000000000000000000000000000815250905061156e565b600260f81b7effffffffffffffffffffffffffffffffffffffffffffffffffffffffffffff1916837effffffffffffffffffffffffffffffffffffffffffffffffffffffffffffff19160361148b5760006010836113619190612cc9565b60ff16036113a6576040518060400160405280600281526020017f5570000000000000000000000000000000000000000000000000000000000000815250905061156e565b600f6010836113b59190612cc9565b60ff16036113fa576040518060400160405280600481526020017f446f776e00000000000000000000000000000000000000000000000000000000815250905061156e565b60006010836114099190612cfa565b60ff160361144e576040518060400160405280600481526020017f4c65667400000000000000000000000000000000000000000000000000000000815250905061156e565b6040518060400160405280600581526020017f5269676874000000000000000000000000000000000000000000000000000000815250905061156e565b60026000847effffffffffffffffffffffffffffffffffffffffffffffffffffffffffffff19167effffffffffffffffffffffffffffffffffffffffffffffffffffffffffffff1916815260200190815260200160002080546114ed90612af7565b80601f016020809104026020016040519081016040528092919081815260200182805461151990612af7565b80156115665780601f1061153b57610100808354040283529160200191611566565b820191906000526020600020905b81548152906001019060200180831161154957829003601f168201915b505050505090505b92915050565b60008060008054906101000a900460ff1660ff16036115c8576040517f08c379a00000000000000000000000000000000000000000000000000000000081526004016115bf90612d9d565b60405180910390fd5b60008054906101000a900460ff16905090565b6060600560018460048111156115f4576115f3612a99565b5b6115fe9190612dbd565b6004811061160f5761160e612b28565b5b600502018260ff166005811061162857611627612b28565b5b01805461163490612af7565b80601f016020809104026020016040519081016040528092919081815260200182805461166090612af7565b80156116ad5780601f10611682576101008083540402835291602001916116ad565b820191906000526020600020905b81548152906001019060200180831161169057829003601f168201915b5050505050905092915050565b60606000600180546116cb90612af7565b90501161170d576040517f08c379a000000000000000000000000000000000000000000000000000000000815260040161170490612d9d565b60405180910390fd5b6001805461171a90612af7565b80601f016020809104026020016040519081016040528092919081815260200182805461174690612af7565b80156117935780601f1061176857610100808354040283529160200191611793565b820191906000526020600020905b81548152906001019060200180831161177657829003601f168201915b5050505050905090565b600080600060019054906101000a900460ff1660ff16036117f3576040517f08c379a00000000000000000000000000000000000000000000000000000000081526004016117ea90612d9d565b60405180910390fd5b600060019054906101000a900460ff16905090565b6060604051806020016040528060008152509050919050565b6060600967ffffffffffffffff81111561183e5761183d6120b1565b5b60405190808252806020026020018201604052801561187157816020015b606081526020019060019003908161185c5790505b50905060005b81518160ff1610156119565760198160ff166009811061189a57611899612b28565b5b0180546118a690612af7565b80601f01602080910402602001604051908101604052809291908181526020018280546118d290612af7565b801561191f5780601f106118f45761010080835404028352916020019161191f565b820191906000526020600020905b81548152906001019060200180831161190257829003601f168201915b5050505050828260ff168151811061193a57611939612b28565b5b60200260200101819052508061194f90612b86565b9050611877565b5090565b60606040518061016001604052806101238152602001612e2761012391399050919050565b6060600567ffffffffffffffff81111561199c5761199b6120b1565b5b6040519080825280602002602001820160405280156119cf57816020015b60608152602001906001900390816119ba5790505b50905060005b81518160ff161015611ae857600560018460048111156119f8576119f7612a99565b5b611a029190612dbd565b60048110611a1357611a12612b28565b5b600502018160ff1660058110611a2c57611a2b612b28565b5b018054611a3890612af7565b80601f0160208091040260200160405190810160405280929190818152602001828054611a6490612af7565b8015611ab15780601f10611a8657610100808354040283529160200191611ab1565b820191906000526020600020905b815481529060010190602001808311611a9457829003601f168201915b5050505050828260ff1681518110611acc57611acb612b28565b5b602002602001018190525080611ae190612b86565b90506119d5565b50919050565b606060046000836008811115611b0757611b06612a99565b5b6008811115611b1957611b18612a99565b5b81526020019081526020016000208054611b3290612af7565b80601f0160208091040260200160405190810160405280929190818152602001828054611b5e90612af7565b8015611bab5780601f10611b8057610100808354040283529160200191611bab565b820191906000526020600020905b815481529060010190602001808311611b8e57829003601f168201915b50505050509050919050565b60007f894a0b9a000000000000000000000000000000000000000000000000000000007bffffffffffffffffffffffffffffffffffffffffffffffffffffffff1916827bffffffffffffffffffffffffffffffffffffffffffffffffffffffff19161480611c2a5750611c2982611d1c565b5b9050919050565b60008160ff611c409190612df1565b60ff166001901b9050919050565b606060006001611c5d84611d86565b01905060008167ffffffffffffffff811115611c7c57611c7b6120b1565b5b6040519080825280601f01601f191660200182016040528015611cae5781602001600182028036833780820191505090505b509050600082602001820190505b600115611d11578080600190039150507f3031323334353637383961626364656600000000000000000000000000000000600a86061a8153600a8581611d0557611d04612c9a565b5b04945060008503611cbc575b819350505050919050565b60007f01ffc9a7000000000000000000000000000000000000000000000000000000007bffffffffffffffffffffffffffffffffffffffffffffffffffffffff1916827bffffffffffffffffffffffffffffffffffffffffffffffffffffffff1916149050919050565b600080600090507a184f03e93ff9f4daa797ed6e38ed64bf6a1f0100000000000000008310611de4577a184f03e93ff9f4daa797ed6e38ed64bf6a1f0100000000000000008381611dda57611dd9612c9a565b5b0492506040810190505b6d04ee2d6d415b85acef81000000008310611e21576d04ee2d6d415b85acef81000000008381611e1757611e16612c9a565b5b0492506020810190505b662386f26fc100008310611e5057662386f26fc100008381611e4657611e45612c9a565b5b0492506010810190505b6305f5e1008310611e79576305f5e1008381611e6f57611e6e612c9a565b5b0492506008810190505b6127108310611e9e576127108381611e9457611e93612c9a565b5b0492506004810190505b60648310611ec15760648381611eb757611eb6612c9a565b5b0492506002810190505b600a8310611ed0576001810190505b80915050919050565b6000604051905090565b600080fd5b600080fd5b60058110611efa57600080fd5b50565b600081359050611f0c81611eed565b92915050565b600060208284031215611f2857611f27611ee3565b5b6000611f3684828501611efd565b91505092915050565b600081519050919050565b600082825260208201905092915050565b60005b83811015611f79578082015181840152602081019050611f5e565b60008484015250505050565b6000601f19601f8301169050919050565b6000611fa182611f3f565b611fab8185611f4a565b9350611fbb818560208601611f5b565b611fc481611f85565b840191505092915050565b60006020820190508181036000830152611fe98184611f96565b905092915050565b60007fffffffff0000000000000000000000000000000000000000000000000000000082169050919050565b61202681611ff1565b811461203157600080fd5b50565b6000813590506120438161201d565b92915050565b60006020828403121561205f5761205e611ee3565b5b600061206d84828501612034565b91505092915050565b60008115159050919050565b61208b81612076565b82525050565b60006020820190506120a66000830184612082565b92915050565b600080fd5b7f4e487b7100000000000000000000000000000000000000000000000000000000600052604160045260246000fd5b6120e982611f85565b810181811067ffffffffffffffff82111715612108576121076120b1565b5b80604052505050565b600061211b611ed9565b905061212782826120e0565b919050565b600080fd5b6000819050919050565b61214481612131565b811461214f57600080fd5b50565b6000813590506121618161213b565b92915050565b60007cffffffffffffffffffffffffffffffffffffffffffffffffffffffffff82169050919050565b61219981612167565b81146121a457600080fd5b50565b6000813590506121b681612190565b92915050565b600060ff82169050919050565b6121d2816121bc565b81146121dd57600080fd5b50565b6000813590506121ef816121c9565b92915050565b6004811061220257600080fd5b50565b600081359050612214816121f5565b92915050565b6009811061222757600080fd5b50565b6000813590506122398161221a565b92915050565b600061ffff82169050919050565b6122568161223f565b811461226157600080fd5b50565b6000813590506122738161224d565b92915050565b60006060828403121561228f5761228e6120ac565b5b6122996060612111565b905060006122a98482850161222a565b60008301525060206122bd84828501612264565b60208301525060406122d184828501612264565b60408301525092915050565b600080fd5b600067ffffffffffffffff8211156122fd576122fc6120b1565b5b602082029050919050565b600080fd5b600061232061231b846122e2565b612111565b9050806020840283018581111561233a57612339612308565b5b835b81811015612363578061234f88826121e0565b84526020840193505060208101905061233c565b5050509392505050565b600082601f830112612382576123816122dd565b5b600461238f84828561230d565b91505092915050565b600080fd5b600067ffffffffffffffff8211156123b8576123b76120b1565b5b6123c182611f85565b9050602081019050919050565b82818337600083830152505050565b60006123f06123eb8461239d565b612111565b90508281526020810184848401111561240c5761240b612398565b5b6124178482856123ce565b509392505050565b600082601f830112612434576124336122dd565b5b81356124448482602086016123dd565b91505092915050565b600067ffffffffffffffff821115612468576124676120b1565b5b602082029050602081019050919050565b6010811061248657600080fd5b50565b60008135905061249881612479565b92915050565b6000604082840312156124b4576124b36120ac565b5b6124be6040612111565b905060006124ce84828501612489565b600083015250602082013567ffffffffffffffff8111156124f2576124f161212c565b5b6124fe8482850161241f565b60208301525092915050565b600061251d6125188461244d565b612111565b905080838252602082019050602084028301858111156125405761253f612308565b5b835b8181101561258757803567ffffffffffffffff811115612565576125646122dd565b5b808601612572898261249e565b85526020850194505050602081019050612542565b5050509392505050565b600082601f8301126125a6576125a56122dd565b5b81356125b684826020860161250a565b91505092915050565b60006102c082840312156125d6576125d56120ac565b5b6125e16101c0612111565b905060006125f184828501612152565b600083015250602061260584828501612152565b602083015250604061261984828501612152565b604083015250606061262d848285016121a7565b6060830152506080612641848285016121e0565b60808301525060a061265584828501611efd565b60a08301525060c061266984828501612205565b60c08301525060e061267d84828501612279565b60e083015250610140612692848285016121e0565b610100830152506101606126a88482850161236d565b610120830152506101e06126be8482850161236d565b610140830152506102606126d484828501612152565b6101608301525061028082013567ffffffffffffffff8111156126fa576126f961212c565b5b6127068482850161241f565b610180830152506102a082013567ffffffffffffffff81111561272c5761272b61212c565b5b61273884828501612591565b6101a08301525092915050565b60006020828403121561275b5761275a611ee3565b5b600082013567ffffffffffffffff81111561277957612778611ee8565b5b612785848285016125bf565b91505092915050565b600081519050919050565b600082825260208201905092915050565b60006127b58261278e565b6127bf8185612799565b93506127cf818560208601611f5b565b6127d881611f85565b840191505092915050565b600060208201905081810360008301526127fd81846127aa565b905092915050565b600081519050919050565b600082825260208201905092915050565b6000819050602082019050919050565b600082825260208201905092915050565b600061284d82611f3f565b6128578185612831565b9350612867818560208601611f5b565b61287081611f85565b840191505092915050565b60006128878383612842565b905092915050565b6000602082019050919050565b60006128a782612805565b6128b18185612810565b9350836020820285016128c385612821565b8060005b858110156128ff57848403895281516128e0858261287b565b94506128eb8361288f565b925060208a019950506001810190506128c7565b50829750879550505050505092915050565b6000604082019050818103600083015261292b818561289c565b9050818103602083015261293f818461289c565b90509392505050565b60006020828403121561295e5761295d611ee3565b5b600061296c8482850161222a565b91505092915050565b60007fff0000000000000000000000000000000000000000000000000000000000000082169050919050565b6129aa81612975565b81146129b557600080fd5b50565b6000813590506129c7816129a1565b92915050565b600080604083850312156129e4576129e3611ee3565b5b60006129f2858286016129b8565b9250506020612a03858286016121e0565b9150509250929050565b612a16816121bc565b82525050565b6000602082019050612a316000830184612a0d565b92915050565b60008060408385031215612a4e57612a4d611ee3565b5b6000612a5c85828601611efd565b9250506020612a6d858286016121e0565b9150509250929050565b60006020820190508181036000830152612a91818461289c565b905092915050565b7f4e487b7100000000000000000000000000000000000000000000000000000000600052602160045260246000fd5b7f4e487b7100000000000000000000000000000000000000000000000000000000600052602260045260246000fd5b60006002820490506001821680612b0f57607f821691505b602082108103612b2257612b21612ac8565b5b50919050565b7f4e487b7100000000000000000000000000000000000000000000000000000000600052603260045260246000fd5b7f4e487b7100000000000000000000000000000000000000000000000000000000600052601160045260246000fd5b6000612b91826121bc565b915060ff8203612ba457612ba3612b57565b5b600182019050919050565b6000612bba82612131565b91507fffffffffffffffffffffffffffffffffffffffffffffffffffffffffffffffff8203612bec57612beb612b57565b5b600182019050919050565b6000819050919050565b612c12612c0d82612975565b612bf7565b82525050565b600081905092915050565b6000612c2e8261278e565b612c388185612c18565b9350612c48818560208601611f5b565b80840191505092915050565b6000612c608287612c01565b600182019150612c708286612c23565b9150612c7c8285612c01565b600182019150612c8c8284612c23565b915081905095945050505050565b7f4e487b7100000000000000000000000000000000000000000000000000000000600052601260045260246000fd5b6000612cd4826121bc565b9150612cdf836121bc565b925082612cef57612cee612c9a565b5b828204905092915050565b6000612d05826121bc565b9150612d10836121bc565b925082612d2057612d1f612c9a565b5b828206905092915050565b7f437261776c6572436f6e74726163743a20436f6e7472616374206e6f7420736560008201527f7475700000000000000000000000000000000000000000000000000000000000602082015250565b6000612d87602383611f4a565b9150612d9282612d2b565b604082019050919050565b60006020820190508181036000830152612db681612d7a565b9050919050565b6000612dc882612131565b9150612dd383612131565b9250828203905081811115612deb57612dea612b57565b5b92915050565b6000612dfc826121bc565b9150612e07836121bc565b9250828203905060ff811115612e2057612e1f612b57565b5b9291505056fe3c706174682069643d22446f776e2220643d226d2030203020682031206c202d302e3520302e3535205a222f3e3c706174682069643d2255702220643d226d2030203120682031206c202d302e35202d302e3535205a222f3e3c706174682069643d224c6566742220643d226d2031203020762031206c202d302e3535202d302e35205a222f3e3c706174682069643d2252696768742220643d226d2030203020762031206c20302e3535202d302e35205a222f3e3c706174682069643d2247656d2220643d226d203020302e35206c20302e3520302e35206c20302e35202d302e35206c202d302e35202d302e35205a222f3e3c636972636c652069643d224c6f636b6564222063783d22302e35222063793d22302e352220723d22302e34222f3ea2646970667358221220486fa6ae0c12040d4693a055d51f2a4b88f322c43c85e4bb3b6bb644a979de7b64736f6c63430008100033",
  "immutableReferences": {},
  "source": "// SPDX-License-Identifier: MIT\n//\n//    \n//             \n//              \n//              \n//              \n//          \n//        \n//      \n//\n// https://endlesscrawler.io\n// @EndlessCrawler\n//\n/// @title Endless Crawler Chamber Mapper v.1\n/// @author Studio Avante\n/// @notice Creates Chambers tilemap and parameters for ICrawlerRenderer\n//\npragma solidity ^0.8.16;\nimport { IERC165 } from '@openzeppelin/contracts/utils/introspection/ERC165.sol';\nimport { CrawlerContract } from './CrawlerContract.sol';\nimport { ICrawlerMapper } from './ICrawlerMapper.sol';\nimport { MapV1 } from './MapV1.sol';\nimport { Crawl } from './Crawl.sol';\n\ncontract CrawlerMapperV1 is CrawlerContract, ICrawlerMapper {\n\n\tmapping(bytes1 => string) internal _tileNames;\n\tmapping(Crawl.Terrain => string) internal _terrainNames;\n\tmapping(Crawl.Gem => string) internal _gemNames;\n\n\tstring[5][4] internal palettes = [ // in Crawl.Terrain order\n\t\t// Background, Path, Tiles,    Shadows,  Player\n\t\t['1F1A21', '9F6752', 'F3E9C3', '7D4E1F', 'FFBEA6'],\t// Earth\n\t\t['1D1A2B', '4A7DD2', 'BDEEFF', '0C6482', 'FFBEA6'],\t// Water\n\t\t['211E30', '8496A1', 'D2FFF1', '0F5F91', 'FFBEA6'],\t// Air\n\t\t['301E26', 'BD412C', 'FFAF47', 'D11C00', 'FFBEA6']\t// Fire\n\t];\n\tstring[9] internal gemColors = [ // in Crawl.Gem order\n\t\t'BBBBBB',\t// Silver\n\t\t'FFFF4D',\t// Gold\n\t\t'2945FF', // Sapphire\n\t\t'4DFF64',\t// Emerald\n\t\t'FF3333',\t// Ruby\n\t\t'FFFFFF',\t// Diamond\n\t\t'FF66C4',\t// Ethernite\n\t\t'000000',\t// Kao\n\t\t'FFFFFF'\t// Coin\n\t];\n\n\tconstructor() {\n\t\tsetupCrawlerContract('Mapper', 1, 1);\n\t\t_tileNames[MapV1.Tile_Void] = 'Wall';\n\t\t_tileNames[MapV1.Tile_Entry] = 'Entry';\n\t\t_tileNames[MapV1.Tile_Exit] = 'Exit';\n\t\t_tileNames[MapV1.Tile_LockedExit] = 'Locked';\n\t\t_tileNames[MapV1.Tile_Gem] = 'Gem';\n\t\t_tileNames[MapV1.Tile_Path] = 'Path';\n\t\t_terrainNames[Crawl.Terrain.Earth] = 'Earth';\n\t\t_terrainNames[Crawl.Terrain.Water] = 'Water';\n\t\t_terrainNames[Crawl.Terrain.Air] = 'Air';\n\t\t_terrainNames[Crawl.Terrain.Fire] = 'Fire';\n\t\t_gemNames[Crawl.Gem.Silver] = 'Silver';\n\t\t_gemNames[Crawl.Gem.Gold] = 'Gold';\n\t\t_gemNames[Crawl.Gem.Sapphire] = 'Sapphire';\n\t\t_gemNames[Crawl.Gem.Emerald] = 'Emerald';\n\t\t_gemNames[Crawl.Gem.Ruby] = 'Ruby';\n\t\t_gemNames[Crawl.Gem.Diamond] = 'Diamond';\n\t\t_gemNames[Crawl.Gem.Ethernite] = 'Ethernite';\n\t\t_gemNames[Crawl.Gem.Kao] = 'Kao';\n\t\t_gemNames[Crawl.Gem.Coin] = 'Coin';\n\t}\n\n\t/// @dev implements IERC165\n\tfunction supportsInterface(bytes4 interfaceId) public view virtual override(IERC165, CrawlerContract) returns (bool) {\n\t\treturn interfaceId == type(ICrawlerMapper).interfaceId || CrawlerContract.supportsInterface(interfaceId);\n\t}\n\n\t/// @notice Converts a Chamber's bitmap into a Tiles map\n\t/// @param chamber The Chamber Data, with bitmap\n\t/// @return result 256 bytes array of Tiles defined in MapV1\n\t/// @dev Can be overriden by new or derivative contracts, adding new tiles to the Chamber\n\tfunction generateTileMap(Crawl.ChamberData memory chamber) public pure virtual override returns (bytes memory result) {\n\t\t// alloc 256 bytes, filled with MapV1.Tile_Void (0x0)\n\t\tresult = new bytes(256);\n\n\t\t// set doors\n\t\tCrawl.Dir entry = Crawl.Dir(chamber.entryDir);\n\t\tfor(uint8 d = 0 ; d < 4 ; ++d) {\n\t\t\tif(chamber.doors[d] > 0) {\n\t\t\t\tresult[chamber.doors[d]] =\n\t\t\t\t\t(entry == Crawl.Dir(d)) ? MapV1.Tile_Entry :\n\t\t\t\t\tchamber.locks[d] == 0 ? MapV1.Tile_Exit : MapV1.Tile_LockedExit;\n\t\t\t}\n\t\t}\n\n\t\t// set Gems\n\t\tresult[chamber.gemPos] = MapV1.Tile_Gem;\n\t\t\n\t\t// convert bitmap to path tiles\n\t\tfor(uint256 i = 0 ; i < 256 ; ++i) {\n\t\t\tif(result[i] == MapV1.Tile_Void && (chamber.bitmap & Crawl.tilePosToBitmap(uint8(i))) > 0) {\n\t\t\t\tresult[i] = MapV1.Tile_Path;\n\t\t\t}\n\t\t}\n\t}\n\n\t/// @notice Returns a Tile name\n\t/// @param tile The Tile id, defined in MapV1\n\t/// @param bitPos Tile position on the bitmap\n\t/// @return result The tile name, used as svg xlink:href id by the renderer\n\t/// @dev Can be overriden by new or derivative contracts, adding new tiles to the Chamber\n\tfunction getTileName(bytes1 tile, uint8 bitPos) public view virtual override returns (string memory) {\n\t\tif (tile == MapV1.Tile_Entry) {\n\t\t\tif ((bitPos / 16) == 0) return 'Down';\n\t\t\tif ((bitPos / 16) == 15) return 'Up';\n\t\t\tif ((bitPos % 16) == 0) return 'Right';\n\t\t\treturn 'Left';\n\t\t}\n\t\tif (tile == MapV1.Tile_Exit) {\n\t\t\tif ((bitPos / 16) == 0) return 'Up';\n\t\t\tif ((bitPos / 16) == 15) return 'Down';\n\t\t\tif ((bitPos % 16) == 0) return 'Left';\n\t\t\treturn 'Right';\n\t\t}\n\t\treturn _tileNames[tile];\n\t}\n\n\t/// @notice Returns a Chamber's Terrain name\n\t/// @param terrain Terrain type\n\t/// @return result The Terrain name\n\t/// @dev Can be overriden by new or derivative contracts, adding new meaning to Terrains\n\tfunction getTerrainName(Crawl.Terrain terrain) public view virtual override returns (string memory) {\n\t\treturn _terrainNames[terrain];\n\t}\n\n\t/// @notice Returns a Chamber's Gem name\n\t/// @param gem Gem type\n\t/// @return result The Gem name\n\t/// @dev Can be overriden by new or derivative contracts, adding new meaning to Gems\n\tfunction getGemName(Crawl.Gem gem) public view virtual override returns (string memory) {\n\t\treturn _gemNames[gem];\n\t}\n\n\t/// @notice Returns a Chamber's complete color values\n\t/// @param terrain Terrain type of the Chamber\n\t/// @return result hex color values array (without # prefix)\n\t/// @dev Can be overriden by new or derivative contracts\n\tfunction getColors(Crawl.Terrain terrain) public view virtual override returns (string[] memory result) {\n\t\tresult = new string[](5);\n\t\tfor(uint8 i = 0 ; i < result.length ; ++i) {\n\t\t\tresult[i] = palettes[uint256(terrain)-1][i];\n\t\t}\n\t}\n\n\t/// @notice Returns a Chamber's specific color value\n\t/// @param terrain Terrain type of the Chamber\n\t/// @param colorId The color id/index, as defined in MapV1\n\t/// @return result The hex color value (without # prefix)\n\t/// @dev Can be overriden by new or derivative contracts\n\tfunction getColor(Crawl.Terrain terrain, uint8 colorId) public view virtual override returns (string memory) {\n\t\treturn palettes[uint256(terrain)-1][colorId];\n\t}\n\n\t/// @notice Returns the complete Gem color values\n\t/// @return result hex color values array (without # prefix)\n\t/// @dev Can be overriden by new or derivative contracts\n\tfunction getGemColors() public view virtual override returns (string[] memory result) {\n\t\tresult = new string[](9);\n\t\tfor(uint8 i = 0 ; i < result.length ; ++i) {\n\t\t\tresult[i] = gemColors[i];\n\t\t}\n\t}\n\n\t/// @notice Returns a specific Gem color value\n\t/// @param gemType Gem type\n\t/// @return result The hex color value (without # prefix)\n\t/// @dev Can be overriden by new or derivative contracts\n\tfunction getGemColor(Crawl.Gem gemType) public view virtual override returns (string memory) {\n\t\treturn gemColors[uint256(gemType)];\n\t}\n\n\t/// @notice Returns a Chamber's attributes, for tokenURI() metadata\n\t/// @param chamber The Chamber Data\n\t/// @return labels Array containing the attributes labels\n\t/// @return values Array containing the attributes values\n\t/// @dev Can be overriden by new or derivative contracts, adding new attributes\n\tfunction getAttributes(Crawl.ChamberData memory chamber) public view virtual override returns (string[] memory labels, string[] memory values) {\n\t\tlabels = new string[](9);\n\t\tvalues = new string[](9);\n\t\tlabels[0] = 'Chapter';\n\t\tvalues[0] =  Crawl.toString(chamber.chapter);\n\t\tlabels[1] = 'Terrain';\n\t\tvalues[1] = _terrainNames[chamber.terrain];\n\t\tif((chamber.coord & Crawl.mask_North) > 0) {\n\t\t\tlabels[2] = 'North';\n\t\t\tvalues[2] = Crawl.toString((chamber.coord & Crawl.mask_North)>>192);\n\t\t} else {\n\t\t\tlabels[2] = 'South';\n\t\t\tvalues[2] = Crawl.toString(chamber.coord & Crawl.mask_South);\n\t\t}\n\t\tif((chamber.coord & Crawl.mask_East) > 0) {\n\t\t\tlabels[3] = 'East';\n\t\t\tvalues[3] = Crawl.toString((chamber.coord & Crawl.mask_East)>>128);\n\t\t} else {\n\t\t\tlabels[3] = 'West';\n\t\t\tvalues[3] = Crawl.toString((chamber.coord & Crawl.mask_West)>>64);\n\t\t}\n\t\tlabels[4] = 'Coordinate';\n\t\tvalues[4] = string(bytes.concat(bytes(labels[2])[0], bytes(values[2]), bytes(labels[3])[0], bytes(values[3]) ));\n\t\tlabels[5] = 'Yonder';\n\t\tvalues[5] = Crawl.toString(chamber.yonder);\n\t\tlabels[6] = 'Gem';\n\t\tvalues[6] = _gemNames[chamber.hoard.gemType];\n\t\tlabels[7] = 'Coins';\n\t\tvalues[7] = Crawl.toString(chamber.hoard.coins);\n\t\tlabels[8] = 'Worth';\n\t\tvalues[8] = Crawl.toString(chamber.hoard.worth);\n\t}\n\n\t/// @notice Returns custom Tile CSS styles\n\t// @param chamber The Chamber Data\n\t/// @return result CSS styles string\n\t/// @dev Can be overriden by new or derivative contracts, updating or adding new Tiles\n\tfunction renderSvgStyles(Crawl.ChamberData memory /*chamber*/) public view virtual override returns (string memory) {\n\t\treturn ''; // Standard styles are defined on the renderer\n\t}\n\n\t/// @notice Returns custom Tile SVG objects\n\t// @param chamber The Chamber Data\n\t/// @return result SVG objects string, with ids to be used in <use>\n\t/// @dev Can be overriden by new or derivative contracts, updating or adding new Tiles\n\tfunction renderSvgDefs(Crawl.ChamberData memory /*chamber*/) public pure virtual override returns (string memory) {\n\t\treturn\n\t\t\t'<path id=\"Down\" d=\"m 0 0 h 1 l -0.5 0.55 Z\"/>'\n\t\t\t'<path id=\"Up\" d=\"m 0 1 h 1 l -0.5 -0.55 Z\"/>'\n\t\t\t'<path id=\"Left\" d=\"m 1 0 v 1 l -0.55 -0.5 Z\"/>'\n\t\t\t'<path id=\"Right\" d=\"m 0 0 v 1 l 0.55 -0.5 Z\"/>'\n\t\t\t'<path id=\"Gem\" d=\"m 0 0.5 l 0.5 0.5 l 0.5 -0.5 l -0.5 -0.5 Z\"/>'\n\t\t\t'<circle id=\"Locked\" cx=\"0.5\" cy=\"0.5\" r=\"0.4\"/>';\n\t}\n\n}\n",
  "sourcePath": "/Users/roger/Dev/Blockchain/Truffle/ec-crawler/contracts/CrawlerMapperV1.sol",
  "compiler": {
    "name": "solc",
    "version": "0.8.16+commit.07a7930e.Emscripten.clang"
  },
  "schemaVersion": "3.4.11",
  "updatedAt": "2022-12-05T06:38:13.682Z",
  "networkType": "ethereum",
  "devdoc": {
    "kind": "dev",
    "methods": {
      "contractChapterNumber()": {
        "returns": {
          "_0": "chapterNumber Contract chapter number"
        }
      },
      "contractName()": {
        "returns": {
          "_0": "name Contract name"
        }
      },
      "contractVersion()": {
        "returns": {
          "_0": "version Contract version"
        }
      },
      "generateTileMap((uint256,uint256,uint256,uint232,uint8,uint8,uint8,(uint8,uint16,uint16),uint8,uint8[4],uint8[4],uint256,bytes,(uint8,bytes)[]))": {
        "details": "Can be overriden by new or derivative contracts, adding new tiles to the Chamber",
        "params": {
          "chamber": "The Chamber Data, with bitmap"
        },
        "returns": {
          "result": "256 bytes array of Tiles defined in MapV1"
        }
      },
      "getAttributes((uint256,uint256,uint256,uint232,uint8,uint8,uint8,(uint8,uint16,uint16),uint8,uint8[4],uint8[4],uint256,bytes,(uint8,bytes)[]))": {
        "details": "Can be overriden by new or derivative contracts, adding new attributes",
        "params": {
          "chamber": "The Chamber Data"
        },
        "returns": {
          "labels": "Array containing the attributes labels",
          "values": "Array containing the attributes values"
        }
      },
      "getColor(uint8,uint8)": {
        "details": "Can be overriden by new or derivative contracts",
        "params": {
          "colorId": "The color id/index, as defined in MapV1",
          "terrain": "Terrain type of the Chamber"
        },
        "returns": {
          "_0": "result The hex color value (without # prefix)"
        }
      },
      "getColors(uint8)": {
        "details": "Can be overriden by new or derivative contracts",
        "params": {
          "terrain": "Terrain type of the Chamber"
        },
        "returns": {
          "result": "hex color values array (without # prefix)"
        }
      },
      "getGemColor(uint8)": {
        "details": "Can be overriden by new or derivative contracts",
        "params": {
          "gemType": "Gem type"
        },
        "returns": {
          "_0": "result The hex color value (without # prefix)"
        }
      },
      "getGemColors()": {
        "details": "Can be overriden by new or derivative contracts",
        "returns": {
          "result": "hex color values array (without # prefix)"
        }
      },
      "getGemName(uint8)": {
        "details": "Can be overriden by new or derivative contracts, adding new meaning to Gems",
        "params": {
          "gem": "Gem type"
        },
        "returns": {
          "_0": "result The Gem name"
        }
      },
      "getTerrainName(uint8)": {
        "details": "Can be overriden by new or derivative contracts, adding new meaning to Terrains",
        "params": {
          "terrain": "Terrain type"
        },
        "returns": {
          "_0": "result The Terrain name"
        }
      },
      "getTileName(bytes1,uint8)": {
        "details": "Can be overriden by new or derivative contracts, adding new tiles to the Chamber",
        "params": {
          "bitPos": "Tile position on the bitmap",
          "tile": "The Tile id, defined in MapV1"
        },
        "returns": {
          "_0": "result The tile name, used as svg xlink:href id by the renderer"
        }
      },
      "renderSvgDefs((uint256,uint256,uint256,uint232,uint8,uint8,uint8,(uint8,uint16,uint16),uint8,uint8[4],uint8[4],uint256,bytes,(uint8,bytes)[]))": {
        "details": "Can be overriden by new or derivative contracts, updating or adding new Tiles",
        "returns": {
          "_0": "result SVG objects string, with ids to be used in <use>"
        }
      },
      "renderSvgStyles((uint256,uint256,uint256,uint232,uint8,uint8,uint8,(uint8,uint16,uint16),uint8,uint8[4],uint8[4],uint256,bytes,(uint8,bytes)[]))": {
        "details": "Can be overriden by new or derivative contracts, updating or adding new Tiles",
        "returns": {
          "_0": "result CSS styles string"
        }
      },
      "supportsInterface(bytes4)": {
        "details": "implements IERC165"
      }
    },
    "version": 1
  },
  "userdoc": {
    "kind": "user",
    "methods": {
      "contractChapterNumber()": {
        "notice": "Returns the first chapter number this contract was used"
      },
      "contractName()": {
        "notice": "Returns the contract name"
      },
      "contractVersion()": {
        "notice": "Returns the contract version"
      },
      "generateTileMap((uint256,uint256,uint256,uint232,uint8,uint8,uint8,(uint8,uint16,uint16),uint8,uint8[4],uint8[4],uint256,bytes,(uint8,bytes)[]))": {
        "notice": "Converts a Chamber's bitmap into a Tiles map"
      },
      "getAttributes((uint256,uint256,uint256,uint232,uint8,uint8,uint8,(uint8,uint16,uint16),uint8,uint8[4],uint8[4],uint256,bytes,(uint8,bytes)[]))": {
        "notice": "Returns a Chamber's attributes, for tokenURI() metadata"
      },
      "getColor(uint8,uint8)": {
        "notice": "Returns a Chamber's specific color value"
      },
      "getColors(uint8)": {
        "notice": "Returns a Chamber's complete color values"
      },
      "getGemColor(uint8)": {
        "notice": "Returns a specific Gem color value"
      },
      "getGemColors()": {
        "notice": "Returns the complete Gem color values"
      },
      "getGemName(uint8)": {
        "notice": "Returns a Chamber's Gem name"
      },
      "getTerrainName(uint8)": {
        "notice": "Returns a Chamber's Terrain name"
      },
      "getTileName(bytes1,uint8)": {
        "notice": "Returns a Tile name"
      }
    },
    "version": 1
  }
}