{
  "contractName": "CrawlerRendererV2",
  "abi": [
    {
      "inputs": [],
      "stateMutability": "nonpayable",
      "type": "constructor"
    },
    {
      "inputs": [],
      "name": "contractChapterNumber",
      "outputs": [
        {
          "internalType": "uint8",
          "name": "",
          "type": "uint8"
        }
      ],
      "stateMutability": "view",
      "type": "function"
    },
    {
      "inputs": [],
      "name": "contractName",
      "outputs": [
        {
          "internalType": "string",
          "name": "",
          "type": "string"
        }
      ],
      "stateMutability": "view",
      "type": "function"
    },
    {
      "inputs": [],
      "name": "contractVersion",
      "outputs": [
        {
          "internalType": "uint8",
          "name": "",
          "type": "uint8"
        }
      ],
      "stateMutability": "view",
      "type": "function"
    },
    {
      "inputs": [
        {
          "components": [
            {
              "internalType": "uint256",
              "name": "coord",
              "type": "uint256"
            },
            {
              "internalType": "uint256",
              "name": "tokenId",
              "type": "uint256"
            },
            {
              "internalType": "uint256",
              "name": "seed",
              "type": "uint256"
            },
            {
              "internalType": "uint232",
              "name": "yonder",
              "type": "uint232"
            },
            {
              "internalType": "uint8",
              "name": "chapter",
              "type": "uint8"
            },
            {
              "internalType": "enum Crawl.Terrain",
              "name": "terrain",
              "type": "uint8"
            },
            {
              "internalType": "enum Crawl.Dir",
              "name": "entryDir",
              "type": "uint8"
            },
            {
              "components": [
                {
                  "internalType": "enum Crawl.Gem",
                  "name": "gemType",
                  "type": "uint8"
                },
                {
                  "internalType": "uint16",
                  "name": "coins",
                  "type": "uint16"
                },
                {
                  "internalType": "uint16",
                  "name": "worth",
                  "type": "uint16"
                }
              ],
              "internalType": "struct Crawl.Hoard",
              "name": "hoard",
              "type": "tuple"
            },
            {
              "internalType": "uint8",
              "name": "gemPos",
              "type": "uint8"
            },
            {
              "internalType": "uint8[4]",
              "name": "doors",
              "type": "uint8[4]"
            },
            {
              "internalType": "uint8[4]",
              "name": "locks",
              "type": "uint8[4]"
            },
            {
              "internalType": "uint256",
              "name": "bitmap",
              "type": "uint256"
            },
            {
              "internalType": "bytes",
              "name": "tilemap",
              "type": "bytes"
            },
            {
              "components": [
                {
                  "internalType": "enum Crawl.CustomDataType",
                  "name": "dataType",
                  "type": "uint8"
                },
                {
                  "internalType": "bytes",
                  "name": "data",
                  "type": "bytes"
                }
              ],
              "internalType": "struct Crawl.CustomData[]",
              "name": "customData",
              "type": "tuple[]"
            }
          ],
          "internalType": "struct Crawl.ChamberData",
          "name": "chamber",
          "type": "tuple"
        },
        {
          "internalType": "contract ICrawlerMapper",
          "name": "mapper",
          "type": "address"
        }
      ],
      "name": "getColors",
      "outputs": [
        {
          "internalType": "string[]",
          "name": "result",
          "type": "string[]"
        }
      ],
      "stateMutability": "view",
      "type": "function"
    },
    {
      "inputs": [
        {
          "components": [
            {
              "internalType": "uint256",
              "name": "coord",
              "type": "uint256"
            },
            {
              "internalType": "uint256",
              "name": "tokenId",
              "type": "uint256"
            },
            {
              "internalType": "uint256",
              "name": "seed",
              "type": "uint256"
            },
            {
              "internalType": "uint232",
              "name": "yonder",
              "type": "uint232"
            },
            {
              "internalType": "uint8",
              "name": "chapter",
              "type": "uint8"
            },
            {
              "internalType": "enum Crawl.Terrain",
              "name": "terrain",
              "type": "uint8"
            },
            {
              "internalType": "enum Crawl.Dir",
              "name": "entryDir",
              "type": "uint8"
            },
            {
              "components": [
                {
                  "internalType": "enum Crawl.Gem",
                  "name": "gemType",
                  "type": "uint8"
                },
                {
                  "internalType": "uint16",
                  "name": "coins",
                  "type": "uint16"
                },
                {
                  "internalType": "uint16",
                  "name": "worth",
                  "type": "uint16"
                }
              ],
              "internalType": "struct Crawl.Hoard",
              "name": "hoard",
              "type": "tuple"
            },
            {
              "internalType": "uint8",
              "name": "gemPos",
              "type": "uint8"
            },
            {
              "internalType": "uint8[4]",
              "name": "doors",
              "type": "uint8[4]"
            },
            {
              "internalType": "uint8[4]",
              "name": "locks",
              "type": "uint8[4]"
            },
            {
              "internalType": "uint256",
              "name": "bitmap",
              "type": "uint256"
            },
            {
              "internalType": "bytes",
              "name": "tilemap",
              "type": "bytes"
            },
            {
              "components": [
                {
                  "internalType": "enum Crawl.CustomDataType",
                  "name": "dataType",
                  "type": "uint8"
                },
                {
                  "internalType": "bytes",
                  "name": "data",
                  "type": "bytes"
                }
              ],
              "internalType": "struct Crawl.CustomData[]",
              "name": "customData",
              "type": "tuple[]"
            }
          ],
          "internalType": "struct Crawl.ChamberData",
          "name": "chamber",
          "type": "tuple"
        },
        {
          "internalType": "contract ICrawlerMapper",
          "name": "mapper",
          "type": "address"
        }
      ],
      "name": "renderAdditionalChamberMetadata",
      "outputs": [
        {
          "internalType": "string",
          "name": "",
          "type": "string"
        }
      ],
      "stateMutability": "view",
      "type": "function"
    },
    {
      "inputs": [
        {
          "components": [
            {
              "internalType": "uint256",
              "name": "coord",
              "type": "uint256"
            },
            {
              "internalType": "uint256",
              "name": "tokenId",
              "type": "uint256"
            },
            {
              "internalType": "uint256",
              "name": "seed",
              "type": "uint256"
            },
            {
              "internalType": "uint232",
              "name": "yonder",
              "type": "uint232"
            },
            {
              "internalType": "uint8",
              "name": "chapter",
              "type": "uint8"
            },
            {
              "internalType": "enum Crawl.Terrain",
              "name": "terrain",
              "type": "uint8"
            },
            {
              "internalType": "enum Crawl.Dir",
              "name": "entryDir",
              "type": "uint8"
            },
            {
              "components": [
                {
                  "internalType": "enum Crawl.Gem",
                  "name": "gemType",
                  "type": "uint8"
                },
                {
                  "internalType": "uint16",
                  "name": "coins",
                  "type": "uint16"
                },
                {
                  "internalType": "uint16",
                  "name": "worth",
                  "type": "uint16"
                }
              ],
              "internalType": "struct Crawl.Hoard",
              "name": "hoard",
              "type": "tuple"
            },
            {
              "internalType": "uint8",
              "name": "gemPos",
              "type": "uint8"
            },
            {
              "internalType": "uint8[4]",
              "name": "doors",
              "type": "uint8[4]"
            },
            {
              "internalType": "uint8[4]",
              "name": "locks",
              "type": "uint8[4]"
            },
            {
              "internalType": "uint256",
              "name": "bitmap",
              "type": "uint256"
            },
            {
              "internalType": "bytes",
              "name": "tilemap",
              "type": "bytes"
            },
            {
              "components": [
                {
                  "internalType": "enum Crawl.CustomDataType",
                  "name": "dataType",
                  "type": "uint8"
                },
                {
                  "internalType": "bytes",
                  "name": "data",
                  "type": "bytes"
                }
              ],
              "internalType": "struct Crawl.CustomData[]",
              "name": "customData",
              "type": "tuple[]"
            }
          ],
          "internalType": "struct Crawl.ChamberData",
          "name": "",
          "type": "tuple"
        },
        {
          "internalType": "contract ICrawlerMapper",
          "name": "",
          "type": "address"
        }
      ],
      "name": "renderBackground",
      "outputs": [
        {
          "internalType": "string",
          "name": "",
          "type": "string"
        }
      ],
      "stateMutability": "view",
      "type": "function"
    },
    {
      "inputs": [
        {
          "components": [
            {
              "internalType": "uint256",
              "name": "coord",
              "type": "uint256"
            },
            {
              "internalType": "uint256",
              "name": "tokenId",
              "type": "uint256"
            },
            {
              "internalType": "uint256",
              "name": "seed",
              "type": "uint256"
            },
            {
              "internalType": "uint232",
              "name": "yonder",
              "type": "uint232"
            },
            {
              "internalType": "uint8",
              "name": "chapter",
              "type": "uint8"
            },
            {
              "internalType": "enum Crawl.Terrain",
              "name": "terrain",
              "type": "uint8"
            },
            {
              "internalType": "enum Crawl.Dir",
              "name": "entryDir",
              "type": "uint8"
            },
            {
              "components": [
                {
                  "internalType": "enum Crawl.Gem",
                  "name": "gemType",
                  "type": "uint8"
                },
                {
                  "internalType": "uint16",
                  "name": "coins",
                  "type": "uint16"
                },
                {
                  "internalType": "uint16",
                  "name": "worth",
                  "type": "uint16"
                }
              ],
              "internalType": "struct Crawl.Hoard",
              "name": "hoard",
              "type": "tuple"
            },
            {
              "internalType": "uint8",
              "name": "gemPos",
              "type": "uint8"
            },
            {
              "internalType": "uint8[4]",
              "name": "doors",
              "type": "uint8[4]"
            },
            {
              "internalType": "uint8[4]",
              "name": "locks",
              "type": "uint8[4]"
            },
            {
              "internalType": "uint256",
              "name": "bitmap",
              "type": "uint256"
            },
            {
              "internalType": "bytes",
              "name": "tilemap",
              "type": "bytes"
            },
            {
              "components": [
                {
                  "internalType": "enum Crawl.CustomDataType",
                  "name": "dataType",
                  "type": "uint8"
                },
                {
                  "internalType": "bytes",
                  "name": "data",
                  "type": "bytes"
                }
              ],
              "internalType": "struct Crawl.CustomData[]",
              "name": "customData",
              "type": "tuple[]"
            }
          ],
          "internalType": "struct Crawl.ChamberData",
          "name": "chamber",
          "type": "tuple"
        },
        {
          "internalType": "contract ICrawlerMapper",
          "name": "mapper",
          "type": "address"
        }
      ],
      "name": "renderMapMetadata",
      "outputs": [
        {
          "internalType": "string",
          "name": "",
          "type": "string"
        }
      ],
      "stateMutability": "view",
      "type": "function"
    },
    {
      "inputs": [
        {
          "components": [
            {
              "internalType": "uint256",
              "name": "coord",
              "type": "uint256"
            },
            {
              "internalType": "uint256",
              "name": "tokenId",
              "type": "uint256"
            },
            {
              "internalType": "uint256",
              "name": "seed",
              "type": "uint256"
            },
            {
              "internalType": "uint232",
              "name": "yonder",
              "type": "uint232"
            },
            {
              "internalType": "uint8",
              "name": "chapter",
              "type": "uint8"
            },
            {
              "internalType": "enum Crawl.Terrain",
              "name": "terrain",
              "type": "uint8"
            },
            {
              "internalType": "enum Crawl.Dir",
              "name": "entryDir",
              "type": "uint8"
            },
            {
              "components": [
                {
                  "internalType": "enum Crawl.Gem",
                  "name": "gemType",
                  "type": "uint8"
                },
                {
                  "internalType": "uint16",
                  "name": "coins",
                  "type": "uint16"
                },
                {
                  "internalType": "uint16",
                  "name": "worth",
                  "type": "uint16"
                }
              ],
              "internalType": "struct Crawl.Hoard",
              "name": "hoard",
              "type": "tuple"
            },
            {
              "internalType": "uint8",
              "name": "gemPos",
              "type": "uint8"
            },
            {
              "internalType": "uint8[4]",
              "name": "doors",
              "type": "uint8[4]"
            },
            {
              "internalType": "uint8[4]",
              "name": "locks",
              "type": "uint8[4]"
            },
            {
              "internalType": "uint256",
              "name": "bitmap",
              "type": "uint256"
            },
            {
              "internalType": "bytes",
              "name": "tilemap",
              "type": "bytes"
            },
            {
              "components": [
                {
                  "internalType": "enum Crawl.CustomDataType",
                  "name": "dataType",
                  "type": "uint8"
                },
                {
                  "internalType": "bytes",
                  "name": "data",
                  "type": "bytes"
                }
              ],
              "internalType": "struct Crawl.CustomData[]",
              "name": "customData",
              "type": "tuple[]"
            }
          ],
          "internalType": "struct Crawl.ChamberData",
          "name": "chamber",
          "type": "tuple"
        },
        {
          "internalType": "contract ICrawlerMapper",
          "name": "mapper",
          "type": "address"
        }
      ],
      "name": "renderSvgDefs",
      "outputs": [
        {
          "internalType": "string",
          "name": "",
          "type": "string"
        }
      ],
      "stateMutability": "view",
      "type": "function"
    },
    {
      "inputs": [
        {
          "components": [
            {
              "internalType": "uint256",
              "name": "coord",
              "type": "uint256"
            },
            {
              "internalType": "uint256",
              "name": "tokenId",
              "type": "uint256"
            },
            {
              "internalType": "uint256",
              "name": "seed",
              "type": "uint256"
            },
            {
              "internalType": "uint232",
              "name": "yonder",
              "type": "uint232"
            },
            {
              "internalType": "uint8",
              "name": "chapter",
              "type": "uint8"
            },
            {
              "internalType": "enum Crawl.Terrain",
              "name": "terrain",
              "type": "uint8"
            },
            {
              "internalType": "enum Crawl.Dir",
              "name": "entryDir",
              "type": "uint8"
            },
            {
              "components": [
                {
                  "internalType": "enum Crawl.Gem",
                  "name": "gemType",
                  "type": "uint8"
                },
                {
                  "internalType": "uint16",
                  "name": "coins",
                  "type": "uint16"
                },
                {
                  "internalType": "uint16",
                  "name": "worth",
                  "type": "uint16"
                }
              ],
              "internalType": "struct Crawl.Hoard",
              "name": "hoard",
              "type": "tuple"
            },
            {
              "internalType": "uint8",
              "name": "gemPos",
              "type": "uint8"
            },
            {
              "internalType": "uint8[4]",
              "name": "doors",
              "type": "uint8[4]"
            },
            {
              "internalType": "uint8[4]",
              "name": "locks",
              "type": "uint8[4]"
            },
            {
              "internalType": "uint256",
              "name": "bitmap",
              "type": "uint256"
            },
            {
              "internalType": "bytes",
              "name": "tilemap",
              "type": "bytes"
            },
            {
              "components": [
                {
                  "internalType": "enum Crawl.CustomDataType",
                  "name": "dataType",
                  "type": "uint8"
                },
                {
                  "internalType": "bytes",
                  "name": "data",
                  "type": "bytes"
                }
              ],
              "internalType": "struct Crawl.CustomData[]",
              "name": "customData",
              "type": "tuple[]"
            }
          ],
          "internalType": "struct Crawl.ChamberData",
          "name": "chamber",
          "type": "tuple"
        },
        {
          "internalType": "contract ICrawlerMapper",
          "name": "mapper",
          "type": "address"
        }
      ],
      "name": "renderSvgStyles",
      "outputs": [
        {
          "internalType": "string",
          "name": "",
          "type": "string"
        }
      ],
      "stateMutability": "view",
      "type": "function"
    },
    {
      "inputs": [
        {
          "components": [
            {
              "internalType": "uint256",
              "name": "coord",
              "type": "uint256"
            },
            {
              "internalType": "uint256",
              "name": "tokenId",
              "type": "uint256"
            },
            {
              "internalType": "uint256",
              "name": "seed",
              "type": "uint256"
            },
            {
              "internalType": "uint232",
              "name": "yonder",
              "type": "uint232"
            },
            {
              "internalType": "uint8",
              "name": "chapter",
              "type": "uint8"
            },
            {
              "internalType": "enum Crawl.Terrain",
              "name": "terrain",
              "type": "uint8"
            },
            {
              "internalType": "enum Crawl.Dir",
              "name": "entryDir",
              "type": "uint8"
            },
            {
              "components": [
                {
                  "internalType": "enum Crawl.Gem",
                  "name": "gemType",
                  "type": "uint8"
                },
                {
                  "internalType": "uint16",
                  "name": "coins",
                  "type": "uint16"
                },
                {
                  "internalType": "uint16",
                  "name": "worth",
                  "type": "uint16"
                }
              ],
              "internalType": "struct Crawl.Hoard",
              "name": "hoard",
              "type": "tuple"
            },
            {
              "internalType": "uint8",
              "name": "gemPos",
              "type": "uint8"
            },
            {
              "internalType": "uint8[4]",
              "name": "doors",
              "type": "uint8[4]"
            },
            {
              "internalType": "uint8[4]",
              "name": "locks",
              "type": "uint8[4]"
            },
            {
              "internalType": "uint256",
              "name": "bitmap",
              "type": "uint256"
            },
            {
              "internalType": "bytes",
              "name": "tilemap",
              "type": "bytes"
            },
            {
              "components": [
                {
                  "internalType": "enum Crawl.CustomDataType",
                  "name": "dataType",
                  "type": "uint8"
                },
                {
                  "internalType": "bytes",
                  "name": "data",
                  "type": "bytes"
                }
              ],
              "internalType": "struct Crawl.CustomData[]",
              "name": "customData",
              "type": "tuple[]"
            }
          ],
          "internalType": "struct Crawl.ChamberData",
          "name": "chamber",
          "type": "tuple"
        },
        {
          "internalType": "contract ICrawlerMapper",
          "name": "mapper",
          "type": "address"
        }
      ],
      "name": "renderTokenMetadata",
      "outputs": [
        {
          "internalType": "string",
          "name": "",
          "type": "string"
        }
      ],
      "stateMutability": "view",
      "type": "function"
    },
    {
      "inputs": [
        {
          "internalType": "bytes4",
          "name": "interfaceId",
          "type": "bytes4"
        }
      ],
      "name": "supportsInterface",
      "outputs": [
        {
          "internalType": "bool",
          "name": "",
          "type": "bool"
        }
      ],
      "stateMutability": "view",
      "type": "function"
    }
  ],
  "bytecode": "0x60806040523480156200001157600080fd5b506200005b6040518060400160405280600881526020017f52656e6465726572000000000000000000000000000000000000000000000000815250600180620000aa60201b60201c565b620000a46040518060400160405280600881526020017f52656e6465726572000000000000000000000000000000000000000000000000815250600280620000aa60201b60201c565b62000457565b8260019081620000bb919062000370565b50816000806101000a81548160ff021916908360ff16021790555080600060016101000a81548160ff021916908360ff160217905550505050565b600081519050919050565b7f4e487b7100000000000000000000000000000000000000000000000000000000600052604160045260246000fd5b7f4e487b7100000000000000000000000000000000000000000000000000000000600052602260045260246000fd5b600060028204905060018216806200017857607f821691505b6020821081036200018e576200018d62000130565b5b50919050565b60008190508160005260206000209050919050565b60006020601f8301049050919050565b600082821b905092915050565b600060088302620001f87fffffffffffffffffffffffffffffffffffffffffffffffffffffffffffffffff82620001b9565b620002048683620001b9565b95508019841693508086168417925050509392505050565b6000819050919050565b6000819050919050565b6000620002516200024b62000245846200021c565b62000226565b6200021c565b9050919050565b6000819050919050565b6200026d8362000230565b620002856200027c8262000258565b848454620001c6565b825550505050565b600090565b6200029c6200028d565b620002a981848462000262565b505050565b5b81811015620002d157620002c560008262000292565b600181019050620002af565b5050565b601f8211156200032057620002ea8162000194565b620002f584620001a9565b8101602085101562000305578190505b6200031d6200031485620001a9565b830182620002ae565b50505b505050565b600082821c905092915050565b6000620003456000198460080262000325565b1980831691505092915050565b600062000360838362000332565b9150826002028217905092915050565b6200037b82620000f6565b67ffffffffffffffff81111562000397576200039662000101565b5b620003a382546200015f565b620003b0828285620002d5565b600060209050601f831160018114620003e85760008415620003d3578287015190505b620003df858262000352565b8655506200044f565b601f198416620003f88662000194565b60005b828110156200042257848901518255600182019150602085019450602081019050620003fb565b868310156200044257848901516200043e601f89168262000332565b8355505b6001600288020188555050505b505050505050565b61538880620004676000396000f3fe608060405234801561001057600080fd5b50600436106100a95760003560e01c806373d6f4f31161007157806373d6f4f31461018c57806375d0c0dc146101bc578063a0a8e460146101da578063b542a7c5146101f8578063e83b78d814610228578063f4d792ac14610258576100a9565b806301ffc9a7146100ae578063123ff138146100de5780633d29d6e31461010e5780635c322f261461013e5780635d1a5d181461015c575b600080fd5b6100c860048036038101906100c39190611b9d565b610288565b6040516100d59190611be5565b60405180910390f35b6100f860048036038101906100f3919061233f565b61029a565b604051610105919061241a565b60405180910390f35b6101286004803603810190610123919061233f565b610323565b604051610135919061241a565b60405180910390f35b610146610626565b604051610153919061244b565b60405180910390f35b6101766004803603810190610171919061233f565b61068d565b6040516101839190612572565b60405180910390f35b6101a660048036038101906101a1919061233f565b6108b9565b6040516101b3919061241a565b60405180910390f35b6101c4610942565b6040516101d1919061241a565b60405180910390f35b6101e2610a25565b6040516101ef919061244b565b60405180910390f35b610212600480360381019061020d919061233f565b610a90565b60405161021f919061241a565b60405180910390f35b610242600480360381019061023d919061233f565b611088565b60405161024f919061241a565b60405180910390f35b610272600480360381019061026d919061233f565b61109c565b60405161027f919061241a565b60405180910390f35b6000610293826110b6565b9050919050565b60608173ffffffffffffffffffffffffffffffffffffffff1663dbedeb3e846040518263ffffffff1660e01b81526004016102d59190612a86565b600060405180830381865afa1580156102f2573d6000803e3d6000fd5b505050506040513d6000823e3d601f19601f8201168201806040525081019061031b9190612b49565b905092915050565b6060610100836101800151511461036f576040517f08c379a000000000000000000000000000000000000000000000000000000000815260040161036690612bde565b60405180910390fd5b600061037b848461068d565b90506005815110156103c2576040517f08c379a00000000000000000000000000000000000000000000000000000000081526004016103b990612c4a565b60405180910390fd5b73__Crawl_________________________________6363e1cbea856040015160206040518363ffffffff1660e01b8152600401610400929190612cbe565b600060405180830381865af415801561041d573d6000803e3d6000fd5b505050506040513d6000823e3d601f19601f820116820180604052508101906104469190612b49565b610454856101800151611130565b82600060ff168151811061046b5761046a612ce7565b5b602002602001015183600160ff168151811061048a57610489612ce7565b5b602002602001015184600260ff16815181106104a9576104a8612ce7565b5b602002602001015185600360ff16815181106104c8576104c7612ce7565b5b602002602001015186600460ff16815181106104e7576104e6612ce7565b5b60200260200101518973ffffffffffffffffffffffffffffffffffffffff1663372108188c60e00151600001516040518263ffffffff1660e01b81526004016105309190612d25565b600060405180830381865afa15801561054d573d6000803e3d6000fd5b505050506040513d6000823e3d601f19601f820116820180604052508101906105769190612b49565b8a73ffffffffffffffffffffffffffffffffffffffff16633721081860086040518263ffffffff1660e01b81526004016105b09190612d25565b600060405180830381865afa1580156105cd573d6000803e3d6000fd5b505050506040513d6000823e3d601f19601f820116820180604052508101906105f69190612b49565b60405160200161060e99989796959493929190612f44565b60405160208183030381529060405291505092915050565b60008060008054906101000a900460ff1660ff160361067a576040517f08c379a0000000000000000000000000000000000000000000000000000000008152600401610671906130c7565b60405180910390fd5b60008054906101000a900460ff16905090565b60608173ffffffffffffffffffffffffffffffffffffffff1663f319922a8460a001516040518263ffffffff1660e01b81526004016106cc91906130f6565b600060405180830381865afa1580156106e9573d6000803e3d6000fd5b505050506040513d6000823e3d601f19601f8201168201806040525081019061071291906131f2565b905060005b836101a00151518110156108b257600b600f811115610739576107386125c1565b5b846101a00151828151811061075157610750612ce7565b5b602002602001015160000151600f81111561076f5761076e6125c1565b5b036108a15760005b6003856101a00151838151811061079157610790612ce7565b5b602002602001015160200151516107a89190613299565b811080156107b65750825181105b1561089b5773__Crawl_________________________________63afdf4e1c866101a0015184815181106107ed576107ec612ce7565b5b60200260200101516020015160038461080691906132ca565b60036040518463ffffffff1660e01b8152600401610826939291906133a9565b600060405180830381865af4158015610843573d6000803e3d6000fd5b505050506040513d6000823e3d601f19601f8201168201806040525081019061086c9190612b49565b83828151811061087f5761087e612ce7565b5b602002602001018190525080610894906133e7565b9050610777565b506108b2565b806108ab906133e7565b9050610717565b5092915050565b60608173ffffffffffffffffffffffffffffffffffffffff1663bb912809846040518263ffffffff1660e01b81526004016108f49190612a86565b600060405180830381865afa158015610911573d6000803e3d6000fd5b505050506040513d6000823e3d601f19601f8201168201806040525081019061093a9190612b49565b905092915050565b60606000600180546109539061345e565b905011610995576040517f08c379a000000000000000000000000000000000000000000000000000000000815260040161098c906130c7565b60405180910390fd5b600180546109a29061345e565b80601f01602080910402602001604051908101604052809291908181526020018280546109ce9061345e565b8015610a1b5780601f106109f057610100808354040283529160200191610a1b565b820191906000526020600020905b8154815290600101906020018083116109fe57829003601f168201915b5050505050905090565b600080600060019054906101000a900460ff1660ff1603610a7b576040517f08c379a0000000000000000000000000000000000000000000000000000000008152600401610a72906130c7565b60405180910390fd5b600060019054906101000a900460ff16905090565b60606101008361018001515114610adc576040517f08c379a0000000000000000000000000000000000000000000000000000000008152600401610ad390612bde565b60405180910390fd5b6000610ae8848461068d565b9050600581511015610b2f576040517f08c379a0000000000000000000000000000000000000000000000000000000008152600401610b2690612c4a565b60405180910390fd5b600081600060ff1681518110610b4857610b47612ce7565b5b602002602001015182600160ff1681518110610b6757610b66612ce7565b5b602002602001015183600260ff1681518110610b8657610b85612ce7565b5b602002602001015184600360ff1681518110610ba557610ba4612ce7565b5b602002602001015185600460ff1681518110610bc457610bc3612ce7565b5b60200260200101518873ffffffffffffffffffffffffffffffffffffffff1663372108188b60e00151600001516040518263ffffffff1660e01b8152600401610c0d9190612d25565b600060405180830381865afa158015610c2a573d6000803e3d6000fd5b505050506040513d6000823e3d601f19601f82011682018060405250810190610c539190612b49565b604051602001610c6896959493929190613599565b6040516020818303038152906040529050600081610c8687876108b9565b610c90888861029a565b610c9a8989611293565b610ca78a60200151611641565b73__Crawl_________________________________6373f05b9f8c600001518d606001516040518363ffffffff1660e01b8152600401610ce89291906136e8565b600060405180830381865af4158015610d05573d6000803e3d6000fd5b505050506040513d6000823e3d601f19601f82011682018060405250810190610d2e9190612b49565b604051602001610d4396959493929190613b4c565b60405160208183030381529060405290506000610d638760200151611641565b84600060ff1681518110610d7a57610d79612ce7565b5b6020026020010151610d8c898961109c565b84604051602001610da0949392919061435a565b6040516020818303038152906040529050600073__Crawl_________________________________6373f05b9f896000015160006040518363ffffffff1660e01b8152600401610df1929190614429565b600060405180830381865af4158015610e0e573d6000803e3d6000fd5b505050506040513d6000823e3d601f19601f82011682018060405250810190610e379190612b49565b604051602001610e4791906144d7565b60405160208183030381529060405290506000808873ffffffffffffffffffffffffffffffffffffffff1663333285918b6040518263ffffffff1660e01b8152600401610e949190612a86565b600060405180830381865afa158015610eb1573d6000803e3d6000fd5b505050506040513d6000823e3d601f19601f82011682018060405250810190610eda91906144f9565b91509150600073__Crawl_________________________________63261650e6610f078d60200151611641565b6040518263ffffffff1660e01b8152600401610f2391906145aa565b600060405180830381865af4158015610f40573d6000803e3d6000fd5b505050506040513d6000823e3d601f19601f82011682018060405250810190610f699190612b49565b610f768c60200151611641565b85868b600060ff1681518110610f8f57610f8e612ce7565b5b602002602001015173__Crawl_________________________________6359af1b4789896040518363ffffffff1660e01b8152600401610fd09291906146b0565b600060405180830381865af4158015610fed573d6000803e3d6000fd5b505050506040513d6000823e3d601f19601f820116820180604052508101906110169190612b49565b61101f8c611130565b6110288c611130565b60405160200161103f989796959493929190614921565b604051602081830303815290604052905061105981611130565b6040516020016110699190614a34565b6040516020818303038152906040529850505050505050505092915050565b6060611094838361170f565b905092915050565b606060405180602001604052806000815250905092915050565b60007f605009fe000000000000000000000000000000000000000000000000000000007bffffffffffffffffffffffffffffffffffffffffffffffffffffffff1916827bffffffffffffffffffffffffffffffffffffffffffffffffffffffff191614806111295750611128826118e1565b5b9050919050565b606060008251036111525760405180602001604052806000815250905061128e565b600060405180606001604052806040815260200161531360409139905060006003600285516111819190614a5a565b61118b9190613299565b600461119791906132ca565b67ffffffffffffffff8111156111b0576111af611c16565b5b6040519080825280601f01601f1916602001820160405280156111e25781602001600182028036833780820191505090505b509050600182016020820185865187015b8082101561124e576003820191508151603f8160121c168501518453600184019350603f81600c1c168501518453600184019350603f8160061c168501518453600184019350603f81168501518453600184019350506111f3565b505060038651066001811461126a576002811461127d57611285565b603d6001830353603d6002830353611285565b603d60018303535b50505080925050505b919050565b60608060608060008060005b61010081101561160f5760006010826112b89190614a8e565b905060006010836112c99190613299565b905060008b610180015184815181106112e5576112e4612ce7565b5b602001015160f81c60f81b905060ff60f81b7effffffffffffffffffffffffffffffffffffffffffffffffffffffffffffff1916817effffffffffffffffffffffffffffffffffffffffffffffffffffffffffffff19160361135c576000850361134d578295505b8480611358906133e7565b9550505b60ff60f81b7effffffffffffffffffffffffffffffffffffffffffffffffffffffffffffff1916817effffffffffffffffffffffffffffffffffffffffffffffffffffffffffffff19161415806113b35750600f83145b80156113bf5750600085115b1561140957886113ce87611641565b6113d784611641565b6113e088611641565b6040516020016113f39493929190614b57565b6040516020818303038152906040529850600094505b60ff60f81b7effffffffffffffffffffffffffffffffffffffffffffffffffffffffffffff1916817effffffffffffffffffffffffffffffffffffffffffffffffffffffffffffff1916141580156114a95750600060f81b7effffffffffffffffffffffffffffffffffffffffffffffffffffffffffffff1916817effffffffffffffffffffffffffffffffffffffffffffffffffffffffffffff191614155b156115fb57878b73ffffffffffffffffffffffffffffffffffffffff16635a4e066b83876040518363ffffffff1660e01b81526004016114ea929190614c0c565b600060405180830381865afa158015611507573d6000803e3d6000fd5b505050506040513d6000823e3d601f19601f820116820180604052508101906115309190612b49565b61153985611641565b61154285611641565b6115518560f81c60ff16611641565b604051602001611565959493929190614ccd565b6040516020818303038152906040529750600160f81b7effffffffffffffffffffffffffffffffffffffffffffffffffffffffffffff1916817effffffffffffffffffffffffffffffffffffffffffffffffffffffffffffff1916036115fa576115ce83611641565b6115d783611641565b6040516020016115e8929190614daf565b60405160208183030381529060405296505b5b50505080611608906133e7565b905061129f565b5084838560405160200161162593929190614ebe565b6040516020818303038152906040529550505050505092915050565b6060600060016116508461195b565b01905060008167ffffffffffffffff81111561166f5761166e611c16565b5b6040519080825280601f01601f1916602001820160405280156116a15781602001600182028036833780820191505090505b509050600082602001820190505b600115611704578080600190039150507f3031323334353637383961626364656600000000000000000000000000000000600a86061a8153600a85816116f8576116f761323b565b5b049450600085036116af575b819350505050919050565b6060600061175261174d61174586606001517cffffffffffffffffffffffffffffffffffffffffffffffffffffffffff16611641565b516003611aae565b611641565b90506118b981828573ffffffffffffffffffffffffffffffffffffffff166368b78b7a8860a0015160016040518363ffffffff1660e01b8152600401611799929190614f27565b600060405180830381865afa1580156117b6573d6000803e3d6000fd5b505050506040513d6000823e3d601f19601f820116820180604052508101906117df9190612b49565b8673ffffffffffffffffffffffffffffffffffffffff166368b78b7a8960a0015160026040518363ffffffff1660e01b815260040161181f929190614f27565b600060405180830381865afa15801561183c573d6000803e3d6000fd5b505050506040513d6000823e3d601f19601f820116820180604052508101906118659190612b49565b61189189606001517cffffffffffffffffffffffffffffffffffffffffffffffffffffffffff16611641565b6040516020016118a59594939291906151b0565b604051602081830303815290604052611130565b6040516020016118c991906152e1565b60405160208183030381529060405291505092915050565b60007f894a0b9a000000000000000000000000000000000000000000000000000000007bffffffffffffffffffffffffffffffffffffffffffffffffffffffff1916827bffffffffffffffffffffffffffffffffffffffffffffffffffffffff19161480611954575061195382611ac7565b5b9050919050565b600080600090507a184f03e93ff9f4daa797ed6e38ed64bf6a1f01000000000000000083106119b9577a184f03e93ff9f4daa797ed6e38ed64bf6a1f01000000000000000083816119af576119ae61323b565b5b0492506040810190505b6d04ee2d6d415b85acef810000000083106119f6576d04ee2d6d415b85acef810000000083816119ec576119eb61323b565b5b0492506020810190505b662386f26fc100008310611a2557662386f26fc100008381611a1b57611a1a61323b565b5b0492506010810190505b6305f5e1008310611a4e576305f5e1008381611a4457611a4361323b565b5b0492506008810190505b6127108310611a73576127108381611a6957611a6861323b565b5b0492506004810190505b60648310611a965760648381611a8c57611a8b61323b565b5b0492506002810190505b600a8310611aa5576001810190505b80915050919050565b6000818311611abd5781611abf565b825b905092915050565b60007f01ffc9a7000000000000000000000000000000000000000000000000000000007bffffffffffffffffffffffffffffffffffffffffffffffffffffffff1916827bffffffffffffffffffffffffffffffffffffffffffffffffffffffff1916149050919050565b6000604051905090565b600080fd5b600080fd5b60007fffffffff0000000000000000000000000000000000000000000000000000000082169050919050565b611b7a81611b45565b8114611b8557600080fd5b50565b600081359050611b9781611b71565b92915050565b600060208284031215611bb357611bb2611b3b565b5b6000611bc184828501611b88565b91505092915050565b60008115159050919050565b611bdf81611bca565b82525050565b6000602082019050611bfa6000830184611bd6565b92915050565b600080fd5b6000601f19601f8301169050919050565b7f4e487b7100000000000000000000000000000000000000000000000000000000600052604160045260246000fd5b611c4e82611c05565b810181811067ffffffffffffffff82111715611c6d57611c6c611c16565b5b80604052505050565b6000611c80611b31565b9050611c8c8282611c45565b919050565b600080fd5b6000819050919050565b611ca981611c96565b8114611cb457600080fd5b50565b600081359050611cc681611ca0565b92915050565b60007cffffffffffffffffffffffffffffffffffffffffffffffffffffffffff82169050919050565b611cfe81611ccc565b8114611d0957600080fd5b50565b600081359050611d1b81611cf5565b92915050565b600060ff82169050919050565b611d3781611d21565b8114611d4257600080fd5b50565b600081359050611d5481611d2e565b92915050565b60058110611d6757600080fd5b50565b600081359050611d7981611d5a565b92915050565b60048110611d8c57600080fd5b50565b600081359050611d9e81611d7f565b92915050565b60098110611db157600080fd5b50565b600081359050611dc381611da4565b92915050565b600061ffff82169050919050565b611de081611dc9565b8114611deb57600080fd5b50565b600081359050611dfd81611dd7565b92915050565b600060608284031215611e1957611e18611c00565b5b611e236060611c76565b90506000611e3384828501611db4565b6000830152506020611e4784828501611dee565b6020830152506040611e5b84828501611dee565b60408301525092915050565b600080fd5b600067ffffffffffffffff821115611e8757611e86611c16565b5b602082029050919050565b600080fd5b6000611eaa611ea584611e6c565b611c76565b90508060208402830185811115611ec457611ec3611e92565b5b835b81811015611eed5780611ed98882611d45565b845260208401935050602081019050611ec6565b5050509392505050565b600082601f830112611f0c57611f0b611e67565b5b6004611f19848285611e97565b91505092915050565b600080fd5b600067ffffffffffffffff821115611f4257611f41611c16565b5b611f4b82611c05565b9050602081019050919050565b82818337600083830152505050565b6000611f7a611f7584611f27565b611c76565b905082815260208101848484011115611f9657611f95611f22565b5b611fa1848285611f58565b509392505050565b600082601f830112611fbe57611fbd611e67565b5b8135611fce848260208601611f67565b91505092915050565b600067ffffffffffffffff821115611ff257611ff1611c16565b5b602082029050602081019050919050565b6010811061201057600080fd5b50565b60008135905061202281612003565b92915050565b60006040828403121561203e5761203d611c00565b5b6120486040611c76565b9050600061205884828501612013565b600083015250602082013567ffffffffffffffff81111561207c5761207b611c91565b5b61208884828501611fa9565b60208301525092915050565b60006120a76120a284611fd7565b611c76565b905080838252602082019050602084028301858111156120ca576120c9611e92565b5b835b8181101561211157803567ffffffffffffffff8111156120ef576120ee611e67565b5b8086016120fc8982612028565b855260208501945050506020810190506120cc565b5050509392505050565b600082601f8301126121305761212f611e67565b5b8135612140848260208601612094565b91505092915050565b60006102c082840312156121605761215f611c00565b5b61216b6101c0611c76565b9050600061217b84828501611cb7565b600083015250602061218f84828501611cb7565b60208301525060406121a384828501611cb7565b60408301525060606121b784828501611d0c565b60608301525060806121cb84828501611d45565b60808301525060a06121df84828501611d6a565b60a08301525060c06121f384828501611d8f565b60c08301525060e061220784828501611e03565b60e08301525061014061221c84828501611d45565b6101008301525061016061223284828501611ef7565b610120830152506101e061224884828501611ef7565b6101408301525061026061225e84828501611cb7565b6101608301525061028082013567ffffffffffffffff81111561228457612283611c91565b5b61229084828501611fa9565b610180830152506102a082013567ffffffffffffffff8111156122b6576122b5611c91565b5b6122c28482850161211b565b6101a08301525092915050565b600073ffffffffffffffffffffffffffffffffffffffff82169050919050565b60006122fa826122cf565b9050919050565b600061230c826122ef565b9050919050565b61231c81612301565b811461232757600080fd5b50565b60008135905061233981612313565b92915050565b6000806040838503121561235657612355611b3b565b5b600083013567ffffffffffffffff81111561237457612373611b40565b5b61238085828601612149565b92505060206123918582860161232a565b9150509250929050565b600081519050919050565b600082825260208201905092915050565b60005b838110156123d55780820151818401526020810190506123ba565b60008484015250505050565b60006123ec8261239b565b6123f681856123a6565b93506124068185602086016123b7565b61240f81611c05565b840191505092915050565b6000602082019050818103600083015261243481846123e1565b905092915050565b61244581611d21565b82525050565b6000602082019050612460600083018461243c565b92915050565b600081519050919050565b600082825260208201905092915050565b6000819050602082019050919050565b600082825260208201905092915050565b60006124ae8261239b565b6124b88185612492565b93506124c88185602086016123b7565b6124d181611c05565b840191505092915050565b60006124e883836124a3565b905092915050565b6000602082019050919050565b600061250882612466565b6125128185612471565b93508360208202850161252485612482565b8060005b85811015612560578484038952815161254185826124dc565b945061254c836124f0565b925060208a01995050600181019050612528565b50829750879550505050505092915050565b6000602082019050818103600083015261258c81846124fd565b905092915050565b61259d81611c96565b82525050565b6125ac81611ccc565b82525050565b6125bb81611d21565b82525050565b7f4e487b7100000000000000000000000000000000000000000000000000000000600052602160045260246000fd5b60058110612601576126006125c1565b5b50565b6000819050612612826125f0565b919050565b600061262282612604565b9050919050565b61263281612617565b82525050565b60048110612649576126486125c1565b5b50565b600081905061265a82612638565b919050565b600061266a8261264c565b9050919050565b61267a8161265f565b82525050565b60098110612691576126906125c1565b5b50565b60008190506126a282612680565b919050565b60006126b282612694565b9050919050565b6126c2816126a7565b82525050565b6126d181611dc9565b82525050565b6060820160008201516126ed60008501826126b9565b50602082015161270060208501826126c8565b50604082015161271360408501826126c8565b50505050565b600060049050919050565b600081905092915050565b6000819050919050565b600061274583836125b2565b60208301905092915050565b6000602082019050919050565b61276781612719565b6127718184612724565b925061277c8261272f565b8060005b838110156127ad5781516127948782612739565b965061279f83612751565b925050600181019050612780565b505050505050565b600081519050919050565b600082825260208201905092915050565b60006127dc826127b5565b6127e681856127c0565b93506127f68185602086016123b7565b6127ff81611c05565b840191505092915050565b600081519050919050565b600082825260208201905092915050565b6000819050602082019050919050565b60108110612847576128466125c1565b5b50565b600081905061285882612836565b919050565b60006128688261284a565b9050919050565b6128788161285d565b82525050565b6000604083016000830151612896600086018261286f565b50602083015184820360208601526128ae82826127d1565b9150508091505092915050565b60006128c7838361287e565b905092915050565b6000602082019050919050565b60006128e78261280a565b6128f18185612815565b93508360208202850161290385612826565b8060005b8581101561293f578484038952815161292085826128bb565b945061292b836128cf565b925060208a01995050600181019050612907565b50829750879550505050505092915050565b60006102c08301600083015161296a6000860182612594565b50602083015161297d6020860182612594565b5060408301516129906040860182612594565b5060608301516129a360608601826125a3565b5060808301516129b660808601826125b2565b5060a08301516129c960a0860182612629565b5060c08301516129dc60c0860182612671565b5060e08301516129ef60e08601826126d7565b50610100830151612a046101408601826125b2565b50610120830151612a1961016086018261275e565b50610140830151612a2e6101e086018261275e565b50610160830151612a43610260860182612594565b50610180830151848203610280860152612a5d82826127d1565b9150506101a08301518482036102a0860152612a7982826128dc565b9150508091505092915050565b60006020820190508181036000830152612aa08184612951565b905092915050565b600067ffffffffffffffff821115612ac357612ac2611c16565b5b612acc82611c05565b9050602081019050919050565b6000612aec612ae784612aa8565b611c76565b905082815260208101848484011115612b0857612b07611f22565b5b612b138482856123b7565b509392505050565b600082601f830112612b3057612b2f611e67565b5b8151612b40848260208601612ad9565b91505092915050565b600060208284031215612b5f57612b5e611b3b565b5b600082015167ffffffffffffffff811115612b7d57612b7c611b40565b5b612b8984828501612b1b565b91505092915050565b7f4261642074696c656d6170000000000000000000000000000000000000000000600082015250565b6000612bc8600b836123a6565b9150612bd382612b92565b602082019050919050565b60006020820190508181036000830152612bf781612bbb565b9050919050565b7f496e636f6d706c65746520636f6c6f722070616c657474650000000000000000600082015250565b6000612c346018836123a6565b9150612c3f82612bfe565b602082019050919050565b60006020820190508181036000830152612c6381612c27565b9050919050565b612c7381611c96565b82525050565b6000819050919050565b6000819050919050565b6000612ca8612ca3612c9e84612c79565b612c83565b611c96565b9050919050565b612cb881612c8d565b82525050565b6000604082019050612cd36000830185612c6a565b612ce06020830184612caf565b9392505050565b7f4e487b7100000000000000000000000000000000000000000000000000000000600052603260045260246000fd5b612d1f816126a7565b82525050565b6000602082019050612d3a6000830184612d16565b92915050565b7f7b2273656564223a220000000000000000000000000000000000000000000000815250565b600081905092915050565b6000612d7c8261239b565b612d868185612d66565b9350612d968185602086016123b7565b80840191505092915050565b7f222c2274696c656d6170223a22646174613a6170706c69636174696f6e2f6f6360008201527f7465742d73747265616d3b6261736536342c0000000000000000000000000000602082015250565b6000612dfe603283612d66565b9150612e0982612da2565b603282019050919050565b7f222c22636f6c6f7273223a7b226261636b67726f756e64223a22000000000000815250565b7f222c2270617468223a2200000000000000000000000000000000000000000000815250565b7f222c2274696c6573223a22000000000000000000000000000000000000000000815250565b7f222c22736861646f7773223a2200000000000000000000000000000000000000815250565b7f222c22706c61796572223a220000000000000000000000000000000000000000815250565b7f222c2267656d223a220000000000000000000000000000000000000000000000815250565b7f222c22636f696e223a2200000000000000000000000000000000000000000000815250565b7f227d7d0000000000000000000000000000000000000000000000000000000000815250565b6000612f4f82612d40565b600982019150612f5f828c612d71565b9150612f6a82612df1565b9150612f76828b612d71565b9150612f8182612e14565b601a82019150612f91828a612d71565b9150612f9c82612e3a565b600a82019150612fac8289612d71565b9150612fb782612e60565b600b82019150612fc78288612d71565b9150612fd282612e86565b600d82019150612fe28287612d71565b9150612fed82612eac565b600c82019150612ffd8286612d71565b915061300882612ed2565b6009820191506130188285612d71565b915061302382612ef8565b600a820191506130338284612d71565b915061303e82612f1e565b6003820191508190509a9950505050505050505050565b7f437261776c6572436f6e74726163743a20436f6e7472616374206e6f7420736560008201527f7475700000000000000000000000000000000000000000000000000000000000602082015250565b60006130b16023836123a6565b91506130bc82613055565b604082019050919050565b600060208201905081810360008301526130e0816130a4565b9050919050565b6130f081612617565b82525050565b600060208201905061310b60008301846130e7565b92915050565b600067ffffffffffffffff82111561312c5761312b611c16565b5b602082029050602081019050919050565b600061315061314b84613111565b611c76565b9050808382526020820190506020840283018581111561317357613172611e92565b5b835b818110156131ba57805167ffffffffffffffff81111561319857613197611e67565b5b8086016131a58982612b1b565b85526020850194505050602081019050613175565b5050509392505050565b600082601f8301126131d9576131d8611e67565b5b81516131e984826020860161313d565b91505092915050565b60006020828403121561320857613207611b3b565b5b600082015167ffffffffffffffff81111561322657613225611b40565b5b613232848285016131c4565b91505092915050565b7f4e487b7100000000000000000000000000000000000000000000000000000000600052601260045260246000fd5b7f4e487b7100000000000000000000000000000000000000000000000000000000600052601160045260246000fd5b60006132a482611c96565b91506132af83611c96565b9250826132bf576132be61323b565b5b828204905092915050565b60006132d582611c96565b91506132e083611c96565b9250817fffffffffffffffffffffffffffffffffffffffffffffffffffffffffffffffff04831182151516156133195761331861326a565b5b828202905092915050565b600082825260208201905092915050565b6000613340826127b5565b61334a8185613324565b935061335a8185602086016123b7565b61336381611c05565b840191505092915050565b6000819050919050565b600061339361338e6133898461336e565b612c83565b611c96565b9050919050565b6133a381613378565b82525050565b600060608201905081810360008301526133c38186613335565b90506133d26020830185612c6a565b6133df604083018461339a565b949350505050565b60006133f282611c96565b91507fffffffffffffffffffffffffffffffffffffffffffffffffffffffffffffffff82036134245761342361326a565b5b600182019050919050565b7f4e487b7100000000000000000000000000000000000000000000000000000000600052602260045260246000fd5b6000600282049050600182168061347657607f821691505b6020821081036134895761348861342f565b5b50919050565b7f3a726f6f747b2d2d42673a230000000000000000000000000000000000000000815250565b7f3b2d2d50617468733a2300000000000000000000000000000000000000000000815250565b7f3b2d2d54696c65733a2300000000000000000000000000000000000000000000815250565b7f3b2d2d536861646f77733a230000000000000000000000000000000000000000815250565b7f3b2d2d506c617965723a23000000000000000000000000000000000000000000815250565b7f3b2d2d47656d3a23000000000000000000000000000000000000000000000000815250565b7f3b7d000000000000000000000000000000000000000000000000000000000000815250565b60006135a48261348f565b600c820191506135b48289612d71565b91506135bf826134b5565b600a820191506135cf8288612d71565b91506135da826134db565b600a820191506135ea8287612d71565b91506135f582613501565b600c820191506136058286612d71565b915061361082613527565b600b820191506136208285612d71565b915061362b8261354d565b60088201915061363b8284612d71565b915061364682613573565b600282019150819050979650505050505050565b600061367561367061366b84611ccc565b612c83565b611c96565b9050919050565b6136858161365a565b82525050565b600082825260208201905092915050565b7f2000000000000000000000000000000000000000000000000000000000000000600082015250565b60006136d260018361368b565b91506136dd8261369c565b602082019050919050565b60006060820190506136fd6000830185612c6a565b61370a602083018461367c565b818103604083015261371b816136c5565b90509392505050565b7f3c73766720786d6c6e733d22687474703a2f2f7777772e77332e6f72672f323060008201527f30302f7376672220786d6c6e733a786c696e6b3d22687474703a2f2f7777772e60208201527f77332e6f72672f313939392f786c696e6b222076657273696f6e3d22312e312260408201527f2077696474683d2236303022206865696768743d22363030222076696577426f60608201527f783d222d32202d32203230203230223e3c646566733e3c7374796c653e000000608082015250565b60006137f2609d83612d66565b91506137fd82613724565b609d82019050919050565b7f7376677b6261636b67726f756e642d636f6c6f723a766172282d2d4267293b7d60008201527f746578747b666f6e742d66616d696c793a6d6f6e6f73706163653b666f6e742d60208201527f73697a653a302e313235656d3b66696c6c3a766172282d2d54696c6573293b7d60408201527f2e546578747b7d2e42677b66696c6c3a766172282d2d4267293b7d2347656d7b60608201527f66696c6c3a766172282d2d47656d293b7d2350617468737b66696c6c3a76617260808201527f282d2d5061746873293b7d2354696c65737b66696c6c3a766172282d2d54696c60a08201527f6573293b7d23506c617965727b66696c6c3a766172282d2d506c61796572293b60c08201527f7669736962696c6974793a68696464656e3b7d0000000000000000000000000060e082015250565b600061394860f383612d66565b915061395382613808565b60f382019050919050565b7f3c2f7374796c653e000000000000000000000000000000000000000000000000815250565b7f3c2f646566733e3c673e3c7265637420636c6173733d2242672220783d222d3260008201527f2220793d222d32222077696474683d22323022206865696768743d223230222f60208201527f3e00000000000000000000000000000000000000000000000000000000000000604082015250565b6000613a06604183612d66565b9150613a1182613984565b604182019050919050565b7f3c7465787420636c6173733d22546578742220646f6d696e616e742d6261736560008201527f6c696e653d226d6964646c652220783d22302220793d222d31223e2300000000602082015250565b6000613a78603c83612d66565b9150613a8382613a1c565b603c82019050919050565b7f3c2f746578743e3c7465787420636c6173733d22546578742220646f6d696e6160008201527f6e742d626173656c696e653d226d6964646c652220783d22302220793d22313760208201527f222069643d22636f6f7264223e00000000000000000000000000000000000000604082015250565b6000613b10604d83612d66565b9150613b1b82613a8e565b604d82019050919050565b7f3c2f746578743e3c2f673e3c2f7376673e000000000000000000000000000000815250565b6000613b57826137e5565b9150613b638289612d71565b9150613b6e8261393b565b9150613b7a8288612d71565b9150613b858261395e565b600882019150613b958287612d71565b9150613ba0826139f9565b9150613bac8286612d71565b9150613bb782613a6b565b9150613bc38285612d71565b9150613bce82613b03565b9150613bda8284612d71565b9150613be582613b26565b601182019150819050979650505050505050565b7f3c21444f43545950452068746d6c3e3c68746d6c206c616e673d22656e223e3c60008201527f686561643e3c6d65746120636861727365743d225554462d38223e3c6d65746160208201527f206e616d653d22617574686f722220636f6e74656e743d2253747564696f204160408201527f76616e7465223e3c7469746c653e456e646c65737320437261776c657220436860608201527f616d626572202300000000000000000000000000000000000000000000000000608082015250565b6000613cc7608783612d66565b9150613cd282613bf9565b608782019050919050565b7f3c2f7469746c653e3c7374796c653e626f64797b6261636b67726f756e643a23815250565b7f3b6d617267696e3a303b6f766572666c6f773a68696464656e3b7d23506c617960008201527f65727b7472616e736974696f6e3a7820302e317320656173652d696e2c79203060208201527f2e317320656173652d696e3b7669736962696c6974793a76697369626c65216960408201527f6d706f7274616e743b616e696d6174696f6e3a626c696e6b657220317320656160608201527f73652d696e20696e66696e6974653b7d406b65796672616d657320626c696e6b60808201527f65727b3735257b6f7061636974793a313b7d313030257b6f7061636974793a3060a08201527f3b7d7d3c2f7374796c653e3c2f686561643e3c626f64793e000000000000000060c082015250565b6000613e1d60d883612d66565b9150613e2882613d03565b60d882019050919050565b7f3c7363726970743e76617220636f6f72643d646f63756d656e742e676574456c60008201527f656d656e74427949642822636f6f726422292e74657874436f6e74656e742c7460208201527f6d3d417272617928323536293b66756e6374696f6e206d28742c652c722c6f3d60408201527f226d6f76656422297b6c657420693d646f63756d656e742e676574456c656d6560608201527f6e74427949642822506c6179657222292c6c3d7061727365496e7428692e676560808201527f744174747269627574652822782229292b652c643d7061727365496e7428692e60a08201527f6765744174747269627574652822792229292b723b6966286c3e3d302626643e60c08201527f3d3026266c3c31362626643c3136297b6c6574206e3d746d5b31362a642b6c5d60e08201527f3b6e262628692e736574417474726962757465282278222c6c292c692e7365746101008201527f417474726962757465282279222c64292c77696e646f772e706172656e742e706101208201527f6f73744d657373616765284a534f4e2e737472696e67696679287b637261776c6101408201527f65723a7b6576656e743a6f2c783a6c2c793a642c74696c653a6e2c636f6f72646101608201527f7d7d292c222a2229297d743f2e70726576656e7444656661756c7428297d77696101808201527f6e646f772e6f6e6c6f61643d743d3e7b6c657420653d646f63756d656e742e716101a08201527f7565727953656c6563746f72282273766722293b652e736574417474726962756101c08201527f74652822686569676874222c22313030766822292c652e7365744174747269626101e08201527f75746528227769647468222c22313030767722292c5b2e2e2e646f63756d656e6102008201527f742e676574456c656d656e74427949642822506174687322292e6368696c644e6102208201527f6f6465732c2e2e2e646f63756d656e742e676574456c656d656e7442794964286102408201527f2254696c657322292e6368696c644e6f6465735d2e666f724561636828743d3e6102608201527f7b69662833213d742e6e6f646554797065297b6c657420653d742e67657442426102808201527f6f7828292c723d4d6174682e666c6f6f7228652e78292c6f3d4d6174682e666c6102a08201527f6f6f7228652e79292c693d4d6174682e6d617828652e77696474682c31293b656102c08201527f2e6865696768743b6c6574206c3d7061727365496e7428742e676574417474726102e08201527f69627574652822696422293f3f323535293b666f72286c657420643d303b643c6103008201527f693b2b2b6429746d5b31362a6f2b722b645d3d6c7d7d292c646f63756d656e746103208201527f2e6164644576656e744c697374656e657228226b6579646f776e222c743d3e7b6103408201527f696628742e7265706561742972657475726e3b6c657420653d742e6b6579436f6103608201527f64653b33373d3d6526266d28742c2d312c30292c33383d3d6526266d28742c306103808201527f2c2d31292c33393d3d6526266d28742c312c30292c34303d3d6526266d28742c6103a08201527f302c31292c2831333d3d657c7c33323d3d652926266d28742c302c302c2261636103c08201527f74696f6e22297d292c6d286e756c6c2c302c30297d3b3c2f7363726970743e3c6103e08201527f2f626f64793e3c2f68746d6c3e0000000000000000000000000000000000000061040082015250565b600061434361040d83612d66565b915061434e82613e33565b61040d82019050919050565b600061436582613cba565b91506143718287612d71565b915061437c82613cdd565b60208201915061438c8286612d71565b915061439782613e10565b91506143a38285612d71565b91506143af8284612d71565b91506143ba82614335565b915081905095945050505050565b6000819050919050565b60006143ed6143e86143e3846143c8565b612c83565b611c96565b9050919050565b6143fd816143d2565b82525050565b50565b600061441360008361368b565b915061441e82614403565b600082019050919050565b600060608201905061443e6000830185612c6a565b61444b60208301846143f4565b818103604083015261445c81614406565b90509392505050565b7f68747470733a2f2f656e646c657373637261776c65722e696f2f6368616d626560008201527f722f000000000000000000000000000000000000000000000000000000000000602082015250565b60006144c1602283612d66565b91506144cc82614465565b602282019050919050565b60006144e2826144b4565b91506144ee8284612d71565b915081905092915050565b600080604083850312156145105761450f611b3b565b5b600083015167ffffffffffffffff81111561452e5761452d611b40565b5b61453a858286016131c4565b925050602083015167ffffffffffffffff81111561455b5761455a611b40565b5b614567858286016131c4565b9150509250929050565b600061457c8261239b565b614586818561368b565b93506145968185602086016123b7565b61459f81611c05565b840191505092915050565b600060208201905081810360008301526145c48184614571565b905092915050565b600082825260208201905092915050565b600082825260208201905092915050565b60006145f98261239b565b61460381856145dd565b93506146138185602086016123b7565b61461c81611c05565b840191505092915050565b600061463383836145ee565b905092915050565b600061464682612466565b61465081856145cc565b93508360208202850161466285612482565b8060005b8581101561469e578484038952815161467f8582614627565b945061468a836124f0565b925060208a01995050600181019050614666565b50829750879550505050505092915050565b600060408201905081810360008301526146ca818561463b565b905081810360208301526146de818461463b565b90509392505050565b7f7b226e616d65223a220000000000000000000000000000000000000000000000815250565b7f222c226465736372697074696f6e223a22456e646c65737320437261776c657260008201527f204368616d626572202300000000000000000000000000000000000000000000602082015250565b6000614769602a83612d66565b91506147748261470d565b602a82019050919050565b7f2e20506c61792061626f7665206f722062656c6f773a20000000000000000000815250565b7f222c2265787465726e616c5f75726c223a220000000000000000000000000000815250565b7f222c226261636b67726f756e645f636f6c6f72223a2200000000000000000000815250565b7f222c2261747472696275746573223a5b00000000000000000000000000000000815250565b7f5d2c22696d616765223a22646174613a696d6167652f7376672b786d6c3b626160008201527f736536342c000000000000000000000000000000000000000000000000000000602082015250565b6000614873602583612d66565b915061487e82614817565b602582019050919050565b7f222c22616e696d6174696f6e5f75726c223a22646174613a746578742f68746d60008201527f6c3b6261736536342c0000000000000000000000000000000000000000000000602082015250565b60006148e5602983612d66565b91506148f082614889565b602982019050919050565b7f227d000000000000000000000000000000000000000000000000000000000000815250565b600061492c826146e7565b60098201915061493c828b612d71565b91506149478261475c565b9150614953828a612d71565b915061495e8261477f565b60178201915061496e8289612d71565b9150614979826147a5565b6012820191506149898288612d71565b9150614994826147cb565b6016820191506149a48287612d71565b91506149af826147f1565b6010820191506149bf8286612d71565b91506149ca82614866565b91506149d68285612d71565b91506149e1826148d8565b91506149ed8284612d71565b91506149f8826148fb565b6002820191508190509998505050505050505050565b7f646174613a6170706c69636174696f6e2f6a736f6e3b6261736536342c000000815250565b6000614a3f82614a0e565b601d82019150614a4f8284612d71565b915081905092915050565b6000614a6582611c96565b9150614a7083611c96565b9250828201905080821115614a8857614a8761326a565b5b92915050565b6000614a9982611c96565b9150614aa483611c96565b925082614ab457614ab361323b565b5b828206905092915050565b7f3c7265637420783d220000000000000000000000000000000000000000000000815250565b7f2220793d22000000000000000000000000000000000000000000000000000000815250565b7f222077696474683d220000000000000000000000000000000000000000000000815250565b7f22206865696768743d2231222f3e000000000000000000000000000000000000815250565b6000614b638287612d71565b9150614b6e82614abf565b600982019150614b7e8286612d71565b9150614b8982614ae5565b600582019150614b998285612d71565b9150614ba482614b0b565b600982019150614bb48284612d71565b9150614bbf82614b31565b600e8201915081905095945050505050565b60007fff0000000000000000000000000000000000000000000000000000000000000082169050919050565b614c0681614bd1565b82525050565b6000604082019050614c216000830185614bfd565b614c2e602083018461243c565b9392505050565b7f3c75736520786c696e6b3a687265663d22230000000000000000000000000000815250565b7f2220783d22000000000000000000000000000000000000000000000000000000815250565b7f222069643d220000000000000000000000000000000000000000000000000000815250565b7f222f3e0000000000000000000000000000000000000000000000000000000000815250565b6000614cd98288612d71565b9150614ce482614c35565b601282019150614cf48287612d71565b9150614cff82614c5b565b600582019150614d0f8286612d71565b9150614d1a82614ae5565b600582019150614d2a8285612d71565b9150614d3582614c81565b600682019150614d458284612d71565b9150614d5082614ca7565b6003820191508190509695505050505050565b7f3c726563742069643d22506c617965722220783d220000000000000000000000815250565b7f222077696474683d223122206865696768743d2231222f3e0000000000000000815250565b6000614dba82614d63565b601582019150614dca8285612d71565b9150614dd582614ae5565b600582019150614de58284612d71565b9150614df082614d89565b6018820191508190509392505050565b7f3c672069643d225061746873222073686170652d72656e646572696e673d226360008201527f726973704564676573223e000000000000000000000000000000000000000000602082015250565b6000614e5c602b83612d66565b9150614e6782614e00565b602b82019050919050565b7f3c2f673e00000000000000000000000000000000000000000000000000000000815250565b7f3c672069643d2254696c6573223e000000000000000000000000000000000000815250565b6000614ec982614e4f565b9150614ed58286612d71565b9150614ee082614e72565b600482019150614ef08285612d71565b9150614efb82614e98565b600e82019150614f0b8284612d71565b9150614f1682614e72565b600482019150819050949350505050565b6000604082019050614f3c60008301856130e7565b614f49602083018461243c565b9392505050565b7f3c73766720786d6c6e733d22687474703a2f2f7777772e77332e6f72672f323060008201527f30302f737667222076657273696f6e3d22312e31222077696474683d2236303060208201527f22206865696768743d22363030222076696577426f783d223020302000000000604082015250565b6000614fd2605c83612d66565b9150614fdd82614f50565b605c82019050919050565b7f2000000000000000000000000000000000000000000000000000000000000000815250565b7f223e3c646566733e3c7374796c653e726563747b66696c6c3a23000000000000815250565b7f7d746578747b666f6e742d66616d696c793a6d6f6e6f73706163653b666f6e7460008201527f2d73697a653a312e3570783b66696c6c3a230000000000000000000000000000602082015250565b6000615090603283612d66565b915061509b82615034565b603282019050919050565b7f7d3c2f7374796c653e3c2f646566733e3c726563742077696474683d2231303060008201527f2522206865696768743d2231303025222073686170652d72656e646572696e6760208201527f3d2263726973704564676573222f3e3c7465787420783d223530252220793d2260408201527f3530252220646f6d696e616e742d626173656c696e653d226d6964646c65222060608201527f746578742d616e63686f723d226d6964646c65223e0000000000000000000000608082015250565b6000615174609583612d66565b915061517f826150a6565b609582019050919050565b7f3c2f746578743e3c2f7376673e00000000000000000000000000000000000000815250565b60006151bb82614fc5565b91506151c78288612d71565b91506151d282614fe8565b6001820191506151e28287612d71565b91506151ed8261500e565b601a820191506151fd8286612d71565b915061520882615083565b91506152148285612d71565b915061521f82615167565b915061522b8284612d71565b91506152368261518a565b600d820191508190509695505050505050565b7f22696d616765223a22646174613a696d6167652f7376672b786d6c3b6261736560008201527f36342c0000000000000000000000000000000000000000000000000000000000602082015250565b60006152a5602383612d66565b91506152b082615249565b602382019050919050565b7f2200000000000000000000000000000000000000000000000000000000000000815250565b60006152ec82615298565b91506152f88284612d71565b9150615303826152bb565b6001820191508190509291505056fe4142434445464748494a4b4c4d4e4f505152535455565758595a6162636465666768696a6b6c6d6e6f707172737475767778797a303132333435363738392b2fa2646970667358221220eeeabce7962728cfcff03a3f819ed49dc31ad3c3f84ec9bfdf4646901ab92f3064736f6c63430008100033",
  "immutableReferences": {},
  "source": "// SPDX-License-Identifier: MIT\n//\n//    \n//             \n//              \n//              \n//              \n//          \n//        \n//      \n//\n// https://endlesscrawler.io\n// @EndlessCrawler\n//\n/// @title Endless Crawler Chamber Renderer v.2\n/// @author Studio Avante\n/// @notice Metadata renderer for Endless Crawler\n//\npragma solidity ^0.8.16;\nimport { CrawlerContract } from '../CrawlerContract.sol';\nimport { ICrawlerMapper } from '../ICrawlerMapper.sol';\nimport { CrawlerRendererV1 } from '../CrawlerRendererV1.sol';\nimport { Crawl } from '../Crawl.sol';\n\ncontract CrawlerRendererV2 is CrawlerContract, CrawlerRendererV1 {\n\n\tconstructor() {\n\t\tsetupCrawlerContract('Renderer', 2, 2);\n\t}\n\n\t/// @dev implements IERC165\n\tfunction supportsInterface(bytes4 interfaceId) public view virtual override(CrawlerContract, CrawlerRendererV1) returns (bool) {\n\t\treturn CrawlerRendererV1.supportsInterface(interfaceId);\n\t}\n\n\t// function getColors(Crawl.ChamberData memory chamber, ICrawlerMapper mapper) public view override returns (string[] memory result) {\n\t// \tresult = mapper.getColors(chamber.terrain);\n\t\t\n\t// \tfor(uint256 i = 0 ; i < chamber.customData.length ; ++i) {\n\t// \t\tif(chamber.customData[i].dataType == Crawl.CustomDataType.Palette) {\n\t// \t\t\tbytes memory data = chamber.customData[i].data;\n\t// \t\t\tfor(uint256 c = 0 ; c < data.length / 3 && c < result.length; ++c) {\n\t// \t\t\t\tresult[c] = string.concat(\n\t// \t\t\t\t\tCrawl.toHexString(data[c*3+0]),\n\t// \t\t\t\t\tCrawl.toHexString(data[c*3+1]),\n\t// \t\t\t\t\tCrawl.toHexString(data[c*3+2])\n\t// \t\t\t\t);\n\t// \t\t\t}\n\t// \t\t\tbreak;\n\t// \t\t}\n\t// \t}\n\t// }\n\n}\n",
  "sourcePath": "/Users/roger/Dev/Blockchain/Truffle/ec-crawler/contracts/next/CrawlerRendererV2.sol",
  "compiler": {
    "name": "solc",
    "version": "0.8.16+commit.07a7930e.Emscripten.clang"
  },
  "schemaVersion": "3.4.11",
  "updatedAt": "2022-12-05T00:55:10.238Z",
  "devdoc": {
    "kind": "dev",
    "methods": {
      "contractChapterNumber()": {
        "returns": {
          "_0": "chapterNumber Contract chapter number"
        }
      },
      "contractName()": {
        "returns": {
          "_0": "name Contract name"
        }
      },
      "contractVersion()": {
        "returns": {
          "_0": "version Contract version"
        }
      },
      "getColors((uint256,uint256,uint256,uint232,uint8,uint8,uint8,(uint8,uint16,uint16),uint8,uint8[4],uint8[4],uint256,bytes,(uint8,bytes)[]),address)": {
        "params": {
          "chamber": "The Chamber, with maps",
          "mapper": "The ICrawlerMapper contract address"
        },
        "returns": {
          "result": "RGB hex color code array, (at least 4 color)"
        }
      },
      "renderAdditionalChamberMetadata((uint256,uint256,uint256,uint232,uint8,uint8,uint8,(uint8,uint16,uint16),uint8,uint8[4],uint8[4],uint256,bytes,(uint8,bytes)[]),address)": {
        "params": {
          "chamber": "The Chamber, without maps",
          "mapper": "The ICrawlerMapper contract address"
        },
        "returns": {
          "_0": "metadata Metadata properties"
        }
      },
      "renderBackground((uint256,uint256,uint256,uint232,uint8,uint8,uint8,(uint8,uint16,uint16),uint8,uint8[4],uint8[4],uint256,bytes,(uint8,bytes)[]),address)": {
        "returns": {
          "_0": "result HTML code"
        }
      },
      "renderMapMetadata((uint256,uint256,uint256,uint232,uint8,uint8,uint8,(uint8,uint16,uint16),uint8,uint8[4],uint8[4],uint256,bytes,(uint8,bytes)[]),address)": {
        "params": {
          "chamber": "The Chamber, with maps",
          "mapper": "The ICrawlerMapper contract address"
        },
        "returns": {
          "_0": "metadata Metadata, as plain json string"
        }
      },
      "renderSvgDefs((uint256,uint256,uint256,uint232,uint8,uint8,uint8,(uint8,uint16,uint16),uint8,uint8[4],uint8[4],uint256,bytes,(uint8,bytes)[]),address)": {
        "params": {
          "chamber": "The Chamber, with maps",
          "mapper": "The ICrawlerMapper contract address"
        },
        "returns": {
          "_0": "result SVG code"
        }
      },
      "renderSvgStyles((uint256,uint256,uint256,uint232,uint8,uint8,uint8,(uint8,uint16,uint16),uint8,uint8[4],uint8[4],uint256,bytes,(uint8,bytes)[]),address)": {
        "params": {
          "chamber": "The Chamber, with maps",
          "mapper": "The ICrawlerMapper contract address"
        },
        "returns": {
          "_0": "result SVG code"
        }
      },
      "renderTokenMetadata((uint256,uint256,uint256,uint232,uint8,uint8,uint8,(uint8,uint16,uint16),uint8,uint8[4],uint8[4],uint256,bytes,(uint8,bytes)[]),address)": {
        "details": "Reference: https://docs.opensea.io/docs/metadata-standards",
        "params": {
          "chamber": "The Chamber, with maps",
          "mapper": "The ICrawlerMapper contract address"
        },
        "returns": {
          "_0": "metadata Metadata, as base64 json string"
        }
      },
      "supportsInterface(bytes4)": {
        "details": "implements IERC165"
      }
    },
    "version": 1
  },
  "userdoc": {
    "kind": "user",
    "methods": {
      "contractChapterNumber()": {
        "notice": "Returns the first chapter number this contract was used"
      },
      "contractName()": {
        "notice": "Returns the contract name"
      },
      "contractVersion()": {
        "notice": "Returns the contract version"
      },
      "getColors((uint256,uint256,uint256,uint232,uint8,uint8,uint8,(uint8,uint16,uint16),uint8,uint8[4],uint8[4],uint256,bytes,(uint8,bytes)[]),address)": {
        "notice": "Returns the map colors, from Mapper or curtom data (bound token)"
      },
      "renderAdditionalChamberMetadata((uint256,uint256,uint256,uint232,uint8,uint8,uint8,(uint8,uint16,uint16),uint8,uint8[4],uint8[4],uint256,bytes,(uint8,bytes)[]),address)": {
        "notice": "Returns aadditional metadata for CrawlerIndex.getChamberMetadata()"
      },
      "renderMapMetadata((uint256,uint256,uint256,uint232,uint8,uint8,uint8,(uint8,uint16,uint16),uint8,uint8[4],uint8[4],uint256,bytes,(uint8,bytes)[]),address)": {
        "notice": "Returns the seed and tilemap of a Chamber, used for world building"
      },
      "renderSvgDefs((uint256,uint256,uint256,uint232,uint8,uint8,uint8,(uint8,uint16,uint16),uint8,uint8[4],uint8[4],uint256,bytes,(uint8,bytes)[]),address)": {
        "notice": "Returns the map SVG Definitions, from Mapper or curtom data (bound token)"
      },
      "renderSvgStyles((uint256,uint256,uint256,uint232,uint8,uint8,uint8,(uint8,uint16,uint16),uint8,uint8[4],uint8[4],uint256,bytes,(uint8,bytes)[]),address)": {
        "notice": "Returns the map SVG Styles, from Mapper or curtom data (bound token)"
      },
      "renderTokenMetadata((uint256,uint256,uint256,uint232,uint8,uint8,uint8,(uint8,uint16,uint16),uint8,uint8[4],uint8[4],uint256,bytes,(uint8,bytes)[]),address)": {
        "notice": "Returns IERC721Metadata compliant metadata, used by tokenURI()"
      }
    },
    "version": 1
  }
}