{
  "contractName": "CrawlerGeneratorV1",
  "abi": [
    {
      "inputs": [],
      "stateMutability": "nonpayable",
      "type": "constructor"
    },
    {
      "inputs": [],
      "name": "contractChapterNumber",
      "outputs": [
        {
          "internalType": "uint8",
          "name": "",
          "type": "uint8"
        }
      ],
      "stateMutability": "view",
      "type": "function",
      "constant": true
    },
    {
      "inputs": [],
      "name": "contractName",
      "outputs": [
        {
          "internalType": "string",
          "name": "",
          "type": "string"
        }
      ],
      "stateMutability": "view",
      "type": "function",
      "constant": true
    },
    {
      "inputs": [],
      "name": "contractVersion",
      "outputs": [
        {
          "internalType": "uint8",
          "name": "",
          "type": "uint8"
        }
      ],
      "stateMutability": "view",
      "type": "function",
      "constant": true
    },
    {
      "inputs": [
        {
          "internalType": "bytes4",
          "name": "interfaceId",
          "type": "bytes4"
        }
      ],
      "name": "supportsInterface",
      "outputs": [
        {
          "internalType": "bool",
          "name": "",
          "type": "bool"
        }
      ],
      "stateMutability": "view",
      "type": "function",
      "constant": true
    },
    {
      "inputs": [
        {
          "components": [
            {
              "internalType": "uint256",
              "name": "coord",
              "type": "uint256"
            },
            {
              "internalType": "uint256",
              "name": "tokenId",
              "type": "uint256"
            },
            {
              "internalType": "uint256",
              "name": "seed",
              "type": "uint256"
            },
            {
              "internalType": "uint232",
              "name": "yonder",
              "type": "uint232"
            },
            {
              "internalType": "uint8",
              "name": "chapter",
              "type": "uint8"
            },
            {
              "internalType": "enum Crawl.Terrain",
              "name": "terrain",
              "type": "uint8"
            },
            {
              "internalType": "enum Crawl.Dir",
              "name": "entryDir",
              "type": "uint8"
            },
            {
              "components": [
                {
                  "internalType": "enum Crawl.Gem",
                  "name": "gemType",
                  "type": "uint8"
                },
                {
                  "internalType": "uint16",
                  "name": "coins",
                  "type": "uint16"
                },
                {
                  "internalType": "uint16",
                  "name": "worth",
                  "type": "uint16"
                }
              ],
              "internalType": "struct Crawl.Hoard",
              "name": "hoard",
              "type": "tuple"
            },
            {
              "internalType": "uint8",
              "name": "gemPos",
              "type": "uint8"
            },
            {
              "internalType": "uint8[4]",
              "name": "doors",
              "type": "uint8[4]"
            },
            {
              "internalType": "uint8[4]",
              "name": "locks",
              "type": "uint8[4]"
            },
            {
              "internalType": "uint256",
              "name": "bitmap",
              "type": "uint256"
            },
            {
              "internalType": "bytes",
              "name": "tilemap",
              "type": "bytes"
            },
            {
              "components": [
                {
                  "internalType": "enum Crawl.CustomDataType",
                  "name": "dataType",
                  "type": "uint8"
                },
                {
                  "internalType": "bytes",
                  "name": "data",
                  "type": "bytes"
                }
              ],
              "internalType": "struct Crawl.CustomData[]",
              "name": "customData",
              "type": "tuple[]"
            }
          ],
          "internalType": "struct Crawl.ChamberData",
          "name": "",
          "type": "tuple"
        }
      ],
      "name": "generateCustomChamberData",
      "outputs": [
        {
          "components": [
            {
              "internalType": "enum Crawl.CustomDataType",
              "name": "dataType",
              "type": "uint8"
            },
            {
              "internalType": "bytes",
              "name": "data",
              "type": "bytes"
            }
          ],
          "internalType": "struct Crawl.CustomData[]",
          "name": "",
          "type": "tuple[]"
        }
      ],
      "stateMutability": "pure",
      "type": "function",
      "constant": true
    },
    {
      "inputs": [
        {
          "internalType": "uint256",
          "name": "coord",
          "type": "uint256"
        },
        {
          "components": [
            {
              "internalType": "uint256",
              "name": "tokenId",
              "type": "uint256"
            },
            {
              "internalType": "uint256",
              "name": "seed",
              "type": "uint256"
            },
            {
              "internalType": "uint232",
              "name": "yonder",
              "type": "uint232"
            },
            {
              "internalType": "uint8",
              "name": "chapter",
              "type": "uint8"
            },
            {
              "internalType": "enum Crawl.Terrain",
              "name": "terrain",
              "type": "uint8"
            },
            {
              "internalType": "enum Crawl.Dir",
              "name": "entryDir",
              "type": "uint8"
            }
          ],
          "internalType": "struct Crawl.ChamberSeed",
          "name": "chamberSeed",
          "type": "tuple"
        },
        {
          "internalType": "bool",
          "name": "generateMaps",
          "type": "bool"
        },
        {
          "internalType": "contract ICrawlerToken",
          "name": "tokenContract",
          "type": "address"
        },
        {
          "internalType": "contract ICrawlerGenerator",
          "name": "customGenerator",
          "type": "address"
        }
      ],
      "name": "generateChamberData",
      "outputs": [
        {
          "components": [
            {
              "internalType": "uint256",
              "name": "coord",
              "type": "uint256"
            },
            {
              "internalType": "uint256",
              "name": "tokenId",
              "type": "uint256"
            },
            {
              "internalType": "uint256",
              "name": "seed",
              "type": "uint256"
            },
            {
              "internalType": "uint232",
              "name": "yonder",
              "type": "uint232"
            },
            {
              "internalType": "uint8",
              "name": "chapter",
              "type": "uint8"
            },
            {
              "internalType": "enum Crawl.Terrain",
              "name": "terrain",
              "type": "uint8"
            },
            {
              "internalType": "enum Crawl.Dir",
              "name": "entryDir",
              "type": "uint8"
            },
            {
              "components": [
                {
                  "internalType": "enum Crawl.Gem",
                  "name": "gemType",
                  "type": "uint8"
                },
                {
                  "internalType": "uint16",
                  "name": "coins",
                  "type": "uint16"
                },
                {
                  "internalType": "uint16",
                  "name": "worth",
                  "type": "uint16"
                }
              ],
              "internalType": "struct Crawl.Hoard",
              "name": "hoard",
              "type": "tuple"
            },
            {
              "internalType": "uint8",
              "name": "gemPos",
              "type": "uint8"
            },
            {
              "internalType": "uint8[4]",
              "name": "doors",
              "type": "uint8[4]"
            },
            {
              "internalType": "uint8[4]",
              "name": "locks",
              "type": "uint8[4]"
            },
            {
              "internalType": "uint256",
              "name": "bitmap",
              "type": "uint256"
            },
            {
              "internalType": "bytes",
              "name": "tilemap",
              "type": "bytes"
            },
            {
              "components": [
                {
                  "internalType": "enum Crawl.CustomDataType",
                  "name": "dataType",
                  "type": "uint8"
                },
                {
                  "internalType": "bytes",
                  "name": "data",
                  "type": "bytes"
                }
              ],
              "internalType": "struct Crawl.CustomData[]",
              "name": "customData",
              "type": "tuple[]"
            }
          ],
          "internalType": "struct Crawl.ChamberData",
          "name": "result",
          "type": "tuple"
        }
      ],
      "stateMutability": "view",
      "type": "function",
      "constant": true
    },
    {
      "inputs": [
        {
          "internalType": "uint256",
          "name": "seed",
          "type": "uint256"
        },
        {
          "internalType": "enum Crawl.Terrain",
          "name": "fromTerrain",
          "type": "uint8"
        }
      ],
      "name": "generateTerrainType",
      "outputs": [
        {
          "internalType": "enum Crawl.Terrain",
          "name": "",
          "type": "uint8"
        }
      ],
      "stateMutability": "pure",
      "type": "function",
      "constant": true
    },
    {
      "inputs": [
        {
          "internalType": "uint256",
          "name": "seed",
          "type": "uint256"
        },
        {
          "internalType": "enum Crawl.Dir",
          "name": "dir",
          "type": "uint8"
        }
      ],
      "name": "generateDoorPos",
      "outputs": [
        {
          "internalType": "uint8",
          "name": "",
          "type": "uint8"
        }
      ],
      "stateMutability": "pure",
      "type": "function",
      "constant": true
    },
    {
      "inputs": [
        {
          "internalType": "uint256",
          "name": "seed",
          "type": "uint256"
        }
      ],
      "name": "generateGemPos",
      "outputs": [
        {
          "internalType": "uint8",
          "name": "",
          "type": "uint8"
        }
      ],
      "stateMutability": "pure",
      "type": "function",
      "constant": true
    },
    {
      "inputs": [
        {
          "internalType": "uint256",
          "name": "seed",
          "type": "uint256"
        }
      ],
      "name": "generateGemType",
      "outputs": [
        {
          "internalType": "enum Crawl.Gem",
          "name": "",
          "type": "uint8"
        }
      ],
      "stateMutability": "pure",
      "type": "function",
      "constant": true
    },
    {
      "inputs": [
        {
          "internalType": "uint256",
          "name": "seed",
          "type": "uint256"
        }
      ],
      "name": "generateCoins",
      "outputs": [
        {
          "internalType": "uint16",
          "name": "",
          "type": "uint16"
        }
      ],
      "stateMutability": "pure",
      "type": "function",
      "constant": true
    },
    {
      "inputs": [
        {
          "internalType": "uint256",
          "name": "seed",
          "type": "uint256"
        }
      ],
      "name": "generateHoard",
      "outputs": [
        {
          "components": [
            {
              "internalType": "enum Crawl.Gem",
              "name": "gemType",
              "type": "uint8"
            },
            {
              "internalType": "uint16",
              "name": "coins",
              "type": "uint16"
            },
            {
              "internalType": "uint16",
              "name": "worth",
              "type": "uint16"
            }
          ],
          "internalType": "struct Crawl.Hoard",
          "name": "result",
          "type": "tuple"
        }
      ],
      "stateMutability": "pure",
      "type": "function",
      "constant": true
    }
  ],
  "bytecode": "0x60806040523480156200001157600080fd5b506200005b6040518060400160405280600981526020017f47656e657261746f7200000000000000000000000000000000000000000000008152506001806200062460201b60201c565b6040518060e00160405280600015158152602001600015158152602001600015158152602001600160ff168152602001600160ff168152602001600560ff168152602001600560ff168152506002600060016004811115620000c257620000c162000670565b5b6004811115620000d757620000d662000670565b5b815260200190815260200160002060008201518160000160006101000a81548160ff02191690831515021790555060208201518160000160016101000a81548160ff02191690831515021790555060408201518160000160026101000a81548160ff02191690831515021790555060608201518160000160036101000a81548160ff021916908360ff16021790555060808201518160000160046101000a81548160ff021916908360ff16021790555060a08201518160000160056101000a81548160ff021916908360ff16021790555060c08201518160000160066101000a81548160ff021916908360ff1602179055509050506040518060e00160405280600015158152602001600015158152602001600015158152602001600460ff168152602001600260ff168152602001600460ff168152602001600060ff16815250600260006002600481111562000233576200023262000670565b5b600481111562000248576200024762000670565b5b815260200190815260200160002060008201518160000160006101000a81548160ff02191690831515021790555060208201518160000160016101000a81548160ff02191690831515021790555060408201518160000160026101000a81548160ff02191690831515021790555060608201518160000160036101000a81548160ff021916908360ff16021790555060808201518160000160046101000a81548160ff021916908360ff16021790555060a08201518160000160056101000a81548160ff021916908360ff16021790555060c08201518160000160066101000a81548160ff021916908360ff1602179055509050506040518060e00160405280600015158152602001600115158152602001600015158152602001600160ff168152602001600160ff168152602001600060ff168152602001600060ff168152506002600060036004811115620003a457620003a362000670565b5b6004811115620003b957620003b862000670565b5b815260200190815260200160002060008201518160000160006101000a81548160ff02191690831515021790555060208201518160000160016101000a81548160ff02191690831515021790555060408201518160000160026101000a81548160ff02191690831515021790555060608201518160000160036101000a81548160ff021916908360ff16021790555060808201518160000160046101000a81548160ff021916908360ff16021790555060a08201518160000160056101000a81548160ff021916908360ff16021790555060c08201518160000160066101000a81548160ff021916908360ff1602179055509050506040518060e00160405280600115158152602001600115158152602001600115158152602001600160ff168152602001600160ff168152602001600060ff168152602001600060ff168152506002600060048081111562000514576200051362000670565b5b600481111562000529576200052862000670565b5b815260200190815260200160002060008201518160000160006101000a81548160ff02191690831515021790555060208201518160000160016101000a81548160ff02191690831515021790555060408201518160000160026101000a81548160ff02191690831515021790555060608201518160000160036101000a81548160ff021916908360ff16021790555060808201518160000160046101000a81548160ff021916908360ff16021790555060a08201518160000160056101000a81548160ff021916908360ff16021790555060c08201518160000160066101000a81548160ff021916908360ff16021790555090505062000a00565b826001908162000635919062000919565b50816000806101000a81548160ff021916908360ff16021790555080600060016101000a81548160ff021916908360ff160217905550505050565b7f4e487b7100000000000000000000000000000000000000000000000000000000600052602160045260246000fd5b600081519050919050565b7f4e487b7100000000000000000000000000000000000000000000000000000000600052604160045260246000fd5b7f4e487b7100000000000000000000000000000000000000000000000000000000600052602260045260246000fd5b600060028204905060018216806200072157607f821691505b602082108103620007375762000736620006d9565b5b50919050565b60008190508160005260206000209050919050565b60006020601f8301049050919050565b600082821b905092915050565b600060088302620007a17fffffffffffffffffffffffffffffffffffffffffffffffffffffffffffffffff8262000762565b620007ad868362000762565b95508019841693508086168417925050509392505050565b6000819050919050565b6000819050919050565b6000620007fa620007f4620007ee84620007c5565b620007cf565b620007c5565b9050919050565b6000819050919050565b6200081683620007d9565b6200082e620008258262000801565b8484546200076f565b825550505050565b600090565b6200084562000836565b620008528184846200080b565b505050565b5b818110156200087a576200086e6000826200083b565b60018101905062000858565b5050565b601f821115620008c95762000893816200073d565b6200089e8462000752565b81016020851015620008ae578190505b620008c6620008bd8562000752565b83018262000857565b50505b505050565b600082821c905092915050565b6000620008ee60001984600802620008ce565b1980831691505092915050565b6000620009098383620008db565b9150826002028217905092915050565b62000924826200069f565b67ffffffffffffffff81111562000940576200093f620006aa565b5b6200094c825462000708565b620009598282856200087e565b600060209050601f8311600181146200099157600084156200097c578287015190505b620009888582620008fb565b865550620009f8565b601f198416620009a1866200073d565b60005b82811015620009cb57848901518255600182019150602085019450602081019050620009a4565b86831015620009eb5784890151620009e7601f891682620008db565b8355505b6001600288020188555050505b505050505050565b613fc38062000a106000396000f3fe608060405234801561001057600080fd5b50600436106100b45760003560e01c80635c322f26116100715780635c322f26146101d957806375d0c0dc146101f757806381d405891461021557806384aa6af614610245578063a0a8e46014610275578063f2c7859714610293576100b4565b806301ffc9a7146100b95780631b9bb442146100e95780633d3114de1461011957806343ea7698146101495780634a3d553d14610179578063545ff557146101a9575b600080fd5b6100d360048036038101906100ce919061262f565b6102c3565b6040516100e09190612677565b60405180910390f35b61010360048036038101906100fe91906129b0565b61033d565b6040516101109190612f58565b60405180910390f35b610133600480360381019061012e9190612f7a565b6107c4565b6040516101409190612fe9565b60405180910390f35b610163600480360381019061015e9190612f7a565b61083e565b6040516101709190613013565b60405180910390f35b610193600480360381019061018e919061302e565b610854565b6040516101a09190613013565b60405180910390f35b6101c360048036038101906101be9190612f7a565b61096a565b6040516101d0919061307d565b60405180910390f35b6101e16109ae565b6040516101ee9190613013565b60405180910390f35b6101ff610a15565b60405161020c91906130ed565b60405180910390f35b61022f600480360381019061022a919061310f565b610af8565b60405161023c919061315e565b60405180910390f35b61025f600480360381019061025a9190612f7a565b610ba5565b60405161026c9190613188565b60405180910390f35b61027d610c61565b60405161028a9190613013565b60405180910390f35b6102ad60048036038101906102a891906136c0565b610ccc565b6040516102ba919061378f565b60405180910390f35b60007ff2c78597000000000000000000000000000000000000000000000000000000007bffffffffffffffffffffffffffffffffffffffffffffffffffffffff1916827bffffffffffffffffffffffffffffffffffffffffffffffffffffffff19161480610336575061033582610d2a565b5b9050919050565b61034561244d565b6000856020015103156107bb57604051806101c00160405280878152602001866000015181526020018660200151815260200186604001517cffffffffffffffffffffffffffffffffffffffffffffffffffffffffff168152602001866060015160ff168152602001866080015160048111156103c5576103c4612a5b565b5b81526020018660a0015160038111156103e1576103e0612a5b565b5b81526020016103f387602001516107c4565b8152602001610405876020015161083e565b60ff1681526020016040518060800160405280600060ff168152602001600060ff168152602001600060ff168152602001600060ff1681525081526020016040518060800160405280600060ff168152602001600060ff168152602001600060ff168152602001600060ff16815250815260200160008152602001600067ffffffffffffffff81111561049b5761049a6126de565b5b6040519080825280601f01601f1916602001820160405280156104cd5781602001600182028036833780820191505090505b508152602001600067ffffffffffffffff8111156104ee576104ed6126de565b5b60405190808252806020026020018201604052801561052757816020015b610514612517565b81526020019060019003908161050c5790505b50815250905060005b60048160ff1610156107175760008160ff16600381111561055457610553612a5b565b5b905060008573ffffffffffffffffffffffffffffffffffffffff1663d085e7c161057e8b85610da4565b6040518263ffffffff1660e01b815260040161059a91906137c0565b60c060405180830381865afa1580156105b7573d6000803e3d6000fd5b505050506040513d601f19601f820116820180604052508101906105db91906138e4565b905060008160000151036106185760018461014001518460ff166004811061060657610605613911565b5b602002019060ff16908160ff16815250505b6106258460a001516110a1565b600481111561063757610636612a5b565b5b8160800151600481111561064e5761064d612a5b565b5b146107045760008160000151148061066d575087600001518160000151115b156106b157610680886020015183610854565b8461012001518460ff166004811061069b5761069a613911565b5b602002019060ff16908160ff1681525050610703565b60006106bc8361111f565b90506106d56106cf836020015183610854565b82611159565b8561012001518560ff16600481106106f0576106ef613911565b5b602002019060ff16908160ff1681525050505b5b5050806107109061396f565b9050610530565b508173ffffffffffffffffffffffffffffffffffffffff1663f2c78597826040518263ffffffff1660e01b81526004016107519190612f58565b600060405180830381865afa15801561076e573d6000803e3d6000fd5b505050506040513d6000823e3d601f19601f820116820180604052508101906107979190613b3e565b816101a0018190525083156107ba576107af8161127b565b816101600181815250505b5b95945050505050565b6107cc612543565b60405180606001604052806107e084610ba5565b60088111156107f2576107f1612a5b565b5b81526020016108008461096a565b61ffff168152602001600061ffff16815250905061082681600001518260200151611745565b816040019061ffff16908161ffff1681525050919050565b600061084d601483901c611763565b9050919050565b600080600381111561086957610868612a5b565b5b82600381111561087c5761087b612a5b565b5b0361089957610892600084901c6004600c6117c5565b9050610964565b6003808111156108ac576108ab612a5b565b5b8260038111156108bf576108be612a5b565b5b036108e85760f06108d7600485901c6004600c6117c5565b6108e19190613b87565b9050610964565b600260038111156108fc576108fb612a5b565b5b82600381111561090f5761090e612a5b565b5b03610938576010610927600885901c6004600c6117c5565b6109319190613bbb565b9050610964565b600f601061094d600c86901c6004600c6117c5565b6109579190613bbb565b6109619190613b87565b90505b92915050565b6000600a61099d602884901c6001610998603287901c6002610993603c8a901c600360676117c5565b6117c5565b6117c5565b6109a79190613bbb565b9050919050565b60008060008054906101000a900460ff1660ff1603610a02576040517f08c379a00000000000000000000000000000000000000000000000000000000081526004016109f990613c87565b60405180910390fd5b60008054906101000a900460ff16905090565b6060600060018054610a2690613cd6565b905011610a68576040517f08c379a0000000000000000000000000000000000000000000000000000000008152600401610a5f90613c87565b60405180910390fd5b60018054610a7590613cd6565b80601f0160208091040260200160405190810160405280929190818152602001828054610aa190613cd6565b8015610aee5780601f10610ac357610100808354040283529160200191610aee565b820191906000526020600020905b815481529060010190602001808311610ad157829003601f168201915b5050505050905090565b600080600384610b089190613d36565b836004811115610b1b57610b1a612a5b565b5b610b259190613b87565b90506004811115610b4057600481610b3d9190613d67565b90505b610b49836110a1565b6004811115610b5b57610b5a612a5b565b5b8103610b89578080610b6c90613d9b565b9150506004811115610b8857600481610b859190613d67565b90505b5b806004811115610b9c57610b9b612a5b565b5b91505092915050565b600080610100601e84901c610bba9190613d36565b9050605a8160ff161015610bd2576000915050610c5c565b60a08160ff161015610be8576001915050610c5c565b60c88160ff161015610bfe576002915050610c5c565b60e68160ff161015610c14576003915050610c5c565b60f68160ff161015610c2a576004915050610c5c565b60fb8160ff161015610c40576005915050610c5c565b60fe8160ff161015610c56576006915050610c5c565b60079150505b919050565b600080600060019054906101000a900460ff1660ff1603610cb7576040517f08c379a0000000000000000000000000000000000000000000000000000000008152600401610cae90613c87565b60405180910390fd5b600060019054906101000a900460ff16905090565b6060600067ffffffffffffffff811115610ce957610ce86126de565b5b604051908082528060200260200182016040528015610d2257816020015b610d0f612517565b815260200190600190039081610d075790505b509050919050565b60007f894a0b9a000000000000000000000000000000000000000000000000000000007bffffffffffffffffffffffffffffffffffffffffffffffffffffffff1916827bffffffffffffffffffffffffffffffffffffffffffffffffffffffff19161480610d9d5750610d9c826117f2565b5b9050919050565b6000806003811115610db957610db8612a5b565b5b826003811115610dcc57610dcb612a5b565b5b03610e5d57600167ffffffffffffffff801684161115610dfa57600183610df39190613d67565b905061109b565b60c067ffffffffffffffff8016901b60c067ffffffffffffffff8016901b841614610e5857780100000000000000000000000000000000000000000000000067ffffffffffffffff8016198416610e519190613b87565b905061109b565b611097565b60016003811115610e7157610e70612a5b565b5b826003811115610e8457610e83612a5b565b5b03610f255768010000000000000000604067ffffffffffffffff8016901b84161115610ec6576801000000000000000083610ebf9190613d67565b905061109b565b608067ffffffffffffffff8016901b608067ffffffffffffffff8016901b841614610f2057700100000000000000000000000000000000604067ffffffffffffffff8016901b198416610f199190613b87565b905061109b565b611096565b60026003811115610f3957610f38612a5b565b5b826003811115610f4c57610f4b612a5b565b5b03610ff557700100000000000000000000000000000000608067ffffffffffffffff8016901b84161115610f9e5770010000000000000000000000000000000083610f979190613d67565b905061109b565b604067ffffffffffffffff8016901b604067ffffffffffffffff8016901b841614610ff05768010000000000000000608067ffffffffffffffff8016901b198416610fe99190613b87565b905061109b565b611095565b780100000000000000000000000000000000000000000000000060c067ffffffffffffffff8016901b841611156110525778010000000000000000000000000000000000000000000000008361104b9190613d67565b905061109b565b67ffffffffffffffff801667ffffffffffffffff801684161461109457600160c067ffffffffffffffff8016901b19841661108d9190613b87565b905061109b565b5b5b5b8290505b92915050565b6000808260048111156110b7576110b6612a5b565b5b905060038110156110f75760018110156110d25760006110f2565b6002816110df9190613b87565b60048111156110f1576110f0612a5b565b5b5b611117565b6002816111049190613d67565b600481111561111657611115612a5b565b5b5b915050919050565b600081600381111561113457611133612a5b565b5b60036111409190613d67565b600381111561115257611151612a5b565b5b9050919050565b600080600381111561116e5761116d612a5b565b5b82600381111561118157611180612a5b565b5b036111ad5760008360ff16116111985760006111a6565b60f0836111a59190613de3565b5b9050611275565b6003808111156111c0576111bf612a5b565b5b8260038111156111d3576111d2612a5b565b5b036111ff5760008360ff16116111ea5760006111f8565b60f0836111f79190613e18565b5b9050611275565b6002600381111561121357611212612a5b565b5b82600381111561122657611225612a5b565b5b036112525760008360ff161161123d57600061124b565b600f8361124a9190613de3565b5b9050611275565b60008360ff1611611264576000611272565b600f836112719190613e18565b5b90505b92915050565b600080600260008460a00151600481111561129957611298612a5b565b5b60048111156112ab576112aa612a5b565b5b8152602001908152602001600020905060008160000160009054906101000a900460ff166112dd5783604001516112eb565b6112ea846040015161185c565b5b90508160000160019054906101000a900460ff16156113265761131f818360000160029054906101000a900460ff16611891565b925061155e565b60018260000160039054906101000a900460ff1660ff1614158061135f575060018260000160049054906101000a900460ff1660ff1614155b1561155957600080600381111561137957611378612a5b565b5b8560c0015160038111156113905761138f612a5b565b5b14806113c357506003808111156113aa576113a9612a5b565b5b8560c0015160038111156113c1576113c0612a5b565b5b145b9050600081611403576113fe8460000160039054906101000a900460ff1660ff168560000160049054906101000a900460ff1660ff16611dc9565b611436565b6114358460000160039054906101000a900460ff1660ff168560000160049054906101000a900460ff1660ff16611de2565b5b9050600082611476576114718560000160039054906101000a900460ff1660ff168660000160049054906101000a900460ff1660ff16611de2565b6114a9565b6114a88560000160039054906101000a900460ff1660ff168660000160049054906101000a900460ff1660ff16611dc9565b5b905060005b610100811015611550576000836010836114c89190613d36565b6114d29190613e4d565b90506000836010846114e49190613e4d565b6114ee9190613e4d565b905060006010826114ff9190613bbb565b8361150a9190613b87565b905060008160ff61151b9190613d67565b6001901b89161461153c578360ff6115339190613d67565b6001901b8a1799505b5050508061154990613d9b565b90506114ae565b5050505061155d565b8092505b5b600061156e856101000151611dfb565b905060005b60048160ff1610156115e85760008661012001518260ff166004811061159c5761159b613911565b5b602002015160ff1611156115d7576115d28661012001518260ff16600481106115c8576115c7613911565b5b6020020151611dfb565b821791505b806115e19061396f565b9050611573565b5060005b856101a00151518160ff1610156116b557600a600f81111561161157611610612a5b565b5b866101a001518260ff168151811061162c5761162b613911565b5b602002602001015160000151600f81111561164a57611649612a5b565b5b036116a45761169f866101a001518260ff168151811061166d5761166c613911565b5b60200260200101516020015160008151811061168c5761168b613911565b5b602001015160f81c60f81b60f81c611dfb565b821791505b806116ae9061396f565b90506115ec565b5060008360000160059054906101000a900460ff1660ff1614611730576116ee84828560000160059054906101000a900460ff16611e18565b935060008360000160069054906101000a900460ff1660ff161461172b5761172884828560000160069054906101000a900460ff16611e18565b93505b61173d565b61173a84826121c4565b93505b505050919050565b600081611751846122cb565b61175b9190613e7e565b905092915050565b6000806090836117739190613d36565b90506002600c826117849190613eb4565b60106002600c856117959190613ee5565b61179f9190613de3565b6117a99190613f16565b6117b39190613de3565b6117bd9190613de3565b915050919050565b600082826117d39190613d67565b846117de9190613d36565b836117e99190613b87565b90509392505050565b60007f01ffc9a7000000000000000000000000000000000000000000000000000000007bffffffffffffffffffffffffffffffffffffffffffffffffffffffff1916827bffffffffffffffffffffffffffffffffffffffffffffffffffffffff1916149050919050565b60008160405160200161186f9190613f72565b6040516020818303038152906040528051906020012060001c82179050919050565b600061189b61257e565b60005b6040811015611b6b5760006008826118b69190613d36565b905060006008836118c79190613e4d565b90506000808360ff161461191857846001846008856118e69190613f16565b6118f09190613de3565b6118fa9190613e18565b60ff166040811061190e5761190d613911565b5b602002015161191b565b60ff5b90506000808360ff161461196c578584600860018661193a9190613e18565b6119449190613f16565b61194e9190613de3565b60ff166040811061196257611961613911565b5b602002015161196f565b60ff5b9050600060ff8360ff16146119985760006004841660ff1614611993576008811790505b6119e0565b60ff8260ff16146119bd5760006002831660ff16146119b8576008811790505b6119df565b600060016004886119ce9190613bbb565b8c901c16146119de576008811790505b5b5b60ff8260ff1614611a055760006001831660ff1614611a00576004811790505b611a32565b6000600180600489611a179190613bbb565b611a219190613b87565b8c901c1614611a31576004811790505b5b60ff8360ff1614611a575760006001841660ff1614611a52576002811790505b611a85565b600060016002600489611a6a9190613bbb565b611a749190613b87565b8c901c1614611a84576002811790505b5b600060016003600489611a989190613bbb565b611aa29190613b87565b8c901c1614611ab2576001811790505b60068160ff1603611af15788611aeb5760006001600488611ad39190613bbb565b8c901c1603611ae3576007611ae6565b600e5b611aee565b600f5b90505b60098160ff1603611b305788611b2a5760006001600488611b129190613bbb565b8c901c1603611b2257600b611b25565b600d5b611b2d565b600f5b90505b80878760408110611b4457611b43613911565b5b602002019060ff16908160ff1681525050505050505080611b6490613d9b565b905061189e565b5060005b6040811015611dc15760006008838360408110611b8f57611b8e613911565b5b60200201511660ff1614611bfa5760106002600883611bae9190613e4d565b611bb89190613bbb565b611bc29190613bbb565b6002600883611bd19190613d36565b611bdb9190613bbb565b611be59190613b87565b60ff611bf19190613d67565b6001901b831792505b60006004838360408110611c1157611c10613911565b5b60200201511660ff1614611c885760106002600883611c309190613e4d565b611c3a9190613bbb565b611c449190613bbb565b60016002600884611c559190613d36565b611c5f9190613bbb565b611c699190613b87565b611c739190613b87565b60ff611c7f9190613d67565b6001901b831792505b60006002838360408110611c9f57611c9e613911565b5b60200201511660ff1614611d1657601060016002600884611cc09190613e4d565b611cca9190613bbb565b611cd49190613b87565b611cde9190613bbb565b6002600883611ced9190613d36565b611cf79190613bbb565b611d019190613b87565b60ff611d0d9190613d67565b6001901b831792505b60006001838360408110611d2d57611d2c613911565b5b60200201511660ff1614611db057601060016002600884611d4e9190613e4d565b611d589190613bbb565b611d629190613b87565b611d6c9190613bbb565b60016002600884611d7d9190613d36565b611d879190613bbb565b611d919190613b87565b611d9b9190613b87565b60ff611da79190613d67565b6001901b831792505b80611dba90613d9b565b9050611b6f565b505092915050565b6000818311611dd85781611dda565b825b905092915050565b6000818310611df15781611df3565b825b905092915050565b60008160ff611e0a9190613e18565b60ff166001901b9050919050565b60008061010067ffffffffffffffff811115611e3757611e366126de565b5b604051908082528060200260200182016040528015611e655781602001602082028036833780820191505090505b50905060005b610100811015611f095760008160ff611e849190613d67565b6001901b9050600081871614611ec2576004838381518110611ea957611ea8613911565b5b602002602001019060ff16908160ff1681525050611ef7565b600081881614611ef6576001838381518110611ee157611ee0613911565b5b602002602001019060ff16908160ff16815250505b5b5080611f0290613d9b565b9050611e6b565b5060005b6101008110156121bb576000601082611f269190613d36565b90506000601083611f379190613e4d565b905060006002858581518110611f5057611f4f613911565b5b6020026020010151611f629190613f16565b90506000821315611fa25784601085611f7b9190613d67565b81518110611f8c57611f8b613911565b5b602002602001015181611f9f9190613de3565b90505b600f821215611fe05784601085611fb99190613b87565b81518110611fca57611fc9613911565b5b602002602001015181611fdd9190613de3565b90505b60008313156120b25784600185611ff79190613d67565b8151811061200857612007613911565b5b60200260200101518161201b9190613de3565b90506000821315612067578460016010866120369190613d67565b6120409190613d67565b8151811061205157612050613911565b5b6020026020010151816120649190613de3565b90505b600f8212156120b1578460016010866120809190613b87565b61208a9190613d67565b8151811061209b5761209a613911565b5b6020026020010151816120ae9190613de3565b90505b5b600f83121561218457846001856120c99190613b87565b815181106120da576120d9613911565b5b6020026020010151816120ed9190613de3565b90506000821315612139578460016010866121089190613d67565b6121129190613b87565b8151811061212357612122613911565b5b6020026020010151816121369190613de3565b90505b600f821215612183578460016010866121529190613b87565b61215c9190613b87565b8151811061216d5761216c613911565b5b6020026020010151816121809190613de3565b90505b5b8660ff168160ff16106121a7578360ff61219e9190613d67565b6001901b861795505b505050806121b490613d9b565b9050611f0d565b50509392505050565b600082905060005b6101008110156122c45760008160ff6121e59190613d67565b6001901b90506000818516146122b25760006010836122049190613d36565b905060006010846122159190613e4d565b9050600081111561222a57601083901b851794505b600f81101561223d57601083901c851794505b600082111561227657600183901b85179450600081111561226257601183901b851794505b600f81101561227557600f83901c851794505b5b600f8210156122af57600183901c85179450600081111561229b57600f83901b851794505b600f8110156122ae57601183901c851794505b5b50505b50806122bd90613d9b565b90506121cc565b5092915050565b60008060088111156122e0576122df612a5b565b5b8260088111156122f3576122f2612a5b565b5b036123015760329050612448565b6001600881111561231557612314612a5b565b5b82600881111561232857612327612a5b565b5b036123365760649050612448565b6002600881111561234a57612349612a5b565b5b82600881111561235d5761235c612a5b565b5b0361236b5760969050612448565b6003600881111561237f5761237e612a5b565b5b82600881111561239257612391612a5b565b5b036123a05760c89050612448565b600460088111156123b4576123b3612a5b565b5b8260088111156123c7576123c6612a5b565b5b036123d65761012c9050612448565b600560088111156123ea576123e9612a5b565b5b8260088111156123fd576123fc612a5b565b5b0361240c576101f49050612448565b600660088111156124205761241f612a5b565b5b82600881111561243357612432612a5b565b5b03612442576103209050612448565b6103e990505b919050565b604051806101c0016040528060008152602001600081526020016000815260200160007cffffffffffffffffffffffffffffffffffffffffffffffffffffffffff168152602001600060ff168152602001600060048111156124b2576124b1612a5b565b5b8152602001600060038111156124cb576124ca612a5b565b5b81526020016124d8612543565b8152602001600060ff1681526020016124ef6125a1565b81526020016124fc6125a1565b81526020016000815260200160608152602001606081525090565b60405180604001604052806000600f81111561253657612535612a5b565b5b8152602001606081525090565b60405180606001604052806000600881111561256257612561612a5b565b5b8152602001600061ffff168152602001600061ffff1681525090565b604051806108000160405280604090602082028036833780820191505090505090565b6040518060800160405280600490602082028036833780820191505090505090565b6000604051905090565b600080fd5b600080fd5b60007fffffffff0000000000000000000000000000000000000000000000000000000082169050919050565b61260c816125d7565b811461261757600080fd5b50565b60008135905061262981612603565b92915050565b600060208284031215612645576126446125cd565b5b60006126538482850161261a565b91505092915050565b60008115159050919050565b6126718161265c565b82525050565b600060208201905061268c6000830184612668565b92915050565b6000819050919050565b6126a581612692565b81146126b057600080fd5b50565b6000813590506126c28161269c565b92915050565b600080fd5b6000601f19601f8301169050919050565b7f4e487b7100000000000000000000000000000000000000000000000000000000600052604160045260246000fd5b612716826126cd565b810181811067ffffffffffffffff82111715612735576127346126de565b5b80604052505050565b60006127486125c3565b9050612754828261270d565b919050565b600080fd5b60007cffffffffffffffffffffffffffffffffffffffffffffffffffffffffff82169050919050565b6127908161275e565b811461279b57600080fd5b50565b6000813590506127ad81612787565b92915050565b600060ff82169050919050565b6127c9816127b3565b81146127d457600080fd5b50565b6000813590506127e6816127c0565b92915050565b600581106127f957600080fd5b50565b60008135905061280b816127ec565b92915050565b6004811061281e57600080fd5b50565b60008135905061283081612811565b92915050565b600060c0828403121561284c5761284b6126c8565b5b61285660c061273e565b90506000612866848285016126b3565b600083015250602061287a848285016126b3565b602083015250604061288e8482850161279e565b60408301525060606128a2848285016127d7565b60608301525060806128b6848285016127fc565b60808301525060a06128ca84828501612821565b60a08301525092915050565b6128df8161265c565b81146128ea57600080fd5b50565b6000813590506128fc816128d6565b92915050565b600073ffffffffffffffffffffffffffffffffffffffff82169050919050565b600061292d82612902565b9050919050565b600061293f82612922565b9050919050565b61294f81612934565b811461295a57600080fd5b50565b60008135905061296c81612946565b92915050565b600061297d82612922565b9050919050565b61298d81612972565b811461299857600080fd5b50565b6000813590506129aa81612984565b92915050565b600080600080600061014086880312156129cd576129cc6125cd565b5b60006129db888289016126b3565b95505060206129ec88828901612836565b94505060e06129fd888289016128ed565b935050610100612a0f8882890161295d565b925050610120612a218882890161299b565b9150509295509295909350565b612a3781612692565b82525050565b612a468161275e565b82525050565b612a55816127b3565b82525050565b7f4e487b7100000000000000000000000000000000000000000000000000000000600052602160045260246000fd5b60058110612a9b57612a9a612a5b565b5b50565b6000819050612aac82612a8a565b919050565b6000612abc82612a9e565b9050919050565b612acc81612ab1565b82525050565b60048110612ae357612ae2612a5b565b5b50565b6000819050612af482612ad2565b919050565b6000612b0482612ae6565b9050919050565b612b1481612af9565b82525050565b60098110612b2b57612b2a612a5b565b5b50565b6000819050612b3c82612b1a565b919050565b6000612b4c82612b2e565b9050919050565b612b5c81612b41565b82525050565b600061ffff82169050919050565b612b7981612b62565b82525050565b606082016000820151612b956000850182612b53565b506020820151612ba86020850182612b70565b506040820151612bbb6040850182612b70565b50505050565b600060049050919050565b600081905092915050565b6000819050919050565b6000612bed8383612a4c565b60208301905092915050565b6000602082019050919050565b612c0f81612bc1565b612c198184612bcc565b9250612c2482612bd7565b8060005b83811015612c55578151612c3c8782612be1565b9650612c4783612bf9565b925050600181019050612c28565b505050505050565b600081519050919050565b600082825260208201905092915050565b60005b83811015612c97578082015181840152602081019050612c7c565b60008484015250505050565b6000612cae82612c5d565b612cb88185612c68565b9350612cc8818560208601612c79565b612cd1816126cd565b840191505092915050565b600081519050919050565b600082825260208201905092915050565b6000819050602082019050919050565b60108110612d1957612d18612a5b565b5b50565b6000819050612d2a82612d08565b919050565b6000612d3a82612d1c565b9050919050565b612d4a81612d2f565b82525050565b6000604083016000830151612d686000860182612d41565b5060208301518482036020860152612d808282612ca3565b9150508091505092915050565b6000612d998383612d50565b905092915050565b6000602082019050919050565b6000612db982612cdc565b612dc38185612ce7565b935083602082028501612dd585612cf8565b8060005b85811015612e115784840389528151612df28582612d8d565b9450612dfd83612da1565b925060208a01995050600181019050612dd9565b50829750879550505050505092915050565b60006102c083016000830151612e3c6000860182612a2e565b506020830151612e4f6020860182612a2e565b506040830151612e626040860182612a2e565b506060830151612e756060860182612a3d565b506080830151612e886080860182612a4c565b5060a0830151612e9b60a0860182612ac3565b5060c0830151612eae60c0860182612b0b565b5060e0830151612ec160e0860182612b7f565b50610100830151612ed6610140860182612a4c565b50610120830151612eeb610160860182612c06565b50610140830151612f006101e0860182612c06565b50610160830151612f15610260860182612a2e565b50610180830151848203610280860152612f2f8282612ca3565b9150506101a08301518482036102a0860152612f4b8282612dae565b9150508091505092915050565b60006020820190508181036000830152612f728184612e23565b905092915050565b600060208284031215612f9057612f8f6125cd565b5b6000612f9e848285016126b3565b91505092915050565b606082016000820151612fbd6000850182612b53565b506020820151612fd06020850182612b70565b506040820151612fe36040850182612b70565b50505050565b6000606082019050612ffe6000830184612fa7565b92915050565b61300d816127b3565b82525050565b60006020820190506130286000830184613004565b92915050565b60008060408385031215613045576130446125cd565b5b6000613053858286016126b3565b925050602061306485828601612821565b9150509250929050565b61307781612b62565b82525050565b6000602082019050613092600083018461306e565b92915050565b600081519050919050565b600082825260208201905092915050565b60006130bf82613098565b6130c981856130a3565b93506130d9818560208601612c79565b6130e2816126cd565b840191505092915050565b6000602082019050818103600083015261310781846130b4565b905092915050565b60008060408385031215613126576131256125cd565b5b6000613134858286016126b3565b9250506020613145858286016127fc565b9150509250929050565b61315881612ab1565b82525050565b6000602082019050613173600083018461314f565b92915050565b61318281612b41565b82525050565b600060208201905061319d6000830184613179565b92915050565b600981106131b057600080fd5b50565b6000813590506131c2816131a3565b92915050565b6131d181612b62565b81146131dc57600080fd5b50565b6000813590506131ee816131c8565b92915050565b60006060828403121561320a576132096126c8565b5b613214606061273e565b90506000613224848285016131b3565b6000830152506020613238848285016131df565b602083015250604061324c848285016131df565b60408301525092915050565b600080fd5b600067ffffffffffffffff821115613278576132776126de565b5b602082029050919050565b600080fd5b600061329b6132968461325d565b61273e565b905080602084028301858111156132b5576132b4613283565b5b835b818110156132de57806132ca88826127d7565b8452602084019350506020810190506132b7565b5050509392505050565b600082601f8301126132fd576132fc613258565b5b600461330a848285613288565b91505092915050565b600080fd5b600067ffffffffffffffff821115613333576133326126de565b5b61333c826126cd565b9050602081019050919050565b82818337600083830152505050565b600061336b61336684613318565b61273e565b90508281526020810184848401111561338757613386613313565b5b613392848285613349565b509392505050565b600082601f8301126133af576133ae613258565b5b81356133bf848260208601613358565b91505092915050565b600067ffffffffffffffff8211156133e3576133e26126de565b5b602082029050602081019050919050565b6010811061340157600080fd5b50565b600081359050613413816133f4565b92915050565b60006040828403121561342f5761342e6126c8565b5b613439604061273e565b9050600061344984828501613404565b600083015250602082013567ffffffffffffffff81111561346d5761346c612759565b5b6134798482850161339a565b60208301525092915050565b6000613498613493846133c8565b61273e565b905080838252602082019050602084028301858111156134bb576134ba613283565b5b835b8181101561350257803567ffffffffffffffff8111156134e0576134df613258565b5b8086016134ed8982613419565b855260208501945050506020810190506134bd565b5050509392505050565b600082601f83011261352157613520613258565b5b8135613531848260208601613485565b91505092915050565b60006102c08284031215613551576135506126c8565b5b61355c6101c061273e565b9050600061356c848285016126b3565b6000830152506020613580848285016126b3565b6020830152506040613594848285016126b3565b60408301525060606135a88482850161279e565b60608301525060806135bc848285016127d7565b60808301525060a06135d0848285016127fc565b60a08301525060c06135e484828501612821565b60c08301525060e06135f8848285016131f4565b60e08301525061014061360d848285016127d7565b61010083015250610160613623848285016132e8565b610120830152506101e0613639848285016132e8565b6101408301525061026061364f848285016126b3565b6101608301525061028082013567ffffffffffffffff81111561367557613674612759565b5b6136818482850161339a565b610180830152506102a082013567ffffffffffffffff8111156136a7576136a6612759565b5b6136b38482850161350c565b6101a08301525092915050565b6000602082840312156136d6576136d56125cd565b5b600082013567ffffffffffffffff8111156136f4576136f36125d2565b5b6137008482850161353a565b91505092915050565b600082825260208201905092915050565b600061372582612cdc565b61372f8185613709565b93508360208202850161374185612cf8565b8060005b8581101561377d578484038952815161375e8582612d8d565b945061376983612da1565b925060208a01995050600181019050613745565b50829750879550505050505092915050565b600060208201905081810360008301526137a9818461371a565b905092915050565b6137ba81612692565b82525050565b60006020820190506137d560008301846137b1565b92915050565b6000815190506137ea8161269c565b92915050565b6000815190506137ff81612787565b92915050565b600081519050613814816127c0565b92915050565b600081519050613829816127ec565b92915050565b60008151905061383e81612811565b92915050565b600060c0828403121561385a576138596126c8565b5b61386460c061273e565b90506000613874848285016137db565b6000830152506020613888848285016137db565b602083015250604061389c848285016137f0565b60408301525060606138b084828501613805565b60608301525060806138c48482850161381a565b60808301525060a06138d88482850161382f565b60a08301525092915050565b600060c082840312156138fa576138f96125cd565b5b600061390884828501613844565b91505092915050565b7f4e487b7100000000000000000000000000000000000000000000000000000000600052603260045260246000fd5b7f4e487b7100000000000000000000000000000000000000000000000000000000600052601160045260246000fd5b600061397a826127b3565b915060ff820361398d5761398c613940565b5b600182019050919050565b6000815190506139a7816133f4565b92915050565b60006139c06139bb84613318565b61273e565b9050828152602081018484840111156139dc576139db613313565b5b6139e7848285612c79565b509392505050565b600082601f830112613a0457613a03613258565b5b8151613a148482602086016139ad565b91505092915050565b600060408284031215613a3357613a326126c8565b5b613a3d604061273e565b90506000613a4d84828501613998565b600083015250602082015167ffffffffffffffff811115613a7157613a70612759565b5b613a7d848285016139ef565b60208301525092915050565b6000613a9c613a97846133c8565b61273e565b90508083825260208201905060208402830185811115613abf57613abe613283565b5b835b81811015613b0657805167ffffffffffffffff811115613ae457613ae3613258565b5b808601613af18982613a1d565b85526020850194505050602081019050613ac1565b5050509392505050565b600082601f830112613b2557613b24613258565b5b8151613b35848260208601613a89565b91505092915050565b600060208284031215613b5457613b536125cd565b5b600082015167ffffffffffffffff811115613b7257613b716125d2565b5b613b7e84828501613b10565b91505092915050565b6000613b9282612692565b9150613b9d83612692565b9250828201905080821115613bb557613bb4613940565b5b92915050565b6000613bc682612692565b9150613bd183612692565b9250817fffffffffffffffffffffffffffffffffffffffffffffffffffffffffffffffff0483118215151615613c0a57613c09613940565b5b828202905092915050565b7f437261776c6572436f6e74726163743a20436f6e7472616374206e6f7420736560008201527f7475700000000000000000000000000000000000000000000000000000000000602082015250565b6000613c716023836130a3565b9150613c7c82613c15565b604082019050919050565b60006020820190508181036000830152613ca081613c64565b9050919050565b7f4e487b7100000000000000000000000000000000000000000000000000000000600052602260045260246000fd5b60006002820490506001821680613cee57607f821691505b602082108103613d0157613d00613ca7565b5b50919050565b7f4e487b7100000000000000000000000000000000000000000000000000000000600052601260045260246000fd5b6000613d4182612692565b9150613d4c83612692565b925082613d5c57613d5b613d07565b5b828206905092915050565b6000613d7282612692565b9150613d7d83612692565b9250828203905081811115613d9557613d94613940565b5b92915050565b6000613da682612692565b91507fffffffffffffffffffffffffffffffffffffffffffffffffffffffffffffffff8203613dd857613dd7613940565b5b600182019050919050565b6000613dee826127b3565b9150613df9836127b3565b9250828201905060ff811115613e1257613e11613940565b5b92915050565b6000613e23826127b3565b9150613e2e836127b3565b9250828203905060ff811115613e4757613e46613940565b5b92915050565b6000613e5882612692565b9150613e6383612692565b925082613e7357613e72613d07565b5b828204905092915050565b6000613e8982612b62565b9150613e9483612b62565b9250828201905061ffff811115613eae57613ead613940565b5b92915050565b6000613ebf826127b3565b9150613eca836127b3565b925082613eda57613ed9613d07565b5b828206905092915050565b6000613ef0826127b3565b9150613efb836127b3565b925082613f0b57613f0a613d07565b5b828204905092915050565b6000613f21826127b3565b9150613f2c836127b3565b92508160ff0483118215151615613f4657613f45613940565b5b828202905092915050565b6000819050919050565b613f6c613f6782612692565b613f51565b82525050565b6000613f7e8284613f5b565b6020820191508190509291505056fea264697066735822122041ec1fa30a9f48dedf06511e997682f2e09f47f27035d4d23764297fa619cd4464736f6c63430008100033",
  "immutableReferences": {},
  "source": "// SPDX-License-Identifier: MIT\n//\n//    \n//             \n//              \n//              \n//              \n//          \n//        \n//      \n//\n// https://endlesscrawler.io\n// @EndlessCrawler\n//\n/// @title Endless Crawler Chamber Generator v.1\n/// @author Studio Avante\n/// @notice Creates Chambers bitmap and provide data for ICrawlerMapper\n/// @dev Upgradeable for eventual optimizations, can also be extended to generate new game data\n//\npragma solidity ^0.8.16;\nimport { IERC165 } from '@openzeppelin/contracts/utils/introspection/ERC165.sol';\nimport { Math } from '@openzeppelin/contracts/utils/math/Math.sol';\nimport { CrawlerContract } from './CrawlerContract.sol';\nimport { ICrawlerChamberGenerator } from './ICrawlerChamberGenerator.sol';\nimport { ICrawlerGenerator } from './ICrawlerGenerator.sol';\nimport { ICrawlerToken } from './ICrawlerToken.sol';\nimport { Crawl } from './Crawl.sol';\n\ncontract CrawlerGeneratorV1 is CrawlerContract, ICrawlerChamberGenerator, ICrawlerGenerator {\n\n\tstruct Rules {\n\t\tbool overseed;\n\t\tbool wfc;\n\t\tbool openSpaces;\n\t\tuint8 bitSizeX;\n\t\tuint8 bitSizeY;\n\t\tuint8 carveValue1;\n\t\tuint8 carveValue2;\n\t}\n\n\tmapping(Crawl.Terrain => Rules) private _rules;\n\n\tconstructor() {\n\t\tsetupCrawlerContract('Generator', 1, 1);\n\t\t_rules[Crawl.Terrain.Earth] = Rules(false, false, false, 1, 1, 5, 5);\n\t\t_rules[Crawl.Terrain.Water] = Rules(false, false, false, 4, 2, 4, 0);\n\t\t_rules[Crawl.Terrain.Air] = Rules(false, true, false, 1, 1, 0, 0);\n\t\t_rules[Crawl.Terrain.Fire] = Rules(true, true, true, 1, 1, 0, 0);\n\t}\n\n\t/// @dev implements IERC165\n\tfunction supportsInterface(bytes4 interfaceId) public view virtual override(IERC165, CrawlerContract) returns (bool) {\n\t\treturn interfaceId == type(ICrawlerGenerator).interfaceId || CrawlerContract.supportsInterface(interfaceId);\n\t}\n\n\t/// @notice Returns custom data for a Chamber\n\t// @param chamber The Chamber, without maps\n\t/// @return result An array of Crawl.CustomData\n\t/// @dev implements ICrawlerGenerator\n\tfunction generateCustomChamberData(Crawl.ChamberData memory /*chamber*/) public pure override returns (Crawl.CustomData[] memory) {\n\t\treturn new Crawl.CustomData[](0);\n\t}\n\n\t/// @notice Returns ChamberData for a Chamber\n\t/// @param coord Chamber coordinate\n\t/// @param chamberSeed Chamber static data\n\t/// @param generateMaps True if bitmap need to be generated. Tilemap is generated later by ICrawlerMapper\n\t/// @param tokenContract the CrawlerToken contract address, for checking the doors\n\t/// @param customGenerator Current ICrawlerGenerator for additional custom data\n\t/// @return result The complete ChamberData structure, less tilemap\n\t/// @dev implements ICrawlerChamberGenerator\n\tfunction generateChamberData(\n\t\tuint256 coord,\n\t\tCrawl.ChamberSeed memory chamberSeed,\n\t\tbool generateMaps,\n\t\tICrawlerToken tokenContract,\n\t\tICrawlerGenerator customGenerator)\n\tpublic view override returns (Crawl.ChamberData memory result) {\n\t\tif(chamberSeed.seed == 0) return result;\n\n\t\tresult = Crawl.ChamberData(\n\t\t\tcoord,\n\t\t\tchamberSeed.tokenId,\n\t\t\tchamberSeed.seed,\n\t\t\tchamberSeed.yonder,\n\t\t\tchamberSeed.chapter,\n\t\t\tchamberSeed.terrain,\n\t\t\tchamberSeed.entryDir,\n\t\t\tgenerateHoard(chamberSeed.seed),\n\t\t\tgenerateGemPos(chamberSeed.seed),\n\t\t\t// dynamic (optional)\n\t\t\t[0, 0, 0, 0], // doors\n\t\t\t[0, 0, 0, 0], // locks\n\t\t\t0,\t\t\t\t\t\t\t// bitmap\n\t\t\tnew bytes(0),\t\t// tile map\n\t\t\tnew Crawl.CustomData[](0)\t// custom\n\t\t);\n\n\t\t// Generate doors\n\t\tfor(uint8 d = 0; d < 4 ; ++d) {\n\t\t\tCrawl.Dir dir = Crawl.Dir(d);\n\t\t\tCrawl.ChamberSeed memory otherChamber = tokenContract.coordToSeed(Crawl.offsetCoord(coord, dir));\n\t\t\tif (otherChamber.tokenId == 0) {\n\t\t\t\t// other is empty, can be minted (locked)\n\t\t\t\tresult.locks[d] = 1;\n\t\t\t}\n\t\t\tif (Crawl.Terrain(otherChamber.terrain) != Crawl.getOppositeTerrain(result.terrain)) {\n\t\t\t\tif (otherChamber.tokenId == 0 || otherChamber.tokenId > chamberSeed.tokenId) {\n\t\t\t\t\t// this chamber is older: generate\n\t\t\t\t\tresult.doors[d] = generateDoorPos(chamberSeed.seed, dir);\n\t\t\t\t} else {\n\t\t\t\t\t// other chamber is older, invert its door\n\t\t\t\t\tCrawl.Dir otherDir = Crawl.flipDir(dir);\n\t\t\t\t\tresult.doors[d] = Crawl.flipDoorPosition(generateDoorPos(otherChamber.seed, otherDir), otherDir);\n\t\t\t\t}\n\t\t\t}\n\t\t}\n\n\t\t// Generate custom chamber data\n\t\tresult.customData = customGenerator.generateCustomChamberData(result);\n\n\t\t// generate bitmap\n\t\tif(generateMaps) {\n\t\t\tresult.bitmap = generateBitmap(result);\n\t\t}\n\t}\n\n\t//-------------------\n\t// Property Generators\n\t//\n\n\t/// @notice Generates random terrain type for a new Chamber\n\t/// @param seed The Chamber's seed\n\t/// @param fromTerrain Terrain type of the Chamber unlocking the door\n\t/// @return terrain A random Terrain type\n\t/// @dev implements ICrawlerChamberGenerator\n\tfunction generateTerrainType(uint256 seed, Crawl.Terrain fromTerrain) public pure override returns (Crawl.Terrain) {\n\t\t// we have only 3 options per terrain (cant be opposite)\n\t\tuint256 result = uint256(fromTerrain) + (seed % 3);\n\t\tif (result > 4) result -= 4; // wrap if necessry\n\t\tif (result == uint256(Crawl.getOppositeTerrain(fromTerrain))) {\n\t\t\tresult++; // skip opposite\n\t\t\tif (result > 4) result -= 4; // wrap if necessry\n\t\t} \n\t\treturn Crawl.Terrain(result);\n\t}\n\n\t/// @notice Generates random deterministic door position of a Chamber\n\t/// @param seed The Chamber's seed\n\t/// @param dir Direction of the door\n\t/// @return result A position on the bitmap\n\t/// @dev Doors are always between position 4-11 of a row/column (4 tiles from edges)\n\t/// North: always on row 0, random column\n\t/// South: always on row 15, random column\n\t/// West: always on column 0, random row\n\t/// East: always on column 15, random row\n\tfunction generateDoorPos(uint256 seed, Crawl.Dir dir) public pure returns (uint8) {\n\t\tif (dir == Crawl.Dir.North) return uint8(Crawl.mapSeed(seed >> 0, 4, 12));\n\t\tif (dir == Crawl.Dir.South) return uint8(Crawl.mapSeed(seed >> 4, 4, 12) + (15 * 16) );\n\t\tif (dir == Crawl.Dir.West) return uint8(Crawl.mapSeed(seed >> 8, 4, 12) * 16);\n\t\treturn uint8(Crawl.mapSeed(seed >> 12, 4, 12) * 16 + 15); // Crawl.Dir.East\n\t}\n\n\t/// @notice Generates random deterministic Gem position of a Chamber\n\t/// @param seed The Chamber's seed\n\t/// @return result A position on the bitmap\n\t/// @dev Gems are always between row 2-13 and column 2-13 (2 tiles from edges)\n\tfunction generateGemPos(uint256 seed) public pure returns (uint8) {\n\t\treturn Crawl.mapSeedToBitmapPosition(seed >> 20);\n\t}\n\n\t/// @notice Generates random deterministic Gem type of a Chamber\n\t/// @param seed The Chamber's seed\n\t/// @return result Gem type\n\tfunction generateGemType(uint256 seed) public pure returns (Crawl.Gem) {\n\t\tuint8 r = uint8((seed >> 30) % 256);\n\t\tif(r < 90) return Crawl.Gem.Silver;\n\t\tif(r < 160) return Crawl.Gem.Gold;\n\t\tif(r < 200) return Crawl.Gem.Sapphire;\n\t\tif(r < 230) return Crawl.Gem.Emerald;\n\t\tif(r < 246) return Crawl.Gem.Ruby;\n\t\tif(r < 251) return Crawl.Gem.Diamond;\n\t\tif(r < 254) return Crawl.Gem.Ethernite;\n\t\treturn Crawl.Gem.Kao;\n\t}\n\n\t/// @notice Generates random deterministic Coins value of a Chamber\n\t/// @param seed The Chamber's seed\n\t/// @return result Coins value\n\tfunction generateCoins(uint256 seed) public pure returns (uint16) {\n\t\treturn uint16(Crawl.mapSeed(seed >> 40, 1, Crawl.mapSeed(seed >> 50, 2, Crawl.mapSeed(seed >> 60, 3, 103))) * 10);\n\t}\n\n\t/// @notice Generates random deterministic Hoard of a Chamber (treasures)\n\t/// @param seed The Chamber's seed\n\t/// @return result Crawl.Hoard, including Gem type, Coins value, and calculated Worth value\n\tfunction generateHoard(uint256 seed) public pure returns (Crawl.Hoard memory result) {\n\t\tresult = Crawl.Hoard(\n\t\t\tgenerateGemType(seed),\n\t\t\tgenerateCoins(seed),\n\t\t\t0\n\t\t);\n\t\tresult.worth = Crawl.calcWorth(result.gemType, result.coins);\n\t}\n\n\t//----------------------------\n\t// Bitmap Generators\n\t//\n\n\t/// @notice Returns the bitmap of a Chamber\n\t/// @param chamber The Chamber, without maps\n\t/// @return bitmap The Chamber bitmap\n\t/// @dev The uint256 bitmap contains 256 bits, representing a 16 x 16 Chamber\n\t/// bit value 0 = void / walls / inaccessible areas\n\t/// bit value 1 = path / tiles / active game areas\n\tfunction generateBitmap(Crawl.ChamberData memory chamber) internal view returns (uint256 bitmap) {\n\t\tRules storage rules = _rules[chamber.terrain];\n\n\t\tuint256 seed = rules.overseed ? Crawl.overSeed(chamber.seed) : chamber.seed;\n\n\t\t// Wave Function Collapse\n\t\tif(rules.wfc) {\n\t\t\tbitmap = collapse(seed, rules.openSpaces);\n\t\t}\n\t\t// Scale seed\n\t\telse if (rules.bitSizeX != 1 || rules.bitSizeY != 1) {\n\t\t\tbool vertical = (Crawl.Dir(chamber.entryDir) == Crawl.Dir.North || Crawl.Dir(chamber.entryDir) == Crawl.Dir.South);\n\t\t\tuint256 bitSizeX = vertical ? Math.min(rules.bitSizeX, rules.bitSizeY) : Math.max(rules.bitSizeX, rules.bitSizeY);\n\t\t\tuint256 bitSizeY = vertical ? Math.max(rules.bitSizeX, rules.bitSizeY) : Math.min(rules.bitSizeX, rules.bitSizeY);\n\t\t\tfor(uint256 i = 0 ; i < 256 ; ++i) {\n\t\t\t\tuint256 x = uint256(i % 16) / bitSizeX;\n\t\t\t\tuint256 y = uint256(i / 16) / bitSizeY;\n\t\t\t\tuint256 ix = (x + (y * 16));\n\t\t\t\tif((seed & (1 << (255-ix))) != 0) {\n\t\t\t\t\tbitmap |= (1 << (255-i));\n\t\t\t\t}\n\t\t\t}\n\t\t}\n\t\t// Purely random\n\t\telse {\n\t\t\tbitmap = seed;\n\t\t}\n\n\t\t// create protected areas around doors, gems and other tiles\n\t\tuint256 protected = Crawl.tilePosToBitmap(chamber.gemPos);\n\t\tfor(uint8 d = 0 ; d < 4 ; ++d) {\n\t\t\tif (chamber.doors[d] > 0) {\n\t\t\t\tprotected |= Crawl.tilePosToBitmap(chamber.doors[d]);\n\t\t\t}\n\t\t}\n\t\tfor(uint8 i = 0 ; i < chamber.customData.length ; ++i) {\n\t\t\tif(chamber.customData[i].dataType == Crawl.CustomDataType.Tile) {\n\t\t\t\tprotected |= Crawl.tilePosToBitmap(uint8(chamber.customData[i].data[0]));\n\t\t\t}\n\t\t}\n\t\t\n\t\t// carve bitmap with cellular automata\n\t\tif(rules.carveValue1 != 0) {\n\t\t\tbitmap = carve(bitmap, protected, rules.carveValue1);\n\t\t\tif(rules.carveValue2 != 0) {\n\t\t\t\tbitmap = carve(bitmap, protected, rules.carveValue2);\n\t\t\t}\n\t\t}\n\t\t// ... or else just protect protected areas\n\t\telse {\n\t\t\tbitmap = protect(bitmap, protected);\n\t\t}\n\t}\n\n\t/// @notice Apply Simplified Wave Function Collapse \n\t/// @param seed The Chamber's seed, used as initial random bitmap\n\t/// @param openSpaces True if the generation rules prefer open spaces\n\t/// @return result The collapsed bitmap\n\t/// @dev inspired by:\n\t/// https://www.youtube.com/watch?v=rI_y2GAlQFM\n\t/// https://github.com/mxgmn/WaveFunctionCollapse (MIT)\n\tfunction collapse(uint256 seed, bool openSpaces) internal pure returns (uint256 result) {\n\t\tuint8[64] memory cells;\n\t\tfor(uint256 i = 0 ; i < 64 ; ++i) {\n\t\t\tuint8 x = uint8(i % 8);\n\t\t\tuint8 y = uint8(i / 8);\n\t\t\tuint8 left = (x == 0 ? 255 : cells[(y * 8) + x - 1]);\n\t\t\tuint8 up = (y == 0 ? 255 : cells[((y - 1) * 8) + x]);\n\n\t\t\t// each cell is 4 bits (2x2)\n\t\t\tuint8 cell;\n\t\t\t// bit 1: 1000 (0x08)\n\t\t\t// - is left[1] set?\n\t\t\t// - is up[2] set?\n\t\t\t// - else random\n\t\t\tif(left != 255) {\n\t\t\t\tif(left & 0x04 != 0) cell |= 0x08;\n\t\t\t} else if (up != 255) {\n\t\t\t\tif(up & 0x02 != 0) cell |= 0x08;\n\t\t\t} else if((seed >> (i*4)) & 1 != 0) {\n\t\t\t\tcell |= 0x08;\n\t\t\t}\n\t\t\t// bit 2: 0100 (0x04)\n\t\t\t// - is up[3] set?\n\t\t\t// - else random\n\t\t\tif (up != 255) {\n\t\t\t\tif(up & 0x01 != 0) cell |= 0x04;\n\t\t\t} else if((seed >> (i*4+1)) & 1 != 0) {\n\t\t\t\tcell |= 0x04;\n\t\t\t}\n\t\t\t// bit 3: 0010 (0x02)\n\t\t\t// - is left[3] set?\n\t\t\t// - else random\n\t\t\tif(left != 255) {\n\t\t\t\tif(left & 0x01 != 0) cell |= 0x02;\n\t\t\t} else if((seed >> (i*4+2)) & 1 != 0) {\n\t\t\t\tcell |= 0x02;\n\t\t\t}\n\t\t\t// bit 4: 0001 (0x01)\n\t\t\t// - always random\n\t\t\tif((seed >> (i*4+3)) & 1 != 0) {\n\t\t\t\tcell |= 0x01;\n\t\t\t}\n\n\t\t\t//\n\t\t\t// avoid checkers pattern\n\t\t\t// (for more connected rooms)\n\t\t\t//\n\t\t\t// if 0110 (0x06), replace by:\n\t\t\t// 1111 (0x0f) if openSpaces, or 1110 (0x0e) or 0111 (0x07)\n\t\t\tif(cell == 0x06) cell = openSpaces ? 0x0f : ((seed >> (i*4)) & 1) != 0 ? 0x0e : 0x07;\n\t\t\t// if 1001 (0x09), replace by:\n\t\t\t// 1111 (0x0f) if openSpaces, or 1101 (0x0d) or 1011 (0x0b)\n\t\t\tif(cell == 0x09) cell = openSpaces ? 0x0f : ((seed >> (i*4)) & 1) != 0 ? 0x0d : 0x0b;\n\n\t\t\tcells[i] = cell;\n\t\t}\n\n\t\t// print cells into bitmap\n\t\tfor(uint256 i = 0 ; i < 64 ; ++i) {\n\t\t\tif(cells[i] & 0x08 != 0) result |= (1 << (255 - ((i%8)*2 + (i/8)*2*16)));\n\t\t\tif(cells[i] & 0x04 != 0) result |= (1 << (255 - ((i%8)*2+1 + (i/8)*2*16)));\n\t\t\tif(cells[i] & 0x02 != 0) result |= (1 << (255 - ((i%8)*2 + ((i/8)*2+1)*16)));\n\t\t\tif(cells[i] & 0x01 != 0) result |= (1 << (255 - ((i%8)*2+1 + ((i/8)*2+1)*16)));\n\t\t}\n\t}\n\n\t/// @notice Apply Simplified Cellular Automata Cave Generator over a bitmap\n\t/// @param bitmap The original bitmap\n\t/// @param protected Bitmap of protected tiles (doors, etc)\n\t/// @param passValue Minimum neighbour sum value for a bit to remain on\n\t/// @return result The carved bitmap\n\t/// @dev inspired by:\n\t// http://www.roguebasin.com/index.php?title=Cellular_Automata_Method_for_Generating_Random_Cave-Like_Levels\n\tfunction carve(uint256 bitmap, uint256 protected, uint8 passValue) internal pure returns (uint256 result) {\n\t\t// cache cell types. 0 to walls, 1 to paths\n\t\tuint8[] memory cellValues = new uint8[](256);\n\t\tfor(uint256 i = 0 ; i < 256 ; ++i) {\n\t\t\tuint256 bit = (1 << (255-i));\n\t\t\tif((protected & bit) != 0) {\n\t\t\t\tcellValues[i] = 0x04\t; // set a high value for protected tiles\n\t\t\t} else if((bitmap & bit) != 0) {\n\t\t\t\tcellValues[i] = 0x01;\n\t\t\t}\n\t\t}\n\t\t// iterate each cell\n\t\tfor(uint256 i = 0 ; i < 256 ; ++i) {\n\t\t\t// count paths in cell area\n\t\t\tint x = int(i % 16);\n\t\t\tint y = int(i / 16);\n\t\t\tuint8 areaCount = cellValues[i] * 2;\n\t\t\tif(y > 0) areaCount += cellValues[i-16]; // x, y-1\n\t\t\tif(y < 15) areaCount += cellValues[i+16]; // x, y+1\n\t\t\tif(x > 0) {\n\t\t\t\tareaCount += cellValues[i-1]; // x-1, y\n\t\t\t\tif(y > 0) areaCount += cellValues[i-16-1]; // x-1, y-1\n\t\t\t\tif(y < 15) areaCount += cellValues[i+16-1]; // x-1, y+1\n\t\t\t}\n\t\t\tif(x < 15) {\n\t\t\t\tareaCount += cellValues[i+1]; // x+1, y\n\t\t\t\tif(y > 0) areaCount += cellValues[i-16+1]; // x+, y-1\n\t\t\t\tif(y < 15) areaCount += cellValues[i+16+1]; // x+1, y+1\n\t\t\t}\n\t\t\t// apply rule\n\t\t\tif(areaCount >= passValue) {\n\t\t\t\tresult |= (1 << (255 - i)); // set bit\n\t\t\t}\n\t\t}\n\t}\n\n\t/// @notice Create space around protected areas\n\t/// @param bitmap The original bitmap\n\t/// @param protected Bitmap of protected tiles\n\t/// @return result The resultimg bitmap\n\tfunction protect(uint256 bitmap, uint256 protected) internal pure returns (uint256 result) {\n\t\tresult = bitmap;\n\t\tfor(uint256 i = 0 ; i < 256 ; ++i) {\n\t\t\tuint256 bit = (1 << (255-i));\n\t\t\tif(protected & bit != 0) {\n\t\t\t\tuint256 x = (i % 16);\n\t\t\t\tuint256 y = (i / 16);\n\t\t\t\tif(y > 0) result |= (bit << 16);\n\t\t\t\tif(y < 15) result |= (bit >> 16);\n\t\t\t\tif(x > 0) {\n\t\t\t\t\tresult |= (bit << 1);\n\t\t\t\t\tif(y > 0) result |= (bit << (16+1));\n\t\t\t\t\tif(y < 15) result |= (bit >> (16-1));\n\t\t\t\t}\n\t\t\t\tif(x < 15) {\n\t\t\t\t\tresult |= (bit >> 1);\n\t\t\t\t\tif(y > 0) result |= (bit << (16-1));\n\t\t\t\t\tif(y < 15) result |= (bit >> (16+1));\n\t\t\t\t}\n\t\t\t}\n\t\t}\n\t}\n\n}\n",
  "sourcePath": "/Users/roger/Dev/Blockchain/Truffle/ec-crawler/contracts/CrawlerGeneratorV1.sol",
  "compiler": {
    "name": "solc",
    "version": "0.8.16+commit.07a7930e.Emscripten.clang"
  },
  "schemaVersion": "3.4.11",
  "updatedAt": "2022-12-05T06:38:13.643Z",
  "networkType": "ethereum",
  "devdoc": {
    "kind": "dev",
    "methods": {
      "contractChapterNumber()": {
        "returns": {
          "_0": "chapterNumber Contract chapter number"
        }
      },
      "contractName()": {
        "returns": {
          "_0": "name Contract name"
        }
      },
      "contractVersion()": {
        "returns": {
          "_0": "version Contract version"
        }
      },
      "generateChamberData(uint256,(uint256,uint256,uint232,uint8,uint8,uint8),bool,address,address)": {
        "details": "implements ICrawlerChamberGenerator",
        "params": {
          "chamberSeed": "Chamber static data",
          "coord": "Chamber coordinate",
          "customGenerator": "Current ICrawlerGenerator for additional custom data",
          "generateMaps": "True if bitmap need to be generated. Tilemap is generated later by ICrawlerMapper",
          "tokenContract": "the CrawlerToken contract address, for checking the doors"
        },
        "returns": {
          "result": "The complete ChamberData structure, less tilemap"
        }
      },
      "generateCoins(uint256)": {
        "params": {
          "seed": "The Chamber's seed"
        },
        "returns": {
          "_0": "result Coins value"
        }
      },
      "generateCustomChamberData((uint256,uint256,uint256,uint232,uint8,uint8,uint8,(uint8,uint16,uint16),uint8,uint8[4],uint8[4],uint256,bytes,(uint8,bytes)[]))": {
        "details": "implements ICrawlerGenerator",
        "returns": {
          "_0": "result An array of Crawl.CustomData"
        }
      },
      "generateDoorPos(uint256,uint8)": {
        "details": "Doors are always between position 4-11 of a row/column (4 tiles from edges) North: always on row 0, random column South: always on row 15, random column West: always on column 0, random row East: always on column 15, random row",
        "params": {
          "dir": "Direction of the door",
          "seed": "The Chamber's seed"
        },
        "returns": {
          "_0": "result A position on the bitmap"
        }
      },
      "generateGemPos(uint256)": {
        "details": "Gems are always between row 2-13 and column 2-13 (2 tiles from edges)",
        "params": {
          "seed": "The Chamber's seed"
        },
        "returns": {
          "_0": "result A position on the bitmap"
        }
      },
      "generateGemType(uint256)": {
        "params": {
          "seed": "The Chamber's seed"
        },
        "returns": {
          "_0": "result Gem type"
        }
      },
      "generateHoard(uint256)": {
        "params": {
          "seed": "The Chamber's seed"
        },
        "returns": {
          "result": "Crawl.Hoard, including Gem type, Coins value, and calculated Worth value"
        }
      },
      "generateTerrainType(uint256,uint8)": {
        "details": "implements ICrawlerChamberGenerator",
        "params": {
          "fromTerrain": "Terrain type of the Chamber unlocking the door",
          "seed": "The Chamber's seed"
        },
        "returns": {
          "_0": "terrain A random Terrain type"
        }
      },
      "supportsInterface(bytes4)": {
        "details": "implements IERC165"
      }
    },
    "version": 1
  },
  "userdoc": {
    "kind": "user",
    "methods": {
      "contractChapterNumber()": {
        "notice": "Returns the first chapter number this contract was used"
      },
      "contractName()": {
        "notice": "Returns the contract name"
      },
      "contractVersion()": {
        "notice": "Returns the contract version"
      },
      "generateChamberData(uint256,(uint256,uint256,uint232,uint8,uint8,uint8),bool,address,address)": {
        "notice": "Returns ChamberData for a Chamber"
      },
      "generateCoins(uint256)": {
        "notice": "Generates random deterministic Coins value of a Chamber"
      },
      "generateDoorPos(uint256,uint8)": {
        "notice": "Generates random deterministic door position of a Chamber"
      },
      "generateGemPos(uint256)": {
        "notice": "Generates random deterministic Gem position of a Chamber"
      },
      "generateGemType(uint256)": {
        "notice": "Generates random deterministic Gem type of a Chamber"
      },
      "generateHoard(uint256)": {
        "notice": "Generates random deterministic Hoard of a Chamber (treasures)"
      },
      "generateTerrainType(uint256,uint8)": {
        "notice": "Generates random terrain type for a new Chamber"
      }
    },
    "version": 1
  }
}