{
  "contractName": "CrawlerMapperV2",
  "abi": [
    {
      "inputs": [],
      "stateMutability": "nonpayable",
      "type": "constructor"
    },
    {
      "inputs": [],
      "name": "contractChapterNumber",
      "outputs": [
        {
          "internalType": "uint8",
          "name": "",
          "type": "uint8"
        }
      ],
      "stateMutability": "view",
      "type": "function"
    },
    {
      "inputs": [],
      "name": "contractName",
      "outputs": [
        {
          "internalType": "string",
          "name": "",
          "type": "string"
        }
      ],
      "stateMutability": "view",
      "type": "function"
    },
    {
      "inputs": [],
      "name": "contractVersion",
      "outputs": [
        {
          "internalType": "uint8",
          "name": "",
          "type": "uint8"
        }
      ],
      "stateMutability": "view",
      "type": "function"
    },
    {
      "inputs": [
        {
          "components": [
            {
              "internalType": "uint256",
              "name": "coord",
              "type": "uint256"
            },
            {
              "internalType": "uint256",
              "name": "tokenId",
              "type": "uint256"
            },
            {
              "internalType": "uint256",
              "name": "seed",
              "type": "uint256"
            },
            {
              "internalType": "uint232",
              "name": "yonder",
              "type": "uint232"
            },
            {
              "internalType": "uint8",
              "name": "chapter",
              "type": "uint8"
            },
            {
              "internalType": "enum Crawl.Terrain",
              "name": "terrain",
              "type": "uint8"
            },
            {
              "internalType": "enum Crawl.Dir",
              "name": "entryDir",
              "type": "uint8"
            },
            {
              "components": [
                {
                  "internalType": "enum Crawl.Gem",
                  "name": "gemType",
                  "type": "uint8"
                },
                {
                  "internalType": "uint16",
                  "name": "coins",
                  "type": "uint16"
                },
                {
                  "internalType": "uint16",
                  "name": "worth",
                  "type": "uint16"
                }
              ],
              "internalType": "struct Crawl.Hoard",
              "name": "hoard",
              "type": "tuple"
            },
            {
              "internalType": "uint8",
              "name": "gemPos",
              "type": "uint8"
            },
            {
              "internalType": "uint8[4]",
              "name": "doors",
              "type": "uint8[4]"
            },
            {
              "internalType": "uint8[4]",
              "name": "locks",
              "type": "uint8[4]"
            },
            {
              "internalType": "uint256",
              "name": "bitmap",
              "type": "uint256"
            },
            {
              "internalType": "bytes",
              "name": "tilemap",
              "type": "bytes"
            },
            {
              "components": [
                {
                  "internalType": "enum Crawl.CustomDataType",
                  "name": "dataType",
                  "type": "uint8"
                },
                {
                  "internalType": "bytes",
                  "name": "data",
                  "type": "bytes"
                }
              ],
              "internalType": "struct Crawl.CustomData[]",
              "name": "customData",
              "type": "tuple[]"
            }
          ],
          "internalType": "struct Crawl.ChamberData",
          "name": "chamber",
          "type": "tuple"
        }
      ],
      "name": "getAttributes",
      "outputs": [
        {
          "internalType": "string[]",
          "name": "labels",
          "type": "string[]"
        },
        {
          "internalType": "string[]",
          "name": "values",
          "type": "string[]"
        }
      ],
      "stateMutability": "view",
      "type": "function"
    },
    {
      "inputs": [
        {
          "internalType": "enum Crawl.Terrain",
          "name": "terrain",
          "type": "uint8"
        },
        {
          "internalType": "uint8",
          "name": "colorId",
          "type": "uint8"
        }
      ],
      "name": "getColor",
      "outputs": [
        {
          "internalType": "string",
          "name": "",
          "type": "string"
        }
      ],
      "stateMutability": "view",
      "type": "function"
    },
    {
      "inputs": [
        {
          "internalType": "enum Crawl.Terrain",
          "name": "terrain",
          "type": "uint8"
        }
      ],
      "name": "getColors",
      "outputs": [
        {
          "internalType": "string[]",
          "name": "result",
          "type": "string[]"
        }
      ],
      "stateMutability": "view",
      "type": "function"
    },
    {
      "inputs": [
        {
          "internalType": "enum Crawl.Gem",
          "name": "gemType",
          "type": "uint8"
        }
      ],
      "name": "getGemColor",
      "outputs": [
        {
          "internalType": "string",
          "name": "",
          "type": "string"
        }
      ],
      "stateMutability": "view",
      "type": "function"
    },
    {
      "inputs": [],
      "name": "getGemColors",
      "outputs": [
        {
          "internalType": "string[]",
          "name": "result",
          "type": "string[]"
        }
      ],
      "stateMutability": "view",
      "type": "function"
    },
    {
      "inputs": [
        {
          "internalType": "enum Crawl.Gem",
          "name": "gem",
          "type": "uint8"
        }
      ],
      "name": "getGemName",
      "outputs": [
        {
          "internalType": "string",
          "name": "",
          "type": "string"
        }
      ],
      "stateMutability": "view",
      "type": "function"
    },
    {
      "inputs": [
        {
          "internalType": "enum Crawl.Terrain",
          "name": "terrain",
          "type": "uint8"
        }
      ],
      "name": "getTerrainName",
      "outputs": [
        {
          "internalType": "string",
          "name": "",
          "type": "string"
        }
      ],
      "stateMutability": "view",
      "type": "function"
    },
    {
      "inputs": [
        {
          "internalType": "bytes1",
          "name": "tile",
          "type": "bytes1"
        },
        {
          "internalType": "uint8",
          "name": "bitPos",
          "type": "uint8"
        }
      ],
      "name": "getTileName",
      "outputs": [
        {
          "internalType": "string",
          "name": "",
          "type": "string"
        }
      ],
      "stateMutability": "view",
      "type": "function"
    },
    {
      "inputs": [
        {
          "internalType": "bytes4",
          "name": "interfaceId",
          "type": "bytes4"
        }
      ],
      "name": "supportsInterface",
      "outputs": [
        {
          "internalType": "bool",
          "name": "",
          "type": "bool"
        }
      ],
      "stateMutability": "view",
      "type": "function"
    },
    {
      "inputs": [
        {
          "components": [
            {
              "internalType": "uint256",
              "name": "coord",
              "type": "uint256"
            },
            {
              "internalType": "uint256",
              "name": "tokenId",
              "type": "uint256"
            },
            {
              "internalType": "uint256",
              "name": "seed",
              "type": "uint256"
            },
            {
              "internalType": "uint232",
              "name": "yonder",
              "type": "uint232"
            },
            {
              "internalType": "uint8",
              "name": "chapter",
              "type": "uint8"
            },
            {
              "internalType": "enum Crawl.Terrain",
              "name": "terrain",
              "type": "uint8"
            },
            {
              "internalType": "enum Crawl.Dir",
              "name": "entryDir",
              "type": "uint8"
            },
            {
              "components": [
                {
                  "internalType": "enum Crawl.Gem",
                  "name": "gemType",
                  "type": "uint8"
                },
                {
                  "internalType": "uint16",
                  "name": "coins",
                  "type": "uint16"
                },
                {
                  "internalType": "uint16",
                  "name": "worth",
                  "type": "uint16"
                }
              ],
              "internalType": "struct Crawl.Hoard",
              "name": "hoard",
              "type": "tuple"
            },
            {
              "internalType": "uint8",
              "name": "gemPos",
              "type": "uint8"
            },
            {
              "internalType": "uint8[4]",
              "name": "doors",
              "type": "uint8[4]"
            },
            {
              "internalType": "uint8[4]",
              "name": "locks",
              "type": "uint8[4]"
            },
            {
              "internalType": "uint256",
              "name": "bitmap",
              "type": "uint256"
            },
            {
              "internalType": "bytes",
              "name": "tilemap",
              "type": "bytes"
            },
            {
              "components": [
                {
                  "internalType": "enum Crawl.CustomDataType",
                  "name": "dataType",
                  "type": "uint8"
                },
                {
                  "internalType": "bytes",
                  "name": "data",
                  "type": "bytes"
                }
              ],
              "internalType": "struct Crawl.CustomData[]",
              "name": "customData",
              "type": "tuple[]"
            }
          ],
          "internalType": "struct Crawl.ChamberData",
          "name": "chamber",
          "type": "tuple"
        }
      ],
      "name": "generateTileMap",
      "outputs": [
        {
          "internalType": "bytes",
          "name": "result",
          "type": "bytes"
        }
      ],
      "stateMutability": "pure",
      "type": "function"
    },
    {
      "inputs": [
        {
          "components": [
            {
              "internalType": "uint256",
              "name": "coord",
              "type": "uint256"
            },
            {
              "internalType": "uint256",
              "name": "tokenId",
              "type": "uint256"
            },
            {
              "internalType": "uint256",
              "name": "seed",
              "type": "uint256"
            },
            {
              "internalType": "uint232",
              "name": "yonder",
              "type": "uint232"
            },
            {
              "internalType": "uint8",
              "name": "chapter",
              "type": "uint8"
            },
            {
              "internalType": "enum Crawl.Terrain",
              "name": "terrain",
              "type": "uint8"
            },
            {
              "internalType": "enum Crawl.Dir",
              "name": "entryDir",
              "type": "uint8"
            },
            {
              "components": [
                {
                  "internalType": "enum Crawl.Gem",
                  "name": "gemType",
                  "type": "uint8"
                },
                {
                  "internalType": "uint16",
                  "name": "coins",
                  "type": "uint16"
                },
                {
                  "internalType": "uint16",
                  "name": "worth",
                  "type": "uint16"
                }
              ],
              "internalType": "struct Crawl.Hoard",
              "name": "hoard",
              "type": "tuple"
            },
            {
              "internalType": "uint8",
              "name": "gemPos",
              "type": "uint8"
            },
            {
              "internalType": "uint8[4]",
              "name": "doors",
              "type": "uint8[4]"
            },
            {
              "internalType": "uint8[4]",
              "name": "locks",
              "type": "uint8[4]"
            },
            {
              "internalType": "uint256",
              "name": "bitmap",
              "type": "uint256"
            },
            {
              "internalType": "bytes",
              "name": "tilemap",
              "type": "bytes"
            },
            {
              "components": [
                {
                  "internalType": "enum Crawl.CustomDataType",
                  "name": "dataType",
                  "type": "uint8"
                },
                {
                  "internalType": "bytes",
                  "name": "data",
                  "type": "bytes"
                }
              ],
              "internalType": "struct Crawl.CustomData[]",
              "name": "customData",
              "type": "tuple[]"
            }
          ],
          "internalType": "struct Crawl.ChamberData",
          "name": "chamber",
          "type": "tuple"
        }
      ],
      "name": "renderSvgStyles",
      "outputs": [
        {
          "internalType": "string",
          "name": "",
          "type": "string"
        }
      ],
      "stateMutability": "view",
      "type": "function"
    },
    {
      "inputs": [
        {
          "components": [
            {
              "internalType": "uint256",
              "name": "coord",
              "type": "uint256"
            },
            {
              "internalType": "uint256",
              "name": "tokenId",
              "type": "uint256"
            },
            {
              "internalType": "uint256",
              "name": "seed",
              "type": "uint256"
            },
            {
              "internalType": "uint232",
              "name": "yonder",
              "type": "uint232"
            },
            {
              "internalType": "uint8",
              "name": "chapter",
              "type": "uint8"
            },
            {
              "internalType": "enum Crawl.Terrain",
              "name": "terrain",
              "type": "uint8"
            },
            {
              "internalType": "enum Crawl.Dir",
              "name": "entryDir",
              "type": "uint8"
            },
            {
              "components": [
                {
                  "internalType": "enum Crawl.Gem",
                  "name": "gemType",
                  "type": "uint8"
                },
                {
                  "internalType": "uint16",
                  "name": "coins",
                  "type": "uint16"
                },
                {
                  "internalType": "uint16",
                  "name": "worth",
                  "type": "uint16"
                }
              ],
              "internalType": "struct Crawl.Hoard",
              "name": "hoard",
              "type": "tuple"
            },
            {
              "internalType": "uint8",
              "name": "gemPos",
              "type": "uint8"
            },
            {
              "internalType": "uint8[4]",
              "name": "doors",
              "type": "uint8[4]"
            },
            {
              "internalType": "uint8[4]",
              "name": "locks",
              "type": "uint8[4]"
            },
            {
              "internalType": "uint256",
              "name": "bitmap",
              "type": "uint256"
            },
            {
              "internalType": "bytes",
              "name": "tilemap",
              "type": "bytes"
            },
            {
              "components": [
                {
                  "internalType": "enum Crawl.CustomDataType",
                  "name": "dataType",
                  "type": "uint8"
                },
                {
                  "internalType": "bytes",
                  "name": "data",
                  "type": "bytes"
                }
              ],
              "internalType": "struct Crawl.CustomData[]",
              "name": "customData",
              "type": "tuple[]"
            }
          ],
          "internalType": "struct Crawl.ChamberData",
          "name": "chamber",
          "type": "tuple"
        }
      ],
      "name": "renderSvgDefs",
      "outputs": [
        {
          "internalType": "string",
          "name": "",
          "type": "string"
        }
      ],
      "stateMutability": "pure",
      "type": "function"
    }
  ],
  "bytecode": "0x608060405260405180608001604052806040518060a001604052806040518060400160405280600681526020017f314631413231000000000000000000000000000000000000000000000000000081525081526020016040518060400160405280600681526020017f394636373532000000000000000000000000000000000000000000000000000081525081526020016040518060400160405280600681526020017f463345394333000000000000000000000000000000000000000000000000000081525081526020016040518060400160405280600681526020017f374434453146000000000000000000000000000000000000000000000000000081525081526020016040518060400160405280600681526020017f464642454136000000000000000000000000000000000000000000000000000081525081525081526020016040518060a001604052806040518060400160405280600681526020017f314431413242000000000000000000000000000000000000000000000000000081525081526020016040518060400160405280600681526020017f344137444432000000000000000000000000000000000000000000000000000081525081526020016040518060400160405280600681526020017f424445454646000000000000000000000000000000000000000000000000000081525081526020016040518060400160405280600681526020017f304336343832000000000000000000000000000000000000000000000000000081525081526020016040518060400160405280600681526020017f464642454136000000000000000000000000000000000000000000000000000081525081525081526020016040518060a001604052806040518060400160405280600681526020017f323131453330000000000000000000000000000000000000000000000000000081525081526020016040518060400160405280600681526020017f383439364131000000000000000000000000000000000000000000000000000081525081526020016040518060400160405280600681526020017f443246464631000000000000000000000000000000000000000000000000000081525081526020016040518060400160405280600681526020017f304635463931000000000000000000000000000000000000000000000000000081525081526020016040518060400160405280600681526020017f464642454136000000000000000000000000000000000000000000000000000081525081525081526020016040518060a001604052806040518060400160405280600681526020017f333031453236000000000000000000000000000000000000000000000000000081525081526020016040518060400160405280600681526020017f424434313243000000000000000000000000000000000000000000000000000081525081526020016040518060400160405280600681526020017f464641463437000000000000000000000000000000000000000000000000000081525081526020016040518060400160405280600681526020017f443131433030000000000000000000000000000000000000000000000000000081525081526020016040518060400160405280600681526020017f46464245413600000000000000000000000000000000000000000000000000008152508152508152506005906004620004f392919062001459565b506040518061012001604052806040518060400160405280600681526020017f424242424242000000000000000000000000000000000000000000000000000081525081526020016040518060400160405280600681526020017f464646463444000000000000000000000000000000000000000000000000000081525081526020016040518060400160405280600681526020017f323934354646000000000000000000000000000000000000000000000000000081525081526020016040518060400160405280600681526020017f344446463634000000000000000000000000000000000000000000000000000081525081526020016040518060400160405280600681526020017f464633333333000000000000000000000000000000000000000000000000000081525081526020016040518060400160405280600681526020017f464646464646000000000000000000000000000000000000000000000000000081525081526020016040518060400160405280600681526020017f464636364334000000000000000000000000000000000000000000000000000081525081526020016040518060400160405280600681526020017f303030303030000000000000000000000000000000000000000000000000000081525081526020016040518060400160405280600681526020017f4646464646460000000000000000000000000000000000000000000000000000815250815250601990600962000723929190620014b1565b503480156200073157600080fd5b506200077b6040518060400160405280600681526020017f4d617070657200000000000000000000000000000000000000000000000000008152506001806200140d60201b60201c565b6040518060400160405280600481526020017f57616c6c00000000000000000000000000000000000000000000000000000000815250600260008060f81b7effffffffffffffffffffffffffffffffffffffffffffffffffffffffffffff19167effffffffffffffffffffffffffffffffffffffffffffffffffffffffffffff1916815260200190815260200160002090816200081991906200189b565b506040518060400160405280600581526020017f456e74727900000000000000000000000000000000000000000000000000000081525060026000600160f81b7effffffffffffffffffffffffffffffffffffffffffffffffffffffffffffff19167effffffffffffffffffffffffffffffffffffffffffffffffffffffffffffff191681526020019081526020016000209081620008b991906200189b565b506040518060400160405280600481526020017f457869740000000000000000000000000000000000000000000000000000000081525060026000600260f81b7effffffffffffffffffffffffffffffffffffffffffffffffffffffffffffff19167effffffffffffffffffffffffffffffffffffffffffffffffffffffffffffff1916815260200190815260200160002090816200095991906200189b565b506040518060400160405280600681526020017f4c6f636b6564000000000000000000000000000000000000000000000000000081525060026000600360f81b7effffffffffffffffffffffffffffffffffffffffffffffffffffffffffffff19167effffffffffffffffffffffffffffffffffffffffffffffffffffffffffffff191681526020019081526020016000209081620009f991906200189b565b506040518060400160405280600381526020017f47656d000000000000000000000000000000000000000000000000000000000081525060026000600460f81b7effffffffffffffffffffffffffffffffffffffffffffffffffffffffffffff19167effffffffffffffffffffffffffffffffffffffffffffffffffffffffffffff19168152602001908152602001600020908162000a9991906200189b565b506040518060400160405280600481526020017f50617468000000000000000000000000000000000000000000000000000000008152506002600060ff60f81b7effffffffffffffffffffffffffffffffffffffffffffffffffffffffffffff19167effffffffffffffffffffffffffffffffffffffffffffffffffffffffffffff19168152602001908152602001600020908162000b3991906200189b565b506040518060400160405280600581526020017f4561727468000000000000000000000000000000000000000000000000000000815250600360006001600481111562000b8b5762000b8a62001982565b5b600481111562000ba05762000b9f62001982565b5b8152602001908152602001600020908162000bbc91906200189b565b506040518060400160405280600581526020017f5761746572000000000000000000000000000000000000000000000000000000815250600360006002600481111562000c0e5762000c0d62001982565b5b600481111562000c235762000c2262001982565b5b8152602001908152602001600020908162000c3f91906200189b565b506040518060400160405280600381526020017f4169720000000000000000000000000000000000000000000000000000000000815250600360006003600481111562000c915762000c9062001982565b5b600481111562000ca65762000ca562001982565b5b8152602001908152602001600020908162000cc291906200189b565b506040518060400160405280600481526020017f46697265000000000000000000000000000000000000000000000000000000008152506003600060048081111562000d135762000d1262001982565b5b600481111562000d285762000d2762001982565b5b8152602001908152602001600020908162000d4491906200189b565b506040518060400160405280600681526020017f53696c76657200000000000000000000000000000000000000000000000000008152506004600080600881111562000d955762000d9462001982565b5b600881111562000daa5762000da962001982565b5b8152602001908152602001600020908162000dc691906200189b565b506040518060400160405280600481526020017f476f6c6400000000000000000000000000000000000000000000000000000000815250600460006001600881111562000e185762000e1762001982565b5b600881111562000e2d5762000e2c62001982565b5b8152602001908152602001600020908162000e4991906200189b565b506040518060400160405280600881526020017f5361707068697265000000000000000000000000000000000000000000000000815250600460006002600881111562000e9b5762000e9a62001982565b5b600881111562000eb05762000eaf62001982565b5b8152602001908152602001600020908162000ecc91906200189b565b506040518060400160405280600781526020017f456d6572616c6400000000000000000000000000000000000000000000000000815250600460006003600881111562000f1e5762000f1d62001982565b5b600881111562000f335762000f3262001982565b5b8152602001908152602001600020908162000f4f91906200189b565b506040518060400160405280600481526020017f5275627900000000000000000000000000000000000000000000000000000000815250600460006004600881111562000fa15762000fa062001982565b5b600881111562000fb65762000fb562001982565b5b8152602001908152602001600020908162000fd291906200189b565b506040518060400160405280600781526020017f4469616d6f6e6400000000000000000000000000000000000000000000000000815250600460006005600881111562001024576200102362001982565b5b600881111562001039576200103862001982565b5b815260200190815260200160002090816200105591906200189b565b506040518060400160405280600981526020017f45746865726e69746500000000000000000000000000000000000000000000008152506004600060066008811115620010a757620010a662001982565b5b6008811115620010bc57620010bb62001982565b5b81526020019081526020016000209081620010d891906200189b565b506040518060400160405280600381526020017f4b616f000000000000000000000000000000000000000000000000000000000081525060046000600760088111156200112a576200112962001982565b5b60088111156200113f576200113e62001982565b5b815260200190815260200160002090816200115b91906200189b565b506040518060400160405280600481526020017f436f696e0000000000000000000000000000000000000000000000000000000081525060046000600880811115620011ac57620011ab62001982565b5b6008811115620011c157620011c062001982565b5b81526020019081526020016000209081620011dd91906200189b565b50620012276040518060400160405280600681526020017f4d617070657200000000000000000000000000000000000000000000000000008152506002806200140d60201b60201c565b6040518060400160405280600b81526020017f4861746368436c6f73656400000000000000000000000000000000000000000081525060026000600560f81b7effffffffffffffffffffffffffffffffffffffffffffffffffffffffffffff19167effffffffffffffffffffffffffffffffffffffffffffffffffffffffffffff191681526020019081526020016000209081620012c691906200189b565b506040518060400160405280600981526020017f4861746368446f776e000000000000000000000000000000000000000000000081525060026000600660f81b7effffffffffffffffffffffffffffffffffffffffffffffffffffffffffffff19167effffffffffffffffffffffffffffffffffffffffffffffffffffffffffffff1916815260200190815260200160002090816200136691906200189b565b506040518060400160405280600781526020017f486174636855700000000000000000000000000000000000000000000000000081525060026000600760f81b7effffffffffffffffffffffffffffffffffffffffffffffffffffffffffffff19167effffffffffffffffffffffffffffffffffffffffffffffffffffffffffffff1916815260200190815260200160002090816200140691906200189b565b50620019b1565b82600190816200141e91906200189b565b50816000806101000a81548160ff021916908360ff16021790555080600060016101000a81548160ff021916908360ff160217905550505050565b82600460050281019282156200149e579160200282015b828111156200149d578251829060056200148c92919062001504565b509160200191906005019062001470565b5b509050620014ad919062001557565b5090565b8260098101928215620014f1579160200282015b82811115620014f0578251829081620014df91906200189b565b5091602001919060010190620014c5565b5b5090506200150091906200157f565b5090565b826005810192821562001544579160200282015b82811115620015435782518290816200153291906200189b565b509160200191906001019062001518565b5b5090506200155391906200157f565b5090565b5b808211156200157b5760008181620015719190620015a7565b5060050162001558565b5090565b5b80821115620015a35760008181620015999190620015bc565b5060010162001580565b5090565b508060050190620015b991906200157f565b50565b508054620015ca906200168a565b6000825580601f10620015de5750620015ff565b601f016020900490600052602060002090810190620015fe919062001602565b5b50565b5b808211156200161d57600081600090555060010162001603565b5090565b600081519050919050565b7f4e487b7100000000000000000000000000000000000000000000000000000000600052604160045260246000fd5b7f4e487b7100000000000000000000000000000000000000000000000000000000600052602260045260246000fd5b60006002820490506001821680620016a357607f821691505b602082108103620016b957620016b86200165b565b5b50919050565b60008190508160005260206000209050919050565b60006020601f8301049050919050565b600082821b905092915050565b600060088302620017237fffffffffffffffffffffffffffffffffffffffffffffffffffffffffffffffff82620016e4565b6200172f8683620016e4565b95508019841693508086168417925050509392505050565b6000819050919050565b6000819050919050565b60006200177c62001776620017708462001747565b62001751565b62001747565b9050919050565b6000819050919050565b62001798836200175b565b620017b0620017a78262001783565b848454620016f1565b825550505050565b600090565b620017c7620017b8565b620017d48184846200178d565b505050565b5b81811015620017fc57620017f0600082620017bd565b600181019050620017da565b5050565b601f8211156200184b576200181581620016bf565b6200182084620016d4565b8101602085101562001830578190505b620018486200183f85620016d4565b830182620017d9565b50505b505050565b600082821c905092915050565b6000620018706000198460080262001850565b1980831691505092915050565b60006200188b83836200185d565b9150826002028217905092915050565b620018a68262001621565b67ffffffffffffffff811115620018c257620018c16200162c565b5b620018ce82546200168a565b620018db82828562001800565b600060209050601f831160018114620019135760008415620018fe578287015190505b6200190a85826200187d565b8655506200197a565b601f1984166200192386620016bf565b60005b828110156200194d5784890151825560018201915060208501945060208101905062001926565b868310156200196d578489015162001969601f8916826200185d565b8355505b6001600288020188555050505b505050505050565b7f4e487b7100000000000000000000000000000000000000000000000000000000600052602160045260246000fd5b61340880620019c16000396000f3fe608060405234801561001057600080fd5b50600436106100f45760003560e01c806368b78b7a11610097578063db1bede511610066578063db1bede5146102d4578063dbedeb3e146102f2578063f319922a14610322578063fa171c6514610352576100f4565b806368b78b7a1461023857806375d0c0dc14610268578063a0a8e46014610286578063bb912809146102a4576100f4565b806333328591116100d3578063333285911461018957806337210818146101ba5780635a4e066b146101ea5780635c322f261461021a576100f4565b80628ea79b146100f957806301ffc9a71461012957806329bead7814610159575b600080fd5b610113600480360381019061010e9190612159565b610382565b6040516101209190612216565b60405180910390f35b610143600480360381019061013e9190612290565b61044b565b60405161015091906122d8565b60405180910390f35b610173600480360381019061016e919061298c565b61045d565b6040516101809190612a2a565b60405180910390f35b6101a3600480360381019061019e919061298c565b610630565b6040516101b1929190612b58565b60405180910390f35b6101d460048036038101906101cf9190612b8f565b610f55565b6040516101e19190612216565b60405180910390f35b61020460048036038101906101ff9190612c14565b61100e565b6040516102119190612216565b60405180910390f35b610222611409565b60405161022f9190612c63565b60405180910390f35b610252600480360381019061024d9190612c7e565b611470565b60405161025f9190612216565b60405180910390f35b61027061154f565b60405161027d9190612216565b60405180910390f35b61028e611632565b60405161029b9190612c63565b60405180910390f35b6102be60048036038101906102b9919061298c565b61169d565b6040516102cb9190612216565b60405180910390f35b6102dc6116ce565b6040516102e99190612cbe565b60405180910390f35b61030c6004803603810190610307919061298c565b611807565b6040516103199190612216565b60405180910390f35b61033c60048036038101906103379190612159565b611838565b6040516103499190612cbe565b60405180910390f35b61036c60048036038101906103679190612b8f565b6119a7565b6040516103799190612216565b60405180910390f35b60606003600083600481111561039b5761039a612ce0565b5b60048111156103ad576103ac612ce0565b5b815260200190815260200160002080546103c690612d3e565b80601f01602080910402602001604051908101604052809291908181526020018280546103f290612d3e565b801561043f5780601f106104145761010080835404028352916020019161043f565b820191906000526020600020905b81548152906001019060200180831161042257829003601f168201915b50505050509050919050565b600061045682611a70565b9050919050565b606061046882611aea565b90506101008151146104af576040517f08c379a00000000000000000000000000000000000000000000000000000000081526004016104a690612dbb565b60405180910390fd5b6000826101a001516000815181106104ca576104c9612ddb565b5b6020026020010151602001516000815181106104e9576104e8612ddb565b5b602001015160f81c60f81b60f81c9050600460f81b7effffffffffffffffffffffffffffffffffffffffffffffffffffffffffffff1916828260ff168151811061053657610535612ddb565b5b602001015160f81c60f81b7effffffffffffffffffffffffffffffffffffffffffffffffffffffffffffff19161461062a576000836101a0015160008151811061058357610582612ddb565b5b6020026020010151602001516001815181106105a2576105a1612ddb565b5b602001015160f81c60f81b60f81c905060008160ff16146105dd5760018160ff16146105d257600760f81b6105d8565b600660f81b5b6105e3565b600560f81b5b838360ff16815181106105f9576105f8612ddb565b5b60200101907effffffffffffffffffffffffffffffffffffffffffffffffffffffffffffff1916908160001a905350505b50919050565b606080600967ffffffffffffffff81111561064e5761064d6122f8565b5b60405190808252806020026020018201604052801561068157816020015b606081526020019060019003908161066c5790505b509150600967ffffffffffffffff81111561069f5761069e6122f8565b5b6040519080825280602002602001820160405280156106d257816020015b60608152602001906001900390816106bd5790505b5090506040518060400160405280600781526020017f43686170746572000000000000000000000000000000000000000000000000008152508260008151811061071f5761071e612ddb565b5b602002602001018190525061073a836080015160ff16611dc0565b8160008151811061074e5761074d612ddb565b5b60200260200101819052506040518060400160405280600781526020017f5465727261696e00000000000000000000000000000000000000000000000000815250826001815181106107a3576107a2612ddb565b5b6020026020010181905250600360008460a0015160048111156107c9576107c8612ce0565b5b60048111156107db576107da612ce0565b5b815260200190815260200160002080546107f490612d3e565b80601f016020809104026020016040519081016040528092919081815260200182805461082090612d3e565b801561086d5780601f106108425761010080835404028352916020019161086d565b820191906000526020600020905b81548152906001019060200180831161085057829003601f168201915b50505050508160018151811061088657610885612ddb565b5b6020026020010181905250600060c067ffffffffffffffff8016901b8460000151161115610947576040518060400160405280600581526020017f4e6f727468000000000000000000000000000000000000000000000000000000815250826002815181106108f8576108f7612ddb565b5b602002602001018190525061092360c08067ffffffffffffffff8016901b856000015116901c611dc0565b8160028151811061093757610936612ddb565b5b60200260200101819052506109d5565b6040518060400160405280600581526020017f536f7574680000000000000000000000000000000000000000000000000000008152508260028151811061099157610990612ddb565b5b60200260200101819052506109b567ffffffffffffffff8016846000015116611dc0565b816002815181106109c9576109c8612ddb565b5b60200260200101819052505b6000608067ffffffffffffffff8016901b8460000151161115610a8b576040518060400160405280600481526020017f456173740000000000000000000000000000000000000000000000000000000081525082600381518110610a3c57610a3b612ddb565b5b6020026020010181905250610a6760808067ffffffffffffffff8016901b856000015116901c611dc0565b81600381518110610a7b57610a7a612ddb565b5b6020026020010181905250610b20565b6040518060400160405280600481526020017f576573740000000000000000000000000000000000000000000000000000000081525082600381518110610ad557610ad4612ddb565b5b6020026020010181905250610b0060408067ffffffffffffffff8016901b856000015116901c611dc0565b81600381518110610b1457610b13612ddb565b5b60200260200101819052505b6040518060400160405280600a81526020017f436f6f7264696e6174650000000000000000000000000000000000000000000081525082600481518110610b6a57610b69612ddb565b5b602002602001018190525081600281518110610b8957610b88612ddb565b5b6020026020010151600081518110610ba457610ba3612ddb565b5b602001015160f81c60f81b81600281518110610bc357610bc2612ddb565b5b602002602001015183600381518110610bdf57610bde612ddb565b5b6020026020010151600081518110610bfa57610bf9612ddb565b5b602001015160f81c60f81b83600381518110610c1957610c18612ddb565b5b6020026020010151604051602001610c349493929190612e67565b60405160208183030381529060405281600481518110610c5757610c56612ddb565b5b60200260200101819052506040518060400160405280600681526020017f596f6e646572000000000000000000000000000000000000000000000000000081525082600581518110610cac57610cab612ddb565b5b6020026020010181905250610ce383606001517cffffffffffffffffffffffffffffffffffffffffffffffffffffffffff16611dc0565b81600581518110610cf757610cf6612ddb565b5b60200260200101819052506040518060400160405280600381526020017f47656d000000000000000000000000000000000000000000000000000000000081525082600681518110610d4c57610d4b612ddb565b5b6020026020010181905250600460008460e00151600001516008811115610d7657610d75612ce0565b5b6008811115610d8857610d87612ce0565b5b81526020019081526020016000208054610da190612d3e565b80601f0160208091040260200160405190810160405280929190818152602001828054610dcd90612d3e565b8015610e1a5780601f10610def57610100808354040283529160200191610e1a565b820191906000526020600020905b815481529060010190602001808311610dfd57829003601f168201915b505050505081600681518110610e3357610e32612ddb565b5b60200260200101819052506040518060400160405280600581526020017f436f696e7300000000000000000000000000000000000000000000000000000081525082600781518110610e8857610e87612ddb565b5b6020026020010181905250610ea88360e001516020015161ffff16611dc0565b81600781518110610ebc57610ebb612ddb565b5b60200260200101819052506040518060400160405280600581526020017f576f72746800000000000000000000000000000000000000000000000000000081525082600881518110610f1157610f10612ddb565b5b6020026020010181905250610f318360e001516040015161ffff16611dc0565b81600881518110610f4557610f44612ddb565b5b6020026020010181905250915091565b60606019826008811115610f6c57610f6b612ce0565b5b60098110610f7d57610f7c612ddb565b5b018054610f8990612d3e565b80601f0160208091040260200160405190810160405280929190818152602001828054610fb590612d3e565b80156110025780601f10610fd757610100808354040283529160200191611002565b820191906000526020600020905b815481529060010190602001808311610fe557829003601f168201915b50505050509050919050565b6060600160f81b7effffffffffffffffffffffffffffffffffffffffffffffffffffffffffffff1916837effffffffffffffffffffffffffffffffffffffffffffffffffffffffffffff19160361119857600060108361106e9190612f0b565b60ff16036110b3576040518060400160405280600481526020017f446f776e000000000000000000000000000000000000000000000000000000008152509050611403565b600f6010836110c29190612f0b565b60ff1603611107576040518060400160405280600281526020017f55700000000000000000000000000000000000000000000000000000000000008152509050611403565b60006010836111169190612f3c565b60ff160361115b576040518060400160405280600581526020017f52696768740000000000000000000000000000000000000000000000000000008152509050611403565b6040518060400160405280600481526020017f4c656674000000000000000000000000000000000000000000000000000000008152509050611403565b600260f81b7effffffffffffffffffffffffffffffffffffffffffffffffffffffffffffff1916837effffffffffffffffffffffffffffffffffffffffffffffffffffffffffffff1916036113205760006010836111f69190612f0b565b60ff160361123b576040518060400160405280600281526020017f55700000000000000000000000000000000000000000000000000000000000008152509050611403565b600f60108361124a9190612f0b565b60ff160361128f576040518060400160405280600481526020017f446f776e000000000000000000000000000000000000000000000000000000008152509050611403565b600060108361129e9190612f3c565b60ff16036112e3576040518060400160405280600481526020017f4c656674000000000000000000000000000000000000000000000000000000008152509050611403565b6040518060400160405280600581526020017f52696768740000000000000000000000000000000000000000000000000000008152509050611403565b60026000847effffffffffffffffffffffffffffffffffffffffffffffffffffffffffffff19167effffffffffffffffffffffffffffffffffffffffffffffffffffffffffffff19168152602001908152602001600020805461138290612d3e565b80601f01602080910402602001604051908101604052809291908181526020018280546113ae90612d3e565b80156113fb5780601f106113d0576101008083540402835291602001916113fb565b820191906000526020600020905b8154815290600101906020018083116113de57829003601f168201915b505050505090505b92915050565b60008060008054906101000a900460ff1660ff160361145d576040517f08c379a000000000000000000000000000000000000000000000000000000000815260040161145490612fdf565b60405180910390fd5b60008054906101000a900460ff16905090565b60606005600184600481111561148957611488612ce0565b5b6114939190612fff565b600481106114a4576114a3612ddb565b5b600502018260ff16600581106114bd576114bc612ddb565b5b0180546114c990612d3e565b80601f01602080910402602001604051908101604052809291908181526020018280546114f590612d3e565b80156115425780601f1061151757610100808354040283529160200191611542565b820191906000526020600020905b81548152906001019060200180831161152557829003601f168201915b5050505050905092915050565b606060006001805461156090612d3e565b9050116115a2576040517f08c379a000000000000000000000000000000000000000000000000000000000815260040161159990612fdf565b60405180910390fd5b600180546115af90612d3e565b80601f01602080910402602001604051908101604052809291908181526020018280546115db90612d3e565b80156116285780601f106115fd57610100808354040283529160200191611628565b820191906000526020600020905b81548152906001019060200180831161160b57829003601f168201915b5050505050905090565b600080600060019054906101000a900460ff1660ff1603611688576040517f08c379a000000000000000000000000000000000000000000000000000000000815260040161167f90612fdf565b60405180910390fd5b600060019054906101000a900460ff16905090565b60606116a882611e8e565b6040516020016116b891906130e1565b6040516020818303038152906040529050919050565b6060600967ffffffffffffffff8111156116eb576116ea6122f8565b5b60405190808252806020026020018201604052801561171e57816020015b60608152602001906001900390816117095790505b50905060005b81518160ff1610156118035760198160ff166009811061174757611746612ddb565b5b01805461175390612d3e565b80601f016020809104026020016040519081016040528092919081815260200182805461177f90612d3e565b80156117cc5780601f106117a1576101008083540402835291602001916117cc565b820191906000526020600020905b8154815290600101906020018083116117af57829003601f168201915b5050505050828260ff16815181106117e7576117e6612ddb565b5b6020026020010181905250806117fc90613103565b9050611724565b5090565b606061181282611ea7565b6040516020016118229190613210565b6040516020818303038152906040529050919050565b6060600567ffffffffffffffff811115611855576118546122f8565b5b60405190808252806020026020018201604052801561188857816020015b60608152602001906001900390816118735790505b50905060005b81518160ff1610156119a157600560018460048111156118b1576118b0612ce0565b5b6118bb9190612fff565b600481106118cc576118cb612ddb565b5b600502018160ff16600581106118e5576118e4612ddb565b5b0180546118f190612d3e565b80601f016020809104026020016040519081016040528092919081815260200182805461191d90612d3e565b801561196a5780601f1061193f5761010080835404028352916020019161196a565b820191906000526020600020905b81548152906001019060200180831161194d57829003601f168201915b5050505050828260ff168151811061198557611984612ddb565b5b60200260200101819052508061199a90613103565b905061188e565b50919050565b6060600460008360088111156119c0576119bf612ce0565b5b60088111156119d2576119d1612ce0565b5b815260200190815260200160002080546119eb90612d3e565b80601f0160208091040260200160405190810160405280929190818152602001828054611a1790612d3e565b8015611a645780601f10611a3957610100808354040283529160200191611a64565b820191906000526020600020905b815481529060010190602001808311611a4757829003601f168201915b50505050509050919050565b60007fadb3aae6000000000000000000000000000000000000000000000000000000007bffffffffffffffffffffffffffffffffffffffffffffffffffffffff1916827bffffffffffffffffffffffffffffffffffffffffffffffffffffffff19161480611ae35750611ae282611ecc565b5b9050919050565b606061010067ffffffffffffffff811115611b0857611b076122f8565b5b6040519080825280601f01601f191660200182016040528015611b3a5781602001600182028036833780820191505090505b50905060008260c00151905060005b60048160ff161015611c7b5760008461012001518260ff1660048110611b7257611b71612ddb565b5b602002015160ff161115611c6a578060ff166003811115611b9657611b95612ce0565b5b6003811115611ba857611ba7612ce0565b5b826003811115611bbb57611bba612ce0565b5b14611bff5760008461014001518260ff1660048110611bdd57611bdc612ddb565b5b602002015160ff1614611bf457600360f81b611bfa565b600260f81b5b611c05565b600160f81b5b838561012001518360ff1660048110611c2157611c20612ddb565b5b602002015160ff1681518110611c3a57611c39612ddb565b5b60200101907effffffffffffffffffffffffffffffffffffffffffffffffffffffffffffff1916908160001a9053505b80611c7490613103565b9050611b49565b50600460f81b8284610100015160ff1681518110611c9c57611c9b612ddb565b5b60200101907effffffffffffffffffffffffffffffffffffffffffffffffffffffffffffff1916908160001a90535060005b610100811015611db957600060f81b7effffffffffffffffffffffffffffffffffffffffffffffffffffffffffffff1916838281518110611d1257611d11612ddb565b5b602001015160f81c60f81b7effffffffffffffffffffffffffffffffffffffffffffffffffffffffffffff1916148015611d5b57506000611d5282611f46565b85610160015116115b15611da85760ff60f81b838281518110611d7857611d77612ddb565b5b60200101907effffffffffffffffffffffffffffffffffffffffffffffffffffffffffffff1916908160001a9053505b80611db290613232565b9050611cce565b5050919050565b606060006001611dcf84611f63565b01905060008167ffffffffffffffff811115611dee57611ded6122f8565b5b6040519080825280601f01601f191660200182016040528015611e205781602001600182028036833780820191505090505b509050600082602001820190505b600115611e83578080600190039150507f3031323334353637383961626364656600000000000000000000000000000000600a86061a8153600a8581611e7757611e76612ead565b5b04945060008503611e2e575b819350505050919050565b6060604051806020016040528060008152509050919050565b606060405180610160016040528061012381526020016132b061012391399050919050565b60007f894a0b9a000000000000000000000000000000000000000000000000000000007bffffffffffffffffffffffffffffffffffffffffffffffffffffffff1916827bffffffffffffffffffffffffffffffffffffffffffffffffffffffff19161480611f3f5750611f3e826120b6565b5b9050919050565b60008160ff611f55919061327a565b60ff166001901b9050919050565b600080600090507a184f03e93ff9f4daa797ed6e38ed64bf6a1f0100000000000000008310611fc1577a184f03e93ff9f4daa797ed6e38ed64bf6a1f0100000000000000008381611fb757611fb6612ead565b5b0492506040810190505b6d04ee2d6d415b85acef81000000008310611ffe576d04ee2d6d415b85acef81000000008381611ff457611ff3612ead565b5b0492506020810190505b662386f26fc10000831061202d57662386f26fc10000838161202357612022612ead565b5b0492506010810190505b6305f5e1008310612056576305f5e100838161204c5761204b612ead565b5b0492506008810190505b612710831061207b57612710838161207157612070612ead565b5b0492506004810190505b6064831061209e576064838161209457612093612ead565b5b0492506002810190505b600a83106120ad576001810190505b80915050919050565b60007f01ffc9a7000000000000000000000000000000000000000000000000000000007bffffffffffffffffffffffffffffffffffffffffffffffffffffffff1916827bffffffffffffffffffffffffffffffffffffffffffffffffffffffff1916149050919050565b6000604051905090565b600080fd5b600080fd5b6005811061214157600080fd5b50565b60008135905061215381612134565b92915050565b60006020828403121561216f5761216e61212a565b5b600061217d84828501612144565b91505092915050565b600081519050919050565b600082825260208201905092915050565b60005b838110156121c05780820151818401526020810190506121a5565b60008484015250505050565b6000601f19601f8301169050919050565b60006121e882612186565b6121f28185612191565b93506122028185602086016121a2565b61220b816121cc565b840191505092915050565b6000602082019050818103600083015261223081846121dd565b905092915050565b60007fffffffff0000000000000000000000000000000000000000000000000000000082169050919050565b61226d81612238565b811461227857600080fd5b50565b60008135905061228a81612264565b92915050565b6000602082840312156122a6576122a561212a565b5b60006122b48482850161227b565b91505092915050565b60008115159050919050565b6122d2816122bd565b82525050565b60006020820190506122ed60008301846122c9565b92915050565b600080fd5b7f4e487b7100000000000000000000000000000000000000000000000000000000600052604160045260246000fd5b612330826121cc565b810181811067ffffffffffffffff8211171561234f5761234e6122f8565b5b80604052505050565b6000612362612120565b905061236e8282612327565b919050565b600080fd5b6000819050919050565b61238b81612378565b811461239657600080fd5b50565b6000813590506123a881612382565b92915050565b60007cffffffffffffffffffffffffffffffffffffffffffffffffffffffffff82169050919050565b6123e0816123ae565b81146123eb57600080fd5b50565b6000813590506123fd816123d7565b92915050565b600060ff82169050919050565b61241981612403565b811461242457600080fd5b50565b60008135905061243681612410565b92915050565b6004811061244957600080fd5b50565b60008135905061245b8161243c565b92915050565b6009811061246e57600080fd5b50565b60008135905061248081612461565b92915050565b600061ffff82169050919050565b61249d81612486565b81146124a857600080fd5b50565b6000813590506124ba81612494565b92915050565b6000606082840312156124d6576124d56122f3565b5b6124e06060612358565b905060006124f084828501612471565b6000830152506020612504848285016124ab565b6020830152506040612518848285016124ab565b60408301525092915050565b600080fd5b600067ffffffffffffffff821115612544576125436122f8565b5b602082029050919050565b600080fd5b600061256761256284612529565b612358565b905080602084028301858111156125815761258061254f565b5b835b818110156125aa57806125968882612427565b845260208401935050602081019050612583565b5050509392505050565b600082601f8301126125c9576125c8612524565b5b60046125d6848285612554565b91505092915050565b600080fd5b600067ffffffffffffffff8211156125ff576125fe6122f8565b5b612608826121cc565b9050602081019050919050565b82818337600083830152505050565b6000612637612632846125e4565b612358565b905082815260208101848484011115612653576126526125df565b5b61265e848285612615565b509392505050565b600082601f83011261267b5761267a612524565b5b813561268b848260208601612624565b91505092915050565b600067ffffffffffffffff8211156126af576126ae6122f8565b5b602082029050602081019050919050565b601081106126cd57600080fd5b50565b6000813590506126df816126c0565b92915050565b6000604082840312156126fb576126fa6122f3565b5b6127056040612358565b90506000612715848285016126d0565b600083015250602082013567ffffffffffffffff81111561273957612738612373565b5b61274584828501612666565b60208301525092915050565b600061276461275f84612694565b612358565b905080838252602082019050602084028301858111156127875761278661254f565b5b835b818110156127ce57803567ffffffffffffffff8111156127ac576127ab612524565b5b8086016127b989826126e5565b85526020850194505050602081019050612789565b5050509392505050565b600082601f8301126127ed576127ec612524565b5b81356127fd848260208601612751565b91505092915050565b60006102c0828403121561281d5761281c6122f3565b5b6128286101c0612358565b9050600061283884828501612399565b600083015250602061284c84828501612399565b602083015250604061286084828501612399565b6040830152506060612874848285016123ee565b606083015250608061288884828501612427565b60808301525060a061289c84828501612144565b60a08301525060c06128b08482850161244c565b60c08301525060e06128c4848285016124c0565b60e0830152506101406128d984828501612427565b610100830152506101606128ef848285016125b4565b610120830152506101e0612905848285016125b4565b6101408301525061026061291b84828501612399565b6101608301525061028082013567ffffffffffffffff81111561294157612940612373565b5b61294d84828501612666565b610180830152506102a082013567ffffffffffffffff81111561297357612972612373565b5b61297f848285016127d8565b6101a08301525092915050565b6000602082840312156129a2576129a161212a565b5b600082013567ffffffffffffffff8111156129c0576129bf61212f565b5b6129cc84828501612806565b91505092915050565b600081519050919050565b600082825260208201905092915050565b60006129fc826129d5565b612a0681856129e0565b9350612a168185602086016121a2565b612a1f816121cc565b840191505092915050565b60006020820190508181036000830152612a4481846129f1565b905092915050565b600081519050919050565b600082825260208201905092915050565b6000819050602082019050919050565b600082825260208201905092915050565b6000612a9482612186565b612a9e8185612a78565b9350612aae8185602086016121a2565b612ab7816121cc565b840191505092915050565b6000612ace8383612a89565b905092915050565b6000602082019050919050565b6000612aee82612a4c565b612af88185612a57565b935083602082028501612b0a85612a68565b8060005b85811015612b465784840389528151612b278582612ac2565b9450612b3283612ad6565b925060208a01995050600181019050612b0e565b50829750879550505050505092915050565b60006040820190508181036000830152612b728185612ae3565b90508181036020830152612b868184612ae3565b90509392505050565b600060208284031215612ba557612ba461212a565b5b6000612bb384828501612471565b91505092915050565b60007fff0000000000000000000000000000000000000000000000000000000000000082169050919050565b612bf181612bbc565b8114612bfc57600080fd5b50565b600081359050612c0e81612be8565b92915050565b60008060408385031215612c2b57612c2a61212a565b5b6000612c3985828601612bff565b9250506020612c4a85828601612427565b9150509250929050565b612c5d81612403565b82525050565b6000602082019050612c786000830184612c54565b92915050565b60008060408385031215612c9557612c9461212a565b5b6000612ca385828601612144565b9250506020612cb485828601612427565b9150509250929050565b60006020820190508181036000830152612cd88184612ae3565b905092915050565b7f4e487b7100000000000000000000000000000000000000000000000000000000600052602160045260246000fd5b7f4e487b7100000000000000000000000000000000000000000000000000000000600052602260045260246000fd5b60006002820490506001821680612d5657607f821691505b602082108103612d6957612d68612d0f565b5b50919050565b7f4261642074696c656d6170000000000000000000000000000000000000000000600082015250565b6000612da5600b83612191565b9150612db082612d6f565b602082019050919050565b60006020820190508181036000830152612dd481612d98565b9050919050565b7f4e487b7100000000000000000000000000000000000000000000000000000000600052603260045260246000fd5b6000819050919050565b612e25612e2082612bbc565b612e0a565b82525050565b600081905092915050565b6000612e41826129d5565b612e4b8185612e2b565b9350612e5b8185602086016121a2565b80840191505092915050565b6000612e738287612e14565b600182019150612e838286612e36565b9150612e8f8285612e14565b600182019150612e9f8284612e36565b915081905095945050505050565b7f4e487b7100000000000000000000000000000000000000000000000000000000600052601260045260246000fd5b7f4e487b7100000000000000000000000000000000000000000000000000000000600052601160045260246000fd5b6000612f1682612403565b9150612f2183612403565b925082612f3157612f30612ead565b5b828204905092915050565b6000612f4782612403565b9150612f5283612403565b925082612f6257612f61612ead565b5b828206905092915050565b7f437261776c6572436f6e74726163743a20436f6e7472616374206e6f7420736560008201527f7475700000000000000000000000000000000000000000000000000000000000602082015250565b6000612fc9602383612191565b9150612fd482612f6d565b604082019050919050565b60006020820190508181036000830152612ff881612fbc565b9050919050565b600061300a82612378565b915061301583612378565b925082820390508181111561302d5761302c612edc565b5b92915050565b600081905092915050565b600061304982612186565b6130538185613033565b93506130638185602086016121a2565b80840191505092915050565b7f234861746368436c6f7365647b7d234861746368446f776e7b7d23486174636860008201527f55707b7d00000000000000000000000000000000000000000000000000000000602082015250565b60006130cb602483613033565b91506130d68261306f565b602482019050919050565b60006130ed828461303e565b91506130f8826130be565b915081905092915050565b600061310e82612403565b915060ff820361312157613120612edc565b5b600182019050919050565b7f3c706174682069643d224861746368436c6f7365642220643d226d20302e322060008201527f302e32206820302e36207620302e362068202d302e36205a222f3e3c7061746860208201527f2069643d224861746368446f776e2220643d226d20302030207620312068203160408201527f205a222f3e3c706174682069643d22486174636855702220643d226d2030203160608201527f206820312076202d31205a222f3e000000000000000000000000000000000000608082015250565b60006131fa608e83613033565b91506132058261312c565b608e82019050919050565b600061321c828461303e565b9150613227826131ed565b915081905092915050565b600061323d82612378565b91507fffffffffffffffffffffffffffffffffffffffffffffffffffffffffffffffff820361326f5761326e612edc565b5b600182019050919050565b600061328582612403565b915061329083612403565b9250828203905060ff8111156132a9576132a8612edc565b5b9291505056fe3c706174682069643d22446f776e2220643d226d2030203020682031206c202d302e3520302e3535205a222f3e3c706174682069643d2255702220643d226d2030203120682031206c202d302e35202d302e3535205a222f3e3c706174682069643d224c6566742220643d226d2031203020762031206c202d302e3535202d302e35205a222f3e3c706174682069643d2252696768742220643d226d2030203020762031206c20302e3535202d302e35205a222f3e3c706174682069643d2247656d2220643d226d203020302e35206c20302e3520302e35206c20302e35202d302e35206c202d302e35202d302e35205a222f3e3c636972636c652069643d224c6f636b6564222063783d22302e35222063793d22302e352220723d22302e34222f3ea264697066735822122000f951292d878449c4d34c1fe13b8ba1f8e565ce739b2a77a16893c751dee45464736f6c63430008100033",
  "immutableReferences": {},
  "source": "// SPDX-License-Identifier: MIT\n//\n//    \n//             \n//              \n//              \n//              \n//          \n//        \n//      \n//\n// https://endlesscrawler.io\n// @EndlessCrawler\n//\n/// @title Endless Crawler Chamber Mapper v.2\n/// @author Studio Avante\n/// @notice Creates Chambers tilemap and parameters for ICrawlerRenderer\n//\npragma solidity ^0.8.16;\nimport { CrawlerContract } from '../CrawlerContract.sol';\nimport { ICrawlerMapper } from '../ICrawlerMapper.sol';\nimport { CrawlerMapperV1 } from '../CrawlerMapperV1.sol';\nimport { MapV1 } from '../MapV1.sol';\nimport { MapV2 } from './MapV2.sol';\nimport { Crawl } from '../Crawl.sol';\n\ncontract CrawlerMapperV2 is CrawlerContract, CrawlerMapperV1 {\n\n\tconstructor() {\n\t\tsetupCrawlerContract('Mapper', 2, 2);\n\t\t_tileNames[MapV2.Tile_HatchClosed] = 'HatchClosed';\n\t\t_tileNames[MapV2.Tile_HatchDown] = 'HatchDown';\n\t\t_tileNames[MapV2.Tile_HatchUp] = 'HatchUp';\n\t}\n\n\t/// @dev implements IERC165\n\tfunction supportsInterface(bytes4 interfaceId) public view virtual override(CrawlerContract, CrawlerMapperV1) returns (bool) {\n\t\treturn CrawlerMapperV1.supportsInterface(interfaceId);\n\t}\n\n\t/// @notice Converts a Chamber's bitmap into a Tiles map\n\t/// @param chamber The Chamber Data, with bitmap\n\t/// @return result 256 bytes array of Tiles defined in MapV1, MapV2\n\t/// @dev Extends the parent function result\n\tfunction generateTileMap(Crawl.ChamberData memory chamber) public pure virtual override(CrawlerMapperV1) returns (bytes memory result) {\n\t\tresult = super.generateTileMap(chamber);\n\t\trequire(result.length == 256, 'Bad tilemap');\n\t\tuint8 hatchPos = uint8(chamber.customData[0].data[0]);\n\t\tif(result[hatchPos] != MapV1.Tile_Gem) {\n\t\t\tuint8 hatchDirection = uint8(chamber.customData[0].data[1]);\n\t\t\tresult[hatchPos] = hatchDirection == 0 ? MapV2.Tile_HatchClosed : hatchDirection == 1 ? MapV2.Tile_HatchDown : MapV2.Tile_HatchUp;\n\t\t}\n\t}\n\n\t/// @notice Returns custom Tile CSS styles\n\t/// @param chamber The Chamber Data\n\t/// @return result CSS styles string\n\t/// @dev Extends the parent function result\n\tfunction renderSvgStyles(Crawl.ChamberData memory chamber) public view virtual override(CrawlerMapperV1) returns (string memory) {\n\t\treturn string.concat(\n\t\t\tsuper.renderSvgStyles(chamber),\n\t\t\t'#HatchClosed{}'\n\t\t\t'#HatchDown{}'\n\t\t\t'#HatchUp{}'\n\t\t);\n\t}\n\n\t/// @notice Returns custom Tile SVG objects\n\t/// @param chamber The Chamber Data\n\t/// @return result SVG objects string, with ids to be used in <use>\n\t/// @dev Extends the parent function result\n\tfunction renderSvgDefs(Crawl.ChamberData memory chamber) public pure virtual override(CrawlerMapperV1) returns (string memory) {\n\t\treturn string.concat(\n\t\t\tsuper.renderSvgDefs(chamber),\n\t\t\t'<path id=\"HatchClosed\" d=\"m 0.2 0.2 h 0.6 v 0.6 h -0.6 Z\"/>'\n\t\t\t'<path id=\"HatchDown\" d=\"m 0 0 v 1 h 1 Z\"/>'\n\t\t\t'<path id=\"HatchUp\" d=\"m 0 1 h 1 v -1 Z\"/>'\n\t\t);\n\t}\n\n}\n",
  "sourcePath": "/Users/roger/Dev/Blockchain/Truffle/ec-crawler/contracts/next/CrawlerMapperV2.sol",
  "compiler": {
    "name": "solc",
    "version": "0.8.16+commit.07a7930e.Emscripten.clang"
  },
  "schemaVersion": "3.4.11",
  "updatedAt": "2022-12-05T00:55:10.215Z",
  "devdoc": {
    "kind": "dev",
    "methods": {
      "contractChapterNumber()": {
        "returns": {
          "_0": "chapterNumber Contract chapter number"
        }
      },
      "contractName()": {
        "returns": {
          "_0": "name Contract name"
        }
      },
      "contractVersion()": {
        "returns": {
          "_0": "version Contract version"
        }
      },
      "generateTileMap((uint256,uint256,uint256,uint232,uint8,uint8,uint8,(uint8,uint16,uint16),uint8,uint8[4],uint8[4],uint256,bytes,(uint8,bytes)[]))": {
        "details": "Extends the parent function result",
        "params": {
          "chamber": "The Chamber Data, with bitmap"
        },
        "returns": {
          "result": "256 bytes array of Tiles defined in MapV1, MapV2"
        }
      },
      "getAttributes((uint256,uint256,uint256,uint232,uint8,uint8,uint8,(uint8,uint16,uint16),uint8,uint8[4],uint8[4],uint256,bytes,(uint8,bytes)[]))": {
        "details": "Can be overriden by new or derivative contracts, adding new attributes",
        "params": {
          "chamber": "The Chamber Data"
        },
        "returns": {
          "labels": "Array containing the attributes labels",
          "values": "Array containing the attributes values"
        }
      },
      "getColor(uint8,uint8)": {
        "details": "Can be overriden by new or derivative contracts",
        "params": {
          "colorId": "The color id/index, as defined in MapV1",
          "terrain": "Terrain type of the Chamber"
        },
        "returns": {
          "_0": "result The hex color value (without # prefix)"
        }
      },
      "getColors(uint8)": {
        "details": "Can be overriden by new or derivative contracts",
        "params": {
          "terrain": "Terrain type of the Chamber"
        },
        "returns": {
          "result": "hex color values array (without # prefix)"
        }
      },
      "getGemColor(uint8)": {
        "details": "Can be overriden by new or derivative contracts",
        "params": {
          "gemType": "Gem type"
        },
        "returns": {
          "_0": "result The hex color value (without # prefix)"
        }
      },
      "getGemColors()": {
        "details": "Can be overriden by new or derivative contracts",
        "returns": {
          "result": "hex color values array (without # prefix)"
        }
      },
      "getGemName(uint8)": {
        "details": "Can be overriden by new or derivative contracts, adding new meaning to Gems",
        "params": {
          "gem": "Gem type"
        },
        "returns": {
          "_0": "result The Gem name"
        }
      },
      "getTerrainName(uint8)": {
        "details": "Can be overriden by new or derivative contracts, adding new meaning to Terrains",
        "params": {
          "terrain": "Terrain type"
        },
        "returns": {
          "_0": "result The Terrain name"
        }
      },
      "getTileName(bytes1,uint8)": {
        "details": "Can be overriden by new or derivative contracts, adding new tiles to the Chamber",
        "params": {
          "bitPos": "Tile position on the bitmap",
          "tile": "The Tile id, defined in MapV1"
        },
        "returns": {
          "_0": "result The tile name, used as svg xlink:href id by the renderer"
        }
      },
      "renderSvgDefs((uint256,uint256,uint256,uint232,uint8,uint8,uint8,(uint8,uint16,uint16),uint8,uint8[4],uint8[4],uint256,bytes,(uint8,bytes)[]))": {
        "details": "Extends the parent function result",
        "params": {
          "chamber": "The Chamber Data"
        },
        "returns": {
          "_0": "result SVG objects string, with ids to be used in <use>"
        }
      },
      "renderSvgStyles((uint256,uint256,uint256,uint232,uint8,uint8,uint8,(uint8,uint16,uint16),uint8,uint8[4],uint8[4],uint256,bytes,(uint8,bytes)[]))": {
        "details": "Extends the parent function result",
        "params": {
          "chamber": "The Chamber Data"
        },
        "returns": {
          "_0": "result CSS styles string"
        }
      },
      "supportsInterface(bytes4)": {
        "details": "implements IERC165"
      }
    },
    "version": 1
  },
  "userdoc": {
    "kind": "user",
    "methods": {
      "contractChapterNumber()": {
        "notice": "Returns the first chapter number this contract was used"
      },
      "contractName()": {
        "notice": "Returns the contract name"
      },
      "contractVersion()": {
        "notice": "Returns the contract version"
      },
      "generateTileMap((uint256,uint256,uint256,uint232,uint8,uint8,uint8,(uint8,uint16,uint16),uint8,uint8[4],uint8[4],uint256,bytes,(uint8,bytes)[]))": {
        "notice": "Converts a Chamber's bitmap into a Tiles map"
      },
      "getAttributes((uint256,uint256,uint256,uint232,uint8,uint8,uint8,(uint8,uint16,uint16),uint8,uint8[4],uint8[4],uint256,bytes,(uint8,bytes)[]))": {
        "notice": "Returns a Chamber's attributes, for tokenURI() metadata"
      },
      "getColor(uint8,uint8)": {
        "notice": "Returns a Chamber's specific color value"
      },
      "getColors(uint8)": {
        "notice": "Returns a Chamber's complete color values"
      },
      "getGemColor(uint8)": {
        "notice": "Returns a specific Gem color value"
      },
      "getGemColors()": {
        "notice": "Returns the complete Gem color values"
      },
      "getGemName(uint8)": {
        "notice": "Returns a Chamber's Gem name"
      },
      "getTerrainName(uint8)": {
        "notice": "Returns a Chamber's Terrain name"
      },
      "getTileName(bytes1,uint8)": {
        "notice": "Returns a Tile name"
      },
      "renderSvgDefs((uint256,uint256,uint256,uint232,uint8,uint8,uint8,(uint8,uint16,uint16),uint8,uint8[4],uint8[4],uint256,bytes,(uint8,bytes)[]))": {
        "notice": "Returns custom Tile SVG objects"
      },
      "renderSvgStyles((uint256,uint256,uint256,uint232,uint8,uint8,uint8,(uint8,uint16,uint16),uint8,uint8[4],uint8[4],uint256,bytes,(uint8,bytes)[]))": {
        "notice": "Returns custom Tile CSS styles"
      }
    },
    "version": 1
  }
}