{
  "contractName": "CrawlerPlayer",
  "abi": [
    {
      "anonymous": false,
      "inputs": [
        {
          "indexed": true,
          "internalType": "address",
          "name": "player",
          "type": "address"
        }
      ],
      "name": "CreatedProfile",
      "type": "event"
    },
    {
      "anonymous": false,
      "inputs": [
        {
          "indexed": true,
          "internalType": "address",
          "name": "to",
          "type": "address"
        },
        {
          "indexed": true,
          "internalType": "enum Crawl.Gem",
          "name": "gem",
          "type": "uint8"
        },
        {
          "indexed": true,
          "internalType": "uint16",
          "name": "coins",
          "type": "uint16"
        },
        {
          "indexed": false,
          "internalType": "uint16",
          "name": "worth",
          "type": "uint16"
        }
      ],
      "name": "Give",
      "type": "event"
    },
    {
      "anonymous": false,
      "inputs": [
        {
          "indexed": true,
          "internalType": "address",
          "name": "previousOwner",
          "type": "address"
        },
        {
          "indexed": true,
          "internalType": "address",
          "name": "newOwner",
          "type": "address"
        }
      ],
      "name": "OwnershipTransferred",
      "type": "event"
    },
    {
      "anonymous": false,
      "inputs": [
        {
          "indexed": true,
          "internalType": "address",
          "name": "from",
          "type": "address"
        },
        {
          "indexed": true,
          "internalType": "enum Crawl.Gem",
          "name": "gem",
          "type": "uint8"
        },
        {
          "indexed": true,
          "internalType": "uint16",
          "name": "coins",
          "type": "uint16"
        },
        {
          "indexed": false,
          "internalType": "uint16",
          "name": "worth",
          "type": "uint16"
        }
      ],
      "name": "Take",
      "type": "event"
    },
    {
      "anonymous": false,
      "inputs": [
        {
          "indexed": true,
          "internalType": "address",
          "name": "player",
          "type": "address"
        }
      ],
      "name": "UpdatedProfile",
      "type": "event"
    },
    {
      "inputs": [],
      "name": "_query",
      "outputs": [
        {
          "internalType": "contract ICrawlerQuery",
          "name": "",
          "type": "address"
        }
      ],
      "stateMutability": "view",
      "type": "function",
      "constant": true
    },
    {
      "inputs": [],
      "name": "owner",
      "outputs": [
        {
          "internalType": "address",
          "name": "",
          "type": "address"
        }
      ],
      "stateMutability": "view",
      "type": "function",
      "constant": true
    },
    {
      "inputs": [],
      "name": "renounceOwnership",
      "outputs": [],
      "stateMutability": "nonpayable",
      "type": "function"
    },
    {
      "inputs": [
        {
          "internalType": "address",
          "name": "newOwner",
          "type": "address"
        }
      ],
      "name": "transferOwnership",
      "outputs": [],
      "stateMutability": "nonpayable",
      "type": "function"
    },
    {
      "inputs": [
        {
          "internalType": "address",
          "name": "queryContract_",
          "type": "address"
        }
      ],
      "name": "setQueryContract",
      "outputs": [],
      "stateMutability": "nonpayable",
      "type": "function"
    },
    {
      "inputs": [
        {
          "internalType": "address",
          "name": "player",
          "type": "address"
        }
      ],
      "name": "playerHasProfile",
      "outputs": [
        {
          "internalType": "bool",
          "name": "",
          "type": "bool"
        }
      ],
      "stateMutability": "view",
      "type": "function",
      "constant": true
    },
    {
      "inputs": [
        {
          "internalType": "address",
          "name": "player",
          "type": "address"
        }
      ],
      "name": "getPlayerProfile",
      "outputs": [
        {
          "components": [
            {
              "internalType": "address",
              "name": "pfpContract",
              "type": "address"
            },
            {
              "internalType": "uint256",
              "name": "pfpId",
              "type": "uint256"
            },
            {
              "internalType": "uint8",
              "name": "classId",
              "type": "uint8"
            },
            {
              "internalType": "uint8",
              "name": "style",
              "type": "uint8"
            },
            {
              "internalType": "uint16",
              "name": "value1",
              "type": "uint16"
            },
            {
              "internalType": "uint16",
              "name": "value2",
              "type": "uint16"
            },
            {
              "internalType": "uint16",
              "name": "value3",
              "type": "uint16"
            },
            {
              "internalType": "uint16",
              "name": "value4",
              "type": "uint16"
            },
            {
              "internalType": "uint16",
              "name": "value5",
              "type": "uint16"
            },
            {
              "internalType": "bool",
              "name": "hidden",
              "type": "bool"
            },
            {
              "internalType": "string",
              "name": "name",
              "type": "string"
            }
          ],
          "internalType": "struct CrawlerPlayer.Profile",
          "name": "result",
          "type": "tuple"
        }
      ],
      "stateMutability": "view",
      "type": "function",
      "constant": true
    },
    {
      "inputs": [
        {
          "internalType": "address",
          "name": "player",
          "type": "address"
        }
      ],
      "name": "getPlayerStash",
      "outputs": [
        {
          "components": [
            {
              "internalType": "uint128",
              "name": "coins",
              "type": "uint128"
            },
            {
              "internalType": "uint128",
              "name": "worth",
              "type": "uint128"
            },
            {
              "internalType": "uint32[8]",
              "name": "gems",
              "type": "uint32[8]"
            }
          ],
          "internalType": "struct CrawlerPlayer.Stash",
          "name": "",
          "type": "tuple"
        }
      ],
      "stateMutability": "view",
      "type": "function",
      "constant": true
    },
    {
      "inputs": [
        {
          "internalType": "string",
          "name": "name",
          "type": "string"
        },
        {
          "internalType": "address",
          "name": "pfpContract",
          "type": "address"
        },
        {
          "internalType": "uint256",
          "name": "pfpId",
          "type": "uint256"
        },
        {
          "internalType": "uint8",
          "name": "classId",
          "type": "uint8"
        },
        {
          "internalType": "uint8",
          "name": "style",
          "type": "uint8"
        },
        {
          "internalType": "uint16",
          "name": "value1",
          "type": "uint16"
        },
        {
          "internalType": "uint16",
          "name": "value2",
          "type": "uint16"
        },
        {
          "internalType": "uint16",
          "name": "value3",
          "type": "uint16"
        },
        {
          "internalType": "uint16",
          "name": "value4",
          "type": "uint16"
        },
        {
          "internalType": "uint16",
          "name": "value5",
          "type": "uint16"
        }
      ],
      "name": "createProfile",
      "outputs": [],
      "stateMutability": "nonpayable",
      "type": "function"
    },
    {
      "inputs": [
        {
          "internalType": "string",
          "name": "name",
          "type": "string"
        },
        {
          "internalType": "address",
          "name": "pfpContract",
          "type": "address"
        },
        {
          "internalType": "uint256",
          "name": "pfpId",
          "type": "uint256"
        },
        {
          "internalType": "uint8",
          "name": "classId",
          "type": "uint8"
        },
        {
          "internalType": "uint8",
          "name": "style",
          "type": "uint8"
        },
        {
          "internalType": "uint16",
          "name": "value1",
          "type": "uint16"
        },
        {
          "internalType": "uint16",
          "name": "value2",
          "type": "uint16"
        },
        {
          "internalType": "uint16",
          "name": "value3",
          "type": "uint16"
        },
        {
          "internalType": "uint16",
          "name": "value4",
          "type": "uint16"
        },
        {
          "internalType": "uint16",
          "name": "value5",
          "type": "uint16"
        }
      ],
      "name": "updateProfile",
      "outputs": [],
      "stateMutability": "nonpayable",
      "type": "function"
    },
    {
      "inputs": [
        {
          "internalType": "bool",
          "name": "hidden",
          "type": "bool"
        }
      ],
      "name": "hideProfile",
      "outputs": [],
      "stateMutability": "nonpayable",
      "type": "function"
    },
    {
      "inputs": [
        {
          "internalType": "address",
          "name": "from",
          "type": "address"
        },
        {
          "internalType": "address",
          "name": "to",
          "type": "address"
        },
        {
          "components": [
            {
              "internalType": "enum Crawl.Gem",
              "name": "gemType",
              "type": "uint8"
            },
            {
              "internalType": "uint16",
              "name": "coins",
              "type": "uint16"
            },
            {
              "internalType": "uint16",
              "name": "worth",
              "type": "uint16"
            }
          ],
          "internalType": "struct Crawl.Hoard",
          "name": "hoard",
          "type": "tuple"
        }
      ],
      "name": "transferChamberHoard",
      "outputs": [],
      "stateMutability": "nonpayable",
      "type": "function"
    }
  ],
  "bytecode": "0x60806040523480156200001157600080fd5b5062000032620000266200003860201b60201c565b6200004060201b60201c565b62000104565b600033905090565b60008060009054906101000a900473ffffffffffffffffffffffffffffffffffffffff169050816000806101000a81548173ffffffffffffffffffffffffffffffffffffffff021916908373ffffffffffffffffffffffffffffffffffffffff1602179055508173ffffffffffffffffffffffffffffffffffffffff168173ffffffffffffffffffffffffffffffffffffffff167f8be0079c531659141344cd1fd0a4f28419497f9722a3daafe3b4186f6b6457e060405160405180910390a35050565b61390280620001146000396000f3fe608060405234801561001057600080fd5b50600436106100b45760003560e01c806378c5f5e31161007157806378c5f5e3146101795780638da5cb5b14610195578063b4562266146101b3578063d50f8989146101cf578063f2efbdde146101ff578063f2fde38b1461021b576100b4565b8063060b7711146100b95780630764aa63146100d75780632425b684146101075780635cec843f146101375780636a71cb5314610153578063715018a61461016f575b600080fd5b6100c1610237565b6040516100ce919061248b565b60405180910390f35b6100f160048036038101906100ec91906124f8565b61025d565b6040516100fe9190612540565b60405180910390f35b610121600480360381019061011c91906124f8565b61034b565b60405161012e9190612684565b60405180910390f35b610151600480360381019061014c91906124f8565b610606565b005b61016d600480360381019061016891906127f4565b610652565b005b610177610ca3565b005b610193600480360381019061018e919061291b565b610cb7565b005b61019d61119f565b6040516101aa9190612a2a565b60405180910390f35b6101cd60048036038101906101c8919061291b565b6111c8565b005b6101e960048036038101906101e491906124f8565b6113d8565b6040516101f69190612bfe565b60405180910390f35b61021960048036038101906102149190612c4c565b611aec565b005b610235600480360381019061023091906124f8565b611ca6565b005b600160009054906101000a900473ffffffffffffffffffffffffffffffffffffffff1681565b600080600260008473ffffffffffffffffffffffffffffffffffffffff1673ffffffffffffffffffffffffffffffffffffffff16815260200190815260200160002060020160019054906101000a900460ff1660ff16141580156103445750600260008373ffffffffffffffffffffffffffffffffffffffff1673ffffffffffffffffffffffffffffffffffffffff168152602001908152602001600020600201600c9054906101000a900460ff16158061034357508173ffffffffffffffffffffffffffffffffffffffff163373ffffffffffffffffffffffffffffffffffffffff16145b5b9050919050565b610353612252565b816000600260008373ffffffffffffffffffffffffffffffffffffffff1673ffffffffffffffffffffffffffffffffffffffff16815260200190815260200160002060020160019054906101000a900460ff1660ff16036103e9576040517f08c379a00000000000000000000000000000000000000000000000000000000081526004016103e090612cd6565b60405180910390fd5b600260008273ffffffffffffffffffffffffffffffffffffffff1673ffffffffffffffffffffffffffffffffffffffff168152602001908152602001600020600201600c9054906101000a900460ff16158061047057508073ffffffffffffffffffffffffffffffffffffffff163373ffffffffffffffffffffffffffffffffffffffff16145b6104af576040517f08c379a00000000000000000000000000000000000000000000000000000000081526004016104a690612d42565b60405180910390fd5b600360008473ffffffffffffffffffffffffffffffffffffffff1673ffffffffffffffffffffffffffffffffffffffff1681526020019081526020016000206040518060600160405290816000820160009054906101000a90046fffffffffffffffffffffffffffffffff166fffffffffffffffffffffffffffffffff166fffffffffffffffffffffffffffffffff1681526020016000820160109054906101000a90046fffffffffffffffffffffffffffffffff166fffffffffffffffffffffffffffffffff166fffffffffffffffffffffffffffffffff168152602001600182016008806020026040519081016040528092919082600880156105f5576020028201916000905b82829054906101000a900463ffffffff1663ffffffff16815260200190600401906020826003010492830192600103820291508084116105b85790505b505050505081525050915050919050565b61060e611d29565b80600160006101000a81548173ffffffffffffffffffffffffffffffffffffffff021916908373ffffffffffffffffffffffffffffffffffffffff16021790555050565b600073ffffffffffffffffffffffffffffffffffffffff16600160009054906101000a900473ffffffffffffffffffffffffffffffffffffffff1673ffffffffffffffffffffffffffffffffffffffff161415801561076c5750600160009054906101000a900473ffffffffffffffffffffffffffffffffffffffff1673ffffffffffffffffffffffffffffffffffffffff1663c63190aa6040518163ffffffff1660e01b8152600401602060405180830381865afa158015610719573d6000803e3d6000fd5b505050506040513d601f19601f8201168201806040525081019061073d9190612da0565b73ffffffffffffffffffffffffffffffffffffffff163373ffffffffffffffffffffffffffffffffffffffff16145b15610c9e57806020015161ffff168160000151600881111561079157610790612dcd565b5b8473ffffffffffffffffffffffffffffffffffffffff167f69789ebc6e83aad329ad66a834476b5fb21ce7540eaa1452ca9978303994618084604001516040516107db9190612e0b565b60405180910390a46000600260008573ffffffffffffffffffffffffffffffffffffffff1673ffffffffffffffffffffffffffffffffffffffff16815260200190815260200160002060020160019054906101000a900460ff1660ff1614610a07576000600360008573ffffffffffffffffffffffffffffffffffffffff1673ffffffffffffffffffffffffffffffffffffffff16815260200190815260200160002090506108d5816001018360000151600881111561089e5761089d612dcd565b5b60ff16600881106108b2576108b1612e26565b5b600891828204019190066004029054906101000a900463ffffffff166001611da7565b81600101836000015160088111156108f0576108ef612dcd565b5b60ff166008811061090457610903612e26565b5b600891828204019190066004026101000a81548163ffffffff021916908363ffffffff16021790555061095f8160000160009054906101000a90046fffffffffffffffffffffffffffffffff16836020015161ffff16611ddb565b8160000160006101000a8154816fffffffffffffffffffffffffffffffff02191690836fffffffffffffffffffffffffffffffff1602179055506109cb8160000160109054906101000a90046fffffffffffffffffffffffffffffffff16836040015161ffff16611ddb565b8160000160106101000a8154816fffffffffffffffffffffffffffffffff02191690836fffffffffffffffffffffffffffffffff160217905550505b806020015161ffff1681600001516008811115610a2757610a26612dcd565b5b8373ffffffffffffffffffffffffffffffffffffffff167ff7255739ad35e71077ecca2deab400633d3b94535d299947ace4b501731fa4c08460400151604051610a719190612e0b565b60405180910390a46000600260008473ffffffffffffffffffffffffffffffffffffffff1673ffffffffffffffffffffffffffffffffffffffff16815260200190815260200160002060020160019054906101000a900460ff1660ff1614610c9d576000600360008473ffffffffffffffffffffffffffffffffffffffff1673ffffffffffffffffffffffffffffffffffffffff1681526020019081526020016000209050610b6b8160010183600001516008811115610b3457610b33612dcd565b5b60ff1660088110610b4857610b47612e26565b5b600891828204019190066004029054906101000a900463ffffffff166001611e27565b8160010183600001516008811115610b8657610b85612dcd565b5b60ff1660088110610b9a57610b99612e26565b5b600891828204019190066004026101000a81548163ffffffff021916908363ffffffff160217905550610bf58160000160009054906101000a90046fffffffffffffffffffffffffffffffff16836020015161ffff16611e5b565b8160000160006101000a8154816fffffffffffffffffffffffffffffffff02191690836fffffffffffffffffffffffffffffffff160217905550610c618160000160109054906101000a90046fffffffffffffffffffffffffffffffff16836040015161ffff16611e5b565b8160000160106101000a8154816fffffffffffffffffffffffffffffffff02191690836fffffffffffffffffffffffffffffffff160217905550505b5b505050565b610cab611d29565b610cb56000611eb3565b565b6000600260003373ffffffffffffffffffffffffffffffffffffffff1673ffffffffffffffffffffffffffffffffffffffff16815260200190815260200160002060020160019054906101000a900460ff1660ff1614610d4c576040517f08c379a0000000000000000000000000000000000000000000000000000000008152600401610d4390612ea1565b60405180910390fd5b610d618b8b8b8b8b8b8b8b8b8b8b6000611f77565b6000600160009054906101000a900473ffffffffffffffffffffffffffffffffffffffff1673ffffffffffffffffffffffffffffffffffffffff1663c63190aa6040518163ffffffff1660e01b8152600401602060405180830381865afa158015610dd0573d6000803e3d6000fd5b505050506040513d601f19601f82011682018060405250810190610df49190612da0565b9050610dfe612252565b60005b8273ffffffffffffffffffffffffffffffffffffffff166370a08231336040518263ffffffff1660e01b8152600401610e3a9190612a2a565b602060405180830381865afa158015610e57573d6000803e3d6000fd5b505050506040513d601f19601f82011682018060405250810190610e7b9190612ed6565b8110156110735760008373ffffffffffffffffffffffffffffffffffffffff16632f745c5933846040518363ffffffff1660e01b8152600401610ebf929190612f12565b602060405180830381865afa158015610edc573d6000803e3d6000fd5b505050506040513d601f19601f82011682018060405250810190610f009190612ed6565b905060008473ffffffffffffffffffffffffffffffffffffffff1663831e1907836040518263ffffffff1660e01b8152600401610f3d9190612f3b565b606060405180830381865afa158015610f5a573d6000803e3d6000fd5b505050506040513d601f19601f82011682018060405250810190610f7e9190612fe4565b9050836040015181600001516008811115610f9c57610f9b612dcd565b5b60ff1660088110610fb057610faf612e26565b5b602002018051809190610fc290613040565b63ffffffff1663ffffffff1681525050806020015161ffff1684600001818151610fec919061306c565b9150906fffffffffffffffffffffffffffffffff1690816fffffffffffffffffffffffffffffffff1681525050806040015161ffff1684602001818151611033919061306c565b9150906fffffffffffffffffffffffffffffffff1690816fffffffffffffffffffffffffffffffff168152505050508061106c906130b0565b9050610e01565b5080600360003373ffffffffffffffffffffffffffffffffffffffff1673ffffffffffffffffffffffffffffffffffffffff16815260200190815260200160002060008201518160000160006101000a8154816fffffffffffffffffffffffffffffffff02191690836fffffffffffffffffffffffffffffffff16021790555060208201518160000160106101000a8154816fffffffffffffffffffffffffffffffff02191690836fffffffffffffffffffffffffffffffff16021790555060408201518160010190600861114992919061229d565b509050503373ffffffffffffffffffffffffffffffffffffffff167f85aed5c70d62330017534c644b19b770dfd22833cfb22e46518b855d6fb88cf460405160405180910390a250505050505050505050505050565b60008060009054906101000a900473ffffffffffffffffffffffffffffffffffffffff16905090565b336000600260008373ffffffffffffffffffffffffffffffffffffffff1673ffffffffffffffffffffffffffffffffffffffff16815260200190815260200160002060020160019054906101000a900460ff1660ff160361125e576040517f08c379a000000000000000000000000000000000000000000000000000000000815260040161125590612cd6565b60405180910390fd5b600260008273ffffffffffffffffffffffffffffffffffffffff1673ffffffffffffffffffffffffffffffffffffffff168152602001908152602001600020600201600c9054906101000a900460ff1615806112e557508073ffffffffffffffffffffffffffffffffffffffff163373ffffffffffffffffffffffffffffffffffffffff16145b611324576040517f08c379a000000000000000000000000000000000000000000000000000000000815260040161131b90612d42565b60405180910390fd5b6113878c8c8c8c8c8c8c8c8c8c8c600260003373ffffffffffffffffffffffffffffffffffffffff1673ffffffffffffffffffffffffffffffffffffffff168152602001908152602001600020600201600c9054906101000a900460ff16611f77565b3373ffffffffffffffffffffffffffffffffffffffff167f43f9bfba4e1199234a4382a76cd253105c9e58e90f80f298e4718b5c11c4245960405160405180910390a2505050505050505050505050565b6113e0612340565b816000600260008373ffffffffffffffffffffffffffffffffffffffff1673ffffffffffffffffffffffffffffffffffffffff16815260200190815260200160002060020160019054906101000a900460ff1660ff1603611476576040517f08c379a000000000000000000000000000000000000000000000000000000000815260040161146d90612cd6565b60405180910390fd5b600260008273ffffffffffffffffffffffffffffffffffffffff1673ffffffffffffffffffffffffffffffffffffffff168152602001908152602001600020600201600c9054906101000a900460ff1615806114fd57508073ffffffffffffffffffffffffffffffffffffffff163373ffffffffffffffffffffffffffffffffffffffff16145b61153c576040517f08c379a000000000000000000000000000000000000000000000000000000000815260040161153390612d42565b60405180910390fd5b600260008473ffffffffffffffffffffffffffffffffffffffff1673ffffffffffffffffffffffffffffffffffffffff168152602001908152602001600020604051806101600160405290816000820160009054906101000a900473ffffffffffffffffffffffffffffffffffffffff1673ffffffffffffffffffffffffffffffffffffffff1673ffffffffffffffffffffffffffffffffffffffff168152602001600182015481526020016002820160009054906101000a900460ff1660ff1660ff1681526020016002820160019054906101000a900460ff1660ff1660ff1681526020016002820160029054906101000a900461ffff1661ffff1661ffff1681526020016002820160049054906101000a900461ffff1661ffff1661ffff1681526020016002820160069054906101000a900461ffff1661ffff1661ffff1681526020016002820160089054906101000a900461ffff1661ffff1661ffff16815260200160028201600a9054906101000a900461ffff1661ffff1661ffff16815260200160028201600c9054906101000a900460ff161515151581526020016003820180546116ec90613127565b80601f016020809104026020016040519081016040528092919081815260200182805461171890613127565b80156117655780601f1061173a57610100808354040283529160200191611765565b820191906000526020600020905b81548152906001019060200180831161174857829003601f168201915b5050505050815250509150600160009054906101000a900473ffffffffffffffffffffffffffffffffffffffff1673ffffffffffffffffffffffffffffffffffffffff1663514c78c183600001518460200151866040518463ffffffff1660e01b81526004016117d793929190613158565b602060405180830381865afa1580156117f4573d6000803e3d6000fd5b505050506040513d601f19601f8201168201806040525081019061181891906131a4565b611861576000826000019073ffffffffffffffffffffffffffffffffffffffff16908173ffffffffffffffffffffffffffffffffffffffff168152505060008260200181815250505b6000826040015160ff16141580156119aa5750600160009054906101000a900473ffffffffffffffffffffffffffffffffffffffff1673ffffffffffffffffffffffffffffffffffffffff1663514c78c1600160009054906101000a900473ffffffffffffffffffffffffffffffffffffffff1673ffffffffffffffffffffffffffffffffffffffff1663ca0825106040518163ffffffff1660e01b8152600401602060405180830381865afa15801561191f573d6000803e3d6000fd5b505050506040513d601f19601f82011682018060405250810190611943919061320f565b8460400151866040518463ffffffff1660e01b81526004016119679392919061326d565b602060405180830381865afa158015611984573d6000803e3d6000fd5b505050506040513d601f19601f820116820180604052508101906119a891906131a4565b155b156119c3576000826040019060ff16908160ff16815250505b6000826040015160ff1603611ae6576000600160009054906101000a900473ffffffffffffffffffffffffffffffffffffffff1673ffffffffffffffffffffffffffffffffffffffff16631ff8273d8560016040518363ffffffff1660e01b8152600401611a329291906132df565b600060405180830381865afa158015611a4f573d6000803e3d6000fd5b505050506040513d6000823e3d601f19601f82011682018060405250810190611a7891906133cb565b905060005b81518160ff161015611ae3576000828260ff1681518110611aa157611aa0612e26565b5b60200260200101511115611ad257600181611abc9190613414565b846040019060ff16908160ff1681525050611ae3565b80611adc90613449565b9050611a7d565b50505b50919050565b336000600260008373ffffffffffffffffffffffffffffffffffffffff1673ffffffffffffffffffffffffffffffffffffffff16815260200190815260200160002060020160019054906101000a900460ff1660ff1603611b82576040517f08c379a0000000000000000000000000000000000000000000000000000000008152600401611b7990612cd6565b60405180910390fd5b600260008273ffffffffffffffffffffffffffffffffffffffff1673ffffffffffffffffffffffffffffffffffffffff168152602001908152602001600020600201600c9054906101000a900460ff161580611c0957508073ffffffffffffffffffffffffffffffffffffffff163373ffffffffffffffffffffffffffffffffffffffff16145b611c48576040517f08c379a0000000000000000000000000000000000000000000000000000000008152600401611c3f90612d42565b60405180910390fd5b81600260003373ffffffffffffffffffffffffffffffffffffffff1673ffffffffffffffffffffffffffffffffffffffff168152602001908152602001600020600201600c6101000a81548160ff0219169083151502179055505050565b611cae611d29565b600073ffffffffffffffffffffffffffffffffffffffff168173ffffffffffffffffffffffffffffffffffffffff1603611d1d576040517f08c379a0000000000000000000000000000000000000000000000000000000008152600401611d14906134e4565b60405180910390fd5b611d2681611eb3565b50565b611d3161224a565b73ffffffffffffffffffffffffffffffffffffffff16611d4f61119f565b73ffffffffffffffffffffffffffffffffffffffff1614611da5576040517f08c379a0000000000000000000000000000000000000000000000000000000008152600401611d9c90613550565b60405180910390fd5b565b60008263ffffffff168263ffffffff161115611dc65760009050611dd5565b8183611dd29190613570565b90505b92915050565b6000826fffffffffffffffffffffffffffffffff16826fffffffffffffffffffffffffffffffff161115611e125760009050611e21565b8183611e1e91906135a8565b90505b92915050565b60008082840190508363ffffffff168163ffffffff161015611e505763ffffffff915050611e55565b809150505b92915050565b6000808284019050836fffffffffffffffffffffffffffffffff16816fffffffffffffffffffffffffffffffff161015611ea8576fffffffffffffffffffffffffffffffff915050611ead565b809150505b92915050565b60008060009054906101000a900473ffffffffffffffffffffffffffffffffffffffff169050816000806101000a81548173ffffffffffffffffffffffffffffffffffffffff021916908373ffffffffffffffffffffffffffffffffffffffff1602179055508173ffffffffffffffffffffffffffffffffffffffff168173ffffffffffffffffffffffffffffffffffffffff167f8be0079c531659141344cd1fd0a4f28419497f9722a3daafe3b4186f6b6457e060405160405180910390a35050565b60008760ff1603611fbd576040517f08c379a0000000000000000000000000000000000000000000000000000000008152600401611fb490613638565b60405180910390fd5b6040518061016001604052808b73ffffffffffffffffffffffffffffffffffffffff1681526020018a81526020018960ff1681526020018860ff1681526020018761ffff1681526020018661ffff1681526020018561ffff1681526020018461ffff1681526020018361ffff16815260200182151581526020018d8d8080601f016020809104026020016040519081016040528093929190818152602001838380828437600081840152601f19601f82011690508083019250505050505050815250600260003373ffffffffffffffffffffffffffffffffffffffff1673ffffffffffffffffffffffffffffffffffffffff16815260200190815260200160002060008201518160000160006101000a81548173ffffffffffffffffffffffffffffffffffffffff021916908373ffffffffffffffffffffffffffffffffffffffff1602179055506020820151816001015560408201518160020160006101000a81548160ff021916908360ff16021790555060608201518160020160016101000a81548160ff021916908360ff16021790555060808201518160020160026101000a81548161ffff021916908361ffff16021790555060a08201518160020160046101000a81548161ffff021916908361ffff16021790555060c08201518160020160066101000a81548161ffff021916908361ffff16021790555060e08201518160020160086101000a81548161ffff021916908361ffff16021790555061010082015181600201600a6101000a81548161ffff021916908361ffff16021790555061012082015181600201600c6101000a81548160ff02191690831515021790555061014082015181600301908161223891906137fa565b50905050505050505050505050505050565b600033905090565b604051806060016040528060006fffffffffffffffffffffffffffffffff16815260200160006fffffffffffffffffffffffffffffffff1681526020016122976123cc565b81525090565b82600860070160089004810192821561232f5791602002820160005b838211156122fd57835183826101000a81548163ffffffff021916908363ffffffff16021790555092602001926004016020816003010492830192600103026122b9565b801561232d5782816101000a81549063ffffffff02191690556004016020816003010492830192600103026122fd565b505b50905061233c91906123ef565b5090565b604051806101600160405280600073ffffffffffffffffffffffffffffffffffffffff16815260200160008152602001600060ff168152602001600060ff168152602001600061ffff168152602001600061ffff168152602001600061ffff168152602001600061ffff168152602001600061ffff168152602001600015158152602001606081525090565b604051806101000160405280600890602082028036833780820191505090505090565b5b808211156124085760008160009055506001016123f0565b5090565b600073ffffffffffffffffffffffffffffffffffffffff82169050919050565b6000819050919050565b600061245161244c6124478461240c565b61242c565b61240c565b9050919050565b600061246382612436565b9050919050565b600061247582612458565b9050919050565b6124858161246a565b82525050565b60006020820190506124a0600083018461247c565b92915050565b6000604051905090565b600080fd5b600080fd5b60006124c58261240c565b9050919050565b6124d5816124ba565b81146124e057600080fd5b50565b6000813590506124f2816124cc565b92915050565b60006020828403121561250e5761250d6124b0565b5b600061251c848285016124e3565b91505092915050565b60008115159050919050565b61253a81612525565b82525050565b60006020820190506125556000830184612531565b92915050565b60006fffffffffffffffffffffffffffffffff82169050919050565b6125808161255b565b82525050565b600060089050919050565b600081905092915050565b6000819050919050565b600063ffffffff82169050919050565b6125bf816125a6565b82525050565b60006125d183836125b6565b60208301905092915050565b6000602082019050919050565b6125f381612586565b6125fd8184612591565b92506126088261259c565b8060005b8381101561263957815161262087826125c5565b965061262b836125dd565b92505060018101905061260c565b505050505050565b610140820160008201516126586000850182612577565b50602082015161266b6020850182612577565b50604082015161267e60408501826125ea565b50505050565b60006101408201905061269a6000830184612641565b92915050565b600080fd5b6000601f19601f8301169050919050565b7f4e487b7100000000000000000000000000000000000000000000000000000000600052604160045260246000fd5b6126ee826126a5565b810181811067ffffffffffffffff8211171561270d5761270c6126b6565b5b80604052505050565b60006127206124a6565b905061272c82826126e5565b919050565b6009811061273e57600080fd5b50565b60008135905061275081612731565b92915050565b600061ffff82169050919050565b61276d81612756565b811461277857600080fd5b50565b60008135905061278a81612764565b92915050565b6000606082840312156127a6576127a56126a0565b5b6127b06060612716565b905060006127c084828501612741565b60008301525060206127d48482850161277b565b60208301525060406127e88482850161277b565b60408301525092915050565b600080600060a0848603121561280d5761280c6124b0565b5b600061281b868287016124e3565b935050602061282c868287016124e3565b925050604061283d86828701612790565b9150509250925092565b600080fd5b600080fd5b600080fd5b60008083601f84011261286c5761286b612847565b5b8235905067ffffffffffffffff8111156128895761288861284c565b5b6020830191508360018202830111156128a5576128a4612851565b5b9250929050565b6000819050919050565b6128bf816128ac565b81146128ca57600080fd5b50565b6000813590506128dc816128b6565b92915050565b600060ff82169050919050565b6128f8816128e2565b811461290357600080fd5b50565b600081359050612915816128ef565b92915050565b60008060008060008060008060008060006101408c8e031215612941576129406124b0565b5b60008c013567ffffffffffffffff81111561295f5761295e6124b5565b5b61296b8e828f01612856565b9b509b5050602061297e8e828f016124e3565b995050604061298f8e828f016128cd565b98505060606129a08e828f01612906565b97505060806129b18e828f01612906565b96505060a06129c28e828f0161277b565b95505060c06129d38e828f0161277b565b94505060e06129e48e828f0161277b565b9350506101006129f68e828f0161277b565b925050610120612a088e828f0161277b565b9150509295989b509295989b9093969950565b612a24816124ba565b82525050565b6000602082019050612a3f6000830184612a1b565b92915050565b612a4e816124ba565b82525050565b612a5d816128ac565b82525050565b612a6c816128e2565b82525050565b612a7b81612756565b82525050565b612a8a81612525565b82525050565b600081519050919050565b600082825260208201905092915050565b60005b83811015612aca578082015181840152602081019050612aaf565b60008484015250505050565b6000612ae182612a90565b612aeb8185612a9b565b9350612afb818560208601612aac565b612b04816126a5565b840191505092915050565b600061016083016000830151612b286000860182612a45565b506020830151612b3b6020860182612a54565b506040830151612b4e6040860182612a63565b506060830151612b616060860182612a63565b506080830151612b746080860182612a72565b5060a0830151612b8760a0860182612a72565b5060c0830151612b9a60c0860182612a72565b5060e0830151612bad60e0860182612a72565b50610100830151612bc2610100860182612a72565b50610120830151612bd7610120860182612a81565b50610140830151848203610140860152612bf18282612ad6565b9150508091505092915050565b60006020820190508181036000830152612c188184612b0f565b905092915050565b612c2981612525565b8114612c3457600080fd5b50565b600081359050612c4681612c20565b92915050565b600060208284031215612c6257612c616124b0565b5b6000612c7084828501612c37565b91505092915050565b600082825260208201905092915050565b7f50726f66696c65206e6f7420666f756e64000000000000000000000000000000600082015250565b6000612cc0601183612c79565b9150612ccb82612c8a565b602082019050919050565b60006020820190508181036000830152612cef81612cb3565b9050919050565b7f50726f66696c6520756e617661696c61626c6500000000000000000000000000600082015250565b6000612d2c601383612c79565b9150612d3782612cf6565b602082019050919050565b60006020820190508181036000830152612d5b81612d1f565b9050919050565b6000612d6d826124ba565b9050919050565b612d7d81612d62565b8114612d8857600080fd5b50565b600081519050612d9a81612d74565b92915050565b600060208284031215612db657612db56124b0565b5b6000612dc484828501612d8b565b91505092915050565b7f4e487b7100000000000000000000000000000000000000000000000000000000600052602160045260246000fd5b612e0581612756565b82525050565b6000602082019050612e206000830184612dfc565b92915050565b7f4e487b7100000000000000000000000000000000000000000000000000000000600052603260045260246000fd5b7f596f75722070726f66696c6520616c7265616479206578697374730000000000600082015250565b6000612e8b601b83612c79565b9150612e9682612e55565b602082019050919050565b60006020820190508181036000830152612eba81612e7e565b9050919050565b600081519050612ed0816128b6565b92915050565b600060208284031215612eec57612eeb6124b0565b5b6000612efa84828501612ec1565b91505092915050565b612f0c816128ac565b82525050565b6000604082019050612f276000830185612a1b565b612f346020830184612f03565b9392505050565b6000602082019050612f506000830184612f03565b92915050565b600081519050612f6581612731565b92915050565b600081519050612f7a81612764565b92915050565b600060608284031215612f9657612f956126a0565b5b612fa06060612716565b90506000612fb084828501612f56565b6000830152506020612fc484828501612f6b565b6020830152506040612fd884828501612f6b565b60408301525092915050565b600060608284031215612ffa57612ff96124b0565b5b600061300884828501612f80565b91505092915050565b7f4e487b7100000000000000000000000000000000000000000000000000000000600052601160045260246000fd5b600061304b826125a6565b915063ffffffff820361306157613060613011565b5b600182019050919050565b60006130778261255b565b91506130828361255b565b925082820190506fffffffffffffffffffffffffffffffff8111156130aa576130a9613011565b5b92915050565b60006130bb826128ac565b91507fffffffffffffffffffffffffffffffffffffffffffffffffffffffffffffffff82036130ed576130ec613011565b5b600182019050919050565b7f4e487b7100000000000000000000000000000000000000000000000000000000600052602260045260246000fd5b6000600282049050600182168061313f57607f821691505b602082108103613152576131516130f8565b5b50919050565b600060608201905061316d6000830186612a1b565b61317a6020830185612f03565b6131876040830184612a1b565b949350505050565b60008151905061319e81612c20565b92915050565b6000602082840312156131ba576131b96124b0565b5b60006131c88482850161318f565b91505092915050565b60006131dc826124ba565b9050919050565b6131ec816131d1565b81146131f757600080fd5b50565b600081519050613209816131e3565b92915050565b600060208284031215613225576132246124b0565b5b6000613233848285016131fa565b91505092915050565b600061325761325261324d846128e2565b61242c565b6128ac565b9050919050565b6132678161323c565b82525050565b60006060820190506132826000830186612a1b565b61328f602083018561325e565b61329c6040830184612a1b565b949350505050565b6000819050919050565b60006132c96132c46132bf846132a4565b61242c565b6128e2565b9050919050565b6132d9816132ae565b82525050565b60006040820190506132f46000830185612a1b565b61330160208301846132d0565b9392505050565b600067ffffffffffffffff821115613323576133226126b6565b5b602082029050602081019050919050565b600061334761334284613308565b612716565b9050808382526020820190506020840283018581111561336a57613369612851565b5b835b81811015613393578061337f8882612ec1565b84526020840193505060208101905061336c565b5050509392505050565b600082601f8301126133b2576133b1612847565b5b81516133c2848260208601613334565b91505092915050565b6000602082840312156133e1576133e06124b0565b5b600082015167ffffffffffffffff8111156133ff576133fe6124b5565b5b61340b8482850161339d565b91505092915050565b600061341f826128e2565b915061342a836128e2565b9250828201905060ff81111561344357613442613011565b5b92915050565b6000613454826128e2565b915060ff820361346757613466613011565b5b600182019050919050565b7f4f776e61626c653a206e6577206f776e657220697320746865207a65726f206160008201527f6464726573730000000000000000000000000000000000000000000000000000602082015250565b60006134ce602683612c79565b91506134d982613472565b604082019050919050565b600060208201905081810360008301526134fd816134c1565b9050919050565b7f4f776e61626c653a2063616c6c6572206973206e6f7420746865206f776e6572600082015250565b600061353a602083612c79565b915061354582613504565b602082019050919050565b600060208201905081810360008301526135698161352d565b9050919050565b600061357b826125a6565b9150613586836125a6565b9250828203905063ffffffff8111156135a2576135a1613011565b5b92915050565b60006135b38261255b565b91506135be8361255b565b925082820390506fffffffffffffffffffffffffffffffff8111156135e6576135e5613011565b5b92915050565b7f496e76616c6964207374796c6500000000000000000000000000000000000000600082015250565b6000613622600d83612c79565b915061362d826135ec565b602082019050919050565b6000602082019050818103600083015261365181613615565b9050919050565b60008190508160005260206000209050919050565b60006020601f8301049050919050565b600082821b905092915050565b6000600883026136ba7fffffffffffffffffffffffffffffffffffffffffffffffffffffffffffffffff8261367d565b6136c4868361367d565b95508019841693508086168417925050509392505050565b60006136f76136f26136ed846128ac565b61242c565b6128ac565b9050919050565b6000819050919050565b613711836136dc565b61372561371d826136fe565b84845461368a565b825550505050565b600090565b61373a61372d565b613745818484613708565b505050565b5b818110156137695761375e600082613732565b60018101905061374b565b5050565b601f8211156137ae5761377f81613658565b6137888461366d565b81016020851015613797578190505b6137ab6137a38561366d565b83018261374a565b50505b505050565b600082821c905092915050565b60006137d1600019846008026137b3565b1980831691505092915050565b60006137ea83836137c0565b9150826002028217905092915050565b61380382612a90565b67ffffffffffffffff81111561381c5761381b6126b6565b5b6138268254613127565b61383182828561376d565b600060209050601f8311600181146138645760008415613852578287015190505b61385c85826137de565b8655506138c4565b601f19841661387286613658565b60005b8281101561389a57848901518255600182019150602085019450602081019050613875565b868310156138b757848901516138b3601f8916826137c0565b8355505b6001600288020188555050505b50505050505056fea264697066735822122025de34bd344a73324d6dcd3e556ec57b5b0abcf7806939eb31ee82ec07783dbf64736f6c63430008100033",
  "immutableReferences": {},
  "source": "// SPDX-License-Identifier: MIT\n//\n//    \n//             \n//              \n//              \n//              \n//          \n//        \n//      \n//\n// https://endlesscrawler.io\n// @EndlessCrawler\n//\n/// @title Endless Crawler Player Profile and Stash Manager\n/// @author Studio Avante\n/// @notice Creates and maintain Player profile and stash\n/// @dev Serves CrawlerToken.sol, depends on ICrawlerToken (chambers tokens)\n//\npragma solidity ^0.8.16;\nimport { Ownable } from '@openzeppelin/contracts/access/Ownable.sol';\nimport { ERC165Checker } from '@openzeppelin/contracts/utils/introspection/ERC165Checker.sol';\nimport { ICrawlerToken } from './ICrawlerToken.sol';\nimport { ICrawlerQuery } from './ICrawlerQuery.sol';\nimport { Crawl } from './Crawl.sol';\n\ncontract CrawlerPlayer is Ownable {\n\n\tICrawlerQuery public _query;\n\n\tstruct Profile {\n\t\taddress pfpContract;\n\t\tuint256 pfpId;\n\t\tuint8 classId;\n\t\tuint8 style;\n\t\tuint16 value1;\n\t\tuint16 value2;\n\t\tuint16 value3;\n\t\tuint16 value4;\n\t\tuint16 value5;\n\t\tbool hidden;\n\t\tstring name;\n\t}\n\n\tstruct Stash {\n\t\tuint128 coins;\n\t\tuint128 worth;\n\t\tuint32[8] gems;\n\t}\n\n\tmapping(address => Profile) private _profiles;\n\tmapping(address => Stash) private _stash;\n\n\tevent CreatedProfile(address indexed player);\n\tevent UpdatedProfile(address indexed player);\n\n\tevent Give(address indexed to, Crawl.Gem indexed gem, uint16 indexed coins, uint16 worth);\n\tevent Take(address indexed from, Crawl.Gem indexed gem, uint16 indexed coins, uint16 worth);\n\n\t/// @dev modifier to test profile existence, reverts if it does not\n\tmodifier ifExists(address player) {\n\t\trequire(_profiles[player].style != 0, 'Profile not found');\n\t\trequire(!_profiles[player].hidden || msg.sender == player, 'Profile unavailable');\n\t\t_;\n\t}\n\n\t//---------------\n\t// Admin\n\t//\n\n\t/// @notice Admin function\n\tfunction setQueryContract(address queryContract_) public onlyOwner {\n\t\t_query = ICrawlerQuery(queryContract_);\n\t}\n\n\t//---------------\n\t// Public\n\t//\n\n\t/// @notice Check if a player has a public profile\n\t/// @param player The Player wallet address\n\t/// @return result True if the Player has a public profile, False if not, or profile is not public\n\tfunction playerHasProfile(address player) public view returns (bool) {\n\t\treturn (_profiles[player].style != 0 && (!_profiles[player].hidden || msg.sender == player));\n\t}\n\n\t/// @notice Returns a Player public profile\n\t/// @param player The Player wallet address\n\t/// @return result Profile struct\n\t/// PFP and Class id will return empty if player does not own\n\t/// reverts if Player has no profile or profile is not public\n\tfunction getPlayerProfile(address player) public view ifExists(player) returns (Profile memory result) {\n\t\tresult = _profiles[player];\n\t\t// Check PFP ownership\n\t\tif(!_query.isOwner(result.pfpContract, result.pfpId, player)) {\n\t\t\tresult.pfpContract = address(0);\n\t\t\tresult.pfpId = 0;\n\t\t}\n\t\t// Check class ownership\n\t\tif(result.classId != 0 && !_query.isOwner(address(_query.getCardsContract()), result.classId, player)) {\n\t\t\tresult.classId = 0;\n\t\t}\n\t\t// Get class from owned cards\n\t\tif(result.classId == 0) {\n\t\t\tuint256[] memory cards = _query.getOwnedCards(player, 1);\n\t\t\tfor(uint8 i = 0 ; i < cards.length ; ++i) {\n\t\t\t\tif(cards[i] > 0) {\n\t\t\t\t\tresult.classId = i + 1;\n\t\t\t\t\tbreak;\n\t\t\t\t}\n\t\t\t}\n\t\t}\n\t}\n\n\t/// @notice Returns a Player Stash\n\t/// @param player The Player wallet address\n\t/// @return result Stash struct, reverts if Player has no profile or profile is not public\n\tfunction getPlayerStash(address player) public view ifExists(player) returns (Stash memory) {\n\t\treturn _stash[player];\n\t}\n\n\t/// @notice Creates a public profile and stash for the sender wallet, reverts if Player already have a profile\n\t/// @param name Display name\n\t/// @param pfpContract The PFP contract address, or address(0) if no PFP\n\t/// @param pfpId The PFP token id, ownership will be validated by getPlayerProfile()\n\t/// @param classId Class token id to be used, from CardsMinter, ownership will be validated by getPlayerProfile()\n\t/// @param style The PFP style, reverts if 0\n\t/// @param value1 Reserved for styling and customization\n\t/// @param value2 Reserved for styling and customization\n\t/// @param value3 Reserved for styling and customization\n\t/// @param value4 Reserved for styling and customization\n\t/// @param value5 Reserved for styling and customization\n\tfunction createProfile(\n\t\tstring calldata name,\n\t\taddress pfpContract,\n\t\tuint256 pfpId,\n\t\tuint8 classId,\n\t\tuint8 style,\n\t\tuint16 value1,\n\t\tuint16 value2,\n\t\tuint16 value3,\n\t\tuint16 value4,\n\t\tuint16 value5)\n\tpublic {\n\t\t// create new profile\n\t\trequire(_profiles[msg.sender].style == 0, 'Your profile already exists');\n\t\t_updateProfile(name, pfpContract, pfpId, classId, style, value1, value2, value3, value4, value5, false);\n\n\t\t// Create stash from player's Crawler tokens\n\t\tICrawlerToken chambers = _query.getChambersContract();\n\t\tStash memory stash;\n\t\tfor(uint256 i = 0 ; i < chambers.balanceOf(msg.sender) ; ++i) {\n\t\t\tuint256 tokenId = chambers.tokenOfOwnerByIndex(msg.sender, i);\n\t\t\tCrawl.Hoard memory hoard = chambers.tokenIdToHoard(tokenId);\n\t\t\tstash.gems[uint8(hoard.gemType)]++;\n\t\t\tstash.coins += hoard.coins;\n\t\t\tstash.worth += hoard.worth;\n\t\t}\n\n\t\t_stash[msg.sender] = stash;\n\n\t\temit CreatedProfile(msg.sender);\n\t}\n\n\t/// @notice Updates a public profile for the sender wallet, reverts if Player does not have a profile\n\t/// @param name Display name\n\t/// @param pfpContract The PFP contract address, or address(0) if no PFP\n\t/// @param pfpId The PFP token id, ownership will be validated by getPlayerProfile()\n\t/// @param classId Class token id to be used, from CardsMinter, ownership will be validated by getPlayerProfile()\n\t/// @param style The PFP style, reverts if 0\n\t/// @param value1 Reserved for styling and customization\n\t/// @param value2 Reserved for styling and customization\n\t/// @param value3 Reserved for styling and customization\n\t/// @param value4 Reserved for styling and customization\n\t/// @param value5 Reserved for styling and customization\n\tfunction updateProfile(\n\t\tstring calldata name,\n\t\taddress pfpContract,\n\t\tuint256 pfpId,\n\t\tuint8 classId,\n\t\tuint8 style,\n\t\tuint16 value1,\n\t\tuint16 value2,\n\t\tuint16 value3,\n\t\tuint16 value4,\n\t\tuint16 value5)\n\tpublic ifExists(msg.sender) {\n\t\t_updateProfile(name, pfpContract, pfpId, classId, style, value1, value2, value3, value4, value5, _profiles[msg.sender].hidden);\n\t\temit UpdatedProfile(msg.sender);\n\t}\n\n\t/// @dev internal profile updater\n\tfunction _updateProfile(\n\t\tstring calldata name,\n\t\taddress pfpContract,\n\t\tuint256 pfpId,\n\t\tuint8 classId,\n\t\tuint8 style,\n\t\tuint16 value1,\n\t\tuint16 value2,\n\t\tuint16 value3,\n\t\tuint16 value4,\n\t\tuint16 value5,\n\t\tbool hidden\n\t)\n\tinternal {\n\t\trequire(style != 0, 'Invalid style');\n\t\t_profiles[msg.sender] = Profile(\n\t\t\tpfpContract,\n\t\t\tpfpId,\n\t\t\tclassId,\n\t\t\tstyle,\n\t\t\tvalue1,\n\t\t\tvalue2,\n\t\t\tvalue3,\n\t\t\tvalue4,\n\t\t\tvalue5,\n\t\t\thidden,\n\t\t\tname\n\t\t);\n\t}\n\n\t/// @notice Updates the profile visibility for the sender wallet, reverts if Player does not have a profile\n\t/// @param hidden True to hide, profile will be kept private, False if profile is public\n\tfunction hideProfile(bool hidden) public ifExists(msg.sender) {\n\t\t_profiles[msg.sender].hidden = hidden;\n\t}\n\n\t//---------------\n\t// Crawler only\n\t//\n\n\t/// @notice Transfer a Chamber's Hoard to another wallet, works only if called by CrawlerToken contract\n\tfunction transferChamberHoard(address from, address to, Crawl.Hoard memory hoard) public {\n\t\tif(address(_query) != address(0) && msg.sender == address(_query.getChambersContract())) {\n\t\t\t// Take from\n\t\t\temit Take(from, hoard.gemType, hoard.coins, hoard.worth);\n\t\t\tif(_profiles[from].style != 0) {\n\t\t\t\tStash storage stash = _stash[from];\n\t\t\t\tstash.gems[uint8(hoard.gemType)] = safe_sub32(stash.gems[uint8(hoard.gemType)], 1);\n\t\t\t\tstash.coins = safe_sub128(stash.coins, hoard.coins);\n\t\t\t\tstash.worth = safe_sub128(stash.worth, hoard.worth);\n\t\t\t}\n\t\t\t// Give to\n\t\t\temit Give(to, hoard.gemType, hoard.coins, hoard.worth);\n\t\t\tif(_profiles[to].style != 0) {\n\t\t\t\tStash storage stash = _stash[to];\n\t\t\t\tstash.gems[uint8(hoard.gemType)] = safe_add32(stash.gems[uint8(hoard.gemType)], 1);\n\t\t\t\tstash.coins = safe_add128(stash.coins, hoard.coins);\n\t\t\t\tstash.worth = safe_add128(stash.worth, hoard.worth);\n\t\t\t}\n\t\t}\n\t}\n\n\t/// @dev overflows should not happen, but just to be safe and avoid reverting transfers...\n\tfunction safe_add128(uint128 a, uint128 b) internal pure returns (uint128) {\n\t\tunchecked {\n\t\t\tuint128 c = a + b;\n\t\t\tif (c < a) return type(uint128).max;\n\t\t\treturn c;\n\t\t}\n\t}\n\tfunction safe_add32(uint32 a, uint32 b) internal pure returns (uint32) {\n\t\tunchecked {\n\t\t\tuint32 c = a + b;\n\t\t\tif (c < a) return type(uint32).max;\n\t\t\treturn c;\n\t\t}\n\t}\n\tfunction safe_sub128(uint128 a, uint128 b) internal pure returns (uint128) {\n\t\tif (b > a) return 0;\n\t\treturn a - b;\n\t}\n\tfunction safe_sub32(uint32 a, uint32 b) internal pure returns (uint32) {\n\t\tif (b > a) return 0;\n\t\treturn a - b;\n\t}\n\n}\n",
  "sourcePath": "/Users/roger/Dev/Blockchain/Truffle/ec-crawler/contracts/CrawlerPlayer.sol",
  "compiler": {
    "name": "solc",
    "version": "0.8.16+commit.07a7930e.Emscripten.clang"
  },
  "schemaVersion": "3.4.11",
  "updatedAt": "2022-12-05T06:28:01.972Z",
  "networkType": "ethereum",
  "devdoc": {
    "kind": "dev",
    "methods": {
      "createProfile(string,address,uint256,uint8,uint8,uint16,uint16,uint16,uint16,uint16)": {
        "params": {
          "classId": "Class token id to be used, from CardsMinter, ownership will be validated by getPlayerProfile()",
          "name": "Display name",
          "pfpContract": "The PFP contract address, or address(0) if no PFP",
          "pfpId": "The PFP token id, ownership will be validated by getPlayerProfile()",
          "style": "The PFP style, reverts if 0",
          "value1": "Reserved for styling and customization",
          "value2": "Reserved for styling and customization",
          "value3": "Reserved for styling and customization",
          "value4": "Reserved for styling and customization",
          "value5": "Reserved for styling and customization"
        }
      },
      "getPlayerProfile(address)": {
        "params": {
          "player": "The Player wallet address"
        },
        "returns": {
          "result": "Profile struct PFP and Class id will return empty if player does not own reverts if Player has no profile or profile is not public"
        }
      },
      "getPlayerStash(address)": {
        "params": {
          "player": "The Player wallet address"
        },
        "returns": {
          "_0": "result Stash struct, reverts if Player has no profile or profile is not public"
        }
      },
      "hideProfile(bool)": {
        "params": {
          "hidden": "True to hide, profile will be kept private, False if profile is public"
        }
      },
      "owner()": {
        "details": "Returns the address of the current owner."
      },
      "playerHasProfile(address)": {
        "params": {
          "player": "The Player wallet address"
        },
        "returns": {
          "_0": "result True if the Player has a public profile, False if not, or profile is not public"
        }
      },
      "renounceOwnership()": {
        "details": "Leaves the contract without owner. It will not be possible to call `onlyOwner` functions anymore. Can only be called by the current owner. NOTE: Renouncing ownership will leave the contract without an owner, thereby removing any functionality that is only available to the owner."
      },
      "transferOwnership(address)": {
        "details": "Transfers ownership of the contract to a new account (`newOwner`). Can only be called by the current owner."
      },
      "updateProfile(string,address,uint256,uint8,uint8,uint16,uint16,uint16,uint16,uint16)": {
        "params": {
          "classId": "Class token id to be used, from CardsMinter, ownership will be validated by getPlayerProfile()",
          "name": "Display name",
          "pfpContract": "The PFP contract address, or address(0) if no PFP",
          "pfpId": "The PFP token id, ownership will be validated by getPlayerProfile()",
          "style": "The PFP style, reverts if 0",
          "value1": "Reserved for styling and customization",
          "value2": "Reserved for styling and customization",
          "value3": "Reserved for styling and customization",
          "value4": "Reserved for styling and customization",
          "value5": "Reserved for styling and customization"
        }
      }
    },
    "version": 1
  },
  "userdoc": {
    "kind": "user",
    "methods": {
      "createProfile(string,address,uint256,uint8,uint8,uint16,uint16,uint16,uint16,uint16)": {
        "notice": "Creates a public profile and stash for the sender wallet, reverts if Player already have a profile"
      },
      "getPlayerProfile(address)": {
        "notice": "Returns a Player public profile"
      },
      "getPlayerStash(address)": {
        "notice": "Returns a Player Stash"
      },
      "hideProfile(bool)": {
        "notice": "Updates the profile visibility for the sender wallet, reverts if Player does not have a profile"
      },
      "playerHasProfile(address)": {
        "notice": "Check if a player has a public profile"
      },
      "setQueryContract(address)": {
        "notice": "Admin function"
      },
      "transferChamberHoard(address,address,(uint8,uint16,uint16))": {
        "notice": "Transfer a Chamber's Hoard to another wallet, works only if called by CrawlerToken contract"
      },
      "updateProfile(string,address,uint256,uint8,uint8,uint16,uint16,uint16,uint16,uint16)": {
        "notice": "Updates a public profile for the sender wallet, reverts if Player does not have a profile"
      }
    },
    "version": 1
  }
}