{
  "contractName": "CrawlerRendererV1",
  "abi": [
    {
      "inputs": [],
      "stateMutability": "nonpayable",
      "type": "constructor"
    },
    {
      "inputs": [],
      "name": "contractChapterNumber",
      "outputs": [
        {
          "internalType": "uint8",
          "name": "",
          "type": "uint8"
        }
      ],
      "stateMutability": "view",
      "type": "function"
    },
    {
      "inputs": [],
      "name": "contractName",
      "outputs": [
        {
          "internalType": "string",
          "name": "",
          "type": "string"
        }
      ],
      "stateMutability": "view",
      "type": "function"
    },
    {
      "inputs": [],
      "name": "contractVersion",
      "outputs": [
        {
          "internalType": "uint8",
          "name": "",
          "type": "uint8"
        }
      ],
      "stateMutability": "view",
      "type": "function"
    },
    {
      "inputs": [
        {
          "internalType": "bytes4",
          "name": "interfaceId",
          "type": "bytes4"
        }
      ],
      "name": "supportsInterface",
      "outputs": [
        {
          "internalType": "bool",
          "name": "",
          "type": "bool"
        }
      ],
      "stateMutability": "view",
      "type": "function"
    },
    {
      "inputs": [
        {
          "components": [
            {
              "internalType": "uint256",
              "name": "coord",
              "type": "uint256"
            },
            {
              "internalType": "uint256",
              "name": "tokenId",
              "type": "uint256"
            },
            {
              "internalType": "uint256",
              "name": "seed",
              "type": "uint256"
            },
            {
              "internalType": "uint232",
              "name": "yonder",
              "type": "uint232"
            },
            {
              "internalType": "uint8",
              "name": "chapter",
              "type": "uint8"
            },
            {
              "internalType": "enum Crawl.Terrain",
              "name": "terrain",
              "type": "uint8"
            },
            {
              "internalType": "enum Crawl.Dir",
              "name": "entryDir",
              "type": "uint8"
            },
            {
              "components": [
                {
                  "internalType": "enum Crawl.Gem",
                  "name": "gemType",
                  "type": "uint8"
                },
                {
                  "internalType": "uint16",
                  "name": "coins",
                  "type": "uint16"
                },
                {
                  "internalType": "uint16",
                  "name": "worth",
                  "type": "uint16"
                }
              ],
              "internalType": "struct Crawl.Hoard",
              "name": "hoard",
              "type": "tuple"
            },
            {
              "internalType": "uint8",
              "name": "gemPos",
              "type": "uint8"
            },
            {
              "internalType": "uint8[4]",
              "name": "doors",
              "type": "uint8[4]"
            },
            {
              "internalType": "uint8[4]",
              "name": "locks",
              "type": "uint8[4]"
            },
            {
              "internalType": "uint256",
              "name": "bitmap",
              "type": "uint256"
            },
            {
              "internalType": "bytes",
              "name": "tilemap",
              "type": "bytes"
            },
            {
              "components": [
                {
                  "internalType": "enum Crawl.CustomDataType",
                  "name": "dataType",
                  "type": "uint8"
                },
                {
                  "internalType": "bytes",
                  "name": "data",
                  "type": "bytes"
                }
              ],
              "internalType": "struct Crawl.CustomData[]",
              "name": "customData",
              "type": "tuple[]"
            }
          ],
          "internalType": "struct Crawl.ChamberData",
          "name": "chamber",
          "type": "tuple"
        },
        {
          "internalType": "contract ICrawlerMapper",
          "name": "mapper",
          "type": "address"
        }
      ],
      "name": "renderAdditionalChamberMetadata",
      "outputs": [
        {
          "internalType": "string",
          "name": "",
          "type": "string"
        }
      ],
      "stateMutability": "view",
      "type": "function"
    },
    {
      "inputs": [
        {
          "components": [
            {
              "internalType": "uint256",
              "name": "coord",
              "type": "uint256"
            },
            {
              "internalType": "uint256",
              "name": "tokenId",
              "type": "uint256"
            },
            {
              "internalType": "uint256",
              "name": "seed",
              "type": "uint256"
            },
            {
              "internalType": "uint232",
              "name": "yonder",
              "type": "uint232"
            },
            {
              "internalType": "uint8",
              "name": "chapter",
              "type": "uint8"
            },
            {
              "internalType": "enum Crawl.Terrain",
              "name": "terrain",
              "type": "uint8"
            },
            {
              "internalType": "enum Crawl.Dir",
              "name": "entryDir",
              "type": "uint8"
            },
            {
              "components": [
                {
                  "internalType": "enum Crawl.Gem",
                  "name": "gemType",
                  "type": "uint8"
                },
                {
                  "internalType": "uint16",
                  "name": "coins",
                  "type": "uint16"
                },
                {
                  "internalType": "uint16",
                  "name": "worth",
                  "type": "uint16"
                }
              ],
              "internalType": "struct Crawl.Hoard",
              "name": "hoard",
              "type": "tuple"
            },
            {
              "internalType": "uint8",
              "name": "gemPos",
              "type": "uint8"
            },
            {
              "internalType": "uint8[4]",
              "name": "doors",
              "type": "uint8[4]"
            },
            {
              "internalType": "uint8[4]",
              "name": "locks",
              "type": "uint8[4]"
            },
            {
              "internalType": "uint256",
              "name": "bitmap",
              "type": "uint256"
            },
            {
              "internalType": "bytes",
              "name": "tilemap",
              "type": "bytes"
            },
            {
              "components": [
                {
                  "internalType": "enum Crawl.CustomDataType",
                  "name": "dataType",
                  "type": "uint8"
                },
                {
                  "internalType": "bytes",
                  "name": "data",
                  "type": "bytes"
                }
              ],
              "internalType": "struct Crawl.CustomData[]",
              "name": "customData",
              "type": "tuple[]"
            }
          ],
          "internalType": "struct Crawl.ChamberData",
          "name": "chamber",
          "type": "tuple"
        },
        {
          "internalType": "contract ICrawlerMapper",
          "name": "mapper",
          "type": "address"
        }
      ],
      "name": "renderMapMetadata",
      "outputs": [
        {
          "internalType": "string",
          "name": "",
          "type": "string"
        }
      ],
      "stateMutability": "view",
      "type": "function"
    },
    {
      "inputs": [
        {
          "components": [
            {
              "internalType": "uint256",
              "name": "coord",
              "type": "uint256"
            },
            {
              "internalType": "uint256",
              "name": "tokenId",
              "type": "uint256"
            },
            {
              "internalType": "uint256",
              "name": "seed",
              "type": "uint256"
            },
            {
              "internalType": "uint232",
              "name": "yonder",
              "type": "uint232"
            },
            {
              "internalType": "uint8",
              "name": "chapter",
              "type": "uint8"
            },
            {
              "internalType": "enum Crawl.Terrain",
              "name": "terrain",
              "type": "uint8"
            },
            {
              "internalType": "enum Crawl.Dir",
              "name": "entryDir",
              "type": "uint8"
            },
            {
              "components": [
                {
                  "internalType": "enum Crawl.Gem",
                  "name": "gemType",
                  "type": "uint8"
                },
                {
                  "internalType": "uint16",
                  "name": "coins",
                  "type": "uint16"
                },
                {
                  "internalType": "uint16",
                  "name": "worth",
                  "type": "uint16"
                }
              ],
              "internalType": "struct Crawl.Hoard",
              "name": "hoard",
              "type": "tuple"
            },
            {
              "internalType": "uint8",
              "name": "gemPos",
              "type": "uint8"
            },
            {
              "internalType": "uint8[4]",
              "name": "doors",
              "type": "uint8[4]"
            },
            {
              "internalType": "uint8[4]",
              "name": "locks",
              "type": "uint8[4]"
            },
            {
              "internalType": "uint256",
              "name": "bitmap",
              "type": "uint256"
            },
            {
              "internalType": "bytes",
              "name": "tilemap",
              "type": "bytes"
            },
            {
              "components": [
                {
                  "internalType": "enum Crawl.CustomDataType",
                  "name": "dataType",
                  "type": "uint8"
                },
                {
                  "internalType": "bytes",
                  "name": "data",
                  "type": "bytes"
                }
              ],
              "internalType": "struct Crawl.CustomData[]",
              "name": "customData",
              "type": "tuple[]"
            }
          ],
          "internalType": "struct Crawl.ChamberData",
          "name": "chamber",
          "type": "tuple"
        },
        {
          "internalType": "contract ICrawlerMapper",
          "name": "mapper",
          "type": "address"
        }
      ],
      "name": "renderTokenMetadata",
      "outputs": [
        {
          "internalType": "string",
          "name": "",
          "type": "string"
        }
      ],
      "stateMutability": "view",
      "type": "function"
    },
    {
      "inputs": [
        {
          "components": [
            {
              "internalType": "uint256",
              "name": "coord",
              "type": "uint256"
            },
            {
              "internalType": "uint256",
              "name": "tokenId",
              "type": "uint256"
            },
            {
              "internalType": "uint256",
              "name": "seed",
              "type": "uint256"
            },
            {
              "internalType": "uint232",
              "name": "yonder",
              "type": "uint232"
            },
            {
              "internalType": "uint8",
              "name": "chapter",
              "type": "uint8"
            },
            {
              "internalType": "enum Crawl.Terrain",
              "name": "terrain",
              "type": "uint8"
            },
            {
              "internalType": "enum Crawl.Dir",
              "name": "entryDir",
              "type": "uint8"
            },
            {
              "components": [
                {
                  "internalType": "enum Crawl.Gem",
                  "name": "gemType",
                  "type": "uint8"
                },
                {
                  "internalType": "uint16",
                  "name": "coins",
                  "type": "uint16"
                },
                {
                  "internalType": "uint16",
                  "name": "worth",
                  "type": "uint16"
                }
              ],
              "internalType": "struct Crawl.Hoard",
              "name": "hoard",
              "type": "tuple"
            },
            {
              "internalType": "uint8",
              "name": "gemPos",
              "type": "uint8"
            },
            {
              "internalType": "uint8[4]",
              "name": "doors",
              "type": "uint8[4]"
            },
            {
              "internalType": "uint8[4]",
              "name": "locks",
              "type": "uint8[4]"
            },
            {
              "internalType": "uint256",
              "name": "bitmap",
              "type": "uint256"
            },
            {
              "internalType": "bytes",
              "name": "tilemap",
              "type": "bytes"
            },
            {
              "components": [
                {
                  "internalType": "enum Crawl.CustomDataType",
                  "name": "dataType",
                  "type": "uint8"
                },
                {
                  "internalType": "bytes",
                  "name": "data",
                  "type": "bytes"
                }
              ],
              "internalType": "struct Crawl.CustomData[]",
              "name": "customData",
              "type": "tuple[]"
            }
          ],
          "internalType": "struct Crawl.ChamberData",
          "name": "chamber",
          "type": "tuple"
        },
        {
          "internalType": "contract ICrawlerMapper",
          "name": "mapper",
          "type": "address"
        }
      ],
      "name": "getColors",
      "outputs": [
        {
          "internalType": "string[]",
          "name": "result",
          "type": "string[]"
        }
      ],
      "stateMutability": "view",
      "type": "function"
    },
    {
      "inputs": [
        {
          "components": [
            {
              "internalType": "uint256",
              "name": "coord",
              "type": "uint256"
            },
            {
              "internalType": "uint256",
              "name": "tokenId",
              "type": "uint256"
            },
            {
              "internalType": "uint256",
              "name": "seed",
              "type": "uint256"
            },
            {
              "internalType": "uint232",
              "name": "yonder",
              "type": "uint232"
            },
            {
              "internalType": "uint8",
              "name": "chapter",
              "type": "uint8"
            },
            {
              "internalType": "enum Crawl.Terrain",
              "name": "terrain",
              "type": "uint8"
            },
            {
              "internalType": "enum Crawl.Dir",
              "name": "entryDir",
              "type": "uint8"
            },
            {
              "components": [
                {
                  "internalType": "enum Crawl.Gem",
                  "name": "gemType",
                  "type": "uint8"
                },
                {
                  "internalType": "uint16",
                  "name": "coins",
                  "type": "uint16"
                },
                {
                  "internalType": "uint16",
                  "name": "worth",
                  "type": "uint16"
                }
              ],
              "internalType": "struct Crawl.Hoard",
              "name": "hoard",
              "type": "tuple"
            },
            {
              "internalType": "uint8",
              "name": "gemPos",
              "type": "uint8"
            },
            {
              "internalType": "uint8[4]",
              "name": "doors",
              "type": "uint8[4]"
            },
            {
              "internalType": "uint8[4]",
              "name": "locks",
              "type": "uint8[4]"
            },
            {
              "internalType": "uint256",
              "name": "bitmap",
              "type": "uint256"
            },
            {
              "internalType": "bytes",
              "name": "tilemap",
              "type": "bytes"
            },
            {
              "components": [
                {
                  "internalType": "enum Crawl.CustomDataType",
                  "name": "dataType",
                  "type": "uint8"
                },
                {
                  "internalType": "bytes",
                  "name": "data",
                  "type": "bytes"
                }
              ],
              "internalType": "struct Crawl.CustomData[]",
              "name": "customData",
              "type": "tuple[]"
            }
          ],
          "internalType": "struct Crawl.ChamberData",
          "name": "chamber",
          "type": "tuple"
        },
        {
          "internalType": "contract ICrawlerMapper",
          "name": "mapper",
          "type": "address"
        }
      ],
      "name": "renderSvgStyles",
      "outputs": [
        {
          "internalType": "string",
          "name": "",
          "type": "string"
        }
      ],
      "stateMutability": "view",
      "type": "function"
    },
    {
      "inputs": [
        {
          "components": [
            {
              "internalType": "uint256",
              "name": "coord",
              "type": "uint256"
            },
            {
              "internalType": "uint256",
              "name": "tokenId",
              "type": "uint256"
            },
            {
              "internalType": "uint256",
              "name": "seed",
              "type": "uint256"
            },
            {
              "internalType": "uint232",
              "name": "yonder",
              "type": "uint232"
            },
            {
              "internalType": "uint8",
              "name": "chapter",
              "type": "uint8"
            },
            {
              "internalType": "enum Crawl.Terrain",
              "name": "terrain",
              "type": "uint8"
            },
            {
              "internalType": "enum Crawl.Dir",
              "name": "entryDir",
              "type": "uint8"
            },
            {
              "components": [
                {
                  "internalType": "enum Crawl.Gem",
                  "name": "gemType",
                  "type": "uint8"
                },
                {
                  "internalType": "uint16",
                  "name": "coins",
                  "type": "uint16"
                },
                {
                  "internalType": "uint16",
                  "name": "worth",
                  "type": "uint16"
                }
              ],
              "internalType": "struct Crawl.Hoard",
              "name": "hoard",
              "type": "tuple"
            },
            {
              "internalType": "uint8",
              "name": "gemPos",
              "type": "uint8"
            },
            {
              "internalType": "uint8[4]",
              "name": "doors",
              "type": "uint8[4]"
            },
            {
              "internalType": "uint8[4]",
              "name": "locks",
              "type": "uint8[4]"
            },
            {
              "internalType": "uint256",
              "name": "bitmap",
              "type": "uint256"
            },
            {
              "internalType": "bytes",
              "name": "tilemap",
              "type": "bytes"
            },
            {
              "components": [
                {
                  "internalType": "enum Crawl.CustomDataType",
                  "name": "dataType",
                  "type": "uint8"
                },
                {
                  "internalType": "bytes",
                  "name": "data",
                  "type": "bytes"
                }
              ],
              "internalType": "struct Crawl.CustomData[]",
              "name": "customData",
              "type": "tuple[]"
            }
          ],
          "internalType": "struct Crawl.ChamberData",
          "name": "chamber",
          "type": "tuple"
        },
        {
          "internalType": "contract ICrawlerMapper",
          "name": "mapper",
          "type": "address"
        }
      ],
      "name": "renderSvgDefs",
      "outputs": [
        {
          "internalType": "string",
          "name": "",
          "type": "string"
        }
      ],
      "stateMutability": "view",
      "type": "function"
    },
    {
      "inputs": [
        {
          "components": [
            {
              "internalType": "uint256",
              "name": "coord",
              "type": "uint256"
            },
            {
              "internalType": "uint256",
              "name": "tokenId",
              "type": "uint256"
            },
            {
              "internalType": "uint256",
              "name": "seed",
              "type": "uint256"
            },
            {
              "internalType": "uint232",
              "name": "yonder",
              "type": "uint232"
            },
            {
              "internalType": "uint8",
              "name": "chapter",
              "type": "uint8"
            },
            {
              "internalType": "enum Crawl.Terrain",
              "name": "terrain",
              "type": "uint8"
            },
            {
              "internalType": "enum Crawl.Dir",
              "name": "entryDir",
              "type": "uint8"
            },
            {
              "components": [
                {
                  "internalType": "enum Crawl.Gem",
                  "name": "gemType",
                  "type": "uint8"
                },
                {
                  "internalType": "uint16",
                  "name": "coins",
                  "type": "uint16"
                },
                {
                  "internalType": "uint16",
                  "name": "worth",
                  "type": "uint16"
                }
              ],
              "internalType": "struct Crawl.Hoard",
              "name": "hoard",
              "type": "tuple"
            },
            {
              "internalType": "uint8",
              "name": "gemPos",
              "type": "uint8"
            },
            {
              "internalType": "uint8[4]",
              "name": "doors",
              "type": "uint8[4]"
            },
            {
              "internalType": "uint8[4]",
              "name": "locks",
              "type": "uint8[4]"
            },
            {
              "internalType": "uint256",
              "name": "bitmap",
              "type": "uint256"
            },
            {
              "internalType": "bytes",
              "name": "tilemap",
              "type": "bytes"
            },
            {
              "components": [
                {
                  "internalType": "enum Crawl.CustomDataType",
                  "name": "dataType",
                  "type": "uint8"
                },
                {
                  "internalType": "bytes",
                  "name": "data",
                  "type": "bytes"
                }
              ],
              "internalType": "struct Crawl.CustomData[]",
              "name": "customData",
              "type": "tuple[]"
            }
          ],
          "internalType": "struct Crawl.ChamberData",
          "name": "",
          "type": "tuple"
        },
        {
          "internalType": "contract ICrawlerMapper",
          "name": "",
          "type": "address"
        }
      ],
      "name": "renderBackground",
      "outputs": [
        {
          "internalType": "string",
          "name": "",
          "type": "string"
        }
      ],
      "stateMutability": "view",
      "type": "function"
    }
  ],
  "bytecode": "0x60806040523480156200001157600080fd5b506200005b6040518060400160405280600881526020017f52656e64657265720000000000000000000000000000000000000000000000008152506001806200006160201b60201c565b6200040e565b826001908162000072919062000327565b50816000806101000a81548160ff021916908360ff16021790555080600060016101000a81548160ff021916908360ff160217905550505050565b600081519050919050565b7f4e487b7100000000000000000000000000000000000000000000000000000000600052604160045260246000fd5b7f4e487b7100000000000000000000000000000000000000000000000000000000600052602260045260246000fd5b600060028204905060018216806200012f57607f821691505b602082108103620001455762000144620000e7565b5b50919050565b60008190508160005260206000209050919050565b60006020601f8301049050919050565b600082821b905092915050565b600060088302620001af7fffffffffffffffffffffffffffffffffffffffffffffffffffffffffffffffff8262000170565b620001bb868362000170565b95508019841693508086168417925050509392505050565b6000819050919050565b6000819050919050565b60006200020862000202620001fc84620001d3565b620001dd565b620001d3565b9050919050565b6000819050919050565b6200022483620001e7565b6200023c62000233826200020f565b8484546200017d565b825550505050565b600090565b6200025362000244565b6200026081848462000219565b505050565b5b8181101562000288576200027c60008262000249565b60018101905062000266565b5050565b601f821115620002d757620002a1816200014b565b620002ac8462000160565b81016020851015620002bc578190505b620002d4620002cb8562000160565b83018262000265565b50505b505050565b600082821c905092915050565b6000620002fc60001984600802620002dc565b1980831691505092915050565b6000620003178383620002e9565b9150826002028217905092915050565b6200033282620000ad565b67ffffffffffffffff8111156200034e576200034d620000b8565b5b6200035a825462000116565b620003678282856200028c565b600060209050601f8311600181146200039f57600084156200038a578287015190505b62000396858262000309565b86555062000406565b601f198416620003af866200014b565b60005b82811015620003d957848901518255600182019150602085019450602081019050620003b2565b86831015620003f95784890151620003f5601f891682620002e9565b8355505b6001600288020188555050505b505050505050565b615376806200041e6000396000f3fe608060405234801561001057600080fd5b50600436106100a95760003560e01c806373d6f4f31161007157806373d6f4f31461018c57806375d0c0dc146101bc578063a0a8e460146101da578063b542a7c5146101f8578063e83b78d814610228578063f4d792ac14610258576100a9565b806301ffc9a7146100ae578063123ff138146100de5780633d29d6e31461010e5780635c322f261461013e5780635d1a5d181461015c575b600080fd5b6100c860048036038101906100c39190611b8b565b610288565b6040516100d59190611bd3565b60405180910390f35b6100f860048036038101906100f3919061232d565b610302565b6040516101059190612408565b60405180910390f35b6101286004803603810190610123919061232d565b61038b565b6040516101359190612408565b60405180910390f35b61014661068e565b6040516101539190612439565b60405180910390f35b6101766004803603810190610171919061232d565b6106f5565b6040516101839190612560565b60405180910390f35b6101a660048036038101906101a1919061232d565b610921565b6040516101b39190612408565b60405180910390f35b6101c46109aa565b6040516101d19190612408565b60405180910390f35b6101e2610a8d565b6040516101ef9190612439565b60405180910390f35b610212600480360381019061020d919061232d565b610af8565b60405161021f9190612408565b60405180910390f35b610242600480360381019061023d919061232d565b6110f0565b60405161024f9190612408565b60405180910390f35b610272600480360381019061026d919061232d565b611104565b60405161027f9190612408565b60405180910390f35b60007f605009fe000000000000000000000000000000000000000000000000000000007bffffffffffffffffffffffffffffffffffffffffffffffffffffffff1916827bffffffffffffffffffffffffffffffffffffffffffffffffffffffff191614806102fb57506102fa8261111e565b5b9050919050565b60608173ffffffffffffffffffffffffffffffffffffffff1663dbedeb3e846040518263ffffffff1660e01b815260040161033d9190612a74565b600060405180830381865afa15801561035a573d6000803e3d6000fd5b505050506040513d6000823e3d601f19601f820116820180604052508101906103839190612b37565b905092915050565b606061010083610180015151146103d7576040517f08c379a00000000000000000000000000000000000000000000000000000000081526004016103ce90612bcc565b60405180910390fd5b60006103e384846106f5565b905060058151101561042a576040517f08c379a000000000000000000000000000000000000000000000000000000000815260040161042190612c38565b60405180910390fd5b73__Crawl_________________________________6363e1cbea856040015160206040518363ffffffff1660e01b8152600401610468929190612cac565b600060405180830381865af4158015610485573d6000803e3d6000fd5b505050506040513d6000823e3d601f19601f820116820180604052508101906104ae9190612b37565b6104bc856101800151611198565b82600060ff16815181106104d3576104d2612cd5565b5b602002602001015183600160ff16815181106104f2576104f1612cd5565b5b602002602001015184600260ff168151811061051157610510612cd5565b5b602002602001015185600360ff16815181106105305761052f612cd5565b5b602002602001015186600460ff168151811061054f5761054e612cd5565b5b60200260200101518973ffffffffffffffffffffffffffffffffffffffff1663372108188c60e00151600001516040518263ffffffff1660e01b81526004016105989190612d13565b600060405180830381865afa1580156105b5573d6000803e3d6000fd5b505050506040513d6000823e3d601f19601f820116820180604052508101906105de9190612b37565b8a73ffffffffffffffffffffffffffffffffffffffff16633721081860086040518263ffffffff1660e01b81526004016106189190612d13565b600060405180830381865afa158015610635573d6000803e3d6000fd5b505050506040513d6000823e3d601f19601f8201168201806040525081019061065e9190612b37565b60405160200161067699989796959493929190612f32565b60405160208183030381529060405291505092915050565b60008060008054906101000a900460ff1660ff16036106e2576040517f08c379a00000000000000000000000000000000000000000000000000000000081526004016106d9906130b5565b60405180910390fd5b60008054906101000a900460ff16905090565b60608173ffffffffffffffffffffffffffffffffffffffff1663f319922a8460a001516040518263ffffffff1660e01b815260040161073491906130e4565b600060405180830381865afa158015610751573d6000803e3d6000fd5b505050506040513d6000823e3d601f19601f8201168201806040525081019061077a91906131e0565b905060005b836101a001515181101561091a57600b600f8111156107a1576107a06125af565b5b846101a0015182815181106107b9576107b8612cd5565b5b602002602001015160000151600f8111156107d7576107d66125af565b5b036109095760005b6003856101a0015183815181106107f9576107f8612cd5565b5b602002602001015160200151516108109190613287565b8110801561081e5750825181105b156109035773__Crawl_________________________________63afdf4e1c866101a00151848151811061085557610854612cd5565b5b60200260200101516020015160038461086e91906132b8565b60036040518463ffffffff1660e01b815260040161088e93929190613397565b600060405180830381865af41580156108ab573d6000803e3d6000fd5b505050506040513d6000823e3d601f19601f820116820180604052508101906108d49190612b37565b8382815181106108e7576108e6612cd5565b5b6020026020010181905250806108fc906133d5565b90506107df565b5061091a565b80610913906133d5565b905061077f565b5092915050565b60608173ffffffffffffffffffffffffffffffffffffffff1663bb912809846040518263ffffffff1660e01b815260040161095c9190612a74565b600060405180830381865afa158015610979573d6000803e3d6000fd5b505050506040513d6000823e3d601f19601f820116820180604052508101906109a29190612b37565b905092915050565b60606000600180546109bb9061344c565b9050116109fd576040517f08c379a00000000000000000000000000000000000000000000000000000000081526004016109f4906130b5565b60405180910390fd5b60018054610a0a9061344c565b80601f0160208091040260200160405190810160405280929190818152602001828054610a369061344c565b8015610a835780601f10610a5857610100808354040283529160200191610a83565b820191906000526020600020905b815481529060010190602001808311610a6657829003601f168201915b5050505050905090565b600080600060019054906101000a900460ff1660ff1603610ae3576040517f08c379a0000000000000000000000000000000000000000000000000000000008152600401610ada906130b5565b60405180910390fd5b600060019054906101000a900460ff16905090565b60606101008361018001515114610b44576040517f08c379a0000000000000000000000000000000000000000000000000000000008152600401610b3b90612bcc565b60405180910390fd5b6000610b5084846106f5565b9050600581511015610b97576040517f08c379a0000000000000000000000000000000000000000000000000000000008152600401610b8e90612c38565b60405180910390fd5b600081600060ff1681518110610bb057610baf612cd5565b5b602002602001015182600160ff1681518110610bcf57610bce612cd5565b5b602002602001015183600260ff1681518110610bee57610bed612cd5565b5b602002602001015184600360ff1681518110610c0d57610c0c612cd5565b5b602002602001015185600460ff1681518110610c2c57610c2b612cd5565b5b60200260200101518873ffffffffffffffffffffffffffffffffffffffff1663372108188b60e00151600001516040518263ffffffff1660e01b8152600401610c759190612d13565b600060405180830381865afa158015610c92573d6000803e3d6000fd5b505050506040513d6000823e3d601f19601f82011682018060405250810190610cbb9190612b37565b604051602001610cd096959493929190613587565b6040516020818303038152906040529050600081610cee8787610921565b610cf88888610302565b610d0289896112fb565b610d0f8a602001516116a9565b73__Crawl_________________________________6373f05b9f8c600001518d606001516040518363ffffffff1660e01b8152600401610d509291906136d6565b600060405180830381865af4158015610d6d573d6000803e3d6000fd5b505050506040513d6000823e3d601f19601f82011682018060405250810190610d969190612b37565b604051602001610dab96959493929190613b3a565b60405160208183030381529060405290506000610dcb87602001516116a9565b84600060ff1681518110610de257610de1612cd5565b5b6020026020010151610df48989611104565b84604051602001610e089493929190614348565b6040516020818303038152906040529050600073__Crawl_________________________________6373f05b9f896000015160006040518363ffffffff1660e01b8152600401610e59929190614417565b600060405180830381865af4158015610e76573d6000803e3d6000fd5b505050506040513d6000823e3d601f19601f82011682018060405250810190610e9f9190612b37565b604051602001610eaf91906144c5565b60405160208183030381529060405290506000808873ffffffffffffffffffffffffffffffffffffffff1663333285918b6040518263ffffffff1660e01b8152600401610efc9190612a74565b600060405180830381865afa158015610f19573d6000803e3d6000fd5b505050506040513d6000823e3d601f19601f82011682018060405250810190610f4291906144e7565b91509150600073__Crawl_________________________________63261650e6610f6f8d602001516116a9565b6040518263ffffffff1660e01b8152600401610f8b9190614598565b600060405180830381865af4158015610fa8573d6000803e3d6000fd5b505050506040513d6000823e3d601f19601f82011682018060405250810190610fd19190612b37565b610fde8c602001516116a9565b85868b600060ff1681518110610ff757610ff6612cd5565b5b602002602001015173__Crawl_________________________________6359af1b4789896040518363ffffffff1660e01b815260040161103892919061469e565b600060405180830381865af4158015611055573d6000803e3d6000fd5b505050506040513d6000823e3d601f19601f8201168201806040525081019061107e9190612b37565b6110878c611198565b6110908c611198565b6040516020016110a798979695949392919061490f565b60405160208183030381529060405290506110c181611198565b6040516020016110d19190614a22565b6040516020818303038152906040529850505050505050505092915050565b60606110fc8383611777565b905092915050565b606060405180602001604052806000815250905092915050565b60007f894a0b9a000000000000000000000000000000000000000000000000000000007bffffffffffffffffffffffffffffffffffffffffffffffffffffffff1916827bffffffffffffffffffffffffffffffffffffffffffffffffffffffff19161480611191575061119082611949565b5b9050919050565b606060008251036111ba576040518060200160405280600081525090506112f6565b600060405180606001604052806040815260200161530160409139905060006003600285516111e99190614a48565b6111f39190613287565b60046111ff91906132b8565b67ffffffffffffffff81111561121857611217611c04565b5b6040519080825280601f01601f19166020018201604052801561124a5781602001600182028036833780820191505090505b509050600182016020820185865187015b808210156112b6576003820191508151603f8160121c168501518453600184019350603f81600c1c168501518453600184019350603f8160061c168501518453600184019350603f811685015184536001840193505061125b565b50506003865106600181146112d257600281146112e5576112ed565b603d6001830353603d60028303536112ed565b603d60018303535b50505080925050505b919050565b60608060608060008060005b6101008110156116775760006010826113209190614a7c565b905060006010836113319190613287565b905060008b6101800151848151811061134d5761134c612cd5565b5b602001015160f81c60f81b905060ff60f81b7effffffffffffffffffffffffffffffffffffffffffffffffffffffffffffff1916817effffffffffffffffffffffffffffffffffffffffffffffffffffffffffffff1916036113c457600085036113b5578295505b84806113c0906133d5565b9550505b60ff60f81b7effffffffffffffffffffffffffffffffffffffffffffffffffffffffffffff1916817effffffffffffffffffffffffffffffffffffffffffffffffffffffffffffff191614158061141b5750600f83145b80156114275750600085115b156114715788611436876116a9565b61143f846116a9565b611448886116a9565b60405160200161145b9493929190614b45565b6040516020818303038152906040529850600094505b60ff60f81b7effffffffffffffffffffffffffffffffffffffffffffffffffffffffffffff1916817effffffffffffffffffffffffffffffffffffffffffffffffffffffffffffff1916141580156115115750600060f81b7effffffffffffffffffffffffffffffffffffffffffffffffffffffffffffff1916817effffffffffffffffffffffffffffffffffffffffffffffffffffffffffffff191614155b1561166357878b73ffffffffffffffffffffffffffffffffffffffff16635a4e066b83876040518363ffffffff1660e01b8152600401611552929190614bfa565b600060405180830381865afa15801561156f573d6000803e3d6000fd5b505050506040513d6000823e3d601f19601f820116820180604052508101906115989190612b37565b6115a1856116a9565b6115aa856116a9565b6115b98560f81c60ff166116a9565b6040516020016115cd959493929190614cbb565b6040516020818303038152906040529750600160f81b7effffffffffffffffffffffffffffffffffffffffffffffffffffffffffffff1916817effffffffffffffffffffffffffffffffffffffffffffffffffffffffffffff19160361166257611636836116a9565b61163f836116a9565b604051602001611650929190614d9d565b60405160208183030381529060405296505b5b50505080611670906133d5565b9050611307565b5084838560405160200161168d93929190614eac565b6040516020818303038152906040529550505050505092915050565b6060600060016116b8846119b3565b01905060008167ffffffffffffffff8111156116d7576116d6611c04565b5b6040519080825280601f01601f1916602001820160405280156117095781602001600182028036833780820191505090505b509050600082602001820190505b60011561176c578080600190039150507f3031323334353637383961626364656600000000000000000000000000000000600a86061a8153600a85816117605761175f613229565b5b04945060008503611717575b819350505050919050565b606060006117ba6117b56117ad86606001517cffffffffffffffffffffffffffffffffffffffffffffffffffffffffff166116a9565b516003611b06565b6116a9565b905061192181828573ffffffffffffffffffffffffffffffffffffffff166368b78b7a8860a0015160016040518363ffffffff1660e01b8152600401611801929190614f15565b600060405180830381865afa15801561181e573d6000803e3d6000fd5b505050506040513d6000823e3d601f19601f820116820180604052508101906118479190612b37565b8673ffffffffffffffffffffffffffffffffffffffff166368b78b7a8960a0015160026040518363ffffffff1660e01b8152600401611887929190614f15565b600060405180830381865afa1580156118a4573d6000803e3d6000fd5b505050506040513d6000823e3d601f19601f820116820180604052508101906118cd9190612b37565b6118f989606001517cffffffffffffffffffffffffffffffffffffffffffffffffffffffffff166116a9565b60405160200161190d95949392919061519e565b604051602081830303815290604052611198565b60405160200161193191906152cf565b60405160208183030381529060405291505092915050565b60007f01ffc9a7000000000000000000000000000000000000000000000000000000007bffffffffffffffffffffffffffffffffffffffffffffffffffffffff1916827bffffffffffffffffffffffffffffffffffffffffffffffffffffffff1916149050919050565b600080600090507a184f03e93ff9f4daa797ed6e38ed64bf6a1f0100000000000000008310611a11577a184f03e93ff9f4daa797ed6e38ed64bf6a1f0100000000000000008381611a0757611a06613229565b5b0492506040810190505b6d04ee2d6d415b85acef81000000008310611a4e576d04ee2d6d415b85acef81000000008381611a4457611a43613229565b5b0492506020810190505b662386f26fc100008310611a7d57662386f26fc100008381611a7357611a72613229565b5b0492506010810190505b6305f5e1008310611aa6576305f5e1008381611a9c57611a9b613229565b5b0492506008810190505b6127108310611acb576127108381611ac157611ac0613229565b5b0492506004810190505b60648310611aee5760648381611ae457611ae3613229565b5b0492506002810190505b600a8310611afd576001810190505b80915050919050565b6000818311611b155781611b17565b825b905092915050565b6000604051905090565b600080fd5b600080fd5b60007fffffffff0000000000000000000000000000000000000000000000000000000082169050919050565b611b6881611b33565b8114611b7357600080fd5b50565b600081359050611b8581611b5f565b92915050565b600060208284031215611ba157611ba0611b29565b5b6000611baf84828501611b76565b91505092915050565b60008115159050919050565b611bcd81611bb8565b82525050565b6000602082019050611be86000830184611bc4565b92915050565b600080fd5b6000601f19601f8301169050919050565b7f4e487b7100000000000000000000000000000000000000000000000000000000600052604160045260246000fd5b611c3c82611bf3565b810181811067ffffffffffffffff82111715611c5b57611c5a611c04565b5b80604052505050565b6000611c6e611b1f565b9050611c7a8282611c33565b919050565b600080fd5b6000819050919050565b611c9781611c84565b8114611ca257600080fd5b50565b600081359050611cb481611c8e565b92915050565b60007cffffffffffffffffffffffffffffffffffffffffffffffffffffffffff82169050919050565b611cec81611cba565b8114611cf757600080fd5b50565b600081359050611d0981611ce3565b92915050565b600060ff82169050919050565b611d2581611d0f565b8114611d3057600080fd5b50565b600081359050611d4281611d1c565b92915050565b60058110611d5557600080fd5b50565b600081359050611d6781611d48565b92915050565b60048110611d7a57600080fd5b50565b600081359050611d8c81611d6d565b92915050565b60098110611d9f57600080fd5b50565b600081359050611db181611d92565b92915050565b600061ffff82169050919050565b611dce81611db7565b8114611dd957600080fd5b50565b600081359050611deb81611dc5565b92915050565b600060608284031215611e0757611e06611bee565b5b611e116060611c64565b90506000611e2184828501611da2565b6000830152506020611e3584828501611ddc565b6020830152506040611e4984828501611ddc565b60408301525092915050565b600080fd5b600067ffffffffffffffff821115611e7557611e74611c04565b5b602082029050919050565b600080fd5b6000611e98611e9384611e5a565b611c64565b90508060208402830185811115611eb257611eb1611e80565b5b835b81811015611edb5780611ec78882611d33565b845260208401935050602081019050611eb4565b5050509392505050565b600082601f830112611efa57611ef9611e55565b5b6004611f07848285611e85565b91505092915050565b600080fd5b600067ffffffffffffffff821115611f3057611f2f611c04565b5b611f3982611bf3565b9050602081019050919050565b82818337600083830152505050565b6000611f68611f6384611f15565b611c64565b905082815260208101848484011115611f8457611f83611f10565b5b611f8f848285611f46565b509392505050565b600082601f830112611fac57611fab611e55565b5b8135611fbc848260208601611f55565b91505092915050565b600067ffffffffffffffff821115611fe057611fdf611c04565b5b602082029050602081019050919050565b60108110611ffe57600080fd5b50565b60008135905061201081611ff1565b92915050565b60006040828403121561202c5761202b611bee565b5b6120366040611c64565b9050600061204684828501612001565b600083015250602082013567ffffffffffffffff81111561206a57612069611c7f565b5b61207684828501611f97565b60208301525092915050565b600061209561209084611fc5565b611c64565b905080838252602082019050602084028301858111156120b8576120b7611e80565b5b835b818110156120ff57803567ffffffffffffffff8111156120dd576120dc611e55565b5b8086016120ea8982612016565b855260208501945050506020810190506120ba565b5050509392505050565b600082601f83011261211e5761211d611e55565b5b813561212e848260208601612082565b91505092915050565b60006102c0828403121561214e5761214d611bee565b5b6121596101c0611c64565b9050600061216984828501611ca5565b600083015250602061217d84828501611ca5565b602083015250604061219184828501611ca5565b60408301525060606121a584828501611cfa565b60608301525060806121b984828501611d33565b60808301525060a06121cd84828501611d58565b60a08301525060c06121e184828501611d7d565b60c08301525060e06121f584828501611df1565b60e08301525061014061220a84828501611d33565b6101008301525061016061222084828501611ee5565b610120830152506101e061223684828501611ee5565b6101408301525061026061224c84828501611ca5565b6101608301525061028082013567ffffffffffffffff81111561227257612271611c7f565b5b61227e84828501611f97565b610180830152506102a082013567ffffffffffffffff8111156122a4576122a3611c7f565b5b6122b084828501612109565b6101a08301525092915050565b600073ffffffffffffffffffffffffffffffffffffffff82169050919050565b60006122e8826122bd565b9050919050565b60006122fa826122dd565b9050919050565b61230a816122ef565b811461231557600080fd5b50565b60008135905061232781612301565b92915050565b6000806040838503121561234457612343611b29565b5b600083013567ffffffffffffffff81111561236257612361611b2e565b5b61236e85828601612137565b925050602061237f85828601612318565b9150509250929050565b600081519050919050565b600082825260208201905092915050565b60005b838110156123c35780820151818401526020810190506123a8565b60008484015250505050565b60006123da82612389565b6123e48185612394565b93506123f48185602086016123a5565b6123fd81611bf3565b840191505092915050565b6000602082019050818103600083015261242281846123cf565b905092915050565b61243381611d0f565b82525050565b600060208201905061244e600083018461242a565b92915050565b600081519050919050565b600082825260208201905092915050565b6000819050602082019050919050565b600082825260208201905092915050565b600061249c82612389565b6124a68185612480565b93506124b68185602086016123a5565b6124bf81611bf3565b840191505092915050565b60006124d68383612491565b905092915050565b6000602082019050919050565b60006124f682612454565b612500818561245f565b93508360208202850161251285612470565b8060005b8581101561254e578484038952815161252f85826124ca565b945061253a836124de565b925060208a01995050600181019050612516565b50829750879550505050505092915050565b6000602082019050818103600083015261257a81846124eb565b905092915050565b61258b81611c84565b82525050565b61259a81611cba565b82525050565b6125a981611d0f565b82525050565b7f4e487b7100000000000000000000000000000000000000000000000000000000600052602160045260246000fd5b600581106125ef576125ee6125af565b5b50565b6000819050612600826125de565b919050565b6000612610826125f2565b9050919050565b61262081612605565b82525050565b60048110612637576126366125af565b5b50565b600081905061264882612626565b919050565b60006126588261263a565b9050919050565b6126688161264d565b82525050565b6009811061267f5761267e6125af565b5b50565b60008190506126908261266e565b919050565b60006126a082612682565b9050919050565b6126b081612695565b82525050565b6126bf81611db7565b82525050565b6060820160008201516126db60008501826126a7565b5060208201516126ee60208501826126b6565b50604082015161270160408501826126b6565b50505050565b600060049050919050565b600081905092915050565b6000819050919050565b600061273383836125a0565b60208301905092915050565b6000602082019050919050565b61275581612707565b61275f8184612712565b925061276a8261271d565b8060005b8381101561279b5781516127828782612727565b965061278d8361273f565b92505060018101905061276e565b505050505050565b600081519050919050565b600082825260208201905092915050565b60006127ca826127a3565b6127d481856127ae565b93506127e48185602086016123a5565b6127ed81611bf3565b840191505092915050565b600081519050919050565b600082825260208201905092915050565b6000819050602082019050919050565b60108110612835576128346125af565b5b50565b600081905061284682612824565b919050565b600061285682612838565b9050919050565b6128668161284b565b82525050565b6000604083016000830151612884600086018261285d565b506020830151848203602086015261289c82826127bf565b9150508091505092915050565b60006128b5838361286c565b905092915050565b6000602082019050919050565b60006128d5826127f8565b6128df8185612803565b9350836020820285016128f185612814565b8060005b8581101561292d578484038952815161290e85826128a9565b9450612919836128bd565b925060208a019950506001810190506128f5565b50829750879550505050505092915050565b60006102c0830160008301516129586000860182612582565b50602083015161296b6020860182612582565b50604083015161297e6040860182612582565b5060608301516129916060860182612591565b5060808301516129a460808601826125a0565b5060a08301516129b760a0860182612617565b5060c08301516129ca60c086018261265f565b5060e08301516129dd60e08601826126c5565b506101008301516129f26101408601826125a0565b50610120830151612a0761016086018261274c565b50610140830151612a1c6101e086018261274c565b50610160830151612a31610260860182612582565b50610180830151848203610280860152612a4b82826127bf565b9150506101a08301518482036102a0860152612a6782826128ca565b9150508091505092915050565b60006020820190508181036000830152612a8e818461293f565b905092915050565b600067ffffffffffffffff821115612ab157612ab0611c04565b5b612aba82611bf3565b9050602081019050919050565b6000612ada612ad584612a96565b611c64565b905082815260208101848484011115612af657612af5611f10565b5b612b018482856123a5565b509392505050565b600082601f830112612b1e57612b1d611e55565b5b8151612b2e848260208601612ac7565b91505092915050565b600060208284031215612b4d57612b4c611b29565b5b600082015167ffffffffffffffff811115612b6b57612b6a611b2e565b5b612b7784828501612b09565b91505092915050565b7f4261642074696c656d6170000000000000000000000000000000000000000000600082015250565b6000612bb6600b83612394565b9150612bc182612b80565b602082019050919050565b60006020820190508181036000830152612be581612ba9565b9050919050565b7f496e636f6d706c65746520636f6c6f722070616c657474650000000000000000600082015250565b6000612c22601883612394565b9150612c2d82612bec565b602082019050919050565b60006020820190508181036000830152612c5181612c15565b9050919050565b612c6181611c84565b82525050565b6000819050919050565b6000819050919050565b6000612c96612c91612c8c84612c67565b612c71565b611c84565b9050919050565b612ca681612c7b565b82525050565b6000604082019050612cc16000830185612c58565b612cce6020830184612c9d565b9392505050565b7f4e487b7100000000000000000000000000000000000000000000000000000000600052603260045260246000fd5b612d0d81612695565b82525050565b6000602082019050612d286000830184612d04565b92915050565b7f7b2273656564223a220000000000000000000000000000000000000000000000815250565b600081905092915050565b6000612d6a82612389565b612d748185612d54565b9350612d848185602086016123a5565b80840191505092915050565b7f222c2274696c656d6170223a22646174613a6170706c69636174696f6e2f6f6360008201527f7465742d73747265616d3b6261736536342c0000000000000000000000000000602082015250565b6000612dec603283612d54565b9150612df782612d90565b603282019050919050565b7f222c22636f6c6f7273223a7b226261636b67726f756e64223a22000000000000815250565b7f222c2270617468223a2200000000000000000000000000000000000000000000815250565b7f222c2274696c6573223a22000000000000000000000000000000000000000000815250565b7f222c22736861646f7773223a2200000000000000000000000000000000000000815250565b7f222c22706c61796572223a220000000000000000000000000000000000000000815250565b7f222c2267656d223a220000000000000000000000000000000000000000000000815250565b7f222c22636f696e223a2200000000000000000000000000000000000000000000815250565b7f227d7d0000000000000000000000000000000000000000000000000000000000815250565b6000612f3d82612d2e565b600982019150612f4d828c612d5f565b9150612f5882612ddf565b9150612f64828b612d5f565b9150612f6f82612e02565b601a82019150612f7f828a612d5f565b9150612f8a82612e28565b600a82019150612f9a8289612d5f565b9150612fa582612e4e565b600b82019150612fb58288612d5f565b9150612fc082612e74565b600d82019150612fd08287612d5f565b9150612fdb82612e9a565b600c82019150612feb8286612d5f565b9150612ff682612ec0565b6009820191506130068285612d5f565b915061301182612ee6565b600a820191506130218284612d5f565b915061302c82612f0c565b6003820191508190509a9950505050505050505050565b7f437261776c6572436f6e74726163743a20436f6e7472616374206e6f7420736560008201527f7475700000000000000000000000000000000000000000000000000000000000602082015250565b600061309f602383612394565b91506130aa82613043565b604082019050919050565b600060208201905081810360008301526130ce81613092565b9050919050565b6130de81612605565b82525050565b60006020820190506130f960008301846130d5565b92915050565b600067ffffffffffffffff82111561311a57613119611c04565b5b602082029050602081019050919050565b600061313e613139846130ff565b611c64565b9050808382526020820190506020840283018581111561316157613160611e80565b5b835b818110156131a857805167ffffffffffffffff81111561318657613185611e55565b5b8086016131938982612b09565b85526020850194505050602081019050613163565b5050509392505050565b600082601f8301126131c7576131c6611e55565b5b81516131d784826020860161312b565b91505092915050565b6000602082840312156131f6576131f5611b29565b5b600082015167ffffffffffffffff81111561321457613213611b2e565b5b613220848285016131b2565b91505092915050565b7f4e487b7100000000000000000000000000000000000000000000000000000000600052601260045260246000fd5b7f4e487b7100000000000000000000000000000000000000000000000000000000600052601160045260246000fd5b600061329282611c84565b915061329d83611c84565b9250826132ad576132ac613229565b5b828204905092915050565b60006132c382611c84565b91506132ce83611c84565b9250817fffffffffffffffffffffffffffffffffffffffffffffffffffffffffffffffff048311821515161561330757613306613258565b5b828202905092915050565b600082825260208201905092915050565b600061332e826127a3565b6133388185613312565b93506133488185602086016123a5565b61335181611bf3565b840191505092915050565b6000819050919050565b600061338161337c6133778461335c565b612c71565b611c84565b9050919050565b61339181613366565b82525050565b600060608201905081810360008301526133b18186613323565b90506133c06020830185612c58565b6133cd6040830184613388565b949350505050565b60006133e082611c84565b91507fffffffffffffffffffffffffffffffffffffffffffffffffffffffffffffffff820361341257613411613258565b5b600182019050919050565b7f4e487b7100000000000000000000000000000000000000000000000000000000600052602260045260246000fd5b6000600282049050600182168061346457607f821691505b6020821081036134775761347661341d565b5b50919050565b7f3a726f6f747b2d2d42673a230000000000000000000000000000000000000000815250565b7f3b2d2d50617468733a2300000000000000000000000000000000000000000000815250565b7f3b2d2d54696c65733a2300000000000000000000000000000000000000000000815250565b7f3b2d2d536861646f77733a230000000000000000000000000000000000000000815250565b7f3b2d2d506c617965723a23000000000000000000000000000000000000000000815250565b7f3b2d2d47656d3a23000000000000000000000000000000000000000000000000815250565b7f3b7d000000000000000000000000000000000000000000000000000000000000815250565b60006135928261347d565b600c820191506135a28289612d5f565b91506135ad826134a3565b600a820191506135bd8288612d5f565b91506135c8826134c9565b600a820191506135d88287612d5f565b91506135e3826134ef565b600c820191506135f38286612d5f565b91506135fe82613515565b600b8201915061360e8285612d5f565b91506136198261353b565b6008820191506136298284612d5f565b915061363482613561565b600282019150819050979650505050505050565b600061366361365e61365984611cba565b612c71565b611c84565b9050919050565b61367381613648565b82525050565b600082825260208201905092915050565b7f2000000000000000000000000000000000000000000000000000000000000000600082015250565b60006136c0600183613679565b91506136cb8261368a565b602082019050919050565b60006060820190506136eb6000830185612c58565b6136f8602083018461366a565b8181036040830152613709816136b3565b90509392505050565b7f3c73766720786d6c6e733d22687474703a2f2f7777772e77332e6f72672f323060008201527f30302f7376672220786d6c6e733a786c696e6b3d22687474703a2f2f7777772e60208201527f77332e6f72672f313939392f786c696e6b222076657273696f6e3d22312e312260408201527f2077696474683d2236303022206865696768743d22363030222076696577426f60608201527f783d222d32202d32203230203230223e3c646566733e3c7374796c653e000000608082015250565b60006137e0609d83612d54565b91506137eb82613712565b609d82019050919050565b7f7376677b6261636b67726f756e642d636f6c6f723a766172282d2d4267293b7d60008201527f746578747b666f6e742d66616d696c793a6d6f6e6f73706163653b666f6e742d60208201527f73697a653a302e313235656d3b66696c6c3a766172282d2d54696c6573293b7d60408201527f2e546578747b7d2e42677b66696c6c3a766172282d2d4267293b7d2347656d7b60608201527f66696c6c3a766172282d2d47656d293b7d2350617468737b66696c6c3a76617260808201527f282d2d5061746873293b7d2354696c65737b66696c6c3a766172282d2d54696c60a08201527f6573293b7d23506c617965727b66696c6c3a766172282d2d506c61796572293b60c08201527f7669736962696c6974793a68696464656e3b7d0000000000000000000000000060e082015250565b600061393660f383612d54565b9150613941826137f6565b60f382019050919050565b7f3c2f7374796c653e000000000000000000000000000000000000000000000000815250565b7f3c2f646566733e3c673e3c7265637420636c6173733d2242672220783d222d3260008201527f2220793d222d32222077696474683d22323022206865696768743d223230222f60208201527f3e00000000000000000000000000000000000000000000000000000000000000604082015250565b60006139f4604183612d54565b91506139ff82613972565b604182019050919050565b7f3c7465787420636c6173733d22546578742220646f6d696e616e742d6261736560008201527f6c696e653d226d6964646c652220783d22302220793d222d31223e2300000000602082015250565b6000613a66603c83612d54565b9150613a7182613a0a565b603c82019050919050565b7f3c2f746578743e3c7465787420636c6173733d22546578742220646f6d696e6160008201527f6e742d626173656c696e653d226d6964646c652220783d22302220793d22313760208201527f222069643d22636f6f7264223e00000000000000000000000000000000000000604082015250565b6000613afe604d83612d54565b9150613b0982613a7c565b604d82019050919050565b7f3c2f746578743e3c2f673e3c2f7376673e000000000000000000000000000000815250565b6000613b45826137d3565b9150613b518289612d5f565b9150613b5c82613929565b9150613b688288612d5f565b9150613b738261394c565b600882019150613b838287612d5f565b9150613b8e826139e7565b9150613b9a8286612d5f565b9150613ba582613a59565b9150613bb18285612d5f565b9150613bbc82613af1565b9150613bc88284612d5f565b9150613bd382613b14565b601182019150819050979650505050505050565b7f3c21444f43545950452068746d6c3e3c68746d6c206c616e673d22656e223e3c60008201527f686561643e3c6d65746120636861727365743d225554462d38223e3c6d65746160208201527f206e616d653d22617574686f722220636f6e74656e743d2253747564696f204160408201527f76616e7465223e3c7469746c653e456e646c65737320437261776c657220436860608201527f616d626572202300000000000000000000000000000000000000000000000000608082015250565b6000613cb5608783612d54565b9150613cc082613be7565b608782019050919050565b7f3c2f7469746c653e3c7374796c653e626f64797b6261636b67726f756e643a23815250565b7f3b6d617267696e3a303b6f766572666c6f773a68696464656e3b7d23506c617960008201527f65727b7472616e736974696f6e3a7820302e317320656173652d696e2c79203060208201527f2e317320656173652d696e3b7669736962696c6974793a76697369626c65216960408201527f6d706f7274616e743b616e696d6174696f6e3a626c696e6b657220317320656160608201527f73652d696e20696e66696e6974653b7d406b65796672616d657320626c696e6b60808201527f65727b3735257b6f7061636974793a313b7d313030257b6f7061636974793a3060a08201527f3b7d7d3c2f7374796c653e3c2f686561643e3c626f64793e000000000000000060c082015250565b6000613e0b60d883612d54565b9150613e1682613cf1565b60d882019050919050565b7f3c7363726970743e76617220636f6f72643d646f63756d656e742e676574456c60008201527f656d656e74427949642822636f6f726422292e74657874436f6e74656e742c7460208201527f6d3d417272617928323536293b66756e6374696f6e206d28742c652c722c6f3d60408201527f226d6f76656422297b6c657420693d646f63756d656e742e676574456c656d6560608201527f6e74427949642822506c6179657222292c6c3d7061727365496e7428692e676560808201527f744174747269627574652822782229292b652c643d7061727365496e7428692e60a08201527f6765744174747269627574652822792229292b723b6966286c3e3d302626643e60c08201527f3d3026266c3c31362626643c3136297b6c6574206e3d746d5b31362a642b6c5d60e08201527f3b6e262628692e736574417474726962757465282278222c6c292c692e7365746101008201527f417474726962757465282279222c64292c77696e646f772e706172656e742e706101208201527f6f73744d657373616765284a534f4e2e737472696e67696679287b637261776c6101408201527f65723a7b6576656e743a6f2c783a6c2c793a642c74696c653a6e2c636f6f72646101608201527f7d7d292c222a2229297d743f2e70726576656e7444656661756c7428297d77696101808201527f6e646f772e6f6e6c6f61643d743d3e7b6c657420653d646f63756d656e742e716101a08201527f7565727953656c6563746f72282273766722293b652e736574417474726962756101c08201527f74652822686569676874222c22313030766822292c652e7365744174747269626101e08201527f75746528227769647468222c22313030767722292c5b2e2e2e646f63756d656e6102008201527f742e676574456c656d656e74427949642822506174687322292e6368696c644e6102208201527f6f6465732c2e2e2e646f63756d656e742e676574456c656d656e7442794964286102408201527f2254696c657322292e6368696c644e6f6465735d2e666f724561636828743d3e6102608201527f7b69662833213d742e6e6f646554797065297b6c657420653d742e67657442426102808201527f6f7828292c723d4d6174682e666c6f6f7228652e78292c6f3d4d6174682e666c6102a08201527f6f6f7228652e79292c693d4d6174682e6d617828652e77696474682c31293b656102c08201527f2e6865696768743b6c6574206c3d7061727365496e7428742e676574417474726102e08201527f69627574652822696422293f3f323535293b666f72286c657420643d303b643c6103008201527f693b2b2b6429746d5b31362a6f2b722b645d3d6c7d7d292c646f63756d656e746103208201527f2e6164644576656e744c697374656e657228226b6579646f776e222c743d3e7b6103408201527f696628742e7265706561742972657475726e3b6c657420653d742e6b6579436f6103608201527f64653b33373d3d6526266d28742c2d312c30292c33383d3d6526266d28742c306103808201527f2c2d31292c33393d3d6526266d28742c312c30292c34303d3d6526266d28742c6103a08201527f302c31292c2831333d3d657c7c33323d3d652926266d28742c302c302c2261636103c08201527f74696f6e22297d292c6d286e756c6c2c302c30297d3b3c2f7363726970743e3c6103e08201527f2f626f64793e3c2f68746d6c3e0000000000000000000000000000000000000061040082015250565b600061433161040d83612d54565b915061433c82613e21565b61040d82019050919050565b600061435382613ca8565b915061435f8287612d5f565b915061436a82613ccb565b60208201915061437a8286612d5f565b915061438582613dfe565b91506143918285612d5f565b915061439d8284612d5f565b91506143a882614323565b915081905095945050505050565b6000819050919050565b60006143db6143d66143d1846143b6565b612c71565b611c84565b9050919050565b6143eb816143c0565b82525050565b50565b6000614401600083613679565b915061440c826143f1565b600082019050919050565b600060608201905061442c6000830185612c58565b61443960208301846143e2565b818103604083015261444a816143f4565b90509392505050565b7f68747470733a2f2f656e646c657373637261776c65722e696f2f6368616d626560008201527f722f000000000000000000000000000000000000000000000000000000000000602082015250565b60006144af602283612d54565b91506144ba82614453565b602282019050919050565b60006144d0826144a2565b91506144dc8284612d5f565b915081905092915050565b600080604083850312156144fe576144fd611b29565b5b600083015167ffffffffffffffff81111561451c5761451b611b2e565b5b614528858286016131b2565b925050602083015167ffffffffffffffff81111561454957614548611b2e565b5b614555858286016131b2565b9150509250929050565b600061456a82612389565b6145748185613679565b93506145848185602086016123a5565b61458d81611bf3565b840191505092915050565b600060208201905081810360008301526145b2818461455f565b905092915050565b600082825260208201905092915050565b600082825260208201905092915050565b60006145e782612389565b6145f181856145cb565b93506146018185602086016123a5565b61460a81611bf3565b840191505092915050565b600061462183836145dc565b905092915050565b600061463482612454565b61463e81856145ba565b93508360208202850161465085612470565b8060005b8581101561468c578484038952815161466d8582614615565b9450614678836124de565b925060208a01995050600181019050614654565b50829750879550505050505092915050565b600060408201905081810360008301526146b88185614629565b905081810360208301526146cc8184614629565b90509392505050565b7f7b226e616d65223a220000000000000000000000000000000000000000000000815250565b7f222c226465736372697074696f6e223a22456e646c65737320437261776c657260008201527f204368616d626572202300000000000000000000000000000000000000000000602082015250565b6000614757602a83612d54565b9150614762826146fb565b602a82019050919050565b7f2e20506c61792061626f7665206f722062656c6f773a20000000000000000000815250565b7f222c2265787465726e616c5f75726c223a220000000000000000000000000000815250565b7f222c226261636b67726f756e645f636f6c6f72223a2200000000000000000000815250565b7f222c2261747472696275746573223a5b00000000000000000000000000000000815250565b7f5d2c22696d616765223a22646174613a696d6167652f7376672b786d6c3b626160008201527f736536342c000000000000000000000000000000000000000000000000000000602082015250565b6000614861602583612d54565b915061486c82614805565b602582019050919050565b7f222c22616e696d6174696f6e5f75726c223a22646174613a746578742f68746d60008201527f6c3b6261736536342c0000000000000000000000000000000000000000000000602082015250565b60006148d3602983612d54565b91506148de82614877565b602982019050919050565b7f227d000000000000000000000000000000000000000000000000000000000000815250565b600061491a826146d5565b60098201915061492a828b612d5f565b91506149358261474a565b9150614941828a612d5f565b915061494c8261476d565b60178201915061495c8289612d5f565b915061496782614793565b6012820191506149778288612d5f565b9150614982826147b9565b6016820191506149928287612d5f565b915061499d826147df565b6010820191506149ad8286612d5f565b91506149b882614854565b91506149c48285612d5f565b91506149cf826148c6565b91506149db8284612d5f565b91506149e6826148e9565b6002820191508190509998505050505050505050565b7f646174613a6170706c69636174696f6e2f6a736f6e3b6261736536342c000000815250565b6000614a2d826149fc565b601d82019150614a3d8284612d5f565b915081905092915050565b6000614a5382611c84565b9150614a5e83611c84565b9250828201905080821115614a7657614a75613258565b5b92915050565b6000614a8782611c84565b9150614a9283611c84565b925082614aa257614aa1613229565b5b828206905092915050565b7f3c7265637420783d220000000000000000000000000000000000000000000000815250565b7f2220793d22000000000000000000000000000000000000000000000000000000815250565b7f222077696474683d220000000000000000000000000000000000000000000000815250565b7f22206865696768743d2231222f3e000000000000000000000000000000000000815250565b6000614b518287612d5f565b9150614b5c82614aad565b600982019150614b6c8286612d5f565b9150614b7782614ad3565b600582019150614b878285612d5f565b9150614b9282614af9565b600982019150614ba28284612d5f565b9150614bad82614b1f565b600e8201915081905095945050505050565b60007fff0000000000000000000000000000000000000000000000000000000000000082169050919050565b614bf481614bbf565b82525050565b6000604082019050614c0f6000830185614beb565b614c1c602083018461242a565b9392505050565b7f3c75736520786c696e6b3a687265663d22230000000000000000000000000000815250565b7f2220783d22000000000000000000000000000000000000000000000000000000815250565b7f222069643d220000000000000000000000000000000000000000000000000000815250565b7f222f3e0000000000000000000000000000000000000000000000000000000000815250565b6000614cc78288612d5f565b9150614cd282614c23565b601282019150614ce28287612d5f565b9150614ced82614c49565b600582019150614cfd8286612d5f565b9150614d0882614ad3565b600582019150614d188285612d5f565b9150614d2382614c6f565b600682019150614d338284612d5f565b9150614d3e82614c95565b6003820191508190509695505050505050565b7f3c726563742069643d22506c617965722220783d220000000000000000000000815250565b7f222077696474683d223122206865696768743d2231222f3e0000000000000000815250565b6000614da882614d51565b601582019150614db88285612d5f565b9150614dc382614ad3565b600582019150614dd38284612d5f565b9150614dde82614d77565b6018820191508190509392505050565b7f3c672069643d225061746873222073686170652d72656e646572696e673d226360008201527f726973704564676573223e000000000000000000000000000000000000000000602082015250565b6000614e4a602b83612d54565b9150614e5582614dee565b602b82019050919050565b7f3c2f673e00000000000000000000000000000000000000000000000000000000815250565b7f3c672069643d2254696c6573223e000000000000000000000000000000000000815250565b6000614eb782614e3d565b9150614ec38286612d5f565b9150614ece82614e60565b600482019150614ede8285612d5f565b9150614ee982614e86565b600e82019150614ef98284612d5f565b9150614f0482614e60565b600482019150819050949350505050565b6000604082019050614f2a60008301856130d5565b614f37602083018461242a565b9392505050565b7f3c73766720786d6c6e733d22687474703a2f2f7777772e77332e6f72672f323060008201527f30302f737667222076657273696f6e3d22312e31222077696474683d2236303060208201527f22206865696768743d22363030222076696577426f783d223020302000000000604082015250565b6000614fc0605c83612d54565b9150614fcb82614f3e565b605c82019050919050565b7f2000000000000000000000000000000000000000000000000000000000000000815250565b7f223e3c646566733e3c7374796c653e726563747b66696c6c3a23000000000000815250565b7f7d746578747b666f6e742d66616d696c793a6d6f6e6f73706163653b666f6e7460008201527f2d73697a653a312e3570783b66696c6c3a230000000000000000000000000000602082015250565b600061507e603283612d54565b915061508982615022565b603282019050919050565b7f7d3c2f7374796c653e3c2f646566733e3c726563742077696474683d2231303060008201527f2522206865696768743d2231303025222073686170652d72656e646572696e6760208201527f3d2263726973704564676573222f3e3c7465787420783d223530252220793d2260408201527f3530252220646f6d696e616e742d626173656c696e653d226d6964646c65222060608201527f746578742d616e63686f723d226d6964646c65223e0000000000000000000000608082015250565b6000615162609583612d54565b915061516d82615094565b609582019050919050565b7f3c2f746578743e3c2f7376673e00000000000000000000000000000000000000815250565b60006151a982614fb3565b91506151b58288612d5f565b91506151c082614fd6565b6001820191506151d08287612d5f565b91506151db82614ffc565b601a820191506151eb8286612d5f565b91506151f682615071565b91506152028285612d5f565b915061520d82615155565b91506152198284612d5f565b915061522482615178565b600d820191508190509695505050505050565b7f22696d616765223a22646174613a696d6167652f7376672b786d6c3b6261736560008201527f36342c0000000000000000000000000000000000000000000000000000000000602082015250565b6000615293602383612d54565b915061529e82615237565b602382019050919050565b7f2200000000000000000000000000000000000000000000000000000000000000815250565b60006152da82615286565b91506152e68284612d5f565b91506152f1826152a9565b6001820191508190509291505056fe4142434445464748494a4b4c4d4e4f505152535455565758595a6162636465666768696a6b6c6d6e6f707172737475767778797a303132333435363738392b2fa26469706673582212206f8a1cbf92b890462a27f4329ff910bfcccc877820dc7de3e3dd0dd3e2a3ec4564736f6c63430008100033",
  "immutableReferences": {},
  "source": "// SPDX-License-Identifier: MIT\n//\n//    \n//             \n//              \n//              \n//              \n//          \n//        \n//      \n//\n// https://endlesscrawler.io\n// @EndlessCrawler\n//\n/// @title Endless Crawler Chamber Renderer v.1\n/// @author Studio Avante\n/// @notice Metadata renderer for Endless Crawler\n//\npragma solidity ^0.8.16;\nimport { IERC165 } from '@openzeppelin/contracts/utils/introspection/ERC165.sol';\nimport { Base64 } from '@openzeppelin/contracts/utils/Base64.sol';\nimport { CrawlerContract } from './CrawlerContract.sol';\nimport { ICrawlerMapper } from './ICrawlerMapper.sol';\nimport { ICrawlerRenderer } from './ICrawlerRenderer.sol';\nimport { MapV1 } from './MapV1.sol';\nimport { Crawl } from './Crawl.sol';\n\ncontract CrawlerRendererV1 is CrawlerContract, ICrawlerRenderer {\n\n\tconstructor() {\n\t\tsetupCrawlerContract('Renderer', 1, 1);\n\t}\n\n\t/// @dev implements IERC165\n\tfunction supportsInterface(bytes4 interfaceId) public view virtual override(IERC165, CrawlerContract) returns (bool) {\n\t\treturn interfaceId == type(ICrawlerRenderer).interfaceId || CrawlerContract.supportsInterface(interfaceId);\n\t}\n\n\t/// @notice Returns aadditional metadata for CrawlerIndex.getChamberMetadata()\n\t/// @param chamber The Chamber, without maps\n\t/// @param mapper The ICrawlerMapper contract address\n\t/// @return metadata Metadata properties\n\tfunction renderAdditionalChamberMetadata(Crawl.ChamberData memory chamber, ICrawlerMapper mapper) public view virtual override returns (string memory) {\n\t\treturn _renderAtlasImage(chamber, mapper);\n\t}\n\n\t/// @dev Generate Chamber SVG image (not the map, only Terrain color and Yonder for the Atlas)\n\t/// @param chamber The Chamber, no maps required\n\t/// @param mapper The ICrawlerMapper contract address\n\t/// @return metadata The image Metadata containing the SVG source as Base64 string\n\tfunction _renderAtlasImage(Crawl.ChamberData memory chamber, ICrawlerMapper mapper) internal view returns (string memory) {\n\t\tstring memory vp = Crawl.toString(Crawl.max(bytes(Crawl.toString(chamber.yonder)).length, 3));\n\t\treturn string.concat(\n\t\t\t'\"image\":\"data:image/svg+xml;base64,',\n\t\t\tBase64.encode(\n\t\t\t\tbytes(string.concat(\n\t\t\t\t\t'<svg xmlns=\"http://www.w3.org/2000/svg\" version=\"1.1\" width=\"600\" height=\"600\" viewBox=\"0 0 ', vp ,' ', vp ,'\">'\n\t\t\t\t\t'<defs>'\n\t\t\t\t\t\t'<style>'\n\t\t\t\t\t\t\t'rect{fill:#', mapper.getColor(chamber.terrain, MapV1.Color_Path), '}'\n\t\t\t\t\t\t\t'text{font-family:monospace;font-size:1.5px;fill:#', mapper.getColor(chamber.terrain, MapV1.Color_Tiles), '}'\n\t\t\t\t\t\t'</style>'\n\t\t\t\t\t'</defs>'\n\t\t\t\t\t'<rect width=\"100%\" height=\"100%\" shape-rendering=\"crispEdges\"/>'\n\t\t\t\t\t'<text x=\"50%\" y=\"50%\" dominant-baseline=\"middle\" text-anchor=\"middle\">', Crawl.toString(chamber.yonder), '</text>'\n\t\t\t\t\t'</svg>'\n\t\t\t\t))\n\t\t\t),\n\t\t\t'\"'\n\t\t);\n\t}\n\n\n\t/// @notice Returns the seed and tilemap of a Chamber, used for world building\n\t/// @param chamber The Chamber, with maps\n\t/// @param mapper The ICrawlerMapper contract address\n\t/// @return metadata Metadata, as plain json string\n\tfunction renderMapMetadata(Crawl.ChamberData memory chamber, ICrawlerMapper mapper) public view virtual override returns (string memory) {\n\t\trequire(chamber.tilemap.length == 256, 'Bad tilemap');\n\t\tstring[] memory colors = getColors(chamber, mapper);\n\t\trequire(colors.length >= 5, 'Incomplete color palette');\n\t\treturn string.concat(\n\t\t\t'{'\n\t\t\t\t'\"seed\":\"', Crawl.toHexString(chamber.seed, 32), '\",'\n\t\t\t\t'\"tilemap\":\"data:application/octet-stream;base64,', Base64.encode(chamber.tilemap), '\",'\n\t\t\t\t'\"colors\":{'\n\t\t\t\t\t'\"background\":\"', colors[MapV1.Color_Background], '\",'\n\t\t\t\t\t'\"path\":\"', colors[MapV1.Color_Path], '\",'\n\t\t\t\t\t'\"tiles\":\"', colors[MapV1.Color_Tiles], '\",'\n\t\t\t\t\t'\"shadows\":\"', colors[MapV1.Color_Shadows], '\",'\n\t\t\t\t\t'\"player\":\"', colors[MapV1.Color_Player], '\",'\n\t\t\t\t\t'\"gem\":\"', mapper.getGemColor(chamber.hoard.gemType), '\",'\n\t\t\t\t\t'\"coin\":\"', mapper.getGemColor(Crawl.Gem.Coin), '\"'\n\t\t\t\t'}'\n\t\t\t'}'\n\t\t);\n\t}\n\n\n\t/// @notice Returns IERC721Metadata compliant metadata, used by tokenURI()\n\t/// @param chamber The Chamber, with maps\n\t/// @param mapper The ICrawlerMapper contract address\n\t/// @return metadata Metadata, as base64 json string\n\t/// @dev Reference: https://docs.opensea.io/docs/metadata-standards\n\tfunction renderTokenMetadata(Crawl.ChamberData memory chamber, ICrawlerMapper mapper) public view virtual override returns (string memory) {\n\t\trequire(chamber.tilemap.length == 256, 'Bad tilemap');\n\n\t\t// get current chamber colors\n\t\tstring[] memory colors = getColors(chamber, mapper);\n\t\trequire(colors.length >= 5, 'Incomplete color palette');\n\n\t\tstring memory variables = string.concat(\n\t\t\t':root{'\n\t\t\t\t'--Bg:#', colors[MapV1.Color_Background], ';'\n\t\t\t\t'--Paths:#', colors[MapV1.Color_Path], ';'\n\t\t\t\t'--Tiles:#', colors[MapV1.Color_Tiles], ';'\n\t\t\t\t'--Shadows:#', colors[MapV1.Color_Shadows], ';'\n\t\t\t\t'--Player:#', colors[MapV1.Color_Player], ';'\n\t\t\t\t'--Gem:#', mapper.getGemColor(chamber.hoard.gemType), ';'\n\t\t\t'}'\n\t\t);\n\n\t\t//\n\t\t// Generate SVG\n\t\tstring memory svg = string.concat(\n\t\t\t'<svg xmlns=\"http://www.w3.org/2000/svg\" xmlns:xlink=\"http://www.w3.org/1999/xlink\" version=\"1.1\" width=\"600\" height=\"600\" viewBox=\"-2 -2 20 20\">'\n\t\t\t\t'<defs>'\n\t\t\t\t\t'<style>',\n\t\t\t\t\t\tvariables,\n\t\t\t\t\t\t'svg{background-color:var(--Bg);}'\n\t\t\t\t\t\t'text{font-family:monospace;font-size:0.125em;fill:var(--Tiles);}'\n\t\t\t\t\t\t'.Text{}'\n\t\t\t\t\t\t'.Bg{fill:var(--Bg);}'\n\t\t\t\t\t\t'#Gem{fill:var(--Gem);}'\n\t\t\t\t\t\t'#Paths{fill:var(--Paths);}'\n\t\t\t\t\t\t'#Tiles{fill:var(--Tiles);}'\n\t\t\t\t\t\t'#Player{fill:var(--Player);visibility:hidden;}',\n\t\t\t\t\t\trenderSvgStyles(chamber, mapper),\n\t\t\t\t\t'</style>',\n\t\t\t\t\trenderSvgDefs(chamber, mapper),\n\t\t\t\t'</defs>'\n\t\t\t\t'<g>'\n\t\t\t\t\t'<rect class=\"Bg\" x=\"-2\" y=\"-2\" width=\"20\" height=\"20\"/>',\n\t\t\t\t\t_renderTiles(chamber, mapper),\n\t\t\t\t\t'<text class=\"Text\" dominant-baseline=\"middle\" x=\"0\" y=\"-1\">#', Crawl.toString(chamber.tokenId), '</text>'\n\t\t\t\t\t// '<text class=\"Text\" dominant-baseline=\"middle\" text-anchor=\"end\" x=\"16\" y=\"-1\">&#167;', Crawl.toString(chamber.chapter), '</text>'\n\t\t\t\t\t'<text class=\"Text\" dominant-baseline=\"middle\" x=\"0\" y=\"17\" id=\"coord\">', Crawl.coordsToString(chamber.coord, chamber.yonder, ' '), '</text>'\n\t\t\t\t'</g>'\n\t\t\t'</svg>'\n\t\t);\n\n\t\tstring memory animation = string.concat(\n\t\t\t'<!DOCTYPE html>'\n\t\t\t'<html lang=\"en\">'\n\t\t\t\t'<head>'\n\t\t\t\t\t'<meta charset=\"UTF-8\">'\n\t\t\t\t\t'<meta name=\"author\" content=\"Studio Avante\">'\n\t\t\t\t\t'<title>Endless Crawler Chamber #', Crawl.toString(chamber.tokenId), '</title>'\n\t\t\t\t\t'<style>'\n\t\t\t\t\t\t'body{background:#', colors[MapV1.Color_Background], ';margin:0;overflow:hidden;}'\n\t\t\t\t\t\t'#Player{transition:x 0.1s ease-in,y 0.1s ease-in;visibility:visible!important;animation:blinker 1s ease-in infinite;}'\n\t\t\t\t\t\t'@keyframes blinker{75%{opacity:1;}100%{opacity:0;}}'\n\t\t\t\t\t'</style>'\n\t\t\t\t'</head>'\n\t\t\t\t'<body>',\n\t\t\t\t\trenderBackground(chamber, mapper),\n\t\t\t\t\tsvg,\n\t\t\t\t\t'<script>'\n\t\t\t\t\t\t'var coord=document.getElementById(\"coord\").textContent,tm=Array(256);function m(t,e,r,o=\"moved\"){let i=document.getElementById(\"Player\"),l=parseInt(i.getAttribute(\"x\"))+e,d=parseInt(i.getAttribute(\"y\"))+r;if(l>=0&&d>=0&&l<16&&d<16){let n=tm[16*d+l];n&&(i.setAttribute(\"x\",l),i.setAttribute(\"y\",d),window.parent.postMessage(JSON.stringify({crawler:{event:o,x:l,y:d,tile:n,coord}}),\"*\"))}t?.preventDefault()}window.onload=t=>{let e=document.querySelector(\"svg\");e.setAttribute(\"height\",\"100vh\"),e.setAttribute(\"width\",\"100vw\"),[...document.getElementById(\"Paths\").childNodes,...document.getElementById(\"Tiles\").childNodes].forEach(t=>{if(3!=t.nodeType){let e=t.getBBox(),r=Math.floor(e.x),o=Math.floor(e.y),i=Math.max(e.width,1);e.height;let l=parseInt(t.getAttribute(\"id\")??255);for(let d=0;d<i;++d)tm[16*o+r+d]=l}}),document.addEventListener(\"keydown\",t=>{if(t.repeat)return;let e=t.keyCode;37==e&&m(t,-1,0),38==e&&m(t,0,-1),39==e&&m(t,1,0),40==e&&m(t,0,1),(13==e||32==e)&&m(t,0,0,\"action\")}),m(null,0,0)};'\n\t\t\t\t\t'</script>'\n\t\t\t\t'</body>'\n\t\t\t'</html>'\n\t\t);\n\n\t\t//\n\t\t// Generate JSON\n\t\tstring memory external_url = string.concat('https://endlesscrawler.io/chamber/', Crawl.coordsToString(chamber.coord, 0, ''));\n\t\t(string[] memory labels, string[] memory values) = mapper.getAttributes(chamber);\n\t\tbytes memory json = bytes(string.concat(\n\t\t\t'{'\n\t\t\t\t'\"name\":\"', Crawl.tokenName(Crawl.toString(chamber.tokenId)), '\",'\n\t\t\t\t'\"description\":\"Endless Crawler Chamber #', Crawl.toString(chamber.tokenId), '. Play above or below: ', external_url, '\",'\n\t\t\t\t'\"external_url\":\"', external_url, '\",'\n\t\t\t\t'\"background_color\":\"', colors[MapV1.Color_Background], '\",'\n\t\t\t\t'\"attributes\":[', Crawl.renderAttributesMetadata(labels, values), '],'\n\t\t\t\t'\"image\":\"data:image/svg+xml;base64,', Base64.encode(bytes(svg)), '\",'\n\t\t\t\t'\"animation_url\":\"data:text/html;base64,', Base64.encode(bytes(animation)), '\"'\n\t\t\t'}'\n\t\t));\n\n\t\treturn string.concat('data:application/json;base64,', Base64.encode(json));\n\t}\n\n\t/// @dev Render all SVG tiles\n\t/// @param chamber The Chamber, with maps\n\t/// @param mapper The ICrawlerMapper contract address\n\t/// @return result The tyiles as SVG elements\n\tfunction _renderTiles(Crawl.ChamberData memory chamber, ICrawlerMapper mapper) internal view returns (string memory result) {\n\t\tstring memory paths;\n\t\tstring memory tiles;\n\t\tstring memory player;\n\n\t\tuint256 pathX;\n\t\tuint256 pathWidth;\n\t\tfor(uint256 i = 0 ; i < 256 ; ++i) {\n\t\t\tuint256 x = i % 16;\n\t\t\tuint256 y = i / 16;\n\t\t\tbytes1 tile = chamber.tilemap[i];\n\t\t\t// accumulate path row\n\t\t\tif(tile == MapV1.Tile_Path) {\n\t\t\t\tif(pathWidth == 0) pathX = x;\n\t\t\t\tpathWidth++;\n\t\t\t}\n\t\t\t// finish path row\n\t\t\tif((tile != MapV1.Tile_Path || x == 15) && pathWidth > 0) {\n\t\t\t\tpaths = string.concat(paths,\n\t\t\t\t\t'<rect x=\"', Crawl.toString(pathX), '\" y=\"', Crawl.toString(y), '\" width=\"', Crawl.toString(pathWidth), '\" height=\"1\"/>'\n\t\t\t\t);\n\t\t\t\tpathWidth = 0;\n\t\t\t}\n\t\t\t// draw other tiles\n\t\t\tif(tile != MapV1.Tile_Path && tile != MapV1.Tile_Void) {\n\t\t\t\ttiles = string.concat(tiles,\n\t\t\t\t\t'<use xlink:href=\"#', mapper.getTileName(tile, uint8(i)), '\" x=\"', Crawl.toString(x), '\" y=\"', Crawl.toString(y), '\" id=\"', Crawl.toString(uint8(tile)), '\"/>'\n\t\t\t\t);\n\t\t\t\tif(tile == MapV1.Tile_Entry) {\n\t\t\t\t\tplayer = string.concat('<rect id=\"Player\" x=\"', Crawl.toString(x), '\" y=\"', Crawl.toString(y), '\" width=\"1\" height=\"1\"/>');\n\t\t\t\t}\n\t\t\t}\n\t\t}\n\t\t\n\t\treturn string.concat(\n\t\t\t'<g id=\"Paths\" shape-rendering=\"crispEdges\">',\n\t\t\t\tpaths,\n\t\t\t'</g>',\n\t\t\tplayer,\n\t\t\t'<g id=\"Tiles\">',\n\t\t\t\ttiles,\n\t\t\t'</g>'\n\t\t);\n\t}\n\n\n\t/// @notice Returns the map colors, from Mapper or curtom data (bound token)\n\t/// @param chamber The Chamber, with maps\n\t/// @param mapper The ICrawlerMapper contract address\n\t/// @return result RGB hex color code array, (at least 4 color)\n\tfunction getColors(Crawl.ChamberData memory chamber, ICrawlerMapper mapper) public view virtual returns (string[] memory result) {\n\t\tresult = mapper.getColors(chamber.terrain);\n\t\tfor(uint256 i = 0 ; i < chamber.customData.length ; ++i) {\n\t\t\tif(chamber.customData[i].dataType == Crawl.CustomDataType.Palette) {\n\t\t\t\tfor(uint256 c = 0 ; c < chamber.customData[i].data.length / 3 && c < result.length; ++c) {\n\t\t\t\t\tresult[c] = Crawl.toHexString(chamber.customData[i].data, c*3, 3);\n\t\t\t\t}\n\t\t\t\tbreak;\n\t\t\t}\n\t\t}\n\t}\n\n\t/// @notice Returns the map SVG Styles, from Mapper or curtom data (bound token)\n\t/// @param chamber The Chamber, with maps\n\t/// @param mapper The ICrawlerMapper contract address\n\t/// @return result SVG code\n\tfunction renderSvgStyles(Crawl.ChamberData memory chamber, ICrawlerMapper mapper) public view virtual returns (string memory) {\n\t\treturn mapper.renderSvgStyles(chamber);\n\t}\n\n\t/// @notice Returns the map SVG Definitions, from Mapper or curtom data (bound token)\n\t/// @param chamber The Chamber, with maps\n\t/// @param mapper The ICrawlerMapper contract address\n\t/// @return result SVG code\n\tfunction renderSvgDefs(Crawl.ChamberData memory chamber, ICrawlerMapper mapper) public view virtual returns (string memory) {\n\t\treturn mapper.renderSvgDefs(chamber);\n\t}\n\n\t/// @notice Renders animation background\n\t// @param chamber The Chamber, with maps\n\t// @param mapper The ICrawlerMapper contract address\n\t/// @return result HTML code\n\tfunction renderBackground(Crawl.ChamberData memory /*chamber*/, ICrawlerMapper /*mapper*/) public view virtual returns (string memory) {\n\t\treturn '';\n\t}\n\n}\n",
  "sourcePath": "/Users/roger/Dev/Blockchain/Truffle/ec-crawler/contracts/CrawlerRendererV1.sol",
  "compiler": {
    "name": "solc",
    "version": "0.8.16+commit.07a7930e.Emscripten.clang"
  },
  "schemaVersion": "3.4.11",
  "updatedAt": "2022-12-05T00:55:10.073Z",
  "devdoc": {
    "kind": "dev",
    "methods": {
      "contractChapterNumber()": {
        "returns": {
          "_0": "chapterNumber Contract chapter number"
        }
      },
      "contractName()": {
        "returns": {
          "_0": "name Contract name"
        }
      },
      "contractVersion()": {
        "returns": {
          "_0": "version Contract version"
        }
      },
      "getColors((uint256,uint256,uint256,uint232,uint8,uint8,uint8,(uint8,uint16,uint16),uint8,uint8[4],uint8[4],uint256,bytes,(uint8,bytes)[]),address)": {
        "params": {
          "chamber": "The Chamber, with maps",
          "mapper": "The ICrawlerMapper contract address"
        },
        "returns": {
          "result": "RGB hex color code array, (at least 4 color)"
        }
      },
      "renderAdditionalChamberMetadata((uint256,uint256,uint256,uint232,uint8,uint8,uint8,(uint8,uint16,uint16),uint8,uint8[4],uint8[4],uint256,bytes,(uint8,bytes)[]),address)": {
        "params": {
          "chamber": "The Chamber, without maps",
          "mapper": "The ICrawlerMapper contract address"
        },
        "returns": {
          "_0": "metadata Metadata properties"
        }
      },
      "renderBackground((uint256,uint256,uint256,uint232,uint8,uint8,uint8,(uint8,uint16,uint16),uint8,uint8[4],uint8[4],uint256,bytes,(uint8,bytes)[]),address)": {
        "returns": {
          "_0": "result HTML code"
        }
      },
      "renderMapMetadata((uint256,uint256,uint256,uint232,uint8,uint8,uint8,(uint8,uint16,uint16),uint8,uint8[4],uint8[4],uint256,bytes,(uint8,bytes)[]),address)": {
        "params": {
          "chamber": "The Chamber, with maps",
          "mapper": "The ICrawlerMapper contract address"
        },
        "returns": {
          "_0": "metadata Metadata, as plain json string"
        }
      },
      "renderSvgDefs((uint256,uint256,uint256,uint232,uint8,uint8,uint8,(uint8,uint16,uint16),uint8,uint8[4],uint8[4],uint256,bytes,(uint8,bytes)[]),address)": {
        "params": {
          "chamber": "The Chamber, with maps",
          "mapper": "The ICrawlerMapper contract address"
        },
        "returns": {
          "_0": "result SVG code"
        }
      },
      "renderSvgStyles((uint256,uint256,uint256,uint232,uint8,uint8,uint8,(uint8,uint16,uint16),uint8,uint8[4],uint8[4],uint256,bytes,(uint8,bytes)[]),address)": {
        "params": {
          "chamber": "The Chamber, with maps",
          "mapper": "The ICrawlerMapper contract address"
        },
        "returns": {
          "_0": "result SVG code"
        }
      },
      "renderTokenMetadata((uint256,uint256,uint256,uint232,uint8,uint8,uint8,(uint8,uint16,uint16),uint8,uint8[4],uint8[4],uint256,bytes,(uint8,bytes)[]),address)": {
        "details": "Reference: https://docs.opensea.io/docs/metadata-standards",
        "params": {
          "chamber": "The Chamber, with maps",
          "mapper": "The ICrawlerMapper contract address"
        },
        "returns": {
          "_0": "metadata Metadata, as base64 json string"
        }
      },
      "supportsInterface(bytes4)": {
        "details": "implements IERC165"
      }
    },
    "version": 1
  },
  "userdoc": {
    "kind": "user",
    "methods": {
      "contractChapterNumber()": {
        "notice": "Returns the first chapter number this contract was used"
      },
      "contractName()": {
        "notice": "Returns the contract name"
      },
      "contractVersion()": {
        "notice": "Returns the contract version"
      },
      "getColors((uint256,uint256,uint256,uint232,uint8,uint8,uint8,(uint8,uint16,uint16),uint8,uint8[4],uint8[4],uint256,bytes,(uint8,bytes)[]),address)": {
        "notice": "Returns the map colors, from Mapper or curtom data (bound token)"
      },
      "renderAdditionalChamberMetadata((uint256,uint256,uint256,uint232,uint8,uint8,uint8,(uint8,uint16,uint16),uint8,uint8[4],uint8[4],uint256,bytes,(uint8,bytes)[]),address)": {
        "notice": "Returns aadditional metadata for CrawlerIndex.getChamberMetadata()"
      },
      "renderMapMetadata((uint256,uint256,uint256,uint232,uint8,uint8,uint8,(uint8,uint16,uint16),uint8,uint8[4],uint8[4],uint256,bytes,(uint8,bytes)[]),address)": {
        "notice": "Returns the seed and tilemap of a Chamber, used for world building"
      },
      "renderSvgDefs((uint256,uint256,uint256,uint232,uint8,uint8,uint8,(uint8,uint16,uint16),uint8,uint8[4],uint8[4],uint256,bytes,(uint8,bytes)[]),address)": {
        "notice": "Returns the map SVG Definitions, from Mapper or curtom data (bound token)"
      },
      "renderSvgStyles((uint256,uint256,uint256,uint232,uint8,uint8,uint8,(uint8,uint16,uint16),uint8,uint8[4],uint8[4],uint256,bytes,(uint8,bytes)[]),address)": {
        "notice": "Returns the map SVG Styles, from Mapper or curtom data (bound token)"
      },
      "renderTokenMetadata((uint256,uint256,uint256,uint232,uint8,uint8,uint8,(uint8,uint16,uint16),uint8,uint8[4],uint8[4],uint256,bytes,(uint8,bytes)[]),address)": {
        "notice": "Returns IERC721Metadata compliant metadata, used by tokenURI()"
      }
    },
    "version": 1
  }
}