{
  "contractName": "Crawl",
  "abi": [
    {
      "inputs": [
        {
          "internalType": "string",
          "name": "tokenId",
          "type": "string"
        }
      ],
      "name": "tokenName",
      "outputs": [
        {
          "internalType": "string",
          "name": "",
          "type": "string"
        }
      ],
      "stateMutability": "pure",
      "type": "function",
      "constant": true
    },
    {
      "inputs": [
        {
          "internalType": "uint256",
          "name": "coord",
          "type": "uint256"
        },
        {
          "internalType": "uint256",
          "name": "yonder",
          "type": "uint256"
        },
        {
          "internalType": "string",
          "name": "separator",
          "type": "string"
        }
      ],
      "name": "coordsToString",
      "outputs": [
        {
          "internalType": "string",
          "name": "",
          "type": "string"
        }
      ],
      "stateMutability": "pure",
      "type": "function",
      "constant": true
    },
    {
      "inputs": [
        {
          "internalType": "string[]",
          "name": "labels",
          "type": "string[]"
        },
        {
          "internalType": "string[]",
          "name": "values",
          "type": "string[]"
        }
      ],
      "name": "renderAttributesMetadata",
      "outputs": [
        {
          "internalType": "string",
          "name": "result",
          "type": "string"
        }
      ],
      "stateMutability": "pure",
      "type": "function",
      "constant": true
    },
    {
      "inputs": [
        {
          "internalType": "address",
          "name": "addr",
          "type": "address"
        }
      ],
      "name": "toHexString",
      "outputs": [
        {
          "internalType": "string",
          "name": "",
          "type": "string"
        }
      ],
      "stateMutability": "pure",
      "type": "function",
      "constant": true
    },
    {
      "inputs": [
        {
          "internalType": "uint256",
          "name": "value",
          "type": "uint256"
        },
        {
          "internalType": "uint256",
          "name": "length",
          "type": "uint256"
        }
      ],
      "name": "toHexString",
      "outputs": [
        {
          "internalType": "string",
          "name": "",
          "type": "string"
        }
      ],
      "stateMutability": "pure",
      "type": "function",
      "constant": true
    },
    {
      "inputs": [
        {
          "internalType": "bytes1",
          "name": "value",
          "type": "bytes1"
        }
      ],
      "name": "toHexString",
      "outputs": [
        {
          "internalType": "string",
          "name": "",
          "type": "string"
        }
      ],
      "stateMutability": "pure",
      "type": "function",
      "constant": true
    },
    {
      "inputs": [
        {
          "internalType": "uint256",
          "name": "value",
          "type": "uint256"
        }
      ],
      "name": "toHexString",
      "outputs": [
        {
          "internalType": "string",
          "name": "",
          "type": "string"
        }
      ],
      "stateMutability": "pure",
      "type": "function",
      "constant": true
    },
    {
      "inputs": [
        {
          "internalType": "bytes",
          "name": "value",
          "type": "bytes"
        },
        {
          "internalType": "uint256",
          "name": "start",
          "type": "uint256"
        },
        {
          "internalType": "uint256",
          "name": "length",
          "type": "uint256"
        }
      ],
      "name": "toHexString",
      "outputs": [
        {
          "internalType": "string",
          "name": "",
          "type": "string"
        }
      ],
      "stateMutability": "pure",
      "type": "function",
      "constant": true
    },
    {
      "inputs": [
        {
          "internalType": "bytes",
          "name": "value",
          "type": "bytes"
        }
      ],
      "name": "toHexString",
      "outputs": [
        {
          "internalType": "string",
          "name": "",
          "type": "string"
        }
      ],
      "stateMutability": "pure",
      "type": "function",
      "constant": true
    }
  ],
  "bytecode": "0x611c32610053600b82828239805160001a607314610046577f4e487b7100000000000000000000000000000000000000000000000000000000600052600060045260246000fd5b30600052607381538281f3fe730000000000000000000000000000000000000000301460806040526004361061009d5760003560e01c80636659dd5d116100705780636659dd5d1461016257806373f05b9f146101925780638fba8d5c146101c2578063afdf4e1c146101f2578063c9372793146102225761009d565b80631bb0c665146100a2578063261650e6146100d257806359af1b471461010257806363e1cbea14610132575b600080fd5b6100bc60048036038101906100b79190610f03565b610252565b6040516100c99190610fc0565b60405180910390f35b6100ec60048036038101906100e79190611117565b61027f565b6040516100f99190610fc0565b60405180910390f35b61011c60048036038101906101179190611246565b6102a8565b6040516101299190610fc0565b60405180910390f35b61014c600480360381019061014791906112f4565b610389565b6040516101599190610fc0565b60405180910390f35b61017c6004803603810190610177919061138c565b6105c5565b6040516101899190610fc0565b60405180910390f35b6101ac60048036038101906101a791906113b9565b61074e565b6040516101b99190610fc0565b60405180910390f35b6101dc60048036038101906101d79190611428565b6108e7565b6040516101e99190610fc0565b60405180910390f35b61020c600480360381019061020791906114f6565b610905565b6040516102199190610fc0565b60405180910390f35b61023c60048036038101906102379190611565565b610bca565b6040516102499190610fc0565b60405180910390f35b60606102788273ffffffffffffffffffffffffffffffffffffffff16601460ff16610389565b9050919050565b6060816040516020016102929190611610565b6040516020818303038152906040529050919050565b606060005b835181101561038257818482815181106102ca576102c9611636565b5b60200260200101518483815181106102e5576102e4611636565b5b6020026020010151600187516102fb9190611694565b8410610316576040518060200160405280600081525061034d565b6040518060400160405280600181526020017f2c000000000000000000000000000000000000000000000000000000000000008152505b604051602001610360949392919061173a565b60405160208183030381529060405291508061037b906117a5565b90506102ad565b5092915050565b60606000600283600261039c91906117ed565b6103a69190611847565b67ffffffffffffffff8111156103bf576103be610fec565b5b6040519080825280601f01601f1916602001820160405280156103f15781602001600182028036833780820191505090505b5090507f30000000000000000000000000000000000000000000000000000000000000008160008151811061042957610428611636565b5b60200101907effffffffffffffffffffffffffffffffffffffffffffffffffffffffffffff1916908160001a9053507f78000000000000000000000000000000000000000000000000000000000000008160018151811061048d5761048c611636565b5b60200101907effffffffffffffffffffffffffffffffffffffffffffffffffffffffffffff1916908160001a905350600060018460026104cd91906117ed565b6104d79190611847565b90505b6001811115610577577f3031323334353637383961626364656600000000000000000000000000000000600f86166010811061051957610518611636565b5b1a60f81b8282815181106105305761052f611636565b5b60200101907effffffffffffffffffffffffffffffffffffffffffffffffffffffffffffff1916908160001a905350600485901c9450806105709061187b565b90506104da565b50600084146105bb576040517f08c379a00000000000000000000000000000000000000000000000000000000081526004016105b290611901565b60405180910390fd5b8091505092915050565b60606000600267ffffffffffffffff8111156105e4576105e3610fec565b5b6040519080825280601f01601f1916602001820160405280156106165781602001600182028036833780820191505090505b5090507f3031323334353637383961626364656600000000000000000000000000000000600f6004857effffffffffffffffffffffffffffffffffffffffffffffffffffffffffffff1916901c60f81c1660ff166010811061067b5761067a611636565b5b1a60f81b8160008151811061069357610692611636565b5b60200101907effffffffffffffffffffffffffffffffffffffffffffffffffffffffffffff1916908160001a9053507f3031323334353637383961626364656600000000000000000000000000000000600f8460f81c1660ff16601081106106fe576106fd611636565b5b1a60f81b8160018151811061071657610715611636565b5b60200101907effffffffffffffffffffffffffffffffffffffffffffffffffffffffffffff1916908160001a90535080915050919050565b6060600060c067ffffffffffffffff8016901b8516116107a15761077d67ffffffffffffffff80168516610be0565b60405160200161078d9190611947565b6040516020818303038152906040526107dd565b6107bd60c08067ffffffffffffffff8016901b8616901c610be0565b6040516020016107cd9190611993565b6040516020818303038152906040525b6000608067ffffffffffffffff8016901b861611610837578261081260408067ffffffffffffffff8016901b8816901c610be0565b6040516020016108239291906119df565b604051602081830303815290604052610875565b8261085460808067ffffffffffffffff8016901b8816901c610be0565b604051602001610865929190611a38565b6040516020818303038152906040525b6000851161089257604051806020016040528060008152506108bd565b8361089c86610be0565b6040516020016108ad929190611a91565b6040516020818303038152906040525b6040516020016108cf93929190611ac4565b60405160208183030381529060405290509392505050565b60606108fe8260016108f885610cae565b01610389565b9050919050565b60608351831061094a576040517f08c379a000000000000000000000000000000000000000000000000000000000815260040161094190611b41565b60405180910390fd5b835182846109589190611847565b1115610999576040517f08c379a000000000000000000000000000000000000000000000000000000000815260040161099090611bad565b60405180910390fd5b60008260026109a891906117ed565b67ffffffffffffffff8111156109c1576109c0610fec565b5b6040519080825280601f01601f1916602001820160405280156109f35781602001600182028036833780820191505090505b50905060005b83811015610bbe577f3031323334353637383961626364656600000000000000000000000000000000600f6004888489610a339190611847565b81518110610a4457610a43611636565b5b602001015160f81c60f81b7effffffffffffffffffffffffffffffffffffffffffffffffffffffffffffff1916901c60f81c1660ff1660108110610a8b57610a8a611636565b5b1a60f81b826000600284610a9f91906117ed565b610aa99190611847565b81518110610aba57610ab9611636565b5b60200101907effffffffffffffffffffffffffffffffffffffffffffffffffffffffffffff1916908160001a9053507f3031323334353637383961626364656600000000000000000000000000000000600f878388610b199190611847565b81518110610b2a57610b29611636565b5b602001015160f81c60f81b60f81c1660ff1660108110610b4d57610b4c611636565b5b1a60f81b826001600284610b6191906117ed565b610b6b9190611847565b81518110610b7c57610b7b611636565b5b60200101907effffffffffffffffffffffffffffffffffffffffffffffffffffffffffffff1916908160001a9053508080610bb6906117a5565b9150506109f9565b50809150509392505050565b6060610bd98260008451610905565b9050919050565b606060006001610bef84610d3e565b01905060008167ffffffffffffffff811115610c0e57610c0d610fec565b5b6040519080825280601f01601f191660200182016040528015610c405781602001600182028036833780820191505090505b509050600082602001820190505b600115610ca3578080600190039150507f3031323334353637383961626364656600000000000000000000000000000000600a86061a8153600a8581610c9757610c96611bcd565b5b04945060008503610c4e575b819350505050919050565b600080600090506000608084901c1115610cd057608083901c92506010810190505b6000604084901c1115610ceb57604083901c92506008810190505b6000602084901c1115610d0657602083901c92506004810190505b6000601084901c1115610d2157601083901c92506002810190505b6000600884901c1115610d35576001810190505b80915050919050565b600080600090507a184f03e93ff9f4daa797ed6e38ed64bf6a1f0100000000000000008310610d9c577a184f03e93ff9f4daa797ed6e38ed64bf6a1f0100000000000000008381610d9257610d91611bcd565b5b0492506040810190505b6d04ee2d6d415b85acef81000000008310610dd9576d04ee2d6d415b85acef81000000008381610dcf57610dce611bcd565b5b0492506020810190505b662386f26fc100008310610e0857662386f26fc100008381610dfe57610dfd611bcd565b5b0492506010810190505b6305f5e1008310610e31576305f5e1008381610e2757610e26611bcd565b5b0492506008810190505b6127108310610e56576127108381610e4c57610e4b611bcd565b5b0492506004810190505b60648310610e795760648381610e6f57610e6e611bcd565b5b0492506002810190505b600a8310610e88576001810190505b80915050919050565b6000604051905090565b600080fd5b600080fd5b600073ffffffffffffffffffffffffffffffffffffffff82169050919050565b6000610ed082610ea5565b9050919050565b610ee081610ec5565b8114610eeb57600080fd5b50565b600081359050610efd81610ed7565b92915050565b600060208284031215610f1957610f18610e9b565b5b6000610f2784828501610eee565b91505092915050565b600081519050919050565b600082825260208201905092915050565b60005b83811015610f6a578082015181840152602081019050610f4f565b60008484015250505050565b6000601f19601f8301169050919050565b6000610f9282610f30565b610f9c8185610f3b565b9350610fac818560208601610f4c565b610fb581610f76565b840191505092915050565b60006020820190508181036000830152610fda8184610f87565b905092915050565b600080fd5b600080fd5b7f4e487b7100000000000000000000000000000000000000000000000000000000600052604160045260246000fd5b61102482610f76565b810181811067ffffffffffffffff8211171561104357611042610fec565b5b80604052505050565b6000611056610e91565b9050611062828261101b565b919050565b600067ffffffffffffffff82111561108257611081610fec565b5b61108b82610f76565b9050602081019050919050565b82818337600083830152505050565b60006110ba6110b584611067565b61104c565b9050828152602081018484840111156110d6576110d5610fe7565b5b6110e1848285611098565b509392505050565b600082601f8301126110fe576110fd610fe2565b5b813561110e8482602086016110a7565b91505092915050565b60006020828403121561112d5761112c610e9b565b5b600082013567ffffffffffffffff81111561114b5761114a610ea0565b5b611157848285016110e9565b91505092915050565b600067ffffffffffffffff82111561117b5761117a610fec565b5b602082029050602081019050919050565b600080fd5b60006111a461119f84611160565b61104c565b905080838252602082019050602084028301858111156111c7576111c661118c565b5b835b8181101561120e57803567ffffffffffffffff8111156111ec576111eb610fe2565b5b8086016111f989826110e9565b855260208501945050506020810190506111c9565b5050509392505050565b600082601f83011261122d5761122c610fe2565b5b813561123d848260208601611191565b91505092915050565b6000806040838503121561125d5761125c610e9b565b5b600083013567ffffffffffffffff81111561127b5761127a610ea0565b5b61128785828601611218565b925050602083013567ffffffffffffffff8111156112a8576112a7610ea0565b5b6112b485828601611218565b9150509250929050565b6000819050919050565b6112d1816112be565b81146112dc57600080fd5b50565b6000813590506112ee816112c8565b92915050565b6000806040838503121561130b5761130a610e9b565b5b6000611319858286016112df565b925050602061132a858286016112df565b9150509250929050565b60007fff0000000000000000000000000000000000000000000000000000000000000082169050919050565b61136981611334565b811461137457600080fd5b50565b60008135905061138681611360565b92915050565b6000602082840312156113a2576113a1610e9b565b5b60006113b084828501611377565b91505092915050565b6000806000606084860312156113d2576113d1610e9b565b5b60006113e0868287016112df565b93505060206113f1868287016112df565b925050604084013567ffffffffffffffff81111561141257611411610ea0565b5b61141e868287016110e9565b9150509250925092565b60006020828403121561143e5761143d610e9b565b5b600061144c848285016112df565b91505092915050565b600067ffffffffffffffff8211156114705761146f610fec565b5b61147982610f76565b9050602081019050919050565b600061149961149484611455565b61104c565b9050828152602081018484840111156114b5576114b4610fe7565b5b6114c0848285611098565b509392505050565b600082601f8301126114dd576114dc610fe2565b5b81356114ed848260208601611486565b91505092915050565b60008060006060848603121561150f5761150e610e9b565b5b600084013567ffffffffffffffff81111561152d5761152c610ea0565b5b611539868287016114c8565b935050602061154a868287016112df565b925050604061155b868287016112df565b9150509250925092565b60006020828403121561157b5761157a610e9b565b5b600082013567ffffffffffffffff81111561159957611598610ea0565b5b6115a5848285016114c8565b91505092915050565b7f4368616d62657220230000000000000000000000000000000000000000000000815250565b600081905092915050565b60006115ea82610f30565b6115f481856115d4565b9350611604818560208601610f4c565b80840191505092915050565b600061161b826115ae565b60098201915061162b82846115df565b915081905092915050565b7f4e487b7100000000000000000000000000000000000000000000000000000000600052603260045260246000fd5b7f4e487b7100000000000000000000000000000000000000000000000000000000600052601160045260246000fd5b600061169f826112be565b91506116aa836112be565b92508282039050818111156116c2576116c1611665565b5b92915050565b7f7b2274726169745f74797065223a220000000000000000000000000000000000815250565b7f222c2276616c7565223a22000000000000000000000000000000000000000000815250565b7f227d000000000000000000000000000000000000000000000000000000000000815250565b600061174682876115df565b9150611751826116c8565b600f8201915061176182866115df565b915061176c826116ee565b600b8201915061177c82856115df565b915061178782611714565b60028201915061179782846115df565b915081905095945050505050565b60006117b0826112be565b91507fffffffffffffffffffffffffffffffffffffffffffffffffffffffffffffffff82036117e2576117e1611665565b5b600182019050919050565b60006117f8826112be565b9150611803836112be565b9250817fffffffffffffffffffffffffffffffffffffffffffffffffffffffffffffffff048311821515161561183c5761183b611665565b5b828202905092915050565b6000611852826112be565b915061185d836112be565b925082820190508082111561187557611874611665565b5b92915050565b6000611886826112be565b91506000820361189957611898611665565b5b600182039050919050565b600082825260208201905092915050565b7f537472696e67733a20686578206c656e67746820696e73756666696369656e74600082015250565b60006118eb6020836118a4565b91506118f6826118b5565b602082019050919050565b6000602082019050818103600083015261191a816118de565b9050919050565b7f5300000000000000000000000000000000000000000000000000000000000000815250565b600061195282611921565b60018201915061196282846115df565b915081905092915050565b7f4e00000000000000000000000000000000000000000000000000000000000000815250565b600061199e8261196d565b6001820191506119ae82846115df565b915081905092915050565b7f5700000000000000000000000000000000000000000000000000000000000000815250565b60006119eb82856115df565b91506119f6826119b9565b600182019150611a0682846115df565b91508190509392505050565b7f4500000000000000000000000000000000000000000000000000000000000000815250565b6000611a4482856115df565b9150611a4f82611a12565b600182019150611a5f82846115df565b91508190509392505050565b7f5900000000000000000000000000000000000000000000000000000000000000815250565b6000611a9d82856115df565b9150611aa882611a6b565b600182019150611ab882846115df565b91508190509392505050565b6000611ad082866115df565b9150611adc82856115df565b9150611ae882846115df565b9150819050949350505050565b7f537472696e67733a20686578207374617274206f766572666c6f770000000000600082015250565b6000611b2b601b836118a4565b9150611b3682611af5565b602082019050919050565b60006020820190508181036000830152611b5a81611b1e565b9050919050565b7f537472696e67733a20686578206c656e677468206f766572666c6f7700000000600082015250565b6000611b97601c836118a4565b9150611ba282611b61565b602082019050919050565b60006020820190508181036000830152611bc681611b8a565b9050919050565b7f4e487b7100000000000000000000000000000000000000000000000000000000600052601260045260246000fdfea264697066735822122098a08766ec70c6bc47554bc7e983edbda1cdd66f24d799c2d68a5a728b473b7564736f6c63430008100033",
  "immutableReferences": {},
  "source": "// SPDX-License-Identifier: MIT\n//\n//    \n//             \n//              \n//              \n//              \n//          \n//        \n//      \n//\n// https://endlesscrawler.io\n// @EndlessCrawler\n//\n/// @title Endless Crawler Game Definitions and Library\n/// @author Studio Avante\n/// @notice Contains common definitions and functions\n//\npragma solidity ^0.8.16;\n\nlibrary Crawl {\n\n  //-----------------------------------\n  // ChamberSeed, per token static data\n  // generated on mint, stored on-chain\n  //\n\tstruct ChamberSeed {\n\t\tuint256 tokenId;\n\t\tuint256 seed;\n\t\tuint232 yonder;\n\t\tuint8 chapter;\n\t\tCrawl.Terrain terrain;\n\t\tCrawl.Dir entryDir;\n\t}\n\n\n  //------------------------------------\n  // ChamberData, per token dynamic data\n  // generated on demand\n  //\n\tstruct ChamberData {\n\t\t// from ChamberSeed (static)\n\t\tuint256 coord;\n\t\tuint256 tokenId;\n\t\tuint256 seed;\n\t\tuint232 yonder;\n\t\tuint8 chapter;\t\t\t// Chapter minted\n\t\tCrawl.Terrain terrain;\n\t\tCrawl.Dir entryDir;\n\n\t\t// generated on demand (deterministic)\n\t\tCrawl.Hoard hoard;\n\t\tuint8 gemPos;\t\t\t\t// gem bitmap position\n\n\t\t// dynamic until all doors are unlocked\n\t\tuint8[4] doors; \t\t// bitmap position in NEWS order\n\t\tuint8[4] locks; \t\t// lock status in NEWS order\n\n\t\t// optional\n\t\tuint256 bitmap;\t\t\t// bit map, 0 is void/walls, 1 is path\n\t\tbytes tilemap;\t\t\t// tile map\n\n\t\t// custom data\n\t\tCustomData[] customData;\n\t}\n\n\tstruct Hoard {\n\t\tCrawl.Gem gemType;\n\t\tuint16 coins;\t\t// coins value\n\t\tuint16 worth;\t\t// gem + coins value\n\t}\n\n\tenum CustomDataType {\n\t\tCustom0, Custom1, Custom2, Custom3, Custom4,\n\t\tCustom5, Custom6, Custom7, Custom8, Custom9,\n\t\tTile,\n\t\tPalette,\n\t\tBackground,\n\t\tForeground,\n\t\tCharSet,\n\t\tMusic\n\t}\n\n\tstruct CustomData {\n\t\tCustomDataType dataType;\n\t\tbytes data;\n\t}\n\n\n\t//-----------------------\n\t// Terrain types\n\t//\n\t// 2 Water | 3 Air\n\t// --------|--------\n\t// 1 Earth | 4 Fire\n\t//\n\tenum Terrain {\n\t\tEmpty,\t// 0\n\t\tEarth,\t// 1\n\t\tWater,\t// 2\n\t\tAir,\t\t// 3\n\t\tFire\t\t// 4\n\t}\n\n\t/// @dev Returns the opposite of a Terrain\n\t// Opposite terrains cannot access to each other\n\t// Earth <> Air\n\t// Water <> Fire\n\tfunction getOppositeTerrain(Crawl.Terrain terrain) internal pure returns (Crawl.Terrain) {\n\t\tuint256 t = uint256(terrain);\n\t\treturn t >= 3 ? Crawl.Terrain(t-2) : t >= 1 ? Crawl.Terrain(t+2) : Crawl.Terrain.Empty;\n\t}\n\n\t//-----------------------\n\t// Gem types\n\t//\n\tenum Gem {\n\t\tSilver,\t\t\t// 0\n\t\tGold,\t\t\t\t// 1\n\t\tSapphire,\t\t// 2\n\t\tEmerald,\t\t// 3\n\t\tRuby,\t\t\t\t// 4\n\t\tDiamond,\t\t// 5\n\t\tEthernite,\t// 6\n\t\tKao,\t\t\t\t// 7\n\t\tCoin\t\t\t\t// 8 (not a gem!)\n\t}\n\n\t/// @dev Returns the Worth value of a Gem\n\tfunction getGemValue(Crawl.Gem gem) internal pure returns (uint16) {\n\t\tif (gem == Crawl.Gem.Silver) return 50;\n\t\tif (gem == Crawl.Gem.Gold) return 100;\n\t\tif (gem == Crawl.Gem.Sapphire) return 150;\n\t\tif (gem == Crawl.Gem.Emerald) return 200;\n\t\tif (gem == Crawl.Gem.Ruby) return 300;\n\t\tif (gem == Crawl.Gem.Diamond) return 500;\n\t\tif (gem == Crawl.Gem.Ethernite) return 800;\n\t\treturn 1001; // Crawl.Gem.Kao\n\t}\n\n\t/// @dev Calculates a Chamber Worth value\n\tfunction calcWorth(Crawl.Gem gem, uint16 coins) internal pure returns (uint16) {\n\t\treturn getGemValue(gem) + coins;\n\t}\n\n\t//--------------------------\n\t// Directions, in NEWS order\n\t//\n\tenum Dir {\n\t\tNorth,\t// 0\n\t\tEast,\t\t// 1\n\t\tWest,\t\t// 2\n\t\tSouth\t\t// 3\n\t}\n\tuint256 internal constant mask_South = uint256(type(uint64).max);\n\tuint256 internal constant mask_West = (mask_South << 64);\n\tuint256 internal constant mask_East = (mask_South << 128);\n\tuint256 internal constant mask_North = (mask_South << 192);\n\n\t/// @dev Flips a direction\n\t/// North <> South\n\t/// East <> West\n\tfunction flipDir(Crawl.Dir dir) internal pure returns (Crawl.Dir) {\n\t\treturn Crawl.Dir(3 - uint256(dir));\n\t}\n\n\t/// @dev Flips a door possition at a direction to connect to neighboring chamber\n\tfunction flipDoorPosition(uint8 doorPos, Crawl.Dir dir) internal pure returns (uint8 result) {\n\t\tif (dir == Crawl.Dir.North) return doorPos > 0 ? doorPos + (15 * 16) : 0;\n\t\tif (dir == Crawl.Dir.South) return doorPos > 0 ? doorPos - (15 * 16) : 0;\n\t\tif (dir == Crawl.Dir.West) return doorPos > 0 ? doorPos + 15 : 0;\n\t\treturn doorPos > 0 ? doorPos - 15 : 0; // Crawl.Dir.East\n\t}\n\n\t//-----------------------\n\t// Coords\n\t//\t\n\t// coords have 4 components packed in uint256\n\t// in NEWS direction:\n\t// (N)orth, (E)ast, (W)est, (S)outh\n\t// o-------o-------o-------o-------o\n\t// 0       32     128     192    256\n\n\t/// @dev Extracts the North component from a Chamber coordinate\n\tfunction getNorth(uint256 coord) internal pure returns (uint256 result) {\n\t\treturn (coord >> 192);\n\t}\n\t/// @dev Extracts the East component from a Chamber coordinate\n\tfunction getEast(uint256 coord) internal pure returns (uint256) {\n\t\treturn ((coord & mask_East) >> 128);\n\t}\n\t/// @dev Extracts the West component from a Chamber coordinate\n\tfunction getWest(uint256 coord) internal pure returns (uint256) {\n\t\treturn ((coord & mask_West) >> 64);\n\t}\n\t/// @dev Extracts the South component from a Chamber coordinate\n\tfunction getSouth(uint256 coord) internal pure returns (uint256) {\n\t\treturn coord & mask_South;\n\t}\n\n\t/// @dev Builds a Chamber coordinate from its direction components\n\t/// a coord is composed of 4 uint64 components packed in a uint256\n\t/// Components are combined in NEWS order: Nort, East, West, South\n\t/// @param north North component, zero if South\n\t/// @param east East component, zero id West\n\t/// @param west West component, zero if East\n\t/// @param south South component, zero if North\n\t/// @return result Chamber coordinate\n\tfunction makeCoord(uint256 north, uint256 east, uint256 west, uint256 south) internal pure returns (uint256 result) {\n\t\t// North or South need to be positive, but not both\n\t\tif(north > 0) {\n\t\t\trequire(south == 0, 'Crawl.makeCoord(): bad North/South');\n\t\t\tresult += (north << 192);\n\t\t} else if(south > 0) {\n\t\t\tresult += south;\n\t\t} else {\n\t\t\trevert('Crawl.makeCoord(): need North or South');\n\t\t}\n\t\t// West or East need to be positive, but not both\n\t\tif(east > 0) {\n\t\t\trequire(west == 0, 'Crawl.makeCoord(): bad West/East');\n\t\t\tresult += (east << 128);\n\t\t} else if(west > 0) {\n\t\t\tresult += (west << 64);\n\t\t} else {\n\t\t\trevert('Crawl.makeCoord(): need West or East');\n\t\t}\n\t}\n\n\t/// @dev Offsets a Chamber coordinate in one direction\n\t/// @param coord Chamber coordinate\n\t/// @param dir Direction to offset\n\t/// @return coord The new coordinate. If reached limits, return same coord\n\t// TODO: Use assembly?\n\tfunction offsetCoord(uint256 coord, Crawl.Dir dir) internal pure returns (uint256) {\n\t\tif(dir == Crawl.Dir.North) {\n\t\t\tif(coord & mask_South > 1) return coord - 1; // --South\n\t\t\tif(coord & mask_North != mask_North) return (coord & ~mask_South) + (1 << 192); // ++North\n\t\t} else if(dir == Crawl.Dir.East) {\n\t\t\tif(coord & mask_West > (1 << 64)) return coord - (1 << 64); // --West\n\t\t\tif(coord & mask_East != mask_East) return (coord & ~mask_West) + (1 << 128); // ++East\n\t\t} else if(dir == Crawl.Dir.West) {\n\t\t\tif(coord & mask_East > (1 << 128)) return coord - (1 << 128); // --East\n\t\t\tif(coord & mask_West != mask_West) return (coord & ~mask_East) + (1 << 64); // ++West\n\t\t} else { //if(dir == Crawl.Dir.South) {\n\t\t\tif(coord & mask_North > (1 << 192)) return coord - (1 << 192); // --North\n\t\t\tif(coord & mask_South != mask_South) return (coord & ~mask_North) + 1; // ++South\n\t\t}\n\t\treturn coord;\n\t}\n\n\n\t//-----------------------\n\t// String Builders\n\t//\n\n\t/// @dev Returns a token description for tokenURI()\n\tfunction tokenName(string memory tokenId) public pure returns (string memory) {\n\t\treturn string.concat('Chamber #', tokenId);\n\t}\n\n\t/// @dev Short string representation of a Chamebr coordinate and Yonder\n\tfunction coordsToString(uint256 coord, uint256 yonder, string memory separator) public pure returns (string memory) {\n\t\treturn string.concat(\n\t\t\t((coord & Crawl.mask_North) > 0\n\t\t\t\t? string.concat('N', toString((coord & Crawl.mask_North)>>192))\n\t\t\t\t: string.concat('S', toString(coord & Crawl.mask_South))),\n\t\t\t((coord & Crawl.mask_East) > 0\n\t\t\t\t? string.concat(separator, 'E', toString((coord & Crawl.mask_East)>>128))\n\t\t\t\t: string.concat(separator, 'W', toString((coord & Crawl.mask_West)>>64))),\n\t\t\t(yonder > 0 ? string.concat(separator, 'Y', toString(yonder)) : '')\n\t\t);\n\t}\n\n\t/// @dev Renders IERC721Metadata attributes for tokenURI()\n\t/// Reference: https://docs.opensea.io/docs/metadata-standards\n\tfunction renderAttributesMetadata(string[] memory labels, string[] memory values) public pure returns (string memory result) {\n\t\tfor(uint256 i = 0 ; i < labels.length ; ++i) {\n\t\t\tresult = string.concat(result,\n\t\t\t\t'{'\n\t\t\t\t\t'\"trait_type\":\"', labels[i], '\",'\n\t\t\t\t\t'\"value\":\"', values[i], '\"'\n\t\t\t\t'}',\n\t\t\t\t(i < (labels.length - 1) ? ',' : '')\n\t\t\t);\n\t\t}\n\t}\n\n\t/// @dev Returns a Chamber metadata, without maps\n\t/// @param chamber The Chamber, no maps required\n\t/// @return metadata Metadata, as plain json string\n\tfunction renderChamberMetadata(Crawl.ChamberData memory chamber, string memory additionalMetadata) internal pure returns (string memory) {\n\t\treturn string.concat(\n\t\t\t'{'\n\t\t\t\t'\"tokenId\":\"', toString(chamber.tokenId), '\",'\n\t\t\t\t'\"name\":\"', tokenName(toString(chamber.tokenId)), '\",'\n\t\t\t\t'\"chapter\":\"', toString(chamber.chapter), '\",'\n\t\t\t\t'\"terrain\":\"', toString(uint256(chamber.terrain)), '\",'\n\t\t\t\t'\"gem\":\"', toString(uint256(chamber.hoard.gemType)), '\",'\n\t\t\t\t'\"coins\":\"', toString(chamber.hoard.coins), '\",'\n\t\t\t\t'\"worth\":\"', toString(chamber.hoard.worth), '\",'\n\t\t\t\t'\"coord\":\"', toString(chamber.coord), '\",'\n\t\t\t\t'\"yonder\":\"', toString(chamber.yonder), '\",',\n\t\t\t\t_renderCompassMetadata(chamber.coord),\n\t\t\t\t_renderLocksMetadata(chamber.locks),\n\t\t\t\tadditionalMetadata,\n\t\t\t'}'\n\t\t);\n\t}\n\tfunction _renderCompassMetadata(uint256 coord) private pure returns (string memory) {\n\t\treturn string.concat(\n\t\t\t'\"compass\":{',\n\t\t\t\t((coord & Crawl.mask_North) > 0\n\t\t\t\t\t? string.concat('\"north\":\"', toString((coord & Crawl.mask_North)>>192))\n\t\t\t\t\t: string.concat('\"south\":\"', toString(coord & Crawl.mask_South))),\n\t\t\t\t((coord & Crawl.mask_East) > 0\n\t\t\t\t\t? string.concat('\",\"east\":\"', toString((coord & Crawl.mask_East)>>128))\n\t\t\t\t\t: string.concat('\",\"west\":\"', toString((coord & Crawl.mask_West)>>64))),\n\t\t\t'\"},'\n\t\t);\n\t}\n\tfunction _renderLocksMetadata(uint8[4] memory locks) private pure returns (string memory) {\n\t\treturn string.concat(\n\t\t\t'\"locks\":[',\n\t\t\t\t(locks[0] == 0 ? 'false,' : 'true,'),\n\t\t\t\t(locks[1] == 0 ? 'false,' : 'true,'),\n\t\t\t\t(locks[2] == 0 ? 'false,' : 'true,'),\n\t\t\t\t(locks[3] == 0 ? 'false' : 'true'),\n\t\t\t'],'\n\t\t);\n\t}\n\n\n\t//-----------------------\n\t// Utils\n\t//\n\n\t/// @dev converts uint8 tile position to a bitmap position mask\n\tfunction tilePosToBitmap(uint8 tilePos) internal pure returns (uint256) {\n\t\treturn (1 << (255 - tilePos));\n\t}\n\n\t/// @dev overSeed has ~50% more bits\n\tfunction overSeed(uint256 seed_) internal pure returns (uint256) {\n\t\treturn seed_ | uint256(keccak256(abi.encodePacked(seed_)));\n\t}\n\n\t/// @dev underSeed has ~50% less bits\n\tfunction underSeed(uint256 seed_) internal pure returns (uint256) {\n\t\treturn seed_ & uint256(keccak256(abi.encodePacked(seed_)));\n\t}\n\n\t/// @dev maps seed value modulus to range\n\tfunction mapSeed(uint256 seed_, uint256 min_, uint256 maxExcl_) internal pure returns (uint256) {\n\t\treturn min_ + (seed_ % (maxExcl_ - min_));\n\t}\n\n\t/// @dev maps seed value modulus to bitmap position (takes 8 bits)\n\t/// the position lands in a 12x12 space at the center of the 16x16 map\n\tfunction mapSeedToBitmapPosition(uint256 seed_) internal pure returns (uint8) {\n\t\tuint8 i = uint8(seed_ % 144);\n\t\treturn ((i / 12) + 2) * 16 + (i % 12) + 2;\n\t}\n\n\t/// @dev min function\n\tfunction min(uint256 a, uint256 b) internal pure returns (uint256) {\n\t\treturn a < b ? a : b;\n\t}\n\n\t/// @dev max function\n\tfunction max(uint256 a, uint256 b) internal pure returns (uint256) {\n\t\treturn a > b ? a : b;\n\t}\n\n\t//-----------------------------\n\t// OpenZeppelin Strings library\n\t// https://github.com/OpenZeppelin/openzeppelin-contracts/blob/release-v4.8/contracts/utils/Strings.sol\n\t// https://github.com/OpenZeppelin/openzeppelin-contracts/blob/release-v4.8/contracts/utils/math/Math.sol\n\t//\n\tbytes16 private constant _SYMBOLS = \"0123456789abcdef\";\n\tuint8 private constant _ADDRESS_LENGTH = 20;\n\n\t/// @dev Return the log in base 10, rounded down, of a positive value.\n\tfunction log10(uint256 value) private pure returns (uint256) {\n\t\tuint256 result = 0;\n\t\tunchecked {\n\t\t\tif (value >= 10**64) { value /= 10**64; result += 64; }\n\t\t\tif (value >= 10**32) { value /= 10**32; result += 32; }\n\t\t\tif (value >= 10**16) { value /= 10**16; result += 16; }\n\t\t\tif (value >= 10**8) { value /= 10**8; result += 8; }\n\t\t\tif (value >= 10**4) { value /= 10**4; result += 4; }\n\t\t\tif (value >= 10**2) { value /= 10**2; result += 2; }\n\t\t\tif (value >= 10**1) { result += 1; }\n\t\t}\n\t\treturn result;\n\t}\n\n\t/// @dev Return the log in base 256, rounded down, of a positive value.\n\tfunction log256(uint256 value) private pure returns (uint256) {\n\t\tuint256 result = 0;\n\t\tunchecked {\n\t\t\tif (value >> 128 > 0) { value >>= 128; result += 16; }\n\t\t\tif (value >> 64 > 0) { value >>= 64; result += 8; }\n\t\t\tif (value >> 32 > 0) { value >>= 32; result += 4; }\n\t\t\tif (value >> 16 > 0) { value >>= 16; result += 2; }\n\t\t\tif (value >> 8 > 0) { result += 1; }\n\t\t}\n\t\treturn result;\n\t}\n\n\t/// @dev Converts a `uint256` to its ASCII `string` decimal representation.\n\tfunction toString(uint256 value) internal pure returns (string memory) {\n\t\tunchecked {\n\t\t\tuint256 length = log10(value) + 1;\n\t\t\tstring memory buffer = new string(length);\n\t\t\tuint256 ptr;\n\t\t\t/// @solidity memory-safe-assembly\n\t\t\tassembly {\n\t\t\t\tptr := add(buffer, add(32, length))\n\t\t\t}\n\t\t\twhile (true) {\n\t\t\t\tptr--;\n\t\t\t\t/// @solidity memory-safe-assembly\n\t\t\t\tassembly {\n\t\t\t\t\tmstore8(ptr, byte(mod(value, 10), _SYMBOLS))\n\t\t\t\t}\n\t\t\t\tvalue /= 10;\n\t\t\t\tif (value == 0) break;\n\t\t\t}\n\t\t\treturn buffer;\n\t\t}\n\t}\n\n\t/// @dev Converts a `uint256` to its ASCII `string` hexadecimal representation.\n\t/// defined as public to be excluded from the contract ABI and avoid Stack Too Deep error\n\tfunction toHexString(uint256 value) public pure returns (string memory) {\n\t\tunchecked {\n\t\t\treturn toHexString(value, log256(value) + 1);\n\t\t}\n\t}\n\n\t/// @dev Converts a `uint256` to its ASCII `string` hexadecimal representation with fixed length.\n\t/// defined as public to be excluded from the contract ABI and avoid Stack Too Deep error\n\tfunction toHexString(uint256 value, uint256 length) public pure returns (string memory) {\n\t\tbytes memory buffer = new bytes(2 * length + 2);\n\t\tbuffer[0] = \"0\";\n\t\tbuffer[1] = \"x\";\n\t\tfor (uint256 i = 2 * length + 1; i > 1; --i) {\n\t\t\tbuffer[i] = _SYMBOLS[value & 0xf];\n\t\t\tvalue >>= 4;\n\t\t}\n\t\trequire(value == 0, \"Strings: hex length insufficient\");\n\t\treturn string(buffer);\n\t}\n\n\t/// @dev Converts an `address` with fixed length of 20 bytes to its not checksummed ASCII `string` hexadecimal representation.\n\tfunction toHexString(address addr) public pure returns (string memory) {\n\t\treturn toHexString(uint256(uint160(addr)), _ADDRESS_LENGTH);\n\t}\n\n\t/// @dev Converts a single `bytes1` to its ASCII `string` hexadecimal\n\tfunction toHexString(bytes1 value) public pure returns (string memory) {\n\t\tbytes memory buffer = new bytes(2);\n\t\tbuffer[0] = _SYMBOLS[uint8(value>>4) & 0xf];\n\t\tbuffer[1] = _SYMBOLS[uint8(value) & 0xf];\n\t\treturn string(buffer);\n\t}\n\n\t/// @dev Converts a `bytes` to its ASCII `string` hexadecimal, without '0x' prefix\n\tfunction toHexString(bytes memory value, uint256 start, uint256 length) public pure returns (string memory) {\n\t\trequire(start < value.length, \"Strings: hex start overflow\");\n\t\trequire(start + length <= value.length, \"Strings: hex length overflow\");\n\t\tbytes memory buffer = new bytes(2 * length);\n\t\tfor (uint256 i = 0; i < length; i++) {\n\t\t\tbuffer[i*2+0] = _SYMBOLS[uint8(value[start+i]>>4) & 0xf];\n\t\t\tbuffer[i*2+1] = _SYMBOLS[uint8(value[start+i]) & 0xf];\n\t\t}\n\t\treturn string(buffer);\n\t}\n\t/// @dev Converts a `bytes` to its ASCII `string` hexadecimal, without '0x' prefix\n\tfunction toHexString(bytes memory value) public pure returns (string memory) {\n\t\treturn toHexString(value, 0, value.length);\n\t}\n\n}\n",
  "sourcePath": "/Users/roger/Dev/Blockchain/Truffle/ec-crawler/contracts/Crawl.sol",
  "compiler": {
    "name": "solc",
    "version": "0.8.16+commit.07a7930e.Emscripten.clang"
  },
  "schemaVersion": "3.4.11",
  "updatedAt": "2022-12-05T06:38:13.927Z",
  "networkType": "ethereum",
  "devdoc": {
    "kind": "dev",
    "methods": {
      "coordsToString(uint256,uint256,string)": {
        "details": "Short string representation of a Chamebr coordinate and Yonder"
      },
      "renderAttributesMetadata(string[],string[])": {
        "details": "Renders IERC721Metadata attributes for tokenURI() Reference: https://docs.opensea.io/docs/metadata-standards"
      },
      "toHexString(address)": {
        "details": "Converts an `address` with fixed length of 20 bytes to its not checksummed ASCII `string` hexadecimal representation."
      },
      "toHexString(bytes)": {
        "details": "Converts a `bytes` to its ASCII `string` hexadecimal, without '0x' prefix"
      },
      "toHexString(bytes,uint256,uint256)": {
        "details": "Converts a `bytes` to its ASCII `string` hexadecimal, without '0x' prefix"
      },
      "toHexString(bytes1)": {
        "details": "Converts a single `bytes1` to its ASCII `string` hexadecimal"
      },
      "toHexString(uint256)": {
        "details": "Converts a `uint256` to its ASCII `string` hexadecimal representation. defined as public to be excluded from the contract ABI and avoid Stack Too Deep error"
      },
      "toHexString(uint256,uint256)": {
        "details": "Converts a `uint256` to its ASCII `string` hexadecimal representation with fixed length. defined as public to be excluded from the contract ABI and avoid Stack Too Deep error"
      },
      "tokenName(string)": {
        "details": "Returns a token description for tokenURI()"
      }
    },
    "version": 1
  },
  "userdoc": {
    "kind": "user",
    "methods": {},
    "version": 1
  }
}