{
  "contractName": "CrawlerGeneratorV2",
  "abi": [
    {
      "inputs": [],
      "stateMutability": "nonpayable",
      "type": "constructor"
    },
    {
      "inputs": [],
      "name": "contractChapterNumber",
      "outputs": [
        {
          "internalType": "uint8",
          "name": "",
          "type": "uint8"
        }
      ],
      "stateMutability": "view",
      "type": "function"
    },
    {
      "inputs": [],
      "name": "contractName",
      "outputs": [
        {
          "internalType": "string",
          "name": "",
          "type": "string"
        }
      ],
      "stateMutability": "view",
      "type": "function"
    },
    {
      "inputs": [],
      "name": "contractVersion",
      "outputs": [
        {
          "internalType": "uint8",
          "name": "",
          "type": "uint8"
        }
      ],
      "stateMutability": "view",
      "type": "function"
    },
    {
      "inputs": [
        {
          "internalType": "bytes4",
          "name": "interfaceId",
          "type": "bytes4"
        }
      ],
      "name": "supportsInterface",
      "outputs": [
        {
          "internalType": "bool",
          "name": "",
          "type": "bool"
        }
      ],
      "stateMutability": "view",
      "type": "function"
    },
    {
      "inputs": [
        {
          "components": [
            {
              "internalType": "uint256",
              "name": "coord",
              "type": "uint256"
            },
            {
              "internalType": "uint256",
              "name": "tokenId",
              "type": "uint256"
            },
            {
              "internalType": "uint256",
              "name": "seed",
              "type": "uint256"
            },
            {
              "internalType": "uint232",
              "name": "yonder",
              "type": "uint232"
            },
            {
              "internalType": "uint8",
              "name": "chapter",
              "type": "uint8"
            },
            {
              "internalType": "enum Crawl.Terrain",
              "name": "terrain",
              "type": "uint8"
            },
            {
              "internalType": "enum Crawl.Dir",
              "name": "entryDir",
              "type": "uint8"
            },
            {
              "components": [
                {
                  "internalType": "enum Crawl.Gem",
                  "name": "gemType",
                  "type": "uint8"
                },
                {
                  "internalType": "uint16",
                  "name": "coins",
                  "type": "uint16"
                },
                {
                  "internalType": "uint16",
                  "name": "worth",
                  "type": "uint16"
                }
              ],
              "internalType": "struct Crawl.Hoard",
              "name": "hoard",
              "type": "tuple"
            },
            {
              "internalType": "uint8",
              "name": "gemPos",
              "type": "uint8"
            },
            {
              "internalType": "uint8[4]",
              "name": "doors",
              "type": "uint8[4]"
            },
            {
              "internalType": "uint8[4]",
              "name": "locks",
              "type": "uint8[4]"
            },
            {
              "internalType": "uint256",
              "name": "bitmap",
              "type": "uint256"
            },
            {
              "internalType": "bytes",
              "name": "tilemap",
              "type": "bytes"
            },
            {
              "components": [
                {
                  "internalType": "enum Crawl.CustomDataType",
                  "name": "dataType",
                  "type": "uint8"
                },
                {
                  "internalType": "bytes",
                  "name": "data",
                  "type": "bytes"
                }
              ],
              "internalType": "struct Crawl.CustomData[]",
              "name": "customData",
              "type": "tuple[]"
            }
          ],
          "internalType": "struct Crawl.ChamberData",
          "name": "chamber",
          "type": "tuple"
        }
      ],
      "name": "generateCustomChamberData",
      "outputs": [
        {
          "components": [
            {
              "internalType": "enum Crawl.CustomDataType",
              "name": "dataType",
              "type": "uint8"
            },
            {
              "internalType": "bytes",
              "name": "data",
              "type": "bytes"
            }
          ],
          "internalType": "struct Crawl.CustomData[]",
          "name": "result",
          "type": "tuple[]"
        }
      ],
      "stateMutability": "pure",
      "type": "function"
    },
    {
      "inputs": [
        {
          "internalType": "uint256",
          "name": "seed",
          "type": "uint256"
        }
      ],
      "name": "generateHatchPos",
      "outputs": [
        {
          "internalType": "uint8",
          "name": "",
          "type": "uint8"
        }
      ],
      "stateMutability": "pure",
      "type": "function"
    }
  ],
  "bytecode": "0x60806040523480156200001157600080fd5b506200005b6040518060400160405280600981526020017f47656e657261746f7200000000000000000000000000000000000000000000008152506002806200006160201b60201c565b6200040e565b826001908162000072919062000327565b50816000806101000a81548160ff021916908360ff16021790555080600060016101000a81548160ff021916908360ff160217905550505050565b600081519050919050565b7f4e487b7100000000000000000000000000000000000000000000000000000000600052604160045260246000fd5b7f4e487b7100000000000000000000000000000000000000000000000000000000600052602260045260246000fd5b600060028204905060018216806200012f57607f821691505b602082108103620001455762000144620000e7565b5b50919050565b60008190508160005260206000209050919050565b60006020601f8301049050919050565b600082821b905092915050565b600060088302620001af7fffffffffffffffffffffffffffffffffffffffffffffffffffffffffffffffff8262000170565b620001bb868362000170565b95508019841693508086168417925050509392505050565b6000819050919050565b6000819050919050565b60006200020862000202620001fc84620001d3565b620001dd565b620001d3565b9050919050565b6000819050919050565b6200022483620001e7565b6200023c62000233826200020f565b8484546200017d565b825550505050565b600090565b6200025362000244565b6200026081848462000219565b505050565b5b8181101562000288576200027c60008262000249565b60018101905062000266565b5050565b601f821115620002d757620002a1816200014b565b620002ac8462000160565b81016020851015620002bc578190505b620002d4620002cb8562000160565b83018262000265565b50505b505050565b600082821c905092915050565b6000620002fc60001984600802620002dc565b1980831691505092915050565b6000620003178383620002e9565b9150826002028217905092915050565b6200033282620000ad565b67ffffffffffffffff8111156200034e576200034d620000b8565b5b6200035a825462000116565b620003678282856200028c565b600060209050601f8311600181146200039f57600084156200038a578287015190505b62000396858262000309565b86555062000406565b601f198416620003af866200014b565b60005b82811015620003d957848901518255600182019150602085019450602081019050620003b2565b86831015620003f95784890151620003f5601f891682620002e9565b8355505b6001600288020188555050505b505050505050565b61146b806200041e6000396000f3fe608060405234801561001057600080fd5b50600436106100625760003560e01c806301ffc9a7146100675780630b372f28146100975780635c322f26146100c757806375d0c0dc146100e5578063a0a8e46014610103578063f2c7859714610121575b600080fd5b610081600480360381019061007c91906106f1565b610151565b60405161008e9190610739565b60405180910390f35b6100b160048036038101906100ac919061078a565b6101cb565b6040516100be91906107d3565b60405180910390f35b6100cf6101e1565b6040516100dc91906107d3565b60405180910390f35b6100ed610248565b6040516100fa919061087e565b60405180910390f35b61010b61032b565b60405161011891906107d3565b60405180910390f35b61013b60048036038101906101369190610f1b565b610396565b604051610148919061112f565b60405180910390f35b60007ff2c78597000000000000000000000000000000000000000000000000000000007bffffffffffffffffffffffffffffffffffffffffffffffffffffffff1916827bffffffffffffffffffffffffffffffffffffffffffffffffffffffff191614806101c457506101c382610513565b5b9050919050565b60006101da606483901c61058d565b9050919050565b60008060008054906101000a900460ff1660ff1603610235576040517f08c379a000000000000000000000000000000000000000000000000000000000815260040161022c906111c3565b60405180910390fd5b60008054906101000a900460ff16905090565b606060006001805461025990611212565b90501161029b576040517f08c379a0000000000000000000000000000000000000000000000000000000008152600401610292906111c3565b60405180910390fd5b600180546102a890611212565b80601f01602080910402602001604051908101604052809291908181526020018280546102d490611212565b80156103215780601f106102f657610100808354040283529160200191610321565b820191906000526020600020905b81548152906001019060200180831161030457829003601f168201915b5050505050905090565b600080600060019054906101000a900460ff1660ff1603610381576040517f08c379a0000000000000000000000000000000000000000000000000000000008152600401610378906111c3565b60405180910390fd5b600060019054906101000a900460ff16905090565b606060008260200181815250506000806020840152600267ffffffffffffffff8111156103c6576103c56108a5565b5b6040519080825280602002602001820160405280156103ff57816020015b6103ec610659565b8152602001906001900390816103e45790505b509150600061041184604001516101cb565b90506000600385604001516104269190611272565b90506040518060400160405280600a600f81111561044757610446610f90565b5b8152602001838360405160200161045f9291906112d9565b6040516020818303038152906040528152508460008151811061048557610484611305565b5b60200260200101819052506040518060400160405280600b600f8111156104af576104ae610f90565b5b81526020016040518060400160405280600f81526020017efefd00fb000000fafc0000fefdfc000000000000000000000000000000000081525081525084600181518110610500576104ff611305565b5b6020026020010181905250505050919050565b60007f894a0b9a000000000000000000000000000000000000000000000000000000007bffffffffffffffffffffffffffffffffffffffffffffffffffffffff1916827bffffffffffffffffffffffffffffffffffffffffffffffffffffffff191614806105865750610585826105ef565b5b9050919050565b60008060908361059d9190611272565b90506002600c826105ae9190611334565b60106002600c856105bf9190611394565b6105c991906113c5565b6105d391906113fa565b6105dd91906113c5565b6105e791906113c5565b915050919050565b60007f01ffc9a7000000000000000000000000000000000000000000000000000000007bffffffffffffffffffffffffffffffffffffffffffffffffffffffff1916827bffffffffffffffffffffffffffffffffffffffffffffffffffffffff1916149050919050565b60405180604001604052806000600f81111561067857610677610f90565b5b8152602001606081525090565b6000604051905090565b600080fd5b600080fd5b60007fffffffff0000000000000000000000000000000000000000000000000000000082169050919050565b6106ce81610699565b81146106d957600080fd5b50565b6000813590506106eb816106c5565b92915050565b6000602082840312156107075761070661068f565b5b6000610715848285016106dc565b91505092915050565b60008115159050919050565b6107338161071e565b82525050565b600060208201905061074e600083018461072a565b92915050565b6000819050919050565b61076781610754565b811461077257600080fd5b50565b6000813590506107848161075e565b92915050565b6000602082840312156107a05761079f61068f565b5b60006107ae84828501610775565b91505092915050565b600060ff82169050919050565b6107cd816107b7565b82525050565b60006020820190506107e860008301846107c4565b92915050565b600081519050919050565b600082825260208201905092915050565b60005b8381101561082857808201518184015260208101905061080d565b60008484015250505050565b6000601f19601f8301169050919050565b6000610850826107ee565b61085a81856107f9565b935061086a81856020860161080a565b61087381610834565b840191505092915050565b600060208201905081810360008301526108988184610845565b905092915050565b600080fd5b7f4e487b7100000000000000000000000000000000000000000000000000000000600052604160045260246000fd5b6108dd82610834565b810181811067ffffffffffffffff821117156108fc576108fb6108a5565b5b80604052505050565b600061090f610685565b905061091b82826108d4565b919050565b600080fd5b60007cffffffffffffffffffffffffffffffffffffffffffffffffffffffffff82169050919050565b61095781610925565b811461096257600080fd5b50565b6000813590506109748161094e565b92915050565b610983816107b7565b811461098e57600080fd5b50565b6000813590506109a08161097a565b92915050565b600581106109b357600080fd5b50565b6000813590506109c5816109a6565b92915050565b600481106109d857600080fd5b50565b6000813590506109ea816109cb565b92915050565b600981106109fd57600080fd5b50565b600081359050610a0f816109f0565b92915050565b600061ffff82169050919050565b610a2c81610a15565b8114610a3757600080fd5b50565b600081359050610a4981610a23565b92915050565b600060608284031215610a6557610a646108a0565b5b610a6f6060610905565b90506000610a7f84828501610a00565b6000830152506020610a9384828501610a3a565b6020830152506040610aa784828501610a3a565b60408301525092915050565b600080fd5b600067ffffffffffffffff821115610ad357610ad26108a5565b5b602082029050919050565b600080fd5b6000610af6610af184610ab8565b610905565b90508060208402830185811115610b1057610b0f610ade565b5b835b81811015610b395780610b258882610991565b845260208401935050602081019050610b12565b5050509392505050565b600082601f830112610b5857610b57610ab3565b5b6004610b65848285610ae3565b91505092915050565b600080fd5b600067ffffffffffffffff821115610b8e57610b8d6108a5565b5b610b9782610834565b9050602081019050919050565b82818337600083830152505050565b6000610bc6610bc184610b73565b610905565b905082815260208101848484011115610be257610be1610b6e565b5b610bed848285610ba4565b509392505050565b600082601f830112610c0a57610c09610ab3565b5b8135610c1a848260208601610bb3565b91505092915050565b600067ffffffffffffffff821115610c3e57610c3d6108a5565b5b602082029050602081019050919050565b60108110610c5c57600080fd5b50565b600081359050610c6e81610c4f565b92915050565b600060408284031215610c8a57610c896108a0565b5b610c946040610905565b90506000610ca484828501610c5f565b600083015250602082013567ffffffffffffffff811115610cc857610cc7610920565b5b610cd484828501610bf5565b60208301525092915050565b6000610cf3610cee84610c23565b610905565b90508083825260208201905060208402830185811115610d1657610d15610ade565b5b835b81811015610d5d57803567ffffffffffffffff811115610d3b57610d3a610ab3565b5b808601610d488982610c74565b85526020850194505050602081019050610d18565b5050509392505050565b600082601f830112610d7c57610d7b610ab3565b5b8135610d8c848260208601610ce0565b91505092915050565b60006102c08284031215610dac57610dab6108a0565b5b610db76101c0610905565b90506000610dc784828501610775565b6000830152506020610ddb84828501610775565b6020830152506040610def84828501610775565b6040830152506060610e0384828501610965565b6060830152506080610e1784828501610991565b60808301525060a0610e2b848285016109b6565b60a08301525060c0610e3f848285016109db565b60c08301525060e0610e5384828501610a4f565b60e083015250610140610e6884828501610991565b61010083015250610160610e7e84828501610b43565b610120830152506101e0610e9484828501610b43565b61014083015250610260610eaa84828501610775565b6101608301525061028082013567ffffffffffffffff811115610ed057610ecf610920565b5b610edc84828501610bf5565b610180830152506102a082013567ffffffffffffffff811115610f0257610f01610920565b5b610f0e84828501610d67565b6101a08301525092915050565b600060208284031215610f3157610f3061068f565b5b600082013567ffffffffffffffff811115610f4f57610f4e610694565b5b610f5b84828501610d95565b91505092915050565b600081519050919050565b600082825260208201905092915050565b6000819050602082019050919050565b7f4e487b7100000000000000000000000000000000000000000000000000000000600052602160045260246000fd5b60108110610fd057610fcf610f90565b5b50565b6000819050610fe182610fbf565b919050565b6000610ff182610fd3565b9050919050565b61100181610fe6565b82525050565b600081519050919050565b600082825260208201905092915050565b600061102e82611007565b6110388185611012565b935061104881856020860161080a565b61105181610834565b840191505092915050565b60006040830160008301516110746000860182610ff8565b506020830151848203602086015261108c8282611023565b9150508091505092915050565b60006110a5838361105c565b905092915050565b6000602082019050919050565b60006110c582610f64565b6110cf8185610f6f565b9350836020820285016110e185610f80565b8060005b8581101561111d57848403895281516110fe8582611099565b9450611109836110ad565b925060208a019950506001810190506110e5565b50829750879550505050505092915050565b6000602082019050818103600083015261114981846110ba565b905092915050565b7f437261776c6572436f6e74726163743a20436f6e7472616374206e6f7420736560008201527f7475700000000000000000000000000000000000000000000000000000000000602082015250565b60006111ad6023836107f9565b91506111b882611151565b604082019050919050565b600060208201905081810360008301526111dc816111a0565b9050919050565b7f4e487b7100000000000000000000000000000000000000000000000000000000600052602260045260246000fd5b6000600282049050600182168061122a57607f821691505b60208210810361123d5761123c6111e3565b5b50919050565b7f4e487b7100000000000000000000000000000000000000000000000000000000600052601260045260246000fd5b600061127d82610754565b915061128883610754565b92508261129857611297611243565b5b828206905092915050565b60008160f81b9050919050565b60006112bb826112a3565b9050919050565b6112d36112ce826107b7565b6112b0565b82525050565b60006112e582856112c2565b6001820191506112f582846112c2565b6001820191508190509392505050565b7f4e487b7100000000000000000000000000000000000000000000000000000000600052603260045260246000fd5b600061133f826107b7565b915061134a836107b7565b92508261135a57611359611243565b5b828206905092915050565b7f4e487b7100000000000000000000000000000000000000000000000000000000600052601160045260246000fd5b600061139f826107b7565b91506113aa836107b7565b9250826113ba576113b9611243565b5b828204905092915050565b60006113d0826107b7565b91506113db836107b7565b9250828201905060ff8111156113f4576113f3611365565b5b92915050565b6000611405826107b7565b9150611410836107b7565b92508160ff048311821515161561142a57611429611365565b5b82820290509291505056fea2646970667358221220445db703bc9a1efa55303fddb1683bc5221af24f86f2a527a9de3bb45ac6dbb364736f6c63430008100033",
  "immutableReferences": {},
  "source": "// SPDX-License-Identifier: MIT\n//\n//    \n//             \n//              \n//              \n//              \n//          \n//        \n//      \n//\n// https://endlesscrawler.io\n// @EndlessCrawler\n//\n/// @title Endless Crawler Chamber Generator v.2\n/// @author Studio Avante\n/// @notice Creates Chambers bitmap and provide data for ICrawlerMapper\n/// @dev Upgradeable for eventual optimizations, can also be extended to generate new game data\n//\npragma solidity ^0.8.16;\nimport { IERC165 } from '@openzeppelin/contracts/utils/introspection/IERC165.sol';\nimport { Math } from '@openzeppelin/contracts/utils/math/Math.sol';\nimport { CrawlerContract } from '../CrawlerContract.sol';\nimport { ICrawlerGenerator } from '../ICrawlerGenerator.sol';\nimport { Crawl } from '../Crawl.sol';\n\ncontract CrawlerGeneratorV2 is CrawlerContract, ICrawlerGenerator {\n\n\tconstructor() {\n\t\tsetupCrawlerContract('Generator', 2, 2);\n\t}\n\n\t/// @dev implements IERC165\n\tfunction supportsInterface(bytes4 interfaceId) public view virtual override(IERC165, CrawlerContract) returns (bool) {\n\t\treturn interfaceId == type(ICrawlerGenerator).interfaceId || CrawlerContract.supportsInterface(interfaceId);\n\t}\n\n\tfunction generateCustomChamberData(Crawl.ChamberData memory chamber) public pure override returns (Crawl.CustomData[] memory result) {\n\t\tchamber.tokenId = 0; // THIS SHOULD NOT AFFECT MEMORY. If it does, tests will fail\n\t\tuint256 zero = 0;\n\t\tassembly {\n\t\t\tmstore(add(chamber, 32), zero)\n\t\t}\n\n\t\tresult = new Crawl.CustomData[](2);\n\n\t\t// custom tile\n\t\tuint8 hatchPos = generateHatchPos(chamber.seed);\n\t\tuint8 hatchDirection = uint8(chamber.seed % 3);\n\t\tresult[0] = Crawl.CustomData(Crawl.CustomDataType.Tile, abi.encodePacked(hatchPos, hatchDirection));\n\n\t\t// custom palette\n\t\tresult[1] = Crawl.CustomData(Crawl.CustomDataType.Palette,\n\t\t\t'\\x00\\xfe\\xfd'\n\t\t\t'\\x00\\xfb\\x00'\n\t\t\t'\\x00\\x00\\xfa'\n\t\t\t'\\xfc\\x00\\x00'\n\t\t\t'\\xfe\\xfd\\xfc'\n\t\t);\n\t}\n\n\t//-----------------------\n\t// Custom data generators\n\t//\n\n\t// TODO: Avoid tile collisions?\n\tfunction generateHatchPos(uint256 seed) public pure returns (uint8) {\n\t\treturn Crawl.mapSeedToBitmapPosition(seed >> 100);\n\t}\n\n}\n",
  "sourcePath": "/Users/roger/Dev/Blockchain/Truffle/ec-crawler/contracts/next/CrawlerGeneratorV2.sol",
  "compiler": {
    "name": "solc",
    "version": "0.8.16+commit.07a7930e.Emscripten.clang"
  },
  "schemaVersion": "3.4.11",
  "updatedAt": "2022-12-01T01:24:00.867Z",
  "devdoc": {
    "kind": "dev",
    "methods": {
      "contractChapterNumber()": {
        "returns": {
          "_0": "chapterNumber Contract chapter number"
        }
      },
      "contractName()": {
        "returns": {
          "_0": "name Contract name"
        }
      },
      "contractVersion()": {
        "returns": {
          "_0": "version Contract version"
        }
      },
      "supportsInterface(bytes4)": {
        "details": "implements IERC165"
      }
    },
    "version": 1
  },
  "userdoc": {
    "kind": "user",
    "methods": {
      "contractChapterNumber()": {
        "notice": "Returns the first chapter number this contract was used"
      },
      "contractName()": {
        "notice": "Returns the contract name"
      },
      "contractVersion()": {
        "notice": "Returns the contract version"
      }
    },
    "version": 1
  }
}