{
  "contractName": "CrawlerQueryV1",
  "abi": [
    {
      "inputs": [
        {
          "internalType": "address",
          "name": "tokenContract_",
          "type": "address"
        },
        {
          "internalType": "address",
          "name": "cardsContract_",
          "type": "address"
        },
        {
          "internalType": "address",
          "name": "storeContract_",
          "type": "address"
        }
      ],
      "stateMutability": "nonpayable",
      "type": "constructor"
    },
    {
      "inputs": [],
      "name": "contractChapterNumber",
      "outputs": [
        {
          "internalType": "uint8",
          "name": "",
          "type": "uint8"
        }
      ],
      "stateMutability": "view",
      "type": "function",
      "constant": true
    },
    {
      "inputs": [],
      "name": "contractName",
      "outputs": [
        {
          "internalType": "string",
          "name": "",
          "type": "string"
        }
      ],
      "stateMutability": "view",
      "type": "function",
      "constant": true
    },
    {
      "inputs": [],
      "name": "contractVersion",
      "outputs": [
        {
          "internalType": "uint8",
          "name": "",
          "type": "uint8"
        }
      ],
      "stateMutability": "view",
      "type": "function",
      "constant": true
    },
    {
      "inputs": [
        {
          "internalType": "bytes4",
          "name": "interfaceId",
          "type": "bytes4"
        }
      ],
      "name": "supportsInterface",
      "outputs": [
        {
          "internalType": "bool",
          "name": "",
          "type": "bool"
        }
      ],
      "stateMutability": "view",
      "type": "function",
      "constant": true
    },
    {
      "inputs": [],
      "name": "getChambersContract",
      "outputs": [
        {
          "internalType": "contract ICrawlerToken",
          "name": "",
          "type": "address"
        }
      ],
      "stateMutability": "view",
      "type": "function",
      "constant": true
    },
    {
      "inputs": [],
      "name": "getCardsContract",
      "outputs": [
        {
          "internalType": "contract ICardsMinter",
          "name": "",
          "type": "address"
        }
      ],
      "stateMutability": "view",
      "type": "function",
      "constant": true
    },
    {
      "inputs": [],
      "name": "getStoreContract",
      "outputs": [
        {
          "internalType": "contract ICardsStore",
          "name": "",
          "type": "address"
        }
      ],
      "stateMutability": "view",
      "type": "function",
      "constant": true
    },
    {
      "inputs": [
        {
          "internalType": "address",
          "name": "account",
          "type": "address"
        }
      ],
      "name": "getOwnedChambers",
      "outputs": [
        {
          "internalType": "uint256[]",
          "name": "result",
          "type": "uint256[]"
        }
      ],
      "stateMutability": "view",
      "type": "function",
      "constant": true
    },
    {
      "inputs": [
        {
          "internalType": "address",
          "name": "account",
          "type": "address"
        },
        {
          "internalType": "uint8",
          "name": "cardType",
          "type": "uint8"
        }
      ],
      "name": "getOwnedCards",
      "outputs": [
        {
          "internalType": "uint256[]",
          "name": "result",
          "type": "uint256[]"
        }
      ],
      "stateMutability": "view",
      "type": "function",
      "constant": true
    },
    {
      "inputs": [
        {
          "internalType": "address",
          "name": "tokenContract",
          "type": "address"
        },
        {
          "internalType": "uint256",
          "name": "id",
          "type": "uint256"
        },
        {
          "internalType": "address",
          "name": "account",
          "type": "address"
        }
      ],
      "name": "isOwner",
      "outputs": [
        {
          "internalType": "bool",
          "name": "",
          "type": "bool"
        }
      ],
      "stateMutability": "view",
      "type": "function",
      "constant": true
    },
    {
      "inputs": [
        {
          "internalType": "address",
          "name": "tokenContract",
          "type": "address"
        },
        {
          "internalType": "uint256",
          "name": "id",
          "type": "uint256"
        }
      ],
      "name": "getURI",
      "outputs": [
        {
          "internalType": "string",
          "name": "",
          "type": "string"
        }
      ],
      "stateMutability": "view",
      "type": "function",
      "constant": true
    }
  ],
  "bytecode": "0x60806040523480156200001157600080fd5b5060405162001f3438038062001f34833981810160405281019062000037919062000202565b620000806040518060400160405280600581526020017f51756572790000000000000000000000000000000000000000000000000000008152506001806200014c60201b60201c565b82600260006101000a81548173ffffffffffffffffffffffffffffffffffffffff021916908373ffffffffffffffffffffffffffffffffffffffff16021790555081600360006101000a81548173ffffffffffffffffffffffffffffffffffffffff021916908373ffffffffffffffffffffffffffffffffffffffff16021790555080600460006101000a81548173ffffffffffffffffffffffffffffffffffffffff021916908373ffffffffffffffffffffffffffffffffffffffff160217905550505050620005bf565b82600190816200015d9190620004d8565b50816000806101000a81548160ff021916908360ff16021790555080600060016101000a81548160ff021916908360ff160217905550505050565b600080fd5b600073ffffffffffffffffffffffffffffffffffffffff82169050919050565b6000620001ca826200019d565b9050919050565b620001dc81620001bd565b8114620001e857600080fd5b50565b600081519050620001fc81620001d1565b92915050565b6000806000606084860312156200021e576200021d62000198565b5b60006200022e86828701620001eb565b93505060206200024186828701620001eb565b92505060406200025486828701620001eb565b9150509250925092565b600081519050919050565b7f4e487b7100000000000000000000000000000000000000000000000000000000600052604160045260246000fd5b7f4e487b7100000000000000000000000000000000000000000000000000000000600052602260045260246000fd5b60006002820490506001821680620002e057607f821691505b602082108103620002f657620002f562000298565b5b50919050565b60008190508160005260206000209050919050565b60006020601f8301049050919050565b600082821b905092915050565b600060088302620003607fffffffffffffffffffffffffffffffffffffffffffffffffffffffffffffffff8262000321565b6200036c868362000321565b95508019841693508086168417925050509392505050565b6000819050919050565b6000819050919050565b6000620003b9620003b3620003ad8462000384565b6200038e565b62000384565b9050919050565b6000819050919050565b620003d58362000398565b620003ed620003e482620003c0565b8484546200032e565b825550505050565b600090565b62000404620003f5565b62000411818484620003ca565b505050565b5b8181101562000439576200042d600082620003fa565b60018101905062000417565b5050565b601f82111562000488576200045281620002fc565b6200045d8462000311565b810160208510156200046d578190505b620004856200047c8562000311565b83018262000416565b50505b505050565b600082821c905092915050565b6000620004ad600019846008026200048d565b1980831691505092915050565b6000620004c883836200049a565b9150826002028217905092915050565b620004e3826200025e565b67ffffffffffffffff811115620004ff57620004fe62000269565b5b6200050b8254620002c7565b620005188282856200043d565b600060209050601f8311600181146200055057600084156200053b578287015190505b620005478582620004ba565b865550620005b7565b601f1984166200056086620002fc565b60005b828110156200058a5784890151825560018201915060208501945060208101905062000563565b86831015620005aa5784890151620005a6601f8916826200049a565b8355505b6001600288020188555050505b505050505050565b61196580620005cf6000396000f3fe608060405234801561001057600080fd5b50600436106100a95760003560e01c806375d0c0dc1161007157806375d0c0dc1461018c5780639c567760146101aa578063a0a8e460146101da578063c62d3a9c146101f8578063c63190aa14610216578063ca08251014610234576100a9565b806301ffc9a7146100ae5780631ff8273d146100de578063472371621461010e578063514c78c11461013e5780635c322f261461016e575b600080fd5b6100c860048036038101906100c39190610e9a565b610252565b6040516100d59190610ee2565b60405180910390f35b6100f860048036038101906100f39190610f94565b6102cc565b604051610105919061109c565b60405180910390f35b610128600480360381019061012391906110ea565b6104d1565b60405161013591906111ba565b60405180910390f35b610158600480360381019061015391906111dc565b61067e565b6040516101659190610ee2565b60405180910390f35b610176610896565b604051610183919061123e565b60405180910390f35b6101946108fd565b6040516101a191906111ba565b60405180910390f35b6101c460048036038101906101bf9190611259565b6109e0565b6040516101d1919061109c565b60405180910390f35b6101e2610baa565b6040516101ef919061123e565b60405180910390f35b610200610c15565b60405161020d91906112e5565b60405180910390f35b61021e610c3f565b60405161022b9190611321565b60405180910390f35b61023c610c69565b604051610249919061135d565b60405180910390f35b60007f894a0b9a000000000000000000000000000000000000000000000000000000007bffffffffffffffffffffffffffffffffffffffffffffffffffffffff1916827bffffffffffffffffffffffffffffffffffffffffffffffffffffffff191614806102c557506102c482610c93565b5b9050919050565b6060600460009054906101000a900473ffffffffffffffffffffffffffffffffffffffff1673ffffffffffffffffffffffffffffffffffffffff16637d6201306040518163ffffffff1660e01b8152600401602060405180830381865afa15801561033b573d6000803e3d6000fd5b505050506040513d601f19601f8201168201806040525081019061035f919061138d565b67ffffffffffffffff811115610378576103776113ba565b5b6040519080825280602002602001820160405280156103a65781602001602082028036833780820191505090505b50905060005b81518110156104ca5760006001826103c49190611418565b90506000600360009054906101000a900473ffffffffffffffffffffffffffffffffffffffff1673ffffffffffffffffffffffffffffffffffffffff1662fdd58e87846040518363ffffffff1660e01b815260040161042492919061146a565b602060405180830381865afa158015610441573d6000803e3d6000fd5b505050506040513d601f19601f82011682018060405250810190610465919061138d565b905060008560ff161480610489575060018560ff16148015610488575060048211155b5b610494576000610496565b805b8484815181106104a9576104a8611493565b5b602002602001018181525050505080806104c2906114c2565b9150506103ac565b5092915050565b60606104fd837f5b5e139f00000000000000000000000000000000000000000000000000000000610cfd565b15610588578273ffffffffffffffffffffffffffffffffffffffff1663c87b56dd836040518263ffffffff1660e01b815260040161053b919061150a565b600060405180830381865afa158015610558573d6000803e3d6000fd5b505050506040513d6000823e3d601f19601f82011682018060405250810190610581919061161c565b9050610678565b6105b2837f0e89341c00000000000000000000000000000000000000000000000000000000610cfd565b1561063d578273ffffffffffffffffffffffffffffffffffffffff16630e89341c836040518263ffffffff1660e01b81526004016105f0919061150a565b600060405180830381865afa15801561060d573d6000803e3d6000fd5b505050506040513d6000823e3d601f19601f82011682018060405250810190610636919061161c565b9050610678565b6040517f08c379a000000000000000000000000000000000000000000000000000000000815260040161066f906116d7565b60405180910390fd5b92915050565b60006106aa847f80ac58cd00000000000000000000000000000000000000000000000000000000610cfd565b1561079a578373ffffffffffffffffffffffffffffffffffffffff16636352211e846040518263ffffffff1660e01b81526004016106e8919061150a565b602060405180830381865afa92505050801561072257506040513d601f19601f8201168201806040525081019061071f919061170c565b60015b6107635761072e611746565b806308c379a0036107575750610742611768565b8061074d5750610759565b600091505061088f565b505b3d6000803e3d6000fd5b8273ffffffffffffffffffffffffffffffffffffffff168173ffffffffffffffffffffffffffffffffffffffff161491505061088f565b6107c4847fd9b67a2600000000000000000000000000000000000000000000000000000000610cfd565b1561088a578373ffffffffffffffffffffffffffffffffffffffff1662fdd58e83856040518363ffffffff1660e01b815260040161080392919061146a565b602060405180830381865afa92505050801561083d57506040513d601f19601f8201168201806040525081019061083a919061138d565b60015b61087e57610849611746565b806308c379a003610872575061085d611768565b806108685750610874565b600091505061088f565b505b3d6000803e3d6000fd5b6000811191505061088f565b600090505b9392505050565b60008060008054906101000a900460ff1660ff16036108ea576040517f08c379a00000000000000000000000000000000000000000000000000000000081526004016108e19061186a565b60405180910390fd5b60008054906101000a900460ff16905090565b606060006001805461090e906118b9565b905011610950576040517f08c379a00000000000000000000000000000000000000000000000000000000081526004016109479061186a565b60405180910390fd5b6001805461095d906118b9565b80601f0160208091040260200160405190810160405280929190818152602001828054610989906118b9565b80156109d65780601f106109ab576101008083540402835291602001916109d6565b820191906000526020600020905b8154815290600101906020018083116109b957829003601f168201915b5050505050905090565b6060600260009054906101000a900473ffffffffffffffffffffffffffffffffffffffff1673ffffffffffffffffffffffffffffffffffffffff166370a08231836040518263ffffffff1660e01b8152600401610a3d91906118ea565b602060405180830381865afa158015610a5a573d6000803e3d6000fd5b505050506040513d601f19601f82011682018060405250810190610a7e919061138d565b67ffffffffffffffff811115610a9757610a966113ba565b5b604051908082528060200260200182016040528015610ac55781602001602082028036833780820191505090505b50905060005b8151811015610ba457600260009054906101000a900473ffffffffffffffffffffffffffffffffffffffff1673ffffffffffffffffffffffffffffffffffffffff16632f745c5984836040518363ffffffff1660e01b8152600401610b3192919061146a565b602060405180830381865afa158015610b4e573d6000803e3d6000fd5b505050506040513d601f19601f82011682018060405250810190610b72919061138d565b828281518110610b8557610b84611493565b5b6020026020010181815250508080610b9c906114c2565b915050610acb565b50919050565b600080600060019054906101000a900460ff1660ff1603610c00576040517f08c379a0000000000000000000000000000000000000000000000000000000008152600401610bf79061186a565b60405180910390fd5b600060019054906101000a900460ff16905090565b6000600460009054906101000a900473ffffffffffffffffffffffffffffffffffffffff16905090565b6000600260009054906101000a900473ffffffffffffffffffffffffffffffffffffffff16905090565b6000600360009054906101000a900473ffffffffffffffffffffffffffffffffffffffff16905090565b60007f01ffc9a7000000000000000000000000000000000000000000000000000000007bffffffffffffffffffffffffffffffffffffffffffffffffffffffff1916827bffffffffffffffffffffffffffffffffffffffffffffffffffffffff1916149050919050565b6000610d0883610d22565b8015610d1a5750610d198383610d6f565b5b905092915050565b6000610d4e827f01ffc9a700000000000000000000000000000000000000000000000000000000610d6f565b8015610d685750610d668263ffffffff60e01b610d6f565b155b9050919050565b6000806301ffc9a760e01b83604051602401610d8b9190611914565b604051602081830303815290604052907bffffffffffffffffffffffffffffffffffffffffffffffffffffffff19166020820180517bffffffffffffffffffffffffffffffffffffffffffffffffffffffff838183161783525050505090506000806000602060008551602087018a617530fa92503d91506000519050828015610e16575060208210155b8015610e225750600081115b94505050505092915050565b6000604051905090565b600080fd5b600080fd5b60007fffffffff0000000000000000000000000000000000000000000000000000000082169050919050565b610e7781610e42565b8114610e8257600080fd5b50565b600081359050610e9481610e6e565b92915050565b600060208284031215610eb057610eaf610e38565b5b6000610ebe84828501610e85565b91505092915050565b60008115159050919050565b610edc81610ec7565b82525050565b6000602082019050610ef76000830184610ed3565b92915050565b600073ffffffffffffffffffffffffffffffffffffffff82169050919050565b6000610f2882610efd565b9050919050565b610f3881610f1d565b8114610f4357600080fd5b50565b600081359050610f5581610f2f565b92915050565b600060ff82169050919050565b610f7181610f5b565b8114610f7c57600080fd5b50565b600081359050610f8e81610f68565b92915050565b60008060408385031215610fab57610faa610e38565b5b6000610fb985828601610f46565b9250506020610fca85828601610f7f565b9150509250929050565b600081519050919050565b600082825260208201905092915050565b6000819050602082019050919050565b6000819050919050565b61101381611000565b82525050565b6000611025838361100a565b60208301905092915050565b6000602082019050919050565b600061104982610fd4565b6110538185610fdf565b935061105e83610ff0565b8060005b8381101561108f5781516110768882611019565b975061108183611031565b925050600181019050611062565b5085935050505092915050565b600060208201905081810360008301526110b6818461103e565b905092915050565b6110c781611000565b81146110d257600080fd5b50565b6000813590506110e4816110be565b92915050565b6000806040838503121561110157611100610e38565b5b600061110f85828601610f46565b9250506020611120858286016110d5565b9150509250929050565b600081519050919050565b600082825260208201905092915050565b60005b83811015611164578082015181840152602081019050611149565b60008484015250505050565b6000601f19601f8301169050919050565b600061118c8261112a565b6111968185611135565b93506111a6818560208601611146565b6111af81611170565b840191505092915050565b600060208201905081810360008301526111d48184611181565b905092915050565b6000806000606084860312156111f5576111f4610e38565b5b600061120386828701610f46565b9350506020611214868287016110d5565b925050604061122586828701610f46565b9150509250925092565b61123881610f5b565b82525050565b6000602082019050611253600083018461122f565b92915050565b60006020828403121561126f5761126e610e38565b5b600061127d84828501610f46565b91505092915050565b6000819050919050565b60006112ab6112a66112a184610efd565b611286565b610efd565b9050919050565b60006112bd82611290565b9050919050565b60006112cf826112b2565b9050919050565b6112df816112c4565b82525050565b60006020820190506112fa60008301846112d6565b92915050565b600061130b826112b2565b9050919050565b61131b81611300565b82525050565b60006020820190506113366000830184611312565b92915050565b6000611347826112b2565b9050919050565b6113578161133c565b82525050565b6000602082019050611372600083018461134e565b92915050565b600081519050611387816110be565b92915050565b6000602082840312156113a3576113a2610e38565b5b60006113b184828501611378565b91505092915050565b7f4e487b7100000000000000000000000000000000000000000000000000000000600052604160045260246000fd5b7f4e487b7100000000000000000000000000000000000000000000000000000000600052601160045260246000fd5b600061142382611000565b915061142e83611000565b9250828201905080821115611446576114456113e9565b5b92915050565b61145581610f1d565b82525050565b61146481611000565b82525050565b600060408201905061147f600083018561144c565b61148c602083018461145b565b9392505050565b7f4e487b7100000000000000000000000000000000000000000000000000000000600052603260045260246000fd5b60006114cd82611000565b91507fffffffffffffffffffffffffffffffffffffffffffffffffffffffffffffffff82036114ff576114fe6113e9565b5b600182019050919050565b600060208201905061151f600083018461145b565b92915050565b600080fd5b600080fd5b61153882611170565b810181811067ffffffffffffffff82111715611557576115566113ba565b5b80604052505050565b600061156a610e2e565b9050611576828261152f565b919050565b600067ffffffffffffffff821115611596576115956113ba565b5b61159f82611170565b9050602081019050919050565b60006115bf6115ba8461157b565b611560565b9050828152602081018484840111156115db576115da61152a565b5b6115e6848285611146565b509392505050565b600082601f83011261160357611602611525565b5b81516116138482602086016115ac565b91505092915050565b60006020828403121561163257611631610e38565b5b600082015167ffffffffffffffff8111156116505761164f610e3d565b5b61165c848285016115ee565b91505092915050565b7f496e76616c696420636f6e747261637420286e6f7420455243373231206f722060008201527f4552433131353529000000000000000000000000000000000000000000000000602082015250565b60006116c1602883611135565b91506116cc82611665565b604082019050919050565b600060208201905081810360008301526116f0816116b4565b9050919050565b60008151905061170681610f2f565b92915050565b60006020828403121561172257611721610e38565b5b6000611730848285016116f7565b91505092915050565b60008160e01c9050919050565b600060033d11156117655760046000803e611762600051611739565b90505b90565b600060443d106117f55761177a610e2e565b60043d036004823e80513d602482011167ffffffffffffffff821117156117a25750506117f5565b808201805167ffffffffffffffff8111156117c057505050506117f5565b80602083010160043d0385018111156117dd5750505050506117f5565b6117ec8260200185018661152f565b82955050505050505b90565b7f437261776c6572436f6e74726163743a20436f6e7472616374206e6f7420736560008201527f7475700000000000000000000000000000000000000000000000000000000000602082015250565b6000611854602383611135565b915061185f826117f8565b604082019050919050565b6000602082019050818103600083015261188381611847565b9050919050565b7f4e487b7100000000000000000000000000000000000000000000000000000000600052602260045260246000fd5b600060028204905060018216806118d157607f821691505b6020821081036118e4576118e361188a565b5b50919050565b60006020820190506118ff600083018461144c565b92915050565b61190e81610e42565b82525050565b60006020820190506119296000830184611905565b9291505056fea264697066735822122002fef08f42e4e49f4d3857644377ee1e6e657002085bec603ecfd93d330a467c64736f6c63430008100033",
  "immutableReferences": {},
  "source": "// SPDX-License-Identifier: MIT\n//\n//    \n//             \n//              \n//              \n//              \n//          \n//        \n//      \n//\n// https://endlesscrawler.io\n// @EndlessCrawler\n//\n/// @title Endless Crawler Query Utility v.1\n/// @author Studio Avante\n/// @notice Miscellaneous functions for fetching Endless Crawler data\n/// @dev Depends on IERC721Enumerable (chambers), IERC1155 (cards) and ICardsStore\n//\npragma solidity ^0.8.16;\nimport { IERC721 } from '@openzeppelin/contracts/token/ERC721/IERC721.sol';\nimport { IERC1155 } from '@openzeppelin/contracts/token/ERC1155/IERC1155.sol';\nimport { IERC721Metadata } from '@openzeppelin/contracts/token/ERC721/extensions/IERC721Metadata.sol';\nimport { IERC1155MetadataURI } from '@openzeppelin/contracts/token/ERC1155/extensions/IERC1155MetadataURI.sol';\nimport { ERC165Checker } from '@openzeppelin/contracts/utils/introspection/ERC165Checker.sol';\nimport { ICrawlerQuery } from './ICrawlerQuery.sol';\nimport { ICrawlerToken } from './ICrawlerToken.sol';\nimport { ICardsMinter } from './external/ICardsMinter.sol';\nimport { ICardsStore } from './external/ICardsStore.sol';\nimport { CrawlerContract } from './CrawlerContract.sol';\n\ncontract CrawlerQueryV1 is CrawlerContract, ICrawlerQuery {\n\n\tICrawlerToken private _tokenContract;\n\tICardsMinter private _cardsContract;\n\tICardsStore private _storeContract;\n\n\tconstructor(address tokenContract_, address cardsContract_, address storeContract_) {\n\t\tsetupCrawlerContract('Query', 1, 1);\n\t\t_tokenContract = ICrawlerToken(tokenContract_);\n\t\t_cardsContract = ICardsMinter(cardsContract_);\n\t\t_storeContract = ICardsStore(storeContract_);\n\t}\n\n\t/// @notice Returns the Chambers contract\n\t/// @return result Contract address\n  function getChambersContract() external view returns (ICrawlerToken) {\n\t\treturn _tokenContract;\n\t}\n\n\t/// @notice Returns the Cards contract\n\t/// @return result Contract address\n\tfunction getCardsContract() external view returns (ICardsMinter) {\n\t\treturn _cardsContract;\n\t}\n\n\t/// @notice Returns the CardsStore contract\n\t/// @return result Contract address\n\tfunction getStoreContract() external view returns (ICardsStore) {\n\t\treturn _storeContract;\n\t}\n\n\t/// @notice Returns all Chambers owned by a player\n\t/// @param account Owner account\n\t/// @return result Array containing owned token ids, not guarantee to be in order\n\tfunction getOwnedChambers(address account) public view override returns (uint256[] memory result) {\n\t\tresult = new uint256[](_tokenContract.balanceOf(account));\n\t\tfor(uint256 i = 0 ; i < result.length ; i++) {\n\t\t\tresult[i] = _tokenContract.tokenOfOwnerByIndex(account, i);\n\t\t}\n\t\treturn result;\n\t}\n\n\t/// @notice Returns all Cards owned by a player\n\t/// @param account Owner account\n\t/// @param cardType Filter by card type\n\t/// @return result Array containing balances of all card ids, in order, startintg at id 1\n\tfunction getOwnedCards(address account, uint8 cardType) public view override returns (uint256[] memory result) {\n\t\t// TODO: next version will grant all cards to Founders, EXCEPT OTHER CLASS TOKENS\n\t\tresult = new uint256[](_storeContract.getCardCount());\n\t\tfor(uint256 i = 0 ; i < result.length ; i++) {\n\t\t\tuint256 id = i + 1;\n\t\t\tuint256 balance = _cardsContract.balanceOf(account, id);\n\t\t\t// TODO: next version will get card type from ICardsStore contract\n\t\t\tresult[i] = (cardType == 0 || (cardType == 1 && id <= 4)) ? balance : 0;\n\t\t}\n\t\treturn result;\n\t}\n\n\t/// @notice Check if an account owns a token (ERC-721 or ERC-1155)\n\t/// @param tokenContract the CrawlerToken contract address\n\t/// @param id the token id\n\t/// @param account owner account\n\t/// @return result True if account is owner\n\t/// @dev Never reverts, will return False if token does not exist or contract is not compatible\n\tfunction isOwner(address tokenContract, uint256 id, address account) public view override returns (bool) {\n\t\tif(ERC165Checker.supportsInterface(tokenContract, type(IERC721).interfaceId)) {\n\t\t\ttry IERC721(tokenContract).ownerOf(id) returns (address owner) {\n\t\t\t\treturn (owner == account);\n\t\t\t} catch Error(string memory) {\n\t\t\t\treturn false;\n\t\t\t}\n\t\t} else if(ERC165Checker.supportsInterface(tokenContract, type(IERC1155).interfaceId)) {\n\t\t\ttry IERC1155(tokenContract).balanceOf(account, id) returns (uint256 balance) {\n\t\t\t\treturn (balance > 0);\n\t\t\t} catch Error(string memory) {\n\t\t\t\treturn false;\n\t\t\t}\n\t\t}\n\t\treturn false;\n\t}\n\n\t/// @notice Returns a token metadata (ERC-721 or ERC-1155)\n\t/// @param tokenContract the CrawlerToken contract address\n\t/// @param id the token id\n\t/// @return result Metadata\n\t/// @dev Reverts if contract is not compatible\n\tfunction getURI(address tokenContract, uint256 id) public view override returns (string memory) {\n\t\tif(ERC165Checker.supportsInterface(tokenContract, type(IERC721Metadata).interfaceId)) {\n\t\t\treturn IERC721Metadata(tokenContract).tokenURI(id);\n\t\t}\n\t\tif(ERC165Checker.supportsInterface(tokenContract, type(IERC1155MetadataURI).interfaceId)) {\n\t\t\treturn IERC1155MetadataURI(tokenContract).uri(id);\n\t\t}\n\t\trevert('Invalid contract (not ERC721 or ERC1155)');\n\t}\n\n}\n",
  "sourcePath": "/Users/roger/Dev/Blockchain/Truffle/ec-crawler/contracts/CrawlerQueryV1.sol",
  "compiler": {
    "name": "solc",
    "version": "0.8.16+commit.07a7930e.Emscripten.clang"
  },
  "schemaVersion": "3.4.11",
  "updatedAt": "2022-12-05T06:04:01.897Z",
  "networkType": "ethereum",
  "devdoc": {
    "kind": "dev",
    "methods": {
      "contractChapterNumber()": {
        "returns": {
          "_0": "chapterNumber Contract chapter number"
        }
      },
      "contractName()": {
        "returns": {
          "_0": "name Contract name"
        }
      },
      "contractVersion()": {
        "returns": {
          "_0": "version Contract version"
        }
      },
      "getCardsContract()": {
        "returns": {
          "_0": "result Contract address"
        }
      },
      "getChambersContract()": {
        "returns": {
          "_0": "result Contract address"
        }
      },
      "getOwnedCards(address,uint8)": {
        "params": {
          "account": "Owner account",
          "cardType": "Filter by card type"
        },
        "returns": {
          "result": "Array containing balances of all card ids, in order, startintg at id 1"
        }
      },
      "getOwnedChambers(address)": {
        "params": {
          "account": "Owner account"
        },
        "returns": {
          "result": "Array containing owned token ids, not guarantee to be in order"
        }
      },
      "getStoreContract()": {
        "returns": {
          "_0": "result Contract address"
        }
      },
      "getURI(address,uint256)": {
        "details": "Reverts if contract is not compatible",
        "params": {
          "id": "the token id",
          "tokenContract": "the CrawlerToken contract address"
        },
        "returns": {
          "_0": "result Metadata"
        }
      },
      "isOwner(address,uint256,address)": {
        "details": "Never reverts, will return False if token does not exist or contract is not compatible",
        "params": {
          "account": "owner account",
          "id": "the token id",
          "tokenContract": "the CrawlerToken contract address"
        },
        "returns": {
          "_0": "result True if account is owner"
        }
      },
      "supportsInterface(bytes4)": {
        "details": "implements IERC165"
      }
    },
    "version": 1
  },
  "userdoc": {
    "kind": "user",
    "methods": {
      "contractChapterNumber()": {
        "notice": "Returns the first chapter number this contract was used"
      },
      "contractName()": {
        "notice": "Returns the contract name"
      },
      "contractVersion()": {
        "notice": "Returns the contract version"
      },
      "getCardsContract()": {
        "notice": "Returns the Cards contract"
      },
      "getChambersContract()": {
        "notice": "Returns the Chambers contract"
      },
      "getOwnedCards(address,uint8)": {
        "notice": "Returns all Cards owned by a player"
      },
      "getOwnedChambers(address)": {
        "notice": "Returns all Chambers owned by a player"
      },
      "getStoreContract()": {
        "notice": "Returns the CardsStore contract"
      },
      "getURI(address,uint256)": {
        "notice": "Returns a token metadata (ERC-721 or ERC-1155)"
      },
      "isOwner(address,uint256,address)": {
        "notice": "Check if an account owns a token (ERC-721 or ERC-1155)"
      }
    },
    "version": 1
  }
}