{
  "contractName": "CrawlerToken",
  "abi": [
    {
      "inputs": [
        {
          "internalType": "address",
          "name": "index_",
          "type": "address"
        },
        {
          "internalType": "address",
          "name": "player_",
          "type": "address"
        },
        {
          "internalType": "address",
          "name": "signer_",
          "type": "address"
        }
      ],
      "stateMutability": "nonpayable",
      "type": "constructor"
    },
    {
      "inputs": [],
      "name": "GlobalIndexOutOfBounds",
      "type": "error"
    },
    {
      "inputs": [],
      "name": "InvalidDoor",
      "type": "error"
    },
    {
      "inputs": [],
      "name": "InvalidFromChamber",
      "type": "error"
    },
    {
      "inputs": [],
      "name": "InvalidSignature",
      "type": "error"
    },
    {
      "inputs": [],
      "name": "InvalidTokenId",
      "type": "error"
    },
    {
      "inputs": [],
      "name": "InvalidValue",
      "type": "error"
    },
    {
      "inputs": [],
      "name": "MintingIsPaused",
      "type": "error"
    },
    {
      "inputs": [
        {
          "internalType": "address",
          "name": "operator",
          "type": "address"
        }
      ],
      "name": "OperatorNotAllowed",
      "type": "error"
    },
    {
      "inputs": [],
      "name": "OwnerIndexOutOfBounds",
      "type": "error"
    },
    {
      "anonymous": false,
      "inputs": [
        {
          "indexed": true,
          "internalType": "address",
          "name": "owner",
          "type": "address"
        },
        {
          "indexed": true,
          "internalType": "address",
          "name": "approved",
          "type": "address"
        },
        {
          "indexed": true,
          "internalType": "uint256",
          "name": "tokenId",
          "type": "uint256"
        }
      ],
      "name": "Approval",
      "type": "event"
    },
    {
      "anonymous": false,
      "inputs": [
        {
          "indexed": true,
          "internalType": "address",
          "name": "owner",
          "type": "address"
        },
        {
          "indexed": true,
          "internalType": "address",
          "name": "operator",
          "type": "address"
        },
        {
          "indexed": false,
          "internalType": "bool",
          "name": "approved",
          "type": "bool"
        }
      ],
      "name": "ApprovalForAll",
      "type": "event"
    },
    {
      "anonymous": false,
      "inputs": [
        {
          "indexed": true,
          "internalType": "address",
          "name": "to",
          "type": "address"
        },
        {
          "indexed": true,
          "internalType": "uint256",
          "name": "tokenId",
          "type": "uint256"
        },
        {
          "indexed": true,
          "internalType": "uint256",
          "name": "coord",
          "type": "uint256"
        }
      ],
      "name": "Minted",
      "type": "event"
    },
    {
      "anonymous": false,
      "inputs": [
        {
          "indexed": true,
          "internalType": "address",
          "name": "previousOwner",
          "type": "address"
        },
        {
          "indexed": true,
          "internalType": "address",
          "name": "newOwner",
          "type": "address"
        }
      ],
      "name": "OwnershipTransferred",
      "type": "event"
    },
    {
      "anonymous": false,
      "inputs": [
        {
          "indexed": true,
          "internalType": "bool",
          "name": "paused",
          "type": "bool"
        }
      ],
      "name": "Paused",
      "type": "event"
    },
    {
      "anonymous": false,
      "inputs": [
        {
          "indexed": true,
          "internalType": "address",
          "name": "from",
          "type": "address"
        },
        {
          "indexed": true,
          "internalType": "address",
          "name": "to",
          "type": "address"
        },
        {
          "indexed": true,
          "internalType": "uint256",
          "name": "tokenId",
          "type": "uint256"
        }
      ],
      "name": "Transfer",
      "type": "event"
    },
    {
      "inputs": [],
      "name": "OPERATOR_FILTER_REGISTRY",
      "outputs": [
        {
          "internalType": "contract IOperatorFilterRegistry",
          "name": "",
          "type": "address"
        }
      ],
      "stateMutability": "view",
      "type": "function"
    },
    {
      "inputs": [
        {
          "internalType": "address",
          "name": "owner",
          "type": "address"
        }
      ],
      "name": "balanceOf",
      "outputs": [
        {
          "internalType": "uint256",
          "name": "",
          "type": "uint256"
        }
      ],
      "stateMutability": "view",
      "type": "function"
    },
    {
      "inputs": [
        {
          "internalType": "uint256",
          "name": "tokenId",
          "type": "uint256"
        }
      ],
      "name": "getApproved",
      "outputs": [
        {
          "internalType": "address",
          "name": "",
          "type": "address"
        }
      ],
      "stateMutability": "view",
      "type": "function"
    },
    {
      "inputs": [
        {
          "internalType": "address",
          "name": "owner",
          "type": "address"
        },
        {
          "internalType": "address",
          "name": "operator",
          "type": "address"
        }
      ],
      "name": "isApprovedForAll",
      "outputs": [
        {
          "internalType": "bool",
          "name": "",
          "type": "bool"
        }
      ],
      "stateMutability": "view",
      "type": "function"
    },
    {
      "inputs": [],
      "name": "name",
      "outputs": [
        {
          "internalType": "string",
          "name": "",
          "type": "string"
        }
      ],
      "stateMutability": "view",
      "type": "function"
    },
    {
      "inputs": [],
      "name": "owner",
      "outputs": [
        {
          "internalType": "address",
          "name": "",
          "type": "address"
        }
      ],
      "stateMutability": "view",
      "type": "function"
    },
    {
      "inputs": [
        {
          "internalType": "uint256",
          "name": "tokenId",
          "type": "uint256"
        }
      ],
      "name": "ownerOf",
      "outputs": [
        {
          "internalType": "address",
          "name": "",
          "type": "address"
        }
      ],
      "stateMutability": "view",
      "type": "function"
    },
    {
      "inputs": [],
      "name": "renounceOwnership",
      "outputs": [],
      "stateMutability": "nonpayable",
      "type": "function"
    },
    {
      "inputs": [],
      "name": "symbol",
      "outputs": [
        {
          "internalType": "string",
          "name": "",
          "type": "string"
        }
      ],
      "stateMutability": "view",
      "type": "function"
    },
    {
      "inputs": [
        {
          "internalType": "uint256",
          "name": "index",
          "type": "uint256"
        }
      ],
      "name": "tokenByIndex",
      "outputs": [
        {
          "internalType": "uint256",
          "name": "",
          "type": "uint256"
        }
      ],
      "stateMutability": "view",
      "type": "function"
    },
    {
      "inputs": [
        {
          "internalType": "address",
          "name": "owner",
          "type": "address"
        },
        {
          "internalType": "uint256",
          "name": "index",
          "type": "uint256"
        }
      ],
      "name": "tokenOfOwnerByIndex",
      "outputs": [
        {
          "internalType": "uint256",
          "name": "",
          "type": "uint256"
        }
      ],
      "stateMutability": "view",
      "type": "function"
    },
    {
      "inputs": [],
      "name": "totalSupply",
      "outputs": [
        {
          "internalType": "uint256",
          "name": "",
          "type": "uint256"
        }
      ],
      "stateMutability": "view",
      "type": "function"
    },
    {
      "inputs": [
        {
          "internalType": "address",
          "name": "newOwner",
          "type": "address"
        }
      ],
      "name": "transferOwnership",
      "outputs": [],
      "stateMutability": "nonpayable",
      "type": "function"
    },
    {
      "inputs": [
        {
          "internalType": "bytes4",
          "name": "interfaceId",
          "type": "bytes4"
        }
      ],
      "name": "supportsInterface",
      "outputs": [
        {
          "internalType": "bool",
          "name": "",
          "type": "bool"
        }
      ],
      "stateMutability": "view",
      "type": "function"
    },
    {
      "inputs": [],
      "name": "_totalSupply",
      "outputs": [
        {
          "internalType": "uint256",
          "name": "",
          "type": "uint256"
        }
      ],
      "stateMutability": "view",
      "type": "function"
    },
    {
      "inputs": [
        {
          "internalType": "address",
          "name": "operator",
          "type": "address"
        },
        {
          "internalType": "bool",
          "name": "approved",
          "type": "bool"
        }
      ],
      "name": "setApprovalForAll",
      "outputs": [],
      "stateMutability": "nonpayable",
      "type": "function"
    },
    {
      "inputs": [
        {
          "internalType": "address",
          "name": "operator",
          "type": "address"
        },
        {
          "internalType": "uint256",
          "name": "tokenId",
          "type": "uint256"
        }
      ],
      "name": "approve",
      "outputs": [],
      "stateMutability": "nonpayable",
      "type": "function"
    },
    {
      "inputs": [
        {
          "internalType": "address",
          "name": "from",
          "type": "address"
        },
        {
          "internalType": "address",
          "name": "to",
          "type": "address"
        },
        {
          "internalType": "uint256",
          "name": "tokenId",
          "type": "uint256"
        }
      ],
      "name": "transferFrom",
      "outputs": [],
      "stateMutability": "nonpayable",
      "type": "function"
    },
    {
      "inputs": [
        {
          "internalType": "address",
          "name": "from",
          "type": "address"
        },
        {
          "internalType": "address",
          "name": "to",
          "type": "address"
        },
        {
          "internalType": "uint256",
          "name": "tokenId",
          "type": "uint256"
        }
      ],
      "name": "safeTransferFrom",
      "outputs": [],
      "stateMutability": "nonpayable",
      "type": "function"
    },
    {
      "inputs": [
        {
          "internalType": "address",
          "name": "from",
          "type": "address"
        },
        {
          "internalType": "address",
          "name": "to",
          "type": "address"
        },
        {
          "internalType": "uint256",
          "name": "tokenId",
          "type": "uint256"
        },
        {
          "internalType": "bytes",
          "name": "data",
          "type": "bytes"
        }
      ],
      "name": "safeTransferFrom",
      "outputs": [],
      "stateMutability": "nonpayable",
      "type": "function"
    },
    {
      "inputs": [
        {
          "internalType": "address",
          "name": "index_",
          "type": "address"
        }
      ],
      "name": "setIndexContract",
      "outputs": [],
      "stateMutability": "nonpayable",
      "type": "function"
    },
    {
      "inputs": [
        {
          "internalType": "address",
          "name": "player_",
          "type": "address"
        }
      ],
      "name": "setPlayerContract",
      "outputs": [],
      "stateMutability": "nonpayable",
      "type": "function"
    },
    {
      "inputs": [
        {
          "internalType": "address",
          "name": "signer_",
          "type": "address"
        }
      ],
      "name": "setSigner",
      "outputs": [],
      "stateMutability": "nonpayable",
      "type": "function"
    },
    {
      "inputs": [
        {
          "internalType": "uint256",
          "name": "priceInPwei_",
          "type": "uint256"
        }
      ],
      "name": "setPrice",
      "outputs": [],
      "stateMutability": "nonpayable",
      "type": "function"
    },
    {
      "inputs": [
        {
          "internalType": "bool",
          "name": "paused_",
          "type": "bool"
        }
      ],
      "name": "setPaused",
      "outputs": [],
      "stateMutability": "nonpayable",
      "type": "function"
    },
    {
      "inputs": [
        {
          "internalType": "uint256",
          "name": "eth",
          "type": "uint256"
        }
      ],
      "name": "checkout",
      "outputs": [],
      "stateMutability": "nonpayable",
      "type": "function"
    },
    {
      "inputs": [],
      "name": "isPaused",
      "outputs": [
        {
          "internalType": "bool",
          "name": "",
          "type": "bool"
        }
      ],
      "stateMutability": "view",
      "type": "function"
    },
    {
      "inputs": [],
      "name": "getIndexContract",
      "outputs": [
        {
          "internalType": "contract ICrawlerIndex",
          "name": "",
          "type": "address"
        }
      ],
      "stateMutability": "view",
      "type": "function"
    },
    {
      "inputs": [],
      "name": "getPlayerContract",
      "outputs": [
        {
          "internalType": "contract ICrawlerPlayer",
          "name": "",
          "type": "address"
        }
      ],
      "stateMutability": "view",
      "type": "function"
    },
    {
      "inputs": [],
      "name": "getPrices",
      "outputs": [
        {
          "internalType": "uint256",
          "name": "",
          "type": "uint256"
        },
        {
          "internalType": "uint256",
          "name": "",
          "type": "uint256"
        }
      ],
      "stateMutability": "view",
      "type": "function"
    },
    {
      "inputs": [
        {
          "internalType": "address",
          "name": "to",
          "type": "address"
        }
      ],
      "name": "calculateMintPrice",
      "outputs": [
        {
          "internalType": "uint256",
          "name": "",
          "type": "uint256"
        }
      ],
      "stateMutability": "view",
      "type": "function"
    },
    {
      "inputs": [
        {
          "internalType": "uint256",
          "name": "tokenId",
          "type": "uint256"
        }
      ],
      "name": "tokenIdToCoord",
      "outputs": [
        {
          "internalType": "uint256",
          "name": "",
          "type": "uint256"
        }
      ],
      "stateMutability": "view",
      "type": "function"
    },
    {
      "inputs": [
        {
          "internalType": "uint256",
          "name": "coord",
          "type": "uint256"
        }
      ],
      "name": "coordToSeed",
      "outputs": [
        {
          "components": [
            {
              "internalType": "uint256",
              "name": "tokenId",
              "type": "uint256"
            },
            {
              "internalType": "uint256",
              "name": "seed",
              "type": "uint256"
            },
            {
              "internalType": "uint232",
              "name": "yonder",
              "type": "uint232"
            },
            {
              "internalType": "uint8",
              "name": "chapter",
              "type": "uint8"
            },
            {
              "internalType": "enum Crawl.Terrain",
              "name": "terrain",
              "type": "uint8"
            },
            {
              "internalType": "enum Crawl.Dir",
              "name": "entryDir",
              "type": "uint8"
            }
          ],
          "internalType": "struct Crawl.ChamberSeed",
          "name": "",
          "type": "tuple"
        }
      ],
      "stateMutability": "view",
      "type": "function"
    },
    {
      "inputs": [
        {
          "internalType": "uint8",
          "name": "chapterNumber",
          "type": "uint8"
        },
        {
          "internalType": "uint256",
          "name": "coord",
          "type": "uint256"
        },
        {
          "internalType": "bool",
          "name": "generateMaps",
          "type": "bool"
        }
      ],
      "name": "coordToChamberData",
      "outputs": [
        {
          "components": [
            {
              "internalType": "uint256",
              "name": "coord",
              "type": "uint256"
            },
            {
              "internalType": "uint256",
              "name": "tokenId",
              "type": "uint256"
            },
            {
              "internalType": "uint256",
              "name": "seed",
              "type": "uint256"
            },
            {
              "internalType": "uint232",
              "name": "yonder",
              "type": "uint232"
            },
            {
              "internalType": "uint8",
              "name": "chapter",
              "type": "uint8"
            },
            {
              "internalType": "enum Crawl.Terrain",
              "name": "terrain",
              "type": "uint8"
            },
            {
              "internalType": "enum Crawl.Dir",
              "name": "entryDir",
              "type": "uint8"
            },
            {
              "components": [
                {
                  "internalType": "enum Crawl.Gem",
                  "name": "gemType",
                  "type": "uint8"
                },
                {
                  "internalType": "uint16",
                  "name": "coins",
                  "type": "uint16"
                },
                {
                  "internalType": "uint16",
                  "name": "worth",
                  "type": "uint16"
                }
              ],
              "internalType": "struct Crawl.Hoard",
              "name": "hoard",
              "type": "tuple"
            },
            {
              "internalType": "uint8",
              "name": "gemPos",
              "type": "uint8"
            },
            {
              "internalType": "uint8[4]",
              "name": "doors",
              "type": "uint8[4]"
            },
            {
              "internalType": "uint8[4]",
              "name": "locks",
              "type": "uint8[4]"
            },
            {
              "internalType": "uint256",
              "name": "bitmap",
              "type": "uint256"
            },
            {
              "internalType": "bytes",
              "name": "tilemap",
              "type": "bytes"
            },
            {
              "components": [
                {
                  "internalType": "enum Crawl.CustomDataType",
                  "name": "dataType",
                  "type": "uint8"
                },
                {
                  "internalType": "bytes",
                  "name": "data",
                  "type": "bytes"
                }
              ],
              "internalType": "struct Crawl.CustomData[]",
              "name": "customData",
              "type": "tuple[]"
            }
          ],
          "internalType": "struct Crawl.ChamberData",
          "name": "result",
          "type": "tuple"
        }
      ],
      "stateMutability": "view",
      "type": "function"
    },
    {
      "inputs": [
        {
          "internalType": "uint256",
          "name": "tokenId",
          "type": "uint256"
        }
      ],
      "name": "tokenIdToHoard",
      "outputs": [
        {
          "components": [
            {
              "internalType": "enum Crawl.Gem",
              "name": "gemType",
              "type": "uint8"
            },
            {
              "internalType": "uint16",
              "name": "coins",
              "type": "uint16"
            },
            {
              "internalType": "uint16",
              "name": "worth",
              "type": "uint16"
            }
          ],
          "internalType": "struct Crawl.Hoard",
          "name": "",
          "type": "tuple"
        }
      ],
      "stateMutability": "view",
      "type": "function"
    },
    {
      "inputs": [
        {
          "internalType": "uint256",
          "name": "fromCoord",
          "type": "uint256"
        },
        {
          "internalType": "enum Crawl.Dir",
          "name": "dir",
          "type": "uint8"
        },
        {
          "internalType": "bytes",
          "name": "signature",
          "type": "bytes"
        }
      ],
      "name": "mintDoor",
      "outputs": [
        {
          "internalType": "uint256",
          "name": "",
          "type": "uint256"
        }
      ],
      "stateMutability": "payable",
      "type": "function"
    },
    {
      "inputs": [
        {
          "internalType": "uint256",
          "name": "tokenId",
          "type": "uint256"
        }
      ],
      "name": "tokenURI",
      "outputs": [
        {
          "internalType": "string",
          "name": "",
          "type": "string"
        }
      ],
      "stateMutability": "view",
      "type": "function"
    },
    {
      "inputs": [
        {
          "internalType": "uint8",
          "name": "chapterNumber",
          "type": "uint8"
        },
        {
          "internalType": "uint256",
          "name": "coord",
          "type": "uint256"
        }
      ],
      "name": "getTokenMetadata",
      "outputs": [
        {
          "internalType": "string",
          "name": "",
          "type": "string"
        }
      ],
      "stateMutability": "view",
      "type": "function"
    },
    {
      "inputs": [
        {
          "internalType": "uint8",
          "name": "chapterNumber",
          "type": "uint8"
        },
        {
          "internalType": "uint256",
          "name": "coord",
          "type": "uint256"
        }
      ],
      "name": "getChamberMetadata",
      "outputs": [
        {
          "internalType": "string",
          "name": "",
          "type": "string"
        }
      ],
      "stateMutability": "view",
      "type": "function"
    },
    {
      "inputs": [
        {
          "internalType": "uint8",
          "name": "chapterNumber",
          "type": "uint8"
        },
        {
          "internalType": "uint256",
          "name": "coord",
          "type": "uint256"
        }
      ],
      "name": "getMapMetadata",
      "outputs": [
        {
          "internalType": "string",
          "name": "",
          "type": "string"
        }
      ],
      "stateMutability": "view",
      "type": "function"
    }
  ],
  "bytecode": "0x60806040526001600f60006101000a81548160ff0219169083151502179055503480156200002c57600080fd5b506040516200831b3803806200831b83398181016040528101906200005291906200161b565b733cc6cdda760b79bafa08df41ecfa224f810dceb660016040518060400160405280600f81526020017f456e646c65737320437261776c657200000000000000000000000000000000008152506040518060400160405280600581526020017f4352574c520000000000000000000000000000000000000000000000000000008152508160009081620000e69190620018f1565b508060019081620000f89190620018f1565b50505060006daaeb6d7670e522a718067333cd4e73ffffffffffffffffffffffffffffffffffffffff163b1115620002f0578015620001b6576daaeb6d7670e522a718067333cd4e73ffffffffffffffffffffffffffffffffffffffff16637d3e3dbe30846040518363ffffffff1660e01b81526004016200017c929190620019e9565b600060405180830381600087803b1580156200019757600080fd5b505af1158015620001ac573d6000803e3d6000fd5b50505050620002ef565b600073ffffffffffffffffffffffffffffffffffffffff168273ffffffffffffffffffffffffffffffffffffffff161462000270576daaeb6d7670e522a718067333cd4e73ffffffffffffffffffffffffffffffffffffffff1663a0af290330846040518363ffffffff1660e01b815260040162000236929190620019e9565b600060405180830381600087803b1580156200025157600080fd5b505af115801562000266573d6000803e3d6000fd5b50505050620002ee565b6daaeb6d7670e522a718067333cd4e73ffffffffffffffffffffffffffffffffffffffff16634420e486306040518263ffffffff1660e01b8152600401620002b9919062001a16565b600060405180830381600087803b158015620002d457600080fd5b505af1158015620002e9573d6000803e3d6000fd5b505050505b5b5b505062000312620003066200040b60201b60201c565b6200041360201b60201c565b6200032383620004d960201b60201c565b62000334826200052d60201b60201c565b62000345816200058160201b60201c565b62000357600a620005d560201b60201c565b620003766801000000000000000160018060016200060a60201b60201c565b50620003a778010000000000000000000000000000000100000000000000006001600260036200060a60201b60201c565b50620003d878010000000000000001000000000000000000000000000000006001600360026200060a60201b60201c565b50620004017001000000000000000000000000000000016001600460006200060a60201b60201c565b5050505062002322565b600033905090565b6000600860009054906101000a900473ffffffffffffffffffffffffffffffffffffffff16905081600860006101000a81548173ffffffffffffffffffffffffffffffffffffffff021916908373ffffffffffffffffffffffffffffffffffffffff1602179055508173ffffffffffffffffffffffffffffffffffffffff168173ffffffffffffffffffffffffffffffffffffffff167f8be0079c531659141344cd1fd0a4f28419497f9722a3daafe3b4186f6b6457e060405160405180910390a35050565b620004e9620008fa60201b60201c565b80600960006101000a81548173ffffffffffffffffffffffffffffffffffffffff021916908373ffffffffffffffffffffffffffffffffffffffff16021790555050565b6200053d620008fa60201b60201c565b80600a60006101000a81548173ffffffffffffffffffffffffffffffffffffffff021916908373ffffffffffffffffffffffffffffffffffffffff16021790555050565b62000591620008fa60201b60201c565b80600b60006101000a81548173ffffffffffffffffffffffffffffffffffffffff021916908373ffffffffffffffffffffffffffffffffffffffff16021790555050565b620005e5620008fa60201b60201c565b80600d8190555066038d7ea4c680008162000601919062001a62565b600e8190555050565b6000806001600c546200061e919062001ac3565b9050600060014362000631919062001afe565b40826040516020016200064692919062001b65565b6040516020818303038152906040528051906020012060001c90508660106000848152602001908152602001600020819055506040518060c00160405280838152602001828152602001877cffffffffffffffffffffffffffffffffffffffffffffffffffffffffff168152602001600960009054906101000a900473ffffffffffffffffffffffffffffffffffffffff1673ffffffffffffffffffffffffffffffffffffffff16638e3b60a06040518163ffffffff1660e01b8152600401602060405180830381865afa15801562000723573d6000803e3d6000fd5b505050506040513d601f19601f8201168201806040525081019062000749919062001bd0565b60ff16815260200186600481111562000767576200076662001c02565b5b815260200185600381111562000782576200078162001c02565b5b81525060116000898152602001908152602001600020600082015181600001556020820151816001015560408201518160020160006101000a8154817cffffffffffffffffffffffffffffffffffffffffffffffffffffffffff02191690837cffffffffffffffffffffffffffffffffffffffffffffffffffffffffff160217905550606082015181600201601d6101000a81548160ff021916908360ff160217905550608082015181600201601e6101000a81548160ff0219169083600481111562000854576200085362001c02565b5b021790555060a082015181600201601f6101000a81548160ff0219169083600381111562000887576200088662001c02565b5b0217905550905050620008a133836200098b60201b60201c565b86823373ffffffffffffffffffffffffffffffffffffffff167f25b428dfde728ccfaddad7e29e4ac23c24ed7fd1a6e3e3f91894a9a073f5dfff60405160405180910390a481600c819055508192505050949350505050565b6200090a6200040b60201b60201c565b73ffffffffffffffffffffffffffffffffffffffff1662000930620009b160201b60201c565b73ffffffffffffffffffffffffffffffffffffffff161462000989576040517f08c379a0000000000000000000000000000000000000000000000000000000008152600401620009809062001c92565b60405180910390fd5b565b620009ad828260405180602001604052806000815250620009db60201b60201c565b5050565b6000600860009054906101000a900473ffffffffffffffffffffffffffffffffffffffff16905090565b620009ed838362000a4960201b60201c565b62000a02600084848462000c8f60201b60201c565b62000a44576040517f08c379a000000000000000000000000000000000000000000000000000000000815260040162000a3b9062001d2a565b60405180910390fd5b505050565b600073ffffffffffffffffffffffffffffffffffffffff168273ffffffffffffffffffffffffffffffffffffffff160362000abb576040517f08c379a000000000000000000000000000000000000000000000000000000000815260040162000ab29062001d9c565b60405180910390fd5b62000acc8162000e3860201b60201c565b1562000b0f576040517f08c379a000000000000000000000000000000000000000000000000000000000815260040162000b069062001e0e565b60405180910390fd5b62000b2560008383600162000e8160201b60201c565b62000b368162000e3860201b60201c565b1562000b79576040517f08c379a000000000000000000000000000000000000000000000000000000000815260040162000b709062001e0e565b60405180910390fd5b6001600360008473ffffffffffffffffffffffffffffffffffffffff1673ffffffffffffffffffffffffffffffffffffffff16815260200190815260200160002060008282540192505081905550816002600083815260200190815260200160002060006101000a81548173ffffffffffffffffffffffffffffffffffffffff021916908373ffffffffffffffffffffffffffffffffffffffff160217905550808273ffffffffffffffffffffffffffffffffffffffff16600073ffffffffffffffffffffffffffffffffffffffff167fddf252ad1be2c89b69c2b068fc378daa952ba7f163c4a11628f55a4df523b3ef60405160405180910390a462000c8b60008383600162000f4560201b60201c565b5050565b600062000cbd8473ffffffffffffffffffffffffffffffffffffffff1662000f4b60201b62001e071760201c565b1562000e2b578373ffffffffffffffffffffffffffffffffffffffff1663150b7a0262000cef6200040b60201b60201c565b8786866040518563ffffffff1660e01b815260040162000d13949392919062001eca565b6020604051808303816000875af192505050801562000d5257506040513d601f19601f8201168201806040525081019062000d4f919062001f7b565b60015b62000dda573d806000811462000d85576040519150601f19603f3d011682016040523d82523d6000602084013e62000d8a565b606091505b50600081510362000dd2576040517f08c379a000000000000000000000000000000000000000000000000000000000815260040162000dc99062001d2a565b60405180910390fd5b805181602001fd5b63150b7a0260e01b7bffffffffffffffffffffffffffffffffffffffffffffffffffffffff1916817bffffffffffffffffffffffffffffffffffffffffffffffffffffffff19161491505062000e30565b600190505b949350505050565b60008073ffffffffffffffffffffffffffffffffffffffff1662000e628362000f6e60201b60201c565b73ffffffffffffffffffffffffffffffffffffffff1614159050919050565b62000e9a8484848462000fab60201b62001e2a1760201c565b600a60009054906101000a900473ffffffffffffffffffffffffffffffffffffffff1673ffffffffffffffffffffffffffffffffffffffff16636a71cb53858562000eeb866200123660201b60201c565b6040518463ffffffff1660e01b815260040162000f0b9392919062002065565b600060405180830381600087803b15801562000f2657600080fd5b505af115801562000f3b573d6000803e3d6000fd5b5050505050505050565b50505050565b6000808273ffffffffffffffffffffffffffffffffffffffff163b119050919050565b60006002600083815260200190815260200160002060009054906101000a900473ffffffffffffffffffffffffffffffffffffffff169050919050565b62000fc4848484846200138260201b620020891760201c565b8373ffffffffffffffffffffffffffffffffffffffff168373ffffffffffffffffffffffffffffffffffffffff16146200123057600073ffffffffffffffffffffffffffffffffffffffff168473ffffffffffffffffffffffffffffffffffffffff1614620011a757600060016200104786620014af60201b620014801760201c565b62001053919062001afe565b905060006007600085815260200190815260200160002054905081811462001139576000600660008873ffffffffffffffffffffffffffffffffffffffff1673ffffffffffffffffffffffffffffffffffffffff168152602001908152602001600020600084815260200190815260200160002054905080600660008973ffffffffffffffffffffffffffffffffffffffff1673ffffffffffffffffffffffffffffffffffffffff168152602001908152602001600020600084815260200190815260200160002081905550816007600083815260200190815260200160002081905550505b6007600085815260200190815260200160002060009055600660008773ffffffffffffffffffffffffffffffffffffffff1673ffffffffffffffffffffffffffffffffffffffff16815260200190815260200160002060008381526020019081526020016000206000905550505b6000620011bf84620014af60201b620014801760201c565b905082600660008673ffffffffffffffffffffffffffffffffffffffff1673ffffffffffffffffffffffffffffffffffffffff168152602001908152602001600020600083815260200190815260200160002081905550806007600085815260200190815260200160002081905550505b50505050565b6200124062001569565b600960009054906101000a900473ffffffffffffffffffffffffffffffffffffffff1673ffffffffffffffffffffffffffffffffffffffff1663cff270eb6040518163ffffffff1660e01b8152600401602060405180830381865afa158015620012ae573d6000803e3d6000fd5b505050506040513d601f19601f82011682018060405250810190620012d49190620020e7565b73ffffffffffffffffffffffffffffffffffffffff16633d3114de6011600060106000878152602001908152602001600020548152602001908152602001600020600101546040518263ffffffff1660e01b815260040162001337919062002119565b606060405180830381865afa15801562001355573d6000803e3d6000fd5b505050506040513d601f19601f820116820180604052508101906200137b919062002258565b9050919050565b6001811115620014a957600073ffffffffffffffffffffffffffffffffffffffff168473ffffffffffffffffffffffffffffffffffffffff16146200141a5780600360008673ffffffffffffffffffffffffffffffffffffffff1673ffffffffffffffffffffffffffffffffffffffff168152602001908152602001600020600082825462001412919062001afe565b925050819055505b600073ffffffffffffffffffffffffffffffffffffffff168373ffffffffffffffffffffffffffffffffffffffff1614620014a85780600360008573ffffffffffffffffffffffffffffffffffffffff1673ffffffffffffffffffffffffffffffffffffffff1681526020019081526020016000206000828254620014a0919062001ac3565b925050819055505b5b50505050565b60008073ffffffffffffffffffffffffffffffffffffffff168273ffffffffffffffffffffffffffffffffffffffff160362001522576040517f08c379a0000000000000000000000000000000000000000000000000000000008152600401620015199062002300565b60405180910390fd5b600360008373ffffffffffffffffffffffffffffffffffffffff1673ffffffffffffffffffffffffffffffffffffffff168152602001908152602001600020549050919050565b6040518060600160405280600060088111156200158b576200158a62001c02565b5b8152602001600061ffff168152602001600061ffff1681525090565b6000604051905090565b600080fd5b600073ffffffffffffffffffffffffffffffffffffffff82169050919050565b6000620015e382620015b6565b9050919050565b620015f581620015d6565b81146200160157600080fd5b50565b6000815190506200161581620015ea565b92915050565b600080600060608486031215620016375762001636620015b1565b5b6000620016478682870162001604565b93505060206200165a8682870162001604565b92505060406200166d8682870162001604565b9150509250925092565b600081519050919050565b7f4e487b7100000000000000000000000000000000000000000000000000000000600052604160045260246000fd5b7f4e487b7100000000000000000000000000000000000000000000000000000000600052602260045260246000fd5b60006002820490506001821680620016f957607f821691505b6020821081036200170f576200170e620016b1565b5b50919050565b60008190508160005260206000209050919050565b60006020601f8301049050919050565b600082821b905092915050565b600060088302620017797fffffffffffffffffffffffffffffffffffffffffffffffffffffffffffffffff826200173a565b6200178586836200173a565b95508019841693508086168417925050509392505050565b6000819050919050565b6000819050919050565b6000620017d2620017cc620017c6846200179d565b620017a7565b6200179d565b9050919050565b6000819050919050565b620017ee83620017b1565b62001806620017fd82620017d9565b84845462001747565b825550505050565b600090565b6200181d6200180e565b6200182a818484620017e3565b505050565b5b8181101562001852576200184660008262001813565b60018101905062001830565b5050565b601f821115620018a1576200186b8162001715565b62001876846200172a565b8101602085101562001886578190505b6200189e62001895856200172a565b8301826200182f565b50505b505050565b600082821c905092915050565b6000620018c660001984600802620018a6565b1980831691505092915050565b6000620018e18383620018b3565b9150826002028217905092915050565b620018fc8262001677565b67ffffffffffffffff81111562001918576200191762001682565b5b620019248254620016e0565b6200193182828562001856565b600060209050601f83116001811462001969576000841562001954578287015190505b620019608582620018d3565b865550620019d0565b601f198416620019798662001715565b60005b82811015620019a3578489015182556001820191506020850194506020810190506200197c565b86831015620019c35784890151620019bf601f891682620018b3565b8355505b6001600288020188555050505b505050505050565b620019e381620015d6565b82525050565b600060408201905062001a006000830185620019d8565b62001a0f6020830184620019d8565b9392505050565b600060208201905062001a2d6000830184620019d8565b92915050565b7f4e487b7100000000000000000000000000000000000000000000000000000000600052601160045260246000fd5b600062001a6f826200179d565b915062001a7c836200179d565b9250817fffffffffffffffffffffffffffffffffffffffffffffffffffffffffffffffff048311821515161562001ab85762001ab762001a33565b5b828202905092915050565b600062001ad0826200179d565b915062001add836200179d565b925082820190508082111562001af85762001af762001a33565b5b92915050565b600062001b0b826200179d565b915062001b18836200179d565b925082820390508181111562001b335762001b3262001a33565b5b92915050565b6000819050919050565b62001b4e8162001b39565b82525050565b62001b5f816200179d565b82525050565b600060408201905062001b7c600083018562001b43565b62001b8b602083018462001b54565b9392505050565b600060ff82169050919050565b62001baa8162001b92565b811462001bb657600080fd5b50565b60008151905062001bca8162001b9f565b92915050565b60006020828403121562001be95762001be8620015b1565b5b600062001bf98482850162001bb9565b91505092915050565b7f4e487b7100000000000000000000000000000000000000000000000000000000600052602160045260246000fd5b600082825260208201905092915050565b7f4f776e61626c653a2063616c6c6572206973206e6f7420746865206f776e6572600082015250565b600062001c7a60208362001c31565b915062001c878262001c42565b602082019050919050565b6000602082019050818103600083015262001cad8162001c6b565b9050919050565b7f4552433732313a207472616e7366657220746f206e6f6e20455243373231526560008201527f63656976657220696d706c656d656e7465720000000000000000000000000000602082015250565b600062001d1260328362001c31565b915062001d1f8262001cb4565b604082019050919050565b6000602082019050818103600083015262001d458162001d03565b9050919050565b7f4552433732313a206d696e7420746f20746865207a65726f2061646472657373600082015250565b600062001d8460208362001c31565b915062001d918262001d4c565b602082019050919050565b6000602082019050818103600083015262001db78162001d75565b9050919050565b7f4552433732313a20746f6b656e20616c7265616479206d696e74656400000000600082015250565b600062001df6601c8362001c31565b915062001e038262001dbe565b602082019050919050565b6000602082019050818103600083015262001e298162001de7565b9050919050565b600081519050919050565b600082825260208201905092915050565b60005b8381101562001e6c57808201518184015260208101905062001e4f565b60008484015250505050565b6000601f19601f8301169050919050565b600062001e968262001e30565b62001ea2818562001e3b565b935062001eb481856020860162001e4c565b62001ebf8162001e78565b840191505092915050565b600060808201905062001ee16000830187620019d8565b62001ef06020830186620019d8565b62001eff604083018562001b54565b818103606083015262001f13818462001e89565b905095945050505050565b60007fffffffff0000000000000000000000000000000000000000000000000000000082169050919050565b62001f558162001f1e565b811462001f6157600080fd5b50565b60008151905062001f758162001f4a565b92915050565b60006020828403121562001f945762001f93620015b1565b5b600062001fa48482850162001f64565b91505092915050565b6009811062001fc15762001fc062001c02565b5b50565b600081905062001fd48262001fad565b919050565b600062001fe68262001fc4565b9050919050565b62001ff88162001fd9565b82525050565b600061ffff82169050919050565b620020178162001ffe565b82525050565b60608201600082015162002035600085018262001fed565b5060208201516200204a60208501826200200c565b5060408201516200205f60408501826200200c565b50505050565b600060a0820190506200207c6000830186620019d8565b6200208b6020830185620019d8565b6200209a60408301846200201d565b949350505050565b6000620020af82620015d6565b9050919050565b620020c181620020a2565b8114620020cd57600080fd5b50565b600081519050620020e181620020b6565b92915050565b6000602082840312156200210057620020ff620015b1565b5b60006200211084828501620020d0565b91505092915050565b600060208201905062002130600083018462001b54565b92915050565b600080fd5b620021468262001e78565b810181811067ffffffffffffffff8211171562002168576200216762001682565b5b80604052505050565b60006200217d620015a7565b90506200218b82826200213b565b919050565b600981106200219e57600080fd5b50565b600081519050620021b28162002190565b92915050565b620021c38162001ffe565b8114620021cf57600080fd5b50565b600081519050620021e381620021b8565b92915050565b60006060828403121562002202576200220162002136565b5b6200220e606062002171565b905060006200222084828501620021a1565b60008301525060206200223684828501620021d2565b60208301525060406200224c84828501620021d2565b60408301525092915050565b600060608284031215620022715762002270620015b1565b5b60006200228184828501620021e9565b91505092915050565b7f4552433732313a2061646472657373207a65726f206973206e6f74206120766160008201527f6c6964206f776e65720000000000000000000000000000000000000000000000602082015250565b6000620022e860298362001c31565b9150620022f5826200228a565b604082019050919050565b600060208201905081810360008301526200231b81620022d9565b9050919050565b615fe980620023326000396000f3fe60806040526004361061023b5760003560e01c8063715018a61161012e578063b88d4fde116100ab578063dc865ba51161006f578063dc865ba5146108d5578063e5e7fdfa14610912578063e985e9c51461094f578063ed62c7971461098c578063f2fde38b146109c95761023b565b8063b88d4fde146107c9578063bd9a548b146107f2578063c4b2eaac1461081e578063c87b56dd1461085b578063d085e7c1146108985761023b565b806391df6c70116100f257806391df6c70146106f657806395d89b411461071f5780639aadcfd91461074a578063a22cb46514610775578063b187bd261461079e5761023b565b8063715018a614610611578063831e1907146106285780638525a5d9146106655780638da5cb5b146106a257806391b7f5ed146106cd5761023b565b80632f745c59116101bc5780634f6ccce7116101805780634f6ccce714610501578063601bd2a51461053e5780636352211e1461056e5780636c19e783146105ab57806370a08231146105d45761023b565b80632f745c591461041c5780633eaaf86b1461045957806341f434341461048457806342842e0e146104af5780634c9ba852146104d85761023b565b806316c38b3c1161020357806316c38b3c1461033957806318160ddd1461036257806323b872dd1461038d57806324e6df79146103b65780632cd23784146103f35761023b565b806301ffc9a71461024057806306fdde031461027d578063072c6cda146102a8578063081812fc146102d3578063095ea7b314610310575b600080fd5b34801561024c57600080fd5b5061026760048036038101906102629190613ba5565b6109f2565b6040516102749190613bed565b60405180910390f35b34801561028957600080fd5b50610292610a04565b60405161029f9190613c98565b60405180910390f35b3480156102b457600080fd5b506102bd610a96565b6040516102ca9190613d39565b60405180910390f35b3480156102df57600080fd5b506102fa60048036038101906102f59190613d8a565b610ac0565b6040516103079190613dd8565b60405180910390f35b34801561031c57600080fd5b5061033760048036038101906103329190613e1f565b610b06565b005b34801561034557600080fd5b50610360600480360381019061035b9190613e8b565b610b1f565b005b34801561036e57600080fd5b50610377610b82565b6040516103849190613ec7565b60405180910390f35b34801561039957600080fd5b506103b460048036038101906103af9190613ee2565b610b91565b005b3480156103c257600080fd5b506103dd60048036038101906103d89190613f6e565b610be0565b6040516103ea9190613c98565b60405180910390f35b3480156103ff57600080fd5b5061041a60048036038101906104159190613fae565b610ca1565b005b34801561042857600080fd5b50610443600480360381019061043e9190613e1f565b610ced565b6040516104509190613ec7565b60405180910390f35b34801561046557600080fd5b5061046e610d89565b60405161047b9190613ec7565b60405180910390f35b34801561049057600080fd5b50610499610d93565b6040516104a69190613ffc565b60405180910390f35b3480156104bb57600080fd5b506104d660048036038101906104d19190613ee2565b610da5565b005b3480156104e457600080fd5b506104ff60048036038101906104fa9190613d8a565b610df4565b005b34801561050d57600080fd5b5061052860048036038101906105239190613d8a565b610e62565b6040516105359190613ec7565b60405180910390f35b610558600480360381019061055391906140a1565b610eb8565b6040516105659190613ec7565b60405180910390f35b34801561057a57600080fd5b5061059560048036038101906105909190613d8a565b6113ae565b6040516105a29190613dd8565b60405180910390f35b3480156105b757600080fd5b506105d260048036038101906105cd9190613fae565b611434565b005b3480156105e057600080fd5b506105fb60048036038101906105f69190613fae565b611480565b6040516106089190613ec7565b60405180910390f35b34801561061d57600080fd5b50610626611537565b005b34801561063457600080fd5b5061064f600480360381019061064a9190613d8a565b61154b565b60405161065c91906141eb565b60405180910390f35b34801561067157600080fd5b5061068c60048036038101906106879190613f6e565b61168d565b6040516106999190613c98565b60405180910390f35b3480156106ae57600080fd5b506106b761174e565b6040516106c49190613dd8565b60405180910390f35b3480156106d957600080fd5b506106f460048036038101906106ef9190613d8a565b611778565b005b34801561070257600080fd5b5061071d60048036038101906107189190613fae565b6117a3565b005b34801561072b57600080fd5b506107346117ef565b6040516107419190613c98565b60405180910390f35b34801561075657600080fd5b5061075f611881565b60405161076c9190614227565b60405180910390f35b34801561078157600080fd5b5061079c60048036038101906107979190614242565b6118ab565b005b3480156107aa57600080fd5b506107b36118c4565b6040516107c09190613bed565b60405180910390f35b3480156107d557600080fd5b506107f060048036038101906107eb91906143b2565b6118db565b005b3480156107fe57600080fd5b5061080761192c565b604051610815929190614435565b60405180910390f35b34801561082a57600080fd5b506108456004803603810190610840919061445e565b61193d565b6040516108529190614946565b60405180910390f35b34801561086757600080fd5b50610882600480360381019061087d9190613d8a565b611a07565b60405161088f9190613c98565b60405180910390f35b3480156108a457600080fd5b506108bf60048036038101906108ba9190613d8a565b611a6d565b6040516108cc91906149e3565b60405180910390f35b3480156108e157600080fd5b506108fc60048036038101906108f79190613fae565b611bb2565b6040516109099190613ec7565b60405180910390f35b34801561091e57600080fd5b5061093960048036038101906109349190613d8a565b611c12565b6040516109469190613ec7565b60405180910390f35b34801561095b57600080fd5b50610976600480360381019061097191906149fe565b611c2f565b6040516109839190613bed565b60405180910390f35b34801561099857600080fd5b506109b360048036038101906109ae9190613f6e565b611cc3565b6040516109c09190613c98565b60405180910390f35b3480156109d557600080fd5b506109f060048036038101906109eb9190613fae565b611d84565b005b60006109fd826121af565b9050919050565b606060008054610a1390614a6d565b80601f0160208091040260200160405190810160405280929190818152602001828054610a3f90614a6d565b8015610a8c5780601f10610a6157610100808354040283529160200191610a8c565b820191906000526020600020905b815481529060010190602001808311610a6f57829003601f168201915b5050505050905090565b6000600a60009054906101000a900473ffffffffffffffffffffffffffffffffffffffff16905090565b6000610acb82612229565b6004600083815260200190815260200160002060009054906101000a900473ffffffffffffffffffffffffffffffffffffffff169050919050565b81610b1081612274565b610b1a8383612371565b505050565b610b27612488565b80600f60006101000a81548160ff021916908315150217905550600f60009054906101000a900460ff1615157f0e2fb031ee032dc02d8011dc50b816eb450cf856abd8261680dac74f72165bd260405160405180910390a250565b6000610b8c610d89565b905090565b823373ffffffffffffffffffffffffffffffffffffffff168173ffffffffffffffffffffffffffffffffffffffff1614610bcf57610bce33612274565b5b610bda848484612506565b50505050565b6060600960009054906101000a900473ffffffffffffffffffffffffffffffffffffffff1673ffffffffffffffffffffffffffffffffffffffff16630fe487f38484601160008781526020019081526020016000206040518463ffffffff1660e01b8152600401610c5393929190614c67565b600060405180830381865afa158015610c70573d6000803e3d6000fd5b505050506040513d6000823e3d601f19601f82011682018060405250810190610c999190614d40565b905092915050565b610ca9612488565b80600960006101000a81548173ffffffffffffffffffffffffffffffffffffffff021916908373ffffffffffffffffffffffffffffffffffffffff16021790555050565b6000610cf883611480565b8210610d30576040517f0ddac30e00000000000000000000000000000000000000000000000000000000815260040160405180910390fd5b600660008473ffffffffffffffffffffffffffffffffffffffff1673ffffffffffffffffffffffffffffffffffffffff168152602001908152602001600020600083815260200190815260200160002054905092915050565b6000600c54905090565b6daaeb6d7670e522a718067333cd4e81565b823373ffffffffffffffffffffffffffffffffffffffff168173ffffffffffffffffffffffffffffffffffffffff1614610de357610de233612274565b5b610dee848484612566565b50505050565b610dfc612488565b3373ffffffffffffffffffffffffffffffffffffffff166108fc610e33670de0b6b3a764000084610e2d9190614db8565b47612586565b9081150290604051600060405180830381858888f19350505050158015610e5e573d6000803e3d6000fd5b5050565b6000610e6c610d89565b8210610ea4576040517f9f6fb6c900000000000000000000000000000000000000000000000000000000815260040160405180910390fd5b600182610eb19190614e12565b9050919050565b6000600f60009054906101000a900460ff1615610f01576040517f37914c0000000000000000000000000000000000000000000000000000000000815260040160405180910390fd5b60006011600087815260200190815260200160002090506000816000015403610f56576040517f79e950aa00000000000000000000000000000000000000000000000000000000815260040160405180910390fd5b6000610f62878761259f565b90506000601160008381526020019081526020016000206000015414610fb4576040517f5eeca11300000000000000000000000000000000000000000000000000000000815260040160405180910390fd5b6000858590501461116557600b60009054906101000a900473ffffffffffffffffffffffffffffffffffffffff1673ffffffffffffffffffffffffffffffffffffffff1673__ECDSA_________________________________6319045a2573__ECDSA_________________________________63918a15cf338660405160200161103f929190614e46565b604051602081830303815290604052805190602001206040518263ffffffff1660e01b81526004016110719190614e88565b602060405180830381865af415801561108e573d6000803e3d6000fd5b505050506040513d601f19601f820116820180604052508101906110b29190614ecf565b88886040518463ffffffff1660e01b81526004016110d293929190614f3a565b602060405180830381865af41580156110ef573d6000803e3d6000fd5b505050506040513d601f19601f820116820180604052508101906111139190614f81565b73ffffffffffffffffffffffffffffffffffffffff1614611160576040517f8baa579f00000000000000000000000000000000000000000000000000000000815260040160405180910390fd5b6111a8565b61116e33611bb2565b3410156111a7576040517faa7feadc00000000000000000000000000000000000000000000000000000000815260040160405180910390fd5b5b600082600201601e9054906101000a900460ff16905060006111c98861289c565b90506000601160006111db8c8561259f565b8152602001908152602001600020600201601e9054906101000a900460ff16600481111561120c5761120b614115565b5b83600481111561121f5761121e614115565b5b0361135657600960009054906101000a900473ffffffffffffffffffffffffffffffffffffffff1673ffffffffffffffffffffffffffffffffffffffff1663cff270eb6040518163ffffffff1660e01b8152600401602060405180830381865afa158015611291573d6000803e3d6000fd5b505050506040513d601f19601f820116820180604052508101906112b59190614fec565b73ffffffffffffffffffffffffffffffffffffffff166381d405898a60038111156112e3576112e2614115565b5b87600101546112f29190614e12565b856040518363ffffffff1660e01b8152600401611310929190615028565b602060405180830381865afa15801561132d573d6000803e3d6000fd5b505050506040513d601f19601f820116820180604052508101906113519190615076565b611358565b825b905061139f8460018760020160009054906101000a90047cffffffffffffffffffffffffffffffffffffffffffffffffffffffffff1661139891906150a3565b83856128d6565b95505050505050949350505050565b6000806113ba83612ba9565b9050600073ffffffffffffffffffffffffffffffffffffffff168173ffffffffffffffffffffffffffffffffffffffff160361142b576040517f08c379a000000000000000000000000000000000000000000000000000000000815260040161142290615140565b60405180910390fd5b80915050919050565b61143c612488565b80600b60006101000a81548173ffffffffffffffffffffffffffffffffffffffff021916908373ffffffffffffffffffffffffffffffffffffffff16021790555050565b60008073ffffffffffffffffffffffffffffffffffffffff168273ffffffffffffffffffffffffffffffffffffffff16036114f0576040517f08c379a00000000000000000000000000000000000000000000000000000000081526004016114e7906151d2565b60405180910390fd5b600360008373ffffffffffffffffffffffffffffffffffffffff1673ffffffffffffffffffffffffffffffffffffffff168152602001908152602001600020549050919050565b61153f612488565b6115496000612be6565b565b611553613996565b600960009054906101000a900473ffffffffffffffffffffffffffffffffffffffff1673ffffffffffffffffffffffffffffffffffffffff1663cff270eb6040518163ffffffff1660e01b8152600401602060405180830381865afa1580156115c0573d6000803e3d6000fd5b505050506040513d601f19601f820116820180604052508101906115e49190614fec565b73ffffffffffffffffffffffffffffffffffffffff16633d3114de6011600060106000878152602001908152602001600020548152602001908152602001600020600101546040518263ffffffff1660e01b81526004016116459190613ec7565b606060405180830381865afa158015611662573d6000803e3d6000fd5b505050506040513d601f19601f8201168201806040525081019061168691906152b1565b9050919050565b6060600960009054906101000a900473ffffffffffffffffffffffffffffffffffffffff1673ffffffffffffffffffffffffffffffffffffffff1663f1e608f38484601160008781526020019081526020016000206040518463ffffffff1660e01b815260040161170093929190614c67565b600060405180830381865afa15801561171d573d6000803e3d6000fd5b505050506040513d6000823e3d601f19601f820116820180604052508101906117469190614d40565b905092915050565b6000600860009054906101000a900473ffffffffffffffffffffffffffffffffffffffff16905090565b611780612488565b80600d8190555066038d7ea4c680008161179a9190614db8565b600e8190555050565b6117ab612488565b80600a60006101000a81548173ffffffffffffffffffffffffffffffffffffffff021916908373ffffffffffffffffffffffffffffffffffffffff16021790555050565b6060600180546117fe90614a6d565b80601f016020809104026020016040519081016040528092919081815260200182805461182a90614a6d565b80156118775780601f1061184c57610100808354040283529160200191611877565b820191906000526020600020905b81548152906001019060200180831161185a57829003601f168201915b5050505050905090565b6000600960009054906101000a900473ffffffffffffffffffffffffffffffffffffffff16905090565b816118b581612274565b6118bf8383612cac565b505050565b6000600f60009054906101000a900460ff16905090565b833373ffffffffffffffffffffffffffffffffffffffff168173ffffffffffffffffffffffffffffffffffffffff16146119195761191833612274565b5b61192585858585612cc2565b5050505050565b600080600e54600d54915091509091565b6119456139d1565b600960009054906101000a900473ffffffffffffffffffffffffffffffffffffffff1673ffffffffffffffffffffffffffffffffffffffff16634eb18bb8858560116000888152602001908152602001600020866040518563ffffffff1660e01b81526004016119b894939291906152de565b600060405180830381865afa1580156119d5573d6000803e3d6000fd5b505050506040513d6000823e3d601f19601f820116820180604052508101906119fe91906157a9565b90509392505050565b6060611a1282612d24565b611a48576040517f3f6cc76800000000000000000000000000000000000000000000000000000000815260040160405180910390fd5b611a6660006010600085815260200190815260200160002054611cc3565b9050919050565b611a75613a9b565b601160008381526020019081526020016000206040518060c001604052908160008201548152602001600182015481526020016002820160009054906101000a90047cffffffffffffffffffffffffffffffffffffffffffffffffffffffffff167cffffffffffffffffffffffffffffffffffffffffffffffffffffffffff167cffffffffffffffffffffffffffffffffffffffffffffffffffffffffff16815260200160028201601d9054906101000a900460ff1660ff1660ff16815260200160028201601e9054906101000a900460ff166004811115611b5a57611b59614115565b5b6004811115611b6c57611b6b614115565b5b815260200160028201601f9054906101000a900460ff166003811115611b9557611b94614115565b5b6003811115611ba757611ba6614115565b5b815250509050919050565b600080611bbe83611480565b1480611bfc5750611bcd61174e565b73ffffffffffffffffffffffffffffffffffffffff168273ffffffffffffffffffffffffffffffffffffffff16145b611c0857600e54611c0b565b60005b9050919050565b600060106000838152602001908152602001600020549050919050565b6000600560008473ffffffffffffffffffffffffffffffffffffffff1673ffffffffffffffffffffffffffffffffffffffff16815260200190815260200160002060008373ffffffffffffffffffffffffffffffffffffffff1673ffffffffffffffffffffffffffffffffffffffff16815260200190815260200160002060009054906101000a900460ff16905092915050565b6060600960009054906101000a900473ffffffffffffffffffffffffffffffffffffffff1673ffffffffffffffffffffffffffffffffffffffff1663ac2619228484601160008781526020019081526020016000206040518463ffffffff1660e01b8152600401611d3693929190614c67565b600060405180830381865afa158015611d53573d6000803e3d6000fd5b505050506040513d6000823e3d601f19601f82011682018060405250810190611d7c9190614d40565b905092915050565b611d8c612488565b600073ffffffffffffffffffffffffffffffffffffffff168173ffffffffffffffffffffffffffffffffffffffff1603611dfb576040517f08c379a0000000000000000000000000000000000000000000000000000000008152600401611df290615864565b60405180910390fd5b611e0481612be6565b50565b6000808273ffffffffffffffffffffffffffffffffffffffff163b119050919050565b611e3684848484612089565b8373ffffffffffffffffffffffffffffffffffffffff168373ffffffffffffffffffffffffffffffffffffffff161461208357600073ffffffffffffffffffffffffffffffffffffffff168473ffffffffffffffffffffffffffffffffffffffff16146120075760006001611eaa86611480565b611eb49190615884565b9050600060076000858152602001908152602001600020549050818114611f99576000600660008873ffffffffffffffffffffffffffffffffffffffff1673ffffffffffffffffffffffffffffffffffffffff168152602001908152602001600020600084815260200190815260200160002054905080600660008973ffffffffffffffffffffffffffffffffffffffff1673ffffffffffffffffffffffffffffffffffffffff168152602001908152602001600020600084815260200190815260200160002081905550816007600083815260200190815260200160002081905550505b6007600085815260200190815260200160002060009055600660008773ffffffffffffffffffffffffffffffffffffffff1673ffffffffffffffffffffffffffffffffffffffff16815260200190815260200160002060008381526020019081526020016000206000905550505b600061201284611480565b905082600660008673ffffffffffffffffffffffffffffffffffffffff1673ffffffffffffffffffffffffffffffffffffffff168152602001908152602001600020600083815260200190815260200160002081905550806007600085815260200190815260200160002081905550505b50505050565b60018111156121a957600073ffffffffffffffffffffffffffffffffffffffff168473ffffffffffffffffffffffffffffffffffffffff161461211d5780600360008673ffffffffffffffffffffffffffffffffffffffff1673ffffffffffffffffffffffffffffffffffffffff16815260200190815260200160002060008282546121159190615884565b925050819055505b600073ffffffffffffffffffffffffffffffffffffffff168373ffffffffffffffffffffffffffffffffffffffff16146121a85780600360008573ffffffffffffffffffffffffffffffffffffffff1673ffffffffffffffffffffffffffffffffffffffff16815260200190815260200160002060008282546121a09190614e12565b925050819055505b5b50505050565b60007f780e9d63000000000000000000000000000000000000000000000000000000007bffffffffffffffffffffffffffffffffffffffffffffffffffffffff1916827bffffffffffffffffffffffffffffffffffffffffffffffffffffffff19161480612222575061222182612d65565b5b9050919050565b61223281612d24565b612271576040517f08c379a000000000000000000000000000000000000000000000000000000000815260040161226890615140565b60405180910390fd5b50565b60006daaeb6d7670e522a718067333cd4e73ffffffffffffffffffffffffffffffffffffffff163b111561236e576daaeb6d7670e522a718067333cd4e73ffffffffffffffffffffffffffffffffffffffff1663c617113430836040518363ffffffff1660e01b81526004016122eb9291906158b8565b602060405180830381865afa158015612308573d6000803e3d6000fd5b505050506040513d601f19601f8201168201806040525081019061232c91906158f6565b61236d57806040517fede71dcc0000000000000000000000000000000000000000000000000000000081526004016123649190613dd8565b60405180910390fd5b5b50565b600061237c826113ae565b90508073ffffffffffffffffffffffffffffffffffffffff168373ffffffffffffffffffffffffffffffffffffffff16036123ec576040517f08c379a00000000000000000000000000000000000000000000000000000000081526004016123e390615995565b60405180910390fd5b8073ffffffffffffffffffffffffffffffffffffffff1661240b612e47565b73ffffffffffffffffffffffffffffffffffffffff16148061243a575061243981612434612e47565b611c2f565b5b612479576040517f08c379a000000000000000000000000000000000000000000000000000000000815260040161247090615a27565b60405180910390fd5b6124838383612e4f565b505050565b612490612e47565b73ffffffffffffffffffffffffffffffffffffffff166124ae61174e565b73ffffffffffffffffffffffffffffffffffffffff1614612504576040517f08c379a00000000000000000000000000000000000000000000000000000000081526004016124fb90615a93565b60405180910390fd5b565b612517612511612e47565b82612f08565b612556576040517f08c379a000000000000000000000000000000000000000000000000000000000815260040161254d90615b25565b60405180910390fd5b612561838383612f9d565b505050565b612581838383604051806020016040528060008152506118db565b505050565b60008183106125955781612597565b825b905092915050565b60008060038111156125b4576125b3614115565b5b8260038111156125c7576125c6614115565b5b0361265857600167ffffffffffffffff8016841611156125f5576001836125ee9190615884565b9050612896565b60c067ffffffffffffffff8016901b60c067ffffffffffffffff8016901b84161461265357780100000000000000000000000000000000000000000000000067ffffffffffffffff801619841661264c9190614e12565b9050612896565b612892565b6001600381111561266c5761266b614115565b5b82600381111561267f5761267e614115565b5b036127205768010000000000000000604067ffffffffffffffff8016901b841611156126c15768010000000000000000836126ba9190615884565b9050612896565b608067ffffffffffffffff8016901b608067ffffffffffffffff8016901b84161461271b57700100000000000000000000000000000000604067ffffffffffffffff8016901b1984166127149190614e12565b9050612896565b612891565b6002600381111561273457612733614115565b5b82600381111561274757612746614115565b5b036127f057700100000000000000000000000000000000608067ffffffffffffffff8016901b8416111561279957700100000000000000000000000000000000836127929190615884565b9050612896565b604067ffffffffffffffff8016901b604067ffffffffffffffff8016901b8416146127eb5768010000000000000000608067ffffffffffffffff8016901b1984166127e49190614e12565b9050612896565b612890565b780100000000000000000000000000000000000000000000000060c067ffffffffffffffff8016901b8416111561284d577801000000000000000000000000000000000000000000000000836128469190615884565b9050612896565b67ffffffffffffffff801667ffffffffffffffff801684161461288f57600160c067ffffffffffffffff8016901b1984166128889190614e12565b9050612896565b5b5b5b8290505b92915050565b60008160038111156128b1576128b0614115565b5b60036128bd9190615884565b60038111156128cf576128ce614115565b5b9050919050565b6000806001600c546128e89190614e12565b905060006001436128f99190615884565b408260405160200161290c929190615b54565b6040516020818303038152906040528051906020012060001c90508660106000848152602001908152602001600020819055506040518060c00160405280838152602001828152602001877cffffffffffffffffffffffffffffffffffffffffffffffffffffffffff168152602001600960009054906101000a900473ffffffffffffffffffffffffffffffffffffffff1673ffffffffffffffffffffffffffffffffffffffff16638e3b60a06040518163ffffffff1660e01b8152600401602060405180830381865afa1580156129e8573d6000803e3d6000fd5b505050506040513d601f19601f82011682018060405250810190612a0c9190615b7d565b60ff168152602001866004811115612a2757612a26614115565b5b8152602001856003811115612a3f57612a3e614115565b5b81525060116000898152602001908152602001600020600082015181600001556020820151816001015560408201518160020160006101000a8154817cffffffffffffffffffffffffffffffffffffffffffffffffffffffffff02191690837cffffffffffffffffffffffffffffffffffffffffffffffffffffffffff160217905550606082015181600201601d6101000a81548160ff021916908360ff160217905550608082015181600201601e6101000a81548160ff02191690836004811115612b0e57612b0d614115565b5b021790555060a082015181600201601f6101000a81548160ff02191690836003811115612b3e57612b3d614115565b5b0217905550905050612b503383613296565b86823373ffffffffffffffffffffffffffffffffffffffff167f25b428dfde728ccfaddad7e29e4ac23c24ed7fd1a6e3e3f91894a9a073f5dfff60405160405180910390a481600c819055508192505050949350505050565b60006002600083815260200190815260200160002060009054906101000a900473ffffffffffffffffffffffffffffffffffffffff169050919050565b6000600860009054906101000a900473ffffffffffffffffffffffffffffffffffffffff16905081600860006101000a81548173ffffffffffffffffffffffffffffffffffffffff021916908373ffffffffffffffffffffffffffffffffffffffff1602179055508173ffffffffffffffffffffffffffffffffffffffff168173ffffffffffffffffffffffffffffffffffffffff167f8be0079c531659141344cd1fd0a4f28419497f9722a3daafe3b4186f6b6457e060405160405180910390a35050565b612cbe612cb7612e47565b83836132b4565b5050565b612cd3612ccd612e47565b83612f08565b612d12576040517f08c379a0000000000000000000000000000000000000000000000000000000008152600401612d0990615b25565b60405180910390fd5b612d1e84848484613420565b50505050565b60008073ffffffffffffffffffffffffffffffffffffffff16612d4683612ba9565b73ffffffffffffffffffffffffffffffffffffffff1614159050919050565b60007f80ac58cd000000000000000000000000000000000000000000000000000000007bffffffffffffffffffffffffffffffffffffffffffffffffffffffff1916827bffffffffffffffffffffffffffffffffffffffffffffffffffffffff19161480612e3057507f5b5e139f000000000000000000000000000000000000000000000000000000007bffffffffffffffffffffffffffffffffffffffffffffffffffffffff1916827bffffffffffffffffffffffffffffffffffffffffffffffffffffffff1916145b80612e405750612e3f8261347c565b5b9050919050565b600033905090565b816004600083815260200190815260200160002060006101000a81548173ffffffffffffffffffffffffffffffffffffffff021916908373ffffffffffffffffffffffffffffffffffffffff160217905550808273ffffffffffffffffffffffffffffffffffffffff16612ec2836113ae565b73ffffffffffffffffffffffffffffffffffffffff167f8c5be1e5ebec7d5bd14f71427d1e84f3dd0314c0f7b2291e5b200ac8c7c3b92560405160405180910390a45050565b600080612f14836113ae565b90508073ffffffffffffffffffffffffffffffffffffffff168473ffffffffffffffffffffffffffffffffffffffff161480612f565750612f558185611c2f565b5b80612f9457508373ffffffffffffffffffffffffffffffffffffffff16612f7c84610ac0565b73ffffffffffffffffffffffffffffffffffffffff16145b91505092915050565b8273ffffffffffffffffffffffffffffffffffffffff16612fbd826113ae565b73ffffffffffffffffffffffffffffffffffffffff1614613013576040517f08c379a000000000000000000000000000000000000000000000000000000000815260040161300a90615c1c565b60405180910390fd5b600073ffffffffffffffffffffffffffffffffffffffff168273ffffffffffffffffffffffffffffffffffffffff1603613082576040517f08c379a000000000000000000000000000000000000000000000000000000000815260040161307990615cae565b60405180910390fd5b61308f83838360016134e6565b8273ffffffffffffffffffffffffffffffffffffffff166130af826113ae565b73ffffffffffffffffffffffffffffffffffffffff1614613105576040517f08c379a00000000000000000000000000000000000000000000000000000000081526004016130fc90615c1c565b60405180910390fd5b6004600082815260200190815260200160002060006101000a81549073ffffffffffffffffffffffffffffffffffffffff02191690556001600360008573ffffffffffffffffffffffffffffffffffffffff1673ffffffffffffffffffffffffffffffffffffffff168152602001908152602001600020600082825403925050819055506001600360008473ffffffffffffffffffffffffffffffffffffffff1673ffffffffffffffffffffffffffffffffffffffff16815260200190815260200160002060008282540192505081905550816002600083815260200190815260200160002060006101000a81548173ffffffffffffffffffffffffffffffffffffffff021916908373ffffffffffffffffffffffffffffffffffffffff160217905550808273ffffffffffffffffffffffffffffffffffffffff168473ffffffffffffffffffffffffffffffffffffffff167fddf252ad1be2c89b69c2b068fc378daa952ba7f163c4a11628f55a4df523b3ef60405160405180910390a46132918383836001613591565b505050565b6132b0828260405180602001604052806000815250613597565b5050565b8173ffffffffffffffffffffffffffffffffffffffff168373ffffffffffffffffffffffffffffffffffffffff1603613322576040517f08c379a000000000000000000000000000000000000000000000000000000000815260040161331990615d1a565b60405180910390fd5b80600560008573ffffffffffffffffffffffffffffffffffffffff1673ffffffffffffffffffffffffffffffffffffffff16815260200190815260200160002060008473ffffffffffffffffffffffffffffffffffffffff1673ffffffffffffffffffffffffffffffffffffffff16815260200190815260200160002060006101000a81548160ff0219169083151502179055508173ffffffffffffffffffffffffffffffffffffffff168373ffffffffffffffffffffffffffffffffffffffff167f17307eab39ab6107e8899845ad3d59bd9653f200f220920489ca2b5937696c31836040516134139190613bed565b60405180910390a3505050565b61342b848484612f9d565b613437848484846135f2565b613476576040517f08c379a000000000000000000000000000000000000000000000000000000000815260040161346d90615dac565b60405180910390fd5b50505050565b60007f01ffc9a7000000000000000000000000000000000000000000000000000000007bffffffffffffffffffffffffffffffffffffffffffffffffffffffff1916827bffffffffffffffffffffffffffffffffffffffffffffffffffffffff1916149050919050565b6134f284848484611e2a565b600a60009054906101000a900473ffffffffffffffffffffffffffffffffffffffff1673ffffffffffffffffffffffffffffffffffffffff16636a71cb53858561353b8661154b565b6040518463ffffffff1660e01b815260040161355993929190615dcc565b600060405180830381600087803b15801561357357600080fd5b505af1158015613587573d6000803e3d6000fd5b5050505050505050565b50505050565b6135a18383613779565b6135ae60008484846135f2565b6135ed576040517f08c379a00000000000000000000000000000000000000000000000000000000081526004016135e490615dac565b60405180910390fd5b505050565b60006136138473ffffffffffffffffffffffffffffffffffffffff16611e07565b1561376c578373ffffffffffffffffffffffffffffffffffffffff1663150b7a0261363c612e47565b8786866040518563ffffffff1660e01b815260040161365e9493929190615e4d565b6020604051808303816000875af192505050801561369a57506040513d601f19601f820116820180604052508101906136979190615eae565b60015b61371c573d80600081146136ca576040519150601f19603f3d011682016040523d82523d6000602084013e6136cf565b606091505b506000815103613714576040517f08c379a000000000000000000000000000000000000000000000000000000000815260040161370b90615dac565b60405180910390fd5b805181602001fd5b63150b7a0260e01b7bffffffffffffffffffffffffffffffffffffffffffffffffffffffff1916817bffffffffffffffffffffffffffffffffffffffffffffffffffffffff191614915050613771565b600190505b949350505050565b600073ffffffffffffffffffffffffffffffffffffffff168273ffffffffffffffffffffffffffffffffffffffff16036137e8576040517f08c379a00000000000000000000000000000000000000000000000000000000081526004016137df90615f27565b60405180910390fd5b6137f181612d24565b15613831576040517f08c379a000000000000000000000000000000000000000000000000000000000815260040161382890615f93565b60405180910390fd5b61383f6000838360016134e6565b61384881612d24565b15613888576040517f08c379a000000000000000000000000000000000000000000000000000000000815260040161387f90615f93565b60405180910390fd5b6001600360008473ffffffffffffffffffffffffffffffffffffffff1673ffffffffffffffffffffffffffffffffffffffff16815260200190815260200160002060008282540192505081905550816002600083815260200190815260200160002060006101000a81548173ffffffffffffffffffffffffffffffffffffffff021916908373ffffffffffffffffffffffffffffffffffffffff160217905550808273ffffffffffffffffffffffffffffffffffffffff16600073ffffffffffffffffffffffffffffffffffffffff167fddf252ad1be2c89b69c2b068fc378daa952ba7f163c4a11628f55a4df523b3ef60405160405180910390a4613992600083836001613591565b5050565b6040518060600160405280600060088111156139b5576139b4614115565b5b8152602001600061ffff168152602001600061ffff1681525090565b604051806101c0016040528060008152602001600081526020016000815260200160007cffffffffffffffffffffffffffffffffffffffffffffffffffffffffff168152602001600060ff16815260200160006004811115613a3657613a35614115565b5b815260200160006003811115613a4f57613a4e614115565b5b8152602001613a5c613996565b8152602001600060ff168152602001613a73613b17565b8152602001613a80613b17565b81526020016000815260200160608152602001606081525090565b6040518060c00160405280600081526020016000815260200160007cffffffffffffffffffffffffffffffffffffffffffffffffffffffffff168152602001600060ff16815260200160006004811115613af857613af7614115565b5b815260200160006003811115613b1157613b10614115565b5b81525090565b6040518060800160405280600490602082028036833780820191505090505090565b6000604051905090565b600080fd5b600080fd5b60007fffffffff0000000000000000000000000000000000000000000000000000000082169050919050565b613b8281613b4d565b8114613b8d57600080fd5b50565b600081359050613b9f81613b79565b92915050565b600060208284031215613bbb57613bba613b43565b5b6000613bc984828501613b90565b91505092915050565b60008115159050919050565b613be781613bd2565b82525050565b6000602082019050613c026000830184613bde565b92915050565b600081519050919050565b600082825260208201905092915050565b60005b83811015613c42578082015181840152602081019050613c27565b60008484015250505050565b6000601f19601f8301169050919050565b6000613c6a82613c08565b613c748185613c13565b9350613c84818560208601613c24565b613c8d81613c4e565b840191505092915050565b60006020820190508181036000830152613cb28184613c5f565b905092915050565b600073ffffffffffffffffffffffffffffffffffffffff82169050919050565b6000819050919050565b6000613cff613cfa613cf584613cba565b613cda565b613cba565b9050919050565b6000613d1182613ce4565b9050919050565b6000613d2382613d06565b9050919050565b613d3381613d18565b82525050565b6000602082019050613d4e6000830184613d2a565b92915050565b6000819050919050565b613d6781613d54565b8114613d7257600080fd5b50565b600081359050613d8481613d5e565b92915050565b600060208284031215613da057613d9f613b43565b5b6000613dae84828501613d75565b91505092915050565b6000613dc282613cba565b9050919050565b613dd281613db7565b82525050565b6000602082019050613ded6000830184613dc9565b92915050565b613dfc81613db7565b8114613e0757600080fd5b50565b600081359050613e1981613df3565b92915050565b60008060408385031215613e3657613e35613b43565b5b6000613e4485828601613e0a565b9250506020613e5585828601613d75565b9150509250929050565b613e6881613bd2565b8114613e7357600080fd5b50565b600081359050613e8581613e5f565b92915050565b600060208284031215613ea157613ea0613b43565b5b6000613eaf84828501613e76565b91505092915050565b613ec181613d54565b82525050565b6000602082019050613edc6000830184613eb8565b92915050565b600080600060608486031215613efb57613efa613b43565b5b6000613f0986828701613e0a565b9350506020613f1a86828701613e0a565b9250506040613f2b86828701613d75565b9150509250925092565b600060ff82169050919050565b613f4b81613f35565b8114613f5657600080fd5b50565b600081359050613f6881613f42565b92915050565b60008060408385031215613f8557613f84613b43565b5b6000613f9385828601613f59565b9250506020613fa485828601613d75565b9150509250929050565b600060208284031215613fc457613fc3613b43565b5b6000613fd284828501613e0a565b91505092915050565b6000613fe682613d06565b9050919050565b613ff681613fdb565b82525050565b60006020820190506140116000830184613fed565b92915050565b6004811061402457600080fd5b50565b60008135905061403681614017565b92915050565b600080fd5b600080fd5b600080fd5b60008083601f8401126140615761406061403c565b5b8235905067ffffffffffffffff81111561407e5761407d614041565b5b60208301915083600182028301111561409a57614099614046565b5b9250929050565b600080600080606085870312156140bb576140ba613b43565b5b60006140c987828801613d75565b94505060206140da87828801614027565b935050604085013567ffffffffffffffff8111156140fb576140fa613b48565b5b6141078782880161404b565b925092505092959194509250565b7f4e487b7100000000000000000000000000000000000000000000000000000000600052602160045260246000fd5b6009811061415557614154614115565b5b50565b600081905061416682614144565b919050565b600061417682614158565b9050919050565b6141868161416b565b82525050565b600061ffff82169050919050565b6141a38161418c565b82525050565b6060820160008201516141bf600085018261417d565b5060208201516141d2602085018261419a565b5060408201516141e5604085018261419a565b50505050565b600060608201905061420060008301846141a9565b92915050565b600061421182613d06565b9050919050565b61422181614206565b82525050565b600060208201905061423c6000830184614218565b92915050565b6000806040838503121561425957614258613b43565b5b600061426785828601613e0a565b925050602061427885828601613e76565b9150509250929050565b600080fd5b7f4e487b7100000000000000000000000000000000000000000000000000000000600052604160045260246000fd5b6142bf82613c4e565b810181811067ffffffffffffffff821117156142de576142dd614287565b5b80604052505050565b60006142f1613b39565b90506142fd82826142b6565b919050565b600067ffffffffffffffff82111561431d5761431c614287565b5b61432682613c4e565b9050602081019050919050565b82818337600083830152505050565b600061435561435084614302565b6142e7565b90508281526020810184848401111561437157614370614282565b5b61437c848285614333565b509392505050565b600082601f8301126143995761439861403c565b5b81356143a9848260208601614342565b91505092915050565b600080600080608085870312156143cc576143cb613b43565b5b60006143da87828801613e0a565b94505060206143eb87828801613e0a565b93505060406143fc87828801613d75565b925050606085013567ffffffffffffffff81111561441d5761441c613b48565b5b61442987828801614384565b91505092959194509250565b600060408201905061444a6000830185613eb8565b6144576020830184613eb8565b9392505050565b60008060006060848603121561447757614476613b43565b5b600061448586828701613f59565b935050602061449686828701613d75565b92505060406144a786828701613e76565b9150509250925092565b6144ba81613d54565b82525050565b60007cffffffffffffffffffffffffffffffffffffffffffffffffffffffffff82169050919050565b6144f2816144c0565b82525050565b61450181613f35565b82525050565b6005811061451857614517614115565b5b50565b600081905061452982614507565b919050565b60006145398261451b565b9050919050565b6145498161452e565b82525050565b600481106145605761455f614115565b5b50565b60008190506145718261454f565b919050565b600061458182614563565b9050919050565b61459181614576565b82525050565b6060820160008201516145ad600085018261417d565b5060208201516145c0602085018261419a565b5060408201516145d3604085018261419a565b50505050565b600060049050919050565b600081905092915050565b6000819050919050565b600061460583836144f8565b60208301905092915050565b6000602082019050919050565b614627816145d9565b61463181846145e4565b925061463c826145ef565b8060005b8381101561466d57815161465487826145f9565b965061465f83614611565b925050600181019050614640565b505050505050565b600081519050919050565b600082825260208201905092915050565b600061469c82614675565b6146a68185614680565b93506146b6818560208601613c24565b6146bf81613c4e565b840191505092915050565b600081519050919050565b600082825260208201905092915050565b6000819050602082019050919050565b6010811061470757614706614115565b5b50565b6000819050614718826146f6565b919050565b60006147288261470a565b9050919050565b6147388161471d565b82525050565b6000604083016000830151614756600086018261472f565b506020830151848203602086015261476e8282614691565b9150508091505092915050565b6000614787838361473e565b905092915050565b6000602082019050919050565b60006147a7826146ca565b6147b181856146d5565b9350836020820285016147c3856146e6565b8060005b858110156147ff57848403895281516147e0858261477b565b94506147eb8361478f565b925060208a019950506001810190506147c7565b50829750879550505050505092915050565b60006102c08301600083015161482a60008601826144b1565b50602083015161483d60208601826144b1565b50604083015161485060408601826144b1565b50606083015161486360608601826144e9565b50608083015161487660808601826144f8565b5060a083015161488960a0860182614540565b5060c083015161489c60c0860182614588565b5060e08301516148af60e0860182614597565b506101008301516148c46101408601826144f8565b506101208301516148d961016086018261461e565b506101408301516148ee6101e086018261461e565b506101608301516149036102608601826144b1565b5061018083015184820361028086015261491d8282614691565b9150506101a08301518482036102a0860152614939828261479c565b9150508091505092915050565b600060208201905081810360008301526149608184614811565b905092915050565b60c08201600082015161497e60008501826144b1565b50602082015161499160208501826144b1565b5060408201516149a460408501826144e9565b5060608201516149b760608501826144f8565b5060808201516149ca6080850182614540565b5060a08201516149dd60a0850182614588565b50505050565b600060c0820190506149f86000830184614968565b92915050565b60008060408385031215614a1557614a14613b43565b5b6000614a2385828601613e0a565b9250506020614a3485828601613e0a565b9150509250929050565b7f4e487b7100000000000000000000000000000000000000000000000000000000600052602260045260246000fd5b60006002820490506001821680614a8557607f821691505b602082108103614a9857614a97614a3e565b5b50919050565b614aa781613f35565b82525050565b60008160001c9050919050565b6000819050919050565b6000614ad7614ad283614aad565b614aba565b9050919050565b60007cffffffffffffffffffffffffffffffffffffffffffffffffffffffffff82169050919050565b6000614b1a614b1583614aad565b614ade565b9050919050565b60008160e81c9050919050565b600060ff82169050919050565b6000614b4e614b4983614b21565b614b2e565b9050919050565b60008160f01c9050919050565b600060ff82169050919050565b6000614b82614b7d83614b55565b614b62565b9050919050565b60008160f81c9050919050565b600060ff82169050919050565b6000614bb6614bb183614b89565b614b96565b9050919050565b60c082016000808301549050614bd281614ac4565b614bdf60008601826144b1565b5060018301549050614bf081614ac4565b614bfd60208601826144b1565b5060028301549050614c0e81614b07565b614c1b60408601826144e9565b50614c2581614b3b565b614c3260608601826144f8565b50614c3c81614b6f565b614c496080860182614540565b50614c5381614ba3565b614c6060a0860182614588565b5050505050565b600061010082019050614c7d6000830186614a9e565b614c8a6020830185613eb8565b614c976040830184614bbd565b949350505050565b600067ffffffffffffffff821115614cba57614cb9614287565b5b614cc382613c4e565b9050602081019050919050565b6000614ce3614cde84614c9f565b6142e7565b905082815260208101848484011115614cff57614cfe614282565b5b614d0a848285613c24565b509392505050565b600082601f830112614d2757614d2661403c565b5b8151614d37848260208601614cd0565b91505092915050565b600060208284031215614d5657614d55613b43565b5b600082015167ffffffffffffffff811115614d7457614d73613b48565b5b614d8084828501614d12565b91505092915050565b7f4e487b7100000000000000000000000000000000000000000000000000000000600052601160045260246000fd5b6000614dc382613d54565b9150614dce83613d54565b9250817fffffffffffffffffffffffffffffffffffffffffffffffffffffffffffffffff0483118215151615614e0757614e06614d89565b5b828202905092915050565b6000614e1d82613d54565b9150614e2883613d54565b9250828201905080821115614e4057614e3f614d89565b5b92915050565b6000604082019050614e5b6000830185613dc9565b614e686020830184613eb8565b9392505050565b6000819050919050565b614e8281614e6f565b82525050565b6000602082019050614e9d6000830184614e79565b92915050565b614eac81614e6f565b8114614eb757600080fd5b50565b600081519050614ec981614ea3565b92915050565b600060208284031215614ee557614ee4613b43565b5b6000614ef384828501614eba565b91505092915050565b600082825260208201905092915050565b6000614f198385614efc565b9350614f26838584614333565b614f2f83613c4e565b840190509392505050565b6000604082019050614f4f6000830186614e79565b8181036020830152614f62818486614f0d565b9050949350505050565b600081519050614f7b81613df3565b92915050565b600060208284031215614f9757614f96613b43565b5b6000614fa584828501614f6c565b91505092915050565b6000614fb982613db7565b9050919050565b614fc981614fae565b8114614fd457600080fd5b50565b600081519050614fe681614fc0565b92915050565b60006020828403121561500257615001613b43565b5b600061501084828501614fd7565b91505092915050565b6150228161452e565b82525050565b600060408201905061503d6000830185613eb8565b61504a6020830184615019565b9392505050565b6005811061505e57600080fd5b50565b60008151905061507081615051565b92915050565b60006020828403121561508c5761508b613b43565b5b600061509a84828501615061565b91505092915050565b60006150ae826144c0565b91506150b9836144c0565b925082820190507cffffffffffffffffffffffffffffffffffffffffffffffffffffffffff8111156150ee576150ed614d89565b5b92915050565b7f4552433732313a20696e76616c696420746f6b656e2049440000000000000000600082015250565b600061512a601883613c13565b9150615135826150f4565b602082019050919050565b600060208201905081810360008301526151598161511d565b9050919050565b7f4552433732313a2061646472657373207a65726f206973206e6f74206120766160008201527f6c6964206f776e65720000000000000000000000000000000000000000000000602082015250565b60006151bc602983613c13565b91506151c782615160565b604082019050919050565b600060208201905081810360008301526151eb816151af565b9050919050565b600080fd5b600080fd5b6009811061520957600080fd5b50565b60008151905061521b816151fc565b92915050565b61522a8161418c565b811461523557600080fd5b50565b60008151905061524781615221565b92915050565b600060608284031215615263576152626151f2565b5b61526d60606142e7565b9050600061527d8482850161520c565b600083015250602061529184828501615238565b60208301525060406152a584828501615238565b60408301525092915050565b6000606082840312156152c7576152c6613b43565b5b60006152d58482850161524d565b91505092915050565b6000610120820190506152f46000830187614a9e565b6153016020830186613eb8565b61530e6040830185614bbd565b61531c610100830184613bde565b95945050505050565b60008151905061533481613d5e565b92915050565b615343816144c0565b811461534e57600080fd5b50565b6000815190506153608161533a565b92915050565b60008151905061537581613f42565b92915050565b60008151905061538a81614017565b92915050565b600067ffffffffffffffff8211156153ab576153aa614287565b5b602082029050919050565b60006153c96153c484615390565b6142e7565b905080602084028301858111156153e3576153e2614046565b5b835b8181101561540c57806153f88882615366565b8452602084019350506020810190506153e5565b5050509392505050565b600082601f83011261542b5761542a61403c565b5b60046154388482856153b6565b91505092915050565b600061545461544f84614302565b6142e7565b9050828152602081018484840111156154705761546f614282565b5b61547b848285613c24565b509392505050565b600082601f8301126154985761549761403c565b5b81516154a8848260208601615441565b91505092915050565b600067ffffffffffffffff8211156154cc576154cb614287565b5b602082029050602081019050919050565b601081106154ea57600080fd5b50565b6000815190506154fc816154dd565b92915050565b600060408284031215615518576155176151f2565b5b61552260406142e7565b90506000615532848285016154ed565b600083015250602082015167ffffffffffffffff811115615556576155556151f7565b5b61556284828501615483565b60208301525092915050565b600061558161557c846154b1565b6142e7565b905080838252602082019050602084028301858111156155a4576155a3614046565b5b835b818110156155eb57805167ffffffffffffffff8111156155c9576155c861403c565b5b8086016155d68982615502565b855260208501945050506020810190506155a6565b5050509392505050565b600082601f83011261560a5761560961403c565b5b815161561a84826020860161556e565b91505092915050565b60006102c0828403121561563a576156396151f2565b5b6156456101c06142e7565b9050600061565584828501615325565b600083015250602061566984828501615325565b602083015250604061567d84828501615325565b604083015250606061569184828501615351565b60608301525060806156a584828501615366565b60808301525060a06156b984828501615061565b60a08301525060c06156cd8482850161537b565b60c08301525060e06156e18482850161524d565b60e0830152506101406156f684828501615366565b6101008301525061016061570c84828501615416565b610120830152506101e061572284828501615416565b6101408301525061026061573884828501615325565b6101608301525061028082015167ffffffffffffffff81111561575e5761575d6151f7565b5b61576a84828501615483565b610180830152506102a082015167ffffffffffffffff8111156157905761578f6151f7565b5b61579c848285016155f5565b6101a08301525092915050565b6000602082840312156157bf576157be613b43565b5b600082015167ffffffffffffffff8111156157dd576157dc613b48565b5b6157e984828501615623565b91505092915050565b7f4f776e61626c653a206e6577206f776e657220697320746865207a65726f206160008201527f6464726573730000000000000000000000000000000000000000000000000000602082015250565b600061584e602683613c13565b9150615859826157f2565b604082019050919050565b6000602082019050818103600083015261587d81615841565b9050919050565b600061588f82613d54565b915061589a83613d54565b92508282039050818111156158b2576158b1614d89565b5b92915050565b60006040820190506158cd6000830185613dc9565b6158da6020830184613dc9565b9392505050565b6000815190506158f081613e5f565b92915050565b60006020828403121561590c5761590b613b43565b5b600061591a848285016158e1565b91505092915050565b7f4552433732313a20617070726f76616c20746f2063757272656e74206f776e6560008201527f7200000000000000000000000000000000000000000000000000000000000000602082015250565b600061597f602183613c13565b915061598a82615923565b604082019050919050565b600060208201905081810360008301526159ae81615972565b9050919050565b7f4552433732313a20617070726f76652063616c6c6572206973206e6f7420746f60008201527f6b656e206f776e6572206f7220617070726f76656420666f7220616c6c000000602082015250565b6000615a11603d83613c13565b9150615a1c826159b5565b604082019050919050565b60006020820190508181036000830152615a4081615a04565b9050919050565b7f4f776e61626c653a2063616c6c6572206973206e6f7420746865206f776e6572600082015250565b6000615a7d602083613c13565b9150615a8882615a47565b602082019050919050565b60006020820190508181036000830152615aac81615a70565b9050919050565b7f4552433732313a2063616c6c6572206973206e6f7420746f6b656e206f776e6560008201527f72206f7220617070726f76656400000000000000000000000000000000000000602082015250565b6000615b0f602d83613c13565b9150615b1a82615ab3565b604082019050919050565b60006020820190508181036000830152615b3e81615b02565b9050919050565b615b4e81614e6f565b82525050565b6000604082019050615b696000830185615b45565b615b766020830184613eb8565b9392505050565b600060208284031215615b9357615b92613b43565b5b6000615ba184828501615366565b91505092915050565b7f4552433732313a207472616e736665722066726f6d20696e636f72726563742060008201527f6f776e6572000000000000000000000000000000000000000000000000000000602082015250565b6000615c06602583613c13565b9150615c1182615baa565b604082019050919050565b60006020820190508181036000830152615c3581615bf9565b9050919050565b7f4552433732313a207472616e7366657220746f20746865207a65726f2061646460008201527f7265737300000000000000000000000000000000000000000000000000000000602082015250565b6000615c98602483613c13565b9150615ca382615c3c565b604082019050919050565b60006020820190508181036000830152615cc781615c8b565b9050919050565b7f4552433732313a20617070726f766520746f2063616c6c657200000000000000600082015250565b6000615d04601983613c13565b9150615d0f82615cce565b602082019050919050565b60006020820190508181036000830152615d3381615cf7565b9050919050565b7f4552433732313a207472616e7366657220746f206e6f6e20455243373231526560008201527f63656976657220696d706c656d656e7465720000000000000000000000000000602082015250565b6000615d96603283613c13565b9150615da182615d3a565b604082019050919050565b60006020820190508181036000830152615dc581615d89565b9050919050565b600060a082019050615de16000830186613dc9565b615dee6020830185613dc9565b615dfb60408301846141a9565b949350505050565b600082825260208201905092915050565b6000615e1f82614675565b615e298185615e03565b9350615e39818560208601613c24565b615e4281613c4e565b840191505092915050565b6000608082019050615e626000830187613dc9565b615e6f6020830186613dc9565b615e7c6040830185613eb8565b8181036060830152615e8e8184615e14565b905095945050505050565b600081519050615ea881613b79565b92915050565b600060208284031215615ec457615ec3613b43565b5b6000615ed284828501615e99565b91505092915050565b7f4552433732313a206d696e7420746f20746865207a65726f2061646472657373600082015250565b6000615f11602083613c13565b9150615f1c82615edb565b602082019050919050565b60006020820190508181036000830152615f4081615f04565b9050919050565b7f4552433732313a20746f6b656e20616c7265616479206d696e74656400000000600082015250565b6000615f7d601c83613c13565b9150615f8882615f47565b602082019050919050565b60006020820190508181036000830152615fac81615f70565b905091905056fea2646970667358221220d3eb30a08025fdfdc7e1e3e15f834af9c9ebf64c390106ee1f2f361f6ac18f0d64736f6c63430008100033",
  "immutableReferences": {},
  "source": "// SPDX-License-Identifier: MIT\n//\n//    \n//             \n//              \n//              \n//              \n//          \n//        \n//      \n//\n// https://endlesscrawler.io\n// @EndlessCrawler\n//\n/// @title Endless Crawler Chamber Minter\n/// @author Studio Avante\n/// @notice Mints new Chambers for Endless Crawler\n/// @dev Depends on upgradeable ICrawlerIndex and ICrawlerPlayer\n//\npragma solidity ^0.8.16;\nimport { DefaultOperatorFilterer } from \"operator-filter-registry/src/DefaultOperatorFilterer.sol\";\nimport { ERC721, IERC721, IERC165, IERC721Metadata } from '@openzeppelin/contracts/token/ERC721/ERC721.sol';\nimport { Ownable } from '@openzeppelin/contracts/access/Ownable.sol';\nimport { ECDSA } from './extras/ECDSA.sol';\nimport { ERC721Enumerable } from './extras/ERC721Enumerable.sol';\nimport { ICrawlerIndex } from './ICrawlerIndex.sol';\nimport { ICrawlerPlayer } from './ICrawlerPlayer.sol';\nimport { ICrawlerToken } from './ICrawlerToken.sol';\nimport { Crawl } from './Crawl.sol';\n\ncontract CrawlerToken is ERC721, ERC721Enumerable, DefaultOperatorFilterer, Ownable, ICrawlerToken {\n\n\terror MintingIsPaused();\n\terror InvalidFromChamber();\n\terror InvalidDoor();\n\terror InvalidSignature();\n\terror InvalidValue();\n\terror InvalidTokenId();\n\n\tICrawlerIndex private _index;\n  ICrawlerPlayer private _player;\n\taddress private _signerAddress;\n\tuint256 private _mintedCount;\n\tuint256 private _priceInPwei;\n\tuint256 private _priceInWei;\n\tbool private _paused = true;\n\n\tmapping(uint256 => uint256) private _tokenIdToCoord;\n\tmapping(uint256 => Crawl.ChamberSeed) private _coordToSeed;\n\n\tevent Paused(bool indexed paused);\n\tevent Minted(address indexed to, uint256 indexed tokenId, uint256 indexed coord);\n\n\tconstructor(address index_, address player_, address signer_) ERC721('Endless Crawler', 'CRWLR') {\n\t\tsetIndexContract(index_);\n\t\tsetPlayerContract(player_);\n\t\tsetSigner(signer_);\n\t\tsetPrice(10);\n\n\t\t// Mint origins, Yonder 1, as...\n\t\t// 2 Water | 3 Air\n\t\t// --------|--------\n\t\t// 1 Earth | 4 Fire\n\t\t_mint((1 << 64) + 1, 1, Crawl.Terrain.Earth, Crawl.Dir.East);\t\t\t\t\t\t// same as Crawl.makeCoord(0, 0, 1, 1) or __WS\n\t\t_mint((1 << 192) + (1 << 64), 1, Crawl.Terrain.Water, Crawl.Dir.South);\t// same as Crawl.makeCoord(1, 0, 1, 0) or N_W_\n\t\t_mint((1 << 192) + (1 << 128), 1, Crawl.Terrain.Air, Crawl.Dir.West); \t// same as Crawl.makeCoord(1, 1, 0, 0) or NE__\n\t\t_mint((1 << 128) + 1, 1, Crawl.Terrain.Fire, Crawl.Dir.North);\t\t\t\t\t// same as Crawl.makeCoord(0, 1, 0, 1) or _E_S\n\t}\n\n\t/// @dev Required by ERC721 interfaces\n\tfunction supportsInterface(bytes4 interfaceId) public view override (IERC165, ERC721, ERC721Enumerable) returns (bool) {\n\t\treturn ERC721Enumerable.supportsInterface(interfaceId);\n\t}\n\n\t/// @dev Required by ERC721 interfaces\n\tfunction _beforeTokenTransfer(address from, address to, uint256 tokenId, uint256 batchSize) internal override (ERC721, ERC721Enumerable) {\n\t\tERC721Enumerable._beforeTokenTransfer(from, to, tokenId, batchSize);\n\t\t_player.transferChamberHoard(from, to, tokenIdToHoard(tokenId));\n\t}\n\n\t/// @dev Required by ERC721 interfaces\n\tfunction _totalSupply() public view override returns (uint256) {\n\t\treturn _mintedCount;\n\t}\n\n\t/// @dev Required by OpenSea operator-filter-registry\n\tfunction setApprovalForAll(address operator, bool approved) public override(ERC721, IERC721) onlyAllowedOperatorApproval(operator) {\n\t\tsuper.setApprovalForAll(operator, approved);\n\t}\n\t/// @dev Required by OpenSea operator-filter-registry\n\tfunction approve(address operator, uint256 tokenId) public override(ERC721, IERC721) onlyAllowedOperatorApproval(operator) {\n\t\tsuper.approve(operator, tokenId);\n\t}\n\t/// @dev Required by OpenSea operator-filter-registry\n\tfunction transferFrom(address from, address to, uint256 tokenId) public override(ERC721, IERC721) onlyAllowedOperator(from) {\n\t\tsuper.transferFrom(from, to, tokenId);\n\t}\n\t/// @dev Required by OpenSea operator-filter-registry\n\tfunction safeTransferFrom(address from, address to, uint256 tokenId) public override(ERC721, IERC721) onlyAllowedOperator(from) {\n\t\tsuper.safeTransferFrom(from, to, tokenId);\n\t}\n\t/// @dev Required by OpenSea operator-filter-registry\n\tfunction safeTransferFrom(address from, address to, uint256 tokenId, bytes memory data) public override(ERC721, IERC721) onlyAllowedOperator(from) {\n\t\tsuper.safeTransferFrom(from, to, tokenId, data);\n\t}\n\n\t//---------------\n\t// Admin\n\t//\n\n\t/// @notice Admin function\n\tfunction setIndexContract(address index_) public onlyOwner {\n\t\t_index = ICrawlerIndex(index_);\n\t}\n\n\t/// @notice Admin function\n\tfunction setPlayerContract(address player_) public onlyOwner {\n\t\t_player = ICrawlerPlayer(player_);\n\t}\n\n\t/// @notice Admin function\n\tfunction setSigner(address signer_) public onlyOwner {\n\t\t_signerAddress = signer_;\n\t}\n\n\t/// @notice Admin function\n\tfunction setPrice(uint256 priceInPwei_) public onlyOwner {\n\t\t_priceInPwei = priceInPwei_;\n\t\t_priceInWei = priceInPwei_ * 1_000_000_000_000_000;\n\t}\n\n\t/// @notice Admin function\n\tfunction setPaused(bool paused_) public onlyOwner {\n\t\t_paused = paused_;\n\t\temit Paused(_paused);\n\t}\n\n\t/// @notice Admin function\n\tfunction checkout(uint256 eth) public onlyOwner {\n\t\tpayable(msg.sender).transfer(Crawl.min(eth * 1_000_000_000_000_000_000, address(this).balance));\n\t}\n\n\t//---------------\n\t// Public\n\t//\n\n\t/// @notice Return the current pause status\n\t/// @return paused True if paused (cannot mint), False if not (can mint)\n\tfunction isPaused() public view override returns (bool) {\n\t\treturn _paused;\n\t}\n\n\t/// @notice Return the current Index contract\n\t/// @return paused Contract address\n\tfunction getIndexContract() public view returns(ICrawlerIndex) {\n\t\treturn _index;\n\t}\n\n\t/// @notice Return the current Player contract\n\t/// @return paused Contract address\n\tfunction getPlayerContract() public view returns(ICrawlerPlayer) {\n\t\treturn _player;\n\t}\n\n\t/// @notice Return the current mint prices\n\t/// @return prices Prices in WEI (for msg.value), and PWEI (stored, 1 pwei = ETH/1000)\n\tfunction getPrices() public view override returns (uint256, uint256) {\n\t\treturn (_priceInWei, _priceInPwei);\n\t}\n\n\t/// @notice Return the current mint prices\n\t/// Price is FREE for the first token\n\t/// Price is FREE when minted in-game, provided signature\n\t/// Otherwise, price is _priceInPwei\n\t/// @param to Account for which price will be calculated\n\t/// @return price Token price for account, in WEI\n\tfunction calculateMintPrice(address to) public view override returns (uint256) {\n\t\treturn balanceOf(to) == 0 || to == owner() ? 0 : _priceInWei;\n\t}\n\n\t/// @notice Returns a Chamber coordinate\n\t/// @param tokenId Token id\n\t/// @return result Chamber coordinate\n\tfunction tokenIdToCoord(uint256 tokenId) public view override returns (uint256) {\n\t\treturn _tokenIdToCoord[tokenId];\n\t}\n\n\t/// @notice Returns a Chamber static immutable data\n\t/// @param coord Chamber coordinate\n\t/// @return result Crawl.ChamberSeed struct\n\tfunction coordToSeed(uint256 coord) public view override returns (Crawl.ChamberSeed memory) {\n\t\treturn _coordToSeed[coord];\n\t}\n\n\t/// @notice Returns a Chamber generated data\n\t/// @param chapterNumber The Chapter number, or 0 for current chapter\n\t/// @param coord Chamber coordinate\n\t/// @param generateMaps True for generating bitmap and tilemap\n\t/// @return result Crawl.ChamberData struct\n\tfunction coordToChamberData(uint8 chapterNumber, uint256 coord, bool generateMaps) public view override returns (Crawl.ChamberData memory result) {\n\t\treturn _index.getChamberData(chapterNumber, coord, _coordToSeed[coord], generateMaps);\n\t}\n\n\t/// @notice Returns a Chamber Hoard (gems and coins)\n\t/// @param tokenId Token id\n\t/// @return result Crawl.Hoard struct\n\tfunction tokenIdToHoard(uint256 tokenId) public view override returns (Crawl.Hoard memory) {\n\t\treturn _index.getChamberGenerator().generateHoard(_coordToSeed[_tokenIdToCoord[tokenId]].seed);\n\t}\n\n\t/// @notice Unlocks a door, minting a new Chamber\n\t/// @param fromCoord Chamber coordinate, where door is located\n\t/// @param dir Door direction\n\t/// @param signature signature from endlesscrawler.io allowing free mint. if absent, calculateMintPrice(msg.sender) must be sent as msg.value\n\t/// @return tokenId Token id\n\tfunction mintDoor(uint256 fromCoord, Crawl.Dir dir, bytes calldata signature) public payable returns (uint256) {\n\t\tif(_paused) revert MintingIsPaused();\n\n\t\tCrawl.ChamberSeed storage fromChamber = _coordToSeed[fromCoord];\n\t\tif(fromChamber.tokenId == 0) revert InvalidFromChamber();\n\n\t\t// New chamber must be empty\n\t\tuint256 newCoord = Crawl.offsetCoord(fromCoord, dir);\n\t\tif(_coordToSeed[newCoord].tokenId != 0) revert InvalidDoor();\n\n\t\tif(signature.length != 0) {\n\t\t\t// If has signature, validate it to mint for free\n\t\t\tif(ECDSA.recover(ECDSA.toEthSignedMessageHash(keccak256(abi.encode(msg.sender, newCoord))), signature) != _signerAddress) revert InvalidSignature();\n\t\t} else {\n\t\t\t// Validate price\n\t\t\tif(msg.value < calculateMintPrice(msg.sender)) revert InvalidValue();\n\t\t}\n\n\t\t// Terrain type will be defined by a super simple cellular automata\n\t\t// If chamber opposite to fromCoord is different than it, repeat its Terrain, else randomize\n\t\tCrawl.Terrain fromTerrain = fromChamber.terrain;\n\t\tCrawl.Dir entryDir = Crawl.flipDir(dir);\n\t\tCrawl.Terrain terrain = fromTerrain != _coordToSeed[Crawl.offsetCoord(fromCoord, entryDir)].terrain ? fromTerrain\n\t\t\t: _index.getChamberGenerator().generateTerrainType(fromChamber.seed+uint256(dir), fromTerrain);\n\n\t\t// mint!\n\t\treturn _mint(\n\t\t\tnewCoord,\n\t\t\tfromChamber.yonder + 1,\n\t\t\tterrain,\n\t\t\tentryDir);\n\t}\n\n\t/// @dev Internal mint function\n\tfunction _mint(uint256 coord, uint232 yonder, Crawl.Terrain terrain, Crawl.Dir entryDir) internal returns (uint256) {\n\t\tuint256 tokenId = _mintedCount + 1;\n\t\tuint256 seed = uint256(keccak256(abi.encode(blockhash(block.number-1), tokenId)));\n\t\t_tokenIdToCoord[tokenId] = coord;\n\t\t_coordToSeed[coord] = Crawl.ChamberSeed(\n\t\t\ttokenId,\n\t\t\tseed,\n\t\t\tyonder,\n\t\t\t_index.getCurrentChapterNumber(),\n\t\t\tterrain,\n\t\t\tentryDir\n\t\t);\n\t\t_safeMint(msg.sender, tokenId);\n\t\temit Minted(msg.sender, tokenId, coord);\n\t\t_mintedCount = tokenId;\n\t\treturn tokenId;\n\t}\n\n\t/// @notice Returns IERC721Metadata compliant metadata\n\t/// @param tokenId Token id\n\t/// @return metadata Metadata, as base64 json string\n\tfunction tokenURI(uint256 tokenId) public view override (ERC721, IERC721Metadata) returns (string memory) {\n\t\tif(!_exists(tokenId)) revert InvalidTokenId();\n\t\treturn getTokenMetadata(0, _tokenIdToCoord[tokenId]);\n\t}\n\n\t/// @notice Returns IERC721Metadata compliant metadata, used by tokenURI()\n\t/// @param chapterNumber The Chapter number, or 0 for current chapter\n\t/// @param coord Chamber coordinate\n\t/// @return metadata Metadata, as base64 json string\n\tfunction getTokenMetadata(uint8 chapterNumber, uint256 coord) public view returns (string memory) {\n\t\treturn _index.getTokenMetadata(chapterNumber, coord, _coordToSeed[coord]);\n\t}\n\n\t/// @notice Returns a Chamber metadata, without maps\n\t/// @param chapterNumber The Chapter number, or 0 for current chapter\n\t/// @param coord Chamber coordinate\n\t/// @return metadata Metadata, as plain json string\n\tfunction getChamberMetadata(uint8 chapterNumber, uint256 coord) public view returns (string memory) {\n\t\treturn _index.getChamberMetadata(chapterNumber, coord, _coordToSeed[coord]);\n\t}\n\n\t/// @notice Returns the seed and tilemap of a Chamber, used for world building\n\t/// @param chapterNumber The Chapter number, or 0 for current chapter\n\t/// @param coord Chamber coordinate\n\t/// @return metadata Metadata, as plain json string\n\tfunction getMapMetadata(uint8 chapterNumber, uint256 coord) public view returns (string memory) {\n\t\treturn _index.getMapMetadata(chapterNumber, coord, _coordToSeed[coord]);\n\t}\n\n}\n",
  "sourcePath": "/Users/roger/Dev/Blockchain/Truffle/ec-crawler/contracts/CrawlerToken.sol",
  "compiler": {
    "name": "solc",
    "version": "0.8.16+commit.07a7930e.Emscripten.clang"
  },
  "schemaVersion": "3.4.11",
  "updatedAt": "2022-12-05T23:24:08.541Z",
  "devdoc": {
    "kind": "dev",
    "methods": {
      "_totalSupply()": {
        "details": "Required by ERC721 interfaces"
      },
      "approve(address,uint256)": {
        "details": "Required by OpenSea operator-filter-registry"
      },
      "balanceOf(address)": {
        "details": "See {IERC721-balanceOf}."
      },
      "calculateMintPrice(address)": {
        "params": {
          "to": "Account for which price will be calculated"
        },
        "returns": {
          "_0": "price Token price for account, in WEI"
        }
      },
      "coordToChamberData(uint8,uint256,bool)": {
        "params": {
          "chapterNumber": "The Chapter number, or 0 for current chapter",
          "coord": "Chamber coordinate",
          "generateMaps": "True for generating bitmap and tilemap"
        },
        "returns": {
          "result": "Crawl.ChamberData struct"
        }
      },
      "coordToSeed(uint256)": {
        "params": {
          "coord": "Chamber coordinate"
        },
        "returns": {
          "_0": "result Crawl.ChamberSeed struct"
        }
      },
      "getApproved(uint256)": {
        "details": "See {IERC721-getApproved}."
      },
      "getChamberMetadata(uint8,uint256)": {
        "params": {
          "chapterNumber": "The Chapter number, or 0 for current chapter",
          "coord": "Chamber coordinate"
        },
        "returns": {
          "_0": "metadata Metadata, as plain json string"
        }
      },
      "getIndexContract()": {
        "returns": {
          "_0": "paused Contract address"
        }
      },
      "getMapMetadata(uint8,uint256)": {
        "params": {
          "chapterNumber": "The Chapter number, or 0 for current chapter",
          "coord": "Chamber coordinate"
        },
        "returns": {
          "_0": "metadata Metadata, as plain json string"
        }
      },
      "getPlayerContract()": {
        "returns": {
          "_0": "paused Contract address"
        }
      },
      "getPrices()": {
        "returns": {
          "_0": "prices Prices in WEI (for msg.value), and PWEI (stored, 1 pwei = ETH/1000)"
        }
      },
      "getTokenMetadata(uint8,uint256)": {
        "params": {
          "chapterNumber": "The Chapter number, or 0 for current chapter",
          "coord": "Chamber coordinate"
        },
        "returns": {
          "_0": "metadata Metadata, as base64 json string"
        }
      },
      "isApprovedForAll(address,address)": {
        "details": "See {IERC721-isApprovedForAll}."
      },
      "isPaused()": {
        "returns": {
          "_0": "paused True if paused (cannot mint), False if not (can mint)"
        }
      },
      "mintDoor(uint256,uint8,bytes)": {
        "params": {
          "dir": "Door direction",
          "fromCoord": "Chamber coordinate, where door is located",
          "signature": "signature from endlesscrawler.io allowing free mint. if absent, calculateMintPrice(msg.sender) must be sent as msg.value"
        },
        "returns": {
          "_0": "tokenId Token id"
        }
      },
      "name()": {
        "details": "See {IERC721Metadata-name}."
      },
      "owner()": {
        "details": "Returns the address of the current owner."
      },
      "ownerOf(uint256)": {
        "details": "See {IERC721-ownerOf}."
      },
      "renounceOwnership()": {
        "details": "Leaves the contract without owner. It will not be possible to call `onlyOwner` functions anymore. Can only be called by the current owner. NOTE: Renouncing ownership will leave the contract without an owner, thereby removing any functionality that is only available to the owner."
      },
      "safeTransferFrom(address,address,uint256)": {
        "details": "Required by OpenSea operator-filter-registry"
      },
      "safeTransferFrom(address,address,uint256,bytes)": {
        "details": "Required by OpenSea operator-filter-registry"
      },
      "setApprovalForAll(address,bool)": {
        "details": "Required by OpenSea operator-filter-registry"
      },
      "supportsInterface(bytes4)": {
        "details": "Required by ERC721 interfaces"
      },
      "symbol()": {
        "details": "See {IERC721Metadata-symbol}."
      },
      "tokenByIndex(uint256)": {
        "details": "See {IERC721Enumerable-tokenByIndex}."
      },
      "tokenIdToCoord(uint256)": {
        "params": {
          "tokenId": "Token id"
        },
        "returns": {
          "_0": "result Chamber coordinate"
        }
      },
      "tokenIdToHoard(uint256)": {
        "params": {
          "tokenId": "Token id"
        },
        "returns": {
          "_0": "result Crawl.Hoard struct"
        }
      },
      "tokenOfOwnerByIndex(address,uint256)": {
        "details": "See {IERC721Enumerable-tokenOfOwnerByIndex}."
      },
      "tokenURI(uint256)": {
        "params": {
          "tokenId": "Token id"
        },
        "returns": {
          "_0": "metadata Metadata, as base64 json string"
        }
      },
      "totalSupply()": {
        "details": "See {IERC721Enumerable-totalSupply}."
      },
      "transferFrom(address,address,uint256)": {
        "details": "Required by OpenSea operator-filter-registry"
      },
      "transferOwnership(address)": {
        "details": "Transfers ownership of the contract to a new account (`newOwner`). Can only be called by the current owner."
      }
    },
    "version": 1
  },
  "userdoc": {
    "kind": "user",
    "methods": {
      "calculateMintPrice(address)": {
        "notice": "Return the current mint prices Price is FREE for the first token Price is FREE when minted in-game, provided signature Otherwise, price is _priceInPwei"
      },
      "checkout(uint256)": {
        "notice": "Admin function"
      },
      "coordToChamberData(uint8,uint256,bool)": {
        "notice": "Returns a Chamber generated data"
      },
      "coordToSeed(uint256)": {
        "notice": "Returns a Chamber static immutable data"
      },
      "getChamberMetadata(uint8,uint256)": {
        "notice": "Returns a Chamber metadata, without maps"
      },
      "getIndexContract()": {
        "notice": "Return the current Index contract"
      },
      "getMapMetadata(uint8,uint256)": {
        "notice": "Returns the seed and tilemap of a Chamber, used for world building"
      },
      "getPlayerContract()": {
        "notice": "Return the current Player contract"
      },
      "getPrices()": {
        "notice": "Return the current mint prices"
      },
      "getTokenMetadata(uint8,uint256)": {
        "notice": "Returns IERC721Metadata compliant metadata, used by tokenURI()"
      },
      "isPaused()": {
        "notice": "Return the current pause status"
      },
      "mintDoor(uint256,uint8,bytes)": {
        "notice": "Unlocks a door, minting a new Chamber"
      },
      "setIndexContract(address)": {
        "notice": "Admin function"
      },
      "setPaused(bool)": {
        "notice": "Admin function"
      },
      "setPlayerContract(address)": {
        "notice": "Admin function"
      },
      "setPrice(uint256)": {
        "notice": "Admin function"
      },
      "setSigner(address)": {
        "notice": "Admin function"
      },
      "tokenIdToCoord(uint256)": {
        "notice": "Returns a Chamber coordinate"
      },
      "tokenIdToHoard(uint256)": {
        "notice": "Returns a Chamber Hoard (gems and coins)"
      },
      "tokenURI(uint256)": {
        "notice": "Returns IERC721Metadata compliant metadata"
      }
    },
    "version": 1
  }
}