{
  "contractName": "ECDSA",
  "abi": [
    {
      "inputs": [
        {
          "internalType": "bytes32",
          "name": "hash",
          "type": "bytes32"
        },
        {
          "internalType": "uint8",
          "name": "v",
          "type": "uint8"
        },
        {
          "internalType": "bytes32",
          "name": "r",
          "type": "bytes32"
        },
        {
          "internalType": "bytes32",
          "name": "s",
          "type": "bytes32"
        }
      ],
      "name": "tryRecover",
      "outputs": [
        {
          "internalType": "address",
          "name": "",
          "type": "address"
        },
        {
          "internalType": "enum ECDSA.RecoverError",
          "name": "",
          "type": "ECDSA.RecoverError"
        }
      ],
      "stateMutability": "pure",
      "type": "function",
      "constant": true
    },
    {
      "inputs": [
        {
          "internalType": "bytes32",
          "name": "hash",
          "type": "bytes32"
        },
        {
          "internalType": "bytes32",
          "name": "r",
          "type": "bytes32"
        },
        {
          "internalType": "bytes32",
          "name": "vs",
          "type": "bytes32"
        }
      ],
      "name": "tryRecover",
      "outputs": [
        {
          "internalType": "address",
          "name": "",
          "type": "address"
        },
        {
          "internalType": "enum ECDSA.RecoverError",
          "name": "",
          "type": "ECDSA.RecoverError"
        }
      ],
      "stateMutability": "pure",
      "type": "function",
      "constant": true
    },
    {
      "inputs": [
        {
          "internalType": "bytes32",
          "name": "hash",
          "type": "bytes32"
        },
        {
          "internalType": "bytes",
          "name": "signature",
          "type": "bytes"
        }
      ],
      "name": "tryRecover",
      "outputs": [
        {
          "internalType": "address",
          "name": "",
          "type": "address"
        },
        {
          "internalType": "enum ECDSA.RecoverError",
          "name": "",
          "type": "ECDSA.RecoverError"
        }
      ],
      "stateMutability": "pure",
      "type": "function",
      "constant": true
    },
    {
      "inputs": [
        {
          "internalType": "bytes32",
          "name": "hash",
          "type": "bytes32"
        },
        {
          "internalType": "bytes",
          "name": "signature",
          "type": "bytes"
        }
      ],
      "name": "recover",
      "outputs": [
        {
          "internalType": "address",
          "name": "",
          "type": "address"
        }
      ],
      "stateMutability": "pure",
      "type": "function",
      "constant": true
    },
    {
      "inputs": [
        {
          "internalType": "bytes32",
          "name": "hash",
          "type": "bytes32"
        },
        {
          "internalType": "bytes32",
          "name": "r",
          "type": "bytes32"
        },
        {
          "internalType": "bytes32",
          "name": "vs",
          "type": "bytes32"
        }
      ],
      "name": "recover",
      "outputs": [
        {
          "internalType": "address",
          "name": "",
          "type": "address"
        }
      ],
      "stateMutability": "pure",
      "type": "function",
      "constant": true
    },
    {
      "inputs": [
        {
          "internalType": "bytes32",
          "name": "hash",
          "type": "bytes32"
        },
        {
          "internalType": "uint8",
          "name": "v",
          "type": "uint8"
        },
        {
          "internalType": "bytes32",
          "name": "r",
          "type": "bytes32"
        },
        {
          "internalType": "bytes32",
          "name": "s",
          "type": "bytes32"
        }
      ],
      "name": "recover",
      "outputs": [
        {
          "internalType": "address",
          "name": "",
          "type": "address"
        }
      ],
      "stateMutability": "pure",
      "type": "function",
      "constant": true
    },
    {
      "inputs": [
        {
          "internalType": "bytes32",
          "name": "hash",
          "type": "bytes32"
        }
      ],
      "name": "toEthSignedMessageHash",
      "outputs": [
        {
          "internalType": "bytes32",
          "name": "",
          "type": "bytes32"
        }
      ],
      "stateMutability": "pure",
      "type": "function",
      "constant": true
    },
    {
      "inputs": [
        {
          "internalType": "bytes",
          "name": "s",
          "type": "bytes"
        }
      ],
      "name": "toEthSignedMessageHash",
      "outputs": [
        {
          "internalType": "bytes32",
          "name": "",
          "type": "bytes32"
        }
      ],
      "stateMutability": "pure",
      "type": "function",
      "constant": true
    },
    {
      "inputs": [
        {
          "internalType": "bytes32",
          "name": "domainSeparator",
          "type": "bytes32"
        },
        {
          "internalType": "bytes32",
          "name": "structHash",
          "type": "bytes32"
        }
      ],
      "name": "toTypedDataHash",
      "outputs": [
        {
          "internalType": "bytes32",
          "name": "",
          "type": "bytes32"
        }
      ],
      "stateMutability": "pure",
      "type": "function",
      "constant": true
    }
  ],
  "bytecode": "0x61123b610053600b82828239805160001a607314610046577f4e487b7100000000000000000000000000000000000000000000000000000000600052600060045260246000fd5b30600052607381538281f3fe730000000000000000000000000000000000000000301460806040526004361061009d5760003560e01c8063918a15cf11610070578063918a15cf1461016457806392bd87b514610194578063bf2fe7fd146101c4578063c2bf17b0146101f4578063c6edd8a7146102245761009d565b806319045a25146100a25780634d78da76146100d2578063628f98cc146101035780637df7a71c14610134575b600080fd5b6100bc60048036038101906100b79190610a17565b610255565b6040516100c99190610ab4565b60405180910390f35b6100ec60048036038101906100e79190610b08565b61027c565b6040516100fa929190610be6565b60405180910390f35b61011d60048036038101906101189190610c0f565b61035e565b60405161012b929190610be6565b60405180910390f35b61014e60048036038101906101499190610c62565b6103bd565b60405161015b9190610cb1565b60405180910390f35b61017e60048036038101906101799190610ccc565b6103f0565b60405161018b9190610cb1565b60405180910390f35b6101ae60048036038101906101a99190610cf9565b610420565b6040516101bb9190610cb1565b60405180910390f35b6101de60048036038101906101d99190610c0f565b61045b565b6040516101eb9190610ab4565b60405180910390f35b61020e60048036038101906102099190610b08565b610484565b60405161021b9190610ab4565b60405180910390f35b61023e60048036038101906102399190610a17565b6104af565b60405161024c929190610be6565b60405180910390f35b600080600061026485856104af565b9150915061027181610500565b819250505092915050565b6000807f7fffffffffffffffffffffffffffffff5d576e7357a4501ddfe92f46681b20a08360001c11156102b7576000600391509150610355565b6000600187878787604051600081526020016040526040516102dc9493929190610d60565b6020604051602081039080840390855afa1580156102fe573d6000803e3d6000fd5b505050602060405103519050600073ffffffffffffffffffffffffffffffffffffffff168173ffffffffffffffffffffffffffffffffffffffff160361034c57600060019250925050610355565b80600092509250505b94509492505050565b60008060007f7fffffffffffffffffffffffffffffffffffffffffffffffffffffffffffffff60001b841690506000601b60ff8660001c901c6103a19190610dde565b90506103af8782888561027c565b935093505050935093915050565b600082826040516020016103d2929190610e8a565b60405160208183030381529060405280519060200120905092915050565b6000816040516020016104039190610f0d565b604051602081830303815290604052805190602001209050919050565b600061042c8251610666565b8260405160200161043e92919061102c565b604051602081830303815290604052805190602001209050919050565b600080600061046b86868661035e565b9150915061047881610500565b81925050509392505050565b60008060006104958787878761027c565b915091506104a281610500565b8192505050949350505050565b60008060418351036104f05760008060006020860151925060408601519150606086015160001a90506104e48782858561027c565b945094505050506104f9565b60006002915091505b9250929050565b6000600481111561051457610513610b6f565b5b81600481111561052757610526610b6f565b5b0315610663576001600481111561054157610540610b6f565b5b81600481111561055457610553610b6f565b5b03610594576040517f08c379a000000000000000000000000000000000000000000000000000000000815260040161058b906110b8565b60405180910390fd5b600260048111156105a8576105a7610b6f565b5b8160048111156105bb576105ba610b6f565b5b036105fb576040517f08c379a00000000000000000000000000000000000000000000000000000000081526004016105f290611124565b60405180910390fd5b6003600481111561060f5761060e610b6f565b5b81600481111561062257610621610b6f565b5b03610662576040517f08c379a0000000000000000000000000000000000000000000000000000000008152600401610659906111b6565b60405180910390fd5b5b50565b60606000600161067584610734565b01905060008167ffffffffffffffff811115610694576106936108ec565b5b6040519080825280601f01601f1916602001820160405280156106c65781602001600182028036833780820191505090505b509050600082602001820190505b600115610729578080600190039150507f3031323334353637383961626364656600000000000000000000000000000000600a86061a8153600a858161071d5761071c6111d6565b5b049450600085036106d4575b819350505050919050565b600080600090507a184f03e93ff9f4daa797ed6e38ed64bf6a1f0100000000000000008310610792577a184f03e93ff9f4daa797ed6e38ed64bf6a1f0100000000000000008381610788576107876111d6565b5b0492506040810190505b6d04ee2d6d415b85acef810000000083106107cf576d04ee2d6d415b85acef810000000083816107c5576107c46111d6565b5b0492506020810190505b662386f26fc1000083106107fe57662386f26fc1000083816107f4576107f36111d6565b5b0492506010810190505b6305f5e1008310610827576305f5e100838161081d5761081c6111d6565b5b0492506008810190505b612710831061084c576127108381610842576108416111d6565b5b0492506004810190505b6064831061086f5760648381610865576108646111d6565b5b0492506002810190505b600a831061087e576001810190505b80915050919050565b6000604051905090565b600080fd5b600080fd5b6000819050919050565b6108ae8161089b565b81146108b957600080fd5b50565b6000813590506108cb816108a5565b92915050565b600080fd5b600080fd5b6000601f19601f8301169050919050565b7f4e487b7100000000000000000000000000000000000000000000000000000000600052604160045260246000fd5b610924826108db565b810181811067ffffffffffffffff82111715610943576109426108ec565b5b80604052505050565b6000610956610887565b9050610962828261091b565b919050565b600067ffffffffffffffff821115610982576109816108ec565b5b61098b826108db565b9050602081019050919050565b82818337600083830152505050565b60006109ba6109b584610967565b61094c565b9050828152602081018484840111156109d6576109d56108d6565b5b6109e1848285610998565b509392505050565b600082601f8301126109fe576109fd6108d1565b5b8135610a0e8482602086016109a7565b91505092915050565b60008060408385031215610a2e57610a2d610891565b5b6000610a3c858286016108bc565b925050602083013567ffffffffffffffff811115610a5d57610a5c610896565b5b610a69858286016109e9565b9150509250929050565b600073ffffffffffffffffffffffffffffffffffffffff82169050919050565b6000610a9e82610a73565b9050919050565b610aae81610a93565b82525050565b6000602082019050610ac96000830184610aa5565b92915050565b600060ff82169050919050565b610ae581610acf565b8114610af057600080fd5b50565b600081359050610b0281610adc565b92915050565b60008060008060808587031215610b2257610b21610891565b5b6000610b30878288016108bc565b9450506020610b4187828801610af3565b9350506040610b52878288016108bc565b9250506060610b63878288016108bc565b91505092959194509250565b7f4e487b7100000000000000000000000000000000000000000000000000000000600052602160045260246000fd5b60058110610baf57610bae610b6f565b5b50565b6000819050610bc082610b9e565b919050565b6000610bd082610bb2565b9050919050565b610be081610bc5565b82525050565b6000604082019050610bfb6000830185610aa5565b610c086020830184610bd7565b9392505050565b600080600060608486031215610c2857610c27610891565b5b6000610c36868287016108bc565b9350506020610c47868287016108bc565b9250506040610c58868287016108bc565b9150509250925092565b60008060408385031215610c7957610c78610891565b5b6000610c87858286016108bc565b9250506020610c98858286016108bc565b9150509250929050565b610cab8161089b565b82525050565b6000602082019050610cc66000830184610ca2565b92915050565b600060208284031215610ce257610ce1610891565b5b6000610cf0848285016108bc565b91505092915050565b600060208284031215610d0f57610d0e610891565b5b600082013567ffffffffffffffff811115610d2d57610d2c610896565b5b610d39848285016109e9565b91505092915050565b610d4b8161089b565b82525050565b610d5a81610acf565b82525050565b6000608082019050610d756000830187610d42565b610d826020830186610d51565b610d8f6040830185610d42565b610d9c6060830184610d42565b95945050505050565b6000819050919050565b7f4e487b7100000000000000000000000000000000000000000000000000000000600052601160045260246000fd5b6000610de982610da5565b9150610df483610da5565b9250828201905080821115610e0c57610e0b610daf565b5b92915050565b600081905092915050565b7f1901000000000000000000000000000000000000000000000000000000000000600082015250565b6000610e53600283610e12565b9150610e5e82610e1d565b600282019050919050565b6000819050919050565b610e84610e7f8261089b565b610e69565b82525050565b6000610e9582610e46565b9150610ea18285610e73565b602082019150610eb18284610e73565b6020820191508190509392505050565b7f19457468657265756d205369676e6564204d6573736167653a0a333200000000600082015250565b6000610ef7601c83610e12565b9150610f0282610ec1565b601c82019050919050565b6000610f1882610eea565b9150610f248284610e73565b60208201915081905092915050565b7f19457468657265756d205369676e6564204d6573736167653a0a000000000000600082015250565b6000610f69601a83610e12565b9150610f7482610f33565b601a82019050919050565b600081519050919050565b60005b83811015610fa8578082015181840152602081019050610f8d565b60008484015250505050565b6000610fbf82610f7f565b610fc98185610e12565b9350610fd9818560208601610f8a565b80840191505092915050565b600081519050919050565b600081905092915050565b600061100682610fe5565b6110108185610ff0565b9350611020818560208601610f8a565b80840191505092915050565b600061103782610f5c565b91506110438285610fb4565b915061104f8284610ffb565b91508190509392505050565b600082825260208201905092915050565b7f45434453413a20696e76616c6964207369676e61747572650000000000000000600082015250565b60006110a260188361105b565b91506110ad8261106c565b602082019050919050565b600060208201905081810360008301526110d181611095565b9050919050565b7f45434453413a20696e76616c6964207369676e6174757265206c656e67746800600082015250565b600061110e601f8361105b565b9150611119826110d8565b602082019050919050565b6000602082019050818103600083015261113d81611101565b9050919050565b7f45434453413a20696e76616c6964207369676e6174757265202773272076616c60008201527f7565000000000000000000000000000000000000000000000000000000000000602082015250565b60006111a060228361105b565b91506111ab82611144565b604082019050919050565b600060208201905081810360008301526111cf81611193565b9050919050565b7f4e487b7100000000000000000000000000000000000000000000000000000000600052601260045260246000fdfea2646970667358221220ff83887b07594b9f6aac172dcda121f8d48ba8f5b1cbba3c7b3ddad96b5f431e64736f6c63430008100033",
  "immutableReferences": {},
  "source": "// SPDX-License-Identifier: MIT\n/// @author OpenZeppelin\n/// @dev Exact OpenZeppelin copy but public, to be removed from CrawlerToken ABI\n// OpenZeppelin Contracts (last updated v4.8.0) (utils/cryptography/ECDSA.sol)\n// https://github.com/OpenZeppelin/openzeppelin-contracts/blob/release-v4.8/contracts/utils/cryptography/ECDSA.sol\npragma solidity ^0.8.0;\nimport \"../Crawl.sol\";\n\n/**\n * @dev Elliptic Curve Digital Signature Algorithm (ECDSA) operations.\n *\n * These functions can be used to verify that a message was signed by the holder\n * of the private keys of a given address.\n */\nlibrary ECDSA {\n\tenum RecoverError {\n\t\tNoError,\n\t\tInvalidSignature,\n\t\tInvalidSignatureLength,\n\t\tInvalidSignatureS,\n\t\tInvalidSignatureV // Deprecated in v4.8\n\t}\n\n\tfunction _throwError(RecoverError error) private pure {\n\t\tif (error == RecoverError.NoError) {\n\t\t\treturn; // no error: do nothing\n\t\t} else if (error == RecoverError.InvalidSignature) {\n\t\t\trevert(\"ECDSA: invalid signature\");\n\t\t} else if (error == RecoverError.InvalidSignatureLength) {\n\t\t\trevert(\"ECDSA: invalid signature length\");\n\t\t} else if (error == RecoverError.InvalidSignatureS) {\n\t\t\trevert(\"ECDSA: invalid signature 's' value\");\n\t\t}\n\t}\n\n\t/**\n\t * @dev Returns the address that signed a hashed message (`hash`) with\n\t * `signature` or error string. This address can then be used for verification purposes.\n\t *\n\t * The `ecrecover` EVM opcode allows for malleable (non-unique) signatures:\n\t * this function rejects them by requiring the `s` value to be in the lower\n\t * half order, and the `v` value to be either 27 or 28.\n\t *\n\t * IMPORTANT: `hash` _must_ be the result of a hash operation for the\n\t * verification to be secure: it is possible to craft signatures that\n\t * recover to arbitrary addresses for non-hashed data. A safe way to ensure\n\t * this is by receiving a hash of the original message (which may otherwise\n\t * be too long), and then calling {toEthSignedMessageHash} on it.\n\t *\n\t * Documentation for signature generation:\n\t * - with https://web3js.readthedocs.io/en/v1.3.4/web3-eth-accounts.html#sign[Web3.js]\n\t * - with https://docs.ethers.io/v5/api/signer/#Signer-signMessage[ethers]\n\t *\n\t * _Available since v4.3._\n\t */\n\tfunction tryRecover(bytes32 hash, bytes memory signature) public pure returns (address, RecoverError) {\n\t\tif (signature.length == 65) {\n\t\t\tbytes32 r;\n\t\t\tbytes32 s;\n\t\t\tuint8 v;\n\t\t\t// ecrecover takes the signature parameters, and the only way to get them\n\t\t\t// currently is to use assembly.\n\t\t\t/// @solidity memory-safe-assembly\n\t\t\tassembly {\n\t\t\t\tr := mload(add(signature, 0x20))\n\t\t\t\ts := mload(add(signature, 0x40))\n\t\t\t\tv := byte(0, mload(add(signature, 0x60)))\n\t\t\t}\n\t\t\treturn tryRecover(hash, v, r, s);\n\t\t} else {\n\t\t\treturn (address(0), RecoverError.InvalidSignatureLength);\n\t\t}\n\t}\n\n\t/**\n\t * @dev Returns the address that signed a hashed message (`hash`) with\n\t * `signature`. This address can then be used for verification purposes.\n\t *\n\t * The `ecrecover` EVM opcode allows for malleable (non-unique) signatures:\n\t * this function rejects them by requiring the `s` value to be in the lower\n\t * half order, and the `v` value to be either 27 or 28.\n\t *\n\t * IMPORTANT: `hash` _must_ be the result of a hash operation for the\n\t * verification to be secure: it is possible to craft signatures that\n\t * recover to arbitrary addresses for non-hashed data. A safe way to ensure\n\t * this is by receiving a hash of the original message (which may otherwise\n\t * be too long), and then calling {toEthSignedMessageHash} on it.\n\t */\n\tfunction recover(bytes32 hash, bytes memory signature) public pure returns (address) {\n\t\t(address recovered, RecoverError error) = tryRecover(hash, signature);\n\t\t_throwError(error);\n\t\treturn recovered;\n\t}\n\n\t/**\n\t * @dev Overload of {ECDSA-tryRecover} that receives the `r` and `vs` short-signature fields separately.\n\t *\n\t * See https://eips.ethereum.org/EIPS/eip-2098[EIP-2098 short signatures]\n\t *\n\t * _Available since v4.3._\n\t */\n\tfunction tryRecover(\n\t\tbytes32 hash,\n\t\tbytes32 r,\n\t\tbytes32 vs\n\t) public pure returns (address, RecoverError) {\n\t\tbytes32 s = vs & bytes32(0x7fffffffffffffffffffffffffffffffffffffffffffffffffffffffffffffff);\n\t\tuint8 v = uint8((uint256(vs) >> 255) + 27);\n\t\treturn tryRecover(hash, v, r, s);\n\t}\n\n\t/**\n\t * @dev Overload of {ECDSA-recover} that receives the `r and `vs` short-signature fields separately.\n\t *\n\t * _Available since v4.2._\n\t */\n\tfunction recover(\n\t\tbytes32 hash,\n\t\tbytes32 r,\n\t\tbytes32 vs\n\t) public pure returns (address) {\n\t\t(address recovered, RecoverError error) = tryRecover(hash, r, vs);\n\t\t_throwError(error);\n\t\treturn recovered;\n\t}\n\n\t/**\n\t * @dev Overload of {ECDSA-tryRecover} that receives the `v`,\n\t * `r` and `s` signature fields separately.\n\t *\n\t * _Available since v4.3._\n\t */\n\tfunction tryRecover(\n\t\tbytes32 hash,\n\t\tuint8 v,\n\t\tbytes32 r,\n\t\tbytes32 s\n\t) public pure returns (address, RecoverError) {\n\t\t// EIP-2 still allows signature malleability for ecrecover(). Remove this possibility and make the signature\n\t\t// unique. Appendix F in the Ethereum Yellow paper (https://ethereum.github.io/yellowpaper/paper.pdf), defines\n\t\t// the valid range for s in (301): 0 < s < secp256k1n  2 + 1, and for v in (302): v  {27, 28}. Most\n\t\t// signatures from current libraries generate a unique signature with an s-value in the lower half order.\n\t\t//\n\t\t// If your library generates malleable signatures, such as s-values in the upper range, calculate a new s-value\n\t\t// with 0xFFFFFFFFFFFFFFFFFFFFFFFFFFFFFFFEBAAEDCE6AF48A03BBFD25E8CD0364141 - s1 and flip v from 27 to 28 or\n\t\t// vice versa. If your library also generates signatures with 0/1 for v instead 27/28, add 27 to v to accept\n\t\t// these malleable signatures as well.\n\t\tif (uint256(s) > 0x7FFFFFFFFFFFFFFFFFFFFFFFFFFFFFFF5D576E7357A4501DDFE92F46681B20A0) {\n\t\t\treturn (address(0), RecoverError.InvalidSignatureS);\n\t\t}\n\n\t\t// If the signature is valid (and not malleable), return the signer address\n\t\taddress signer = ecrecover(hash, v, r, s);\n\t\tif (signer == address(0)) {\n\t\t\treturn (address(0), RecoverError.InvalidSignature);\n\t\t}\n\n\t\treturn (signer, RecoverError.NoError);\n\t}\n\n\t/**\n\t * @dev Overload of {ECDSA-recover} that receives the `v`,\n\t * `r` and `s` signature fields separately.\n\t */\n\tfunction recover(\n\t\tbytes32 hash,\n\t\tuint8 v,\n\t\tbytes32 r,\n\t\tbytes32 s\n\t) public pure returns (address) {\n\t\t(address recovered, RecoverError error) = tryRecover(hash, v, r, s);\n\t\t_throwError(error);\n\t\treturn recovered;\n\t}\n\n\t/**\n\t * @dev Returns an Ethereum Signed Message, created from a `hash`. This\n\t * produces hash corresponding to the one signed with the\n\t * https://eth.wiki/json-rpc/API#eth_sign[`eth_sign`]\n\t * JSON-RPC method as part of EIP-191.\n\t *\n\t * See {recover}.\n\t */\n\tfunction toEthSignedMessageHash(bytes32 hash) public pure returns (bytes32) {\n\t\t// 32 is the length in bytes of hash,\n\t\t// enforced by the type signature above\n\t\treturn keccak256(abi.encodePacked(\"\\x19Ethereum Signed Message:\\n32\", hash));\n\t}\n\n\t/**\n\t * @dev Returns an Ethereum Signed Message, created from `s`. This\n\t * produces hash corresponding to the one signed with the\n\t * https://eth.wiki/json-rpc/API#eth_sign[`eth_sign`]\n\t * JSON-RPC method as part of EIP-191.\n\t *\n\t * See {recover}.\n\t */\n\tfunction toEthSignedMessageHash(bytes memory s) public pure returns (bytes32) {\n\t\treturn keccak256(abi.encodePacked(\"\\x19Ethereum Signed Message:\\n\", Crawl.toString(s.length), s));\n\t}\n\n\t/**\n\t * @dev Returns an Ethereum Signed Typed Data, created from a\n\t * `domainSeparator` and a `structHash`. This produces hash corresponding\n\t * to the one signed with the\n\t * https://eips.ethereum.org/EIPS/eip-712[`eth_signTypedData`]\n\t * JSON-RPC method as part of EIP-712.\n\t *\n\t * See {recover}.\n\t */\n\tfunction toTypedDataHash(bytes32 domainSeparator, bytes32 structHash) public pure returns (bytes32) {\n\t\treturn keccak256(abi.encodePacked(\"\\x19\\x01\", domainSeparator, structHash));\n\t}\n}\n",
  "sourcePath": "/Users/roger/Dev/Blockchain/Truffle/ec-crawler/contracts/extras/ECDSA.sol",
  "compiler": {
    "name": "solc",
    "version": "0.8.16+commit.07a7930e.Emscripten.clang"
  },
  "schemaVersion": "3.4.11",
  "updatedAt": "2022-12-03T16:02:13.766Z",
  "networkType": "ethereum",
  "devdoc": {
    "details": "Elliptic Curve Digital Signature Algorithm (ECDSA) operations. These functions can be used to verify that a message was signed by the holder of the private keys of a given address.",
    "kind": "dev",
    "methods": {
      "recover(bytes32,bytes)": {
        "details": "Returns the address that signed a hashed message (`hash`) with `signature`. This address can then be used for verification purposes. The `ecrecover` EVM opcode allows for malleable (non-unique) signatures: this function rejects them by requiring the `s` value to be in the lower half order, and the `v` value to be either 27 or 28. IMPORTANT: `hash` _must_ be the result of a hash operation for the verification to be secure: it is possible to craft signatures that recover to arbitrary addresses for non-hashed data. A safe way to ensure this is by receiving a hash of the original message (which may otherwise be too long), and then calling {toEthSignedMessageHash} on it."
      },
      "recover(bytes32,bytes32,bytes32)": {
        "details": "Overload of {ECDSA-recover} that receives the `r and `vs` short-signature fields separately. _Available since v4.2._"
      },
      "recover(bytes32,uint8,bytes32,bytes32)": {
        "details": "Overload of {ECDSA-recover} that receives the `v`, `r` and `s` signature fields separately."
      },
      "toEthSignedMessageHash(bytes)": {
        "details": "Returns an Ethereum Signed Message, created from `s`. This produces hash corresponding to the one signed with the https://eth.wiki/json-rpc/API#eth_sign[`eth_sign`] JSON-RPC method as part of EIP-191. See {recover}."
      },
      "toEthSignedMessageHash(bytes32)": {
        "details": "Returns an Ethereum Signed Message, created from a `hash`. This produces hash corresponding to the one signed with the https://eth.wiki/json-rpc/API#eth_sign[`eth_sign`] JSON-RPC method as part of EIP-191. See {recover}."
      },
      "toTypedDataHash(bytes32,bytes32)": {
        "details": "Returns an Ethereum Signed Typed Data, created from a `domainSeparator` and a `structHash`. This produces hash corresponding to the one signed with the https://eips.ethereum.org/EIPS/eip-712[`eth_signTypedData`] JSON-RPC method as part of EIP-712. See {recover}."
      },
      "tryRecover(bytes32,bytes)": {
        "details": "Returns the address that signed a hashed message (`hash`) with `signature` or error string. This address can then be used for verification purposes. The `ecrecover` EVM opcode allows for malleable (non-unique) signatures: this function rejects them by requiring the `s` value to be in the lower half order, and the `v` value to be either 27 or 28. IMPORTANT: `hash` _must_ be the result of a hash operation for the verification to be secure: it is possible to craft signatures that recover to arbitrary addresses for non-hashed data. A safe way to ensure this is by receiving a hash of the original message (which may otherwise be too long), and then calling {toEthSignedMessageHash} on it. Documentation for signature generation: - with https://web3js.readthedocs.io/en/v1.3.4/web3-eth-accounts.html#sign[Web3.js] - with https://docs.ethers.io/v5/api/signer/#Signer-signMessage[ethers] _Available since v4.3._"
      },
      "tryRecover(bytes32,bytes32,bytes32)": {
        "details": "Overload of {ECDSA-tryRecover} that receives the `r` and `vs` short-signature fields separately. See https://eips.ethereum.org/EIPS/eip-2098[EIP-2098 short signatures] _Available since v4.3._"
      },
      "tryRecover(bytes32,uint8,bytes32,bytes32)": {
        "details": "Overload of {ECDSA-tryRecover} that receives the `v`, `r` and `s` signature fields separately. _Available since v4.3._"
      }
    },
    "version": 1
  },
  "userdoc": {
    "kind": "user",
    "methods": {},
    "version": 1
  }
}