{
  "contractName": "GasPackingTest",
  "abi": [
    {
      "inputs": [],
      "stateMutability": "nonpayable",
      "type": "constructor"
    },
    {
      "inputs": [],
      "name": "encode_one_by_one",
      "outputs": [
        {
          "internalType": "string",
          "name": "",
          "type": "string"
        }
      ],
      "stateMutability": "pure",
      "type": "function"
    },
    {
      "inputs": [],
      "name": "encode_nulls",
      "outputs": [
        {
          "internalType": "string",
          "name": "",
          "type": "string"
        }
      ],
      "stateMutability": "pure",
      "type": "function"
    },
    {
      "inputs": [],
      "name": "encode_lines",
      "outputs": [
        {
          "internalType": "string",
          "name": "",
          "type": "string"
        }
      ],
      "stateMutability": "pure",
      "type": "function"
    },
    {
      "inputs": [],
      "name": "encode_lines_batch",
      "outputs": [
        {
          "internalType": "string",
          "name": "",
          "type": "string"
        }
      ],
      "stateMutability": "pure",
      "type": "function"
    },
    {
      "inputs": [],
      "name": "encode_array",
      "outputs": [
        {
          "internalType": "string",
          "name": "",
          "type": "string"
        }
      ],
      "stateMutability": "pure",
      "type": "function"
    }
  ],
  "bytecode": "0x608060405234801561001057600080fd5b50610b34806100206000396000f3fe608060405234801561001057600080fd5b50600436106100575760003560e01c8063228902021461005c5780632395abfe1461007a5780633ae8beaa14610098578063711d0481146100b65780638d3ace5c146100d4575b600080fd5b6100646100f2565b60405161007191906107a5565b60405180910390f35b6100826101b9565b60405161008f91906107a5565b60405180910390f35b6100a061029c565b6040516100ad91906107a5565b60405180910390f35b6100be61032a565b6040516100cb91906107a5565b60405180910390f35b6100dc6105f2565b6040516100e991906107a5565b60405180910390f35b606060006040516020016101059061081e565b604051602081830303815290604052905061011e6106c4565b60005b61010081101561018e576040518060400160405280600881526020017f3c5f5f5f5f5f5f3e0000000000000000000000000000000000000000000000008152508282610100811061017557610174610833565b5b6020020181905250806101879061089b565b9050610121565b50816040516020016101a09190610976565b6040516020818303038152906040529150819250505090565b606060006040516020016101cc9061081e565b604051602081830303815290604052905060005b610100811015610272578160008214610208576040518060200160405280600081525061023f565b6040518060400160405280600881526020017f3c5f5f5f5f5f5f3e0000000000000000000000000000000000000000000000008152505b6040516020016102509291906109c9565b60405160208183030381529060405291508061026b9061089b565b90506101e0565b50806040516020016102849190610976565b60405160208183030381529060405290508091505090565b606060006040516020016102af9061081e565b604051602081830303815290604052905060005b61010081101561030057816040516020016102de9190610a39565b6040516020818303038152906040529150806102f99061089b565b90506102c3565b50806040516020016103129190610976565b60405160208183030381529060405290508091505090565b6060600060405160200161033d9061081e565b60405160208183030381529060405290506103566106ed565b60005b60108110156103e35760005b60108110156103d15782826010811061038157610380610833565b5b60200201516040516020016103969190610a39565b6040516020818303038152906040528383601081106103b8576103b7610833565b5b6020020181905250806103ca9061089b565b9050610365565b50806103dc9061089b565b9050610359565b5081816000601081106103f9576103f8610833565b5b60200201518260016010811061041257610411610833565b5b60200201518360026010811061042b5761042a610833565b5b60200201518460036010811061044457610443610833565b5b60200201518560046010811061045d5761045c610833565b5b60200201518660056010811061047657610475610833565b5b60200201518760066010811061048f5761048e610833565b5b6020020151886007601081106104a8576104a7610833565b5b60200201516040516020016104c599989796959493929190610a5b565b604051602081830303815290604052915081816008601081106104eb576104ea610833565b5b60200201518260096010811061050457610503610833565b5b602002015183600a6010811061051d5761051c610833565b5b602002015184600b6010811061053657610535610833565b5b602002015185600c6010811061054f5761054e610833565b5b602002015186600d6010811061056857610567610833565b5b602002015187600e6010811061058157610580610833565b5b602002015188600f6010811061059a57610599610833565b5b60200201516040516020016105b799989796959493929190610a5b565b6040516020818303038152906040529150816040516020016105d99190610976565b6040516020818303038152906040529150819250505090565b606060006040516020016106059061081e565b604051602081830303815290604052905060005b601081101561069a57606060005b601081101561066357816040516020016106419190610a39565b60405160208183030381529060405291508061065c9061089b565b9050610627565b508281604051602001610677929190610ada565b604051602081830303815290604052925050806106939061089b565b9050610619565b50806040516020016106ac9190610976565b60405160208183030381529060405290508091505090565b604051806120000160405280610100905b60608152602001906001900390816106d55790505090565b6040518061020001604052806010905b60608152602001906001900390816106fd5790505090565b600081519050919050565b600082825260208201905092915050565b60005b8381101561074f578082015181840152602081019050610734565b60008484015250505050565b6000601f19601f8301169050919050565b600061077782610715565b6107818185610720565b9350610791818560208601610731565b61079a8161075b565b840191505092915050565b600060208201905081810360008301526107bf818461076c565b905092915050565b600081905092915050565b7f3c53544152543e00000000000000000000000000000000000000000000000000600082015250565b60006108086007836107c7565b9150610813826107d2565b600782019050919050565b6000610829826107fb565b9150819050919050565b7f4e487b7100000000000000000000000000000000000000000000000000000000600052603260045260246000fd5b7f4e487b7100000000000000000000000000000000000000000000000000000000600052601160045260246000fd5b6000819050919050565b60006108a682610891565b91507fffffffffffffffffffffffffffffffffffffffffffffffffffffffffffffffff82036108d8576108d7610862565b5b600182019050919050565b600081519050919050565b600081905092915050565b6000610904826108e3565b61090e81856108ee565b935061091e818560208601610731565b80840191505092915050565b7f3c454e443e000000000000000000000000000000000000000000000000000000600082015250565b60006109606005836107c7565b915061096b8261092a565b600582019050919050565b600061098282846108f9565b915061098d82610953565b915081905092915050565b60006109a382610715565b6109ad81856107c7565b93506109bd818560208601610731565b80840191505092915050565b60006109d582856108f9565b91506109e18284610998565b91508190509392505050565b7f3c5f5f5f5f5f5f3e000000000000000000000000000000000000000000000000600082015250565b6000610a236008836107c7565b9150610a2e826109ed565b600882019050919050565b6000610a4582846108f9565b9150610a5082610a16565b915081905092915050565b6000610a67828c6108f9565b9150610a73828b6108f9565b9150610a7f828a6108f9565b9150610a8b82896108f9565b9150610a9782886108f9565b9150610aa382876108f9565b9150610aaf82866108f9565b9150610abb82856108f9565b9150610ac782846108f9565b91508190509a9950505050505050505050565b6000610ae682856108f9565b9150610af282846108f9565b9150819050939250505056fea26469706673582212201e885199086741a2c78b4bfc0286bee82e0c5fb9f0180d077c1dfc48d7bbd5bd64736f6c63430008100033",
  "immutableReferences": {},
  "source": "// SPDX-License-Identifier: MIT\npragma solidity ^0.8.16;\n\n// abi.encodePacked()\n// https://docs.soliditylang.org/en/v0.8.13/abi-spec.html#non-standard-packed-mode\n\ncontract GasPackingTest {\n\tconstructor() {}\n\n\tfunction encode_one_by_one() public pure returns (string memory) {\n\t\tbytes memory result = abi.encodePacked(\"<START>\");\n\t\tfor(uint256 i = 0 ; i < 256 ; ++i) {\n\t\t\tresult = abi.encodePacked(result,\"<______>\");\n\t\t}\n\t\tresult = abi.encodePacked(result,\"<END>\");\n\t\treturn string(result);\n\t}\n\n\tfunction encode_nulls() public pure returns (string memory) {\n\t\tbytes memory result = abi.encodePacked(\"<START>\");\n\t\tfor(uint256 i = 0 ; i < 256 ; ++i) {\n\t\t\tresult = abi.encodePacked(result,i==0?\"<______>\":\"\");\n\t\t}\n\t\tresult = abi.encodePacked(result,\"<END>\");\n\t\treturn string(result);\n\t}\n\n\tfunction encode_lines() public pure returns (string memory) {\n\t\tbytes memory result = abi.encodePacked(\"<START>\");\n\t\tfor(uint256 i = 0 ; i < 16 ; ++i) {\n\t\t\tbytes memory line;\n\t\t\tfor(uint256 j = 0 ; j < 16 ; ++j) {\n\t\t\t\tline = abi.encodePacked(line,\"<______>\");\n\t\t\t}\n\t\t\tresult = abi.encodePacked(result,line);\n\t\t}\n\t\tresult = abi.encodePacked(result,\"<END>\");\n\t\treturn string(result);\n\t}\n\n\tfunction encode_lines_batch() public pure returns (string memory) {\n\t\tbytes memory result = abi.encodePacked(\"<START>\");\n\t\tbytes[16] memory lines;\n\t\tfor(uint256 i = 0 ; i < 16 ; ++i) {\n\t\t\tfor(uint256 j = 0 ; j < 16 ; ++j) {\n\t\t\t\tlines[i] = abi.encodePacked(lines[i],\"<______>\");\n\t\t\t}\n\t\t}\n\t\tresult = abi.encodePacked(result,\n\t\t\tlines[0],lines[1],lines[2],lines[3],\n\t\t\tlines[4],lines[5],lines[6],lines[7]);\n\t\tresult = abi.encodePacked(result,\n\t\t\tlines[8],lines[9],lines[10],lines[11],\n\t\t\tlines[12],lines[13],lines[14],lines[15]);\n\t\tresult = abi.encodePacked(result,\"<END>\");\n\t\treturn string(result);\n\t}\n\n\tfunction encode_array() public pure returns (string memory) {\n\t\tbytes memory result = abi.encodePacked(\"<START>\");\n\t\tbytes[256] memory arr;\n\t\tfor(uint256 i = 0 ; i < 256 ; ++i) {\n\t\t\tarr[i] = bytes(\"<______>\");\n\t\t}\n\t\t// result = abi.encodePacked(result,arr);\n\t\tresult = abi.encodePacked(result,\"<END>\");\n\t\treturn string(result);\n\t}\n\n}\n",
  "sourcePath": "/Users/roger/Dev/Blockchain/Truffle/ec-crawler/contracts/test/GasPackingTest.sol",
  "compiler": {
    "name": "solc",
    "version": "0.8.16+commit.07a7930e.Emscripten.clang"
  },
  "schemaVersion": "3.4.11",
  "updatedAt": "2022-12-01T01:24:00.953Z",
  "devdoc": {
    "kind": "dev",
    "methods": {},
    "version": 1
  },
  "userdoc": {
    "kind": "user",
    "methods": {},
    "version": 1
  }
}