{
  "contractName": "GasStorageTest",
  "abi": [
    {
      "inputs": [],
      "stateMutability": "nonpayable",
      "type": "constructor"
    },
    {
      "inputs": [],
      "name": "dummy",
      "outputs": [],
      "stateMutability": "nonpayable",
      "type": "function"
    },
    {
      "inputs": [],
      "name": "store_uint128",
      "outputs": [],
      "stateMutability": "nonpayable",
      "type": "function"
    },
    {
      "inputs": [],
      "name": "store_uint256",
      "outputs": [],
      "stateMutability": "nonpayable",
      "type": "function"
    },
    {
      "inputs": [],
      "name": "store_uint256_keccak256",
      "outputs": [],
      "stateMutability": "nonpayable",
      "type": "function"
    },
    {
      "inputs": [],
      "name": "store_uint128_twice",
      "outputs": [],
      "stateMutability": "nonpayable",
      "type": "function"
    },
    {
      "inputs": [],
      "name": "store_uint256_twice",
      "outputs": [],
      "stateMutability": "nonpayable",
      "type": "function"
    },
    {
      "inputs": [],
      "name": "store_bytes16",
      "outputs": [],
      "stateMutability": "nonpayable",
      "type": "function"
    },
    {
      "inputs": [],
      "name": "store_bytes32",
      "outputs": [],
      "stateMutability": "nonpayable",
      "type": "function"
    },
    {
      "inputs": [],
      "name": "store_uint128_array",
      "outputs": [],
      "stateMutability": "nonpayable",
      "type": "function"
    },
    {
      "inputs": [],
      "name": "store_uint256_array",
      "outputs": [],
      "stateMutability": "nonpayable",
      "type": "function"
    }
  ],
  "bytecode": "0x608060405234801561001057600080fd5b5061054f806100206000396000f3fe608060405234801561001057600080fd5b506004361061009e5760003560e01c806346a3abf41161006657806346a3abf4146100d5578063833de4c5146100df578063853569a3146100e9578063a4f4a608146100f3578063e4d4020b146100fd5761009e565b806314f23180146100a357806317a37d0d146100ad5780631ba17d20146100b757806332e43a11146100c1578063345ddb71146100cb575b600080fd5b6100ab610107565b005b6100b5610130565b005b6100bf61018d565b005b6100c9610202565b005b6100d3610204565b005b6100dd6102b7565b005b6100e76102e3565b005b6100f16102ed565b005b6100fb610328565b005b61010561033b565b005b7f3031323334353637383930414243444530313233343536373839304142434445601381905550565b60005b600881101561018a577fd09efdaf27721d0beeb6514959b76562875ea7e2f2bf9c89249e513bc6f7b3aa60001c600a826008811061017457610173610387565b5b018190555080610183906103ef565b9050610133565b50565b60de6000806101000a8154816fffffffffffffffffffffffffffffffff02191690836fffffffffffffffffffffffffffffffff16021790555061014d6000806101000a8154816fffffffffffffffffffffffffffffffff02191690836fffffffffffffffffffffffffffffffff160217905550565b565b60005b6010816fffffffffffffffffffffffffffffffff1610156102b45760018161022f9190610453565b6103e861023c9190610497565b6002826fffffffffffffffffffffffffffffffff166010811061026257610261610387565b5b600291828204019190066010026101000a8154816fffffffffffffffffffffffffffffffff02191690836fffffffffffffffffffffffffffffffff160217905550806102ad906104e1565b9050610207565b50565b7f0693fc69c4c40a56816991a23885565a863a4fcb48e367a059ec646fb711c10760001c600181905550565b606f600181905550565b606f6000806101000a8154816fffffffffffffffffffffffffffffffff02191690836fffffffffffffffffffffffffffffffff160217905550565b60de60018190555061014d600181905550565b7f3031323334353637383930414243444500000000000000000000000000000000601260006101000a8154816fffffffffffffffffffffffffffffffff021916908360801c0217905550565b7f4e487b7100000000000000000000000000000000000000000000000000000000600052603260045260246000fd5b7f4e487b7100000000000000000000000000000000000000000000000000000000600052601160045260246000fd5b6000819050919050565b60006103fa826103e5565b91507fffffffffffffffffffffffffffffffffffffffffffffffffffffffffffffffff820361042c5761042b6103b6565b5b600182019050919050565b60006fffffffffffffffffffffffffffffffff82169050919050565b600061045e82610437565b915061046983610437565b925082820190506fffffffffffffffffffffffffffffffff811115610491576104906103b6565b5b92915050565b60006104a282610437565b91506104ad83610437565b9250816fffffffffffffffffffffffffffffffff04831182151516156104d6576104d56103b6565b5b828202905092915050565b60006104ec82610437565b91506fffffffffffffffffffffffffffffffff820361050e5761050d6103b6565b5b60018201905091905056fea2646970667358221220dc943de6e2469e5a739be89d96db0b75b3f71355056664962d9979b79b62467d64736f6c63430008100033",
  "immutableReferences": {},
  "source": "// SPDX-License-Identifier: MIT\npragma solidity ^0.8.16;\n\n// storage layout\n// https://docs.soliditylang.org/en/v0.8.10/internals/layout_in_storage.html\n// https://docs.soliditylang.org/en/v0.8.10/internals/layout_in_memory.html\n\ncontract GasStorageTest {\n\n\tuint128 _uint128;\n\tuint256 _uint256;\n\n\tuint128[16] _uint128_array;\n\tuint256[8] _uint256_array;\n\n\tbytes16 _bytes16;\n\tbytes32 _bytes32;\n\n\tconstructor() {\n\t\t// _uint128 = 1;\n\t\t// _uint256 = 2;\n\t}\n\n\tfunction dummy() public {\n\t}\n\n\tfunction store_uint128() public {\n\t\t_uint128 = 111;\n\t}\n\tfunction store_uint256() public {\n\t\t_uint256 = 111;\n\t}\n\tfunction store_uint256_keccak256() public {\n\t\t_uint256 = uint256(keccak256('store_uint256_keccak256'));\n\t}\n\n\tfunction store_uint128_twice() public {\n\t\t_uint128 = 222;\n\t\t_uint128 = 333;\n\t}\n\tfunction store_uint256_twice() public {\n\t\t_uint256 = 222;\n\t\t_uint256 = 333;\n\t}\n\tfunction store_bytes16() public {\n\t\t_bytes16 = '01234567890ABCDE';\n\t}\n\tfunction store_bytes32() public {\n\t\t_bytes32 = '01234567890ABCDE01234567890ABCDE';\n\t}\n\n\n\tfunction store_uint128_array() public {\n\t\tfor(uint128 i = 0 ; i < _uint128_array.length ; ++i) {\n\t\t\t_uint128_array[i] = 1000*(i+1);\n\t\t}\n\t}\n\tfunction store_uint256_array() public {\n\t\tfor(uint256 i = 0 ; i < _uint256_array.length ; ++i) {\n\t\t\t// _uint256_array[i] = 1000*(i+1);\n\t\t\t_uint256_array[i] = uint256(keccak256('store_uint256_array'));\n\t\t}\n\t}\n\n\n}\n",
  "sourcePath": "/Users/roger/Dev/Blockchain/Truffle/ec-crawler/contracts/test/GasStorageTest.sol",
  "compiler": {
    "name": "solc",
    "version": "0.8.16+commit.07a7930e.Emscripten.clang"
  },
  "schemaVersion": "3.4.11",
  "updatedAt": "2022-12-01T01:24:00.959Z",
  "devdoc": {
    "kind": "dev",
    "methods": {},
    "version": 1
  },
  "userdoc": {
    "kind": "user",
    "methods": {},
    "version": 1
  }
}