{
  "contractName": "LimboIndex",
  "abi": [
    {
      "inputs": [
        {
          "internalType": "address",
          "name": "generator_",
          "type": "address"
        },
        {
          "internalType": "address",
          "name": "mapper_",
          "type": "address"
        }
      ],
      "stateMutability": "nonpayable",
      "type": "constructor"
    },
    {
      "anonymous": false,
      "inputs": [
        {
          "indexed": true,
          "internalType": "address",
          "name": "previousOwner",
          "type": "address"
        },
        {
          "indexed": true,
          "internalType": "address",
          "name": "newOwner",
          "type": "address"
        }
      ],
      "name": "OwnershipTransferred",
      "type": "event"
    },
    {
      "inputs": [],
      "name": "_tokenContract",
      "outputs": [
        {
          "internalType": "contract ICrawlerToken",
          "name": "",
          "type": "address"
        }
      ],
      "stateMutability": "view",
      "type": "function"
    },
    {
      "inputs": [],
      "name": "owner",
      "outputs": [
        {
          "internalType": "address",
          "name": "",
          "type": "address"
        }
      ],
      "stateMutability": "view",
      "type": "function"
    },
    {
      "inputs": [],
      "name": "renounceOwnership",
      "outputs": [],
      "stateMutability": "nonpayable",
      "type": "function"
    },
    {
      "inputs": [
        {
          "internalType": "address",
          "name": "newOwner",
          "type": "address"
        }
      ],
      "name": "transferOwnership",
      "outputs": [],
      "stateMutability": "nonpayable",
      "type": "function"
    },
    {
      "inputs": [
        {
          "internalType": "address",
          "name": "tokenContract_",
          "type": "address"
        }
      ],
      "name": "setTokenContract",
      "outputs": [],
      "stateMutability": "nonpayable",
      "type": "function"
    },
    {
      "inputs": [
        {
          "internalType": "address",
          "name": "generator_",
          "type": "address"
        },
        {
          "internalType": "address",
          "name": "mapper_",
          "type": "address"
        },
        {
          "internalType": "address",
          "name": "renderer_",
          "type": "address"
        }
      ],
      "name": "setupChapter",
      "outputs": [],
      "stateMutability": "nonpayable",
      "type": "function"
    },
    {
      "inputs": [],
      "name": "getCurrentChapterNumber",
      "outputs": [
        {
          "internalType": "uint8",
          "name": "",
          "type": "uint8"
        }
      ],
      "stateMutability": "view",
      "type": "function"
    },
    {
      "inputs": [],
      "name": "getCurrentChapter",
      "outputs": [
        {
          "components": [
            {
              "internalType": "uint8",
              "name": "chapterNumber",
              "type": "uint8"
            },
            {
              "internalType": "contract ICrawlerGenerator",
              "name": "generator",
              "type": "address"
            },
            {
              "internalType": "contract ICrawlerMapper",
              "name": "mapper",
              "type": "address"
            },
            {
              "internalType": "contract ICrawlerRenderer",
              "name": "renderer",
              "type": "address"
            }
          ],
          "internalType": "struct ICrawlerIndex.Chapter",
          "name": "",
          "type": "tuple"
        }
      ],
      "stateMutability": "view",
      "type": "function"
    },
    {
      "inputs": [
        {
          "internalType": "uint8",
          "name": "",
          "type": "uint8"
        }
      ],
      "name": "getChapter",
      "outputs": [
        {
          "components": [
            {
              "internalType": "uint8",
              "name": "chapterNumber",
              "type": "uint8"
            },
            {
              "internalType": "contract ICrawlerGenerator",
              "name": "generator",
              "type": "address"
            },
            {
              "internalType": "contract ICrawlerMapper",
              "name": "mapper",
              "type": "address"
            },
            {
              "internalType": "contract ICrawlerRenderer",
              "name": "renderer",
              "type": "address"
            }
          ],
          "internalType": "struct ICrawlerIndex.Chapter",
          "name": "",
          "type": "tuple"
        }
      ],
      "stateMutability": "view",
      "type": "function"
    },
    {
      "inputs": [],
      "name": "getChamberGenerator",
      "outputs": [
        {
          "internalType": "contract ICrawlerChamberGenerator",
          "name": "",
          "type": "address"
        }
      ],
      "stateMutability": "view",
      "type": "function"
    },
    {
      "inputs": [
        {
          "internalType": "uint8",
          "name": "",
          "type": "uint8"
        }
      ],
      "name": "getGenerator",
      "outputs": [
        {
          "internalType": "contract ICrawlerGenerator",
          "name": "",
          "type": "address"
        }
      ],
      "stateMutability": "view",
      "type": "function"
    },
    {
      "inputs": [
        {
          "internalType": "uint8",
          "name": "",
          "type": "uint8"
        }
      ],
      "name": "getMapper",
      "outputs": [
        {
          "internalType": "contract ICrawlerMapper",
          "name": "",
          "type": "address"
        }
      ],
      "stateMutability": "view",
      "type": "function"
    },
    {
      "inputs": [
        {
          "internalType": "uint8",
          "name": "",
          "type": "uint8"
        }
      ],
      "name": "getRenderer",
      "outputs": [
        {
          "internalType": "contract ICrawlerRenderer",
          "name": "",
          "type": "address"
        }
      ],
      "stateMutability": "view",
      "type": "function"
    },
    {
      "inputs": [
        {
          "internalType": "uint8",
          "name": "",
          "type": "uint8"
        },
        {
          "internalType": "uint256",
          "name": "coord",
          "type": "uint256"
        },
        {
          "components": [
            {
              "internalType": "uint256",
              "name": "tokenId",
              "type": "uint256"
            },
            {
              "internalType": "uint256",
              "name": "seed",
              "type": "uint256"
            },
            {
              "internalType": "uint232",
              "name": "yonder",
              "type": "uint232"
            },
            {
              "internalType": "uint8",
              "name": "chapter",
              "type": "uint8"
            },
            {
              "internalType": "enum Crawl.Terrain",
              "name": "terrain",
              "type": "uint8"
            },
            {
              "internalType": "enum Crawl.Dir",
              "name": "entryDir",
              "type": "uint8"
            }
          ],
          "internalType": "struct Crawl.ChamberSeed",
          "name": "chamberSeed",
          "type": "tuple"
        },
        {
          "internalType": "bool",
          "name": "generateMaps",
          "type": "bool"
        }
      ],
      "name": "getChamberData",
      "outputs": [
        {
          "components": [
            {
              "internalType": "uint256",
              "name": "coord",
              "type": "uint256"
            },
            {
              "internalType": "uint256",
              "name": "tokenId",
              "type": "uint256"
            },
            {
              "internalType": "uint256",
              "name": "seed",
              "type": "uint256"
            },
            {
              "internalType": "uint232",
              "name": "yonder",
              "type": "uint232"
            },
            {
              "internalType": "uint8",
              "name": "chapter",
              "type": "uint8"
            },
            {
              "internalType": "enum Crawl.Terrain",
              "name": "terrain",
              "type": "uint8"
            },
            {
              "internalType": "enum Crawl.Dir",
              "name": "entryDir",
              "type": "uint8"
            },
            {
              "components": [
                {
                  "internalType": "enum Crawl.Gem",
                  "name": "gemType",
                  "type": "uint8"
                },
                {
                  "internalType": "uint16",
                  "name": "coins",
                  "type": "uint16"
                },
                {
                  "internalType": "uint16",
                  "name": "worth",
                  "type": "uint16"
                }
              ],
              "internalType": "struct Crawl.Hoard",
              "name": "hoard",
              "type": "tuple"
            },
            {
              "internalType": "uint8",
              "name": "gemPos",
              "type": "uint8"
            },
            {
              "internalType": "uint8[4]",
              "name": "doors",
              "type": "uint8[4]"
            },
            {
              "internalType": "uint8[4]",
              "name": "locks",
              "type": "uint8[4]"
            },
            {
              "internalType": "uint256",
              "name": "bitmap",
              "type": "uint256"
            },
            {
              "internalType": "bytes",
              "name": "tilemap",
              "type": "bytes"
            },
            {
              "components": [
                {
                  "internalType": "enum Crawl.CustomDataType",
                  "name": "dataType",
                  "type": "uint8"
                },
                {
                  "internalType": "bytes",
                  "name": "data",
                  "type": "bytes"
                }
              ],
              "internalType": "struct Crawl.CustomData[]",
              "name": "customData",
              "type": "tuple[]"
            }
          ],
          "internalType": "struct Crawl.ChamberData",
          "name": "result",
          "type": "tuple"
        }
      ],
      "stateMutability": "view",
      "type": "function"
    },
    {
      "inputs": [
        {
          "internalType": "uint8",
          "name": "chapterNumber",
          "type": "uint8"
        },
        {
          "internalType": "uint256",
          "name": "coord",
          "type": "uint256"
        },
        {
          "components": [
            {
              "internalType": "uint256",
              "name": "tokenId",
              "type": "uint256"
            },
            {
              "internalType": "uint256",
              "name": "seed",
              "type": "uint256"
            },
            {
              "internalType": "uint232",
              "name": "yonder",
              "type": "uint232"
            },
            {
              "internalType": "uint8",
              "name": "chapter",
              "type": "uint8"
            },
            {
              "internalType": "enum Crawl.Terrain",
              "name": "terrain",
              "type": "uint8"
            },
            {
              "internalType": "enum Crawl.Dir",
              "name": "entryDir",
              "type": "uint8"
            }
          ],
          "internalType": "struct Crawl.ChamberSeed",
          "name": "chamberSeed",
          "type": "tuple"
        }
      ],
      "name": "getChamberMetadata",
      "outputs": [
        {
          "internalType": "string",
          "name": "",
          "type": "string"
        }
      ],
      "stateMutability": "view",
      "type": "function"
    },
    {
      "inputs": [
        {
          "internalType": "uint8",
          "name": "chapterNumber",
          "type": "uint8"
        },
        {
          "internalType": "uint256",
          "name": "coord",
          "type": "uint256"
        },
        {
          "components": [
            {
              "internalType": "uint256",
              "name": "tokenId",
              "type": "uint256"
            },
            {
              "internalType": "uint256",
              "name": "seed",
              "type": "uint256"
            },
            {
              "internalType": "uint232",
              "name": "yonder",
              "type": "uint232"
            },
            {
              "internalType": "uint8",
              "name": "chapter",
              "type": "uint8"
            },
            {
              "internalType": "enum Crawl.Terrain",
              "name": "terrain",
              "type": "uint8"
            },
            {
              "internalType": "enum Crawl.Dir",
              "name": "entryDir",
              "type": "uint8"
            }
          ],
          "internalType": "struct Crawl.ChamberSeed",
          "name": "chamberSeed",
          "type": "tuple"
        }
      ],
      "name": "getMapMetadata",
      "outputs": [
        {
          "internalType": "string",
          "name": "",
          "type": "string"
        }
      ],
      "stateMutability": "view",
      "type": "function"
    },
    {
      "inputs": [
        {
          "internalType": "uint8",
          "name": "chapterNumber",
          "type": "uint8"
        },
        {
          "internalType": "uint256",
          "name": "coord",
          "type": "uint256"
        },
        {
          "components": [
            {
              "internalType": "uint256",
              "name": "tokenId",
              "type": "uint256"
            },
            {
              "internalType": "uint256",
              "name": "seed",
              "type": "uint256"
            },
            {
              "internalType": "uint232",
              "name": "yonder",
              "type": "uint232"
            },
            {
              "internalType": "uint8",
              "name": "chapter",
              "type": "uint8"
            },
            {
              "internalType": "enum Crawl.Terrain",
              "name": "terrain",
              "type": "uint8"
            },
            {
              "internalType": "enum Crawl.Dir",
              "name": "entryDir",
              "type": "uint8"
            }
          ],
          "internalType": "struct Crawl.ChamberSeed",
          "name": "chamberSeed",
          "type": "tuple"
        }
      ],
      "name": "getTokenMetadata",
      "outputs": [
        {
          "internalType": "string",
          "name": "",
          "type": "string"
        }
      ],
      "stateMutability": "view",
      "type": "function"
    },
    {
      "inputs": [
        {
          "internalType": "bytes4",
          "name": "interfaceId",
          "type": "bytes4"
        }
      ],
      "name": "supportsInterface",
      "outputs": [
        {
          "internalType": "bool",
          "name": "",
          "type": "bool"
        }
      ],
      "stateMutability": "view",
      "type": "function"
    },
    {
      "inputs": [
        {
          "components": [
            {
              "internalType": "uint256",
              "name": "coord",
              "type": "uint256"
            },
            {
              "internalType": "uint256",
              "name": "tokenId",
              "type": "uint256"
            },
            {
              "internalType": "uint256",
              "name": "seed",
              "type": "uint256"
            },
            {
              "internalType": "uint232",
              "name": "yonder",
              "type": "uint232"
            },
            {
              "internalType": "uint8",
              "name": "chapter",
              "type": "uint8"
            },
            {
              "internalType": "enum Crawl.Terrain",
              "name": "terrain",
              "type": "uint8"
            },
            {
              "internalType": "enum Crawl.Dir",
              "name": "entryDir",
              "type": "uint8"
            },
            {
              "components": [
                {
                  "internalType": "enum Crawl.Gem",
                  "name": "gemType",
                  "type": "uint8"
                },
                {
                  "internalType": "uint16",
                  "name": "coins",
                  "type": "uint16"
                },
                {
                  "internalType": "uint16",
                  "name": "worth",
                  "type": "uint16"
                }
              ],
              "internalType": "struct Crawl.Hoard",
              "name": "hoard",
              "type": "tuple"
            },
            {
              "internalType": "uint8",
              "name": "gemPos",
              "type": "uint8"
            },
            {
              "internalType": "uint8[4]",
              "name": "doors",
              "type": "uint8[4]"
            },
            {
              "internalType": "uint8[4]",
              "name": "locks",
              "type": "uint8[4]"
            },
            {
              "internalType": "uint256",
              "name": "bitmap",
              "type": "uint256"
            },
            {
              "internalType": "bytes",
              "name": "tilemap",
              "type": "bytes"
            },
            {
              "components": [
                {
                  "internalType": "enum Crawl.CustomDataType",
                  "name": "dataType",
                  "type": "uint8"
                },
                {
                  "internalType": "bytes",
                  "name": "data",
                  "type": "bytes"
                }
              ],
              "internalType": "struct Crawl.CustomData[]",
              "name": "customData",
              "type": "tuple[]"
            }
          ],
          "internalType": "struct Crawl.ChamberData",
          "name": "chamber",
          "type": "tuple"
        },
        {
          "internalType": "contract ICrawlerMapper",
          "name": "mapper",
          "type": "address"
        }
      ],
      "name": "renderAdditionalChamberMetadata",
      "outputs": [
        {
          "internalType": "string",
          "name": "",
          "type": "string"
        }
      ],
      "stateMutability": "view",
      "type": "function"
    },
    {
      "inputs": [
        {
          "components": [
            {
              "internalType": "uint256",
              "name": "coord",
              "type": "uint256"
            },
            {
              "internalType": "uint256",
              "name": "tokenId",
              "type": "uint256"
            },
            {
              "internalType": "uint256",
              "name": "seed",
              "type": "uint256"
            },
            {
              "internalType": "uint232",
              "name": "yonder",
              "type": "uint232"
            },
            {
              "internalType": "uint8",
              "name": "chapter",
              "type": "uint8"
            },
            {
              "internalType": "enum Crawl.Terrain",
              "name": "terrain",
              "type": "uint8"
            },
            {
              "internalType": "enum Crawl.Dir",
              "name": "entryDir",
              "type": "uint8"
            },
            {
              "components": [
                {
                  "internalType": "enum Crawl.Gem",
                  "name": "gemType",
                  "type": "uint8"
                },
                {
                  "internalType": "uint16",
                  "name": "coins",
                  "type": "uint16"
                },
                {
                  "internalType": "uint16",
                  "name": "worth",
                  "type": "uint16"
                }
              ],
              "internalType": "struct Crawl.Hoard",
              "name": "hoard",
              "type": "tuple"
            },
            {
              "internalType": "uint8",
              "name": "gemPos",
              "type": "uint8"
            },
            {
              "internalType": "uint8[4]",
              "name": "doors",
              "type": "uint8[4]"
            },
            {
              "internalType": "uint8[4]",
              "name": "locks",
              "type": "uint8[4]"
            },
            {
              "internalType": "uint256",
              "name": "bitmap",
              "type": "uint256"
            },
            {
              "internalType": "bytes",
              "name": "tilemap",
              "type": "bytes"
            },
            {
              "components": [
                {
                  "internalType": "enum Crawl.CustomDataType",
                  "name": "dataType",
                  "type": "uint8"
                },
                {
                  "internalType": "bytes",
                  "name": "data",
                  "type": "bytes"
                }
              ],
              "internalType": "struct Crawl.CustomData[]",
              "name": "customData",
              "type": "tuple[]"
            }
          ],
          "internalType": "struct Crawl.ChamberData",
          "name": "chamber",
          "type": "tuple"
        },
        {
          "internalType": "contract ICrawlerMapper",
          "name": "mapper",
          "type": "address"
        }
      ],
      "name": "renderMapMetadata",
      "outputs": [
        {
          "internalType": "string",
          "name": "",
          "type": "string"
        }
      ],
      "stateMutability": "view",
      "type": "function"
    },
    {
      "inputs": [
        {
          "components": [
            {
              "internalType": "uint256",
              "name": "coord",
              "type": "uint256"
            },
            {
              "internalType": "uint256",
              "name": "tokenId",
              "type": "uint256"
            },
            {
              "internalType": "uint256",
              "name": "seed",
              "type": "uint256"
            },
            {
              "internalType": "uint232",
              "name": "yonder",
              "type": "uint232"
            },
            {
              "internalType": "uint8",
              "name": "chapter",
              "type": "uint8"
            },
            {
              "internalType": "enum Crawl.Terrain",
              "name": "terrain",
              "type": "uint8"
            },
            {
              "internalType": "enum Crawl.Dir",
              "name": "entryDir",
              "type": "uint8"
            },
            {
              "components": [
                {
                  "internalType": "enum Crawl.Gem",
                  "name": "gemType",
                  "type": "uint8"
                },
                {
                  "internalType": "uint16",
                  "name": "coins",
                  "type": "uint16"
                },
                {
                  "internalType": "uint16",
                  "name": "worth",
                  "type": "uint16"
                }
              ],
              "internalType": "struct Crawl.Hoard",
              "name": "hoard",
              "type": "tuple"
            },
            {
              "internalType": "uint8",
              "name": "gemPos",
              "type": "uint8"
            },
            {
              "internalType": "uint8[4]",
              "name": "doors",
              "type": "uint8[4]"
            },
            {
              "internalType": "uint8[4]",
              "name": "locks",
              "type": "uint8[4]"
            },
            {
              "internalType": "uint256",
              "name": "bitmap",
              "type": "uint256"
            },
            {
              "internalType": "bytes",
              "name": "tilemap",
              "type": "bytes"
            },
            {
              "components": [
                {
                  "internalType": "enum Crawl.CustomDataType",
                  "name": "dataType",
                  "type": "uint8"
                },
                {
                  "internalType": "bytes",
                  "name": "data",
                  "type": "bytes"
                }
              ],
              "internalType": "struct Crawl.CustomData[]",
              "name": "customData",
              "type": "tuple[]"
            }
          ],
          "internalType": "struct Crawl.ChamberData",
          "name": "chamber",
          "type": "tuple"
        },
        {
          "internalType": "contract ICrawlerMapper",
          "name": "mapper",
          "type": "address"
        }
      ],
      "name": "renderTokenMetadata",
      "outputs": [
        {
          "internalType": "string",
          "name": "",
          "type": "string"
        }
      ],
      "stateMutability": "view",
      "type": "function"
    },
    {
      "inputs": [
        {
          "components": [
            {
              "internalType": "uint256",
              "name": "coord",
              "type": "uint256"
            },
            {
              "internalType": "uint256",
              "name": "tokenId",
              "type": "uint256"
            },
            {
              "internalType": "uint256",
              "name": "seed",
              "type": "uint256"
            },
            {
              "internalType": "uint232",
              "name": "yonder",
              "type": "uint232"
            },
            {
              "internalType": "uint8",
              "name": "chapter",
              "type": "uint8"
            },
            {
              "internalType": "enum Crawl.Terrain",
              "name": "terrain",
              "type": "uint8"
            },
            {
              "internalType": "enum Crawl.Dir",
              "name": "entryDir",
              "type": "uint8"
            },
            {
              "components": [
                {
                  "internalType": "enum Crawl.Gem",
                  "name": "gemType",
                  "type": "uint8"
                },
                {
                  "internalType": "uint16",
                  "name": "coins",
                  "type": "uint16"
                },
                {
                  "internalType": "uint16",
                  "name": "worth",
                  "type": "uint16"
                }
              ],
              "internalType": "struct Crawl.Hoard",
              "name": "hoard",
              "type": "tuple"
            },
            {
              "internalType": "uint8",
              "name": "gemPos",
              "type": "uint8"
            },
            {
              "internalType": "uint8[4]",
              "name": "doors",
              "type": "uint8[4]"
            },
            {
              "internalType": "uint8[4]",
              "name": "locks",
              "type": "uint8[4]"
            },
            {
              "internalType": "uint256",
              "name": "bitmap",
              "type": "uint256"
            },
            {
              "internalType": "bytes",
              "name": "tilemap",
              "type": "bytes"
            },
            {
              "components": [
                {
                  "internalType": "enum Crawl.CustomDataType",
                  "name": "dataType",
                  "type": "uint8"
                },
                {
                  "internalType": "bytes",
                  "name": "data",
                  "type": "bytes"
                }
              ],
              "internalType": "struct Crawl.CustomData[]",
              "name": "customData",
              "type": "tuple[]"
            }
          ],
          "internalType": "struct Crawl.ChamberData",
          "name": "chamber",
          "type": "tuple"
        },
        {
          "internalType": "contract ICrawlerMapper",
          "name": "mapper",
          "type": "address"
        }
      ],
      "name": "_renderSvg",
      "outputs": [
        {
          "internalType": "string",
          "name": "",
          "type": "string"
        }
      ],
      "stateMutability": "view",
      "type": "function"
    }
  ],
  "bytecode": "0x60806040523480156200001157600080fd5b5060405162006177380380620061778339818101604052810190620000379190620002f7565b620000576200004b620001c160201b60201c565b620001c960201b60201c565b6040518060800160405280600060ff1681526020018373ffffffffffffffffffffffffffffffffffffffff1681526020018273ffffffffffffffffffffffffffffffffffffffff1681526020013073ffffffffffffffffffffffffffffffffffffffff16815250600260008201518160000160006101000a81548160ff021916908360ff16021790555060208201518160000160016101000a81548173ffffffffffffffffffffffffffffffffffffffff021916908373ffffffffffffffffffffffffffffffffffffffff16021790555060408201518160010160006101000a81548173ffffffffffffffffffffffffffffffffffffffff021916908373ffffffffffffffffffffffffffffffffffffffff16021790555060608201518160020160006101000a81548173ffffffffffffffffffffffffffffffffffffffff021916908373ffffffffffffffffffffffffffffffffffffffff16021790555090505050506200033e565b600033905090565b60008060009054906101000a900473ffffffffffffffffffffffffffffffffffffffff169050816000806101000a81548173ffffffffffffffffffffffffffffffffffffffff021916908373ffffffffffffffffffffffffffffffffffffffff1602179055508173ffffffffffffffffffffffffffffffffffffffff168173ffffffffffffffffffffffffffffffffffffffff167f8be0079c531659141344cd1fd0a4f28419497f9722a3daafe3b4186f6b6457e060405160405180910390a35050565b600080fd5b600073ffffffffffffffffffffffffffffffffffffffff82169050919050565b6000620002bf8262000292565b9050919050565b620002d181620002b2565b8114620002dd57600080fd5b50565b600081519050620002f181620002c6565b92915050565b600080604083850312156200031157620003106200028d565b5b60006200032185828601620002e0565b92505060206200033485828601620002e0565b9150509250929050565b615e29806200034e6000396000f3fe608060405234801561001057600080fd5b50600436106101425760003560e01c8063aa327f1e116100b8578063c25bd08a1161007c578063c25bd08a146103b1578063cc84c2a8146103e1578063cff270eb14610411578063e83b78d81461042f578063f1e608f31461045f578063f2fde38b1461048f57610142565b8063aa327f1e146102e7578063ac26192214610317578063b1ee663214610347578063b542a7c514610365578063bbcd5bbe1461039557610142565b8063627209501161010a57806362720950146102255780636c78116c14610255578063715018a6146102715780638736f3a61461027b5780638da5cb5b146102ab5780638e3b60a0146102c957610142565b806301ffc9a7146101475780630fe487f3146101775780633d29d6e3146101a75780634eb18bb8146101d75780636026e27714610207575b600080fd5b610161600480360381019061015c919061266d565b6104ab565b60405161016e91906126b5565b60405180910390f35b610191600480360381019061018c9190612914565b610515565b60405161019e91906129e7565b60405180910390f35b6101c160048036038101906101bc9190612fa4565b610640565b6040516101ce91906129e7565b60405180910390f35b6101f160048036038101906101ec919061302c565b610972565b6040516101fe9190613587565b60405180910390f35b61020f610caf565b60405161021c9190613608565b60405180910390f35b61023f600480360381019061023a9190613623565b610cd5565b60405161024c9190613671565b60405180910390f35b61026f600480360381019061026a91906136b8565b610d03565b005b610279610e7a565b005b61029560048036038101906102909190613623565b610e8e565b6040516102a2919061372c565b60405180910390f35b6102b3610ebd565b6040516102c09190613756565b60405180910390f35b6102d1610ee6565b6040516102de9190613780565b60405180910390f35b61030160048036038101906102fc9190613623565b610f00565b60405161030e91906137bc565b60405180910390f35b610331600480360381019061032c9190612914565b610f2f565b60405161033e91906129e7565b60405180910390f35b61034f61105a565b60405161035c9190613859565b60405180910390f35b61037f600480360381019061037a9190612fa4565b611193565b60405161038c91906129e7565b60405180910390f35b6103af60048036038101906103aa9190613874565b611854565b005b6103cb60048036038101906103c69190612fa4565b6118a0565b6040516103d891906129e7565b60405180910390f35b6103fb60048036038101906103f69190613623565b611b42565b6040516104089190613859565b60405180910390f35b610419611c7d565b60405161042691906138c2565b60405180910390f35b61044960048036038101906104449190612fa4565b611caa565b60405161045691906129e7565b60405180910390f35b61047960048036038101906104749190612914565b611ce5565b60405161048691906129e7565b60405180910390f35b6104a960048036038101906104a49190613874565b611f1c565b005b60007f605009fe000000000000000000000000000000000000000000000000000000007bffffffffffffffffffffffffffffffffffffffffffffffffffffffff1916827bffffffffffffffffffffffffffffffffffffffffffffffffffffffff1916149050919050565b60606000826000015103610560576040518060400160405280600281526020017f7b7d0000000000000000000000000000000000000000000000000000000000008152509050610639565b6002800160009054906101000a900473ffffffffffffffffffffffffffffffffffffffff1673ffffffffffffffffffffffffffffffffffffffff16633d29d6e36105ad8686866001610972565b600260010160009054906101000a900473ffffffffffffffffffffffffffffffffffffffff166040518363ffffffff1660e01b81526004016105f09291906138dd565b600060405180830381865afa15801561060d573d6000803e3d6000fd5b505050506040513d6000823e3d601f19601f8201168201806040525081019061063691906139ae565b90505b9392505050565b606060008273ffffffffffffffffffffffffffffffffffffffff1663f319922a8560a001516040518263ffffffff1660e01b81526004016106819190613a06565b600060405180830381865afa15801561069e573d6000803e3d6000fd5b505050506040513d6000823e3d601f19601f820116820180604052508101906106c79190613b02565b905060058151101561070e576040517f08c379a000000000000000000000000000000000000000000000000000000000815260040161070590613b97565b60405180910390fd5b73__Crawl_________________________________6363e1cbea856040015160206040518363ffffffff1660e01b815260040161074c929190613c01565b600060405180830381865af4158015610769573d6000803e3d6000fd5b505050506040513d6000823e3d601f19601f8201168201806040525081019061079291906139ae565b6107a0856101800151611f9f565b82600060ff16815181106107b7576107b6613c2a565b5b602002602001015183600160ff16815181106107d6576107d5613c2a565b5b602002602001015184600260ff16815181106107f5576107f4613c2a565b5b602002602001015185600360ff168151811061081457610813613c2a565b5b602002602001015186600460ff168151811061083357610832613c2a565b5b60200260200101518973ffffffffffffffffffffffffffffffffffffffff1663372108188c60e00151600001516040518263ffffffff1660e01b815260040161087c9190613c68565b600060405180830381865afa158015610899573d6000803e3d6000fd5b505050506040513d6000823e3d601f19601f820116820180604052508101906108c291906139ae565b8a73ffffffffffffffffffffffffffffffffffffffff16633721081860086040518263ffffffff1660e01b81526004016108fc9190613c68565b600060405180830381865afa158015610919573d6000803e3d6000fd5b505050506040513d6000823e3d601f19601f8201168201806040525081019061094291906139ae565b60405160200161095a99989796959493929190613e87565b60405160208183030381529060405291505092915050565b61097a61246d565b610982611c7d565b73ffffffffffffffffffffffffffffffffffffffff16631b9bb44285856000600160009054906101000a900473ffffffffffffffffffffffffffffffffffffffff16600260000160019054906101000a900473ffffffffffffffffffffffffffffffffffffffff166040518663ffffffff1660e01b8152600401610a0a959493929190614022565b600060405180830381865afa158015610a27573d6000803e3d6000fd5b505050506040513d6000823e3d601f19601f82011682018060405250810190610a509190614526565b9050600143610a5f919061459e565b408360000151604051602001610a7692919061461e565b6040516020818303038152906040528051906020012060001c8160400181815250506000816080019060ff16908160ff1681525050600081606001907cffffffffffffffffffffffffffffffffffffffffffffffffffffffffff1690817cffffffffffffffffffffffffffffffffffffffffffffffffffffffffff1681525050604051806060016040528060076008811115610b1557610b146130c2565b5b8152602001600061ffff168152602001600061ffff168152508160e0018190525061010060c88260400151901c610b4c9190614679565b81610100019060ff16908160ff16815250508115610ca7577fffffffffffffffffffffffffffffffffffffffffffffffffffffffffffffffff8161016001818152505061010067ffffffffffffffff811115610bab57610baa612755565b5b6040519080825280601f01601f191660200182016040528015610bdd5781602001600182028036833780820191505090505b5081610180018190525060005b610100811015610c515760ff60f81b8261018001518281518110610c1157610c10613c2a565b5b60200101907effffffffffffffffffffffffffffffffffffffffffffffffffffffffffffff1916908160001a90535080610c4a906146aa565b9050610bea565b50600460f81b81610180015182610100015160ff1681518110610c7757610c76613c2a565b5b60200101907effffffffffffffffffffffffffffffffffffffffffffffffffffffffffffff1916908160001a9053505b949350505050565b600160009054906101000a900473ffffffffffffffffffffffffffffffffffffffff1681565b60006002800160009054906101000a900473ffffffffffffffffffffffffffffffffffffffff169050919050565b610d0b612102565b600073ffffffffffffffffffffffffffffffffffffffff168373ffffffffffffffffffffffffffffffffffffffff1614610d845782600260000160016101000a81548173ffffffffffffffffffffffffffffffffffffffff021916908373ffffffffffffffffffffffffffffffffffffffff1602179055505b600073ffffffffffffffffffffffffffffffffffffffff168273ffffffffffffffffffffffffffffffffffffffff1614610dfd5781600260010160006101000a81548173ffffffffffffffffffffffffffffffffffffffff021916908373ffffffffffffffffffffffffffffffffffffffff1602179055505b600073ffffffffffffffffffffffffffffffffffffffff168173ffffffffffffffffffffffffffffffffffffffff1614610e7557806002800160006101000a81548173ffffffffffffffffffffffffffffffffffffffff021916908373ffffffffffffffffffffffffffffffffffffffff1602179055505b505050565b610e82612102565b610e8c6000612180565b565b6000600260010160009054906101000a900473ffffffffffffffffffffffffffffffffffffffff169050919050565b60008060009054906101000a900473ffffffffffffffffffffffffffffffffffffffff16905090565b6000600260000160009054906101000a900460ff16905090565b6000600260000160019054906101000a900473ffffffffffffffffffffffffffffffffffffffff169050919050565b60606000826000015103610f7a576040518060400160405280600281526020017f7b7d0000000000000000000000000000000000000000000000000000000000008152509050611053565b6002800160009054906101000a900473ffffffffffffffffffffffffffffffffffffffff1673ffffffffffffffffffffffffffffffffffffffff1663b542a7c5610fc78686866001610972565b600260010160009054906101000a900473ffffffffffffffffffffffffffffffffffffffff166040518363ffffffff1660e01b815260040161100a9291906138dd565b600060405180830381865afa158015611027573d6000803e3d6000fd5b505050506040513d6000823e3d601f19601f8201168201806040525081019061105091906139ae565b90505b9392505050565b611062612537565b60026040518060800160405290816000820160009054906101000a900460ff1660ff1660ff1681526020016000820160019054906101000a900473ffffffffffffffffffffffffffffffffffffffff1673ffffffffffffffffffffffffffffffffffffffff1673ffffffffffffffffffffffffffffffffffffffff1681526020016001820160009054906101000a900473ffffffffffffffffffffffffffffffffffffffff1673ffffffffffffffffffffffffffffffffffffffff1673ffffffffffffffffffffffffffffffffffffffff1681526020016002820160009054906101000a900473ffffffffffffffffffffffffffffffffffffffff1673ffffffffffffffffffffffffffffffffffffffff1673ffffffffffffffffffffffffffffffffffffffff1681525050905090565b606060008273ffffffffffffffffffffffffffffffffffffffff166368b78b7a8560a0015160006040518363ffffffff1660e01b81526004016111d79291906146f2565b600060405180830381865afa1580156111f4573d6000803e3d6000fd5b505050506040513d6000823e3d601f19601f8201168201806040525081019061121d91906139ae565b9050600061122b85856118a0565b9050600061123c8660200151612244565b838360405160200161125093929190614d45565b604051602081830303815290604052905060006112708760200151612244565b6040516020016112809190614dcc565b60405160208183030381529060405290506000600567ffffffffffffffff8111156112ae576112ad612755565b5b6040519080825280602002602001820160405280156112e157816020015b60608152602001906001900390816112cc5790505b5090506000600567ffffffffffffffff81111561130157611300612755565b5b60405190808252806020026020018201604052801561133457816020015b606081526020019060019003908161131f5790505b5090506040518060400160405280600781526020017f43686170746572000000000000000000000000000000000000000000000000008152508260008151811061138157611380613c2a565b5b602002602001018190525061139c896080015160ff16612244565b816000815181106113b0576113af613c2a565b5b60200260200101819052506040518060400160405280600781526020017f5465727261696e000000000000000000000000000000000000000000000000008152508260018151811061140557611404613c2a565b5b60200260200101819052508773ffffffffffffffffffffffffffffffffffffffff16628ea79b8a60a001516040518263ffffffff1660e01b815260040161144c9190613a06565b600060405180830381865afa158015611469573d6000803e3d6000fd5b505050506040513d6000823e3d601f19601f8201168201806040525081019061149291906139ae565b816001815181106114a6576114a5613c2a565b5b60200260200101819052506040518060400160405280600681526020017f596f6e6465720000000000000000000000000000000000000000000000000000815250826002815181106114fb576114fa613c2a565b5b602002602001018190525061153289606001517cffffffffffffffffffffffffffffffffffffffffffffffffffffffffff16612244565b8160028151811061154657611545613c2a565b5b60200260200101819052506040518060400160405280600381526020017f47656d00000000000000000000000000000000000000000000000000000000008152508260038151811061159b5761159a613c2a565b5b60200260200101819052508773ffffffffffffffffffffffffffffffffffffffff1663fa171c658a60e00151600001516040518263ffffffff1660e01b81526004016115e79190613c68565b600060405180830381865afa158015611604573d6000803e3d6000fd5b505050506040513d6000823e3d601f19601f8201168201806040525081019061162d91906139ae565b8160038151811061164157611640613c2a565b5b60200260200101819052506040518060400160405280600a81526020017f436f6f7264696e617465000000000000000000000000000000000000000000008152508260048151811061169657611695613c2a565b5b602002602001018190525073__Crawl_________________________________6373f05b9f8a600001518b606001516040518363ffffffff1660e01b81526004016116e2929190614e5a565b600060405180830381865af41580156116ff573d6000803e3d6000fd5b505050506040513d6000823e3d601f19601f8201168201806040525081019061172891906139ae565b8160048151811061173c5761173b613c2a565b5b602002602001018190525060006117568a60200151612244565b6117638b60200151612244565b858973__Crawl_________________________________6359af1b4788886040518363ffffffff1660e01b815260040161179e929190614fa2565b600060405180830381865af41580156117bb573d6000803e3d6000fd5b505050506040513d6000823e3d601f19601f820116820180604052508101906117e491906139ae565b6117ed8b611f9f565b6117f68b611f9f565b60405160200161180c97969594939291906151a1565b604051602081830303815290604052905061182681611f9f565b604051602001611836919061529c565b60405160208183030381529060405297505050505050505092915050565b61185c612102565b80600160006101000a81548173ffffffffffffffffffffffffffffffffffffffff021916908373ffffffffffffffffffffffffffffffffffffffff16021790555050565b606060008273ffffffffffffffffffffffffffffffffffffffff1663f319922a8560a001516040518263ffffffff1660e01b81526004016118e19190613a06565b600060405180830381865afa1580156118fe573d6000803e3d6000fd5b505050506040513d6000823e3d601f19601f820116820180604052508101906119279190613b02565b905060058151101561196e576040517f08c379a000000000000000000000000000000000000000000000000000000000815260040161196590613b97565b60405180910390fd5b600061010060d28660400151901c6119869190614679565b905081600060ff168151811061199f5761199e613c2a565b5b602002602001015182600160ff16815181106119be576119bd613c2a565b5b602002602001015183600460ff16815181106119dd576119dc613c2a565b5b60200260200101518673ffffffffffffffffffffffffffffffffffffffff1663372108188960e00151600001516040518263ffffffff1660e01b8152600401611a269190613c68565b600060405180830381865afa158015611a43573d6000803e3d6000fd5b505050506040513d6000823e3d601f19601f82011682018060405250810190611a6c91906139ae565b611a84601086611a7c91906152c2565b60ff16612244565b611a9c601087611a9491906152f3565b60ff16612244565b611ab960108c6101000151611ab191906152c2565b60ff16612244565b611ad660108d6101000151611ace91906152f3565b60ff16612244565b611af360108e6101000151611aeb91906152c2565b60ff16612244565b611b1060108f6101000151611b0891906152f3565b60ff16612244565b604051602001611b299a9998979695949392919061579c565b6040516020818303038152906040529250505092915050565b611b4a612537565b60026040518060800160405290816000820160009054906101000a900460ff1660ff1660ff1681526020016000820160019054906101000a900473ffffffffffffffffffffffffffffffffffffffff1673ffffffffffffffffffffffffffffffffffffffff1673ffffffffffffffffffffffffffffffffffffffff1681526020016001820160009054906101000a900473ffffffffffffffffffffffffffffffffffffffff1673ffffffffffffffffffffffffffffffffffffffff1673ffffffffffffffffffffffffffffffffffffffff1681526020016002820160009054906101000a900473ffffffffffffffffffffffffffffffffffffffff1673ffffffffffffffffffffffffffffffffffffffff1673ffffffffffffffffffffffffffffffffffffffff16815250509050919050565b6000600260000160019054906101000a900473ffffffffffffffffffffffffffffffffffffffff16905090565b6060611cbe611cb984846118a0565b611f9f565b604051602001611cce9190615964565b604051602081830303815290604052905092915050565b60606000826000015103611d30576040518060400160405280600281526020017f7b7d0000000000000000000000000000000000000000000000000000000000008152509050611f15565b6000611d3f8585856000610972565b9050611d4e8160200151612244565b611d5b8260200151612244565b611d6b836080015160ff16612244565b611d8a8460a001516004811115611d8557611d846130c2565b5b612244565b611dad8560e00151600001516008811115611da857611da76130c2565b5b612244565b611dba8660000151612244565b611de687606001517cffffffffffffffffffffffffffffffffffffffffffffffffffffffffff16612244565b611df38860000151612244565b611e1f89606001517cffffffffffffffffffffffffffffffffffffffffffffffffffffffffff16612244565b6002800160009054906101000a900473ffffffffffffffffffffffffffffffffffffffff1673ffffffffffffffffffffffffffffffffffffffff1663e83b78d88b600260010160009054906101000a900473ffffffffffffffffffffffffffffffffffffffff166040518363ffffffff1660e01b8152600401611ea39291906138dd565b600060405180830381865afa158015611ec0573d6000803e3d6000fd5b505050506040513d6000823e3d601f19601f82011682018060405250810190611ee991906139ae565b604051602001611f029a99989796959493929190615ac5565b6040516020818303038152906040529150505b9392505050565b611f24612102565b600073ffffffffffffffffffffffffffffffffffffffff168173ffffffffffffffffffffffffffffffffffffffff1603611f93576040517f08c379a0000000000000000000000000000000000000000000000000000000008152600401611f8a90615c68565b60405180910390fd5b611f9c81612180565b50565b60606000825103611fc1576040518060200160405280600081525090506120fd565b6000604051806060016040528060408152602001615db46040913990506000600360028551611ff09190615c88565b611ffa9190615cbc565b60046120069190615ced565b67ffffffffffffffff81111561201f5761201e612755565b5b6040519080825280601f01601f1916602001820160405280156120515781602001600182028036833780820191505090505b509050600182016020820185865187015b808210156120bd576003820191508151603f8160121c168501518453600184019350603f81600c1c168501518453600184019350603f8160061c168501518453600184019350603f8116850151845360018401935050612062565b50506003865106600181146120d957600281146120ec576120f4565b603d6001830353603d60028303536120f4565b603d60018303535b50505080925050505b919050565b61210a612312565b73ffffffffffffffffffffffffffffffffffffffff16612128610ebd565b73ffffffffffffffffffffffffffffffffffffffff161461217e576040517f08c379a000000000000000000000000000000000000000000000000000000000815260040161217590615d93565b60405180910390fd5b565b60008060009054906101000a900473ffffffffffffffffffffffffffffffffffffffff169050816000806101000a81548173ffffffffffffffffffffffffffffffffffffffff021916908373ffffffffffffffffffffffffffffffffffffffff1602179055508173ffffffffffffffffffffffffffffffffffffffff168173ffffffffffffffffffffffffffffffffffffffff167f8be0079c531659141344cd1fd0a4f28419497f9722a3daafe3b4186f6b6457e060405160405180910390a35050565b6060600060016122538461231a565b01905060008167ffffffffffffffff81111561227257612271612755565b5b6040519080825280601f01601f1916602001820160405280156122a45781602001600182028036833780820191505090505b509050600082602001820190505b600115612307578080600190039150507f3031323334353637383961626364656600000000000000000000000000000000600a86061a8153600a85816122fb576122fa61464a565b5b049450600085036122b2575b819350505050919050565b600033905090565b600080600090507a184f03e93ff9f4daa797ed6e38ed64bf6a1f0100000000000000008310612378577a184f03e93ff9f4daa797ed6e38ed64bf6a1f010000000000000000838161236e5761236d61464a565b5b0492506040810190505b6d04ee2d6d415b85acef810000000083106123b5576d04ee2d6d415b85acef810000000083816123ab576123aa61464a565b5b0492506020810190505b662386f26fc1000083106123e457662386f26fc1000083816123da576123d961464a565b5b0492506010810190505b6305f5e100831061240d576305f5e10083816124035761240261464a565b5b0492506008810190505b61271083106124325761271083816124285761242761464a565b5b0492506004810190505b60648310612455576064838161244b5761244a61464a565b5b0492506002810190505b600a8310612464576001810190505b80915050919050565b604051806101c0016040528060008152602001600081526020016000815260200160007cffffffffffffffffffffffffffffffffffffffffffffffffffffffffff168152602001600060ff168152602001600060048111156124d2576124d16130c2565b5b8152602001600060038111156124eb576124ea6130c2565b5b81526020016124f86125a4565b8152602001600060ff16815260200161250f6125df565b815260200161251c6125df565b81526020016000815260200160608152602001606081525090565b6040518060800160405280600060ff168152602001600073ffffffffffffffffffffffffffffffffffffffff168152602001600073ffffffffffffffffffffffffffffffffffffffff168152602001600073ffffffffffffffffffffffffffffffffffffffff1681525090565b6040518060600160405280600060088111156125c3576125c26130c2565b5b8152602001600061ffff168152602001600061ffff1681525090565b6040518060800160405280600490602082028036833780820191505090505090565b6000604051905090565b600080fd5b600080fd5b60007fffffffff0000000000000000000000000000000000000000000000000000000082169050919050565b61264a81612615565b811461265557600080fd5b50565b60008135905061266781612641565b92915050565b6000602082840312156126835761268261260b565b5b600061269184828501612658565b91505092915050565b60008115159050919050565b6126af8161269a565b82525050565b60006020820190506126ca60008301846126a6565b92915050565b600060ff82169050919050565b6126e6816126d0565b81146126f157600080fd5b50565b600081359050612703816126dd565b92915050565b6000819050919050565b61271c81612709565b811461272757600080fd5b50565b60008135905061273981612713565b92915050565b600080fd5b6000601f19601f8301169050919050565b7f4e487b7100000000000000000000000000000000000000000000000000000000600052604160045260246000fd5b61278d82612744565b810181811067ffffffffffffffff821117156127ac576127ab612755565b5b80604052505050565b60006127bf612601565b90506127cb8282612784565b919050565b600080fd5b60007cffffffffffffffffffffffffffffffffffffffffffffffffffffffffff82169050919050565b612807816127d5565b811461281257600080fd5b50565b600081359050612824816127fe565b92915050565b6005811061283757600080fd5b50565b6000813590506128498161282a565b92915050565b6004811061285c57600080fd5b50565b60008135905061286e8161284f565b92915050565b600060c0828403121561288a5761288961273f565b5b61289460c06127b5565b905060006128a48482850161272a565b60008301525060206128b88482850161272a565b60208301525060406128cc84828501612815565b60408301525060606128e0848285016126f4565b60608301525060806128f48482850161283a565b60808301525060a06129088482850161285f565b60a08301525092915050565b6000806000610100848603121561292e5761292d61260b565b5b600061293c868287016126f4565b935050602061294d8682870161272a565b925050604061295e86828701612874565b9150509250925092565b600081519050919050565b600082825260208201905092915050565b60005b838110156129a2578082015181840152602081019050612987565b60008484015250505050565b60006129b982612968565b6129c38185612973565b93506129d3818560208601612984565b6129dc81612744565b840191505092915050565b60006020820190508181036000830152612a0181846129ae565b905092915050565b60098110612a1657600080fd5b50565b600081359050612a2881612a09565b92915050565b600061ffff82169050919050565b612a4581612a2e565b8114612a5057600080fd5b50565b600081359050612a6281612a3c565b92915050565b600060608284031215612a7e57612a7d61273f565b5b612a8860606127b5565b90506000612a9884828501612a19565b6000830152506020612aac84828501612a53565b6020830152506040612ac084828501612a53565b60408301525092915050565b600080fd5b600067ffffffffffffffff821115612aec57612aeb612755565b5b602082029050919050565b600080fd5b6000612b0f612b0a84612ad1565b6127b5565b90508060208402830185811115612b2957612b28612af7565b5b835b81811015612b525780612b3e88826126f4565b845260208401935050602081019050612b2b565b5050509392505050565b600082601f830112612b7157612b70612acc565b5b6004612b7e848285612afc565b91505092915050565b600080fd5b600067ffffffffffffffff821115612ba757612ba6612755565b5b612bb082612744565b9050602081019050919050565b82818337600083830152505050565b6000612bdf612bda84612b8c565b6127b5565b905082815260208101848484011115612bfb57612bfa612b87565b5b612c06848285612bbd565b509392505050565b600082601f830112612c2357612c22612acc565b5b8135612c33848260208601612bcc565b91505092915050565b600067ffffffffffffffff821115612c5757612c56612755565b5b602082029050602081019050919050565b60108110612c7557600080fd5b50565b600081359050612c8781612c68565b92915050565b600060408284031215612ca357612ca261273f565b5b612cad60406127b5565b90506000612cbd84828501612c78565b600083015250602082013567ffffffffffffffff811115612ce157612ce06127d0565b5b612ced84828501612c0e565b60208301525092915050565b6000612d0c612d0784612c3c565b6127b5565b90508083825260208201905060208402830185811115612d2f57612d2e612af7565b5b835b81811015612d7657803567ffffffffffffffff811115612d5457612d53612acc565b5b808601612d618982612c8d565b85526020850194505050602081019050612d31565b5050509392505050565b600082601f830112612d9557612d94612acc565b5b8135612da5848260208601612cf9565b91505092915050565b60006102c08284031215612dc557612dc461273f565b5b612dd06101c06127b5565b90506000612de08482850161272a565b6000830152506020612df48482850161272a565b6020830152506040612e088482850161272a565b6040830152506060612e1c84828501612815565b6060830152506080612e30848285016126f4565b60808301525060a0612e448482850161283a565b60a08301525060c0612e588482850161285f565b60c08301525060e0612e6c84828501612a68565b60e083015250610140612e81848285016126f4565b61010083015250610160612e9784828501612b5c565b610120830152506101e0612ead84828501612b5c565b61014083015250610260612ec38482850161272a565b6101608301525061028082013567ffffffffffffffff811115612ee957612ee86127d0565b5b612ef584828501612c0e565b610180830152506102a082013567ffffffffffffffff811115612f1b57612f1a6127d0565b5b612f2784828501612d80565b6101a08301525092915050565b600073ffffffffffffffffffffffffffffffffffffffff82169050919050565b6000612f5f82612f34565b9050919050565b6000612f7182612f54565b9050919050565b612f8181612f66565b8114612f8c57600080fd5b50565b600081359050612f9e81612f78565b92915050565b60008060408385031215612fbb57612fba61260b565b5b600083013567ffffffffffffffff811115612fd957612fd8612610565b5b612fe585828601612dae565b9250506020612ff685828601612f8f565b9150509250929050565b6130098161269a565b811461301457600080fd5b50565b60008135905061302681613000565b92915050565b60008060008061012085870312156130475761304661260b565b5b6000613055878288016126f4565b94505060206130668782880161272a565b935050604061307787828801612874565b92505061010061308987828801613017565b91505092959194509250565b61309e81612709565b82525050565b6130ad816127d5565b82525050565b6130bc816126d0565b82525050565b7f4e487b7100000000000000000000000000000000000000000000000000000000600052602160045260246000fd5b60058110613102576131016130c2565b5b50565b6000819050613113826130f1565b919050565b600061312382613105565b9050919050565b61313381613118565b82525050565b6004811061314a576131496130c2565b5b50565b600081905061315b82613139565b919050565b600061316b8261314d565b9050919050565b61317b81613160565b82525050565b60098110613192576131916130c2565b5b50565b60008190506131a382613181565b919050565b60006131b382613195565b9050919050565b6131c3816131a8565b82525050565b6131d281612a2e565b82525050565b6060820160008201516131ee60008501826131ba565b50602082015161320160208501826131c9565b50604082015161321460408501826131c9565b50505050565b600060049050919050565b600081905092915050565b6000819050919050565b600061324683836130b3565b60208301905092915050565b6000602082019050919050565b6132688161321a565b6132728184613225565b925061327d82613230565b8060005b838110156132ae578151613295878261323a565b96506132a083613252565b925050600181019050613281565b505050505050565b600081519050919050565b600082825260208201905092915050565b60006132dd826132b6565b6132e781856132c1565b93506132f7818560208601612984565b61330081612744565b840191505092915050565b600081519050919050565b600082825260208201905092915050565b6000819050602082019050919050565b60108110613348576133476130c2565b5b50565b600081905061335982613337565b919050565b60006133698261334b565b9050919050565b6133798161335e565b82525050565b60006040830160008301516133976000860182613370565b50602083015184820360208601526133af82826132d2565b9150508091505092915050565b60006133c8838361337f565b905092915050565b6000602082019050919050565b60006133e88261330b565b6133f28185613316565b93508360208202850161340485613327565b8060005b85811015613440578484038952815161342185826133bc565b945061342c836133d0565b925060208a01995050600181019050613408565b50829750879550505050505092915050565b60006102c08301600083015161346b6000860182613095565b50602083015161347e6020860182613095565b5060408301516134916040860182613095565b5060608301516134a460608601826130a4565b5060808301516134b760808601826130b3565b5060a08301516134ca60a086018261312a565b5060c08301516134dd60c0860182613172565b5060e08301516134f060e08601826131d8565b506101008301516135056101408601826130b3565b5061012083015161351a61016086018261325f565b5061014083015161352f6101e086018261325f565b50610160830151613544610260860182613095565b5061018083015184820361028086015261355e82826132d2565b9150506101a08301518482036102a086015261357a82826133dd565b9150508091505092915050565b600060208201905081810360008301526135a18184613452565b905092915050565b6000819050919050565b60006135ce6135c96135c484612f34565b6135a9565b612f34565b9050919050565b60006135e0826135b3565b9050919050565b60006135f2826135d5565b9050919050565b613602816135e7565b82525050565b600060208201905061361d60008301846135f9565b92915050565b6000602082840312156136395761363861260b565b5b6000613647848285016126f4565b91505092915050565b600061365b826135d5565b9050919050565b61366b81613650565b82525050565b60006020820190506136866000830184613662565b92915050565b61369581612f54565b81146136a057600080fd5b50565b6000813590506136b28161368c565b92915050565b6000806000606084860312156136d1576136d061260b565b5b60006136df868287016136a3565b93505060206136f0868287016136a3565b9250506040613701868287016136a3565b9150509250925092565b6000613716826135d5565b9050919050565b6137268161370b565b82525050565b6000602082019050613741600083018461371d565b92915050565b61375081612f54565b82525050565b600060208201905061376b6000830184613747565b92915050565b61377a816126d0565b82525050565b60006020820190506137956000830184613771565b92915050565b60006137a6826135d5565b9050919050565b6137b68161379b565b82525050565b60006020820190506137d160008301846137ad565b92915050565b6137e08161379b565b82525050565b6137ef8161370b565b82525050565b6137fe81613650565b82525050565b60808201600082015161381a60008501826130b3565b50602082015161382d60208501826137d7565b50604082015161384060408501826137e6565b50606082015161385360608501826137f5565b50505050565b600060808201905061386e6000830184613804565b92915050565b60006020828403121561388a5761388961260b565b5b6000613898848285016136a3565b91505092915050565b60006138ac826135d5565b9050919050565b6138bc816138a1565b82525050565b60006020820190506138d760008301846138b3565b92915050565b600060408201905081810360008301526138f78185613452565b9050613906602083018461371d565b9392505050565b600067ffffffffffffffff82111561392857613927612755565b5b61393182612744565b9050602081019050919050565b600061395161394c8461390d565b6127b5565b90508281526020810184848401111561396d5761396c612b87565b5b613978848285612984565b509392505050565b600082601f83011261399557613994612acc565b5b81516139a584826020860161393e565b91505092915050565b6000602082840312156139c4576139c361260b565b5b600082015167ffffffffffffffff8111156139e2576139e1612610565b5b6139ee84828501613980565b91505092915050565b613a0081613118565b82525050565b6000602082019050613a1b60008301846139f7565b92915050565b600067ffffffffffffffff821115613a3c57613a3b612755565b5b602082029050602081019050919050565b6000613a60613a5b84613a21565b6127b5565b90508083825260208201905060208402830185811115613a8357613a82612af7565b5b835b81811015613aca57805167ffffffffffffffff811115613aa857613aa7612acc565b5b808601613ab58982613980565b85526020850194505050602081019050613a85565b5050509392505050565b600082601f830112613ae957613ae8612acc565b5b8151613af9848260208601613a4d565b91505092915050565b600060208284031215613b1857613b1761260b565b5b600082015167ffffffffffffffff811115613b3657613b35612610565b5b613b4284828501613ad4565b91505092915050565b7f496e636f6d706c65746520636f6c6f722070616c657474650000000000000000600082015250565b6000613b81601883612973565b9150613b8c82613b4b565b602082019050919050565b60006020820190508181036000830152613bb081613b74565b9050919050565b613bc081612709565b82525050565b6000819050919050565b6000613beb613be6613be184613bc6565b6135a9565b612709565b9050919050565b613bfb81613bd0565b82525050565b6000604082019050613c166000830185613bb7565b613c236020830184613bf2565b9392505050565b7f4e487b7100000000000000000000000000000000000000000000000000000000600052603260045260246000fd5b613c62816131a8565b82525050565b6000602082019050613c7d6000830184613c59565b92915050565b7f7b2273656564223a220000000000000000000000000000000000000000000000815250565b600081905092915050565b6000613cbf82612968565b613cc98185613ca9565b9350613cd9818560208601612984565b80840191505092915050565b7f222c2274696c656d6170223a22646174613a6170706c69636174696f6e2f6f6360008201527f7465742d73747265616d3b6261736536342c0000000000000000000000000000602082015250565b6000613d41603283613ca9565b9150613d4c82613ce5565b603282019050919050565b7f222c22636f6c6f7273223a7b226261636b67726f756e64223a22000000000000815250565b7f222c2270617468223a2200000000000000000000000000000000000000000000815250565b7f222c2274696c6573223a22000000000000000000000000000000000000000000815250565b7f222c22736861646f7773223a2200000000000000000000000000000000000000815250565b7f222c22706c61796572223a220000000000000000000000000000000000000000815250565b7f222c2267656d223a220000000000000000000000000000000000000000000000815250565b7f222c22636f696e223a2200000000000000000000000000000000000000000000815250565b7f227d7d0000000000000000000000000000000000000000000000000000000000815250565b6000613e9282613c83565b600982019150613ea2828c613cb4565b9150613ead82613d34565b9150613eb9828b613cb4565b9150613ec482613d57565b601a82019150613ed4828a613cb4565b9150613edf82613d7d565b600a82019150613eef8289613cb4565b9150613efa82613da3565b600b82019150613f0a8288613cb4565b9150613f1582613dc9565b600d82019150613f258287613cb4565b9150613f3082613def565b600c82019150613f408286613cb4565b9150613f4b82613e15565b600982019150613f5b8285613cb4565b9150613f6682613e3b565b600a82019150613f768284613cb4565b9150613f8182613e61565b6003820191508190509a9950505050505050505050565b613fa181612709565b82525050565b60c082016000820151613fbd6000850182613095565b506020820151613fd06020850182613095565b506040820151613fe360408501826130a4565b506060820151613ff660608501826130b3565b506080820151614009608085018261312a565b5060a082015161401c60a0850182613172565b50505050565b6000610140820190506140386000830188613f98565b6140456020830187613fa7565b61405260e08301866126a6565b6140606101008301856135f9565b61406e6101208301846137ad565b9695505050505050565b60008151905061408781612713565b92915050565b60008151905061409c816127fe565b92915050565b6000815190506140b1816126dd565b92915050565b6000815190506140c68161282a565b92915050565b6000815190506140db8161284f565b92915050565b6000815190506140f081612a09565b92915050565b60008151905061410581612a3c565b92915050565b6000606082840312156141215761412061273f565b5b61412b60606127b5565b9050600061413b848285016140e1565b600083015250602061414f848285016140f6565b6020830152506040614163848285016140f6565b60408301525092915050565b600061418261417d84612ad1565b6127b5565b9050806020840283018581111561419c5761419b612af7565b5b835b818110156141c557806141b188826140a2565b84526020840193505060208101905061419e565b5050509392505050565b600082601f8301126141e4576141e3612acc565b5b60046141f184828561416f565b91505092915050565b600061420d61420884612b8c565b6127b5565b90508281526020810184848401111561422957614228612b87565b5b614234848285612984565b509392505050565b600082601f83011261425157614250612acc565b5b81516142618482602086016141fa565b91505092915050565b60008151905061427981612c68565b92915050565b6000604082840312156142955761429461273f565b5b61429f60406127b5565b905060006142af8482850161426a565b600083015250602082015167ffffffffffffffff8111156142d3576142d26127d0565b5b6142df8482850161423c565b60208301525092915050565b60006142fe6142f984612c3c565b6127b5565b9050808382526020820190506020840283018581111561432157614320612af7565b5b835b8181101561436857805167ffffffffffffffff81111561434657614345612acc565b5b808601614353898261427f565b85526020850194505050602081019050614323565b5050509392505050565b600082601f83011261438757614386612acc565b5b81516143978482602086016142eb565b91505092915050565b60006102c082840312156143b7576143b661273f565b5b6143c26101c06127b5565b905060006143d284828501614078565b60008301525060206143e684828501614078565b60208301525060406143fa84828501614078565b604083015250606061440e8482850161408d565b6060830152506080614422848285016140a2565b60808301525060a0614436848285016140b7565b60a08301525060c061444a848285016140cc565b60c08301525060e061445e8482850161410b565b60e083015250610140614473848285016140a2565b61010083015250610160614489848285016141cf565b610120830152506101e061449f848285016141cf565b610140830152506102606144b584828501614078565b6101608301525061028082015167ffffffffffffffff8111156144db576144da6127d0565b5b6144e78482850161423c565b610180830152506102a082015167ffffffffffffffff81111561450d5761450c6127d0565b5b61451984828501614372565b6101a08301525092915050565b60006020828403121561453c5761453b61260b565b5b600082015167ffffffffffffffff81111561455a57614559612610565b5b614566848285016143a0565b91505092915050565b7f4e487b7100000000000000000000000000000000000000000000000000000000600052601160045260246000fd5b60006145a982612709565b91506145b483612709565b92508282039050818111156145cc576145cb61456f565b5b92915050565b6000819050919050565b6000819050919050565b6145f76145f2826145d2565b6145dc565b82525050565b6000819050919050565b61461861461382612709565b6145fd565b82525050565b600061462a82856145e6565b60208201915061463a8284614607565b6020820191508190509392505050565b7f4e487b7100000000000000000000000000000000000000000000000000000000600052601260045260246000fd5b600061468482612709565b915061468f83612709565b92508261469f5761469e61464a565b5b828206905092915050565b60006146b582612709565b91507fffffffffffffffffffffffffffffffffffffffffffffffffffffffffffffffff82036146e7576146e661456f565b5b600182019050919050565b600060408201905061470760008301856139f7565b6147146020830184613771565b9392505050565b7f3c21444f43545950452068746d6c3e3c68746d6c206c616e673d22656e223e3c60008201527f686561643e3c6d65746120636861727365743d225554462d38223e3c6d65746160208201527f206e616d653d22617574686f722220636f6e74656e743d2253747564696f204160408201527f76616e7465223e3c7469746c653e456e646c657373204c696d626f2023000000606082015250565b60006147c3607d83613ca9565b91506147ce8261471b565b607d82019050919050565b7f3c2f7469746c653e3c7374796c653e626f64797b6261636b67726f756e643a23815250565b7f3b6d617267696e3a303b6f766572666c6f773a68696464656e3b7d23506c617960008201527f65727b7472616e736974696f6e3a7820302e317320656173652d696e2c79203060208201527f2e317320656173652d696e3b7669736962696c6974793a76697369626c65216960408201527f6d706f7274616e743b616e696d6174696f6e3a626c696e6b657220317320656160608201527f73652d696e20696e66696e6974653b7d406b65796672616d657320626c696e6b60808201527f65727b3735257b6f7061636974793a313b7d313030257b6f7061636974793a3060a08201527f3b7d7d3c2f7374796c653e3c2f686561643e3c626f64793e000000000000000060c082015250565b600061491960d883613ca9565b9150614924826147ff565b60d882019050919050565b7f3c7363726970743e6c657420703d646f63756d656e742e676574456c656d656e60008201527f74427949642822506c6179657222292c673d646f63756d656e742e676574456c60208201527f656d656e7442794964282247656d22292c67703d2d313b66756e6374696f6e2060408201527f6d28742c652c692c723d226d6f76656422297b6c657420243d7061727365496e60608201527f7428702e6765744174747269627574652822782229292b652c6c3d706172736560808201527f496e7428702e6765744174747269627574652822792229292b693b696628243e60a08201527f3d3026266c3e3d302626243c313626266c3c3136297b702e736574417474726960c08201527f62757465282278222c24292c702e736574417474726962757465282279222c6c60e08201527f293b6c6574206e3d243d3d67705b305d26266c3d3d67705b315d3f343a3235356101008201527f3b672e73657441747472696275746528226f706163697479222c343d3d6e3f226101208201527f31223a223022292c77696e646f772e706172656e742e706f73744d65737361676101408201527f65284a534f4e2e737472696e67696679287b6c696d626f3a7b6576656e743a726101608201527f2c783a242c793a6c2c74696c653a6e7d7d292c222a22297d743f2e70726576656101808201527f6e7444656661756c7428297d77696e646f772e6f6e6c6f61643d743d3e7b6c656101a08201527f7420653d646f63756d656e742e717565727953656c6563746f722822737667226101c08201527f293b652e7365744174747269627574652822686569676874222c2231303076686101e08201527f22292c652e73657441747472696275746528227769647468222c2231303076776102008201527f22292c67703d5b7061727365496e7428672e67657441747472696275746528226102208201527f782229292c7061727365496e7428672e676574417474726962757465282279226102408201527f29295d2c646f63756d656e742e6164644576656e744c697374656e657228226b6102608201527f6579646f776e222c743d3e7b696628742e7265706561742972657475726e3b6c6102808201527f657420653d742e6b6579436f64653b33373d3d6526266d28742c2d312c30292c6102a08201527f33383d3d6526266d28742c302c2d31292c33393d3d6526266d28742c312c30296102c08201527f2c34303d3d6526266d28742c302c31292c2831333d3d657c7c33323d3d6529266102e08201527f266d28742c302c302c22616374696f6e22297d292c6d286e756c6c2c302c30296103008201527f7d3b3c2f7363726970743e3c2f626f64793e3c2f68746d6c3e0000000000000061032082015250565b6000614d2e61033983613ca9565b9150614d398261492f565b61033982019050919050565b6000614d50826147b6565b9150614d5c8286613cb4565b9150614d67826147d9565b602082019150614d778285613cb4565b9150614d828261490c565b9150614d8e8284613cb4565b9150614d9982614d20565b9150819050949350505050565b7f68747470733a2f2f656e646c657373637261776c65722e696f2f6c696d626f2f815250565b6000614dd782614da6565b602082019150614de78284613cb4565b915081905092915050565b6000614e0d614e08614e03846127d5565b6135a9565b612709565b9050919050565b614e1d81614df2565b82525050565b600082825260208201905092915050565b50565b6000614e44600083614e23565b9150614e4f82614e34565b600082019050919050565b6000606082019050614e6f6000830185613bb7565b614e7c6020830184614e14565b8181036040830152614e8d81614e37565b90509392505050565b600081519050919050565b600082825260208201905092915050565b6000819050602082019050919050565b600082825260208201905092915050565b6000614ede82612968565b614ee88185614ec2565b9350614ef8818560208601612984565b614f0181612744565b840191505092915050565b6000614f188383614ed3565b905092915050565b6000602082019050919050565b6000614f3882614e96565b614f428185614ea1565b935083602082028501614f5485614eb2565b8060005b85811015614f905784840389528151614f718582614f0c565b9450614f7c83614f20565b925060208a01995050600181019050614f58565b50829750879550505050505092915050565b60006040820190508181036000830152614fbc8185614f2d565b90508181036020830152614fd08184614f2d565b90509392505050565b7f7b226e616d65223a224c696d626f202300000000000000000000000000000000815250565b7f222c226465736372697074696f6e223a22456e646c657373204c696d626f2023815250565b7f222c2265787465726e616c5f75726c223a220000000000000000000000000000815250565b7f222c226261636b67726f756e645f636f6c6f72223a2200000000000000000000815250565b7f222c2261747472696275746573223a5b00000000000000000000000000000000815250565b7f5d2c22696d616765223a22646174613a696d6167652f7376672b786d6c3b626160008201527f736536342c000000000000000000000000000000000000000000000000000000602082015250565b60006150f3602583613ca9565b91506150fe82615097565b602582019050919050565b7f222c22616e696d6174696f6e5f75726c223a22646174613a746578742f68746d60008201527f6c3b6261736536342c0000000000000000000000000000000000000000000000602082015250565b6000615165602983613ca9565b915061517082615109565b602982019050919050565b7f227d000000000000000000000000000000000000000000000000000000000000815250565b60006151ac82614fd9565b6010820191506151bc828a613cb4565b91506151c782614fff565b6020820191506151d78289613cb4565b91506151e282615025565b6012820191506151f28288613cb4565b91506151fd8261504b565b60168201915061520d8287613cb4565b915061521882615071565b6010820191506152288286613cb4565b9150615233826150e6565b915061523f8285613cb4565b915061524a82615158565b91506152568284613cb4565b91506152618261517b565b60028201915081905098975050505050505050565b7f646174613a6170706c69636174696f6e2f6a736f6e3b6261736536342c000000815250565b60006152a782615276565b601d820191506152b78284613cb4565b915081905092915050565b60006152cd826126d0565b91506152d8836126d0565b9250826152e8576152e761464a565b5b828206905092915050565b60006152fe826126d0565b9150615309836126d0565b9250826153195761531861464a565b5b828204905092915050565b7f3c73766720786d6c6e733d22687474703a2f2f7777772e77332e6f72672f323060008201527f30302f7376672220786d6c6e733a786c696e6b3d22687474703a2f2f7777772e60208201527f77332e6f72672f313939392f786c696e6b222076657273696f6e3d22312e312260408201527f2077696474683d2236303022206865696768743d22363030222076696577426f60608201527f783d222d32202d32203230203230223e3c646566733e3c7374796c653e000000608082015250565b60006153f2609d83613ca9565b91506153fd82615324565b609d82019050919050565b7f3a726f6f747b2d2d42673a230000000000000000000000000000000000000000815250565b7f3b2d2d50617468733a2300000000000000000000000000000000000000000000815250565b7f3b2d2d506c617965723a23000000000000000000000000000000000000000000815250565b7f3b2d2d47656d3a23000000000000000000000000000000000000000000000000815250565b7f3b7d7376677b6261636b67726f756e642d636f6c6f723a766172282d2d42672960008201527f3b7d2e42677b66696c6c3a766172282d2d4267293b7d2350617468737b66696c60208201527f6c3a766172282d2d5061746873293b7d23506c617965727b66696c6c3a76617260408201527f282d2d506c61796572293b7669736962696c6974793a68696464656e3b7d234760608201527f656d7b66696c6c3a766172282d2d47656d293b7d3c2f7374796c653e3c2f646560808201527f66733e3c673e3c7265637420636c6173733d2242672220783d222d322220793d60a08201527f222d32222077696474683d22323022206865696768743d223230222f3e3c726560c08201527f63742069643d2250617468732220783d22302220793d2230222077696474683d60e08201527f22313622206865696768743d223136222f3e3c726563742069643d22506c61796101008201527f65722220783d220000000000000000000000000000000000000000000000000061012082015250565b600061562f61012783613ca9565b915061563a826154a0565b61012782019050919050565b7f2220793d22000000000000000000000000000000000000000000000000000000815250565b7f222077696474683d223122206865696768743d2231222f3e3c7061746820696460008201527f3d2247656d2220783d2200000000000000000000000000000000000000000000602082015250565b60006156c8602a83613ca9565b91506156d38261566c565b602a82019050919050565b7f2220643d226d2000000000000000000000000000000000000000000000000000815250565b7f2000000000000000000000000000000000000000000000000000000000000000815250565b7f2e35206c20302e3520302e35206c20302e35202d302e35206c202d302e35202d60008201527f302e35205a22202f3e3c2f673e3c2f7376673e00000000000000000000000000602082015250565b6000615786603383613ca9565b91506157918261572a565b603382019050919050565b60006157a7826153e5565b91506157b282615408565b600c820191506157c2828d613cb4565b91506157cd8261542e565b600a820191506157dd828c613cb4565b91506157e882615454565b600b820191506157f8828b613cb4565b91506158038261547a565b600882019150615813828a613cb4565b915061581e82615621565b915061582a8289613cb4565b915061583582615646565b6005820191506158458288613cb4565b9150615850826156bb565b915061585c8287613cb4565b915061586782615646565b6005820191506158778286613cb4565b9150615882826156de565b6007820191506158928285613cb4565b915061589d82615704565b6001820191506158ad8284613cb4565b91506158b882615779565b91508190509b9a5050505050505050505050565b7f22696d616765223a22646174613a696d6167652f7376672b786d6c3b6261736560008201527f36342c0000000000000000000000000000000000000000000000000000000000602082015250565b6000615928602383613ca9565b9150615933826158cc565b602382019050919050565b7f2200000000000000000000000000000000000000000000000000000000000000815250565b600061596f8261591b565b915061597b8284613cb4565b91506159868261593e565b60018201915081905092915050565b7f7b22746f6b656e4964223a220000000000000000000000000000000000000000815250565b7f222c226e616d65223a224c696d626f2023000000000000000000000000000000815250565b7f222c2263686170746572223a2200000000000000000000000000000000000000815250565b7f222c227465727261696e223a2200000000000000000000000000000000000000815250565b7f222c22636f6f7264223a22000000000000000000000000000000000000000000815250565b7f222c22796f6e646572223a220000000000000000000000000000000000000000815250565b7f222c000000000000000000000000000000000000000000000000000000000000815250565b7f7d00000000000000000000000000000000000000000000000000000000000000815250565b6000615ad082615995565b600c82019150615ae0828d613cb4565b9150615aeb826159bb565b601182019150615afb828c613cb4565b9150615b06826159e1565b600d82019150615b16828b613cb4565b9150615b2182615a07565b600d82019150615b31828a613cb4565b9150615b3c82613e15565b600982019150615b4c8289613cb4565b9150615b5782615a2d565b600b82019150615b678288613cb4565b9150615b7282615a53565b600c82019150615b828287613cb4565b9150615b8d82615a2d565b600b82019150615b9d8286613cb4565b9150615ba882615a53565b600c82019150615bb88285613cb4565b9150615bc382615a79565b600282019150615bd38284613cb4565b9150615bde82615a9f565b6001820191508190509b9a5050505050505050505050565b7f4f776e61626c653a206e6577206f776e657220697320746865207a65726f206160008201527f6464726573730000000000000000000000000000000000000000000000000000602082015250565b6000615c52602683612973565b9150615c5d82615bf6565b604082019050919050565b60006020820190508181036000830152615c8181615c45565b9050919050565b6000615c9382612709565b9150615c9e83612709565b9250828201905080821115615cb657615cb561456f565b5b92915050565b6000615cc782612709565b9150615cd283612709565b925082615ce257615ce161464a565b5b828204905092915050565b6000615cf882612709565b9150615d0383612709565b9250817fffffffffffffffffffffffffffffffffffffffffffffffffffffffffffffffff0483118215151615615d3c57615d3b61456f565b5b828202905092915050565b7f4f776e61626c653a2063616c6c6572206973206e6f7420746865206f776e6572600082015250565b6000615d7d602083612973565b9150615d8882615d47565b602082019050919050565b60006020820190508181036000830152615dac81615d70565b905091905056fe4142434445464748494a4b4c4d4e4f505152535455565758595a6162636465666768696a6b6c6d6e6f707172737475767778797a303132333435363738392b2fa2646970667358221220dc1c9cc7bc3b4b437b7633aac4f4cc81e793b6f854c2ec90e0c60b898ea0f52964736f6c63430008100033",
  "immutableReferences": {},
  "source": "// SPDX-License-Identifier: MIT\n//\n//    \n//             \n//              \n//              \n//              \n//          \n//        \n//      \n//\n// https://endlesscrawler.io\n// @EndlessCrawler\n//\n/// @title Endless Crawler Chapter Index\n/// @author Studio Avante\n/// @notice Manages Chapters contracts\n/// @dev Depends on ICrawlerToken (chambers)\n//\npragma solidity ^0.8.16;\nimport { Ownable } from '@openzeppelin/contracts/access/Ownable.sol';\nimport { IERC165 } from '@openzeppelin/contracts/utils/introspection/ERC165.sol';\nimport { Base64 } from '@openzeppelin/contracts/utils/Base64.sol';\nimport { ICrawlerIndex } from '../ICrawlerIndex.sol';\nimport { ICrawlerToken } from '../ICrawlerToken.sol';\nimport { ICrawlerChamberGenerator } from '../ICrawlerChamberGenerator.sol';\nimport { ICrawlerGenerator } from '../ICrawlerGenerator.sol';\nimport { ICrawlerMapper } from '../ICrawlerMapper.sol';\nimport { ICrawlerRenderer } from '../ICrawlerRenderer.sol';\nimport { MapV1 } from '../MapV1.sol';\nimport { Crawl } from '../Crawl.sol';\n\ncontract LimboIndex is Ownable, ICrawlerIndex, ICrawlerRenderer {\n\n\tICrawlerToken public _tokenContract;\n\n\tChapter private _chapter;\n\n\tconstructor(address generator_, address mapper_) {\n\t\t_chapter = Chapter(0, ICrawlerGenerator(generator_), ICrawlerMapper(mapper_), ICrawlerRenderer(this));\n\t}\n\n\t//---------------\n\t// Admin\n\t//\n\n\t/// @notice Admin function\n\tfunction setTokenContract(address tokenContract_) public onlyOwner {\n\t\t_tokenContract = ICrawlerToken(tokenContract_);\n\t}\n\n\t/// @notice Admin function\n\tfunction setupChapter(address generator_, address mapper_, address renderer_) public onlyOwner {\n\t\tif(generator_ != address(0)) {\n\t\t\t_chapter.generator = ICrawlerGenerator(generator_);\n\t\t}\n\t\tif(mapper_ != address(0)) {\n\t\t\t_chapter.mapper = ICrawlerMapper(mapper_);\n\t\t}\n\t\tif(renderer_ != address(0)) {\n\t\t\t_chapter.renderer = ICrawlerRenderer(renderer_);\n\t\t}\n\t}\n\t\n\t//---------------\n\t// Public\n\t//\n\n\t/// @notice Get the current Chapter number\n\t/// @return chapterNumber\n\tfunction getCurrentChapterNumber() public view override returns (uint8) {\n\t\treturn _chapter.chapterNumber;\n\t}\n\n\t/// @notice Get them current Chapter contracts\n\t/// @return chapter Structure containing contract addresses\n\tfunction getCurrentChapter() public view override returns (Chapter memory) {\n\t\treturn _chapter;\n\t}\n\n\t/// @notice Get a Chapter's contracts\n\t// @param chapterNumber The Chapter number, or 0 for current chapter\n\t/// @return chapter Structure containing contract addresses\n\tfunction getChapter(uint8 /*chapterNumber*/) public view override returns (Chapter memory) {\n\t\treturn _chapter;\n\t}\n\n\t/// @notice Get the ICrawlerChamberGenerator contract\n\t/// @return generator contract address\n\tfunction getChamberGenerator() public view override returns (ICrawlerChamberGenerator) {\n\t\treturn ICrawlerChamberGenerator(address(_chapter.generator));\n\t}\n\n\t/// @notice Get an ICrawlerGenerator contract\n\t// @param chapterNumber The Chapter number, or 0 for current chapter\n\t/// @return generator contract address\n\tfunction getGenerator(uint8 /*chapterNumber*/) public view override returns (ICrawlerGenerator) {\n\t\treturn _chapter.generator;\n\t}\n\n\t/// @notice Get an ICrawlerMapper contract\n\t// @param chapterNumber The Chapter number, or 0 for current chapter\n\t/// @return mapper contract address\n\tfunction getMapper(uint8 /*chapterNumber*/) public view override returns (ICrawlerMapper) {\n\t\treturn _chapter.mapper;\n\t}\n\n\t/// @notice Get an ICrawlerRenderer contract\n\t// @param chapterNumber The Chapter number, or 0 for current chapter\n\t/// @return renderer contract address\n\tfunction getRenderer(uint8 /*chapterNumber*/) public view override returns (ICrawlerRenderer) {\n\t\treturn _chapter.renderer;\n\t}\n\n\n\t//---------------------------------------\n\t// Token / Metadata calls\n\t//\n\n\t/// @notice Generate and returns everything about a chamber\n\t// @param chapterNumber The Chapter number, or 0 for current chapter\n\t/// @param coord Chamber coordinate\n\t/// @param chamberSeed Chamber static data\n\t// @param generateMaps If True, will generate bitmap and tilemap (slower)\n\t/// @return result Crawler.ChamberData struct\n\tfunction getChamberData(uint8 /*chapterNumber*/, uint256 coord, Crawl.ChamberSeed memory chamberSeed, bool generateMaps) public view override returns (Crawl.ChamberData memory result) {\n\t\tresult = getChamberGenerator().generateChamberData(coord, chamberSeed, false, _tokenContract, _chapter.generator);\n\t\tresult.seed = uint256(keccak256(abi.encodePacked(blockhash(block.number-1), chamberSeed.tokenId)));\n\t\tresult.chapter = 0;\n\t\tresult.yonder = 0;\n\t\tresult.hoard = Crawl.Hoard(Crawl.Gem.Kao, 0, 0);\n\t\tresult.gemPos = uint8((result.seed >> 200) % 256);\n\t\tif (generateMaps) {\n\t\t\tresult.bitmap = type(uint256).max;\n\t\t\tresult.tilemap = new bytes(256);\n\t\t\tfor(uint256 i = 0 ; i < 256 ; ++i) {\n\t\t\t\tresult.tilemap[i] = MapV1.Tile_Path;\n\t\t\t}\n\t\t\tresult.tilemap[result.gemPos] = MapV1.Tile_Gem;\n\t\t}\n\t}\n\n\t/// @notice Returns a Chamber metadata, without maps\n\t/// @param chapterNumber The Chapter number, or 0 for current chapter\n\t/// @param coord Chamber coordinate\n\t/// @param chamberSeed Chamber static data\n\t/// @return metadata Metadata, as plain json string\n\tfunction getChamberMetadata(uint8 chapterNumber, uint256 coord, Crawl.ChamberSeed memory chamberSeed) public view override returns (string memory) {\n\t\tif (chamberSeed.tokenId == 0) return '{}';\n\t\tCrawl.ChamberData memory chamber = getChamberData(chapterNumber, coord, chamberSeed, false);\n\t\treturn string.concat(\n\t\t\t'{'\n\t\t\t\t'\"tokenId\":\"', Crawl.toString(chamber.tokenId), '\",'\n\t\t\t\t'\"name\":\"Limbo #', Crawl.toString(chamber.tokenId), '\",'\n\t\t\t\t'\"chapter\":\"', Crawl.toString(chamber.chapter), '\",'\n\t\t\t\t'\"terrain\":\"', Crawl.toString(uint256(chamber.terrain)), '\",'\n\t\t\t\t'\"gem\":\"', Crawl.toString(uint256(chamber.hoard.gemType)), '\",'\n\t\t\t\t'\"coord\":\"', Crawl.toString(chamber.coord), '\",'\n\t\t\t\t'\"yonder\":\"', Crawl.toString(chamber.yonder), '\",'\n\t\t\t\t'\"coord\":\"', Crawl.toString(chamber.coord), '\",'\n\t\t\t\t'\"yonder\":\"', Crawl.toString(chamber.yonder), '\",',\n\t\t\t\t_chapter.renderer.renderAdditionalChamberMetadata(chamber, _chapter.mapper),\n\t\t\t'}'\n\t\t);\n\t}\n\n\t/// @notice Returns the seed and tilemap of a Chamber, used for world building\n\t/// @param chapterNumber The Chapter number, or 0 for current chapter\n\t/// @param coord Chamber coordinate\n\t/// @param chamberSeed Chamber static data\n\t/// @return metadata Metadata, as plain json string\n\tfunction getMapMetadata(uint8 chapterNumber, uint256 coord, Crawl.ChamberSeed memory chamberSeed) public view override returns (string memory) {\n\t\tif (chamberSeed.tokenId == 0) return '{}';\n\t\treturn _chapter.renderer.renderMapMetadata(getChamberData(chapterNumber, coord, chamberSeed, true), _chapter.mapper);\n\t}\n\n\t/// @notice Returns IERC721Metadata compliant metadata, used by tokenURI()\n\t/// @param chapterNumber The Chapter number, or 0 for current chapter\n\t/// @param coord Chamber coordinate\n\t/// @param chamberSeed Chamber static data\n\t/// @return metadata Metadata, as base64 json string\n\tfunction getTokenMetadata(uint8 chapterNumber, uint256 coord, Crawl.ChamberSeed memory chamberSeed) public view override returns (string memory) {\n\t\tif (chamberSeed.tokenId == 0) return '{}';\n\t\treturn _chapter.renderer.renderTokenMetadata(getChamberData(chapterNumber, coord, chamberSeed, true), _chapter.mapper);\n\t}\n\n\t//--------------------\n\t// ICrawlerRenderer\n\t//\n\n\t/// @dev implements IERC165\n\tfunction supportsInterface(bytes4 interfaceId) public view virtual override returns (bool) {\n\t\treturn interfaceId == type(ICrawlerRenderer).interfaceId;\n\t}\n\n\t/// @notice Returns aadditional metadata for CrawlerIndex.getChamberMetadata()\n\t// @param chamber The Chamber, without maps\n\t// @param mapper The ICrawlerMapper contract address\n\t/// @return metadata Metadata properties\n\tfunction renderAdditionalChamberMetadata(Crawl.ChamberData memory chamber, ICrawlerMapper mapper) public view virtual override returns (string memory) {\n\t\treturn string.concat('\"image\":\"data:image/svg+xml;base64,', Base64.encode(bytes(_renderSvg(chamber, mapper))), '\"');\n\t}\n\n\t/// @notice Returns the seed and tilemap of a Chamber, used for world building\n\t/// @param chamber The Chamber, with maps\n\t/// @param mapper The ICrawlerMapper contract address\n\t/// @return metadata Metadata, as plain json string\n\tfunction renderMapMetadata(Crawl.ChamberData memory chamber, ICrawlerMapper mapper) public view virtual override returns (string memory) {\n\t\tstring[] memory colors = mapper.getColors(chamber.terrain);\n\t\trequire(colors.length >= 5, 'Incomplete color palette');\n\t\treturn string.concat(\n\t\t\t'{'\n\t\t\t\t'\"seed\":\"', Crawl.toHexString(chamber.seed, 32), '\",'\n\t\t\t\t'\"tilemap\":\"data:application/octet-stream;base64,', Base64.encode(chamber.tilemap), '\",'\n\t\t\t\t'\"colors\":{'\n\t\t\t\t\t'\"background\":\"', colors[MapV1.Color_Background], '\",'\n\t\t\t\t\t'\"path\":\"', colors[MapV1.Color_Path], '\",'\n\t\t\t\t\t'\"tiles\":\"', colors[MapV1.Color_Tiles], '\",'\n\t\t\t\t\t'\"shadows\":\"', colors[MapV1.Color_Shadows], '\",'\n\t\t\t\t\t'\"player\":\"', colors[MapV1.Color_Player], '\",'\n\t\t\t\t\t'\"gem\":\"', mapper.getGemColor(chamber.hoard.gemType), '\",'\n\t\t\t\t\t'\"coin\":\"', mapper.getGemColor(Crawl.Gem.Coin), '\"'\n\t\t\t\t'}'\n\t\t\t'}'\n\t\t);\n\t}\n\n\t/// @notice Returns IERC721Metadata compliant metadata, used by tokenURI()\n\t/// @param chamber The Chamber, with maps\n\t/// @param mapper The ICrawlerMapper contract address\n\t/// @return metadata Metadata, as base64 json string\n\t/// @dev Reference: https://docs.opensea.io/docs/metadata-standards\n\tfunction renderTokenMetadata(Crawl.ChamberData memory chamber, ICrawlerMapper mapper) public view virtual override returns (string memory) {\n\t\tstring memory bgColor = mapper.getColor(chamber.terrain, MapV1.Color_Background);\n\t\tstring memory svg = _renderSvg(chamber, mapper);\n\t\tstring memory animation = string.concat(\n\t\t\t'<!DOCTYPE html>'\n\t\t\t'<html lang=\"en\">'\n\t\t\t\t'<head>'\n\t\t\t\t\t'<meta charset=\"UTF-8\">'\n\t\t\t\t\t'<meta name=\"author\" content=\"Studio Avante\">'\n\t\t\t\t\t'<title>Endless Limbo #', Crawl.toString(chamber.tokenId), '</title>'\n\t\t\t\t\t'<style>'\n\t\t\t\t\t\t'body{background:#', bgColor, ';margin:0;overflow:hidden;}'\n\t\t\t\t\t\t'#Player{transition:x 0.1s ease-in,y 0.1s ease-in;visibility:visible!important;animation:blinker 1s ease-in infinite;}'\n\t\t\t\t\t\t'@keyframes blinker{75%{opacity:1;}100%{opacity:0;}}'\n\t\t\t\t\t'</style>'\n\t\t\t\t'</head>'\n\t\t\t\t'<body>',\n\t\t\t\t\tsvg,\n\t\t\t\t\t'<script>'\n\t\t\t\t\t\t'let p=document.getElementById(\"Player\"),g=document.getElementById(\"Gem\"),gp=-1;function m(t,e,i,r=\"moved\"){let $=parseInt(p.getAttribute(\"x\"))+e,l=parseInt(p.getAttribute(\"y\"))+i;if($>=0&&l>=0&&$<16&&l<16){p.setAttribute(\"x\",$),p.setAttribute(\"y\",l);let n=$==gp[0]&&l==gp[1]?4:255;g.setAttribute(\"opacity\",4==n?\"1\":\"0\"),window.parent.postMessage(JSON.stringify({limbo:{event:r,x:$,y:l,tile:n}}),\"*\")}t?.preventDefault()}window.onload=t=>{let e=document.querySelector(\"svg\");e.setAttribute(\"height\",\"100vh\"),e.setAttribute(\"width\",\"100vw\"),gp=[parseInt(g.getAttribute(\"x\")),parseInt(g.getAttribute(\"y\"))],document.addEventListener(\"keydown\",t=>{if(t.repeat)return;let e=t.keyCode;37==e&&m(t,-1,0),38==e&&m(t,0,-1),39==e&&m(t,1,0),40==e&&m(t,0,1),(13==e||32==e)&&m(t,0,0,\"action\")}),m(null,0,0)};'\n\t\t\t\t\t'</script>'\n\t\t\t\t'</body>'\n\t\t\t'</html>'\n\t\t);\n\n\t\t//\n\t\t// Generate JSON\n\t\tstring memory external_url = string.concat('https://endlesscrawler.io/limbo/', Crawl.toString(chamber.tokenId));\n\t\tstring[] memory labels = new string[](5);\n\t\tstring[] memory values = new string[](5);\n\t\tlabels[0] = 'Chapter';\n\t\tvalues[0] =  Crawl.toString(chamber.chapter);\n\t\tlabels[1] = 'Terrain';\n\t\tvalues[1] = mapper.getTerrainName(chamber.terrain);\n\t\tlabels[2] = 'Yonder';\n\t\tvalues[2] = Crawl.toString(chamber.yonder);\n\t\tlabels[3] = 'Gem';\n\t\tvalues[3] = mapper.getGemName(chamber.hoard.gemType);\n\t\tlabels[4] = 'Coordinate';\n\t\tvalues[4] = Crawl.coordsToString(chamber.coord, chamber.yonder, '');\n\t\tbytes memory json = bytes(string.concat(\n\t\t\t'{'\n\t\t\t\t'\"name\":\"Limbo #', Crawl.toString(chamber.tokenId), '\",'\n\t\t\t\t'\"description\":\"Endless Limbo #', Crawl.toString(chamber.tokenId), '\",'\n\t\t\t\t'\"external_url\":\"', external_url, '\",'\n\t\t\t\t'\"background_color\":\"', bgColor, '\",'\n\t\t\t\t'\"attributes\":[', Crawl.renderAttributesMetadata(labels, values), '],'\n\t\t\t\t'\"image\":\"data:image/svg+xml;base64,', Base64.encode(bytes(svg)), '\",'\n\t\t\t\t'\"animation_url\":\"data:text/html;base64,', Base64.encode(bytes(animation)), '\"'\n\t\t\t'}'\n\t\t));\n\n\t\treturn string.concat('data:application/json;base64,', Base64.encode(json));\n\t}\n\n\tfunction _renderSvg(Crawl.ChamberData memory chamber, ICrawlerMapper mapper) public view returns (string memory) {\n\t\tstring[] memory colors = mapper.getColors(chamber.terrain);\n\t\trequire(colors.length >= 5, 'Incomplete color palette');\n\t\tuint8 playerPos = uint8((chamber.seed >> 210) % 256);\n\t\treturn string.concat(\n\t\t\t'<svg xmlns=\"http://www.w3.org/2000/svg\" xmlns:xlink=\"http://www.w3.org/1999/xlink\" version=\"1.1\" width=\"600\" height=\"600\" viewBox=\"-2 -2 20 20\">'\n\t\t\t\t'<defs>'\n\t\t\t\t\t'<style>',\n\t\t\t\t\t\t':root{'\n\t\t\t\t\t\t\t'--Bg:#', colors[MapV1.Color_Background], ';'\n\t\t\t\t\t\t\t'--Paths:#', colors[MapV1.Color_Path], ';'\n\t\t\t\t\t\t\t'--Player:#', colors[MapV1.Color_Player], ';'\n\t\t\t\t\t\t\t'--Gem:#', mapper.getGemColor(chamber.hoard.gemType), ';'\n\t\t\t\t\t\t'}'\n\t\t\t\t\t\t'svg{background-color:var(--Bg);}'\n\t\t\t\t\t\t'.Bg{fill:var(--Bg);}'\n\t\t\t\t\t\t'#Paths{fill:var(--Paths);}'\n\t\t\t\t\t\t'#Player{fill:var(--Player);visibility:hidden;}'\n\t\t\t\t\t\t'#Gem{fill:var(--Gem);}'\n\t\t\t\t\t'</style>'\n\t\t\t\t'</defs>'\n\t\t\t\t'<g>'\n\t\t\t\t\t'<rect class=\"Bg\" x=\"-2\" y=\"-2\" width=\"20\" height=\"20\"/>'\n\t\t\t\t\t'<rect id=\"Paths\" x=\"0\" y=\"0\" width=\"16\" height=\"16\"/>'\n\t\t\t\t\t'<rect id=\"Player\" x=\"', Crawl.toString(playerPos%16), '\" y=\"', Crawl.toString(playerPos/16), '\" width=\"1\" height=\"1\"/>'\n\t\t\t\t\t'<path id=\"Gem\" x=\"', Crawl.toString(chamber.gemPos%16), '\" y=\"', Crawl.toString(chamber.gemPos/16), '\" d=\"m ', Crawl.toString(chamber.gemPos%16), ' ', Crawl.toString(chamber.gemPos/16), '.5 l 0.5 0.5 l 0.5 -0.5 l -0.5 -0.5 Z\" />'\n\t\t\t\t'</g>'\n\t\t\t'</svg>'\n\t\t);\n\t}\n\n}\n",
  "sourcePath": "/Users/roger/Dev/Blockchain/Truffle/ec-crawler/contracts/limbo/LimboIndex.sol",
  "compiler": {
    "name": "solc",
    "version": "0.8.16+commit.07a7930e.Emscripten.clang"
  },
  "schemaVersion": "3.4.11",
  "updatedAt": "2022-12-05T23:24:08.617Z",
  "devdoc": {
    "kind": "dev",
    "methods": {
      "getChamberData(uint8,uint256,(uint256,uint256,uint232,uint8,uint8,uint8),bool)": {
        "returns": {
          "result": "Crawler.ChamberData struct"
        }
      },
      "getChamberGenerator()": {
        "returns": {
          "_0": "generator contract address"
        }
      },
      "getChamberMetadata(uint8,uint256,(uint256,uint256,uint232,uint8,uint8,uint8))": {
        "params": {
          "chamberSeed": "Chamber static data",
          "chapterNumber": "The Chapter number, or 0 for current chapter",
          "coord": "Chamber coordinate"
        },
        "returns": {
          "_0": "metadata Metadata, as plain json string"
        }
      },
      "getChapter(uint8)": {
        "returns": {
          "_0": "chapter Structure containing contract addresses"
        }
      },
      "getCurrentChapter()": {
        "returns": {
          "_0": "chapter Structure containing contract addresses"
        }
      },
      "getCurrentChapterNumber()": {
        "returns": {
          "_0": "chapterNumber"
        }
      },
      "getGenerator(uint8)": {
        "returns": {
          "_0": "generator contract address"
        }
      },
      "getMapMetadata(uint8,uint256,(uint256,uint256,uint232,uint8,uint8,uint8))": {
        "params": {
          "chamberSeed": "Chamber static data",
          "chapterNumber": "The Chapter number, or 0 for current chapter",
          "coord": "Chamber coordinate"
        },
        "returns": {
          "_0": "metadata Metadata, as plain json string"
        }
      },
      "getMapper(uint8)": {
        "returns": {
          "_0": "mapper contract address"
        }
      },
      "getRenderer(uint8)": {
        "returns": {
          "_0": "renderer contract address"
        }
      },
      "getTokenMetadata(uint8,uint256,(uint256,uint256,uint232,uint8,uint8,uint8))": {
        "params": {
          "chamberSeed": "Chamber static data",
          "chapterNumber": "The Chapter number, or 0 for current chapter",
          "coord": "Chamber coordinate"
        },
        "returns": {
          "_0": "metadata Metadata, as base64 json string"
        }
      },
      "owner()": {
        "details": "Returns the address of the current owner."
      },
      "renderAdditionalChamberMetadata((uint256,uint256,uint256,uint232,uint8,uint8,uint8,(uint8,uint16,uint16),uint8,uint8[4],uint8[4],uint256,bytes,(uint8,bytes)[]),address)": {
        "returns": {
          "_0": "metadata Metadata properties"
        }
      },
      "renderMapMetadata((uint256,uint256,uint256,uint232,uint8,uint8,uint8,(uint8,uint16,uint16),uint8,uint8[4],uint8[4],uint256,bytes,(uint8,bytes)[]),address)": {
        "params": {
          "chamber": "The Chamber, with maps",
          "mapper": "The ICrawlerMapper contract address"
        },
        "returns": {
          "_0": "metadata Metadata, as plain json string"
        }
      },
      "renderTokenMetadata((uint256,uint256,uint256,uint232,uint8,uint8,uint8,(uint8,uint16,uint16),uint8,uint8[4],uint8[4],uint256,bytes,(uint8,bytes)[]),address)": {
        "details": "Reference: https://docs.opensea.io/docs/metadata-standards",
        "params": {
          "chamber": "The Chamber, with maps",
          "mapper": "The ICrawlerMapper contract address"
        },
        "returns": {
          "_0": "metadata Metadata, as base64 json string"
        }
      },
      "renounceOwnership()": {
        "details": "Leaves the contract without owner. It will not be possible to call `onlyOwner` functions anymore. Can only be called by the current owner. NOTE: Renouncing ownership will leave the contract without an owner, thereby removing any functionality that is only available to the owner."
      },
      "supportsInterface(bytes4)": {
        "details": "implements IERC165"
      },
      "transferOwnership(address)": {
        "details": "Transfers ownership of the contract to a new account (`newOwner`). Can only be called by the current owner."
      }
    },
    "version": 1
  },
  "userdoc": {
    "kind": "user",
    "methods": {
      "getChamberGenerator()": {
        "notice": "Get the ICrawlerChamberGenerator contract"
      },
      "getChamberMetadata(uint8,uint256,(uint256,uint256,uint232,uint8,uint8,uint8))": {
        "notice": "Returns a Chamber metadata, without maps"
      },
      "getCurrentChapter()": {
        "notice": "Get them current Chapter contracts"
      },
      "getCurrentChapterNumber()": {
        "notice": "Get the current Chapter number"
      },
      "getMapMetadata(uint8,uint256,(uint256,uint256,uint232,uint8,uint8,uint8))": {
        "notice": "Returns the seed and tilemap of a Chamber, used for world building"
      },
      "getTokenMetadata(uint8,uint256,(uint256,uint256,uint232,uint8,uint8,uint8))": {
        "notice": "Returns IERC721Metadata compliant metadata, used by tokenURI()"
      },
      "renderMapMetadata((uint256,uint256,uint256,uint232,uint8,uint8,uint8,(uint8,uint16,uint16),uint8,uint8[4],uint8[4],uint256,bytes,(uint8,bytes)[]),address)": {
        "notice": "Returns the seed and tilemap of a Chamber, used for world building"
      },
      "renderTokenMetadata((uint256,uint256,uint256,uint232,uint8,uint8,uint8,(uint8,uint16,uint16),uint8,uint8[4],uint8[4],uint256,bytes,(uint8,bytes)[]),address)": {
        "notice": "Returns IERC721Metadata compliant metadata, used by tokenURI()"
      },
      "setTokenContract(address)": {
        "notice": "Admin function"
      },
      "setupChapter(address,address,address)": {
        "notice": "Admin function"
      }
    },
    "version": 1
  }
}