{
  "contractName": "LimboToken",
  "abi": [
    {
      "inputs": [
        {
          "internalType": "address",
          "name": "index",
          "type": "address"
        },
        {
          "internalType": "address",
          "name": "player",
          "type": "address"
        },
        {
          "internalType": "address",
          "name": "signer",
          "type": "address"
        }
      ],
      "stateMutability": "nonpayable",
      "type": "constructor"
    },
    {
      "inputs": [],
      "name": "DoorAlreadyUnlocked",
      "type": "error"
    },
    {
      "inputs": [],
      "name": "InvalidFromChamber",
      "type": "error"
    },
    {
      "inputs": [],
      "name": "InvalidSignature",
      "type": "error"
    },
    {
      "inputs": [
        {
          "internalType": "uint256",
          "name": "tokenId",
          "type": "uint256"
        }
      ],
      "name": "InvalidTokenId",
      "type": "error"
    },
    {
      "inputs": [
        {
          "internalType": "uint256",
          "name": "sent",
          "type": "uint256"
        },
        {
          "internalType": "uint256",
          "name": "minimum",
          "type": "uint256"
        }
      ],
      "name": "InvalidValue",
      "type": "error"
    },
    {
      "inputs": [],
      "name": "MintingIsPaused",
      "type": "error"
    },
    {
      "anonymous": false,
      "inputs": [
        {
          "indexed": true,
          "internalType": "address",
          "name": "owner",
          "type": "address"
        },
        {
          "indexed": true,
          "internalType": "address",
          "name": "approved",
          "type": "address"
        },
        {
          "indexed": true,
          "internalType": "uint256",
          "name": "tokenId",
          "type": "uint256"
        }
      ],
      "name": "Approval",
      "type": "event"
    },
    {
      "anonymous": false,
      "inputs": [
        {
          "indexed": true,
          "internalType": "address",
          "name": "owner",
          "type": "address"
        },
        {
          "indexed": true,
          "internalType": "address",
          "name": "operator",
          "type": "address"
        },
        {
          "indexed": false,
          "internalType": "bool",
          "name": "approved",
          "type": "bool"
        }
      ],
      "name": "ApprovalForAll",
      "type": "event"
    },
    {
      "anonymous": false,
      "inputs": [
        {
          "indexed": true,
          "internalType": "address",
          "name": "to",
          "type": "address"
        },
        {
          "indexed": true,
          "internalType": "uint256",
          "name": "tokenId",
          "type": "uint256"
        },
        {
          "indexed": true,
          "internalType": "uint256",
          "name": "coord",
          "type": "uint256"
        }
      ],
      "name": "Minted",
      "type": "event"
    },
    {
      "anonymous": false,
      "inputs": [
        {
          "indexed": true,
          "internalType": "address",
          "name": "previousOwner",
          "type": "address"
        },
        {
          "indexed": true,
          "internalType": "address",
          "name": "newOwner",
          "type": "address"
        }
      ],
      "name": "OwnershipTransferred",
      "type": "event"
    },
    {
      "anonymous": false,
      "inputs": [
        {
          "indexed": true,
          "internalType": "bool",
          "name": "paused",
          "type": "bool"
        }
      ],
      "name": "Paused",
      "type": "event"
    },
    {
      "anonymous": false,
      "inputs": [
        {
          "indexed": true,
          "internalType": "address",
          "name": "from",
          "type": "address"
        },
        {
          "indexed": true,
          "internalType": "address",
          "name": "to",
          "type": "address"
        },
        {
          "indexed": true,
          "internalType": "uint256",
          "name": "tokenId",
          "type": "uint256"
        }
      ],
      "name": "Transfer",
      "type": "event"
    },
    {
      "inputs": [],
      "name": "_index",
      "outputs": [
        {
          "internalType": "contract ICrawlerIndex",
          "name": "",
          "type": "address"
        }
      ],
      "stateMutability": "view",
      "type": "function"
    },
    {
      "inputs": [],
      "name": "_player",
      "outputs": [
        {
          "internalType": "contract ICrawlerPlayer",
          "name": "",
          "type": "address"
        }
      ],
      "stateMutability": "view",
      "type": "function"
    },
    {
      "inputs": [
        {
          "internalType": "address",
          "name": "to",
          "type": "address"
        },
        {
          "internalType": "uint256",
          "name": "tokenId",
          "type": "uint256"
        }
      ],
      "name": "approve",
      "outputs": [],
      "stateMutability": "nonpayable",
      "type": "function"
    },
    {
      "inputs": [
        {
          "internalType": "address",
          "name": "owner",
          "type": "address"
        }
      ],
      "name": "balanceOf",
      "outputs": [
        {
          "internalType": "uint256",
          "name": "",
          "type": "uint256"
        }
      ],
      "stateMutability": "view",
      "type": "function"
    },
    {
      "inputs": [
        {
          "internalType": "uint256",
          "name": "tokenId",
          "type": "uint256"
        }
      ],
      "name": "getApproved",
      "outputs": [
        {
          "internalType": "address",
          "name": "",
          "type": "address"
        }
      ],
      "stateMutability": "view",
      "type": "function"
    },
    {
      "inputs": [
        {
          "internalType": "address",
          "name": "owner",
          "type": "address"
        },
        {
          "internalType": "address",
          "name": "operator",
          "type": "address"
        }
      ],
      "name": "isApprovedForAll",
      "outputs": [
        {
          "internalType": "bool",
          "name": "",
          "type": "bool"
        }
      ],
      "stateMutability": "view",
      "type": "function"
    },
    {
      "inputs": [],
      "name": "name",
      "outputs": [
        {
          "internalType": "string",
          "name": "",
          "type": "string"
        }
      ],
      "stateMutability": "view",
      "type": "function"
    },
    {
      "inputs": [],
      "name": "owner",
      "outputs": [
        {
          "internalType": "address",
          "name": "",
          "type": "address"
        }
      ],
      "stateMutability": "view",
      "type": "function"
    },
    {
      "inputs": [
        {
          "internalType": "uint256",
          "name": "tokenId",
          "type": "uint256"
        }
      ],
      "name": "ownerOf",
      "outputs": [
        {
          "internalType": "address",
          "name": "",
          "type": "address"
        }
      ],
      "stateMutability": "view",
      "type": "function"
    },
    {
      "inputs": [],
      "name": "renounceOwnership",
      "outputs": [],
      "stateMutability": "nonpayable",
      "type": "function"
    },
    {
      "inputs": [
        {
          "internalType": "address",
          "name": "from",
          "type": "address"
        },
        {
          "internalType": "address",
          "name": "to",
          "type": "address"
        },
        {
          "internalType": "uint256",
          "name": "tokenId",
          "type": "uint256"
        }
      ],
      "name": "safeTransferFrom",
      "outputs": [],
      "stateMutability": "nonpayable",
      "type": "function"
    },
    {
      "inputs": [
        {
          "internalType": "address",
          "name": "from",
          "type": "address"
        },
        {
          "internalType": "address",
          "name": "to",
          "type": "address"
        },
        {
          "internalType": "uint256",
          "name": "tokenId",
          "type": "uint256"
        },
        {
          "internalType": "bytes",
          "name": "data",
          "type": "bytes"
        }
      ],
      "name": "safeTransferFrom",
      "outputs": [],
      "stateMutability": "nonpayable",
      "type": "function"
    },
    {
      "inputs": [
        {
          "internalType": "address",
          "name": "operator",
          "type": "address"
        },
        {
          "internalType": "bool",
          "name": "approved",
          "type": "bool"
        }
      ],
      "name": "setApprovalForAll",
      "outputs": [],
      "stateMutability": "nonpayable",
      "type": "function"
    },
    {
      "inputs": [],
      "name": "symbol",
      "outputs": [
        {
          "internalType": "string",
          "name": "",
          "type": "string"
        }
      ],
      "stateMutability": "view",
      "type": "function"
    },
    {
      "inputs": [
        {
          "internalType": "uint256",
          "name": "index",
          "type": "uint256"
        }
      ],
      "name": "tokenByIndex",
      "outputs": [
        {
          "internalType": "uint256",
          "name": "",
          "type": "uint256"
        }
      ],
      "stateMutability": "view",
      "type": "function"
    },
    {
      "inputs": [
        {
          "internalType": "address",
          "name": "owner",
          "type": "address"
        },
        {
          "internalType": "uint256",
          "name": "index",
          "type": "uint256"
        }
      ],
      "name": "tokenOfOwnerByIndex",
      "outputs": [
        {
          "internalType": "uint256",
          "name": "",
          "type": "uint256"
        }
      ],
      "stateMutability": "view",
      "type": "function"
    },
    {
      "inputs": [],
      "name": "totalSupply",
      "outputs": [
        {
          "internalType": "uint256",
          "name": "",
          "type": "uint256"
        }
      ],
      "stateMutability": "view",
      "type": "function"
    },
    {
      "inputs": [
        {
          "internalType": "address",
          "name": "from",
          "type": "address"
        },
        {
          "internalType": "address",
          "name": "to",
          "type": "address"
        },
        {
          "internalType": "uint256",
          "name": "tokenId",
          "type": "uint256"
        }
      ],
      "name": "transferFrom",
      "outputs": [],
      "stateMutability": "nonpayable",
      "type": "function"
    },
    {
      "inputs": [
        {
          "internalType": "address",
          "name": "newOwner",
          "type": "address"
        }
      ],
      "name": "transferOwnership",
      "outputs": [],
      "stateMutability": "nonpayable",
      "type": "function"
    },
    {
      "inputs": [
        {
          "internalType": "bytes4",
          "name": "interfaceId",
          "type": "bytes4"
        }
      ],
      "name": "supportsInterface",
      "outputs": [
        {
          "internalType": "bool",
          "name": "",
          "type": "bool"
        }
      ],
      "stateMutability": "view",
      "type": "function"
    },
    {
      "inputs": [],
      "name": "_totalSupply",
      "outputs": [
        {
          "internalType": "uint256",
          "name": "",
          "type": "uint256"
        }
      ],
      "stateMutability": "view",
      "type": "function"
    },
    {
      "inputs": [
        {
          "internalType": "address",
          "name": "index_",
          "type": "address"
        }
      ],
      "name": "setIndexContract",
      "outputs": [],
      "stateMutability": "nonpayable",
      "type": "function"
    },
    {
      "inputs": [
        {
          "internalType": "address",
          "name": "player_",
          "type": "address"
        }
      ],
      "name": "sePlayerContract",
      "outputs": [],
      "stateMutability": "nonpayable",
      "type": "function"
    },
    {
      "inputs": [
        {
          "internalType": "address",
          "name": "signer_",
          "type": "address"
        }
      ],
      "name": "setSigner",
      "outputs": [],
      "stateMutability": "nonpayable",
      "type": "function"
    },
    {
      "inputs": [
        {
          "internalType": "uint256",
          "name": "priceInPwei_",
          "type": "uint256"
        },
        {
          "internalType": "uint256",
          "name": "maxPriceInPwei_",
          "type": "uint256"
        }
      ],
      "name": "setPrice",
      "outputs": [],
      "stateMutability": "nonpayable",
      "type": "function"
    },
    {
      "inputs": [
        {
          "internalType": "bool",
          "name": "paused_",
          "type": "bool"
        }
      ],
      "name": "setPaused",
      "outputs": [],
      "stateMutability": "nonpayable",
      "type": "function"
    },
    {
      "inputs": [
        {
          "internalType": "uint256",
          "name": "eth",
          "type": "uint256"
        }
      ],
      "name": "checkout",
      "outputs": [],
      "stateMutability": "nonpayable",
      "type": "function"
    },
    {
      "inputs": [],
      "name": "isPaused",
      "outputs": [
        {
          "internalType": "bool",
          "name": "",
          "type": "bool"
        }
      ],
      "stateMutability": "view",
      "type": "function"
    },
    {
      "inputs": [],
      "name": "getPrices",
      "outputs": [
        {
          "internalType": "uint256",
          "name": "",
          "type": "uint256"
        },
        {
          "internalType": "uint256",
          "name": "",
          "type": "uint256"
        }
      ],
      "stateMutability": "view",
      "type": "function"
    },
    {
      "inputs": [
        {
          "internalType": "address",
          "name": "to",
          "type": "address"
        }
      ],
      "name": "calculateMintPrice",
      "outputs": [
        {
          "internalType": "uint256",
          "name": "",
          "type": "uint256"
        }
      ],
      "stateMutability": "view",
      "type": "function"
    },
    {
      "inputs": [
        {
          "internalType": "uint256",
          "name": "tokenId",
          "type": "uint256"
        }
      ],
      "name": "tokenIdToCoord",
      "outputs": [
        {
          "internalType": "uint256",
          "name": "",
          "type": "uint256"
        }
      ],
      "stateMutability": "view",
      "type": "function"
    },
    {
      "inputs": [
        {
          "internalType": "uint256",
          "name": "coord",
          "type": "uint256"
        }
      ],
      "name": "coordToSeed",
      "outputs": [
        {
          "components": [
            {
              "internalType": "uint256",
              "name": "tokenId",
              "type": "uint256"
            },
            {
              "internalType": "uint256",
              "name": "seed",
              "type": "uint256"
            },
            {
              "internalType": "uint232",
              "name": "yonder",
              "type": "uint232"
            },
            {
              "internalType": "uint8",
              "name": "chapter",
              "type": "uint8"
            },
            {
              "internalType": "enum Crawl.Terrain",
              "name": "terrain",
              "type": "uint8"
            },
            {
              "internalType": "enum Crawl.Dir",
              "name": "entryDir",
              "type": "uint8"
            }
          ],
          "internalType": "struct Crawl.ChamberSeed",
          "name": "",
          "type": "tuple"
        }
      ],
      "stateMutability": "view",
      "type": "function"
    },
    {
      "inputs": [
        {
          "internalType": "uint8",
          "name": "chapterNumber",
          "type": "uint8"
        },
        {
          "internalType": "uint256",
          "name": "coord",
          "type": "uint256"
        },
        {
          "internalType": "bool",
          "name": "generateMaps",
          "type": "bool"
        }
      ],
      "name": "coordToChamberData",
      "outputs": [
        {
          "components": [
            {
              "internalType": "uint256",
              "name": "coord",
              "type": "uint256"
            },
            {
              "internalType": "uint256",
              "name": "tokenId",
              "type": "uint256"
            },
            {
              "internalType": "uint256",
              "name": "seed",
              "type": "uint256"
            },
            {
              "internalType": "uint232",
              "name": "yonder",
              "type": "uint232"
            },
            {
              "internalType": "uint8",
              "name": "chapter",
              "type": "uint8"
            },
            {
              "internalType": "enum Crawl.Terrain",
              "name": "terrain",
              "type": "uint8"
            },
            {
              "internalType": "enum Crawl.Dir",
              "name": "entryDir",
              "type": "uint8"
            },
            {
              "components": [
                {
                  "internalType": "enum Crawl.Gem",
                  "name": "gemType",
                  "type": "uint8"
                },
                {
                  "internalType": "uint16",
                  "name": "coins",
                  "type": "uint16"
                },
                {
                  "internalType": "uint16",
                  "name": "worth",
                  "type": "uint16"
                }
              ],
              "internalType": "struct Crawl.Hoard",
              "name": "hoard",
              "type": "tuple"
            },
            {
              "internalType": "uint8",
              "name": "gemPos",
              "type": "uint8"
            },
            {
              "internalType": "uint8[4]",
              "name": "doors",
              "type": "uint8[4]"
            },
            {
              "internalType": "uint8[4]",
              "name": "locks",
              "type": "uint8[4]"
            },
            {
              "internalType": "uint256",
              "name": "bitmap",
              "type": "uint256"
            },
            {
              "internalType": "bytes",
              "name": "tilemap",
              "type": "bytes"
            },
            {
              "components": [
                {
                  "internalType": "enum Crawl.CustomDataType",
                  "name": "dataType",
                  "type": "uint8"
                },
                {
                  "internalType": "bytes",
                  "name": "data",
                  "type": "bytes"
                }
              ],
              "internalType": "struct Crawl.CustomData[]",
              "name": "customData",
              "type": "tuple[]"
            }
          ],
          "internalType": "struct Crawl.ChamberData",
          "name": "result",
          "type": "tuple"
        }
      ],
      "stateMutability": "view",
      "type": "function"
    },
    {
      "inputs": [
        {
          "internalType": "uint256",
          "name": "tokenId",
          "type": "uint256"
        }
      ],
      "name": "tokenIdToHoard",
      "outputs": [
        {
          "components": [
            {
              "internalType": "enum Crawl.Gem",
              "name": "gemType",
              "type": "uint8"
            },
            {
              "internalType": "uint16",
              "name": "coins",
              "type": "uint16"
            },
            {
              "internalType": "uint16",
              "name": "worth",
              "type": "uint16"
            }
          ],
          "internalType": "struct Crawl.Hoard",
          "name": "",
          "type": "tuple"
        }
      ],
      "stateMutability": "view",
      "type": "function"
    },
    {
      "inputs": [
        {
          "internalType": "uint256",
          "name": "fromCoord",
          "type": "uint256"
        },
        {
          "internalType": "enum Crawl.Dir",
          "name": "dir",
          "type": "uint8"
        },
        {
          "internalType": "bytes",
          "name": "signature",
          "type": "bytes"
        }
      ],
      "name": "mintDoor",
      "outputs": [
        {
          "internalType": "uint256",
          "name": "",
          "type": "uint256"
        }
      ],
      "stateMutability": "payable",
      "type": "function"
    },
    {
      "inputs": [
        {
          "internalType": "uint256",
          "name": "tokenId",
          "type": "uint256"
        }
      ],
      "name": "tokenURI",
      "outputs": [
        {
          "internalType": "string",
          "name": "",
          "type": "string"
        }
      ],
      "stateMutability": "view",
      "type": "function"
    },
    {
      "inputs": [
        {
          "internalType": "uint8",
          "name": "chapterNumber",
          "type": "uint8"
        },
        {
          "internalType": "uint256",
          "name": "coord",
          "type": "uint256"
        }
      ],
      "name": "getTokenMetadata",
      "outputs": [
        {
          "internalType": "string",
          "name": "",
          "type": "string"
        }
      ],
      "stateMutability": "view",
      "type": "function"
    },
    {
      "inputs": [
        {
          "internalType": "uint8",
          "name": "chapterNumber",
          "type": "uint8"
        },
        {
          "internalType": "uint256",
          "name": "coord",
          "type": "uint256"
        }
      ],
      "name": "getChamberMetadata",
      "outputs": [
        {
          "internalType": "string",
          "name": "",
          "type": "string"
        }
      ],
      "stateMutability": "view",
      "type": "function"
    },
    {
      "inputs": [
        {
          "internalType": "uint8",
          "name": "chapterNumber",
          "type": "uint8"
        },
        {
          "internalType": "uint256",
          "name": "coord",
          "type": "uint256"
        }
      ],
      "name": "getMapMetadata",
      "outputs": [
        {
          "internalType": "string",
          "name": "",
          "type": "string"
        }
      ],
      "stateMutability": "view",
      "type": "function"
    }
  ],
  "bytecode": "0x6080604052600a600d55600a600e556001600f60006101000a81548160ff0219169083151502179055503480156200003657600080fd5b5060405162007f9038038062007f9083398181016040528101906200005c9190620013fc565b6040518060400160405280600f81526020017f456e646c65737320437261776c657200000000000000000000000000000000008152506040518060400160405280600581526020017f4352574c520000000000000000000000000000000000000000000000000000008152508160009081620000d99190620016d2565b508060019081620000eb9190620016d2565b5050506200010e62000102620001f560201b60201c565b620001fd60201b60201c565b6200011f83620002c360201b60201c565b62000130826200031760201b60201c565b62000141816200036b60201b60201c565b62000160680100000000000000016001806001620003bf60201b60201c565b50620001917801000000000000000000000000000000010000000000000000600160026003620003bf60201b60201c565b50620001c27801000000000000000100000000000000000000000000000000600160036002620003bf60201b60201c565b50620001eb700100000000000000000000000000000001600160046000620003bf60201b60201c565b5050505062002094565b600033905090565b6000600860009054906101000a900473ffffffffffffffffffffffffffffffffffffffff16905081600860006101000a81548173ffffffffffffffffffffffffffffffffffffffff021916908373ffffffffffffffffffffffffffffffffffffffff1602179055508173ffffffffffffffffffffffffffffffffffffffff168173ffffffffffffffffffffffffffffffffffffffff167f8be0079c531659141344cd1fd0a4f28419497f9722a3daafe3b4186f6b6457e060405160405180910390a35050565b620002d3620006af60201b60201c565b80600960006101000a81548173ffffffffffffffffffffffffffffffffffffffff021916908373ffffffffffffffffffffffffffffffffffffffff16021790555050565b62000327620006af60201b60201c565b80600a60006101000a81548173ffffffffffffffffffffffffffffffffffffffff021916908373ffffffffffffffffffffffffffffffffffffffff16021790555050565b6200037b620006af60201b60201c565b80600b60006101000a81548173ffffffffffffffffffffffffffffffffffffffff021916908373ffffffffffffffffffffffffffffffffffffffff16021790555050565b6000806001600c54620003d39190620017e8565b90506000600143620003e6919062001823565b4082604051602001620003fb929190620018b2565b6040516020818303038152906040528051906020012060001c90508660106000848152602001908152602001600020819055506040518060c00160405280838152602001828152602001877cffffffffffffffffffffffffffffffffffffffffffffffffffffffffff168152602001600960009054906101000a900473ffffffffffffffffffffffffffffffffffffffff1673ffffffffffffffffffffffffffffffffffffffff16638e3b60a06040518163ffffffff1660e01b8152600401602060405180830381865afa158015620004d8573d6000803e3d6000fd5b505050506040513d601f19601f82011682018060405250810190620004fe919062001920565b60ff1681526020018660048111156200051c576200051b62001952565b5b815260200185600381111562000537576200053662001952565b5b81525060116000898152602001908152602001600020600082015181600001556020820151816001015560408201518160020160006101000a8154817cffffffffffffffffffffffffffffffffffffffffffffffffffffffffff02191690837cffffffffffffffffffffffffffffffffffffffffffffffffffffffffff160217905550606082015181600201601d6101000a81548160ff021916908360ff160217905550608082015181600201601e6101000a81548160ff0219169083600481111562000609576200060862001952565b5b021790555060a082015181600201601f6101000a81548160ff021916908360038111156200063c576200063b62001952565b5b02179055509050506200065633836200074060201b60201c565b86823373ffffffffffffffffffffffffffffffffffffffff167f25b428dfde728ccfaddad7e29e4ac23c24ed7fd1a6e3e3f91894a9a073f5dfff60405160405180910390a481600c819055508192505050949350505050565b620006bf620001f560201b60201c565b73ffffffffffffffffffffffffffffffffffffffff16620006e56200076660201b60201c565b73ffffffffffffffffffffffffffffffffffffffff16146200073e576040517f08c379a00000000000000000000000000000000000000000000000000000000081526004016200073590620019e2565b60405180910390fd5b565b620007628282604051806020016040528060008152506200079060201b60201c565b5050565b6000600860009054906101000a900473ffffffffffffffffffffffffffffffffffffffff16905090565b620007a28383620007fe60201b60201c565b620007b7600084848462000a4460201b60201c565b620007f9576040517f08c379a0000000000000000000000000000000000000000000000000000000008152600401620007f09062001a7a565b60405180910390fd5b505050565b600073ffffffffffffffffffffffffffffffffffffffff168273ffffffffffffffffffffffffffffffffffffffff160362000870576040517f08c379a0000000000000000000000000000000000000000000000000000000008152600401620008679062001aec565b60405180910390fd5b620008818162000bed60201b60201c565b15620008c4576040517f08c379a0000000000000000000000000000000000000000000000000000000008152600401620008bb9062001b5e565b60405180910390fd5b620008da60008383600162000c3660201b60201c565b620008eb8162000bed60201b60201c565b156200092e576040517f08c379a0000000000000000000000000000000000000000000000000000000008152600401620009259062001b5e565b60405180910390fd5b6001600360008473ffffffffffffffffffffffffffffffffffffffff1673ffffffffffffffffffffffffffffffffffffffff16815260200190815260200160002060008282540192505081905550816002600083815260200190815260200160002060006101000a81548173ffffffffffffffffffffffffffffffffffffffff021916908373ffffffffffffffffffffffffffffffffffffffff160217905550808273ffffffffffffffffffffffffffffffffffffffff16600073ffffffffffffffffffffffffffffffffffffffff167fddf252ad1be2c89b69c2b068fc378daa952ba7f163c4a11628f55a4df523b3ef60405160405180910390a462000a4060008383600162000cfa60201b60201c565b5050565b600062000a728473ffffffffffffffffffffffffffffffffffffffff1662000d0060201b62001f071760201c565b1562000be0578373ffffffffffffffffffffffffffffffffffffffff1663150b7a0262000aa4620001f560201b60201c565b8786866040518563ffffffff1660e01b815260040162000ac8949392919062001c3c565b6020604051808303816000875af192505050801562000b0757506040513d601f19601f8201168201806040525081019062000b04919062001ced565b60015b62000b8f573d806000811462000b3a576040519150601f19603f3d011682016040523d82523d6000602084013e62000b3f565b606091505b50600081510362000b87576040517f08c379a000000000000000000000000000000000000000000000000000000000815260040162000b7e9062001a7a565b60405180910390fd5b805181602001fd5b63150b7a0260e01b7bffffffffffffffffffffffffffffffffffffffffffffffffffffffff1916817bffffffffffffffffffffffffffffffffffffffffffffffffffffffff19161491505062000be5565b600190505b949350505050565b60008073ffffffffffffffffffffffffffffffffffffffff1662000c178362000d2360201b60201c565b73ffffffffffffffffffffffffffffffffffffffff1614159050919050565b600a60009054906101000a900473ffffffffffffffffffffffffffffffffffffffff1673ffffffffffffffffffffffffffffffffffffffff16636a71cb53858562000c878662000d6060201b60201c565b6040518463ffffffff1660e01b815260040162000ca79392919062001dd7565b600060405180830381600087803b15801562000cc257600080fd5b505af115801562000cd7573d6000803e3d6000fd5b5050505062000cf48484848462000eac60201b62001f2a1760201c565b50505050565b50505050565b6000808273ffffffffffffffffffffffffffffffffffffffff163b119050919050565b60006002600083815260200190815260200160002060009054906101000a900473ffffffffffffffffffffffffffffffffffffffff169050919050565b62000d6a6200134a565b600960009054906101000a900473ffffffffffffffffffffffffffffffffffffffff1673ffffffffffffffffffffffffffffffffffffffff1663cff270eb6040518163ffffffff1660e01b8152600401602060405180830381865afa15801562000dd8573d6000803e3d6000fd5b505050506040513d601f19601f8201168201806040525081019062000dfe919062001e59565b73ffffffffffffffffffffffffffffffffffffffff16633d3114de6011600060106000878152602001908152602001600020548152602001908152602001600020600101546040518263ffffffff1660e01b815260040162000e61919062001e8b565b606060405180830381865afa15801562000e7f573d6000803e3d6000fd5b505050506040513d601f19601f8201168201806040525081019062000ea5919062001fca565b9050919050565b62000ec58484848462000f5a60201b62001fb91760201c565b8373ffffffffffffffffffffffffffffffffffffffff168373ffffffffffffffffffffffffffffffffffffffff161462000f5457600073ffffffffffffffffffffffffffffffffffffffff168473ffffffffffffffffffffffffffffffffffffffff161462000f415762000f4084836200108760201b60201c565b5b62000f5383836200120460201b60201c565b5b50505050565b60018111156200108157600073ffffffffffffffffffffffffffffffffffffffff168473ffffffffffffffffffffffffffffffffffffffff161462000ff25780600360008673ffffffffffffffffffffffffffffffffffffffff1673ffffffffffffffffffffffffffffffffffffffff168152602001908152602001600020600082825462000fea919062001823565b925050819055505b600073ffffffffffffffffffffffffffffffffffffffff168373ffffffffffffffffffffffffffffffffffffffff1614620010805780600360008573ffffffffffffffffffffffffffffffffffffffff1673ffffffffffffffffffffffffffffffffffffffff1681526020019081526020016000206000828254620010789190620017e8565b925050819055505b5b50505050565b60006001620010a1846200129060201b6200155e1760201c565b620010ad919062001823565b905060006007600084815260200190815260200160002054905081811462001193576000600660008673ffffffffffffffffffffffffffffffffffffffff1673ffffffffffffffffffffffffffffffffffffffff168152602001908152602001600020600084815260200190815260200160002054905080600660008773ffffffffffffffffffffffffffffffffffffffff1673ffffffffffffffffffffffffffffffffffffffff168152602001908152602001600020600084815260200190815260200160002081905550816007600083815260200190815260200160002081905550505b6007600084815260200190815260200160002060009055600660008573ffffffffffffffffffffffffffffffffffffffff1673ffffffffffffffffffffffffffffffffffffffff16815260200190815260200160002060008381526020019081526020016000206000905550505050565b60006200121c836200129060201b6200155e1760201c565b905081600660008573ffffffffffffffffffffffffffffffffffffffff1673ffffffffffffffffffffffffffffffffffffffff168152602001908152602001600020600083815260200190815260200160002081905550806007600084815260200190815260200160002081905550505050565b60008073ffffffffffffffffffffffffffffffffffffffff168273ffffffffffffffffffffffffffffffffffffffff160362001303576040517f08c379a0000000000000000000000000000000000000000000000000000000008152600401620012fa9062002072565b60405180910390fd5b600360008373ffffffffffffffffffffffffffffffffffffffff1673ffffffffffffffffffffffffffffffffffffffff168152602001908152602001600020549050919050565b6040518060600160405280600060088111156200136c576200136b62001952565b5b8152602001600061ffff168152602001600061ffff1681525090565b6000604051905090565b600080fd5b600073ffffffffffffffffffffffffffffffffffffffff82169050919050565b6000620013c48262001397565b9050919050565b620013d681620013b7565b8114620013e257600080fd5b50565b600081519050620013f681620013cb565b92915050565b60008060006060848603121562001418576200141762001392565b5b60006200142886828701620013e5565b93505060206200143b86828701620013e5565b92505060406200144e86828701620013e5565b9150509250925092565b600081519050919050565b7f4e487b7100000000000000000000000000000000000000000000000000000000600052604160045260246000fd5b7f4e487b7100000000000000000000000000000000000000000000000000000000600052602260045260246000fd5b60006002820490506001821680620014da57607f821691505b602082108103620014f057620014ef62001492565b5b50919050565b60008190508160005260206000209050919050565b60006020601f8301049050919050565b600082821b905092915050565b6000600883026200155a7fffffffffffffffffffffffffffffffffffffffffffffffffffffffffffffffff826200151b565b6200156686836200151b565b95508019841693508086168417925050509392505050565b6000819050919050565b6000819050919050565b6000620015b3620015ad620015a7846200157e565b62001588565b6200157e565b9050919050565b6000819050919050565b620015cf8362001592565b620015e7620015de82620015ba565b84845462001528565b825550505050565b600090565b620015fe620015ef565b6200160b818484620015c4565b505050565b5b81811015620016335762001627600082620015f4565b60018101905062001611565b5050565b601f82111562001682576200164c81620014f6565b62001657846200150b565b8101602085101562001667578190505b6200167f62001676856200150b565b83018262001610565b50505b505050565b600082821c905092915050565b6000620016a76000198460080262001687565b1980831691505092915050565b6000620016c2838362001694565b9150826002028217905092915050565b620016dd8262001458565b67ffffffffffffffff811115620016f957620016f862001463565b5b620017058254620014c1565b6200171282828562001637565b600060209050601f8311600181146200174a576000841562001735578287015190505b620017418582620016b4565b865550620017b1565b601f1984166200175a86620014f6565b60005b8281101562001784578489015182556001820191506020850194506020810190506200175d565b86831015620017a45784890151620017a0601f89168262001694565b8355505b6001600288020188555050505b505050505050565b7f4e487b7100000000000000000000000000000000000000000000000000000000600052601160045260246000fd5b6000620017f5826200157e565b915062001802836200157e565b92508282019050808211156200181d576200181c620017b9565b5b92915050565b600062001830826200157e565b91506200183d836200157e565b9250828203905081811115620018585762001857620017b9565b5b92915050565b6000819050919050565b6000819050919050565b6200188762001881826200185e565b62001868565b82525050565b6000819050919050565b620018ac620018a6826200157e565b6200188d565b82525050565b6000620018c0828562001872565b602082019150620018d2828462001897565b6020820191508190509392505050565b600060ff82169050919050565b620018fa81620018e2565b81146200190657600080fd5b50565b6000815190506200191a81620018ef565b92915050565b60006020828403121562001939576200193862001392565b5b6000620019498482850162001909565b91505092915050565b7f4e487b7100000000000000000000000000000000000000000000000000000000600052602160045260246000fd5b600082825260208201905092915050565b7f4f776e61626c653a2063616c6c6572206973206e6f7420746865206f776e6572600082015250565b6000620019ca60208362001981565b9150620019d78262001992565b602082019050919050565b60006020820190508181036000830152620019fd81620019bb565b9050919050565b7f4552433732313a207472616e7366657220746f206e6f6e20455243373231526560008201527f63656976657220696d706c656d656e7465720000000000000000000000000000602082015250565b600062001a6260328362001981565b915062001a6f8262001a04565b604082019050919050565b6000602082019050818103600083015262001a958162001a53565b9050919050565b7f4552433732313a206d696e7420746f20746865207a65726f2061646472657373600082015250565b600062001ad460208362001981565b915062001ae18262001a9c565b602082019050919050565b6000602082019050818103600083015262001b078162001ac5565b9050919050565b7f4552433732313a20746f6b656e20616c7265616479206d696e74656400000000600082015250565b600062001b46601c8362001981565b915062001b538262001b0e565b602082019050919050565b6000602082019050818103600083015262001b798162001b37565b9050919050565b62001b8b81620013b7565b82525050565b62001b9c816200157e565b82525050565b600081519050919050565b600082825260208201905092915050565b60005b8381101562001bde57808201518184015260208101905062001bc1565b60008484015250505050565b6000601f19601f8301169050919050565b600062001c088262001ba2565b62001c14818562001bad565b935062001c2681856020860162001bbe565b62001c318162001bea565b840191505092915050565b600060808201905062001c53600083018762001b80565b62001c62602083018662001b80565b62001c71604083018562001b91565b818103606083015262001c85818462001bfb565b905095945050505050565b60007fffffffff0000000000000000000000000000000000000000000000000000000082169050919050565b62001cc78162001c90565b811462001cd357600080fd5b50565b60008151905062001ce78162001cbc565b92915050565b60006020828403121562001d065762001d0562001392565b5b600062001d168482850162001cd6565b91505092915050565b6009811062001d335762001d3262001952565b5b50565b600081905062001d468262001d1f565b919050565b600062001d588262001d36565b9050919050565b62001d6a8162001d4b565b82525050565b600061ffff82169050919050565b62001d898162001d70565b82525050565b60608201600082015162001da7600085018262001d5f565b50602082015162001dbc602085018262001d7e565b50604082015162001dd1604085018262001d7e565b50505050565b600060a08201905062001dee600083018662001b80565b62001dfd602083018562001b80565b62001e0c604083018462001d8f565b949350505050565b600062001e2182620013b7565b9050919050565b62001e338162001e14565b811462001e3f57600080fd5b50565b60008151905062001e538162001e28565b92915050565b60006020828403121562001e725762001e7162001392565b5b600062001e828482850162001e42565b91505092915050565b600060208201905062001ea2600083018462001b91565b92915050565b600080fd5b62001eb88262001bea565b810181811067ffffffffffffffff8211171562001eda5762001ed962001463565b5b80604052505050565b600062001eef62001388565b905062001efd828262001ead565b919050565b6009811062001f1057600080fd5b50565b60008151905062001f248162001f02565b92915050565b62001f358162001d70565b811462001f4157600080fd5b50565b60008151905062001f558162001f2a565b92915050565b60006060828403121562001f745762001f7362001ea8565b5b62001f80606062001ee3565b9050600062001f928482850162001f13565b600083015250602062001fa88482850162001f44565b602083015250604062001fbe8482850162001f44565b60408301525092915050565b60006060828403121562001fe35762001fe262001392565b5b600062001ff38482850162001f5b565b91505092915050565b7f4552433732313a2061646472657373207a65726f206973206e6f74206120766160008201527f6c6964206f776e65720000000000000000000000000000000000000000000000602082015250565b60006200205a60298362001981565b9150620020678262001ffc565b604082019050919050565b600060208201905081810360008301526200208d816200204b565b9050919050565b615eec80620020a46000396000f3fe6080604052600436106102305760003560e01c8063715018a61161012e578063c4b2eaac116100ab578063e985e9c51161006f578063e985e9c5146108c7578063ebda839314610904578063ed62c7971461092d578063f2fde38b1461096a578063f7d975771461099357610230565b8063c4b2eaac14610796578063c87b56dd146107d3578063d085e7c114610810578063dc865ba51461084d578063e5e7fdfa1461088a57610230565b806395d89b41116100f257806395d89b41146106c2578063a22cb465146106ed578063b187bd2614610716578063b88d4fde14610741578063bd9a548b1461076a57610230565b8063715018a6146105db578063831e1907146105f25780638525a5d91461062f5780638da5cb5b1461066c5780638f7d62781461069757610230565b80632cd23784116101bc5780634f6ccce7116101805780634f6ccce7146104cb578063601bd2a5146105085780636352211e146105385780636c19e7831461057557806370a082311461059e57610230565b80632cd23784146103e85780632f745c59146104115780633eaaf86b1461044e57806342842e0e146104795780634c9ba852146104a257610230565b8063095ea7b311610203578063095ea7b31461030557806316c38b3c1461032e57806318160ddd1461035757806323b872dd1461038257806324e6df79146103ab57610230565b8063018610801461023557806301ffc9a71461026057806306fdde031461029d578063081812fc146102c8575b600080fd5b34801561024157600080fd5b5061024a6109bc565b60405161025791906139c8565b60405180910390f35b34801561026c57600080fd5b5061028760048036038101906102829190613a4f565b6109e2565b6040516102949190613a97565b60405180910390f35b3480156102a957600080fd5b506102b26109f4565b6040516102bf9190613b42565b60405180910390f35b3480156102d457600080fd5b506102ef60048036038101906102ea9190613b9a565b610a86565b6040516102fc9190613be8565b60405180910390f35b34801561031157600080fd5b5061032c60048036038101906103279190613c2f565b610acc565b005b34801561033a57600080fd5b5061035560048036038101906103509190613c9b565b610be3565b005b34801561036357600080fd5b5061036c610c46565b6040516103799190613cd7565b60405180910390f35b34801561038e57600080fd5b506103a960048036038101906103a49190613cf2565b610c55565b005b3480156103b757600080fd5b506103d260048036038101906103cd9190613d7e565b610cb5565b6040516103df9190613b42565b60405180910390f35b3480156103f457600080fd5b5061040f600480360381019061040a9190613dbe565b610d76565b005b34801561041d57600080fd5b5061043860048036038101906104339190613c2f565b610dc2565b6040516104459190613cd7565b60405180910390f35b34801561045a57600080fd5b50610463610e67565b6040516104709190613cd7565b60405180910390f35b34801561048557600080fd5b506104a0600480360381019061049b9190613cf2565b610e71565b005b3480156104ae57600080fd5b506104c960048036038101906104c49190613b9a565b610e91565b005b3480156104d757600080fd5b506104f260048036038101906104ed9190613b9a565b610eff565b6040516104ff9190613cd7565b60405180910390f35b610522600480360381019061051d9190613e75565b610f65565b60405161052f9190613cd7565b60405180910390f35b34801561054457600080fd5b5061055f600480360381019061055a9190613b9a565b61148c565b60405161056c9190613be8565b60405180910390f35b34801561058157600080fd5b5061059c60048036038101906105979190613dbe565b611512565b005b3480156105aa57600080fd5b506105c560048036038101906105c09190613dbe565b61155e565b6040516105d29190613cd7565b60405180910390f35b3480156105e757600080fd5b506105f0611615565b005b3480156105fe57600080fd5b5061061960048036038101906106149190613b9a565b611629565b6040516106269190613fbf565b60405180910390f35b34801561063b57600080fd5b5061065660048036038101906106519190613d7e565b61176b565b6040516106639190613b42565b60405180910390f35b34801561067857600080fd5b5061068161182c565b60405161068e9190613be8565b60405180910390f35b3480156106a357600080fd5b506106ac611856565b6040516106b99190613ffb565b60405180910390f35b3480156106ce57600080fd5b506106d761187c565b6040516106e49190613b42565b60405180910390f35b3480156106f957600080fd5b50610714600480360381019061070f9190614016565b61190e565b005b34801561072257600080fd5b5061072b611924565b6040516107389190613a97565b60405180910390f35b34801561074d57600080fd5b5061076860048036038101906107639190614186565b61193b565b005b34801561077657600080fd5b5061077f61199d565b60405161078d929190614209565b60405180910390f35b3480156107a257600080fd5b506107bd60048036038101906107b89190614232565b6119ae565b6040516107ca919061471a565b60405180910390f35b3480156107df57600080fd5b506107fa60048036038101906107f59190613b9a565b611a78565b6040516108079190613b42565b60405180910390f35b34801561081c57600080fd5b5061083760048036038101906108329190613b9a565b611ae9565b60405161084491906147b7565b60405180910390f35b34801561085957600080fd5b50610874600480360381019061086f9190613dbe565b611c2e565b6040516108819190613cd7565b60405180910390f35b34801561089657600080fd5b506108b160048036038101906108ac9190613b9a565b611cac565b6040516108be9190613cd7565b60405180910390f35b3480156108d357600080fd5b506108ee60048036038101906108e991906147d2565b611cc9565b6040516108fb9190613a97565b60405180910390f35b34801561091057600080fd5b5061092b60048036038101906109269190613dbe565b611d5d565b005b34801561093957600080fd5b50610954600480360381019061094f9190613d7e565b611da9565b6040516109619190613b42565b60405180910390f35b34801561097657600080fd5b50610991600480360381019061098c9190613dbe565b611e6a565b005b34801561099f57600080fd5b506109ba60048036038101906109b59190614812565b611eed565b005b600960009054906101000a900473ffffffffffffffffffffffffffffffffffffffff1681565b60006109ed826120df565b9050919050565b606060008054610a0390614881565b80601f0160208091040260200160405190810160405280929190818152602001828054610a2f90614881565b8015610a7c5780601f10610a5157610100808354040283529160200191610a7c565b820191906000526020600020905b815481529060010190602001808311610a5f57829003601f168201915b5050505050905090565b6000610a9182612159565b6004600083815260200190815260200160002060009054906101000a900473ffffffffffffffffffffffffffffffffffffffff169050919050565b6000610ad78261148c565b90508073ffffffffffffffffffffffffffffffffffffffff168373ffffffffffffffffffffffffffffffffffffffff1603610b47576040517f08c379a0000000000000000000000000000000000000000000000000000000008152600401610b3e90614924565b60405180910390fd5b8073ffffffffffffffffffffffffffffffffffffffff16610b666121a4565b73ffffffffffffffffffffffffffffffffffffffff161480610b955750610b9481610b8f6121a4565b611cc9565b5b610bd4576040517f08c379a0000000000000000000000000000000000000000000000000000000008152600401610bcb906149b6565b60405180910390fd5b610bde83836121ac565b505050565b610beb612265565b80600f60006101000a81548160ff021916908315150217905550600f60009054906101000a900460ff1615157f0e2fb031ee032dc02d8011dc50b816eb450cf856abd8261680dac74f72165bd260405160405180910390a250565b6000610c50610e67565b905090565b610c66610c606121a4565b826122e3565b610ca5576040517f08c379a0000000000000000000000000000000000000000000000000000000008152600401610c9c90614a48565b60405180910390fd5b610cb0838383612378565b505050565b6060600960009054906101000a900473ffffffffffffffffffffffffffffffffffffffff1673ffffffffffffffffffffffffffffffffffffffff16630fe487f38484601160008781526020019081526020016000206040518463ffffffff1660e01b8152600401610d2893929190614c31565b600060405180830381865afa158015610d45573d6000803e3d6000fd5b505050506040513d6000823e3d601f19601f82011682018060405250810190610d6e9190614d0a565b905092915050565b610d7e612265565b80600960006101000a81548173ffffffffffffffffffffffffffffffffffffffff021916908373ffffffffffffffffffffffffffffffffffffffff16021790555050565b6000610dcd8361155e565b8210610e0e576040517f08c379a0000000000000000000000000000000000000000000000000000000008152600401610e0590614dc5565b60405180910390fd5b600660008473ffffffffffffffffffffffffffffffffffffffff1673ffffffffffffffffffffffffffffffffffffffff168152602001908152602001600020600083815260200190815260200160002054905092915050565b6000600c54905090565b610e8c8383836040518060200160405280600081525061193b565b505050565b610e99612265565b3373ffffffffffffffffffffffffffffffffffffffff166108fc610ed0670de0b6b3a764000084610eca9190614e14565b47612671565b9081150290604051600060405180830381858888f19350505050158015610efb573d6000803e3d6000fd5b5050565b6000610f09610c46565b8210610f4a576040517f08c379a0000000000000000000000000000000000000000000000000000000008152600401610f4190614ee0565b60405180910390fd5b6001610f54610c46565b610f5e9190614f00565b9050919050565b6000600f60009054906101000a900460ff1615610fae576040517f37914c0000000000000000000000000000000000000000000000000000000000815260040160405180910390fd5b60006011600087815260200190815260200160002090506000816000015403611003576040517f79e950aa00000000000000000000000000000000000000000000000000000000815260040160405180910390fd5b600061100f878761268a565b9050600060116000838152602001908152602001600020600001541115611062576040517f049b1a5c00000000000000000000000000000000000000000000000000000000815260040160405180910390fd5b600085859050111561121457600b60009054906101000a900473ffffffffffffffffffffffffffffffffffffffff1673ffffffffffffffffffffffffffffffffffffffff1673__ECDSA_________________________________6319045a2573__ECDSA_________________________________63918a15cf33866040516020016110ee929190614f34565b604051602081830303815290604052805190602001206040518263ffffffff1660e01b81526004016111209190614f76565b602060405180830381865af415801561113d573d6000803e3d6000fd5b505050506040513d601f19601f820116820180604052508101906111619190614fbd565b88886040518463ffffffff1660e01b815260040161118193929190615028565b602060405180830381865af415801561119e573d6000803e3d6000fd5b505050506040513d601f19601f820116820180604052508101906111c2919061506f565b73ffffffffffffffffffffffffffffffffffffffff161461120f576040517f8baa579f00000000000000000000000000000000000000000000000000000000815260040160405180910390fd5b61126a565b600061121f33611c2e565b9050803410156112685734816040517fde9b74a100000000000000000000000000000000000000000000000000000000815260040161125f929190614209565b60405180910390fd5b505b600061127587612987565b90506000601160006112878b8561268a565b8152602001908152602001600020600201601e9054906101000a900460ff1660048111156112b8576112b7613ee9565b5b84600201601e9054906101000a900460ff1660048111156112dc576112db613ee9565b5b0361142457600960009054906101000a900473ffffffffffffffffffffffffffffffffffffffff1673ffffffffffffffffffffffffffffffffffffffff1663cff270eb6040518163ffffffff1660e01b8152600401602060405180830381865afa15801561134e573d6000803e3d6000fd5b505050506040513d601f19601f8201168201806040525081019061137291906150da565b73ffffffffffffffffffffffffffffffffffffffff166381d405898960038111156113a05761139f613ee9565b5b86600101546113af9190614f00565b86600201601e9054906101000a900460ff166040518363ffffffff1660e01b81526004016113de929190615116565b602060405180830381865afa1580156113fb573d6000803e3d6000fd5b505050506040513d601f19601f8201168201806040525081019061141f9190615164565b611437565b83600201601e9054906101000a900460ff165b905061147e8360018660020160009054906101000a90047cffffffffffffffffffffffffffffffffffffffffffffffffffffffffff166114779190615191565b83856129c1565b945050505050949350505050565b60008061149883612c94565b9050600073ffffffffffffffffffffffffffffffffffffffff168173ffffffffffffffffffffffffffffffffffffffff1603611509576040517f08c379a00000000000000000000000000000000000000000000000000000000081526004016115009061522e565b60405180910390fd5b80915050919050565b61151a612265565b80600b60006101000a81548173ffffffffffffffffffffffffffffffffffffffff021916908373ffffffffffffffffffffffffffffffffffffffff16021790555050565b60008073ffffffffffffffffffffffffffffffffffffffff168273ffffffffffffffffffffffffffffffffffffffff16036115ce576040517f08c379a00000000000000000000000000000000000000000000000000000000081526004016115c5906152c0565b60405180910390fd5b600360008373ffffffffffffffffffffffffffffffffffffffff1673ffffffffffffffffffffffffffffffffffffffff168152602001908152602001600020549050919050565b61161d612265565b6116276000612cd1565b565b6116316137a6565b600960009054906101000a900473ffffffffffffffffffffffffffffffffffffffff1673ffffffffffffffffffffffffffffffffffffffff1663cff270eb6040518163ffffffff1660e01b8152600401602060405180830381865afa15801561169e573d6000803e3d6000fd5b505050506040513d601f19601f820116820180604052508101906116c291906150da565b73ffffffffffffffffffffffffffffffffffffffff16633d3114de6011600060106000878152602001908152602001600020548152602001908152602001600020600101546040518263ffffffff1660e01b81526004016117239190613cd7565b606060405180830381865afa158015611740573d6000803e3d6000fd5b505050506040513d601f19601f82011682018060405250810190611764919061539f565b9050919050565b6060600960009054906101000a900473ffffffffffffffffffffffffffffffffffffffff1673ffffffffffffffffffffffffffffffffffffffff1663f1e608f38484601160008781526020019081526020016000206040518463ffffffff1660e01b81526004016117de93929190614c31565b600060405180830381865afa1580156117fb573d6000803e3d6000fd5b505050506040513d6000823e3d601f19601f820116820180604052508101906118249190614d0a565b905092915050565b6000600860009054906101000a900473ffffffffffffffffffffffffffffffffffffffff16905090565b600a60009054906101000a900473ffffffffffffffffffffffffffffffffffffffff1681565b60606001805461188b90614881565b80601f01602080910402602001604051908101604052809291908181526020018280546118b790614881565b80156119045780601f106118d957610100808354040283529160200191611904565b820191906000526020600020905b8154815290600101906020018083116118e757829003601f168201915b5050505050905090565b6119206119196121a4565b8383612d97565b5050565b6000600f60009054906101000a900460ff16905090565b61194c6119466121a4565b836122e3565b61198b576040517f08c379a000000000000000000000000000000000000000000000000000000000815260040161198290614a48565b60405180910390fd5b61199784848484612f03565b50505050565b600080600d54600e54915091509091565b6119b66137e1565b600960009054906101000a900473ffffffffffffffffffffffffffffffffffffffff1673ffffffffffffffffffffffffffffffffffffffff16634eb18bb8858560116000888152602001908152602001600020866040518563ffffffff1660e01b8152600401611a2994939291906153cc565b600060405180830381865afa158015611a46573d6000803e3d6000fd5b505050506040513d6000823e3d601f19601f82011682018060405250810190611a6f9190615897565b90509392505050565b6060611a8382612f5f565b611ac457816040517fed15e6cf000000000000000000000000000000000000000000000000000000008152600401611abb9190613cd7565b60405180910390fd5b611ae260006010600085815260200190815260200160002054611da9565b9050919050565b611af16138ab565b601160008381526020019081526020016000206040518060c001604052908160008201548152602001600182015481526020016002820160009054906101000a90047cffffffffffffffffffffffffffffffffffffffffffffffffffffffffff167cffffffffffffffffffffffffffffffffffffffffffffffffffffffffff167cffffffffffffffffffffffffffffffffffffffffffffffffffffffffff16815260200160028201601d9054906101000a900460ff1660ff1660ff16815260200160028201601e9054906101000a900460ff166004811115611bd657611bd5613ee9565b5b6004811115611be857611be7613ee9565b5b815260200160028201601f9054906101000a900460ff166003811115611c1157611c10613ee9565b5b6003811115611c2357611c22613ee9565b5b815250509050919050565b6000611c3861182c565b73ffffffffffffffffffffffffffffffffffffffff168273ffffffffffffffffffffffffffffffffffffffff1614611ca25766038d7ea4c68000611c93600d54611c818561155e565b611c8b9190614e14565b600e54612671565b611c9d9190614e14565b611ca5565b60005b9050919050565b600060106000838152602001908152602001600020549050919050565b6000600560008473ffffffffffffffffffffffffffffffffffffffff1673ffffffffffffffffffffffffffffffffffffffff16815260200190815260200160002060008373ffffffffffffffffffffffffffffffffffffffff1673ffffffffffffffffffffffffffffffffffffffff16815260200190815260200160002060009054906101000a900460ff16905092915050565b611d65612265565b80600a60006101000a81548173ffffffffffffffffffffffffffffffffffffffff021916908373ffffffffffffffffffffffffffffffffffffffff16021790555050565b6060600960009054906101000a900473ffffffffffffffffffffffffffffffffffffffff1673ffffffffffffffffffffffffffffffffffffffff1663ac2619228484601160008781526020019081526020016000206040518463ffffffff1660e01b8152600401611e1c93929190614c31565b600060405180830381865afa158015611e39573d6000803e3d6000fd5b505050506040513d6000823e3d601f19601f82011682018060405250810190611e629190614d0a565b905092915050565b611e72612265565b600073ffffffffffffffffffffffffffffffffffffffff168173ffffffffffffffffffffffffffffffffffffffff1603611ee1576040517f08c379a0000000000000000000000000000000000000000000000000000000008152600401611ed890615952565b60405180910390fd5b611eea81612cd1565b50565b611ef5612265565b81600d8190555080600e819055505050565b6000808273ffffffffffffffffffffffffffffffffffffffff163b119050919050565b611f3684848484611fb9565b8373ffffffffffffffffffffffffffffffffffffffff168373ffffffffffffffffffffffffffffffffffffffff1614611fb357600073ffffffffffffffffffffffffffffffffffffffff168473ffffffffffffffffffffffffffffffffffffffff1614611fa857611fa78483612fa0565b5b611fb2838361310d565b5b50505050565b60018111156120d957600073ffffffffffffffffffffffffffffffffffffffff168473ffffffffffffffffffffffffffffffffffffffff161461204d5780600360008673ffffffffffffffffffffffffffffffffffffffff1673ffffffffffffffffffffffffffffffffffffffff16815260200190815260200160002060008282546120459190615972565b925050819055505b600073ffffffffffffffffffffffffffffffffffffffff168373ffffffffffffffffffffffffffffffffffffffff16146120d85780600360008573ffffffffffffffffffffffffffffffffffffffff1673ffffffffffffffffffffffffffffffffffffffff16815260200190815260200160002060008282546120d09190614f00565b925050819055505b5b50505050565b60007f780e9d63000000000000000000000000000000000000000000000000000000007bffffffffffffffffffffffffffffffffffffffffffffffffffffffff1916827bffffffffffffffffffffffffffffffffffffffffffffffffffffffff1916148061215257506121518261318c565b5b9050919050565b61216281612f5f565b6121a1576040517f08c379a00000000000000000000000000000000000000000000000000000000081526004016121989061522e565b60405180910390fd5b50565b600033905090565b816004600083815260200190815260200160002060006101000a81548173ffffffffffffffffffffffffffffffffffffffff021916908373ffffffffffffffffffffffffffffffffffffffff160217905550808273ffffffffffffffffffffffffffffffffffffffff1661221f8361148c565b73ffffffffffffffffffffffffffffffffffffffff167f8c5be1e5ebec7d5bd14f71427d1e84f3dd0314c0f7b2291e5b200ac8c7c3b92560405160405180910390a45050565b61226d6121a4565b73ffffffffffffffffffffffffffffffffffffffff1661228b61182c565b73ffffffffffffffffffffffffffffffffffffffff16146122e1576040517f08c379a00000000000000000000000000000000000000000000000000000000081526004016122d8906159f2565b60405180910390fd5b565b6000806122ef8361148c565b90508073ffffffffffffffffffffffffffffffffffffffff168473ffffffffffffffffffffffffffffffffffffffff16148061233157506123308185611cc9565b5b8061236f57508373ffffffffffffffffffffffffffffffffffffffff1661235784610a86565b73ffffffffffffffffffffffffffffffffffffffff16145b91505092915050565b8273ffffffffffffffffffffffffffffffffffffffff166123988261148c565b73ffffffffffffffffffffffffffffffffffffffff16146123ee576040517f08c379a00000000000000000000000000000000000000000000000000000000081526004016123e590615a84565b60405180910390fd5b600073ffffffffffffffffffffffffffffffffffffffff168273ffffffffffffffffffffffffffffffffffffffff160361245d576040517f08c379a000000000000000000000000000000000000000000000000000000000815260040161245490615b16565b60405180910390fd5b61246a838383600161326e565b8273ffffffffffffffffffffffffffffffffffffffff1661248a8261148c565b73ffffffffffffffffffffffffffffffffffffffff16146124e0576040517f08c379a00000000000000000000000000000000000000000000000000000000081526004016124d790615a84565b60405180910390fd5b6004600082815260200190815260200160002060006101000a81549073ffffffffffffffffffffffffffffffffffffffff02191690556001600360008573ffffffffffffffffffffffffffffffffffffffff1673ffffffffffffffffffffffffffffffffffffffff168152602001908152602001600020600082825403925050819055506001600360008473ffffffffffffffffffffffffffffffffffffffff1673ffffffffffffffffffffffffffffffffffffffff16815260200190815260200160002060008282540192505081905550816002600083815260200190815260200160002060006101000a81548173ffffffffffffffffffffffffffffffffffffffff021916908373ffffffffffffffffffffffffffffffffffffffff160217905550808273ffffffffffffffffffffffffffffffffffffffff168473ffffffffffffffffffffffffffffffffffffffff167fddf252ad1be2c89b69c2b068fc378daa952ba7f163c4a11628f55a4df523b3ef60405160405180910390a461266c8383836001613319565b505050565b60008183106126805781612682565b825b905092915050565b600080600381111561269f5761269e613ee9565b5b8260038111156126b2576126b1613ee9565b5b0361274357600167ffffffffffffffff8016841611156126e0576001836126d99190615972565b9050612981565b60c067ffffffffffffffff8016901b60c067ffffffffffffffff8016901b84161461273e57780100000000000000000000000000000000000000000000000067ffffffffffffffff80161984166127379190614f00565b9050612981565b61297d565b6001600381111561275757612756613ee9565b5b82600381111561276a57612769613ee9565b5b0361280b5768010000000000000000604067ffffffffffffffff8016901b841611156127ac5768010000000000000000836127a59190615972565b9050612981565b608067ffffffffffffffff8016901b608067ffffffffffffffff8016901b84161461280657700100000000000000000000000000000000604067ffffffffffffffff8016901b1984166127ff9190614f00565b9050612981565b61297c565b6002600381111561281f5761281e613ee9565b5b82600381111561283257612831613ee9565b5b036128db57700100000000000000000000000000000000608067ffffffffffffffff8016901b84161115612884577001000000000000000000000000000000008361287d9190615972565b9050612981565b604067ffffffffffffffff8016901b604067ffffffffffffffff8016901b8416146128d65768010000000000000000608067ffffffffffffffff8016901b1984166128cf9190614f00565b9050612981565b61297b565b780100000000000000000000000000000000000000000000000060c067ffffffffffffffff8016901b84161115612938577801000000000000000000000000000000000000000000000000836129319190615972565b9050612981565b67ffffffffffffffff801667ffffffffffffffff801684161461297a57600160c067ffffffffffffffff8016901b1984166129739190614f00565b9050612981565b5b5b5b8290505b92915050565b600081600381111561299c5761299b613ee9565b5b60036129a89190615972565b60038111156129ba576129b9613ee9565b5b9050919050565b6000806001600c546129d39190614f00565b905060006001436129e49190615972565b40826040516020016129f7929190615b78565b6040516020818303038152906040528051906020012060001c90508660106000848152602001908152602001600020819055506040518060c00160405280838152602001828152602001877cffffffffffffffffffffffffffffffffffffffffffffffffffffffffff168152602001600960009054906101000a900473ffffffffffffffffffffffffffffffffffffffff1673ffffffffffffffffffffffffffffffffffffffff16638e3b60a06040518163ffffffff1660e01b8152600401602060405180830381865afa158015612ad3573d6000803e3d6000fd5b505050506040513d601f19601f82011682018060405250810190612af79190615ba4565b60ff168152602001866004811115612b1257612b11613ee9565b5b8152602001856003811115612b2a57612b29613ee9565b5b81525060116000898152602001908152602001600020600082015181600001556020820151816001015560408201518160020160006101000a8154817cffffffffffffffffffffffffffffffffffffffffffffffffffffffffff02191690837cffffffffffffffffffffffffffffffffffffffffffffffffffffffffff160217905550606082015181600201601d6101000a81548160ff021916908360ff160217905550608082015181600201601e6101000a81548160ff02191690836004811115612bf957612bf8613ee9565b5b021790555060a082015181600201601f6101000a81548160ff02191690836003811115612c2957612c28613ee9565b5b0217905550905050612c3b338361331f565b86823373ffffffffffffffffffffffffffffffffffffffff167f25b428dfde728ccfaddad7e29e4ac23c24ed7fd1a6e3e3f91894a9a073f5dfff60405160405180910390a481600c819055508192505050949350505050565b60006002600083815260200190815260200160002060009054906101000a900473ffffffffffffffffffffffffffffffffffffffff169050919050565b6000600860009054906101000a900473ffffffffffffffffffffffffffffffffffffffff16905081600860006101000a81548173ffffffffffffffffffffffffffffffffffffffff021916908373ffffffffffffffffffffffffffffffffffffffff1602179055508173ffffffffffffffffffffffffffffffffffffffff168173ffffffffffffffffffffffffffffffffffffffff167f8be0079c531659141344cd1fd0a4f28419497f9722a3daafe3b4186f6b6457e060405160405180910390a35050565b8173ffffffffffffffffffffffffffffffffffffffff168373ffffffffffffffffffffffffffffffffffffffff1603612e05576040517f08c379a0000000000000000000000000000000000000000000000000000000008152600401612dfc90615c1d565b60405180910390fd5b80600560008573ffffffffffffffffffffffffffffffffffffffff1673ffffffffffffffffffffffffffffffffffffffff16815260200190815260200160002060008473ffffffffffffffffffffffffffffffffffffffff1673ffffffffffffffffffffffffffffffffffffffff16815260200190815260200160002060006101000a81548160ff0219169083151502179055508173ffffffffffffffffffffffffffffffffffffffff168373ffffffffffffffffffffffffffffffffffffffff167f17307eab39ab6107e8899845ad3d59bd9653f200f220920489ca2b5937696c3183604051612ef69190613a97565b60405180910390a3505050565b612f0e848484612378565b612f1a8484848461333d565b612f59576040517f08c379a0000000000000000000000000000000000000000000000000000000008152600401612f5090615caf565b60405180910390fd5b50505050565b60008073ffffffffffffffffffffffffffffffffffffffff16612f8183612c94565b73ffffffffffffffffffffffffffffffffffffffff1614159050919050565b60006001612fad8461155e565b612fb79190615972565b905060006007600084815260200190815260200160002054905081811461309c576000600660008673ffffffffffffffffffffffffffffffffffffffff1673ffffffffffffffffffffffffffffffffffffffff168152602001908152602001600020600084815260200190815260200160002054905080600660008773ffffffffffffffffffffffffffffffffffffffff1673ffffffffffffffffffffffffffffffffffffffff168152602001908152602001600020600084815260200190815260200160002081905550816007600083815260200190815260200160002081905550505b6007600084815260200190815260200160002060009055600660008573ffffffffffffffffffffffffffffffffffffffff1673ffffffffffffffffffffffffffffffffffffffff16815260200190815260200160002060008381526020019081526020016000206000905550505050565b60006131188361155e565b905081600660008573ffffffffffffffffffffffffffffffffffffffff1673ffffffffffffffffffffffffffffffffffffffff168152602001908152602001600020600083815260200190815260200160002081905550806007600084815260200190815260200160002081905550505050565b60007f80ac58cd000000000000000000000000000000000000000000000000000000007bffffffffffffffffffffffffffffffffffffffffffffffffffffffff1916827bffffffffffffffffffffffffffffffffffffffffffffffffffffffff1916148061325757507f5b5e139f000000000000000000000000000000000000000000000000000000007bffffffffffffffffffffffffffffffffffffffffffffffffffffffff1916827bffffffffffffffffffffffffffffffffffffffffffffffffffffffff1916145b806132675750613266826134c4565b5b9050919050565b600a60009054906101000a900473ffffffffffffffffffffffffffffffffffffffff1673ffffffffffffffffffffffffffffffffffffffff16636a71cb5385856132b786611629565b6040518463ffffffff1660e01b81526004016132d593929190615ccf565b600060405180830381600087803b1580156132ef57600080fd5b505af1158015613303573d6000803e3d6000fd5b5050505061331384848484611f2a565b50505050565b50505050565b61333982826040518060200160405280600081525061352e565b5050565b600061335e8473ffffffffffffffffffffffffffffffffffffffff16611f07565b156134b7578373ffffffffffffffffffffffffffffffffffffffff1663150b7a026133876121a4565b8786866040518563ffffffff1660e01b81526004016133a99493929190615d50565b6020604051808303816000875af19250505080156133e557506040513d601f19601f820116820180604052508101906133e29190615db1565b60015b613467573d8060008114613415576040519150601f19603f3d011682016040523d82523d6000602084013e61341a565b606091505b50600081510361345f576040517f08c379a000000000000000000000000000000000000000000000000000000000815260040161345690615caf565b60405180910390fd5b805181602001fd5b63150b7a0260e01b7bffffffffffffffffffffffffffffffffffffffffffffffffffffffff1916817bffffffffffffffffffffffffffffffffffffffffffffffffffffffff1916149150506134bc565b600190505b949350505050565b60007f01ffc9a7000000000000000000000000000000000000000000000000000000007bffffffffffffffffffffffffffffffffffffffffffffffffffffffff1916827bffffffffffffffffffffffffffffffffffffffffffffffffffffffff1916149050919050565b6135388383613589565b613545600084848461333d565b613584576040517f08c379a000000000000000000000000000000000000000000000000000000000815260040161357b90615caf565b60405180910390fd5b505050565b600073ffffffffffffffffffffffffffffffffffffffff168273ffffffffffffffffffffffffffffffffffffffff16036135f8576040517f08c379a00000000000000000000000000000000000000000000000000000000081526004016135ef90615e2a565b60405180910390fd5b61360181612f5f565b15613641576040517f08c379a000000000000000000000000000000000000000000000000000000000815260040161363890615e96565b60405180910390fd5b61364f60008383600161326e565b61365881612f5f565b15613698576040517f08c379a000000000000000000000000000000000000000000000000000000000815260040161368f90615e96565b60405180910390fd5b6001600360008473ffffffffffffffffffffffffffffffffffffffff1673ffffffffffffffffffffffffffffffffffffffff16815260200190815260200160002060008282540192505081905550816002600083815260200190815260200160002060006101000a81548173ffffffffffffffffffffffffffffffffffffffff021916908373ffffffffffffffffffffffffffffffffffffffff160217905550808273ffffffffffffffffffffffffffffffffffffffff16600073ffffffffffffffffffffffffffffffffffffffff167fddf252ad1be2c89b69c2b068fc378daa952ba7f163c4a11628f55a4df523b3ef60405160405180910390a46137a2600083836001613319565b5050565b6040518060600160405280600060088111156137c5576137c4613ee9565b5b8152602001600061ffff168152602001600061ffff1681525090565b604051806101c0016040528060008152602001600081526020016000815260200160007cffffffffffffffffffffffffffffffffffffffffffffffffffffffffff168152602001600060ff1681526020016000600481111561384657613845613ee9565b5b81526020016000600381111561385f5761385e613ee9565b5b815260200161386c6137a6565b8152602001600060ff168152602001613883613927565b8152602001613890613927565b81526020016000815260200160608152602001606081525090565b6040518060c00160405280600081526020016000815260200160007cffffffffffffffffffffffffffffffffffffffffffffffffffffffffff168152602001600060ff1681526020016000600481111561390857613907613ee9565b5b81526020016000600381111561392157613920613ee9565b5b81525090565b6040518060800160405280600490602082028036833780820191505090505090565b600073ffffffffffffffffffffffffffffffffffffffff82169050919050565b6000819050919050565b600061398e61398961398484613949565b613969565b613949565b9050919050565b60006139a082613973565b9050919050565b60006139b282613995565b9050919050565b6139c2816139a7565b82525050565b60006020820190506139dd60008301846139b9565b92915050565b6000604051905090565b600080fd5b600080fd5b60007fffffffff0000000000000000000000000000000000000000000000000000000082169050919050565b613a2c816139f7565b8114613a3757600080fd5b50565b600081359050613a4981613a23565b92915050565b600060208284031215613a6557613a646139ed565b5b6000613a7384828501613a3a565b91505092915050565b60008115159050919050565b613a9181613a7c565b82525050565b6000602082019050613aac6000830184613a88565b92915050565b600081519050919050565b600082825260208201905092915050565b60005b83811015613aec578082015181840152602081019050613ad1565b60008484015250505050565b6000601f19601f8301169050919050565b6000613b1482613ab2565b613b1e8185613abd565b9350613b2e818560208601613ace565b613b3781613af8565b840191505092915050565b60006020820190508181036000830152613b5c8184613b09565b905092915050565b6000819050919050565b613b7781613b64565b8114613b8257600080fd5b50565b600081359050613b9481613b6e565b92915050565b600060208284031215613bb057613baf6139ed565b5b6000613bbe84828501613b85565b91505092915050565b6000613bd282613949565b9050919050565b613be281613bc7565b82525050565b6000602082019050613bfd6000830184613bd9565b92915050565b613c0c81613bc7565b8114613c1757600080fd5b50565b600081359050613c2981613c03565b92915050565b60008060408385031215613c4657613c456139ed565b5b6000613c5485828601613c1a565b9250506020613c6585828601613b85565b9150509250929050565b613c7881613a7c565b8114613c8357600080fd5b50565b600081359050613c9581613c6f565b92915050565b600060208284031215613cb157613cb06139ed565b5b6000613cbf84828501613c86565b91505092915050565b613cd181613b64565b82525050565b6000602082019050613cec6000830184613cc8565b92915050565b600080600060608486031215613d0b57613d0a6139ed565b5b6000613d1986828701613c1a565b9350506020613d2a86828701613c1a565b9250506040613d3b86828701613b85565b9150509250925092565b600060ff82169050919050565b613d5b81613d45565b8114613d6657600080fd5b50565b600081359050613d7881613d52565b92915050565b60008060408385031215613d9557613d946139ed565b5b6000613da385828601613d69565b9250506020613db485828601613b85565b9150509250929050565b600060208284031215613dd457613dd36139ed565b5b6000613de284828501613c1a565b91505092915050565b60048110613df857600080fd5b50565b600081359050613e0a81613deb565b92915050565b600080fd5b600080fd5b600080fd5b60008083601f840112613e3557613e34613e10565b5b8235905067ffffffffffffffff811115613e5257613e51613e15565b5b602083019150836001820283011115613e6e57613e6d613e1a565b5b9250929050565b60008060008060608587031215613e8f57613e8e6139ed565b5b6000613e9d87828801613b85565b9450506020613eae87828801613dfb565b935050604085013567ffffffffffffffff811115613ecf57613ece6139f2565b5b613edb87828801613e1f565b925092505092959194509250565b7f4e487b7100000000000000000000000000000000000000000000000000000000600052602160045260246000fd5b60098110613f2957613f28613ee9565b5b50565b6000819050613f3a82613f18565b919050565b6000613f4a82613f2c565b9050919050565b613f5a81613f3f565b82525050565b600061ffff82169050919050565b613f7781613f60565b82525050565b606082016000820151613f936000850182613f51565b506020820151613fa66020850182613f6e565b506040820151613fb96040850182613f6e565b50505050565b6000606082019050613fd46000830184613f7d565b92915050565b6000613fe582613995565b9050919050565b613ff581613fda565b82525050565b60006020820190506140106000830184613fec565b92915050565b6000806040838503121561402d5761402c6139ed565b5b600061403b85828601613c1a565b925050602061404c85828601613c86565b9150509250929050565b600080fd5b7f4e487b7100000000000000000000000000000000000000000000000000000000600052604160045260246000fd5b61409382613af8565b810181811067ffffffffffffffff821117156140b2576140b161405b565b5b80604052505050565b60006140c56139e3565b90506140d1828261408a565b919050565b600067ffffffffffffffff8211156140f1576140f061405b565b5b6140fa82613af8565b9050602081019050919050565b82818337600083830152505050565b6000614129614124846140d6565b6140bb565b90508281526020810184848401111561414557614144614056565b5b614150848285614107565b509392505050565b600082601f83011261416d5761416c613e10565b5b813561417d848260208601614116565b91505092915050565b600080600080608085870312156141a05761419f6139ed565b5b60006141ae87828801613c1a565b94505060206141bf87828801613c1a565b93505060406141d087828801613b85565b925050606085013567ffffffffffffffff8111156141f1576141f06139f2565b5b6141fd87828801614158565b91505092959194509250565b600060408201905061421e6000830185613cc8565b61422b6020830184613cc8565b9392505050565b60008060006060848603121561424b5761424a6139ed565b5b600061425986828701613d69565b935050602061426a86828701613b85565b925050604061427b86828701613c86565b9150509250925092565b61428e81613b64565b82525050565b60007cffffffffffffffffffffffffffffffffffffffffffffffffffffffffff82169050919050565b6142c681614294565b82525050565b6142d581613d45565b82525050565b600581106142ec576142eb613ee9565b5b50565b60008190506142fd826142db565b919050565b600061430d826142ef565b9050919050565b61431d81614302565b82525050565b6004811061433457614333613ee9565b5b50565b600081905061434582614323565b919050565b600061435582614337565b9050919050565b6143658161434a565b82525050565b6060820160008201516143816000850182613f51565b5060208201516143946020850182613f6e565b5060408201516143a76040850182613f6e565b50505050565b600060049050919050565b600081905092915050565b6000819050919050565b60006143d983836142cc565b60208301905092915050565b6000602082019050919050565b6143fb816143ad565b61440581846143b8565b9250614410826143c3565b8060005b8381101561444157815161442887826143cd565b9650614433836143e5565b925050600181019050614414565b505050505050565b600081519050919050565b600082825260208201905092915050565b600061447082614449565b61447a8185614454565b935061448a818560208601613ace565b61449381613af8565b840191505092915050565b600081519050919050565b600082825260208201905092915050565b6000819050602082019050919050565b601081106144db576144da613ee9565b5b50565b60008190506144ec826144ca565b919050565b60006144fc826144de565b9050919050565b61450c816144f1565b82525050565b600060408301600083015161452a6000860182614503565b50602083015184820360208601526145428282614465565b9150508091505092915050565b600061455b8383614512565b905092915050565b6000602082019050919050565b600061457b8261449e565b61458581856144a9565b935083602082028501614597856144ba565b8060005b858110156145d357848403895281516145b4858261454f565b94506145bf83614563565b925060208a0199505060018101905061459b565b50829750879550505050505092915050565b60006102c0830160008301516145fe6000860182614285565b5060208301516146116020860182614285565b5060408301516146246040860182614285565b50606083015161463760608601826142bd565b50608083015161464a60808601826142cc565b5060a083015161465d60a0860182614314565b5060c083015161467060c086018261435c565b5060e083015161468360e086018261436b565b506101008301516146986101408601826142cc565b506101208301516146ad6101608601826143f2565b506101408301516146c26101e08601826143f2565b506101608301516146d7610260860182614285565b506101808301518482036102808601526146f18282614465565b9150506101a08301518482036102a086015261470d8282614570565b9150508091505092915050565b6000602082019050818103600083015261473481846145e5565b905092915050565b60c0820160008201516147526000850182614285565b5060208201516147656020850182614285565b50604082015161477860408501826142bd565b50606082015161478b60608501826142cc565b50608082015161479e6080850182614314565b5060a08201516147b160a085018261435c565b50505050565b600060c0820190506147cc600083018461473c565b92915050565b600080604083850312156147e9576147e86139ed565b5b60006147f785828601613c1a565b925050602061480885828601613c1a565b9150509250929050565b60008060408385031215614829576148286139ed565b5b600061483785828601613b85565b925050602061484885828601613b85565b9150509250929050565b7f4e487b7100000000000000000000000000000000000000000000000000000000600052602260045260246000fd5b6000600282049050600182168061489957607f821691505b6020821081036148ac576148ab614852565b5b50919050565b7f4552433732313a20617070726f76616c20746f2063757272656e74206f776e6560008201527f7200000000000000000000000000000000000000000000000000000000000000602082015250565b600061490e602183613abd565b9150614919826148b2565b604082019050919050565b6000602082019050818103600083015261493d81614901565b9050919050565b7f4552433732313a20617070726f76652063616c6c6572206973206e6f7420746f60008201527f6b656e206f776e6572206f7220617070726f76656420666f7220616c6c000000602082015250565b60006149a0603d83613abd565b91506149ab82614944565b604082019050919050565b600060208201905081810360008301526149cf81614993565b9050919050565b7f4552433732313a2063616c6c6572206973206e6f7420746f6b656e206f776e6560008201527f72206f7220617070726f76656400000000000000000000000000000000000000602082015250565b6000614a32602d83613abd565b9150614a3d826149d6565b604082019050919050565b60006020820190508181036000830152614a6181614a25565b9050919050565b614a7181613d45565b82525050565b60008160001c9050919050565b6000819050919050565b6000614aa1614a9c83614a77565b614a84565b9050919050565b60007cffffffffffffffffffffffffffffffffffffffffffffffffffffffffff82169050919050565b6000614ae4614adf83614a77565b614aa8565b9050919050565b60008160e81c9050919050565b600060ff82169050919050565b6000614b18614b1383614aeb565b614af8565b9050919050565b60008160f01c9050919050565b600060ff82169050919050565b6000614b4c614b4783614b1f565b614b2c565b9050919050565b60008160f81c9050919050565b600060ff82169050919050565b6000614b80614b7b83614b53565b614b60565b9050919050565b60c082016000808301549050614b9c81614a8e565b614ba96000860182614285565b5060018301549050614bba81614a8e565b614bc76020860182614285565b5060028301549050614bd881614ad1565b614be560408601826142bd565b50614bef81614b05565b614bfc60608601826142cc565b50614c0681614b39565b614c136080860182614314565b50614c1d81614b6d565b614c2a60a086018261435c565b5050505050565b600061010082019050614c476000830186614a68565b614c546020830185613cc8565b614c616040830184614b87565b949350505050565b600067ffffffffffffffff821115614c8457614c8361405b565b5b614c8d82613af8565b9050602081019050919050565b6000614cad614ca884614c69565b6140bb565b905082815260208101848484011115614cc957614cc8614056565b5b614cd4848285613ace565b509392505050565b600082601f830112614cf157614cf0613e10565b5b8151614d01848260208601614c9a565b91505092915050565b600060208284031215614d2057614d1f6139ed565b5b600082015167ffffffffffffffff811115614d3e57614d3d6139f2565b5b614d4a84828501614cdc565b91505092915050565b7f455243373231456e756d657261626c653a206f776e657220696e646578206f7560008201527f74206f6620626f756e6473000000000000000000000000000000000000000000602082015250565b6000614daf602b83613abd565b9150614dba82614d53565b604082019050919050565b60006020820190508181036000830152614dde81614da2565b9050919050565b7f4e487b7100000000000000000000000000000000000000000000000000000000600052601160045260246000fd5b6000614e1f82613b64565b9150614e2a83613b64565b9250817fffffffffffffffffffffffffffffffffffffffffffffffffffffffffffffffff0483118215151615614e6357614e62614de5565b5b828202905092915050565b7f455243373231456e756d657261626c653a20676c6f62616c20696e646578206f60008201527f7574206f6620626f756e64730000000000000000000000000000000000000000602082015250565b6000614eca602c83613abd565b9150614ed582614e6e565b604082019050919050565b60006020820190508181036000830152614ef981614ebd565b9050919050565b6000614f0b82613b64565b9150614f1683613b64565b9250828201905080821115614f2e57614f2d614de5565b5b92915050565b6000604082019050614f496000830185613bd9565b614f566020830184613cc8565b9392505050565b6000819050919050565b614f7081614f5d565b82525050565b6000602082019050614f8b6000830184614f67565b92915050565b614f9a81614f5d565b8114614fa557600080fd5b50565b600081519050614fb781614f91565b92915050565b600060208284031215614fd357614fd26139ed565b5b6000614fe184828501614fa8565b91505092915050565b600082825260208201905092915050565b60006150078385614fea565b9350615014838584614107565b61501d83613af8565b840190509392505050565b600060408201905061503d6000830186614f67565b8181036020830152615050818486614ffb565b9050949350505050565b60008151905061506981613c03565b92915050565b600060208284031215615085576150846139ed565b5b60006150938482850161505a565b91505092915050565b60006150a782613bc7565b9050919050565b6150b78161509c565b81146150c257600080fd5b50565b6000815190506150d4816150ae565b92915050565b6000602082840312156150f0576150ef6139ed565b5b60006150fe848285016150c5565b91505092915050565b61511081614302565b82525050565b600060408201905061512b6000830185613cc8565b6151386020830184615107565b9392505050565b6005811061514c57600080fd5b50565b60008151905061515e8161513f565b92915050565b60006020828403121561517a576151796139ed565b5b60006151888482850161514f565b91505092915050565b600061519c82614294565b91506151a783614294565b925082820190507cffffffffffffffffffffffffffffffffffffffffffffffffffffffffff8111156151dc576151db614de5565b5b92915050565b7f4552433732313a20696e76616c696420746f6b656e2049440000000000000000600082015250565b6000615218601883613abd565b9150615223826151e2565b602082019050919050565b600060208201905081810360008301526152478161520b565b9050919050565b7f4552433732313a2061646472657373207a65726f206973206e6f74206120766160008201527f6c6964206f776e65720000000000000000000000000000000000000000000000602082015250565b60006152aa602983613abd565b91506152b58261524e565b604082019050919050565b600060208201905081810360008301526152d98161529d565b9050919050565b600080fd5b600080fd5b600981106152f757600080fd5b50565b600081519050615309816152ea565b92915050565b61531881613f60565b811461532357600080fd5b50565b6000815190506153358161530f565b92915050565b600060608284031215615351576153506152e0565b5b61535b60606140bb565b9050600061536b848285016152fa565b600083015250602061537f84828501615326565b602083015250604061539384828501615326565b60408301525092915050565b6000606082840312156153b5576153b46139ed565b5b60006153c38482850161533b565b91505092915050565b6000610120820190506153e26000830187614a68565b6153ef6020830186613cc8565b6153fc6040830185614b87565b61540a610100830184613a88565b95945050505050565b60008151905061542281613b6e565b92915050565b61543181614294565b811461543c57600080fd5b50565b60008151905061544e81615428565b92915050565b60008151905061546381613d52565b92915050565b60008151905061547881613deb565b92915050565b600067ffffffffffffffff8211156154995761549861405b565b5b602082029050919050565b60006154b76154b28461547e565b6140bb565b905080602084028301858111156154d1576154d0613e1a565b5b835b818110156154fa57806154e68882615454565b8452602084019350506020810190506154d3565b5050509392505050565b600082601f83011261551957615518613e10565b5b60046155268482856154a4565b91505092915050565b600061554261553d846140d6565b6140bb565b90508281526020810184848401111561555e5761555d614056565b5b615569848285613ace565b509392505050565b600082601f83011261558657615585613e10565b5b815161559684826020860161552f565b91505092915050565b600067ffffffffffffffff8211156155ba576155b961405b565b5b602082029050602081019050919050565b601081106155d857600080fd5b50565b6000815190506155ea816155cb565b92915050565b600060408284031215615606576156056152e0565b5b61561060406140bb565b90506000615620848285016155db565b600083015250602082015167ffffffffffffffff811115615644576156436152e5565b5b61565084828501615571565b60208301525092915050565b600061566f61566a8461559f565b6140bb565b9050808382526020820190506020840283018581111561569257615691613e1a565b5b835b818110156156d957805167ffffffffffffffff8111156156b7576156b6613e10565b5b8086016156c489826155f0565b85526020850194505050602081019050615694565b5050509392505050565b600082601f8301126156f8576156f7613e10565b5b815161570884826020860161565c565b91505092915050565b60006102c08284031215615728576157276152e0565b5b6157336101c06140bb565b9050600061574384828501615413565b600083015250602061575784828501615413565b602083015250604061576b84828501615413565b604083015250606061577f8482850161543f565b606083015250608061579384828501615454565b60808301525060a06157a78482850161514f565b60a08301525060c06157bb84828501615469565b60c08301525060e06157cf8482850161533b565b60e0830152506101406157e484828501615454565b610100830152506101606157fa84828501615504565b610120830152506101e061581084828501615504565b6101408301525061026061582684828501615413565b6101608301525061028082015167ffffffffffffffff81111561584c5761584b6152e5565b5b61585884828501615571565b610180830152506102a082015167ffffffffffffffff81111561587e5761587d6152e5565b5b61588a848285016156e3565b6101a08301525092915050565b6000602082840312156158ad576158ac6139ed565b5b600082015167ffffffffffffffff8111156158cb576158ca6139f2565b5b6158d784828501615711565b91505092915050565b7f4f776e61626c653a206e6577206f776e657220697320746865207a65726f206160008201527f6464726573730000000000000000000000000000000000000000000000000000602082015250565b600061593c602683613abd565b9150615947826158e0565b604082019050919050565b6000602082019050818103600083015261596b8161592f565b9050919050565b600061597d82613b64565b915061598883613b64565b92508282039050818111156159a05761599f614de5565b5b92915050565b7f4f776e61626c653a2063616c6c6572206973206e6f7420746865206f776e6572600082015250565b60006159dc602083613abd565b91506159e7826159a6565b602082019050919050565b60006020820190508181036000830152615a0b816159cf565b9050919050565b7f4552433732313a207472616e736665722066726f6d20696e636f72726563742060008201527f6f776e6572000000000000000000000000000000000000000000000000000000602082015250565b6000615a6e602583613abd565b9150615a7982615a12565b604082019050919050565b60006020820190508181036000830152615a9d81615a61565b9050919050565b7f4552433732313a207472616e7366657220746f20746865207a65726f2061646460008201527f7265737300000000000000000000000000000000000000000000000000000000602082015250565b6000615b00602483613abd565b9150615b0b82615aa4565b604082019050919050565b60006020820190508181036000830152615b2f81615af3565b9050919050565b6000819050919050565b615b51615b4c82614f5d565b615b36565b82525050565b6000819050919050565b615b72615b6d82613b64565b615b57565b82525050565b6000615b848285615b40565b602082019150615b948284615b61565b6020820191508190509392505050565b600060208284031215615bba57615bb96139ed565b5b6000615bc884828501615454565b91505092915050565b7f4552433732313a20617070726f766520746f2063616c6c657200000000000000600082015250565b6000615c07601983613abd565b9150615c1282615bd1565b602082019050919050565b60006020820190508181036000830152615c3681615bfa565b9050919050565b7f4552433732313a207472616e7366657220746f206e6f6e20455243373231526560008201527f63656976657220696d706c656d656e7465720000000000000000000000000000602082015250565b6000615c99603283613abd565b9150615ca482615c3d565b604082019050919050565b60006020820190508181036000830152615cc881615c8c565b9050919050565b600060a082019050615ce46000830186613bd9565b615cf16020830185613bd9565b615cfe6040830184613f7d565b949350505050565b600082825260208201905092915050565b6000615d2282614449565b615d2c8185615d06565b9350615d3c818560208601613ace565b615d4581613af8565b840191505092915050565b6000608082019050615d656000830187613bd9565b615d726020830186613bd9565b615d7f6040830185613cc8565b8181036060830152615d918184615d17565b905095945050505050565b600081519050615dab81613a23565b92915050565b600060208284031215615dc757615dc66139ed565b5b6000615dd584828501615d9c565b91505092915050565b7f4552433732313a206d696e7420746f20746865207a65726f2061646472657373600082015250565b6000615e14602083613abd565b9150615e1f82615dde565b602082019050919050565b60006020820190508181036000830152615e4381615e07565b9050919050565b7f4552433732313a20746f6b656e20616c7265616479206d696e74656400000000600082015250565b6000615e80601c83613abd565b9150615e8b82615e4a565b602082019050919050565b60006020820190508181036000830152615eaf81615e73565b905091905056fea26469706673582212206bbfc735c241b8ee31799d2daf6fe58c54cd92036480bf7a1ac919ce163f2e0464736f6c63430008100033",
  "immutableReferences": {},
  "source": "// SPDX-License-Identifier: MIT\n//\n//    \n//             \n//              \n//              \n//              \n//          \n//        \n//      \n//\n// https://endlesscrawler.io\n// @EndlessCrawler\n//\n/// @title Endless Crawler Chamber Minter\n/// @author Studio Avante\n/// @notice Mints new Chambers for Endless Crawler\n/// @dev Depends on upgradeable ICrawlerIndex and ICrawlerPlayer\n//\npragma solidity ^0.8.16;\nimport { ERC721 } from '@openzeppelin/contracts/token/ERC721/ERC721.sol';\nimport { IERC165 } from '@openzeppelin/contracts/utils/introspection/IERC165.sol';\nimport { IERC721Metadata } from '@openzeppelin/contracts/token/ERC721/extensions/IERC721Metadata.sol';\nimport { Ownable } from '@openzeppelin/contracts/access/Ownable.sol';\nimport { ECDSA } from '../extras/ECDSA.sol';\nimport { LimboEnumerable } from './LimboEnumerable.sol';\nimport { ICrawlerIndex } from '../ICrawlerIndex.sol';\nimport { ICrawlerPlayer } from '../ICrawlerPlayer.sol';\nimport { ICrawlerToken } from '../ICrawlerToken.sol';\nimport { Crawl } from '../Crawl.sol';\n\ncontract LimboToken is ERC721, LimboEnumerable, Ownable, ICrawlerToken {\n\n\terror MintingIsPaused();\n\terror InvalidFromChamber();\n\terror InvalidValue(uint256 sent, uint256 minimum);\n\terror InvalidSignature();\n\terror DoorAlreadyUnlocked();\n\terror InvalidTokenId(uint256 tokenId);\n\n\tICrawlerIndex public _index;\n  ICrawlerPlayer public _player;\n\taddress private _signerAddress;\n\tuint256 private _mintedCount;\n\tuint256 private _priceInPwei = 10;\n\tuint256 private _maxPriceInPwei = 10;\n\tbool private _paused = true;\n\n\tmapping(uint256 => uint256) private _tokenIdToCoord;\n\tmapping(uint256 => Crawl.ChamberSeed) private _coordToSeed;\n\n\tevent Paused(bool indexed paused);\n\tevent Minted(address indexed to, uint256 indexed tokenId, uint256 indexed coord);\n\n\tconstructor(address index, address player, address signer) ERC721('Endless Crawler', 'CRWLR') {\n\t\tsetIndexContract(index);\n\t\tsePlayerContract(player);\n\t\tsetSigner(signer);\n\n\t\t// Mint origins, Yonder 1, as...\n\t\t// 2 Water | 3 Air\n\t\t// --------|--------\n\t\t// 1 Earth | 4 Fire\n\t\t_mint((1 << 64) + 1, 1, Crawl.Terrain.Earth, Crawl.Dir.East);\t\t\t\t\t\t// same as Crawl.makeCoord(0, 0, 1, 1) or __WS\n\t\t_mint((1 << 192) + (1 << 64), 1, Crawl.Terrain.Water, Crawl.Dir.South);\t// same as Crawl.makeCoord(1, 0, 1, 0) or N_W_\n\t\t_mint((1 << 192) + (1 << 128), 1, Crawl.Terrain.Air, Crawl.Dir.West); \t// same as Crawl.makeCoord(1, 1, 0, 0) or NE__\n\t\t_mint((1 << 128) + 1, 1, Crawl.Terrain.Fire, Crawl.Dir.North);\t\t\t\t\t// same as Crawl.makeCoord(0, 1, 0, 1) or _E_S\n\t}\n\n\t/// @dev Required by ERC721 interfaces\n\tfunction supportsInterface(bytes4 interfaceId) public view override (IERC165, ERC721, LimboEnumerable) returns (bool) {\n\t\treturn LimboEnumerable.supportsInterface(interfaceId);\n\t}\n\n\t/// @dev Required by ERC721 interfaces\n\tfunction _beforeTokenTransfer(address from, address to, uint256 tokenId, uint256 batchSize) internal override (ERC721, LimboEnumerable) {\n\t\t_player.transferChamberHoard(from, to, tokenIdToHoard(tokenId));\n\t\tsuper._beforeTokenTransfer(from, to, tokenId, batchSize);\n\t}\n\n\t/// @dev Required by ERC721 interfaces\n\tfunction _totalSupply() public view override returns (uint256) {\n\t\treturn _mintedCount;\n\t}\n\n\t//---------------\n\t// Admin\n\t//\n\n\t/// @notice Admin function\n\tfunction setIndexContract(address index_) public onlyOwner {\n\t\t_index = ICrawlerIndex(index_);\n\t}\n\n\t/// @notice Admin function\n\tfunction sePlayerContract(address player_) public onlyOwner {\n\t\t_player = ICrawlerPlayer(player_);\n\t}\n\n\t/// @notice Admin function\n\tfunction setSigner(address signer_) public onlyOwner {\n\t\t_signerAddress = signer_;\n\t}\n\n\t/// @notice Admin function\n\tfunction setPrice(uint256 priceInPwei_, uint256 maxPriceInPwei_) public onlyOwner {\n\t\t_priceInPwei = priceInPwei_;\n\t\t_maxPriceInPwei = maxPriceInPwei_;\n\t}\n\n\t/// @notice Admin function\n\tfunction setPaused(bool paused_) public onlyOwner {\n\t\t_paused = paused_;\n\t\temit Paused(_paused);\n\t}\n\n\t/// @notice Admin function\n\tfunction checkout(uint256 eth) public onlyOwner {\n\t\tpayable(msg.sender).transfer(Crawl.min(eth * 1_000_000_000_000_000_000, address(this).balance));\n\t}\n\n\t//---------------\n\t// Public\n\t//\n\n\t/// @notice Return the current pause status\n\t/// @return paused True if paused (cannot mint), False if not (can mint)\n\tfunction isPaused() public view override returns (bool) {\n\t\treturn _paused;\n\t}\n\n\t/// @notice Return the current mint prices\n\t/// @return prices Prices in PWEI (1 pwei = ETH/1000): single token price, max token price\n\tfunction getPrices() public view override returns (uint256, uint256) {\n\t\treturn (_priceInPwei, _maxPriceInPwei);\n\t}\n\n\t/// @notice Return the current mint prices\n\t/// Price is FREE for the first token\n\t/// Price is FREE when minted in-game, provided signature\n\t/// Otherwise, price is _priceInPwei per owned token, capped at _maxPriceInPwei\n\t/// @param to Account for which price will be calculated\n\t/// @return price Token price for account, in WEI\n\tfunction calculateMintPrice(address to) public view override returns (uint256) {\n\t\treturn to == owner() ? 0 : Crawl.min(balanceOf(to) * _priceInPwei, _maxPriceInPwei) * 1_000_000_000_000_000;\n\t}\n\n\t/// @notice Returns a Chamber coordinate\n\t/// @param tokenId Token id\n\t/// @return result Chamber coordinate\n\tfunction tokenIdToCoord(uint256 tokenId) public view override returns (uint256) {\n\t\treturn _tokenIdToCoord[tokenId];\n\t}\n\n\t/// @notice Returns a Chamber static immutable data\n\t/// @param coord Chamber coordinate\n\t/// @return result Crawl.ChamberSeed struct\n\tfunction coordToSeed(uint256 coord) public view override returns (Crawl.ChamberSeed memory) {\n\t\treturn _coordToSeed[coord];\n\t}\n\n\t/// @notice Returns a Chamber generated data\n\t/// @param chapterNumber The Chapter number, or 0 for current chapter\n\t/// @param coord Chamber coordinate\n\t/// @param generateMaps True for generating bitmap and tilemap\n\t/// @return result Crawl.ChamberData struct\n\tfunction coordToChamberData(uint8 chapterNumber, uint256 coord, bool generateMaps) public view override returns (Crawl.ChamberData memory result) {\n\t\treturn _index.getChamberData(chapterNumber, coord, _coordToSeed[coord], generateMaps);\n\t}\n\n\t/// @notice Returns a Chamber Hoard (gems and coins)\n\t/// @param tokenId Token id\n\t/// @return result Crawl.Hoard struct\n\tfunction tokenIdToHoard(uint256 tokenId) public view override returns (Crawl.Hoard memory) {\n\t\treturn _index.getChamberGenerator().generateHoard(_coordToSeed[_tokenIdToCoord[tokenId]].seed);\n\t}\n\n\t/// @notice Unlocks a door, minting a new Chamber\n\t/// @param fromCoord Chamber coordinate, where door is located\n\t/// @param dir Door direction\n\t/// @param signature signature from endlesscrawler.io allowing free mint. if absent, calculateMintPrice(msg.sender) must be sent as msg.value\n\t/// @return tokenId Token id\n\tfunction mintDoor(uint256 fromCoord, Crawl.Dir dir, bytes calldata signature) public payable returns (uint256) {\n\t\tif(_paused) revert MintingIsPaused();\n\n\t\tCrawl.ChamberSeed storage fromChamber = _coordToSeed[fromCoord];\n\t\tif(fromChamber.tokenId == 0) revert InvalidFromChamber();\n\n\t\t// New chamber must be empty\n\t\tuint256 newCoord = Crawl.offsetCoord(fromCoord, dir);\n\t\tif(_coordToSeed[newCoord].tokenId > 0) revert DoorAlreadyUnlocked();\n\n\t\t// If has signature, validate it to mint for free\n\t\tif(signature.length > 0) {\n\t\t\tif(ECDSA.recover(ECDSA.toEthSignedMessageHash(keccak256(abi.encode(msg.sender, newCoord))), signature) != _signerAddress) revert InvalidSignature();\n\t\t} else {\n\t\t\t// Validate price\n\t\t\tuint256 mintPrice = calculateMintPrice(msg.sender);\n\t\t\tif(msg.value < mintPrice) revert InvalidValue(msg.value, mintPrice);\n\t\t}\n\n\t\t// Chamber type is defined by a super simple cellular automata\n\t\t// If chamber opposite to fromCoord is different than it, repeat its Terrain, else randomize\n\t\tCrawl.Dir entryDir = Crawl.flipDir(dir);\n\t\tCrawl.Terrain terrain =\n\t\t\tfromChamber.terrain != _coordToSeed[Crawl.offsetCoord(fromCoord, entryDir)].terrain\n\t\t\t? Crawl.Terrain(fromChamber.terrain)\n\t\t\t: _index.getChamberGenerator().generateTerrainType(fromChamber.seed+uint256(dir), Crawl.Terrain(fromChamber.terrain));\n\t\t\n\t\t// mint!\n\t\treturn _mint(\n\t\t\tnewCoord,\n\t\t\tfromChamber.yonder + 1,\n\t\t\tterrain,\n\t\t\tentryDir);\n\t}\n\n\t/// @dev Internal mint function\n\tfunction _mint(uint256 coord, uint232 yonder, Crawl.Terrain terrain, Crawl.Dir entryDir) internal returns (uint256) {\n\t\tuint256 tokenId = _mintedCount + 1;\n\t\tuint256 seed = uint256(keccak256(abi.encodePacked(blockhash(block.number-1), tokenId)));\n\t\t_tokenIdToCoord[tokenId] = coord;\n\t\t_coordToSeed[coord] = Crawl.ChamberSeed(\n\t\t\ttokenId,\n\t\t\tseed,\n\t\t\tyonder,\n\t\t\t_index.getCurrentChapterNumber(),\n\t\t\tterrain,\n\t\t\tentryDir\n\t\t);\n\t\t_safeMint(msg.sender, tokenId);\n\t\temit Minted(msg.sender, tokenId, coord);\n\t\t_mintedCount = tokenId;\n\t\treturn tokenId;\n\t}\n\n\t/// @notice Returns IERC721Metadata compliant metadata\n\t/// @param tokenId Token id\n\t/// @return metadata Metadata, as base64 json string\n\tfunction tokenURI(uint256 tokenId) public view override (ERC721, IERC721Metadata) returns (string memory) {\n\t\tif(!_exists(tokenId)) revert InvalidTokenId(tokenId);\n\t\treturn getTokenMetadata(0, _tokenIdToCoord[tokenId]);\n\t}\n\n\t/// @notice Returns IERC721Metadata compliant metadata, used by tokenURI()\n\t/// @param chapterNumber The Chapter number, or 0 for current chapter\n\t/// @param coord Chamber coordinate\n\t/// @return metadata Metadata, as base64 json string\n\tfunction getTokenMetadata(uint8 chapterNumber, uint256 coord) public view returns (string memory) {\n\t\treturn _index.getTokenMetadata(chapterNumber, coord, _coordToSeed[coord]);\n\t}\n\n\t/// @notice Returns a Chamber metadata, without maps\n\t/// @param chapterNumber The Chapter number, or 0 for current chapter\n\t/// @param coord Chamber coordinate\n\t/// @return metadata Metadata, as plain json string\n\tfunction getChamberMetadata(uint8 chapterNumber, uint256 coord) public view returns (string memory) {\n\t\treturn _index.getChamberMetadata(chapterNumber, coord, _coordToSeed[coord]);\n\t}\n\n\t/// @notice Returns the seed and tilemap of a Chamber, used for world building\n\t/// @param chapterNumber The Chapter number, or 0 for current chapter\n\t/// @param coord Chamber coordinate\n\t/// @return metadata Metadata, as plain json string\n\tfunction getMapMetadata(uint8 chapterNumber, uint256 coord) public view returns (string memory) {\n\t\treturn _index.getMapMetadata(chapterNumber, coord, _coordToSeed[coord]);\n\t}\n\n}\n",
  "sourcePath": "/Users/roger/Dev/Blockchain/Truffle/ec-crawler/contracts/limbo/LimboToken.sol",
  "compiler": {
    "name": "solc",
    "version": "0.8.16+commit.07a7930e.Emscripten.clang"
  },
  "schemaVersion": "3.4.11",
  "updatedAt": "2022-12-05T23:24:08.679Z",
  "devdoc": {
    "kind": "dev",
    "methods": {
      "_totalSupply()": {
        "details": "Required by ERC721 interfaces"
      },
      "approve(address,uint256)": {
        "details": "See {IERC721-approve}."
      },
      "balanceOf(address)": {
        "details": "See {IERC721-balanceOf}."
      },
      "calculateMintPrice(address)": {
        "params": {
          "to": "Account for which price will be calculated"
        },
        "returns": {
          "_0": "price Token price for account, in WEI"
        }
      },
      "coordToChamberData(uint8,uint256,bool)": {
        "params": {
          "chapterNumber": "The Chapter number, or 0 for current chapter",
          "coord": "Chamber coordinate",
          "generateMaps": "True for generating bitmap and tilemap"
        },
        "returns": {
          "result": "Crawl.ChamberData struct"
        }
      },
      "coordToSeed(uint256)": {
        "params": {
          "coord": "Chamber coordinate"
        },
        "returns": {
          "_0": "result Crawl.ChamberSeed struct"
        }
      },
      "getApproved(uint256)": {
        "details": "See {IERC721-getApproved}."
      },
      "getChamberMetadata(uint8,uint256)": {
        "params": {
          "chapterNumber": "The Chapter number, or 0 for current chapter",
          "coord": "Chamber coordinate"
        },
        "returns": {
          "_0": "metadata Metadata, as plain json string"
        }
      },
      "getMapMetadata(uint8,uint256)": {
        "params": {
          "chapterNumber": "The Chapter number, or 0 for current chapter",
          "coord": "Chamber coordinate"
        },
        "returns": {
          "_0": "metadata Metadata, as plain json string"
        }
      },
      "getPrices()": {
        "returns": {
          "_0": "prices Prices in PWEI (1 pwei = ETH/1000): single token price, max token price"
        }
      },
      "getTokenMetadata(uint8,uint256)": {
        "params": {
          "chapterNumber": "The Chapter number, or 0 for current chapter",
          "coord": "Chamber coordinate"
        },
        "returns": {
          "_0": "metadata Metadata, as base64 json string"
        }
      },
      "isApprovedForAll(address,address)": {
        "details": "See {IERC721-isApprovedForAll}."
      },
      "isPaused()": {
        "returns": {
          "_0": "paused True if paused (cannot mint), False if not (can mint)"
        }
      },
      "mintDoor(uint256,uint8,bytes)": {
        "params": {
          "dir": "Door direction",
          "fromCoord": "Chamber coordinate, where door is located",
          "signature": "signature from endlesscrawler.io allowing free mint. if absent, calculateMintPrice(msg.sender) must be sent as msg.value"
        },
        "returns": {
          "_0": "tokenId Token id"
        }
      },
      "name()": {
        "details": "See {IERC721Metadata-name}."
      },
      "owner()": {
        "details": "Returns the address of the current owner."
      },
      "ownerOf(uint256)": {
        "details": "See {IERC721-ownerOf}."
      },
      "renounceOwnership()": {
        "details": "Leaves the contract without owner. It will not be possible to call `onlyOwner` functions anymore. Can only be called by the current owner. NOTE: Renouncing ownership will leave the contract without an owner, thereby removing any functionality that is only available to the owner."
      },
      "safeTransferFrom(address,address,uint256)": {
        "details": "See {IERC721-safeTransferFrom}."
      },
      "safeTransferFrom(address,address,uint256,bytes)": {
        "details": "See {IERC721-safeTransferFrom}."
      },
      "setApprovalForAll(address,bool)": {
        "details": "See {IERC721-setApprovalForAll}."
      },
      "supportsInterface(bytes4)": {
        "details": "Required by ERC721 interfaces"
      },
      "symbol()": {
        "details": "See {IERC721Metadata-symbol}."
      },
      "tokenByIndex(uint256)": {
        "details": "See {IERC721Enumerable-tokenByIndex}."
      },
      "tokenIdToCoord(uint256)": {
        "params": {
          "tokenId": "Token id"
        },
        "returns": {
          "_0": "result Chamber coordinate"
        }
      },
      "tokenIdToHoard(uint256)": {
        "params": {
          "tokenId": "Token id"
        },
        "returns": {
          "_0": "result Crawl.Hoard struct"
        }
      },
      "tokenOfOwnerByIndex(address,uint256)": {
        "details": "See {IERC721Enumerable-tokenOfOwnerByIndex}."
      },
      "tokenURI(uint256)": {
        "params": {
          "tokenId": "Token id"
        },
        "returns": {
          "_0": "metadata Metadata, as base64 json string"
        }
      },
      "totalSupply()": {
        "details": "See {IERC721Enumerable-totalSupply}."
      },
      "transferFrom(address,address,uint256)": {
        "details": "See {IERC721-transferFrom}."
      },
      "transferOwnership(address)": {
        "details": "Transfers ownership of the contract to a new account (`newOwner`). Can only be called by the current owner."
      }
    },
    "version": 1
  },
  "userdoc": {
    "kind": "user",
    "methods": {
      "calculateMintPrice(address)": {
        "notice": "Return the current mint prices Price is FREE for the first token Price is FREE when minted in-game, provided signature Otherwise, price is _priceInPwei per owned token, capped at _maxPriceInPwei"
      },
      "checkout(uint256)": {
        "notice": "Admin function"
      },
      "coordToChamberData(uint8,uint256,bool)": {
        "notice": "Returns a Chamber generated data"
      },
      "coordToSeed(uint256)": {
        "notice": "Returns a Chamber static immutable data"
      },
      "getChamberMetadata(uint8,uint256)": {
        "notice": "Returns a Chamber metadata, without maps"
      },
      "getMapMetadata(uint8,uint256)": {
        "notice": "Returns the seed and tilemap of a Chamber, used for world building"
      },
      "getPrices()": {
        "notice": "Return the current mint prices"
      },
      "getTokenMetadata(uint8,uint256)": {
        "notice": "Returns IERC721Metadata compliant metadata, used by tokenURI()"
      },
      "isPaused()": {
        "notice": "Return the current pause status"
      },
      "mintDoor(uint256,uint8,bytes)": {
        "notice": "Unlocks a door, minting a new Chamber"
      },
      "sePlayerContract(address)": {
        "notice": "Admin function"
      },
      "setIndexContract(address)": {
        "notice": "Admin function"
      },
      "setPaused(bool)": {
        "notice": "Admin function"
      },
      "setPrice(uint256,uint256)": {
        "notice": "Admin function"
      },
      "setSigner(address)": {
        "notice": "Admin function"
      },
      "tokenIdToCoord(uint256)": {
        "notice": "Returns a Chamber coordinate"
      },
      "tokenIdToHoard(uint256)": {
        "notice": "Returns a Chamber Hoard (gems and coins)"
      },
      "tokenURI(uint256)": {
        "notice": "Returns IERC721Metadata compliant metadata"
      }
    },
    "version": 1
  }
}