{
  "contractName": "TestCrawl",
  "abi": [
    {
      "inputs": [],
      "stateMutability": "nonpayable",
      "type": "constructor"
    },
    {
      "anonymous": false,
      "inputs": [],
      "name": "Event",
      "type": "event"
    },
    {
      "inputs": [],
      "name": "_uint8",
      "outputs": [
        {
          "internalType": "uint8",
          "name": "",
          "type": "uint8"
        }
      ],
      "stateMutability": "view",
      "type": "function"
    },
    {
      "inputs": [
        {
          "internalType": "bytes4",
          "name": "interfaceId",
          "type": "bytes4"
        }
      ],
      "name": "supportsInterface",
      "outputs": [
        {
          "internalType": "bool",
          "name": "",
          "type": "bool"
        }
      ],
      "stateMutability": "view",
      "type": "function"
    },
    {
      "inputs": [
        {
          "internalType": "enum Crawl.Terrain",
          "name": "terrain",
          "type": "uint8"
        }
      ],
      "name": "getOppositeTerrain",
      "outputs": [
        {
          "internalType": "enum Crawl.Terrain",
          "name": "",
          "type": "uint8"
        }
      ],
      "stateMutability": "pure",
      "type": "function"
    },
    {
      "inputs": [
        {
          "internalType": "enum Crawl.Dir",
          "name": "dir",
          "type": "uint8"
        }
      ],
      "name": "flipDir",
      "outputs": [
        {
          "internalType": "enum Crawl.Dir",
          "name": "",
          "type": "uint8"
        }
      ],
      "stateMutability": "pure",
      "type": "function"
    },
    {
      "inputs": [
        {
          "internalType": "uint8",
          "name": "doorPos",
          "type": "uint8"
        },
        {
          "internalType": "enum Crawl.Dir",
          "name": "dir",
          "type": "uint8"
        }
      ],
      "name": "flipDoorPosition",
      "outputs": [
        {
          "internalType": "uint8",
          "name": "result",
          "type": "uint8"
        }
      ],
      "stateMutability": "pure",
      "type": "function"
    },
    {
      "inputs": [
        {
          "internalType": "uint64",
          "name": "north",
          "type": "uint64"
        },
        {
          "internalType": "uint64",
          "name": "east",
          "type": "uint64"
        },
        {
          "internalType": "uint64",
          "name": "west",
          "type": "uint64"
        },
        {
          "internalType": "uint64",
          "name": "south",
          "type": "uint64"
        }
      ],
      "name": "makeCoord",
      "outputs": [
        {
          "internalType": "uint256",
          "name": "result",
          "type": "uint256"
        }
      ],
      "stateMutability": "pure",
      "type": "function"
    },
    {
      "inputs": [
        {
          "internalType": "uint256",
          "name": "coord",
          "type": "uint256"
        },
        {
          "internalType": "enum Crawl.Dir",
          "name": "dir",
          "type": "uint8"
        }
      ],
      "name": "offsetCoord",
      "outputs": [
        {
          "internalType": "uint256",
          "name": "",
          "type": "uint256"
        }
      ],
      "stateMutability": "pure",
      "type": "function"
    },
    {
      "inputs": [
        {
          "internalType": "enum Crawl.Gem",
          "name": "gem",
          "type": "uint8"
        }
      ],
      "name": "getGemValue",
      "outputs": [
        {
          "internalType": "uint128",
          "name": "",
          "type": "uint128"
        }
      ],
      "stateMutability": "pure",
      "type": "function"
    },
    {
      "inputs": [
        {
          "internalType": "uint256",
          "name": "seed_",
          "type": "uint256"
        },
        {
          "internalType": "uint256",
          "name": "min_",
          "type": "uint256"
        },
        {
          "internalType": "uint256",
          "name": "maxExcl_",
          "type": "uint256"
        }
      ],
      "name": "mapSeed",
      "outputs": [
        {
          "internalType": "uint256",
          "name": "",
          "type": "uint256"
        }
      ],
      "stateMutability": "pure",
      "type": "function"
    },
    {
      "inputs": [
        {
          "internalType": "uint256",
          "name": "seed_",
          "type": "uint256"
        }
      ],
      "name": "mapSeedToBitmapPosition",
      "outputs": [
        {
          "internalType": "uint8",
          "name": "",
          "type": "uint8"
        }
      ],
      "stateMutability": "pure",
      "type": "function"
    },
    {
      "inputs": [
        {
          "internalType": "bytes1",
          "name": "value_",
          "type": "bytes1"
        }
      ],
      "name": "toHexStringBytes1",
      "outputs": [
        {
          "internalType": "string",
          "name": "",
          "type": "string"
        }
      ],
      "stateMutability": "pure",
      "type": "function"
    },
    {
      "inputs": [
        {
          "internalType": "bytes",
          "name": "value_",
          "type": "bytes"
        }
      ],
      "name": "toHexStringBytes",
      "outputs": [
        {
          "internalType": "string",
          "name": "",
          "type": "string"
        }
      ],
      "stateMutability": "pure",
      "type": "function"
    },
    {
      "inputs": [
        {
          "internalType": "bytes",
          "name": "value_",
          "type": "bytes"
        },
        {
          "internalType": "uint256",
          "name": "start_",
          "type": "uint256"
        },
        {
          "internalType": "uint256",
          "name": "length_",
          "type": "uint256"
        }
      ],
      "name": "toHexStringBytesLen",
      "outputs": [
        {
          "internalType": "string",
          "name": "",
          "type": "string"
        }
      ],
      "stateMutability": "pure",
      "type": "function"
    },
    {
      "inputs": [
        {
          "internalType": "uint256",
          "name": "coord",
          "type": "uint256"
        },
        {
          "internalType": "uint256",
          "name": "yonder",
          "type": "uint256"
        },
        {
          "internalType": "string",
          "name": "separator",
          "type": "string"
        }
      ],
      "name": "coordsToString",
      "outputs": [
        {
          "internalType": "string",
          "name": "",
          "type": "string"
        }
      ],
      "stateMutability": "pure",
      "type": "function"
    },
    {
      "inputs": [
        {
          "internalType": "uint8",
          "name": "doorNorth",
          "type": "uint8"
        },
        {
          "internalType": "uint8",
          "name": "doorEast",
          "type": "uint8"
        },
        {
          "internalType": "uint8",
          "name": "doorWest",
          "type": "uint8"
        },
        {
          "internalType": "uint8",
          "name": "doorSouth",
          "type": "uint8"
        }
      ],
      "name": "makeChamberData",
      "outputs": [
        {
          "components": [
            {
              "internalType": "uint256",
              "name": "coord",
              "type": "uint256"
            },
            {
              "internalType": "uint256",
              "name": "tokenId",
              "type": "uint256"
            },
            {
              "internalType": "uint256",
              "name": "seed",
              "type": "uint256"
            },
            {
              "internalType": "uint232",
              "name": "yonder",
              "type": "uint232"
            },
            {
              "internalType": "uint8",
              "name": "chapter",
              "type": "uint8"
            },
            {
              "internalType": "enum Crawl.Terrain",
              "name": "terrain",
              "type": "uint8"
            },
            {
              "internalType": "enum Crawl.Dir",
              "name": "entryDir",
              "type": "uint8"
            },
            {
              "components": [
                {
                  "internalType": "enum Crawl.Gem",
                  "name": "gemType",
                  "type": "uint8"
                },
                {
                  "internalType": "uint16",
                  "name": "coins",
                  "type": "uint16"
                },
                {
                  "internalType": "uint16",
                  "name": "worth",
                  "type": "uint16"
                }
              ],
              "internalType": "struct Crawl.Hoard",
              "name": "hoard",
              "type": "tuple"
            },
            {
              "internalType": "uint8",
              "name": "gemPos",
              "type": "uint8"
            },
            {
              "internalType": "uint8[4]",
              "name": "doors",
              "type": "uint8[4]"
            },
            {
              "internalType": "uint8[4]",
              "name": "locks",
              "type": "uint8[4]"
            },
            {
              "internalType": "uint256",
              "name": "bitmap",
              "type": "uint256"
            },
            {
              "internalType": "bytes",
              "name": "tilemap",
              "type": "bytes"
            },
            {
              "components": [
                {
                  "internalType": "enum Crawl.CustomDataType",
                  "name": "dataType",
                  "type": "uint8"
                },
                {
                  "internalType": "bytes",
                  "name": "data",
                  "type": "bytes"
                }
              ],
              "internalType": "struct Crawl.CustomData[]",
              "name": "customData",
              "type": "tuple[]"
            }
          ],
          "internalType": "struct Crawl.ChamberData",
          "name": "",
          "type": "tuple"
        }
      ],
      "stateMutability": "pure",
      "type": "function"
    },
    {
      "inputs": [],
      "name": "intInc",
      "outputs": [],
      "stateMutability": "nonpayable",
      "type": "function"
    },
    {
      "inputs": [],
      "name": "intDec",
      "outputs": [],
      "stateMutability": "nonpayable",
      "type": "function"
    },
    {
      "inputs": [],
      "name": "intAdd",
      "outputs": [],
      "stateMutability": "nonpayable",
      "type": "function"
    },
    {
      "inputs": [],
      "name": "intSub",
      "outputs": [],
      "stateMutability": "nonpayable",
      "type": "function"
    },
    {
      "inputs": [],
      "name": "safeIntAdd",
      "outputs": [],
      "stateMutability": "nonpayable",
      "type": "function"
    },
    {
      "inputs": [],
      "name": "safeIntSub",
      "outputs": [],
      "stateMutability": "nonpayable",
      "type": "function"
    },
    {
      "inputs": [],
      "name": "type_converts",
      "outputs": [
        {
          "internalType": "bool",
          "name": "",
          "type": "bool"
        }
      ],
      "stateMutability": "pure",
      "type": "function"
    },
    {
      "inputs": [],
      "name": "eventBaseline",
      "outputs": [],
      "stateMutability": "nonpayable",
      "type": "function"
    },
    {
      "inputs": [
        {
          "internalType": "uint256",
          "name": "number_",
          "type": "uint256"
        }
      ],
      "name": "Strings_toStringInline",
      "outputs": [
        {
          "internalType": "string",
          "name": "",
          "type": "string"
        }
      ],
      "stateMutability": "nonpayable",
      "type": "function"
    },
    {
      "inputs": [
        {
          "internalType": "uint256",
          "name": "number_",
          "type": "uint256"
        }
      ],
      "name": "Strings_toString",
      "outputs": [
        {
          "internalType": "string",
          "name": "",
          "type": "string"
        }
      ],
      "stateMutability": "nonpayable",
      "type": "function"
    },
    {
      "inputs": [
        {
          "internalType": "uint256",
          "name": "number_",
          "type": "uint256"
        }
      ],
      "name": "Strings_toHex",
      "outputs": [
        {
          "internalType": "string",
          "name": "",
          "type": "string"
        }
      ],
      "stateMutability": "nonpayable",
      "type": "function"
    }
  ],
  "bytecode": "0x608060405234801561001057600080fd5b50613e20806100206000396000f3fe608060405234801561001057600080fd5b506004361061018e5760003560e01c8063886ed8b0116100de578063c20f941711610097578063da67cdbd11610071578063da67cdbd146104d1578063e067b957146104db578063ee35003c146104e5578063f59f6584146105155761018e565b8063c20f941714610467578063c7a85d1514610471578063ce910934146104a15761018e565b8063886ed8b01461037f5780639329cb271461039d578063a9833ed1146103cd578063acb57d2a146103d7578063adb333d314610407578063b9facfca146104375761018e565b80635698e5171161014b5780636ba600c7116101255780636ba600c7146102f757806373f05b9f146103015780637aca94a4146103315780637c05b114146103615761018e565b80635698e517146102675780635ea094e91461029757806362417338146102c75761018e565b806301ffc9a7146101935780630922be0f146101c35780631f0bd2cf146101cd57806323ba69b9146101fd57806338754b0a1461022d5780634dc967e71461025d575b600080fd5b6101ad60048036038101906101a891906121c9565b610545565b6040516101ba9190612211565b60405180910390f35b6101cb610557565b005b6101e760048036038101906101e29190612251565b610590565b6040516101f491906122f5565b60405180910390f35b61021760048036038101906102129190612349565b6105a2565b6040516102249190612398565b60405180910390f35b610247600480360381019061024291906123e9565b6105b6565b60405161025491906124a6565b60405180910390f35b6102656105f4565b005b610281600480360381019061027c9190612520565b610622565b60405161028e91906124a6565b60405180910390f35b6102b160048036038101906102ac9190612682565b6106a8565b6040516102be91906124a6565b60405180910390f35b6102e160048036038101906102dc91906126cb565b61072e565b6040516102ee91906124a6565b60405180910390f35b6102ff6107ba565b005b61031b600480360381019061031691906127db565b6107f3565b60405161032891906124a6565b60405180910390f35b61034b600480360381019061034691906123e9565b61087f565b6040516103589190612398565b60405180910390f35b610369610891565b6040516103769190612398565b60405180910390f35b6103876108a2565b6040516103949190612211565b60405180910390f35b6103b760048036038101906103b2919061288a565b610e3e565b6040516103c49190612900565b60405180910390f35b6103d5610e7e565b005b6103f160048036038101906103ec91906123e9565b610eb3565b6040516103fe91906124a6565b60405180910390f35b610421600480360381019061041c919061291b565b610ef1565b60405161042e9190612900565b60405180910390f35b610451600480360381019061044c9190612993565b610f07565b60405161045e9190612a08565b60405180910390f35b61046f610f19565b005b61048b60048036038101906104869190612a48565b610f52565b6040516104989190612aa0565b60405180910390f35b6104bb60048036038101906104b69190612abb565b610f68565b6040516104c89190612900565b60405180910390f35b6104d9610f7c565b005b6104e3610fb1565b005b6104ff60048036038101906104fa9190612afb565b610fea565b60405161050c9190612fea565b60405180910390f35b61052f600480360381019061052a91906123e9565b6111ec565b60405161053c91906124a6565b60405180910390f35b60006105508261122a565b9050919050565b60008081819054906101000a900460ff16809291906105759061303b565b91906101000a81548160ff021916908360ff16021790555050565b600061059b82611294565b9050919050565b60006105ae83836112ce565b905092915050565b60607f57050ab73f6b9ebdd9f76b8d4997793f48cf956e965ee070551b9ca0bb71584e60405160405180910390a16105ed826113f0565b9050919050565b7f57050ab73f6b9ebdd9f76b8d4997793f48cf956e965ee070551b9ca0bb71584e60405160405180910390a1565b606073__Crawl_________________________________636659dd5d836040518263ffffffff1660e01b815260040161065b9190613073565b600060405180830381865af4158015610678573d6000803e3d6000fd5b505050506040513d6000823e3d601f19601f820116820180604052508101906106a191906130fe565b9050919050565b606073__Crawl_________________________________63c9372793836040518263ffffffff1660e01b81526004016106e19190613191565b600060405180830381865af41580156106fe573d6000803e3d6000fd5b505050506040513d6000823e3d601f19601f8201168201806040525081019061072791906130fe565b9050919050565b606073__Crawl_________________________________63afdf4e1c8585856040518463ffffffff1660e01b815260040161076b939291906131c2565b600060405180830381865af4158015610788573d6000803e3d6000fd5b505050506040513d6000823e3d601f19601f820116820180604052508101906107b191906130fe565b90509392505050565b60008081819054906101000a900460ff16809291906107d890613200565b91906101000a81548160ff021916908360ff16021790555050565b606073__Crawl_________________________________6373f05b9f8585856040518463ffffffff1660e01b815260040161083093929190613273565b600060405180830381865af415801561084d573d6000803e3d6000fd5b505050506040513d6000823e3d601f19601f8201168201806040525081019061087691906130fe565b90509392505050565b600061088a826114be565b9050919050565b60008054906101000a900460ff1681565b6000807fffffffffffffffffffffffffffffffffffffffffffffffffffffffffffffffff90506000602067ffffffffffffffff8111156108e5576108e4612557565b5b6040519080825280601f01601f1916602001820160405280156109175781602001600182028036833780820191505090505b5090508160405160200161092b9190612900565b6040516020818303038152906040529050600081610948906132ed565b60001c905082811461098f576040517f08c379a0000000000000000000000000000000000000000000000000000000008152600401610986906133a0565b60405180910390fd5b5050600060ab90506000600883901b90506000602167ffffffffffffffff8111156109bd576109bc612557565b5b6040519080825280601f01601f1916602001820160405280156109ef5781602001600182028036833780820191505090505b5090508183604051602001610a05929190613417565b6040516020818303038152906040529050600081610a22906132ed565b60001c9050600082602081518110610a3d57610a3c613443565b5b602001015160f81c60f81b60f81c90508460ff168160ff1614610a628260ff16611520565b610a6e8760ff16611520565b85604051602001610a819392919061361a565b60405160208183030381529060405290610ad1576040517f08c379a0000000000000000000000000000000000000000000000000000000008152600401610ac891906124a6565b60405180910390fd5b50838214610ade83611520565b610ae786611520565b85604051602001610afa9392919061375b565b60405160208183030381529060405290610b4a576040517f08c379a0000000000000000000000000000000000000000000000000000000008152600401610b4191906124a6565b60405180910390fd5b505050506000600267ffffffffffffffff811115610b6b57610b6a612557565b5b604051908082528060200260200182016040528015610b9e57816020015b6060815260200190600190039081610b895790505b50905083604051602001610bb29190612900565b60405160208183030381529060405281600081518110610bd557610bd4613443565b5b6020026020010181905250600081600081518110610bf657610bf5613443565b5b6020026020010151610c07906132ed565b60001c9050848114610c4e576040517f08c379a0000000000000000000000000000000000000000000000000000000008152600401610c45906133a0565b60405180910390fd5b8284604051602001610c61929190613417565b60405160208183030381529060405282600181518110610c8457610c83613443565b5b6020026020010181905250600082600181518110610ca557610ca4613443565b5b6020026020010151610cb6906132ed565b60001c9050600083600181518110610cd157610cd0613443565b5b6020026020010151602081518110610cec57610ceb613443565b5b602001015160f81c60f81b60f81c90508560ff168160ff1614610d118260ff16611520565b610d1d8860ff16611520565b86600181518110610d3157610d30613443565b5b6020026020010151604051602001610d4b93929190613804565b60405160208183030381529060405290610d9b576040517f08c379a0000000000000000000000000000000000000000000000000000000008152600401610d9291906124a6565b60405180910390fd5b50848214610da883611520565b610db187611520565b86600181518110610dc557610dc4613443565b5b6020026020010151604051602001610ddf939291906138ad565b60405160208183030381529060405290610e2f576040517f08c379a0000000000000000000000000000000000000000000000000000000008152600401610e2691906124a6565b60405180910390fd5b50505050506001935050505090565b6000610e748567ffffffffffffffff168567ffffffffffffffff168567ffffffffffffffff168567ffffffffffffffff1661153e565b9050949350505050565b600160008054906101000a900460ff16610e98919061390a565b6000806101000a81548160ff021916908360ff160217905550565b60607f57050ab73f6b9ebdd9f76b8d4997793f48cf956e965ee070551b9ca0bb71584e60405160405180910390a1610eea82611520565b9050919050565b6000610efe8484846116c1565b90509392505050565b6000610f12826116ee565b9050919050565b60008081819054906101000a900460ff1680929190610f3790613200565b91906101000a81548160ff021916908360ff16021790555050565b6000610f5d8261176c565b61ffff169050919050565b6000610f7483836118ee565b905092915050565b600160008054906101000a900460ff16610f96919061393f565b6000806101000a81548160ff021916908360ff160217905550565b60008081819054906101000a900460ff1680929190610fcf9061303b565b91906101000a81548160ff021916908360ff16021790555050565b610ff261200a565b604051806101c0016040528060008152602001600081526020016000815260200160007cffffffffffffffffffffffffffffffffffffffffffffffffffffffffff168152602001600160ff168152602001600060048111156110575761105661227e565b5b8152602001600060038111156110705761106f61227e565b5b81526020016040518060600160405280600060088111156110945761109361227e565b5b8152602001600061ffff168152602001600061ffff168152508152602001600060ff16815260200160405180608001604052808860ff1660ff1681526020018760ff1660ff1681526020018660ff1660ff1681526020018560ff1660ff1681525081526020016040518060800160405280600060ff168152602001600060ff168152602001600060ff168152602001600060ff16815250815260200160008152602001600067ffffffffffffffff81111561115257611151612557565b5b6040519080825280601f01601f1916602001820160405280156111845781602001600182028036833780820191505090505b508152602001600067ffffffffffffffff8111156111a5576111a4612557565b5b6040519080825280602002602001820160405280156111de57816020015b6111cb6120d4565b8152602001906001900390816111c35790505b508152509050949350505050565b60607f57050ab73f6b9ebdd9f76b8d4997793f48cf956e965ee070551b9ca0bb71584e60405160405180910390a1611223826113f0565b9050919050565b60007f01ffc9a7000000000000000000000000000000000000000000000000000000007bffffffffffffffffffffffffffffffffffffffffffffffffffffffff1916827bffffffffffffffffffffffffffffffffffffffffffffffffffffffff1916149050919050565b60008160038111156112a9576112a861227e565b5b60036112b59190613974565b60038111156112c7576112c661227e565b5b9050919050565b60008060038111156112e3576112e261227e565b5b8260038111156112f6576112f561227e565b5b036113225760008360ff161161130d57600061131b565b60f08361131a919061393f565b5b90506113ea565b6003808111156113355761133461227e565b5b8260038111156113485761134761227e565b5b036113745760008360ff161161135f57600061136d565b60f08361136c919061390a565b5b90506113ea565b600260038111156113885761138761227e565b5b82600381111561139b5761139a61227e565b5b036113c75760008360ff16116113b25760006113c0565b600f836113bf919061393f565b5b90506113ea565b60008360ff16116113d95760006113e7565b600f836113e6919061390a565b5b90505b92915050565b6060600060016113ff84611beb565b01905060008167ffffffffffffffff81111561141e5761141d612557565b5b6040519080825280601f01601f1916602001820160405280156114505781602001600182028036833780820191505090505b509050600082602001820190505b6001156114b3578080600190039150507f3031323334353637383961626364656600000000000000000000000000000000600a86061a8153600a85816114a7576114a66139a8565b5b0494506000850361145e575b819350505050919050565b6000806090836114ce91906139d7565b90506002600c826114df9190613a08565b60106002600c856114f09190613a39565b6114fa919061393f565b6115049190613a6a565b61150e919061393f565b611518919061393f565b915050919050565b606061153782600161153185611d3e565b01611dce565b9050919050565b6000808511156115a2576000821461158b576040517f08c379a000000000000000000000000000000000000000000000000000000000815260040161158290613b17565b60405180910390fd5b60c085901b8161159b9190613b37565b90506115fa565b60008211156115be5781816115b79190613b37565b90506115f9565b6040517f08c379a00000000000000000000000000000000000000000000000000000000081526004016115f090613bdd565b60405180910390fd5b5b600084111561165d5760008314611646576040517f08c379a000000000000000000000000000000000000000000000000000000000815260040161163d90613c49565b60405180910390fd5b608084901b816116569190613b37565b90506116b9565b600083111561167d57604083901b816116769190613b37565b90506116b8565b6040517f08c379a00000000000000000000000000000000000000000000000000000000081526004016116af90613cdb565b60405180910390fd5b5b949350505050565b600082826116cf9190613974565b846116da91906139d7565b836116e59190613b37565b90509392505050565b6000808260048111156117045761170361227e565b5b9050600381101561174457600181101561171f57600061173f565b60028161172c9190613b37565b600481111561173e5761173d61227e565b5b5b611764565b6002816117519190613974565b60048111156117635761176261227e565b5b5b915050919050565b60008060088111156117815761178061227e565b5b8260088111156117945761179361227e565b5b036117a257603290506118e9565b600160088111156117b6576117b561227e565b5b8260088111156117c9576117c861227e565b5b036117d757606490506118e9565b600260088111156117eb576117ea61227e565b5b8260088111156117fe576117fd61227e565b5b0361180c57609690506118e9565b600360088111156118205761181f61227e565b5b8260088111156118335761183261227e565b5b036118415760c890506118e9565b600460088111156118555761185461227e565b5b8260088111156118685761186761227e565b5b036118775761012c90506118e9565b6005600881111561188b5761188a61227e565b5b82600881111561189e5761189d61227e565b5b036118ad576101f490506118e9565b600660088111156118c1576118c061227e565b5b8260088111156118d4576118d361227e565b5b036118e35761032090506118e9565b6103e990505b919050565b60008060038111156119035761190261227e565b5b8260038111156119165761191561227e565b5b036119a757600167ffffffffffffffff8016841611156119445760018361193d9190613974565b9050611be5565b60c067ffffffffffffffff8016901b60c067ffffffffffffffff8016901b8416146119a257780100000000000000000000000000000000000000000000000067ffffffffffffffff801619841661199b9190613b37565b9050611be5565b611be1565b600160038111156119bb576119ba61227e565b5b8260038111156119ce576119cd61227e565b5b03611a6f5768010000000000000000604067ffffffffffffffff8016901b84161115611a10576801000000000000000083611a099190613974565b9050611be5565b608067ffffffffffffffff8016901b608067ffffffffffffffff8016901b841614611a6a57700100000000000000000000000000000000604067ffffffffffffffff8016901b198416611a639190613b37565b9050611be5565b611be0565b60026003811115611a8357611a8261227e565b5b826003811115611a9657611a9561227e565b5b03611b3f57700100000000000000000000000000000000608067ffffffffffffffff8016901b84161115611ae85770010000000000000000000000000000000083611ae19190613974565b9050611be5565b604067ffffffffffffffff8016901b604067ffffffffffffffff8016901b841614611b3a5768010000000000000000608067ffffffffffffffff8016901b198416611b339190613b37565b9050611be5565b611bdf565b780100000000000000000000000000000000000000000000000060c067ffffffffffffffff8016901b84161115611b9c57780100000000000000000000000000000000000000000000000083611b959190613974565b9050611be5565b67ffffffffffffffff801667ffffffffffffffff8016841614611bde57600160c067ffffffffffffffff8016901b198416611bd79190613b37565b9050611be5565b5b5b5b8290505b92915050565b600080600090507a184f03e93ff9f4daa797ed6e38ed64bf6a1f0100000000000000008310611c49577a184f03e93ff9f4daa797ed6e38ed64bf6a1f0100000000000000008381611c3f57611c3e6139a8565b5b0492506040810190505b6d04ee2d6d415b85acef81000000008310611c86576d04ee2d6d415b85acef81000000008381611c7c57611c7b6139a8565b5b0492506020810190505b662386f26fc100008310611cb557662386f26fc100008381611cab57611caa6139a8565b5b0492506010810190505b6305f5e1008310611cde576305f5e1008381611cd457611cd36139a8565b5b0492506008810190505b6127108310611d03576127108381611cf957611cf86139a8565b5b0492506004810190505b60648310611d265760648381611d1c57611d1b6139a8565b5b0492506002810190505b600a8310611d35576001810190505b80915050919050565b600080600090506000608084901c1115611d6057608083901c92506010810190505b6000604084901c1115611d7b57604083901c92506008810190505b6000602084901c1115611d9657602083901c92506004810190505b6000601084901c1115611db157601083901c92506002810190505b6000600884901c1115611dc5576001810190505b80915050919050565b606060006002836002611de19190613cfb565b611deb9190613b37565b67ffffffffffffffff811115611e0457611e03612557565b5b6040519080825280601f01601f191660200182016040528015611e365781602001600182028036833780820191505090505b5090507f300000000000000000000000000000000000000000000000000000000000000081600081518110611e6e57611e6d613443565b5b60200101907effffffffffffffffffffffffffffffffffffffffffffffffffffffffffffff1916908160001a9053507f780000000000000000000000000000000000000000000000000000000000000081600181518110611ed257611ed1613443565b5b60200101907effffffffffffffffffffffffffffffffffffffffffffffffffffffffffffff1916908160001a90535060006001846002611f129190613cfb565b611f1c9190613b37565b90505b6001811115611fbc577f3031323334353637383961626364656600000000000000000000000000000000600f861660108110611f5e57611f5d613443565b5b1a60f81b828281518110611f7557611f74613443565b5b60200101907effffffffffffffffffffffffffffffffffffffffffffffffffffffffffffff1916908160001a905350600485901c945080611fb590613d55565b9050611f1f565b5060008414612000576040517f08c379a0000000000000000000000000000000000000000000000000000000008152600401611ff790613dca565b60405180910390fd5b8091505092915050565b604051806101c0016040528060008152602001600081526020016000815260200160007cffffffffffffffffffffffffffffffffffffffffffffffffffffffffff168152602001600060ff1681526020016000600481111561206f5761206e61227e565b5b8152602001600060038111156120885761208761227e565b5b8152602001612095612100565b8152602001600060ff1681526020016120ac61213b565b81526020016120b961213b565b81526020016000815260200160608152602001606081525090565b60405180604001604052806000600f8111156120f3576120f261227e565b5b8152602001606081525090565b60405180606001604052806000600881111561211f5761211e61227e565b5b8152602001600061ffff168152602001600061ffff1681525090565b6040518060800160405280600490602082028036833780820191505090505090565b6000604051905090565b600080fd5b600080fd5b60007fffffffff0000000000000000000000000000000000000000000000000000000082169050919050565b6121a681612171565b81146121b157600080fd5b50565b6000813590506121c38161219d565b92915050565b6000602082840312156121df576121de612167565b5b60006121ed848285016121b4565b91505092915050565b60008115159050919050565b61220b816121f6565b82525050565b60006020820190506122266000830184612202565b92915050565b6004811061223957600080fd5b50565b60008135905061224b8161222c565b92915050565b60006020828403121561226757612266612167565b5b60006122758482850161223c565b91505092915050565b7f4e487b7100000000000000000000000000000000000000000000000000000000600052602160045260246000fd5b600481106122be576122bd61227e565b5b50565b60008190506122cf826122ad565b919050565b60006122df826122c1565b9050919050565b6122ef816122d4565b82525050565b600060208201905061230a60008301846122e6565b92915050565b600060ff82169050919050565b61232681612310565b811461233157600080fd5b50565b6000813590506123438161231d565b92915050565b600080604083850312156123605761235f612167565b5b600061236e85828601612334565b925050602061237f8582860161223c565b9150509250929050565b61239281612310565b82525050565b60006020820190506123ad6000830184612389565b92915050565b6000819050919050565b6123c6816123b3565b81146123d157600080fd5b50565b6000813590506123e3816123bd565b92915050565b6000602082840312156123ff576123fe612167565b5b600061240d848285016123d4565b91505092915050565b600081519050919050565b600082825260208201905092915050565b60005b83811015612450578082015181840152602081019050612435565b60008484015250505050565b6000601f19601f8301169050919050565b600061247882612416565b6124828185612421565b9350612492818560208601612432565b61249b8161245c565b840191505092915050565b600060208201905081810360008301526124c0818461246d565b905092915050565b60007fff0000000000000000000000000000000000000000000000000000000000000082169050919050565b6124fd816124c8565b811461250857600080fd5b50565b60008135905061251a816124f4565b92915050565b60006020828403121561253657612535612167565b5b60006125448482850161250b565b91505092915050565b600080fd5b600080fd5b7f4e487b7100000000000000000000000000000000000000000000000000000000600052604160045260246000fd5b61258f8261245c565b810181811067ffffffffffffffff821117156125ae576125ad612557565b5b80604052505050565b60006125c161215d565b90506125cd8282612586565b919050565b600067ffffffffffffffff8211156125ed576125ec612557565b5b6125f68261245c565b9050602081019050919050565b82818337600083830152505050565b6000612625612620846125d2565b6125b7565b90508281526020810184848401111561264157612640612552565b5b61264c848285612603565b509392505050565b600082601f8301126126695761266861254d565b5b8135612679848260208601612612565b91505092915050565b60006020828403121561269857612697612167565b5b600082013567ffffffffffffffff8111156126b6576126b561216c565b5b6126c284828501612654565b91505092915050565b6000806000606084860312156126e4576126e3612167565b5b600084013567ffffffffffffffff8111156127025761270161216c565b5b61270e86828701612654565b935050602061271f868287016123d4565b9250506040612730868287016123d4565b9150509250925092565b600067ffffffffffffffff82111561275557612754612557565b5b61275e8261245c565b9050602081019050919050565b600061277e6127798461273a565b6125b7565b90508281526020810184848401111561279a57612799612552565b5b6127a5848285612603565b509392505050565b600082601f8301126127c2576127c161254d565b5b81356127d284826020860161276b565b91505092915050565b6000806000606084860312156127f4576127f3612167565b5b6000612802868287016123d4565b9350506020612813868287016123d4565b925050604084013567ffffffffffffffff8111156128345761283361216c565b5b612840868287016127ad565b9150509250925092565b600067ffffffffffffffff82169050919050565b6128678161284a565b811461287257600080fd5b50565b6000813590506128848161285e565b92915050565b600080600080608085870312156128a4576128a3612167565b5b60006128b287828801612875565b94505060206128c387828801612875565b93505060406128d487828801612875565b92505060606128e587828801612875565b91505092959194509250565b6128fa816123b3565b82525050565b600060208201905061291560008301846128f1565b92915050565b60008060006060848603121561293457612933612167565b5b6000612942868287016123d4565b9350506020612953868287016123d4565b9250506040612964868287016123d4565b9150509250925092565b6005811061297b57600080fd5b50565b60008135905061298d8161296e565b92915050565b6000602082840312156129a9576129a8612167565b5b60006129b78482850161297e565b91505092915050565b600581106129d1576129d061227e565b5b50565b60008190506129e2826129c0565b919050565b60006129f2826129d4565b9050919050565b612a02816129e7565b82525050565b6000602082019050612a1d60008301846129f9565b92915050565b60098110612a3057600080fd5b50565b600081359050612a4281612a23565b92915050565b600060208284031215612a5e57612a5d612167565b5b6000612a6c84828501612a33565b91505092915050565b60006fffffffffffffffffffffffffffffffff82169050919050565b612a9a81612a75565b82525050565b6000602082019050612ab56000830184612a91565b92915050565b60008060408385031215612ad257612ad1612167565b5b6000612ae0858286016123d4565b9250506020612af18582860161223c565b9150509250929050565b60008060008060808587031215612b1557612b14612167565b5b6000612b2387828801612334565b9450506020612b3487828801612334565b9350506040612b4587828801612334565b9250506060612b5687828801612334565b91505092959194509250565b612b6b816123b3565b82525050565b60007cffffffffffffffffffffffffffffffffffffffffffffffffffffffffff82169050919050565b612ba381612b71565b82525050565b612bb281612310565b82525050565b612bc1816129e7565b82525050565b612bd0816122d4565b82525050565b60098110612be757612be661227e565b5b50565b6000819050612bf882612bd6565b919050565b6000612c0882612bea565b9050919050565b612c1881612bfd565b82525050565b600061ffff82169050919050565b612c3581612c1e565b82525050565b606082016000820151612c516000850182612c0f565b506020820151612c646020850182612c2c565b506040820151612c776040850182612c2c565b50505050565b600060049050919050565b600081905092915050565b6000819050919050565b6000612ca98383612ba9565b60208301905092915050565b6000602082019050919050565b612ccb81612c7d565b612cd58184612c88565b9250612ce082612c93565b8060005b83811015612d11578151612cf88782612c9d565b9650612d0383612cb5565b925050600181019050612ce4565b505050505050565b600081519050919050565b600082825260208201905092915050565b6000612d4082612d19565b612d4a8185612d24565b9350612d5a818560208601612432565b612d638161245c565b840191505092915050565b600081519050919050565b600082825260208201905092915050565b6000819050602082019050919050565b60108110612dab57612daa61227e565b5b50565b6000819050612dbc82612d9a565b919050565b6000612dcc82612dae565b9050919050565b612ddc81612dc1565b82525050565b6000604083016000830151612dfa6000860182612dd3565b5060208301518482036020860152612e128282612d35565b9150508091505092915050565b6000612e2b8383612de2565b905092915050565b6000602082019050919050565b6000612e4b82612d6e565b612e558185612d79565b935083602082028501612e6785612d8a565b8060005b85811015612ea35784840389528151612e848582612e1f565b9450612e8f83612e33565b925060208a01995050600181019050612e6b565b50829750879550505050505092915050565b60006102c083016000830151612ece6000860182612b62565b506020830151612ee16020860182612b62565b506040830151612ef46040860182612b62565b506060830151612f076060860182612b9a565b506080830151612f1a6080860182612ba9565b5060a0830151612f2d60a0860182612bb8565b5060c0830151612f4060c0860182612bc7565b5060e0830151612f5360e0860182612c3b565b50610100830151612f68610140860182612ba9565b50610120830151612f7d610160860182612cc2565b50610140830151612f926101e0860182612cc2565b50610160830151612fa7610260860182612b62565b50610180830151848203610280860152612fc18282612d35565b9150506101a08301518482036102a0860152612fdd8282612e40565b9150508091505092915050565b600060208201905081810360008301526130048184612eb5565b905092915050565b7f4e487b7100000000000000000000000000000000000000000000000000000000600052601160045260246000fd5b600061304682612310565b9150600082036130595761305861300c565b5b600182039050919050565b61306d816124c8565b82525050565b60006020820190506130886000830184613064565b92915050565b60006130a161309c8461273a565b6125b7565b9050828152602081018484840111156130bd576130bc612552565b5b6130c8848285612432565b509392505050565b600082601f8301126130e5576130e461254d565b5b81516130f584826020860161308e565b91505092915050565b60006020828403121561311457613113612167565b5b600082015167ffffffffffffffff8111156131325761313161216c565b5b61313e848285016130d0565b91505092915050565b600082825260208201905092915050565b600061316382612d19565b61316d8185613147565b935061317d818560208601612432565b6131868161245c565b840191505092915050565b600060208201905081810360008301526131ab8184613158565b905092915050565b6131bc816123b3565b82525050565b600060608201905081810360008301526131dc8186613158565b90506131eb60208301856131b3565b6131f860408301846131b3565b949350505050565b600061320b82612310565b915060ff820361321e5761321d61300c565b5b600182019050919050565b600082825260208201905092915050565b600061324582612416565b61324f8185613229565b935061325f818560208601612432565b6132688161245c565b840191505092915050565b600060608201905061328860008301866131b3565b61329560208301856131b3565b81810360408301526132a7818461323a565b9050949350505050565b6000819050602082019050919050565b6000819050919050565b60006132d782516132c1565b80915050919050565b600082821b905092915050565b60006132f882612d19565b82613302846132b1565b905061330d816132cb565b9250602082101561334d576133487fffffffffffffffffffffffffffffffffffffffffffffffffffffffffffffffff836020036008026132e0565b831692505b5050919050565b7f75693120213d204d415800000000000000000000000000000000000000000000600082015250565b600061338a600a83612421565b915061339582613354565b602082019050919050565b600060208201905081810360008301526133b98161337d565b9050919050565b6000819050919050565b6133db6133d6826123b3565b6133c0565b82525050565b60008160f81b9050919050565b60006133f9826133e1565b9050919050565b61341161340c82612310565b6133ee565b82525050565b600061342382856133ca565b6020820191506134338284613400565b6001820191508190509392505050565b7f4e487b7100000000000000000000000000000000000000000000000000000000600052603260045260246000fd5b600081905092915050565b7f6374726c32202800000000000000000000000000000000000000000000000000600082015250565b60006134b3600783613472565b91506134be8261347d565b600782019050919050565b60006134d482612416565b6134de8185613472565b93506134ee818560208601612432565b80840191505092915050565b7f2920213d20434f4e54524f4c2028000000000000000000000000000000000000600082015250565b6000613530600e83613472565b915061353b826134fa565b600e82019050919050565b7f29203a206273325b000000000000000000000000000000000000000000000000600082015250565b600061357c600883613472565b915061358782613546565b600882019050919050565b600081905092915050565b60006135a882612d19565b6135b28185613592565b93506135c2818560208601612432565b80840191505092915050565b7f5d00000000000000000000000000000000000000000000000000000000000000600082015250565b6000613604600183613472565b915061360f826135ce565b600182019050919050565b6000613625826134a6565b915061363182866134c9565b915061363c82613523565b915061364882856134c9565b91506136538261356f565b915061365f828461359d565b915061366a826135f7565b9150819050949350505050565b7f7569322028000000000000000000000000000000000000000000000000000000600082015250565b60006136ad600583613472565b91506136b882613677565b600582019050919050565b7f2920213d2056414c554520280000000000000000000000000000000000000000600082015250565b60006136f9600c83613472565b9150613704826136c3565b600c82019050919050565b7f293a206273325b00000000000000000000000000000000000000000000000000600082015250565b6000613745600783613472565b91506137508261370f565b600782019050919050565b6000613766826136a0565b915061377282866134c9565b915061377d826136ec565b915061378982856134c9565b915061379482613738565b91506137a0828461359d565b91506137ab826135f7565b9150819050949350505050565b7f29203a206273735b000000000000000000000000000000000000000000000000600082015250565b60006137ee600883613472565b91506137f9826137b8565b600882019050919050565b600061380f826134a6565b915061381b82866134c9565b915061382682613523565b915061383282856134c9565b915061383d826137e1565b9150613849828461359d565b9150613854826135f7565b9150819050949350505050565b7f293a206273735b00000000000000000000000000000000000000000000000000600082015250565b6000613897600783613472565b91506138a282613861565b600782019050919050565b60006138b8826136a0565b91506138c482866134c9565b91506138cf826136ec565b91506138db82856134c9565b91506138e68261388a565b91506138f2828461359d565b91506138fd826135f7565b9150819050949350505050565b600061391582612310565b915061392083612310565b9250828203905060ff8111156139395761393861300c565b5b92915050565b600061394a82612310565b915061395583612310565b9250828201905060ff81111561396e5761396d61300c565b5b92915050565b600061397f826123b3565b915061398a836123b3565b92508282039050818111156139a2576139a161300c565b5b92915050565b7f4e487b7100000000000000000000000000000000000000000000000000000000600052601260045260246000fd5b60006139e2826123b3565b91506139ed836123b3565b9250826139fd576139fc6139a8565b5b828206905092915050565b6000613a1382612310565b9150613a1e83612310565b925082613a2e57613a2d6139a8565b5b828206905092915050565b6000613a4482612310565b9150613a4f83612310565b925082613a5f57613a5e6139a8565b5b828204905092915050565b6000613a7582612310565b9150613a8083612310565b92508160ff0483118215151615613a9a57613a9961300c565b5b828202905092915050565b7f437261776c2e6d616b65436f6f726428293a20626164204e6f7274682f536f7560008201527f7468000000000000000000000000000000000000000000000000000000000000602082015250565b6000613b01602283612421565b9150613b0c82613aa5565b604082019050919050565b60006020820190508181036000830152613b3081613af4565b9050919050565b6000613b42826123b3565b9150613b4d836123b3565b9250828201905080821115613b6557613b6461300c565b5b92915050565b7f437261776c2e6d616b65436f6f726428293a206e656564204e6f727468206f7260008201527f20536f7574680000000000000000000000000000000000000000000000000000602082015250565b6000613bc7602683612421565b9150613bd282613b6b565b604082019050919050565b60006020820190508181036000830152613bf681613bba565b9050919050565b7f437261776c2e6d616b65436f6f726428293a2062616420576573742f45617374600082015250565b6000613c33602083612421565b9150613c3e82613bfd565b602082019050919050565b60006020820190508181036000830152613c6281613c26565b9050919050565b7f437261776c2e6d616b65436f6f726428293a206e6565642057657374206f722060008201527f4561737400000000000000000000000000000000000000000000000000000000602082015250565b6000613cc5602483612421565b9150613cd082613c69565b604082019050919050565b60006020820190508181036000830152613cf481613cb8565b9050919050565b6000613d06826123b3565b9150613d11836123b3565b9250817fffffffffffffffffffffffffffffffffffffffffffffffffffffffffffffffff0483118215151615613d4a57613d4961300c565b5b828202905092915050565b6000613d60826123b3565b915060008203613d7357613d7261300c565b5b600182039050919050565b7f537472696e67733a20686578206c656e67746820696e73756666696369656e74600082015250565b6000613db4602083612421565b9150613dbf82613d7e565b602082019050919050565b60006020820190508181036000830152613de381613da7565b905091905056fea2646970667358221220fad2e95b3a473e68dcc23a31dbd714b5d58e48a4a904bec8b72ae2a39aa6363864736f6c63430008100033",
  "immutableReferences": {},
  "source": "// SPDX-License-Identifier: MIT\npragma solidity ^0.8.16;\nimport \"../Crawl.sol\";\nimport { ERC165 } from  '@openzeppelin/contracts/utils/introspection/ERC165.sol';\nimport { SafeMath } from '@openzeppelin/contracts/utils/math/SafeMath.sol';\nimport { Strings } from '@openzeppelin/contracts/utils/Strings.sol';\n\ncontract TestCrawl is ERC165 {\n\tusing Strings for uint256;\n\n\tuint8 public _uint8;\n\tCrawl.ChamberData _chamber;\n\n\tconstructor() {}\n\n\tfunction supportsInterface(bytes4 interfaceId) public view virtual override returns (bool) {\n\t\t// return interfaceId == type(MyInterface).interfaceId || super.supportsInterface(interfaceId);\n\t\treturn super.supportsInterface(interfaceId);\n\t}\n\n\tevent Event();\n\n\t//------------------------------\n\t// Direct access\n\t//\n\tfunction getOppositeTerrain(Crawl.Terrain terrain) public pure returns (Crawl.Terrain) {\n\t\treturn Crawl.getOppositeTerrain(terrain);\n\t}\n\tfunction flipDir(Crawl.Dir dir) public pure returns (Crawl.Dir) {\n\t\treturn Crawl.flipDir(dir);\n\t}\n\tfunction flipDoorPosition(uint8 doorPos, Crawl.Dir dir) public pure returns (uint8 result) {\n\t\treturn Crawl.flipDoorPosition(doorPos, dir);\n\t}\n\tfunction makeCoord(uint64 north, uint64 east, uint64 west, uint64 south) public pure returns (uint256 result) {\n\t\treturn Crawl.makeCoord(north, east, west, south);\n\t}\n\tfunction offsetCoord(uint256 coord, Crawl.Dir dir) public pure returns (uint256) {\n\t\treturn Crawl.offsetCoord(coord, dir);\n\t}\n\tfunction getGemValue(Crawl.Gem gem) public pure returns (uint128) {\n\t\treturn Crawl.getGemValue(gem);\n\t}\n\tfunction mapSeed(uint256 seed_, uint256 min_, uint256 maxExcl_) public pure returns (uint256) {\n\t\treturn Crawl.mapSeed(seed_, min_, maxExcl_);\n\t}\n\tfunction mapSeedToBitmapPosition(uint256 seed_) public pure returns (uint8) {\n\t\treturn Crawl.mapSeedToBitmapPosition(seed_);\n\t}\n\tfunction toHexStringBytes1(bytes1 value_) public pure returns (string memory) {\n\t\treturn Crawl.toHexString(value_);\n\t}\n\tfunction toHexStringBytes(bytes memory value_) public pure returns (string memory) {\n\t\treturn Crawl.toHexString(value_);\n\t}\n\tfunction toHexStringBytesLen(bytes memory value_, uint256 start_, uint256 length_) public pure returns (string memory) {\n\t\treturn Crawl.toHexString(value_, start_, length_);\n\t}\n\tfunction coordsToString(uint256 coord, uint256 yonder, string memory separator) public pure returns (string memory) {\n\t\treturn Crawl.coordsToString(coord, yonder, separator);\n\t}\n\n\t// Tools\n\tfunction makeChamberData(uint8 doorNorth, uint8 doorEast, uint8 doorWest, uint8 doorSouth) public pure returns (Crawl.ChamberData memory) {\n\t\treturn Crawl.ChamberData(\n\t\t\t0,\t// coord\n\t\t\t0,\t// tokenId\n\t\t\t0,\t// seed\n\t\t\t0, \t// yonder\n\t\t\t1,  // chapter\n\t\t\tCrawl.Terrain.Empty,\n\t\t\tCrawl.Dir.North,\n\t\t\tCrawl.Hoard(\n\t\t\t\tCrawl.Gem.Silver,\n\t\t\t\t0,\t// coins\n\t\t\t\t0\t\t// worth\n\t\t\t),\n\t\t\t0,\t// gemPos\n\t\t\t[doorNorth, doorEast, doorWest, doorSouth], // doors\n\t\t\t[0, 0, 0, 0], \t// locks\n\t\t\t0,\t\t\t\t\t\t\t// bitmap\n\t\t\tnew bytes(0),\t\t// tile map\n\t\t\tnew Crawl.CustomData[](0)\t// custom\n\t\t);\n\t}\n\n\tfunction intInc() public {\n\t\t_uint8++;\n\t}\n\tfunction intDec() public {\n\t\t_uint8--;\n\t}\n\tfunction intAdd() public {\n\t\t_uint8 = _uint8 + 1;\n\t}\n\tfunction intSub() public {\n\t\t_uint8 = _uint8 - 1;\n\t}\n\n\tfunction safeIntAdd() public {\n\t\t_uint8++;\n\t}\n\tfunction safeIntSub() public {\n\t\t_uint8--;\n\t}\n\n\n\tfunction type_converts() public pure returns (bool) {\n\t\t// store uint256 as bytes (32 bytes)\n\t\tuint256 MAX = type(uint256).max;\n\t\t{\n\t\t\tbytes memory bs1 = new bytes(32);\n\t\t\tbs1 = abi.encode(MAX);\n\t\t\tuint256 ui1 = uint256(bytes32(bs1));\n\t\t\trequire(ui1 == MAX, 'ui1 != MAX');\n\t\t}\n\n\t\t// 1 control byte + 32 bytes (33 bytes)\n\t\tuint8 CONTROL = 0xab;\n\t\tuint256 VALUE = MAX << 8;\n\t\t{\n\t\t\tbytes memory bs2 = new bytes(33);\n\t\t\tbs2 = abi.encodePacked(VALUE, CONTROL);\n\t\t\tuint256 ui2 = uint256(bytes32(bs2));\n\t\t\tuint8 ctrl2 = uint8(bs2[32]);\n\t\t\trequire(ctrl2 == CONTROL, string(abi.encodePacked('ctrl2 (',Strings.toHexString(ctrl2),') != CONTROL (',Strings.toHexString(CONTROL),') : bs2[',bs2,']')));\n\t\t\trequire(ui2 == VALUE, string(abi.encodePacked('ui2 (',Strings.toHexString(ui2),') != VALUE (',Strings.toHexString(VALUE),'): bs2[',bs2,']')));\n\t\t}\n\n\t\t{\n\t\t\tbytes[] memory bss = new bytes[](2);\n\n\t\t\tbss[0] = abi.encode(MAX);\n\t\t\tuint256 ui1 = uint256(bytes32(bss[0]));\n\t\t\trequire(ui1 == MAX, 'ui1 != MAX');\n\n\t\t\tbss[1] = abi.encodePacked(VALUE, CONTROL);\n\t\t\tuint256 ui2 = uint256(bytes32(bss[1]));\n\t\t\tuint8 ctrl2 = uint8(bss[1][32]);\n\t\t\trequire(ctrl2 == CONTROL, string(abi.encodePacked('ctrl2 (',Strings.toHexString(ctrl2),') != CONTROL (',Strings.toHexString(CONTROL),') : bss[',bss[1],']')));\n\t\t\trequire(ui2 == VALUE, string(abi.encodePacked('ui2 (',Strings.toHexString(ui2),') != VALUE (',Strings.toHexString(VALUE),'): bss[',bss[1],']')));\n\t\t}\n\n\t\treturn true;\n\t}\n\n\t//----------------------\n\t// \"Read\" calls\n\t//\n\tfunction eventBaseline() public {\n\t\temit Event();\n\t}\n\tfunction Strings_toStringInline(uint256 number_) public returns (string memory) {\n\t\temit Event();\n\t\treturn number_.toString();\n\t}\n\tfunction Strings_toString(uint256 number_) public returns (string memory) {\n\t\temit Event();\n\t\treturn Strings.toString(number_);\n\t}\n\t// function Crawl_toString(uint256 number_) public returns (string memory) {\n\t// \temit Event();\n\t// \treturn Strings.toString(number_);\n\t// }\n\tfunction Strings_toHex(uint256 number_) public returns (string memory) {\n\t\temit Event();\n\t\treturn Strings.toHexString(number_);\n\t}\n\t// function Crawl_toHex(uint256 number_) public returns (string memory) {\n\t// \temit Event();\n\t// \treturn Strings.toHexString(number_);\n\t// }\n\n}\n",
  "sourcePath": "/Users/roger/Dev/Blockchain/Truffle/ec-crawler/contracts/test/TestCrawl.sol",
  "compiler": {
    "name": "solc",
    "version": "0.8.16+commit.07a7930e.Emscripten.clang"
  },
  "schemaVersion": "3.4.11",
  "updatedAt": "2022-12-01T01:24:00.999Z",
  "devdoc": {
    "kind": "dev",
    "methods": {
      "supportsInterface(bytes4)": {
        "details": "See {IERC165-supportsInterface}."
      }
    },
    "version": 1
  },
  "userdoc": {
    "kind": "user",
    "methods": {},
    "version": 1
  }
}