{
  "contractName": "TestToken",
  "abi": [
    {
      "inputs": [],
      "stateMutability": "nonpayable",
      "type": "constructor"
    },
    {
      "inputs": [],
      "name": "GlobalIndexOutOfBounds",
      "type": "error"
    },
    {
      "inputs": [],
      "name": "OwnerIndexOutOfBounds",
      "type": "error"
    },
    {
      "anonymous": false,
      "inputs": [
        {
          "indexed": true,
          "internalType": "address",
          "name": "owner",
          "type": "address"
        },
        {
          "indexed": true,
          "internalType": "address",
          "name": "approved",
          "type": "address"
        },
        {
          "indexed": true,
          "internalType": "uint256",
          "name": "tokenId",
          "type": "uint256"
        }
      ],
      "name": "Approval",
      "type": "event"
    },
    {
      "anonymous": false,
      "inputs": [
        {
          "indexed": true,
          "internalType": "address",
          "name": "owner",
          "type": "address"
        },
        {
          "indexed": true,
          "internalType": "address",
          "name": "operator",
          "type": "address"
        },
        {
          "indexed": false,
          "internalType": "bool",
          "name": "approved",
          "type": "bool"
        }
      ],
      "name": "ApprovalForAll",
      "type": "event"
    },
    {
      "anonymous": false,
      "inputs": [
        {
          "indexed": true,
          "internalType": "address",
          "name": "to",
          "type": "address"
        },
        {
          "indexed": true,
          "internalType": "uint256",
          "name": "tokenId",
          "type": "uint256"
        }
      ],
      "name": "Minted",
      "type": "event"
    },
    {
      "anonymous": false,
      "inputs": [
        {
          "indexed": true,
          "internalType": "address",
          "name": "from",
          "type": "address"
        },
        {
          "indexed": true,
          "internalType": "address",
          "name": "to",
          "type": "address"
        },
        {
          "indexed": true,
          "internalType": "uint256",
          "name": "tokenId",
          "type": "uint256"
        }
      ],
      "name": "Transfer",
      "type": "event"
    },
    {
      "inputs": [
        {
          "internalType": "address",
          "name": "to",
          "type": "address"
        },
        {
          "internalType": "uint256",
          "name": "tokenId",
          "type": "uint256"
        }
      ],
      "name": "approve",
      "outputs": [],
      "stateMutability": "nonpayable",
      "type": "function"
    },
    {
      "inputs": [
        {
          "internalType": "address",
          "name": "owner",
          "type": "address"
        }
      ],
      "name": "balanceOf",
      "outputs": [
        {
          "internalType": "uint256",
          "name": "",
          "type": "uint256"
        }
      ],
      "stateMutability": "view",
      "type": "function"
    },
    {
      "inputs": [],
      "name": "contractChapterNumber",
      "outputs": [
        {
          "internalType": "uint8",
          "name": "",
          "type": "uint8"
        }
      ],
      "stateMutability": "view",
      "type": "function"
    },
    {
      "inputs": [],
      "name": "contractName",
      "outputs": [
        {
          "internalType": "string",
          "name": "",
          "type": "string"
        }
      ],
      "stateMutability": "view",
      "type": "function"
    },
    {
      "inputs": [],
      "name": "contractVersion",
      "outputs": [
        {
          "internalType": "uint8",
          "name": "",
          "type": "uint8"
        }
      ],
      "stateMutability": "view",
      "type": "function"
    },
    {
      "inputs": [
        {
          "internalType": "uint256",
          "name": "tokenId",
          "type": "uint256"
        }
      ],
      "name": "getApproved",
      "outputs": [
        {
          "internalType": "address",
          "name": "",
          "type": "address"
        }
      ],
      "stateMutability": "view",
      "type": "function"
    },
    {
      "inputs": [
        {
          "internalType": "address",
          "name": "owner",
          "type": "address"
        },
        {
          "internalType": "address",
          "name": "operator",
          "type": "address"
        }
      ],
      "name": "isApprovedForAll",
      "outputs": [
        {
          "internalType": "bool",
          "name": "",
          "type": "bool"
        }
      ],
      "stateMutability": "view",
      "type": "function"
    },
    {
      "inputs": [],
      "name": "name",
      "outputs": [
        {
          "internalType": "string",
          "name": "",
          "type": "string"
        }
      ],
      "stateMutability": "view",
      "type": "function"
    },
    {
      "inputs": [
        {
          "internalType": "uint256",
          "name": "tokenId",
          "type": "uint256"
        }
      ],
      "name": "ownerOf",
      "outputs": [
        {
          "internalType": "address",
          "name": "",
          "type": "address"
        }
      ],
      "stateMutability": "view",
      "type": "function"
    },
    {
      "inputs": [
        {
          "internalType": "address",
          "name": "from",
          "type": "address"
        },
        {
          "internalType": "address",
          "name": "to",
          "type": "address"
        },
        {
          "internalType": "uint256",
          "name": "tokenId",
          "type": "uint256"
        }
      ],
      "name": "safeTransferFrom",
      "outputs": [],
      "stateMutability": "nonpayable",
      "type": "function"
    },
    {
      "inputs": [
        {
          "internalType": "address",
          "name": "from",
          "type": "address"
        },
        {
          "internalType": "address",
          "name": "to",
          "type": "address"
        },
        {
          "internalType": "uint256",
          "name": "tokenId",
          "type": "uint256"
        },
        {
          "internalType": "bytes",
          "name": "data",
          "type": "bytes"
        }
      ],
      "name": "safeTransferFrom",
      "outputs": [],
      "stateMutability": "nonpayable",
      "type": "function"
    },
    {
      "inputs": [
        {
          "internalType": "address",
          "name": "operator",
          "type": "address"
        },
        {
          "internalType": "bool",
          "name": "approved",
          "type": "bool"
        }
      ],
      "name": "setApprovalForAll",
      "outputs": [],
      "stateMutability": "nonpayable",
      "type": "function"
    },
    {
      "inputs": [],
      "name": "symbol",
      "outputs": [
        {
          "internalType": "string",
          "name": "",
          "type": "string"
        }
      ],
      "stateMutability": "view",
      "type": "function"
    },
    {
      "inputs": [
        {
          "internalType": "uint256",
          "name": "index",
          "type": "uint256"
        }
      ],
      "name": "tokenByIndex",
      "outputs": [
        {
          "internalType": "uint256",
          "name": "",
          "type": "uint256"
        }
      ],
      "stateMutability": "view",
      "type": "function"
    },
    {
      "inputs": [
        {
          "internalType": "address",
          "name": "owner",
          "type": "address"
        },
        {
          "internalType": "uint256",
          "name": "index",
          "type": "uint256"
        }
      ],
      "name": "tokenOfOwnerByIndex",
      "outputs": [
        {
          "internalType": "uint256",
          "name": "",
          "type": "uint256"
        }
      ],
      "stateMutability": "view",
      "type": "function"
    },
    {
      "inputs": [],
      "name": "totalSupply",
      "outputs": [
        {
          "internalType": "uint256",
          "name": "",
          "type": "uint256"
        }
      ],
      "stateMutability": "view",
      "type": "function"
    },
    {
      "inputs": [
        {
          "internalType": "address",
          "name": "from",
          "type": "address"
        },
        {
          "internalType": "address",
          "name": "to",
          "type": "address"
        },
        {
          "internalType": "uint256",
          "name": "tokenId",
          "type": "uint256"
        }
      ],
      "name": "transferFrom",
      "outputs": [],
      "stateMutability": "nonpayable",
      "type": "function"
    },
    {
      "inputs": [
        {
          "internalType": "bytes4",
          "name": "interfaceId",
          "type": "bytes4"
        }
      ],
      "name": "supportsInterface",
      "outputs": [
        {
          "internalType": "bool",
          "name": "",
          "type": "bool"
        }
      ],
      "stateMutability": "view",
      "type": "function"
    },
    {
      "inputs": [],
      "name": "_totalSupply",
      "outputs": [
        {
          "internalType": "uint256",
          "name": "",
          "type": "uint256"
        }
      ],
      "stateMutability": "view",
      "type": "function"
    },
    {
      "inputs": [],
      "name": "mint",
      "outputs": [
        {
          "internalType": "uint256",
          "name": "",
          "type": "uint256"
        }
      ],
      "stateMutability": "payable",
      "type": "function"
    },
    {
      "inputs": [
        {
          "internalType": "uint256",
          "name": "tokenId",
          "type": "uint256"
        }
      ],
      "name": "tokenURI",
      "outputs": [
        {
          "internalType": "string",
          "name": "",
          "type": "string"
        }
      ],
      "stateMutability": "view",
      "type": "function"
    }
  ],
  "bytecode": "0x60806040523480156200001157600080fd5b506040518060400160405280600981526020017f54657374546f6b656e00000000000000000000000000000000000000000000008152506040518060400160405280600481526020017f544553540000000000000000000000000000000000000000000000000000000081525081600090816200008f919062000324565b508060019081620000a1919062000324565b5050506200040b565b600081519050919050565b7f4e487b7100000000000000000000000000000000000000000000000000000000600052604160045260246000fd5b7f4e487b7100000000000000000000000000000000000000000000000000000000600052602260045260246000fd5b600060028204905060018216806200012c57607f821691505b602082108103620001425762000141620000e4565b5b50919050565b60008190508160005260206000209050919050565b60006020601f8301049050919050565b600082821b905092915050565b600060088302620001ac7fffffffffffffffffffffffffffffffffffffffffffffffffffffffffffffffff826200016d565b620001b886836200016d565b95508019841693508086168417925050509392505050565b6000819050919050565b6000819050919050565b600062000205620001ff620001f984620001d0565b620001da565b620001d0565b9050919050565b6000819050919050565b6200022183620001e4565b6200023962000230826200020c565b8484546200017a565b825550505050565b600090565b6200025062000241565b6200025d81848462000216565b505050565b5b8181101562000285576200027960008262000246565b60018101905062000263565b5050565b601f821115620002d4576200029e8162000148565b620002a9846200015d565b81016020851015620002b9578190505b620002d1620002c8856200015d565b83018262000262565b50505b505050565b600082821c905092915050565b6000620002f960001984600802620002d9565b1980831691505092915050565b6000620003148383620002e6565b9150826002028217905092915050565b6200032f82620000aa565b67ffffffffffffffff8111156200034b576200034a620000b5565b5b62000357825462000113565b6200036482828562000289565b600060209050601f8311600181146200039c576000841562000387578287015190505b62000393858262000306565b86555062000403565b601f198416620003ac8662000148565b60005b82811015620003d657848901518255600182019150602085019450602081019050620003af565b86831015620003f65784890151620003f2601f891682620002e6565b8355505b6001600288020188555050505b505050505050565b613844806200041b6000396000f3fe60806040526004361061012a5760003560e01c80634f6ccce7116100ab57806395d89b411161006f57806395d89b411461040d578063a0a8e46014610438578063a22cb46514610463578063b88d4fde1461048c578063c87b56dd146104b5578063e985e9c5146104f25761012a565b80634f6ccce7146103005780635c322f261461033d5780636352211e1461036857806370a08231146103a557806375d0c0dc146103e25761012a565b806318160ddd116100f257806318160ddd1461021b57806323b872dd146102465780632f745c591461026f5780633eaaf86b146102ac57806342842e0e146102d75761012a565b806301ffc9a71461012f57806306fdde031461016c578063081812fc14610197578063095ea7b3146101d45780631249c58b146101fd575b600080fd5b34801561013b57600080fd5b5061015660048036038101906101519190612393565b61052f565b60405161016391906123db565b60405180910390f35b34801561017857600080fd5b50610181610551565b60405161018e9190612486565b60405180910390f35b3480156101a357600080fd5b506101be60048036038101906101b991906124de565b6105e3565b6040516101cb919061254c565b60405180910390f35b3480156101e057600080fd5b506101fb60048036038101906101f69190612593565b610629565b005b610205610740565b60405161021291906125e2565b60405180910390f35b34801561022757600080fd5b506102306107b0565b60405161023d91906125e2565b60405180910390f35b34801561025257600080fd5b5061026d600480360381019061026891906125fd565b6107bf565b005b34801561027b57600080fd5b5061029660048036038101906102919190612593565b61081f565b6040516102a391906125e2565b60405180910390f35b3480156102b857600080fd5b506102c16108bb565b6040516102ce91906125e2565b60405180910390f35b3480156102e357600080fd5b506102fe60048036038101906102f991906125fd565b6108c5565b005b34801561030c57600080fd5b50610327600480360381019061032291906124de565b6108e5565b60405161033491906125e2565b60405180910390f35b34801561034957600080fd5b5061035261093b565b60405161035f919061266c565b60405180910390f35b34801561037457600080fd5b5061038f600480360381019061038a91906124de565b6109a6565b60405161039c919061254c565b60405180910390f35b3480156103b157600080fd5b506103cc60048036038101906103c79190612687565b610a2c565b6040516103d991906125e2565b60405180910390f35b3480156103ee57600080fd5b506103f7610ae3565b6040516104049190612486565b60405180910390f35b34801561041957600080fd5b50610422610bc6565b60405161042f9190612486565b60405180910390f35b34801561044457600080fd5b5061044d610c58565b60405161045a919061266c565b60405180910390f35b34801561046f57600080fd5b5061048a600480360381019061048591906126e0565b610cc3565b005b34801561049857600080fd5b506104b360048036038101906104ae9190612855565b610cd9565b005b3480156104c157600080fd5b506104dc60048036038101906104d791906124de565b610d3b565b6040516104e99190612486565b60405180910390f35b3480156104fe57600080fd5b50610519600480360381019061051491906128d8565b610e12565b60405161052691906123db565b60405180910390f35b600061053a82610ea6565b8061054a575061054982610f20565b5b9050919050565b60606000805461056090612947565b80601f016020809104026020016040519081016040528092919081815260200182805461058c90612947565b80156105d95780601f106105ae576101008083540402835291602001916105d9565b820191906000526020600020905b8154815290600101906020018083116105bc57829003601f168201915b5050505050905090565b60006105ee82610f9a565b6004600083815260200190815260200160002060009054906101000a900473ffffffffffffffffffffffffffffffffffffffff169050919050565b6000610634826109a6565b90508073ffffffffffffffffffffffffffffffffffffffff168373ffffffffffffffffffffffffffffffffffffffff16036106a4576040517f08c379a000000000000000000000000000000000000000000000000000000000815260040161069b906129ea565b60405180910390fd5b8073ffffffffffffffffffffffffffffffffffffffff166106c3610fe5565b73ffffffffffffffffffffffffffffffffffffffff1614806106f257506106f1816106ec610fe5565b610e12565b5b610731576040517f08c379a000000000000000000000000000000000000000000000000000000000815260040161072890612a7c565b60405180910390fd5b61073b8383610fed565b505050565b6000806001600a546107529190612acb565b905061075e33826110a6565b803373ffffffffffffffffffffffffffffffffffffffff167f30385c845b448a36257a6a1716e6ad2e1bc2cbe333cde1e69fe849ad6511adfe60405160405180910390a380600a819055508091505090565b60006107ba6108bb565b905090565b6107d06107ca610fe5565b826110c4565b61080f576040517f08c379a000000000000000000000000000000000000000000000000000000000815260040161080690612b71565b60405180910390fd5b61081a838383611159565b505050565b600061082a83610a2c565b8210610862576040517f0ddac30e00000000000000000000000000000000000000000000000000000000815260040160405180910390fd5b600660008473ffffffffffffffffffffffffffffffffffffffff1673ffffffffffffffffffffffffffffffffffffffff168152602001908152602001600020600083815260200190815260200160002054905092915050565b6000600a54905090565b6108e083838360405180602001604052806000815250610cd9565b505050565b60006108ef6108bb565b8210610927576040517f9f6fb6c900000000000000000000000000000000000000000000000000000000815260040160405180910390fd5b6001826109349190612acb565b9050919050565b600080600860009054906101000a900460ff1660ff1603610991576040517f08c379a000000000000000000000000000000000000000000000000000000000815260040161098890612c03565b60405180910390fd5b600860009054906101000a900460ff16905090565b6000806109b283611452565b9050600073ffffffffffffffffffffffffffffffffffffffff168173ffffffffffffffffffffffffffffffffffffffff1603610a23576040517f08c379a0000000000000000000000000000000000000000000000000000000008152600401610a1a90612c6f565b60405180910390fd5b80915050919050565b60008073ffffffffffffffffffffffffffffffffffffffff168273ffffffffffffffffffffffffffffffffffffffff1603610a9c576040517f08c379a0000000000000000000000000000000000000000000000000000000008152600401610a9390612d01565b60405180910390fd5b600360008373ffffffffffffffffffffffffffffffffffffffff1673ffffffffffffffffffffffffffffffffffffffff168152602001908152602001600020549050919050565b6060600060098054610af490612947565b905011610b36576040517f08c379a0000000000000000000000000000000000000000000000000000000008152600401610b2d90612c03565b60405180910390fd5b60098054610b4390612947565b80601f0160208091040260200160405190810160405280929190818152602001828054610b6f90612947565b8015610bbc5780601f10610b9157610100808354040283529160200191610bbc565b820191906000526020600020905b815481529060010190602001808311610b9f57829003601f168201915b5050505050905090565b606060018054610bd590612947565b80601f0160208091040260200160405190810160405280929190818152602001828054610c0190612947565b8015610c4e5780601f10610c2357610100808354040283529160200191610c4e565b820191906000526020600020905b815481529060010190602001808311610c3157829003601f168201915b5050505050905090565b600080600860019054906101000a900460ff1660ff1603610cae576040517f08c379a0000000000000000000000000000000000000000000000000000000008152600401610ca590612c03565b60405180910390fd5b600860019054906101000a900460ff16905090565b610cd5610cce610fe5565b838361148f565b5050565b610cea610ce4610fe5565b836110c4565b610d29576040517f08c379a0000000000000000000000000000000000000000000000000000000008152600401610d2090612b71565b60405180910390fd5b610d35848484846115fb565b50505050565b6060610d4682611657565b610d85576040517f08c379a0000000000000000000000000000000000000000000000000000000008152600401610d7c90612d6d565b60405180910390fd5b6000610d9083611698565b610dc0610d9c85611698565b604051602001610dac91906130f3565b604051602081830303815290604052611766565b604051602001610dd1929190613250565b6040516020818303038152906040529050610deb81611766565b604051602001610dfb91906132e1565b604051602081830303815290604052915050919050565b6000600560008473ffffffffffffffffffffffffffffffffffffffff1673ffffffffffffffffffffffffffffffffffffffff16815260200190815260200160002060008373ffffffffffffffffffffffffffffffffffffffff1673ffffffffffffffffffffffffffffffffffffffff16815260200190815260200160002060009054906101000a900460ff16905092915050565b60007f780e9d63000000000000000000000000000000000000000000000000000000007bffffffffffffffffffffffffffffffffffffffffffffffffffffffff1916827bffffffffffffffffffffffffffffffffffffffffffffffffffffffff19161480610f195750610f18826118c9565b5b9050919050565b60007f894a0b9a000000000000000000000000000000000000000000000000000000007bffffffffffffffffffffffffffffffffffffffffffffffffffffffff1916827bffffffffffffffffffffffffffffffffffffffffffffffffffffffff19161480610f935750610f92826119ab565b5b9050919050565b610fa381611657565b610fe2576040517f08c379a0000000000000000000000000000000000000000000000000000000008152600401610fd990612c6f565b60405180910390fd5b50565b600033905090565b816004600083815260200190815260200160002060006101000a81548173ffffffffffffffffffffffffffffffffffffffff021916908373ffffffffffffffffffffffffffffffffffffffff160217905550808273ffffffffffffffffffffffffffffffffffffffff16611060836109a6565b73ffffffffffffffffffffffffffffffffffffffff167f8c5be1e5ebec7d5bd14f71427d1e84f3dd0314c0f7b2291e5b200ac8c7c3b92560405160405180910390a45050565b6110c0828260405180602001604052806000815250611a15565b5050565b6000806110d0836109a6565b90508073ffffffffffffffffffffffffffffffffffffffff168473ffffffffffffffffffffffffffffffffffffffff16148061111257506111118185610e12565b5b8061115057508373ffffffffffffffffffffffffffffffffffffffff16611138846105e3565b73ffffffffffffffffffffffffffffffffffffffff16145b91505092915050565b8273ffffffffffffffffffffffffffffffffffffffff16611179826109a6565b73ffffffffffffffffffffffffffffffffffffffff16146111cf576040517f08c379a00000000000000000000000000000000000000000000000000000000081526004016111c690613375565b60405180910390fd5b600073ffffffffffffffffffffffffffffffffffffffff168273ffffffffffffffffffffffffffffffffffffffff160361123e576040517f08c379a000000000000000000000000000000000000000000000000000000000815260040161123590613407565b60405180910390fd5b61124b8383836001611a70565b8273ffffffffffffffffffffffffffffffffffffffff1661126b826109a6565b73ffffffffffffffffffffffffffffffffffffffff16146112c1576040517f08c379a00000000000000000000000000000000000000000000000000000000081526004016112b890613375565b60405180910390fd5b6004600082815260200190815260200160002060006101000a81549073ffffffffffffffffffffffffffffffffffffffff02191690556001600360008573ffffffffffffffffffffffffffffffffffffffff1673ffffffffffffffffffffffffffffffffffffffff168152602001908152602001600020600082825403925050819055506001600360008473ffffffffffffffffffffffffffffffffffffffff1673ffffffffffffffffffffffffffffffffffffffff16815260200190815260200160002060008282540192505081905550816002600083815260200190815260200160002060006101000a81548173ffffffffffffffffffffffffffffffffffffffff021916908373ffffffffffffffffffffffffffffffffffffffff160217905550808273ffffffffffffffffffffffffffffffffffffffff168473ffffffffffffffffffffffffffffffffffffffff167fddf252ad1be2c89b69c2b068fc378daa952ba7f163c4a11628f55a4df523b3ef60405160405180910390a461144d8383836001611a82565b505050565b60006002600083815260200190815260200160002060009054906101000a900473ffffffffffffffffffffffffffffffffffffffff169050919050565b8173ffffffffffffffffffffffffffffffffffffffff168373ffffffffffffffffffffffffffffffffffffffff16036114fd576040517f08c379a00000000000000000000000000000000000000000000000000000000081526004016114f490613473565b60405180910390fd5b80600560008573ffffffffffffffffffffffffffffffffffffffff1673ffffffffffffffffffffffffffffffffffffffff16815260200190815260200160002060008473ffffffffffffffffffffffffffffffffffffffff1673ffffffffffffffffffffffffffffffffffffffff16815260200190815260200160002060006101000a81548160ff0219169083151502179055508173ffffffffffffffffffffffffffffffffffffffff168373ffffffffffffffffffffffffffffffffffffffff167f17307eab39ab6107e8899845ad3d59bd9653f200f220920489ca2b5937696c31836040516115ee91906123db565b60405180910390a3505050565b611606848484611159565b61161284848484611a88565b611651576040517f08c379a000000000000000000000000000000000000000000000000000000000815260040161164890613505565b60405180910390fd5b50505050565b60008073ffffffffffffffffffffffffffffffffffffffff1661167983611452565b73ffffffffffffffffffffffffffffffffffffffff1614159050919050565b6060600060016116a784611c0f565b01905060008167ffffffffffffffff8111156116c6576116c561272a565b5b6040519080825280601f01601f1916602001820160405280156116f85781602001600182028036833780820191505090505b509050600082602001820190505b60011561175b578080600190039150507f3031323334353637383961626364656600000000000000000000000000000000600a86061a8153600a858161174f5761174e613525565b5b04945060008503611706575b819350505050919050565b60606000825103611788576040518060200160405280600081525090506118c4565b60006040518060600160405280604081526020016137cf60409139905060006003600285516117b79190612acb565b6117c19190613554565b60046117cd9190613585565b67ffffffffffffffff8111156117e6576117e561272a565b5b6040519080825280601f01601f1916602001820160405280156118185781602001600182028036833780820191505090505b509050600182016020820185865187015b80821015611884576003820191508151603f8160121c168501518453600184019350603f81600c1c168501518453600184019350603f8160061c168501518453600184019350603f8116850151845360018401935050611829565b50506003865106600181146118a057600281146118b3576118bb565b603d6001830353603d60028303536118bb565b603d60018303535b50505080925050505b919050565b60007f80ac58cd000000000000000000000000000000000000000000000000000000007bffffffffffffffffffffffffffffffffffffffffffffffffffffffff1916827bffffffffffffffffffffffffffffffffffffffffffffffffffffffff1916148061199457507f5b5e139f000000000000000000000000000000000000000000000000000000007bffffffffffffffffffffffffffffffffffffffffffffffffffffffff1916827bffffffffffffffffffffffffffffffffffffffffffffffffffffffff1916145b806119a457506119a3826119ab565b5b9050919050565b60007f01ffc9a7000000000000000000000000000000000000000000000000000000007bffffffffffffffffffffffffffffffffffffffffffffffffffffffff1916827bffffffffffffffffffffffffffffffffffffffffffffffffffffffff1916149050919050565b611a1f8383611d62565b611a2c6000848484611a88565b611a6b576040517f08c379a0000000000000000000000000000000000000000000000000000000008152600401611a6290613505565b60405180910390fd5b505050565b611a7c84848484611f7f565b50505050565b50505050565b6000611aa98473ffffffffffffffffffffffffffffffffffffffff166121de565b15611c02578373ffffffffffffffffffffffffffffffffffffffff1663150b7a02611ad2610fe5565b8786866040518563ffffffff1660e01b8152600401611af49493929190613634565b6020604051808303816000875af1925050508015611b3057506040513d601f19601f82011682018060405250810190611b2d9190613695565b60015b611bb2573d8060008114611b60576040519150601f19603f3d011682016040523d82523d6000602084013e611b65565b606091505b506000815103611baa576040517f08c379a0000000000000000000000000000000000000000000000000000000008152600401611ba190613505565b60405180910390fd5b805181602001fd5b63150b7a0260e01b7bffffffffffffffffffffffffffffffffffffffffffffffffffffffff1916817bffffffffffffffffffffffffffffffffffffffffffffffffffffffff191614915050611c07565b600190505b949350505050565b600080600090507a184f03e93ff9f4daa797ed6e38ed64bf6a1f0100000000000000008310611c6d577a184f03e93ff9f4daa797ed6e38ed64bf6a1f0100000000000000008381611c6357611c62613525565b5b0492506040810190505b6d04ee2d6d415b85acef81000000008310611caa576d04ee2d6d415b85acef81000000008381611ca057611c9f613525565b5b0492506020810190505b662386f26fc100008310611cd957662386f26fc100008381611ccf57611cce613525565b5b0492506010810190505b6305f5e1008310611d02576305f5e1008381611cf857611cf7613525565b5b0492506008810190505b6127108310611d27576127108381611d1d57611d1c613525565b5b0492506004810190505b60648310611d4a5760648381611d4057611d3f613525565b5b0492506002810190505b600a8310611d59576001810190505b80915050919050565b600073ffffffffffffffffffffffffffffffffffffffff168273ffffffffffffffffffffffffffffffffffffffff1603611dd1576040517f08c379a0000000000000000000000000000000000000000000000000000000008152600401611dc89061370e565b60405180910390fd5b611dda81611657565b15611e1a576040517f08c379a0000000000000000000000000000000000000000000000000000000008152600401611e119061377a565b60405180910390fd5b611e28600083836001611a70565b611e3181611657565b15611e71576040517f08c379a0000000000000000000000000000000000000000000000000000000008152600401611e689061377a565b60405180910390fd5b6001600360008473ffffffffffffffffffffffffffffffffffffffff1673ffffffffffffffffffffffffffffffffffffffff16815260200190815260200160002060008282540192505081905550816002600083815260200190815260200160002060006101000a81548173ffffffffffffffffffffffffffffffffffffffff021916908373ffffffffffffffffffffffffffffffffffffffff160217905550808273ffffffffffffffffffffffffffffffffffffffff16600073ffffffffffffffffffffffffffffffffffffffff167fddf252ad1be2c89b69c2b068fc378daa952ba7f163c4a11628f55a4df523b3ef60405160405180910390a4611f7b600083836001611a82565b5050565b611f8b84848484612201565b8373ffffffffffffffffffffffffffffffffffffffff168373ffffffffffffffffffffffffffffffffffffffff16146121d857600073ffffffffffffffffffffffffffffffffffffffff168473ffffffffffffffffffffffffffffffffffffffff161461215c5760006001611fff86610a2c565b612009919061379a565b90506000600760008581526020019081526020016000205490508181146120ee576000600660008873ffffffffffffffffffffffffffffffffffffffff1673ffffffffffffffffffffffffffffffffffffffff168152602001908152602001600020600084815260200190815260200160002054905080600660008973ffffffffffffffffffffffffffffffffffffffff1673ffffffffffffffffffffffffffffffffffffffff168152602001908152602001600020600084815260200190815260200160002081905550816007600083815260200190815260200160002081905550505b6007600085815260200190815260200160002060009055600660008773ffffffffffffffffffffffffffffffffffffffff1673ffffffffffffffffffffffffffffffffffffffff16815260200190815260200160002060008381526020019081526020016000206000905550505b600061216784610a2c565b905082600660008673ffffffffffffffffffffffffffffffffffffffff1673ffffffffffffffffffffffffffffffffffffffff168152602001908152602001600020600083815260200190815260200160002081905550806007600085815260200190815260200160002081905550505b50505050565b6000808273ffffffffffffffffffffffffffffffffffffffff163b119050919050565b600181111561232157600073ffffffffffffffffffffffffffffffffffffffff168473ffffffffffffffffffffffffffffffffffffffff16146122955780600360008673ffffffffffffffffffffffffffffffffffffffff1673ffffffffffffffffffffffffffffffffffffffff168152602001908152602001600020600082825461228d919061379a565b925050819055505b600073ffffffffffffffffffffffffffffffffffffffff168373ffffffffffffffffffffffffffffffffffffffff16146123205780600360008573ffffffffffffffffffffffffffffffffffffffff1673ffffffffffffffffffffffffffffffffffffffff16815260200190815260200160002060008282546123189190612acb565b925050819055505b5b50505050565b6000604051905090565b600080fd5b600080fd5b60007fffffffff0000000000000000000000000000000000000000000000000000000082169050919050565b6123708161233b565b811461237b57600080fd5b50565b60008135905061238d81612367565b92915050565b6000602082840312156123a9576123a8612331565b5b60006123b78482850161237e565b91505092915050565b60008115159050919050565b6123d5816123c0565b82525050565b60006020820190506123f060008301846123cc565b92915050565b600081519050919050565b600082825260208201905092915050565b60005b83811015612430578082015181840152602081019050612415565b60008484015250505050565b6000601f19601f8301169050919050565b6000612458826123f6565b6124628185612401565b9350612472818560208601612412565b61247b8161243c565b840191505092915050565b600060208201905081810360008301526124a0818461244d565b905092915050565b6000819050919050565b6124bb816124a8565b81146124c657600080fd5b50565b6000813590506124d8816124b2565b92915050565b6000602082840312156124f4576124f3612331565b5b6000612502848285016124c9565b91505092915050565b600073ffffffffffffffffffffffffffffffffffffffff82169050919050565b60006125368261250b565b9050919050565b6125468161252b565b82525050565b6000602082019050612561600083018461253d565b92915050565b6125708161252b565b811461257b57600080fd5b50565b60008135905061258d81612567565b92915050565b600080604083850312156125aa576125a9612331565b5b60006125b88582860161257e565b92505060206125c9858286016124c9565b9150509250929050565b6125dc816124a8565b82525050565b60006020820190506125f760008301846125d3565b92915050565b60008060006060848603121561261657612615612331565b5b60006126248682870161257e565b93505060206126358682870161257e565b9250506040612646868287016124c9565b9150509250925092565b600060ff82169050919050565b61266681612650565b82525050565b6000602082019050612681600083018461265d565b92915050565b60006020828403121561269d5761269c612331565b5b60006126ab8482850161257e565b91505092915050565b6126bd816123c0565b81146126c857600080fd5b50565b6000813590506126da816126b4565b92915050565b600080604083850312156126f7576126f6612331565b5b60006127058582860161257e565b9250506020612716858286016126cb565b9150509250929050565b600080fd5b600080fd5b7f4e487b7100000000000000000000000000000000000000000000000000000000600052604160045260246000fd5b6127628261243c565b810181811067ffffffffffffffff821117156127815761278061272a565b5b80604052505050565b6000612794612327565b90506127a08282612759565b919050565b600067ffffffffffffffff8211156127c0576127bf61272a565b5b6127c98261243c565b9050602081019050919050565b82818337600083830152505050565b60006127f86127f3846127a5565b61278a565b90508281526020810184848401111561281457612813612725565b5b61281f8482856127d6565b509392505050565b600082601f83011261283c5761283b612720565b5b813561284c8482602086016127e5565b91505092915050565b6000806000806080858703121561286f5761286e612331565b5b600061287d8782880161257e565b945050602061288e8782880161257e565b935050604061289f878288016124c9565b925050606085013567ffffffffffffffff8111156128c0576128bf612336565b5b6128cc87828801612827565b91505092959194509250565b600080604083850312156128ef576128ee612331565b5b60006128fd8582860161257e565b925050602061290e8582860161257e565b9150509250929050565b7f4e487b7100000000000000000000000000000000000000000000000000000000600052602260045260246000fd5b6000600282049050600182168061295f57607f821691505b60208210810361297257612971612918565b5b50919050565b7f4552433732313a20617070726f76616c20746f2063757272656e74206f776e6560008201527f7200000000000000000000000000000000000000000000000000000000000000602082015250565b60006129d4602183612401565b91506129df82612978565b604082019050919050565b60006020820190508181036000830152612a03816129c7565b9050919050565b7f4552433732313a20617070726f76652063616c6c6572206973206e6f7420746f60008201527f6b656e206f776e6572206f7220617070726f76656420666f7220616c6c000000602082015250565b6000612a66603d83612401565b9150612a7182612a0a565b604082019050919050565b60006020820190508181036000830152612a9581612a59565b9050919050565b7f4e487b7100000000000000000000000000000000000000000000000000000000600052601160045260246000fd5b6000612ad6826124a8565b9150612ae1836124a8565b9250828201905080821115612af957612af8612a9c565b5b92915050565b7f4552433732313a2063616c6c6572206973206e6f7420746f6b656e206f776e6560008201527f72206f7220617070726f76656400000000000000000000000000000000000000602082015250565b6000612b5b602d83612401565b9150612b6682612aff565b604082019050919050565b60006020820190508181036000830152612b8a81612b4e565b9050919050565b7f437261776c6572436f6e74726163743a20436f6e7472616374206e6f7420736560008201527f7475700000000000000000000000000000000000000000000000000000000000602082015250565b6000612bed602383612401565b9150612bf882612b91565b604082019050919050565b60006020820190508181036000830152612c1c81612be0565b9050919050565b7f4552433732313a20696e76616c696420746f6b656e2049440000000000000000600082015250565b6000612c59601883612401565b9150612c6482612c23565b602082019050919050565b60006020820190508181036000830152612c8881612c4c565b9050919050565b7f4552433732313a2061646472657373207a65726f206973206e6f74206120766160008201527f6c6964206f776e65720000000000000000000000000000000000000000000000602082015250565b6000612ceb602983612401565b9150612cf682612c8f565b604082019050919050565b60006020820190508181036000830152612d1a81612cde565b9050919050565b7f496e76616c696420746f6b656e49640000000000000000000000000000000000600082015250565b6000612d57600f83612401565b9150612d6282612d21565b602082019050919050565b60006020820190508181036000830152612d8681612d4a565b9050919050565b600081905092915050565b7f3c73766720786d6c6e733d27687474703a2f2f7777772e77332e6f72672f323060008201527f30302f737667272076657273696f6e3d27312e31272077696474683d2734303060208201527f27206865696768743d27343030272076696577426f783d27302030203120312760408201527f3e3c646566733e3c6c696e6561724772616469656e742069643d27472720783160608201527f3d2730272078323d2730272079313d2730272079323d2731273e3c73746f702060808201527f6f66667365743d273025272073746f702d636f6c6f723d277768697465272f3e60a08201527f3c73746f70206f66667365743d27353025272073746f702d636f6c6f723d276260c08201527f6c61636b272f3e3c73746f70206f66667365743d2731303025272073746f702d60e08201527f636f6c6f723d277768697465272f3e3c2f6c696e6561724772616469656e743e6101008201527f3c2f646566733e3c7374796c653e2e427b66696c6c3a233030303030307d2e546101208201527f7b666f6e742d66616d696c793a6d6f6e6f73706163653b666f6e742d73697a656101408201527f3a302e303235656d3b66696c6c3a236666666666667d3c2f7374796c653e3c726101608201527f6563742066696c6c3d2775726c28234729272077696474683d273127206865696101808201527f6768743d2731272073686170652d72656e646572696e673d27637269737045646101a08201527f676573272f3e3c7465787420636c6173733d2754272069643d27656e747279276101c08201527f20783d273530252720793d273530252720646f6d696e616e742d626173656c696101e08201527f6e653d276d6964646c652720746578742d616e63686f723d276d6964646c65276102008201527f3e0000000000000000000000000000000000000000000000000000000000000061022082015250565b600061305f61022183612d8d565b915061306a82612d98565b61022182019050919050565b6000613081826123f6565b61308b8185612d8d565b935061309b818560208601612412565b80840191505092915050565b7f3c2f746578743e3c2f7376673e00000000000000000000000000000000000000600082015250565b60006130dd600d83612d8d565b91506130e8826130a7565b600d82019050919050565b60006130fe82613051565b915061310a8284613076565b9150613115826130d0565b915081905092915050565b7f7b226e616d65223a225465737420546f6b656e20230000000000000000000000600082015250565b6000613156601583612d8d565b915061316182613120565b601582019050919050565b7f222c226465736372697074696f6e223a2254686973206973206120746573742060008201527f746f6b656e222c22696d616765223a22646174613a696d6167652f7376672b7860208201527f6d6c3b6261736536342c00000000000000000000000000000000000000000000604082015250565b60006131ee604a83612d8d565b91506131f98261316c565b604a82019050919050565b7f227d000000000000000000000000000000000000000000000000000000000000600082015250565b600061323a600283612d8d565b915061324582613204565b600282019050919050565b600061325b82613149565b91506132678285613076565b9150613272826131e1565b915061327e8284613076565b91506132898261322d565b91508190509392505050565b7f646174613a6170706c69636174696f6e2f6a736f6e3b6261736536342c000000600082015250565b60006132cb601d83612d8d565b91506132d682613295565b601d82019050919050565b60006132ec826132be565b91506132f88284613076565b915081905092915050565b7f4552433732313a207472616e736665722066726f6d20696e636f72726563742060008201527f6f776e6572000000000000000000000000000000000000000000000000000000602082015250565b600061335f602583612401565b915061336a82613303565b604082019050919050565b6000602082019050818103600083015261338e81613352565b9050919050565b7f4552433732313a207472616e7366657220746f20746865207a65726f2061646460008201527f7265737300000000000000000000000000000000000000000000000000000000602082015250565b60006133f1602483612401565b91506133fc82613395565b604082019050919050565b60006020820190508181036000830152613420816133e4565b9050919050565b7f4552433732313a20617070726f766520746f2063616c6c657200000000000000600082015250565b600061345d601983612401565b915061346882613427565b602082019050919050565b6000602082019050818103600083015261348c81613450565b9050919050565b7f4552433732313a207472616e7366657220746f206e6f6e20455243373231526560008201527f63656976657220696d706c656d656e7465720000000000000000000000000000602082015250565b60006134ef603283612401565b91506134fa82613493565b604082019050919050565b6000602082019050818103600083015261351e816134e2565b9050919050565b7f4e487b7100000000000000000000000000000000000000000000000000000000600052601260045260246000fd5b600061355f826124a8565b915061356a836124a8565b92508261357a57613579613525565b5b828204905092915050565b6000613590826124a8565b915061359b836124a8565b9250817fffffffffffffffffffffffffffffffffffffffffffffffffffffffffffffffff04831182151516156135d4576135d3612a9c565b5b828202905092915050565b600081519050919050565b600082825260208201905092915050565b6000613606826135df565b61361081856135ea565b9350613620818560208601612412565b6136298161243c565b840191505092915050565b6000608082019050613649600083018761253d565b613656602083018661253d565b61366360408301856125d3565b818103606083015261367581846135fb565b905095945050505050565b60008151905061368f81612367565b92915050565b6000602082840312156136ab576136aa612331565b5b60006136b984828501613680565b91505092915050565b7f4552433732313a206d696e7420746f20746865207a65726f2061646472657373600082015250565b60006136f8602083612401565b9150613703826136c2565b602082019050919050565b60006020820190508181036000830152613727816136eb565b9050919050565b7f4552433732313a20746f6b656e20616c7265616479206d696e74656400000000600082015250565b6000613764601c83612401565b915061376f8261372e565b602082019050919050565b6000602082019050818103600083015261379381613757565b9050919050565b60006137a5826124a8565b91506137b0836124a8565b92508282039050818111156137c8576137c7612a9c565b5b9291505056fe4142434445464748494a4b4c4d4e4f505152535455565758595a6162636465666768696a6b6c6d6e6f707172737475767778797a303132333435363738392b2fa2646970667358221220f2180077755aed54d111655d48c92be4d55dc2e834bc9459e4eb703b59799c8964736f6c63430008100033",
  "immutableReferences": {},
  "source": "// SPDX-License-Identifier: MIT\npragma solidity ^0.8.16;\nimport { ERC721 } from '@openzeppelin/contracts/token/ERC721/ERC721.sol';\nimport { IERC165 } from '@openzeppelin/contracts/utils/introspection/IERC165.sol';\nimport { ERC721Enumerable } from '../extras/ERC721Enumerable.sol';\nimport { CrawlerContract } from '../CrawlerContract.sol';\nimport { Strings } from '@openzeppelin/contracts/utils/Strings.sol';\nimport { Base64 } from '@openzeppelin/contracts/utils/Base64.sol';\n\ncontract TestToken is ERC721, ERC721Enumerable, CrawlerContract {\n\tusing Strings for uint256;\n\n\tuint256 private _mintedCount;\n\n\tevent Minted(address indexed to, uint256 indexed tokenId);\n\n\tconstructor() ERC721(\"TestToken\", \"TEST\") {}\n\n\t// Interfaces\n\tfunction supportsInterface(bytes4 interfaceId) public view override (ERC721, ERC721Enumerable, CrawlerContract) returns (bool) {\n\t\treturn ERC721Enumerable.supportsInterface(interfaceId) || CrawlerContract.supportsInterface(interfaceId);\n\t}\n\tfunction _beforeTokenTransfer(address from, address to, uint256 tokenId, uint256 batchSize) internal override (ERC721, ERC721Enumerable) {\n\t\tsuper._beforeTokenTransfer(from, to, tokenId, batchSize);\n\t}\n\tfunction _totalSupply() public view override returns (uint256) {\n\t\treturn _mintedCount;\n\t}\n\n\tfunction mint() public payable returns (uint256) {\n\t\tuint256 tokenId = _mintedCount + 1;\n\t\t_safeMint(msg.sender, tokenId);\n\t\temit Minted(msg.sender, tokenId);\n\t\t_mintedCount = tokenId;\n\t\treturn tokenId;\n\t}\n\n\tfunction tokenURI(uint256 tokenId) public view override returns (string memory) {\n\t\trequire(_exists(tokenId), 'Invalid tokenId');\n\t\tbytes memory json = abi.encodePacked(\n\t\t\t'{'\n\t\t\t\t'\"name\":\"Test Token #', tokenId.toString(), '\",'\n\t\t\t\t'\"description\":\"This is a test token\",'\n\t\t\t\t'\"image\":\"data:image/svg+xml;base64,',\n\t\t\t\t\tBase64.encode(\n\t\t\t\t\t\tabi.encodePacked(\n\t\t\t\t\t\t\t\"<svg xmlns='http://www.w3.org/2000/svg' version='1.1' width='400' height='400' viewBox='0 0 1 1'>\"\n\t\t\t\t\t\t\t\"<defs>\"\n\t\t\t\t\t\t\t\t\"<linearGradient id='G' x1='0' x2='0' y1='0' y2='1'>\"\n\t\t\t\t\t\t\t\t\t\"<stop offset='0%' stop-color='white'/>\"\n\t\t\t\t\t\t\t\t\t\"<stop offset='50%' stop-color='black'/>\"\n\t\t\t\t\t\t\t\t\t\"<stop offset='100%' stop-color='white'/>\"\n\t\t\t\t\t\t\t\t\"</linearGradient>\"\n\t\t\t\t\t\t\t\"</defs>\"\n\t\t\t\t\t\t\t\"<style>\"\n\t\t\t\t\t\t\t\t\".B{fill:#000000}\"\n\t\t\t\t\t\t\t\t\".T{font-family:monospace;font-size:0.025em;fill:#ffffff}\"\n\t\t\t\t\t\t\t\"</style>\"\n\t\t\t\t\t\t\t\"<rect fill='url(#G)' width='1' height='1' shape-rendering='crispEdges'/>\"\n\t\t\t\t\t\t\t\"<text class='T' id='entry' x='50%' y='50%' dominant-baseline='middle' text-anchor='middle'>\", tokenId.toString(), \"</text>\"\n\t\t\t\t\t\t\t\"</svg>\"\n\t\t\t\t\t\t)\n\t\t\t\t\t),\n\t\t\t\t'\"'\n\t\t\t'}'\n\t\t);\n\t\treturn string(abi.encodePacked('data:application/json;base64,', Base64.encode(bytes(json))));\n\t}\n}\n",
  "sourcePath": "/Users/roger/Dev/Blockchain/Truffle/ec-crawler/contracts/test/TestToken.sol",
  "compiler": {
    "name": "solc",
    "version": "0.8.16+commit.07a7930e.Emscripten.clang"
  },
  "schemaVersion": "3.4.11",
  "updatedAt": "2022-12-05T23:24:08.712Z",
  "devdoc": {
    "kind": "dev",
    "methods": {
      "_totalSupply()": {
        "details": "Replaces _allTokens and _allTokensIndex, since tokens are sequential and burn proof"
      },
      "approve(address,uint256)": {
        "details": "See {IERC721-approve}."
      },
      "balanceOf(address)": {
        "details": "See {IERC721-balanceOf}."
      },
      "contractChapterNumber()": {
        "returns": {
          "_0": "chapterNumber Contract chapter number"
        }
      },
      "contractName()": {
        "returns": {
          "_0": "name Contract name"
        }
      },
      "contractVersion()": {
        "returns": {
          "_0": "version Contract version"
        }
      },
      "getApproved(uint256)": {
        "details": "See {IERC721-getApproved}."
      },
      "isApprovedForAll(address,address)": {
        "details": "See {IERC721-isApprovedForAll}."
      },
      "name()": {
        "details": "See {IERC721Metadata-name}."
      },
      "ownerOf(uint256)": {
        "details": "See {IERC721-ownerOf}."
      },
      "safeTransferFrom(address,address,uint256)": {
        "details": "See {IERC721-safeTransferFrom}."
      },
      "safeTransferFrom(address,address,uint256,bytes)": {
        "details": "See {IERC721-safeTransferFrom}."
      },
      "setApprovalForAll(address,bool)": {
        "details": "See {IERC721-setApprovalForAll}."
      },
      "symbol()": {
        "details": "See {IERC721Metadata-symbol}."
      },
      "tokenByIndex(uint256)": {
        "details": "See {IERC721Enumerable-tokenByIndex}."
      },
      "tokenOfOwnerByIndex(address,uint256)": {
        "details": "See {IERC721Enumerable-tokenOfOwnerByIndex}."
      },
      "tokenURI(uint256)": {
        "details": "See {IERC721Metadata-tokenURI}."
      },
      "totalSupply()": {
        "details": "See {IERC721Enumerable-totalSupply}."
      },
      "transferFrom(address,address,uint256)": {
        "details": "See {IERC721-transferFrom}."
      }
    },
    "version": 1
  },
  "userdoc": {
    "kind": "user",
    "methods": {
      "contractChapterNumber()": {
        "notice": "Returns the first chapter number this contract was used"
      },
      "contractName()": {
        "notice": "Returns the contract name"
      },
      "contractVersion()": {
        "notice": "Returns the contract version"
      }
    },
    "version": 1
  }
}