{
  "contractName": "TestMultiToken",
  "abi": [
    {
      "inputs": [],
      "stateMutability": "nonpayable",
      "type": "constructor"
    },
    {
      "anonymous": false,
      "inputs": [
        {
          "indexed": true,
          "internalType": "address",
          "name": "account",
          "type": "address"
        },
        {
          "indexed": true,
          "internalType": "address",
          "name": "operator",
          "type": "address"
        },
        {
          "indexed": false,
          "internalType": "bool",
          "name": "approved",
          "type": "bool"
        }
      ],
      "name": "ApprovalForAll",
      "type": "event"
    },
    {
      "anonymous": false,
      "inputs": [
        {
          "indexed": true,
          "internalType": "address",
          "name": "account",
          "type": "address"
        },
        {
          "indexed": true,
          "internalType": "uint256",
          "name": "id",
          "type": "uint256"
        },
        {
          "indexed": false,
          "internalType": "uint256",
          "name": "amount",
          "type": "uint256"
        }
      ],
      "name": "Burned",
      "type": "event"
    },
    {
      "anonymous": false,
      "inputs": [
        {
          "indexed": true,
          "internalType": "address",
          "name": "account",
          "type": "address"
        },
        {
          "indexed": true,
          "internalType": "uint256",
          "name": "id",
          "type": "uint256"
        },
        {
          "indexed": false,
          "internalType": "uint256",
          "name": "amount",
          "type": "uint256"
        }
      ],
      "name": "Minted",
      "type": "event"
    },
    {
      "anonymous": false,
      "inputs": [
        {
          "indexed": true,
          "internalType": "address",
          "name": "operator",
          "type": "address"
        },
        {
          "indexed": true,
          "internalType": "address",
          "name": "from",
          "type": "address"
        },
        {
          "indexed": true,
          "internalType": "address",
          "name": "to",
          "type": "address"
        },
        {
          "indexed": false,
          "internalType": "uint256[]",
          "name": "ids",
          "type": "uint256[]"
        },
        {
          "indexed": false,
          "internalType": "uint256[]",
          "name": "values",
          "type": "uint256[]"
        }
      ],
      "name": "TransferBatch",
      "type": "event"
    },
    {
      "anonymous": false,
      "inputs": [
        {
          "indexed": true,
          "internalType": "address",
          "name": "operator",
          "type": "address"
        },
        {
          "indexed": true,
          "internalType": "address",
          "name": "from",
          "type": "address"
        },
        {
          "indexed": true,
          "internalType": "address",
          "name": "to",
          "type": "address"
        },
        {
          "indexed": false,
          "internalType": "uint256",
          "name": "id",
          "type": "uint256"
        },
        {
          "indexed": false,
          "internalType": "uint256",
          "name": "value",
          "type": "uint256"
        }
      ],
      "name": "TransferSingle",
      "type": "event"
    },
    {
      "anonymous": false,
      "inputs": [
        {
          "indexed": false,
          "internalType": "string",
          "name": "value",
          "type": "string"
        },
        {
          "indexed": true,
          "internalType": "uint256",
          "name": "id",
          "type": "uint256"
        }
      ],
      "name": "URI",
      "type": "event"
    },
    {
      "inputs": [
        {
          "internalType": "address",
          "name": "account",
          "type": "address"
        },
        {
          "internalType": "uint256",
          "name": "id",
          "type": "uint256"
        }
      ],
      "name": "balanceOf",
      "outputs": [
        {
          "internalType": "uint256",
          "name": "",
          "type": "uint256"
        }
      ],
      "stateMutability": "view",
      "type": "function"
    },
    {
      "inputs": [
        {
          "internalType": "address[]",
          "name": "accounts",
          "type": "address[]"
        },
        {
          "internalType": "uint256[]",
          "name": "ids",
          "type": "uint256[]"
        }
      ],
      "name": "balanceOfBatch",
      "outputs": [
        {
          "internalType": "uint256[]",
          "name": "",
          "type": "uint256[]"
        }
      ],
      "stateMutability": "view",
      "type": "function"
    },
    {
      "inputs": [
        {
          "internalType": "address",
          "name": "account",
          "type": "address"
        },
        {
          "internalType": "uint256[]",
          "name": "ids",
          "type": "uint256[]"
        },
        {
          "internalType": "uint256[]",
          "name": "values",
          "type": "uint256[]"
        }
      ],
      "name": "burnBatch",
      "outputs": [],
      "stateMutability": "nonpayable",
      "type": "function"
    },
    {
      "inputs": [
        {
          "internalType": "uint256",
          "name": "id",
          "type": "uint256"
        }
      ],
      "name": "exists",
      "outputs": [
        {
          "internalType": "bool",
          "name": "",
          "type": "bool"
        }
      ],
      "stateMutability": "view",
      "type": "function"
    },
    {
      "inputs": [
        {
          "internalType": "address",
          "name": "account",
          "type": "address"
        },
        {
          "internalType": "address",
          "name": "operator",
          "type": "address"
        }
      ],
      "name": "isApprovedForAll",
      "outputs": [
        {
          "internalType": "bool",
          "name": "",
          "type": "bool"
        }
      ],
      "stateMutability": "view",
      "type": "function"
    },
    {
      "inputs": [
        {
          "internalType": "address",
          "name": "from",
          "type": "address"
        },
        {
          "internalType": "address",
          "name": "to",
          "type": "address"
        },
        {
          "internalType": "uint256[]",
          "name": "ids",
          "type": "uint256[]"
        },
        {
          "internalType": "uint256[]",
          "name": "amounts",
          "type": "uint256[]"
        },
        {
          "internalType": "bytes",
          "name": "data",
          "type": "bytes"
        }
      ],
      "name": "safeBatchTransferFrom",
      "outputs": [],
      "stateMutability": "nonpayable",
      "type": "function"
    },
    {
      "inputs": [
        {
          "internalType": "address",
          "name": "from",
          "type": "address"
        },
        {
          "internalType": "address",
          "name": "to",
          "type": "address"
        },
        {
          "internalType": "uint256",
          "name": "id",
          "type": "uint256"
        },
        {
          "internalType": "uint256",
          "name": "amount",
          "type": "uint256"
        },
        {
          "internalType": "bytes",
          "name": "data",
          "type": "bytes"
        }
      ],
      "name": "safeTransferFrom",
      "outputs": [],
      "stateMutability": "nonpayable",
      "type": "function"
    },
    {
      "inputs": [
        {
          "internalType": "address",
          "name": "operator",
          "type": "address"
        },
        {
          "internalType": "bool",
          "name": "approved",
          "type": "bool"
        }
      ],
      "name": "setApprovalForAll",
      "outputs": [],
      "stateMutability": "nonpayable",
      "type": "function"
    },
    {
      "inputs": [
        {
          "internalType": "bytes4",
          "name": "interfaceId",
          "type": "bytes4"
        }
      ],
      "name": "supportsInterface",
      "outputs": [
        {
          "internalType": "bool",
          "name": "",
          "type": "bool"
        }
      ],
      "stateMutability": "view",
      "type": "function"
    },
    {
      "inputs": [
        {
          "internalType": "uint256",
          "name": "id",
          "type": "uint256"
        }
      ],
      "name": "totalSupply",
      "outputs": [
        {
          "internalType": "uint256",
          "name": "",
          "type": "uint256"
        }
      ],
      "stateMutability": "view",
      "type": "function"
    },
    {
      "inputs": [
        {
          "internalType": "uint256",
          "name": "id",
          "type": "uint256"
        },
        {
          "internalType": "bytes",
          "name": "data",
          "type": "bytes"
        }
      ],
      "name": "mint",
      "outputs": [],
      "stateMutability": "payable",
      "type": "function"
    },
    {
      "inputs": [
        {
          "internalType": "uint256",
          "name": "id",
          "type": "uint256"
        },
        {
          "internalType": "uint256",
          "name": "amount",
          "type": "uint256"
        }
      ],
      "name": "burn",
      "outputs": [],
      "stateMutability": "nonpayable",
      "type": "function"
    },
    {
      "inputs": [
        {
          "internalType": "address",
          "name": "account",
          "type": "address"
        },
        {
          "internalType": "uint256",
          "name": "id",
          "type": "uint256"
        },
        {
          "internalType": "uint256",
          "name": "value",
          "type": "uint256"
        }
      ],
      "name": "burn",
      "outputs": [],
      "stateMutability": "nonpayable",
      "type": "function"
    },
    {
      "inputs": [
        {
          "internalType": "uint256",
          "name": "id",
          "type": "uint256"
        }
      ],
      "name": "uri",
      "outputs": [
        {
          "internalType": "string",
          "name": "",
          "type": "string"
        }
      ],
      "stateMutability": "view",
      "type": "function"
    }
  ],
  "bytecode": "0x60806040523480156200001157600080fd5b506040518060200160405280600081525062000033816200003a60201b60201c565b50620003b0565b80600290816200004b9190620002c9565b5050565b600081519050919050565b7f4e487b7100000000000000000000000000000000000000000000000000000000600052604160045260246000fd5b7f4e487b7100000000000000000000000000000000000000000000000000000000600052602260045260246000fd5b60006002820490506001821680620000d157607f821691505b602082108103620000e757620000e662000089565b5b50919050565b60008190508160005260206000209050919050565b60006020601f8301049050919050565b600082821b905092915050565b600060088302620001517fffffffffffffffffffffffffffffffffffffffffffffffffffffffffffffffff8262000112565b6200015d868362000112565b95508019841693508086168417925050509392505050565b6000819050919050565b6000819050919050565b6000620001aa620001a46200019e8462000175565b6200017f565b62000175565b9050919050565b6000819050919050565b620001c68362000189565b620001de620001d582620001b1565b8484546200011f565b825550505050565b600090565b620001f5620001e6565b62000202818484620001bb565b505050565b5b818110156200022a576200021e600082620001eb565b60018101905062000208565b5050565b601f82111562000279576200024381620000ed565b6200024e8462000102565b810160208510156200025e578190505b620002766200026d8562000102565b83018262000207565b50505b505050565b600082821c905092915050565b60006200029e600019846008026200027e565b1980831691505092915050565b6000620002b983836200028b565b9150826002028217905092915050565b620002d4826200004f565b67ffffffffffffffff811115620002f057620002ef6200005a565b5b620002fc8254620000b8565b620003098282856200022e565b600060209050601f8311600181146200034157600084156200032c578287015190505b620003388582620002ab565b865550620003a8565b601f1984166200035186620000ed565b60005b828110156200037b5784890151825560018201915060208501945060208101905062000354565b868310156200039b578489015162000397601f8916826200028b565b8355505b6001600288020188555050505b505050505050565b613fd780620003c06000396000f3fe6080604052600436106100dc5760003560e01c8063a22cb4651161007f578063db7fd40811610059578063db7fd408146102f3578063e985e9c51461030f578063f242432a1461034c578063f5298aca14610375576100dc565b8063a22cb46514610264578063b390c0ab1461028d578063bd85b039146102b6576100dc565b80632eb2c2d6116100bb5780632eb2c2d6146101985780634e1273f4146101c15780634f558e79146101fe5780636b20c4541461023b576100dc565b8062fdd58e146100e157806301ffc9a71461011e5780630e89341c1461015b575b600080fd5b3480156100ed57600080fd5b5061010860048036038101906101039190612419565b61039e565b6040516101159190612468565b60405180910390f35b34801561012a57600080fd5b50610145600480360381019061014091906124db565b610466565b6040516101529190612523565b60405180910390f35b34801561016757600080fd5b50610182600480360381019061017d919061253e565b610548565b60405161018f91906125fb565b60405180910390f35b3480156101a457600080fd5b506101bf60048036038101906101ba919061281a565b61061f565b005b3480156101cd57600080fd5b506101e860048036038101906101e391906129ac565b6106c0565b6040516101f59190612ae2565b60405180910390f35b34801561020a57600080fd5b506102256004803603810190610220919061253e565b6107d9565b6040516102329190612523565b60405180910390f35b34801561024757600080fd5b50610262600480360381019061025d9190612b04565b6107ed565b005b34801561027057600080fd5b5061028b60048036038101906102869190612bbb565b61088a565b005b34801561029957600080fd5b506102b460048036038101906102af9190612bfb565b6108a0565b005b3480156102c257600080fd5b506102dd60048036038101906102d8919061253e565b6108fe565b6040516102ea9190612468565b60405180910390f35b61030d60048036038101906103089190612c3b565b61091b565b005b34801561031b57600080fd5b5061033660048036038101906103319190612c97565b61097c565b6040516103439190612523565b60405180910390f35b34801561035857600080fd5b50610373600480360381019061036e9190612cd7565b610a10565b005b34801561038157600080fd5b5061039c60048036038101906103979190612d6e565b610ab1565b005b60008073ffffffffffffffffffffffffffffffffffffffff168373ffffffffffffffffffffffffffffffffffffffff160361040e576040517f08c379a000000000000000000000000000000000000000000000000000000000815260040161040590612e33565b60405180910390fd5b60008083815260200190815260200160002060008473ffffffffffffffffffffffffffffffffffffffff1673ffffffffffffffffffffffffffffffffffffffff16815260200190815260200160002054905092915050565b60007fd9b67a26000000000000000000000000000000000000000000000000000000007bffffffffffffffffffffffffffffffffffffffffffffffffffffffff1916827bffffffffffffffffffffffffffffffffffffffffffffffffffffffff1916148061053157507f0e89341c000000000000000000000000000000000000000000000000000000007bffffffffffffffffffffffffffffffffffffffffffffffffffffffff1916827bffffffffffffffffffffffffffffffffffffffffffffffffffffffff1916145b80610541575061054082610b4e565b5b9050919050565b6060610553826107d9565b610592576040517f08c379a000000000000000000000000000000000000000000000000000000000815260040161058990612e9f565b60405180910390fd5b600061059d83610bb8565b6105cd6105a985610bb8565b6040516020016105b991906131fe565b604051602081830303815290604052610c86565b6040516020016105de92919061335b565b60405160208183030381529060405290506105f881610c86565b60405160200161060891906133ec565b604051602081830303815290604052915050919050565b610627610de9565b73ffffffffffffffffffffffffffffffffffffffff168573ffffffffffffffffffffffffffffffffffffffff16148061066d575061066c85610667610de9565b61097c565b5b6106ac576040517f08c379a00000000000000000000000000000000000000000000000000000000081526004016106a390613480565b60405180910390fd5b6106b98585858585610df1565b5050505050565b60608151835114610706576040517f08c379a00000000000000000000000000000000000000000000000000000000081526004016106fd90613512565b60405180910390fd5b6000835167ffffffffffffffff81111561072357610722612622565b5b6040519080825280602002602001820160405280156107515781602001602082028036833780820191505090505b50905060005b84518110156107ce5761079e85828151811061077657610775613532565b5b602002602001015185838151811061079157610790613532565b5b602002602001015161039e565b8282815181106107b1576107b0613532565b5b602002602001018181525050806107c790613590565b9050610757565b508091505092915050565b6000806107e5836108fe565b119050919050565b6107f5610de9565b73ffffffffffffffffffffffffffffffffffffffff168373ffffffffffffffffffffffffffffffffffffffff16148061083b575061083a83610835610de9565b61097c565b5b61087a576040517f08c379a000000000000000000000000000000000000000000000000000000000815260040161087190613480565b60405180910390fd5b610885838383611112565b505050565b61089c610895610de9565b83836113e0565b5050565b6108ab338383610ab1565b813373ffffffffffffffffffffffffffffffffffffffff167f23ff0e75edf108e3d0392d92e13e8c8a868ef19001bd49f9e94876dc46dff87f836040516108f29190612468565b60405180910390a35050565b600060036000838152602001908152602001600020549050919050565b610928338360018461154c565b813373ffffffffffffffffffffffffffffffffffffffff167f25b428dfde728ccfaddad7e29e4ac23c24ed7fd1a6e3e3f91894a9a073f5dfff6001604051610970919061361d565b60405180910390a35050565b6000600160008473ffffffffffffffffffffffffffffffffffffffff1673ffffffffffffffffffffffffffffffffffffffff16815260200190815260200160002060008373ffffffffffffffffffffffffffffffffffffffff1673ffffffffffffffffffffffffffffffffffffffff16815260200190815260200160002060009054906101000a900460ff16905092915050565b610a18610de9565b73ffffffffffffffffffffffffffffffffffffffff168573ffffffffffffffffffffffffffffffffffffffff161480610a5e5750610a5d85610a58610de9565b61097c565b5b610a9d576040517f08c379a0000000000000000000000000000000000000000000000000000000008152600401610a9490613480565b60405180910390fd5b610aaa85858585856116fc565b5050505050565b610ab9610de9565b73ffffffffffffffffffffffffffffffffffffffff168373ffffffffffffffffffffffffffffffffffffffff161480610aff5750610afe83610af9610de9565b61097c565b5b610b3e576040517f08c379a0000000000000000000000000000000000000000000000000000000008152600401610b3590613480565b60405180910390fd5b610b49838383611997565b505050565b60007f01ffc9a7000000000000000000000000000000000000000000000000000000007bffffffffffffffffffffffffffffffffffffffffffffffffffffffff1916827bffffffffffffffffffffffffffffffffffffffffffffffffffffffff1916149050919050565b606060006001610bc784611bdd565b01905060008167ffffffffffffffff811115610be657610be5612622565b5b6040519080825280601f01601f191660200182016040528015610c185781602001600182028036833780820191505090505b509050600082602001820190505b600115610c7b578080600190039150507f3031323334353637383961626364656600000000000000000000000000000000600a86061a8153600a8581610c6f57610c6e613638565b5b04945060008503610c26575b819350505050919050565b60606000825103610ca857604051806020016040528060008152509050610de4565b6000604051806060016040528060408152602001613f626040913990506000600360028551610cd79190613667565b610ce1919061369b565b6004610ced91906136cc565b67ffffffffffffffff811115610d0657610d05612622565b5b6040519080825280601f01601f191660200182016040528015610d385781602001600182028036833780820191505090505b509050600182016020820185865187015b80821015610da4576003820191508151603f8160121c168501518453600184019350603f81600c1c168501518453600184019350603f8160061c168501518453600184019350603f8116850151845360018401935050610d49565b5050600386510660018114610dc05760028114610dd357610ddb565b603d6001830353603d6002830353610ddb565b603d60018303535b50505080925050505b919050565b600033905090565b8151835114610e35576040517f08c379a0000000000000000000000000000000000000000000000000000000008152600401610e2c90613798565b60405180910390fd5b600073ffffffffffffffffffffffffffffffffffffffff168473ffffffffffffffffffffffffffffffffffffffff1603610ea4576040517f08c379a0000000000000000000000000000000000000000000000000000000008152600401610e9b9061382a565b60405180910390fd5b6000610eae610de9565b9050610ebe818787878787611d30565b60005b845181101561106f576000858281518110610edf57610ede613532565b5b602002602001015190506000858381518110610efe57610efd613532565b5b60200260200101519050600080600084815260200190815260200160002060008b73ffffffffffffffffffffffffffffffffffffffff1673ffffffffffffffffffffffffffffffffffffffff16815260200190815260200160002054905081811015610f9f576040517f08c379a0000000000000000000000000000000000000000000000000000000008152600401610f96906138bc565b60405180910390fd5b81810360008085815260200190815260200160002060008c73ffffffffffffffffffffffffffffffffffffffff1673ffffffffffffffffffffffffffffffffffffffff168152602001908152602001600020819055508160008085815260200190815260200160002060008b73ffffffffffffffffffffffffffffffffffffffff1673ffffffffffffffffffffffffffffffffffffffff16815260200190815260200160002060008282546110549190613667565b925050819055505050508061106890613590565b9050610ec1565b508473ffffffffffffffffffffffffffffffffffffffff168673ffffffffffffffffffffffffffffffffffffffff168273ffffffffffffffffffffffffffffffffffffffff167f4a39dc06d4c0dbc64b70af90fd698a233a518aa5d07e595d983b8c0526c8f7fb87876040516110e69291906138dc565b60405180910390a46110fc818787878787611d46565b61110a818787878787611d4e565b505050505050565b600073ffffffffffffffffffffffffffffffffffffffff168373ffffffffffffffffffffffffffffffffffffffff1603611181576040517f08c379a000000000000000000000000000000000000000000000000000000000815260040161117890613985565b60405180910390fd5b80518251146111c5576040517f08c379a00000000000000000000000000000000000000000000000000000000081526004016111bc90613798565b60405180910390fd5b60006111cf610de9565b90506111ef81856000868660405180602001604052806000815250611d30565b60005b835181101561133c5760008482815181106112105761120f613532565b5b60200260200101519050600084838151811061122f5761122e613532565b5b60200260200101519050600080600084815260200190815260200160002060008973ffffffffffffffffffffffffffffffffffffffff1673ffffffffffffffffffffffffffffffffffffffff168152602001908152602001600020549050818110156112d0576040517f08c379a00000000000000000000000000000000000000000000000000000000081526004016112c790613a17565b60405180910390fd5b81810360008085815260200190815260200160002060008a73ffffffffffffffffffffffffffffffffffffffff1673ffffffffffffffffffffffffffffffffffffffff16815260200190815260200160002081905550505050808061133490613590565b9150506111f2565b50600073ffffffffffffffffffffffffffffffffffffffff168473ffffffffffffffffffffffffffffffffffffffff168273ffffffffffffffffffffffffffffffffffffffff167f4a39dc06d4c0dbc64b70af90fd698a233a518aa5d07e595d983b8c0526c8f7fb86866040516113b49291906138dc565b60405180910390a46113da81856000868660405180602001604052806000815250611d46565b50505050565b8173ffffffffffffffffffffffffffffffffffffffff168373ffffffffffffffffffffffffffffffffffffffff160361144e576040517f08c379a000000000000000000000000000000000000000000000000000000000815260040161144590613aa9565b60405180910390fd5b80600160008573ffffffffffffffffffffffffffffffffffffffff1673ffffffffffffffffffffffffffffffffffffffff16815260200190815260200160002060008473ffffffffffffffffffffffffffffffffffffffff1673ffffffffffffffffffffffffffffffffffffffff16815260200190815260200160002060006101000a81548160ff0219169083151502179055508173ffffffffffffffffffffffffffffffffffffffff168373ffffffffffffffffffffffffffffffffffffffff167f17307eab39ab6107e8899845ad3d59bd9653f200f220920489ca2b5937696c318360405161153f9190612523565b60405180910390a3505050565b600073ffffffffffffffffffffffffffffffffffffffff168473ffffffffffffffffffffffffffffffffffffffff16036115bb576040517f08c379a00000000000000000000000000000000000000000000000000000000081526004016115b290613b3b565b60405180910390fd5b60006115c5610de9565b905060006115d285611f25565b905060006115df85611f25565b90506115f083600089858589611d30565b8460008088815260200190815260200160002060008973ffffffffffffffffffffffffffffffffffffffff1673ffffffffffffffffffffffffffffffffffffffff168152602001908152602001600020600082825461164f9190613667565b925050819055508673ffffffffffffffffffffffffffffffffffffffff16600073ffffffffffffffffffffffffffffffffffffffff168473ffffffffffffffffffffffffffffffffffffffff167fc3d58168c5ae7397731d063d5bbf3d657854427343f4c083240f7aacaa2d0f6289896040516116cd929190613b5b565b60405180910390a46116e483600089858589611d46565b6116f383600089898989611f9f565b50505050505050565b600073ffffffffffffffffffffffffffffffffffffffff168473ffffffffffffffffffffffffffffffffffffffff160361176b576040517f08c379a00000000000000000000000000000000000000000000000000000000081526004016117629061382a565b60405180910390fd5b6000611775610de9565b9050600061178285611f25565b9050600061178f85611f25565b905061179f838989858589611d30565b600080600088815260200190815260200160002060008a73ffffffffffffffffffffffffffffffffffffffff1673ffffffffffffffffffffffffffffffffffffffff16815260200190815260200160002054905085811015611836576040517f08c379a000000000000000000000000000000000000000000000000000000000815260040161182d906138bc565b60405180910390fd5b85810360008089815260200190815260200160002060008b73ffffffffffffffffffffffffffffffffffffffff1673ffffffffffffffffffffffffffffffffffffffff168152602001908152602001600020819055508560008089815260200190815260200160002060008a73ffffffffffffffffffffffffffffffffffffffff1673ffffffffffffffffffffffffffffffffffffffff16815260200190815260200160002060008282546118eb9190613667565b925050819055508773ffffffffffffffffffffffffffffffffffffffff168973ffffffffffffffffffffffffffffffffffffffff168573ffffffffffffffffffffffffffffffffffffffff167fc3d58168c5ae7397731d063d5bbf3d657854427343f4c083240f7aacaa2d0f628a8a604051611968929190613b5b565b60405180910390a461197e848a8a86868a611d46565b61198c848a8a8a8a8a611f9f565b505050505050505050565b600073ffffffffffffffffffffffffffffffffffffffff168373ffffffffffffffffffffffffffffffffffffffff1603611a06576040517f08c379a00000000000000000000000000000000000000000000000000000000081526004016119fd90613985565b60405180910390fd5b6000611a10610de9565b90506000611a1d84611f25565b90506000611a2a84611f25565b9050611a4a83876000858560405180602001604052806000815250611d30565b600080600087815260200190815260200160002060008873ffffffffffffffffffffffffffffffffffffffff1673ffffffffffffffffffffffffffffffffffffffff16815260200190815260200160002054905084811015611ae1576040517f08c379a0000000000000000000000000000000000000000000000000000000008152600401611ad890613a17565b60405180910390fd5b84810360008088815260200190815260200160002060008973ffffffffffffffffffffffffffffffffffffffff1673ffffffffffffffffffffffffffffffffffffffff16815260200190815260200160002081905550600073ffffffffffffffffffffffffffffffffffffffff168773ffffffffffffffffffffffffffffffffffffffff168573ffffffffffffffffffffffffffffffffffffffff167fc3d58168c5ae7397731d063d5bbf3d657854427343f4c083240f7aacaa2d0f628989604051611bae929190613b5b565b60405180910390a4611bd484886000868660405180602001604052806000815250611d46565b50505050505050565b600080600090507a184f03e93ff9f4daa797ed6e38ed64bf6a1f0100000000000000008310611c3b577a184f03e93ff9f4daa797ed6e38ed64bf6a1f0100000000000000008381611c3157611c30613638565b5b0492506040810190505b6d04ee2d6d415b85acef81000000008310611c78576d04ee2d6d415b85acef81000000008381611c6e57611c6d613638565b5b0492506020810190505b662386f26fc100008310611ca757662386f26fc100008381611c9d57611c9c613638565b5b0492506010810190505b6305f5e1008310611cd0576305f5e1008381611cc657611cc5613638565b5b0492506008810190505b6127108310611cf5576127108381611ceb57611cea613638565b5b0492506004810190505b60648310611d185760648381611d0e57611d0d613638565b5b0492506002810190505b600a8310611d27576001810190505b80915050919050565b611d3e868686868686612176565b505050505050565b505050505050565b611d6d8473ffffffffffffffffffffffffffffffffffffffff16612346565b15611f1d578373ffffffffffffffffffffffffffffffffffffffff1663bc197c8187878686866040518663ffffffff1660e01b8152600401611db3959493929190613be8565b6020604051808303816000875af1925050508015611def57506040513d601f19601f82011682018060405250810190611dec9190613c65565b60015b611e9457611dfb613c9f565b806308c379a003611e575750611e0f613cc1565b80611e1a5750611e59565b806040517f08c379a0000000000000000000000000000000000000000000000000000000008152600401611e4e91906125fb565b60405180910390fd5b505b6040517f08c379a0000000000000000000000000000000000000000000000000000000008152600401611e8b90613dc3565b60405180910390fd5b63bc197c8160e01b7bffffffffffffffffffffffffffffffffffffffffffffffffffffffff1916817bffffffffffffffffffffffffffffffffffffffffffffffffffffffff191614611f1b576040517f08c379a0000000000000000000000000000000000000000000000000000000008152600401611f1290613e55565b60405180910390fd5b505b505050505050565b60606000600167ffffffffffffffff811115611f4457611f43612622565b5b604051908082528060200260200182016040528015611f725781602001602082028036833780820191505090505b5090508281600081518110611f8a57611f89613532565b5b60200260200101818152505080915050919050565b611fbe8473ffffffffffffffffffffffffffffffffffffffff16612346565b1561216e578373ffffffffffffffffffffffffffffffffffffffff1663f23a6e6187878686866040518663ffffffff1660e01b8152600401612004959493929190613e75565b6020604051808303816000875af192505050801561204057506040513d601f19601f8201168201806040525081019061203d9190613c65565b60015b6120e55761204c613c9f565b806308c379a0036120a85750612060613cc1565b8061206b57506120aa565b806040517f08c379a000000000000000000000000000000000000000000000000000000000815260040161209f91906125fb565b60405180910390fd5b505b6040517f08c379a00000000000000000000000000000000000000000000000000000000081526004016120dc90613dc3565b60405180910390fd5b63f23a6e6160e01b7bffffffffffffffffffffffffffffffffffffffffffffffffffffffff1916817bffffffffffffffffffffffffffffffffffffffffffffffffffffffff19161461216c576040517f08c379a000000000000000000000000000000000000000000000000000000000815260040161216390613e55565b60405180910390fd5b505b505050505050565b612184868686868686612369565b600073ffffffffffffffffffffffffffffffffffffffff168573ffffffffffffffffffffffffffffffffffffffff16036122355760005b8351811015612233578281815181106121d7576121d6613532565b5b6020026020010151600360008684815181106121f6576121f5613532565b5b60200260200101518152602001908152602001600020600082825461221b9190613667565b925050819055508061222c90613590565b90506121bb565b505b600073ffffffffffffffffffffffffffffffffffffffff168473ffffffffffffffffffffffffffffffffffffffff160361233e5760005b835181101561233c57600084828151811061228a57612289613532565b5b6020026020010151905060008483815181106122a9576122a8613532565b5b602002602001015190506000600360008481526020019081526020016000205490508181101561230e576040517f08c379a000000000000000000000000000000000000000000000000000000000815260040161230590613f41565b60405180910390fd5b81810360036000858152602001908152602001600020819055505050508061233590613590565b905061226c565b505b505050505050565b6000808273ffffffffffffffffffffffffffffffffffffffff163b119050919050565b505050505050565b6000604051905090565b600080fd5b600080fd5b600073ffffffffffffffffffffffffffffffffffffffff82169050919050565b60006123b082612385565b9050919050565b6123c0816123a5565b81146123cb57600080fd5b50565b6000813590506123dd816123b7565b92915050565b6000819050919050565b6123f6816123e3565b811461240157600080fd5b50565b600081359050612413816123ed565b92915050565b600080604083850312156124305761242f61237b565b5b600061243e858286016123ce565b925050602061244f85828601612404565b9150509250929050565b612462816123e3565b82525050565b600060208201905061247d6000830184612459565b92915050565b60007fffffffff0000000000000000000000000000000000000000000000000000000082169050919050565b6124b881612483565b81146124c357600080fd5b50565b6000813590506124d5816124af565b92915050565b6000602082840312156124f1576124f061237b565b5b60006124ff848285016124c6565b91505092915050565b60008115159050919050565b61251d81612508565b82525050565b60006020820190506125386000830184612514565b92915050565b6000602082840312156125545761255361237b565b5b600061256284828501612404565b91505092915050565b600081519050919050565b600082825260208201905092915050565b60005b838110156125a557808201518184015260208101905061258a565b60008484015250505050565b6000601f19601f8301169050919050565b60006125cd8261256b565b6125d78185612576565b93506125e7818560208601612587565b6125f0816125b1565b840191505092915050565b6000602082019050818103600083015261261581846125c2565b905092915050565b600080fd5b7f4e487b7100000000000000000000000000000000000000000000000000000000600052604160045260246000fd5b61265a826125b1565b810181811067ffffffffffffffff8211171561267957612678612622565b5b80604052505050565b600061268c612371565b90506126988282612651565b919050565b600067ffffffffffffffff8211156126b8576126b7612622565b5b602082029050602081019050919050565b600080fd5b60006126e16126dc8461269d565b612682565b90508083825260208201905060208402830185811115612704576127036126c9565b5b835b8181101561272d57806127198882612404565b845260208401935050602081019050612706565b5050509392505050565b600082601f83011261274c5761274b61261d565b5b813561275c8482602086016126ce565b91505092915050565b600080fd5b600067ffffffffffffffff82111561278557612784612622565b5b61278e826125b1565b9050602081019050919050565b82818337600083830152505050565b60006127bd6127b88461276a565b612682565b9050828152602081018484840111156127d9576127d8612765565b5b6127e484828561279b565b509392505050565b600082601f8301126128015761280061261d565b5b81356128118482602086016127aa565b91505092915050565b600080600080600060a086880312156128365761283561237b565b5b6000612844888289016123ce565b9550506020612855888289016123ce565b945050604086013567ffffffffffffffff81111561287657612875612380565b5b61288288828901612737565b935050606086013567ffffffffffffffff8111156128a3576128a2612380565b5b6128af88828901612737565b925050608086013567ffffffffffffffff8111156128d0576128cf612380565b5b6128dc888289016127ec565b9150509295509295909350565b600067ffffffffffffffff82111561290457612903612622565b5b602082029050602081019050919050565b6000612928612923846128e9565b612682565b9050808382526020820190506020840283018581111561294b5761294a6126c9565b5b835b81811015612974578061296088826123ce565b84526020840193505060208101905061294d565b5050509392505050565b600082601f8301126129935761299261261d565b5b81356129a3848260208601612915565b91505092915050565b600080604083850312156129c3576129c261237b565b5b600083013567ffffffffffffffff8111156129e1576129e0612380565b5b6129ed8582860161297e565b925050602083013567ffffffffffffffff811115612a0e57612a0d612380565b5b612a1a85828601612737565b9150509250929050565b600081519050919050565b600082825260208201905092915050565b6000819050602082019050919050565b612a59816123e3565b82525050565b6000612a6b8383612a50565b60208301905092915050565b6000602082019050919050565b6000612a8f82612a24565b612a998185612a2f565b9350612aa483612a40565b8060005b83811015612ad5578151612abc8882612a5f565b9750612ac783612a77565b925050600181019050612aa8565b5085935050505092915050565b60006020820190508181036000830152612afc8184612a84565b905092915050565b600080600060608486031215612b1d57612b1c61237b565b5b6000612b2b868287016123ce565b935050602084013567ffffffffffffffff811115612b4c57612b4b612380565b5b612b5886828701612737565b925050604084013567ffffffffffffffff811115612b7957612b78612380565b5b612b8586828701612737565b9150509250925092565b612b9881612508565b8114612ba357600080fd5b50565b600081359050612bb581612b8f565b92915050565b60008060408385031215612bd257612bd161237b565b5b6000612be0858286016123ce565b9250506020612bf185828601612ba6565b9150509250929050565b60008060408385031215612c1257612c1161237b565b5b6000612c2085828601612404565b9250506020612c3185828601612404565b9150509250929050565b60008060408385031215612c5257612c5161237b565b5b6000612c6085828601612404565b925050602083013567ffffffffffffffff811115612c8157612c80612380565b5b612c8d858286016127ec565b9150509250929050565b60008060408385031215612cae57612cad61237b565b5b6000612cbc858286016123ce565b9250506020612ccd858286016123ce565b9150509250929050565b600080600080600060a08688031215612cf357612cf261237b565b5b6000612d01888289016123ce565b9550506020612d12888289016123ce565b9450506040612d2388828901612404565b9350506060612d3488828901612404565b925050608086013567ffffffffffffffff811115612d5557612d54612380565b5b612d61888289016127ec565b9150509295509295909350565b600080600060608486031215612d8757612d8661237b565b5b6000612d95868287016123ce565b9350506020612da686828701612404565b9250506040612db786828701612404565b9150509250925092565b7f455243313135353a2061646472657373207a65726f206973206e6f742061207660008201527f616c6964206f776e657200000000000000000000000000000000000000000000602082015250565b6000612e1d602a83612576565b9150612e2882612dc1565b604082019050919050565b60006020820190508181036000830152612e4c81612e10565b9050919050565b7f496e76616c696420696400000000000000000000000000000000000000000000600082015250565b6000612e89600a83612576565b9150612e9482612e53565b602082019050919050565b60006020820190508181036000830152612eb881612e7c565b9050919050565b600081905092915050565b7f3c73766720786d6c6e733d27687474703a2f2f7777772e77332e6f72672f323060008201527f30302f737667272076657273696f6e3d27312e31272077696474683d2734303060208201527f27206865696768743d27343030272076696577426f783d27302030203120312760408201527f3e3c646566733e3c6c696e6561724772616469656e742069643d27472720783160608201527f3d2730272078323d2730272079313d2730272079323d2731273e3c73746f702060808201527f6f66667365743d273025272073746f702d636f6c6f723d27726564272f3e3c7360a08201527f746f70206f66667365743d27353025272073746f702d636f6c6f723d2767726560c08201527f656e272f3e3c73746f70206f66667365743d2731303025272073746f702d636f60e08201527f6c6f723d27626c7565272f3e3c2f6c696e6561724772616469656e743e3c2f646101008201527f6566733e3c7374796c653e2e427b66696c6c3a233030303030307d2e547b666f6101208201527f6e742d66616d696c793a6d6f6e6f73706163653b666f6e742d73697a653a302e6101408201527f303235656d3b66696c6c3a236666666666667d3c2f7374796c653e3c726563746101608201527f2066696c6c3d2775726c28234729272077696474683d273127206865696768746101808201527f3d2731272073686170652d72656e646572696e673d27637269737045646765736101a08201527f272f3e3c7465787420636c6173733d2754272069643d27656e7472792720783d6101c08201527f273530252720793d273530252720646f6d696e616e742d626173656c696e653d6101e08201527f276d6964646c652720746578742d616e63686f723d276d6964646c65273e000061020082015250565b600061316a61021e83612ebf565b915061317582612eca565b61021e82019050919050565b600061318c8261256b565b6131968185612ebf565b93506131a6818560208601612587565b80840191505092915050565b7f3c2f746578743e3c2f7376673e00000000000000000000000000000000000000600082015250565b60006131e8600d83612ebf565b91506131f3826131b2565b600d82019050919050565b60006132098261315c565b91506132158284613181565b9150613220826131db565b915081905092915050565b7f7b226e616d65223a22546f6b656e202300000000000000000000000000000000600082015250565b6000613261601083612ebf565b915061326c8261322b565b601082019050919050565b7f222c226465736372697074696f6e223a2254686973206973206120746573742060008201527f746f6b656e222c22696d616765223a22646174613a696d6167652f7376672b7860208201527f6d6c3b6261736536342c00000000000000000000000000000000000000000000604082015250565b60006132f9604a83612ebf565b915061330482613277565b604a82019050919050565b7f227d000000000000000000000000000000000000000000000000000000000000600082015250565b6000613345600283612ebf565b91506133508261330f565b600282019050919050565b600061336682613254565b91506133728285613181565b915061337d826132ec565b91506133898284613181565b915061339482613338565b91508190509392505050565b7f646174613a6170706c69636174696f6e2f6a736f6e3b6261736536342c000000600082015250565b60006133d6601d83612ebf565b91506133e1826133a0565b601d82019050919050565b60006133f7826133c9565b91506134038284613181565b915081905092915050565b7f455243313135353a2063616c6c6572206973206e6f7420746f6b656e206f776e60008201527f6572206f7220617070726f766564000000000000000000000000000000000000602082015250565b600061346a602e83612576565b91506134758261340e565b604082019050919050565b600060208201905081810360008301526134998161345d565b9050919050565b7f455243313135353a206163636f756e747320616e6420696473206c656e67746860008201527f206d69736d617463680000000000000000000000000000000000000000000000602082015250565b60006134fc602983612576565b9150613507826134a0565b604082019050919050565b6000602082019050818103600083015261352b816134ef565b9050919050565b7f4e487b7100000000000000000000000000000000000000000000000000000000600052603260045260246000fd5b7f4e487b7100000000000000000000000000000000000000000000000000000000600052601160045260246000fd5b600061359b826123e3565b91507fffffffffffffffffffffffffffffffffffffffffffffffffffffffffffffffff82036135cd576135cc613561565b5b600182019050919050565b6000819050919050565b6000819050919050565b60006136076136026135fd846135d8565b6135e2565b6123e3565b9050919050565b613617816135ec565b82525050565b6000602082019050613632600083018461360e565b92915050565b7f4e487b7100000000000000000000000000000000000000000000000000000000600052601260045260246000fd5b6000613672826123e3565b915061367d836123e3565b925082820190508082111561369557613694613561565b5b92915050565b60006136a6826123e3565b91506136b1836123e3565b9250826136c1576136c0613638565b5b828204905092915050565b60006136d7826123e3565b91506136e2836123e3565b9250817fffffffffffffffffffffffffffffffffffffffffffffffffffffffffffffffff048311821515161561371b5761371a613561565b5b828202905092915050565b7f455243313135353a2069647320616e6420616d6f756e7473206c656e6774682060008201527f6d69736d61746368000000000000000000000000000000000000000000000000602082015250565b6000613782602883612576565b915061378d82613726565b604082019050919050565b600060208201905081810360008301526137b181613775565b9050919050565b7f455243313135353a207472616e7366657220746f20746865207a65726f20616460008201527f6472657373000000000000000000000000000000000000000000000000000000602082015250565b6000613814602583612576565b915061381f826137b8565b604082019050919050565b6000602082019050818103600083015261384381613807565b9050919050565b7f455243313135353a20696e73756666696369656e742062616c616e636520666f60008201527f72207472616e7366657200000000000000000000000000000000000000000000602082015250565b60006138a6602a83612576565b91506138b18261384a565b604082019050919050565b600060208201905081810360008301526138d581613899565b9050919050565b600060408201905081810360008301526138f68185612a84565b9050818103602083015261390a8184612a84565b90509392505050565b7f455243313135353a206275726e2066726f6d20746865207a65726f206164647260008201527f6573730000000000000000000000000000000000000000000000000000000000602082015250565b600061396f602383612576565b915061397a82613913565b604082019050919050565b6000602082019050818103600083015261399e81613962565b9050919050565b7f455243313135353a206275726e20616d6f756e7420657863656564732062616c60008201527f616e636500000000000000000000000000000000000000000000000000000000602082015250565b6000613a01602483612576565b9150613a0c826139a5565b604082019050919050565b60006020820190508181036000830152613a30816139f4565b9050919050565b7f455243313135353a2073657474696e6720617070726f76616c2073746174757360008201527f20666f722073656c660000000000000000000000000000000000000000000000602082015250565b6000613a93602983612576565b9150613a9e82613a37565b604082019050919050565b60006020820190508181036000830152613ac281613a86565b9050919050565b7f455243313135353a206d696e7420746f20746865207a65726f2061646472657360008201527f7300000000000000000000000000000000000000000000000000000000000000602082015250565b6000613b25602183612576565b9150613b3082613ac9565b604082019050919050565b60006020820190508181036000830152613b5481613b18565b9050919050565b6000604082019050613b706000830185612459565b613b7d6020830184612459565b9392505050565b613b8d816123a5565b82525050565b600081519050919050565b600082825260208201905092915050565b6000613bba82613b93565b613bc48185613b9e565b9350613bd4818560208601612587565b613bdd816125b1565b840191505092915050565b600060a082019050613bfd6000830188613b84565b613c0a6020830187613b84565b8181036040830152613c1c8186612a84565b90508181036060830152613c308185612a84565b90508181036080830152613c448184613baf565b90509695505050505050565b600081519050613c5f816124af565b92915050565b600060208284031215613c7b57613c7a61237b565b5b6000613c8984828501613c50565b91505092915050565b60008160e01c9050919050565b600060033d1115613cbe5760046000803e613cbb600051613c92565b90505b90565b600060443d10613d4e57613cd3612371565b60043d036004823e80513d602482011167ffffffffffffffff82111715613cfb575050613d4e565b808201805167ffffffffffffffff811115613d195750505050613d4e565b80602083010160043d038501811115613d36575050505050613d4e565b613d4582602001850186612651565b82955050505050505b90565b7f455243313135353a207472616e7366657220746f206e6f6e2d4552433131353560008201527f526563656976657220696d706c656d656e746572000000000000000000000000602082015250565b6000613dad603483612576565b9150613db882613d51565b604082019050919050565b60006020820190508181036000830152613ddc81613da0565b9050919050565b7f455243313135353a204552433131353552656365697665722072656a6563746560008201527f6420746f6b656e73000000000000000000000000000000000000000000000000602082015250565b6000613e3f602883612576565b9150613e4a82613de3565b604082019050919050565b60006020820190508181036000830152613e6e81613e32565b9050919050565b600060a082019050613e8a6000830188613b84565b613e976020830187613b84565b613ea46040830186612459565b613eb16060830185612459565b8181036080830152613ec38184613baf565b90509695505050505050565b7f455243313135353a206275726e20616d6f756e74206578636565647320746f7460008201527f616c537570706c79000000000000000000000000000000000000000000000000602082015250565b6000613f2b602883612576565b9150613f3682613ecf565b604082019050919050565b60006020820190508181036000830152613f5a81613f1e565b905091905056fe4142434445464748494a4b4c4d4e4f505152535455565758595a6162636465666768696a6b6c6d6e6f707172737475767778797a303132333435363738392b2fa2646970667358221220ec5b2506e938c6cada4dce71229093e38a05ce8365f151c03968b9bc3eaa069a64736f6c63430008100033",
  "immutableReferences": {},
  "source": "// SPDX-License-Identifier: MIT\npragma solidity ^0.8.16;\nimport { ERC1155 } from '@openzeppelin/contracts/token/ERC1155/ERC1155.sol';\nimport { ERC1155Supply } from '@openzeppelin/contracts/token/ERC1155/extensions/ERC1155Supply.sol';\nimport { ERC1155Burnable } from '@openzeppelin/contracts/token/ERC1155/extensions/ERC1155Burnable.sol';\nimport { Strings } from '@openzeppelin/contracts/utils/Strings.sol';\nimport { Base64 } from '@openzeppelin/contracts/utils/Base64.sol';\n\ncontract TestMultiToken is ERC1155, ERC1155Burnable, ERC1155Supply {\n\tusing Strings for uint256;\n\n\tevent Minted(address indexed account, uint256 indexed id, uint256 amount);\n\n\tevent Burned(address indexed account, uint256 indexed id, uint256 amount);\n\n\tconstructor() ERC1155('') {\n\t}\n\n  function _beforeTokenTransfer(address operator, address from, address to, uint256[] memory ids, uint256[] memory amounts, bytes memory data) internal override (ERC1155, ERC1155Supply) {\n    super._beforeTokenTransfer(operator, from, to, ids, amounts, data);\n  }\n\n  function mint(uint256 id, bytes memory data) public payable {\n    _mint(msg.sender, id, 1, data);\n    emit Minted(msg.sender, id, 1);\n  }\n\n\tfunction burn(uint256 id, uint256 amount) public {\n\t\tERC1155Burnable.burn(msg.sender, id, amount);\n\t\temit Burned(msg.sender, id, amount);\n\t}\n\n\t/// @notice Returns a token metadata, compliant with ERC1155Metadata_URI\n\t/// @param id Token id\n\t/// @return metadata Token metadata, as json string base64 encoded\n\tfunction uri(uint256 id) public view override returns (string memory) {\n\t\trequire(exists(id), 'Invalid id');\n\t\tbytes memory json = abi.encodePacked(\n\t\t\t'{'\n\t\t\t\t'\"name\":\"Token #', id.toString(), '\",'\n\t\t\t\t'\"description\":\"This is a test token\",'\n\t\t\t\t'\"image\":\"data:image/svg+xml;base64,',\n\t\t\t\t\tBase64.encode(\n\t\t\t\t\t\tabi.encodePacked(\n\t\t\t\t\t\t\t\"<svg xmlns='http://www.w3.org/2000/svg' version='1.1' width='400' height='400' viewBox='0 0 1 1'>\"\n\t\t\t\t\t\t\t\"<defs>\"\n\t\t\t\t\t\t\t\t\"<linearGradient id='G' x1='0' x2='0' y1='0' y2='1'>\"\n\t\t\t\t\t\t\t\t\t\"<stop offset='0%' stop-color='red'/>\"\n\t\t\t\t\t\t\t\t\t\"<stop offset='50%' stop-color='green'/>\"\n\t\t\t\t\t\t\t\t\t\"<stop offset='100%' stop-color='blue'/>\"\n\t\t\t\t\t\t\t\t\"</linearGradient>\"\n\t\t\t\t\t\t\t\"</defs>\"\n\t\t\t\t\t\t\t\"<style>\"\n\t\t\t\t\t\t\t\t\".B{fill:#000000}\"\n\t\t\t\t\t\t\t\t\".T{font-family:monospace;font-size:0.025em;fill:#ffffff}\"\n\t\t\t\t\t\t\t\"</style>\"\n\t\t\t\t\t\t\t\"<rect fill='url(#G)' width='1' height='1' shape-rendering='crispEdges'/>\"\n\t\t\t\t\t\t\t\"<text class='T' id='entry' x='50%' y='50%' dominant-baseline='middle' text-anchor='middle'>\", id.toString(), \"</text>\"\n\t\t\t\t\t\t\t\"</svg>\"\n\t\t\t\t\t\t)\n\t\t\t\t\t),\n\t\t\t\t'\"'\n\t\t\t'}'\n\t\t);\n\t\treturn string(abi.encodePacked('data:application/json;base64,', Base64.encode(json)));\n\t}\n}\n",
  "sourcePath": "/Users/roger/Dev/Blockchain/Truffle/ec-crawler/contracts/test/TestMultiToken.sol",
  "compiler": {
    "name": "solc",
    "version": "0.8.16+commit.07a7930e.Emscripten.clang"
  },
  "schemaVersion": "3.4.11",
  "updatedAt": "2022-12-01T01:24:01.033Z",
  "devdoc": {
    "kind": "dev",
    "methods": {
      "balanceOf(address,uint256)": {
        "details": "See {IERC1155-balanceOf}. Requirements: - `account` cannot be the zero address."
      },
      "balanceOfBatch(address[],uint256[])": {
        "details": "See {IERC1155-balanceOfBatch}. Requirements: - `accounts` and `ids` must have the same length."
      },
      "exists(uint256)": {
        "details": "Indicates whether any token exist with a given id, or not."
      },
      "isApprovedForAll(address,address)": {
        "details": "See {IERC1155-isApprovedForAll}."
      },
      "safeBatchTransferFrom(address,address,uint256[],uint256[],bytes)": {
        "details": "See {IERC1155-safeBatchTransferFrom}."
      },
      "safeTransferFrom(address,address,uint256,uint256,bytes)": {
        "details": "See {IERC1155-safeTransferFrom}."
      },
      "setApprovalForAll(address,bool)": {
        "details": "See {IERC1155-setApprovalForAll}."
      },
      "supportsInterface(bytes4)": {
        "details": "See {IERC165-supportsInterface}."
      },
      "totalSupply(uint256)": {
        "details": "Total amount of tokens in with a given id."
      },
      "uri(uint256)": {
        "params": {
          "id": "Token id"
        },
        "returns": {
          "_0": "metadata Token metadata, as json string base64 encoded"
        }
      }
    },
    "version": 1
  },
  "userdoc": {
    "kind": "user",
    "methods": {
      "uri(uint256)": {
        "notice": "Returns a token metadata, compliant with ERC1155Metadata_URI"
      }
    },
    "version": 1
  }
}