{
  "contractName": "CardsStore",
  "abi": [
    {
      "inputs": [],
      "stateMutability": "nonpayable",
      "type": "constructor"
    },
    {
      "anonymous": false,
      "inputs": [
        {
          "indexed": true,
          "internalType": "uint256",
          "name": "id",
          "type": "uint256"
        },
        {
          "indexed": true,
          "internalType": "string",
          "name": "name",
          "type": "string"
        }
      ],
      "name": "Created",
      "type": "event"
    },
    {
      "anonymous": false,
      "inputs": [
        {
          "indexed": true,
          "internalType": "uint256",
          "name": "id",
          "type": "uint256"
        },
        {
          "indexed": true,
          "internalType": "bool",
          "name": "listed",
          "type": "bool"
        }
      ],
      "name": "Listed",
      "type": "event"
    },
    {
      "anonymous": false,
      "inputs": [
        {
          "indexed": true,
          "internalType": "address",
          "name": "previousOwner",
          "type": "address"
        },
        {
          "indexed": true,
          "internalType": "address",
          "name": "newOwner",
          "type": "address"
        }
      ],
      "name": "OwnershipTransferred",
      "type": "event"
    },
    {
      "inputs": [],
      "name": "owner",
      "outputs": [
        {
          "internalType": "address",
          "name": "",
          "type": "address"
        }
      ],
      "stateMutability": "view",
      "type": "function"
    },
    {
      "inputs": [],
      "name": "renounceOwnership",
      "outputs": [],
      "stateMutability": "nonpayable",
      "type": "function"
    },
    {
      "inputs": [
        {
          "internalType": "address",
          "name": "newOwner",
          "type": "address"
        }
      ],
      "name": "transferOwnership",
      "outputs": [],
      "stateMutability": "nonpayable",
      "type": "function"
    },
    {
      "inputs": [],
      "name": "getVersion",
      "outputs": [
        {
          "internalType": "uint8",
          "name": "",
          "type": "uint8"
        }
      ],
      "stateMutability": "pure",
      "type": "function"
    },
    {
      "inputs": [
        {
          "internalType": "uint256",
          "name": "id",
          "type": "uint256"
        }
      ],
      "name": "exists",
      "outputs": [
        {
          "internalType": "bool",
          "name": "",
          "type": "bool"
        }
      ],
      "stateMutability": "view",
      "type": "function"
    },
    {
      "inputs": [
        {
          "internalType": "uint256",
          "name": "id",
          "type": "uint256"
        }
      ],
      "name": "getCard",
      "outputs": [
        {
          "components": [
            {
              "internalType": "uint256",
              "name": "tokenId",
              "type": "uint256"
            },
            {
              "internalType": "uint256",
              "name": "price",
              "type": "uint256"
            },
            {
              "internalType": "uint128",
              "name": "supply",
              "type": "uint128"
            },
            {
              "internalType": "uint8",
              "name": "cardType",
              "type": "uint8"
            },
            {
              "internalType": "uint8",
              "name": "imageDataType",
              "type": "uint8"
            },
            {
              "internalType": "uint8",
              "name": "animationDataType",
              "type": "uint8"
            },
            {
              "internalType": "bool",
              "name": "listed",
              "type": "bool"
            },
            {
              "internalType": "bool",
              "name": "justOne",
              "type": "bool"
            },
            {
              "internalType": "bytes",
              "name": "imageData",
              "type": "bytes"
            },
            {
              "internalType": "bytes",
              "name": "animationData",
              "type": "bytes"
            },
            {
              "internalType": "string",
              "name": "name",
              "type": "string"
            },
            {
              "internalType": "string",
              "name": "description",
              "type": "string"
            }
          ],
          "internalType": "struct CardsStore.Card",
          "name": "",
          "type": "tuple"
        }
      ],
      "stateMutability": "view",
      "type": "function"
    },
    {
      "inputs": [
        {
          "internalType": "uint256",
          "name": "id",
          "type": "uint256"
        },
        {
          "internalType": "uint256",
          "name": "currentSupply",
          "type": "uint256"
        },
        {
          "internalType": "uint256",
          "name": "balance",
          "type": "uint256"
        },
        {
          "internalType": "uint256",
          "name": "value",
          "type": "uint256"
        }
      ],
      "name": "beforeMint",
      "outputs": [],
      "stateMutability": "view",
      "type": "function"
    },
    {
      "inputs": [],
      "name": "getCardCount",
      "outputs": [
        {
          "internalType": "uint256",
          "name": "",
          "type": "uint256"
        }
      ],
      "stateMutability": "view",
      "type": "function"
    },
    {
      "inputs": [
        {
          "internalType": "uint256",
          "name": "id",
          "type": "uint256"
        }
      ],
      "name": "getCardSupply",
      "outputs": [
        {
          "internalType": "uint256",
          "name": "",
          "type": "uint256"
        }
      ],
      "stateMutability": "view",
      "type": "function"
    },
    {
      "inputs": [
        {
          "internalType": "uint256",
          "name": "id",
          "type": "uint256"
        }
      ],
      "name": "getCardPrice",
      "outputs": [
        {
          "internalType": "uint256",
          "name": "",
          "type": "uint256"
        }
      ],
      "stateMutability": "view",
      "type": "function"
    },
    {
      "inputs": [
        {
          "internalType": "uint256",
          "name": "id",
          "type": "uint256"
        }
      ],
      "name": "isCardListed",
      "outputs": [
        {
          "internalType": "bool",
          "name": "",
          "type": "bool"
        }
      ],
      "stateMutability": "view",
      "type": "function"
    },
    {
      "inputs": [
        {
          "internalType": "uint256",
          "name": "id",
          "type": "uint256"
        }
      ],
      "name": "getAttributes",
      "outputs": [
        {
          "components": [
            {
              "internalType": "bytes",
              "name": "name",
              "type": "bytes"
            },
            {
              "internalType": "bytes",
              "name": "value",
              "type": "bytes"
            }
          ],
          "internalType": "struct CardsStore.Attribute[]",
          "name": "",
          "type": "tuple[]"
        }
      ],
      "stateMutability": "view",
      "type": "function"
    },
    {
      "inputs": [
        {
          "internalType": "uint256",
          "name": "id",
          "type": "uint256"
        }
      ],
      "name": "uri",
      "outputs": [
        {
          "internalType": "string",
          "name": "",
          "type": "string"
        }
      ],
      "stateMutability": "view",
      "type": "function"
    },
    {
      "inputs": [
        {
          "internalType": "uint256",
          "name": "id",
          "type": "uint256"
        },
        {
          "internalType": "bool",
          "name": "listed",
          "type": "bool"
        }
      ],
      "name": "list",
      "outputs": [],
      "stateMutability": "nonpayable",
      "type": "function"
    },
    {
      "inputs": [
        {
          "internalType": "string",
          "name": "name",
          "type": "string"
        },
        {
          "internalType": "string",
          "name": "description",
          "type": "string"
        },
        {
          "internalType": "uint256",
          "name": "pwei",
          "type": "uint256"
        },
        {
          "internalType": "uint256",
          "name": "supply",
          "type": "uint256"
        },
        {
          "internalType": "bool",
          "name": "justOne",
          "type": "bool"
        },
        {
          "internalType": "uint8",
          "name": "imageDataType",
          "type": "uint8"
        },
        {
          "internalType": "uint8",
          "name": "animationDataType",
          "type": "uint8"
        },
        {
          "internalType": "bytes",
          "name": "imageData",
          "type": "bytes"
        },
        {
          "internalType": "bytes",
          "name": "animationData",
          "type": "bytes"
        }
      ],
      "name": "createCard",
      "outputs": [
        {
          "internalType": "uint256",
          "name": "",
          "type": "uint256"
        }
      ],
      "stateMutability": "nonpayable",
      "type": "function"
    },
    {
      "inputs": [
        {
          "internalType": "uint256",
          "name": "id",
          "type": "uint256"
        },
        {
          "internalType": "string[]",
          "name": "names",
          "type": "string[]"
        },
        {
          "internalType": "string[]",
          "name": "values",
          "type": "string[]"
        }
      ],
      "name": "addAttributes",
      "outputs": [
        {
          "internalType": "uint256",
          "name": "",
          "type": "uint256"
        }
      ],
      "stateMutability": "nonpayable",
      "type": "function"
    },
    {
      "inputs": [
        {
          "internalType": "uint256",
          "name": "id",
          "type": "uint256"
        },
        {
          "internalType": "string[]",
          "name": "names",
          "type": "string[]"
        },
        {
          "internalType": "string[]",
          "name": "values",
          "type": "string[]"
        }
      ],
      "name": "editAttributes",
      "outputs": [],
      "stateMutability": "nonpayable",
      "type": "function"
    }
  ],
  "bytecode": "0x60806040523480156200001157600080fd5b5062000032620000266200003860201b60201c565b6200004060201b60201c565b62000104565b600033905090565b60008060009054906101000a900473ffffffffffffffffffffffffffffffffffffffff169050816000806101000a81548173ffffffffffffffffffffffffffffffffffffffff021916908373ffffffffffffffffffffffffffffffffffffffff1602179055508173ffffffffffffffffffffffffffffffffffffffff168173ffffffffffffffffffffffffffffffffffffffff167f8be0079c531659141344cd1fd0a4f28419497f9722a3daafe3b4186f6b6457e060405160405180910390a35050565b613a1a80620001146000396000f3fe608060405234801561001057600080fd5b506004361061010b5760003560e01c80637d620130116100a257806396b1e5021161007157806396b1e502146102cc578063b1b95868146102fc578063e2164aee14610318578063e48b360c14610348578063f2fde38b146103785761010b565b80637d620130146102445780638da5cb5b1461026257806391640f86146102805780639188d3121461029c5761010b565b806363fe22e8116100de57806363fe22e8146101be5780636866537d146101da578063715018a61461020a5780637805fb05146102145761010b565b80630d8e6e2c146101105780630e89341c1461012e5780634378a6e31461015e5780634f558e791461018e575b600080fd5b610118610394565b6040516101259190611c6c565b60405180910390f35b61014860048036038101906101439190611cd1565b61039d565b6040516101559190611d8e565b60405180910390f35b61017860048036038101906101739190611cd1565b610511565b6040516101859190611f0b565b60405180910390f35b6101a860048036038101906101a39190611cd1565b6106f1565b6040516101b59190611f48565b60405180910390f35b6101d860048036038101906101d39190611f8f565b61071e565b005b6101f460048036038101906101ef9190611cd1565b610801565b6040516102019190611fde565b60405180910390f35b61021261086b565b005b61022e6004803603810190610229919061205e565b61087f565b60405161023b9190611fde565b60405180910390f35b61024c610aaa565b6040516102599190611fde565b60405180910390f35b61026a610ab4565b6040516102779190612134565b60405180910390f35b61029a6004803603810190610295919061205e565b610add565b005b6102b660048036038101906102b19190611cd1565b610cd0565b6040516102c3919061230a565b60405180910390f35b6102e660048036038101906102e19190611cd1565b61107b565b6040516102f39190611fde565b60405180910390f35b6103166004803603810190610311919061232c565b611113565b005b610332600480360381019061032d9190611cd1565b6112e4565b60405161033f9190611f48565b60405180910390f35b610362600480360381019061035d9190612545565b61135b565b60405161036f9190611fde565b60405180910390f35b610392600480360381019061038d91906126b5565b61164f565b005b60006003905090565b6060816103a9816106f1565b6103e8576040517f08c379a00000000000000000000000000000000000000000000000000000000081526004016103df9061272e565b60405180910390fd5b600060026000858152602001908152602001600020905060008160050182600601610412876116d2565b6104666040518060400160405280600581526020017f696d6167650000000000000000000000000000000000000000000000000000008152508660020160119054906101000a900460ff1687600301611815565b6104ba6040518060400160405280600d81526020017f616e696d6174696f6e5f75726c000000000000000000000000000000000000008152508760020160129054906101000a900460ff1688600401611815565b6040516020016104ce959493929190612a55565b60405160208183030381529060405290506104e881611923565b6040516020016104f89190612b54565b6040516020818303038152906040529350505050919050565b60608161051d816106f1565b61055c576040517f08c379a00000000000000000000000000000000000000000000000000000000081526004016105539061272e565b60405180910390fd5b60036000848152602001908152602001600020805480602002602001604051908101604052809291908181526020016000905b828210156106e557838290600052602060002090600202016040518060400160405290816000820180546105c2906127d4565b80601f01602080910402602001604051908101604052809291908181526020018280546105ee906127d4565b801561063b5780601f106106105761010080835404028352916020019161063b565b820191906000526020600020905b81548152906001019060200180831161061e57829003601f168201915b50505050508152602001600182018054610654906127d4565b80601f0160208091040260200160405190810160405280929190818152602001828054610680906127d4565b80156106cd5780601f106106a2576101008083540402835291602001916106cd565b820191906000526020600020905b8154815290600101906020018083116106b057829003601f168201915b5050505050815250508152602001906001019061058f565b50505050915050919050565b600080821180156107175750816002600084815260200190815260200160002060000154145b9050919050565b610726611a86565b81610730816106f1565b61076f576040517f08c379a00000000000000000000000000000000000000000000000000000000081526004016107669061272e565b60405180910390fd5b8115156002600085815260200190815260200160002060020160139054906101000a900460ff161515146107fc57816002600085815260200190815260200160002060020160136101000a81548160ff021916908315150217905550811515837f7f8b8b68ebd95ed5f82f3fae981c59ed57bcc3f9e43ae3c49a98963ac0f5bf1c60405160405180910390a35b505050565b60008161080d816106f1565b61084c576040517f08c379a00000000000000000000000000000000000000000000000000000000081526004016108439061272e565b60405180910390fd5b6002600084815260200190815260200160002060010154915050919050565b610873611a86565b61087d6000611b04565b565b6000610889611a86565b85610893816106f1565b6108d2576040517f08c379a00000000000000000000000000000000000000000000000000000000081526004016108c99061272e565b60405180910390fd5b83839050868690501461091a576040517f08c379a000000000000000000000000000000000000000000000000000000000815260040161091190612bc2565b60405180910390fd5b60005b86869050811015610a865760036000898152602001908152602001600020604051806040016040528089898581811061095957610958612be2565b5b905060200281019061096b9190612c20565b8080601f016020809104026020016040519081016040528093929190818152602001838380828437600081840152601f19601f8201169050808301925050505050505081526020018787858181106109c6576109c5612be2565b5b90506020028101906109d89190612c20565b8080601f016020809104026020016040519081016040528093929190818152602001838380828437600081840152601f19601f8201169050808301925050505050505081525090806001815401808255809150506001900390600052602060002090600202016000909190919091506000820151816000019081610a5c9190612e2f565b506020820151816001019081610a729190612e2f565b50505080610a7f90612f30565b905061091d565b50600360008881526020019081526020016000208054905091505095945050505050565b6000600154905090565b60008060009054906101000a900473ffffffffffffffffffffffffffffffffffffffff16905090565b610ae5611a86565b84610aef816106f1565b610b2e576040517f08c379a0000000000000000000000000000000000000000000000000000000008152600401610b259061272e565b60405180910390fd5b828290508585905014610b76576040517f08c379a0000000000000000000000000000000000000000000000000000000008152600401610b6d90612bc2565b60405180910390fd5b60005b85859050811015610cc7576000868683818110610b9957610b98612be2565b5b9050602002810190610bab9190612c20565b604051610bb9929190612f9d565b6040518091039020905060005b600360008a815260200190815260200160002080549050811015610cb45781600360008b81526020019081526020016000208281548110610c0a57610c09612be2565b5b9060005260206000209060020201600001604051610c289190613039565b604051809103902003610ca357858584818110610c4857610c47612be2565b5b9050602002810190610c5a9190612c20565b600360008c81526020019081526020016000208381548110610c7f57610c7e612be2565b5b90600052602060002090600202016001019182610c9d92919061305b565b50610cb4565b80610cad90612f30565b9050610bc6565b505080610cc090612f30565b9050610b79565b50505050505050565b610cd8611bd0565b81610ce2816106f1565b610d21576040517f08c379a0000000000000000000000000000000000000000000000000000000008152600401610d189061272e565b60405180910390fd5b600260008481526020019081526020016000206040518061018001604052908160008201548152602001600182015481526020016002820160009054906101000a90046fffffffffffffffffffffffffffffffff166fffffffffffffffffffffffffffffffff166fffffffffffffffffffffffffffffffff1681526020016002820160109054906101000a900460ff1660ff1660ff1681526020016002820160119054906101000a900460ff1660ff1660ff1681526020016002820160129054906101000a900460ff1660ff1660ff1681526020016002820160139054906101000a900460ff161515151581526020016002820160149054906101000a900460ff16151515158152602001600382018054610e3b906127d4565b80601f0160208091040260200160405190810160405280929190818152602001828054610e67906127d4565b8015610eb45780601f10610e8957610100808354040283529160200191610eb4565b820191906000526020600020905b815481529060010190602001808311610e9757829003601f168201915b50505050508152602001600482018054610ecd906127d4565b80601f0160208091040260200160405190810160405280929190818152602001828054610ef9906127d4565b8015610f465780601f10610f1b57610100808354040283529160200191610f46565b820191906000526020600020905b815481529060010190602001808311610f2957829003601f168201915b50505050508152602001600582018054610f5f906127d4565b80601f0160208091040260200160405190810160405280929190818152602001828054610f8b906127d4565b8015610fd85780601f10610fad57610100808354040283529160200191610fd8565b820191906000526020600020905b815481529060010190602001808311610fbb57829003601f168201915b50505050508152602001600682018054610ff1906127d4565b80601f016020809104026020016040519081016040528092919081815260200182805461101d906127d4565b801561106a5780601f1061103f5761010080835404028352916020019161106a565b820191906000526020600020905b81548152906001019060200180831161104d57829003601f168201915b505050505081525050915050919050565b600081611087816106f1565b6110c6576040517f08c379a00000000000000000000000000000000000000000000000000000000081526004016110bd9061272e565b60405180910390fd5b6002600084815260200190815260200160002060020160009054906101000a90046fffffffffffffffffffffffffffffffff166fffffffffffffffffffffffffffffffff16915050919050565b8361111d816106f1565b61115c576040517f08c379a00000000000000000000000000000000000000000000000000000000081526004016111539061272e565b60405180910390fd5b60006002600087815260200190815260200160002090508060020160009054906101000a90046fffffffffffffffffffffffffffffffff166fffffffffffffffffffffffffffffffff1685106111e7576040517f08c379a00000000000000000000000000000000000000000000000000000000081526004016111de90613177565b60405180910390fd5b8060020160139054906101000a900460ff16611238576040517f08c379a000000000000000000000000000000000000000000000000000000000815260040161122f906131e3565b60405180910390fd5b8060020160149054906101000a900460ff1615806112565750600084145b611295576040517f08c379a000000000000000000000000000000000000000000000000000000000815260040161128c9061324f565b60405180910390fd5b80600101548310156112dc576040517f08c379a00000000000000000000000000000000000000000000000000000000081526004016112d3906132bb565b60405180910390fd5b505050505050565b6000816112f0816106f1565b61132f576040517f08c379a00000000000000000000000000000000000000000000000000000000081526004016113269061272e565b60405180910390fd5b6002600084815260200190815260200160002060020160139054906101000a900460ff16915050919050565b6000611365611a86565b6001600081548092919061137890612f30565b9190505550604051806101800160405280600154815260200166038d7ea4c680008c6113a491906132db565b81526020018a6fffffffffffffffffffffffffffffffff168152602001600160ff1681526020018860ff1681526020018760ff168152602001600015158152602001891515815260200186868080601f016020809104026020016040519081016040528093929190818152602001838380828437600081840152601f19601f82011690508083019250505050505050815260200184848080601f016020809104026020016040519081016040528093929190818152602001838380828437600081840152601f19601f8201169050808301925050505050505081526020018d81526020018c815250600260006001548152602001908152602001600020600082015181600001556020820151816001015560408201518160020160006101000a8154816fffffffffffffffffffffffffffffffff02191690836fffffffffffffffffffffffffffffffff16021790555060608201518160020160106101000a81548160ff021916908360ff16021790555060808201518160020160116101000a81548160ff021916908360ff16021790555060a08201518160020160126101000a81548160ff021916908360ff16021790555060c08201518160020160136101000a81548160ff02191690831515021790555060e08201518160020160146101000a81548160ff0219169083151502179055506101008201518160030190816115ad9190612e2f565b506101208201518160040190816115c49190612e2f565b506101408201518160050190816115db9190613363565b506101608201518160060190816115f29190613363565b509050508b6040516116049190613435565b60405180910390206001547f8304eea71399999aba5c87c24c7fbc7cb6fce2f02b9b5983fda2636b86df8d0a60405160405180910390a360015490509b9a5050505050505050505050565b611657611a86565b600073ffffffffffffffffffffffffffffffffffffffff168173ffffffffffffffffffffffffffffffffffffffff16036116c6576040517f08c379a00000000000000000000000000000000000000000000000000000000081526004016116bd906134be565b60405180910390fd5b6116cf81611b04565b50565b606060005b600360008481526020019081526020016000208054905081101561180f57600060036000858152602001908152602001600020828154811061171c5761171b612be2565b5b90600052602060002090600202016001018054611738906127d4565b905011156117fe5760008251111561176d578160405160200161175b9190613504565b60405160208183030381529060405291505b8160036000858152602001908152602001600020828154811061179357611792612be2565b5b90600052602060002090600202016000016003600086815260200190815260200160002083815481106117c9576117c8612be2565b5b90600052602060002090600202016001016040516020016117ec9392919061359c565b60405160208183030381529060405291505b8061180890612f30565b90506116d7565b50919050565b60606000828054611825906127d4565b9050111561191c578360405160200161183e9190613646565b6040516020818303038152906040529050600160ff168360ff160361188657808260405160200161187092919061375f565b604051602081830303815290604052905061191b565b600260ff168360ff16036118bd5780826040516020016118a79291906137c7565b604051602081830303815290604052905061191a565b600360ff168360ff16036118f45780826040516020016118de92919061382f565b6040516020818303038152906040529050611919565b8082604051602001611907929190613871565b60405160208183030381529060405290505b5b5b5b9392505050565b6060600082510361194557604051806020016040528060008152509050611a81565b60006040518060600160405280604081526020016139a5604091399050600060036002855161197491906138a4565b61197e9190613907565b600461198a91906132db565b67ffffffffffffffff8111156119a3576119a2612398565b5b6040519080825280601f01601f1916602001820160405280156119d55781602001600182028036833780820191505090505b509050600182016020820185865187015b80821015611a41576003820191508151603f8160121c168501518453600184019350603f81600c1c168501518453600184019350603f8160061c168501518453600184019350603f81168501518453600184019350506119e6565b5050600386510660018114611a5d5760028114611a7057611a78565b603d6001830353603d6002830353611a78565b603d60018303535b50505080925050505b919050565b611a8e611bc8565b73ffffffffffffffffffffffffffffffffffffffff16611aac610ab4565b73ffffffffffffffffffffffffffffffffffffffff1614611b02576040517f08c379a0000000000000000000000000000000000000000000000000000000008152600401611af990613984565b60405180910390fd5b565b60008060009054906101000a900473ffffffffffffffffffffffffffffffffffffffff169050816000806101000a81548173ffffffffffffffffffffffffffffffffffffffff021916908373ffffffffffffffffffffffffffffffffffffffff1602179055508173ffffffffffffffffffffffffffffffffffffffff168173ffffffffffffffffffffffffffffffffffffffff167f8be0079c531659141344cd1fd0a4f28419497f9722a3daafe3b4186f6b6457e060405160405180910390a35050565b600033905090565b604051806101800160405280600081526020016000815260200160006fffffffffffffffffffffffffffffffff168152602001600060ff168152602001600060ff168152602001600060ff168152602001600015158152602001600015158152602001606081526020016060815260200160608152602001606081525090565b600060ff82169050919050565b611c6681611c50565b82525050565b6000602082019050611c816000830184611c5d565b92915050565b6000604051905090565b600080fd5b600080fd5b6000819050919050565b611cae81611c9b565b8114611cb957600080fd5b50565b600081359050611ccb81611ca5565b92915050565b600060208284031215611ce757611ce6611c91565b5b6000611cf584828501611cbc565b91505092915050565b600081519050919050565b600082825260208201905092915050565b60005b83811015611d38578082015181840152602081019050611d1d565b60008484015250505050565b6000601f19601f8301169050919050565b6000611d6082611cfe565b611d6a8185611d09565b9350611d7a818560208601611d1a565b611d8381611d44565b840191505092915050565b60006020820190508181036000830152611da88184611d55565b905092915050565b600081519050919050565b600082825260208201905092915050565b6000819050602082019050919050565b600081519050919050565b600082825260208201905092915050565b6000611e0382611ddc565b611e0d8185611de7565b9350611e1d818560208601611d1a565b611e2681611d44565b840191505092915050565b60006040830160008301518482036000860152611e4e8282611df8565b91505060208301518482036020860152611e688282611df8565b9150508091505092915050565b6000611e818383611e31565b905092915050565b6000602082019050919050565b6000611ea182611db0565b611eab8185611dbb565b935083602082028501611ebd85611dcc565b8060005b85811015611ef95784840389528151611eda8582611e75565b9450611ee583611e89565b925060208a01995050600181019050611ec1565b50829750879550505050505092915050565b60006020820190508181036000830152611f258184611e96565b905092915050565b60008115159050919050565b611f4281611f2d565b82525050565b6000602082019050611f5d6000830184611f39565b92915050565b611f6c81611f2d565b8114611f7757600080fd5b50565b600081359050611f8981611f63565b92915050565b60008060408385031215611fa657611fa5611c91565b5b6000611fb485828601611cbc565b9250506020611fc585828601611f7a565b9150509250929050565b611fd881611c9b565b82525050565b6000602082019050611ff36000830184611fcf565b92915050565b600080fd5b600080fd5b600080fd5b60008083601f84011261201e5761201d611ff9565b5b8235905067ffffffffffffffff81111561203b5761203a611ffe565b5b60208301915083602082028301111561205757612056612003565b5b9250929050565b60008060008060006060868803121561207a57612079611c91565b5b600061208888828901611cbc565b955050602086013567ffffffffffffffff8111156120a9576120a8611c96565b5b6120b588828901612008565b9450945050604086013567ffffffffffffffff8111156120d8576120d7611c96565b5b6120e488828901612008565b92509250509295509295909350565b600073ffffffffffffffffffffffffffffffffffffffff82169050919050565b600061211e826120f3565b9050919050565b61212e81612113565b82525050565b60006020820190506121496000830184612125565b92915050565b61215881611c9b565b82525050565b60006fffffffffffffffffffffffffffffffff82169050919050565b6121838161215e565b82525050565b61219281611c50565b82525050565b6121a181611f2d565b82525050565b600082825260208201905092915050565b60006121c382611cfe565b6121cd81856121a7565b93506121dd818560208601611d1a565b6121e681611d44565b840191505092915050565b60006101808301600083015161220a600086018261214f565b50602083015161221d602086018261214f565b506040830151612230604086018261217a565b5060608301516122436060860182612189565b5060808301516122566080860182612189565b5060a083015161226960a0860182612189565b5060c083015161227c60c0860182612198565b5060e083015161228f60e0860182612198565b506101008301518482036101008601526122a98282611df8565b9150506101208301518482036101208601526122c58282611df8565b9150506101408301518482036101408601526122e182826121b8565b9150506101608301518482036101608601526122fd82826121b8565b9150508091505092915050565b6000602082019050818103600083015261232481846121f1565b905092915050565b6000806000806080858703121561234657612345611c91565b5b600061235487828801611cbc565b945050602061236587828801611cbc565b935050604061237687828801611cbc565b925050606061238787828801611cbc565b91505092959194509250565b600080fd5b7f4e487b7100000000000000000000000000000000000000000000000000000000600052604160045260246000fd5b6123d082611d44565b810181811067ffffffffffffffff821117156123ef576123ee612398565b5b80604052505050565b6000612402611c87565b905061240e82826123c7565b919050565b600067ffffffffffffffff82111561242e5761242d612398565b5b61243782611d44565b9050602081019050919050565b82818337600083830152505050565b600061246661246184612413565b6123f8565b90508281526020810184848401111561248257612481612393565b5b61248d848285612444565b509392505050565b600082601f8301126124aa576124a9611ff9565b5b81356124ba848260208601612453565b91505092915050565b6124cc81611c50565b81146124d757600080fd5b50565b6000813590506124e9816124c3565b92915050565b60008083601f84011261250557612504611ff9565b5b8235905067ffffffffffffffff81111561252257612521611ffe565b5b60208301915083600182028301111561253e5761253d612003565b5b9250929050565b60008060008060008060008060008060006101208c8e03121561256b5761256a611c91565b5b60008c013567ffffffffffffffff81111561258957612588611c96565b5b6125958e828f01612495565b9b505060208c013567ffffffffffffffff8111156125b6576125b5611c96565b5b6125c28e828f01612495565b9a505060406125d38e828f01611cbc565b99505060606125e48e828f01611cbc565b98505060806125f58e828f01611f7a565b97505060a06126068e828f016124da565b96505060c06126178e828f016124da565b95505060e08c013567ffffffffffffffff81111561263857612637611c96565b5b6126448e828f016124ef565b94509450506101008c013567ffffffffffffffff81111561266857612667611c96565b5b6126748e828f016124ef565b92509250509295989b509295989b9093969950565b61269281612113565b811461269d57600080fd5b50565b6000813590506126af81612689565b92915050565b6000602082840312156126cb576126ca611c91565b5b60006126d9848285016126a0565b91505092915050565b7f4361726420646f6573206e6f7420657869737400000000000000000000000000600082015250565b6000612718601383611d09565b9150612723826126e2565b602082019050919050565b600060208201905081810360008301526127478161270b565b9050919050565b600081905092915050565b7f7b226e616d65223a220000000000000000000000000000000000000000000000600082015250565b600061278f60098361274e565b915061279a82612759565b600982019050919050565b7f4e487b7100000000000000000000000000000000000000000000000000000000600052602260045260246000fd5b600060028204905060018216806127ec57607f821691505b6020821081036127ff576127fe6127a5565b5b50919050565b60008190508160005260206000209050919050565b60008154612827816127d4565b612831818661274e565b9450600182166000811461284c576001811461286157612894565b60ff1983168652811515820286019350612894565b61286a85612805565b60005b8381101561288c5781548189015260018201915060208101905061286d565b838801955050505b50505092915050565b7f222c226465736372697074696f6e223a22000000000000000000000000000000600082015250565b60006128d360118361274e565b91506128de8261289d565b601182019050919050565b7f222c2265787465726e616c5f75726c223a2268747470733a2f2f656e646c657360008201527f73637261776c65722e696f222c226261636b67726f756e645f636f6c6f72223a60208201527f22303030303030222c2261747472696275746573223a5b000000000000000000604082015250565b600061296b60578361274e565b9150612976826128e9565b605782019050919050565b600081905092915050565b600061299782611ddc565b6129a18185612981565b93506129b1818560208601611d1a565b80840191505092915050565b7f5d00000000000000000000000000000000000000000000000000000000000000600082015250565b60006129f360018361274e565b91506129fe826129bd565b600182019050919050565b7f7d00000000000000000000000000000000000000000000000000000000000000600082015250565b6000612a3f60018361274e565b9150612a4a82612a09565b600182019050919050565b6000612a6082612782565b9150612a6c828861281a565b9150612a77826128c6565b9150612a83828761281a565b9150612a8e8261295e565b9150612a9a828661298c565b9150612aa5826129e6565b9150612ab1828561298c565b9150612abd828461298c565b9150612ac882612a32565b91508190509695505050505050565b7f646174613a6170706c69636174696f6e2f6a736f6e3b6261736536342c000000600082015250565b6000612b0d601d8361274e565b9150612b1882612ad7565b601d82019050919050565b6000612b2e82611cfe565b612b38818561274e565b9350612b48818560208601611d1a565b80840191505092915050565b6000612b5f82612b00565b9150612b6b8284612b23565b915081905092915050565b7f4e616d657320213d2056616c7565730000000000000000000000000000000000600082015250565b6000612bac600f83611d09565b9150612bb782612b76565b602082019050919050565b60006020820190508181036000830152612bdb81612b9f565b9050919050565b7f4e487b7100000000000000000000000000000000000000000000000000000000600052603260045260246000fd5b600080fd5b600080fd5b600080fd5b60008083356001602003843603038112612c3d57612c3c612c11565b5b80840192508235915067ffffffffffffffff821115612c5f57612c5e612c16565b5b602083019250600182023603831315612c7b57612c7a612c1b565b5b509250929050565b60008190508160005260206000209050919050565b60006020601f8301049050919050565b600082821b905092915050565b600060088302612ce57fffffffffffffffffffffffffffffffffffffffffffffffffffffffffffffffff82612ca8565b612cef8683612ca8565b95508019841693508086168417925050509392505050565b6000819050919050565b6000612d2c612d27612d2284611c9b565b612d07565b611c9b565b9050919050565b6000819050919050565b612d4683612d11565b612d5a612d5282612d33565b848454612cb5565b825550505050565b600090565b612d6f612d62565b612d7a818484612d3d565b505050565b5b81811015612d9e57612d93600082612d67565b600181019050612d80565b5050565b601f821115612de357612db481612c83565b612dbd84612c98565b81016020851015612dcc578190505b612de0612dd885612c98565b830182612d7f565b50505b505050565b600082821c905092915050565b6000612e0660001984600802612de8565b1980831691505092915050565b6000612e1f8383612df5565b9150826002028217905092915050565b612e3882611ddc565b67ffffffffffffffff811115612e5157612e50612398565b5b612e5b82546127d4565b612e66828285612da2565b600060209050601f831160018114612e995760008415612e87578287015190505b612e918582612e13565b865550612ef9565b601f198416612ea786612c83565b60005b82811015612ecf57848901518255600182019150602085019450602081019050612eaa565b86831015612eec5784890151612ee8601f891682612df5565b8355505b6001600288020188555050505b505050505050565b7f4e487b7100000000000000000000000000000000000000000000000000000000600052601160045260246000fd5b6000612f3b82611c9b565b91507fffffffffffffffffffffffffffffffffffffffffffffffffffffffffffffffff8203612f6d57612f6c612f01565b5b600182019050919050565b6000612f848385612981565b9350612f91838584612444565b82840190509392505050565b6000612faa828486612f78565b91508190509392505050565b60008154612fc3816127d4565b612fcd8186612981565b94506001821660008114612fe85760018114612ffd57613030565b60ff1983168652811515820286019350613030565b61300685612c83565b60005b8381101561302857815481890152600182019150602081019050613009565b838801955050505b50505092915050565b60006130458284612fb6565b915081905092915050565b600082905092915050565b6130658383613050565b67ffffffffffffffff81111561307e5761307d612398565b5b61308882546127d4565b613093828285612da2565b6000601f8311600181146130c257600084156130b0578287013590505b6130ba8582612e13565b865550613122565b601f1984166130d086612c83565b60005b828110156130f8578489013582556001820191506020850194506020810190506130d3565b868310156131155784890135613111601f891682612df5565b8355505b6001600288020188555050505b50505050505050565b7f536f6c64206f7574000000000000000000000000000000000000000000000000600082015250565b6000613161600883611d09565b915061316c8261312b565b602082019050919050565b6000602082019050818103600083015261319081613154565b9050919050565b7f556e6c6973746564000000000000000000000000000000000000000000000000600082015250565b60006131cd600883611d09565b91506131d882613197565b602082019050919050565b600060208201905081810360008301526131fc816131c0565b9050919050565b7f4f6e65207065722077616c6c6574000000000000000000000000000000000000600082015250565b6000613239600e83611d09565b915061324482613203565b602082019050919050565b600060208201905081810360008301526132688161322c565b9050919050565b7f4261642076616c75650000000000000000000000000000000000000000000000600082015250565b60006132a5600983611d09565b91506132b08261326f565b602082019050919050565b600060208201905081810360008301526132d481613298565b9050919050565b60006132e682611c9b565b91506132f183611c9b565b92508282026132ff81611c9b565b9150828204841483151761331657613315612f01565b5b5092915050565b601f82111561335e5761332f81612805565b61333884612c98565b81016020851015613347578190505b61335b61335385612c98565b830182612d7f565b50505b505050565b61336c82611cfe565b67ffffffffffffffff81111561338557613384612398565b5b61338f82546127d4565b61339a82828561331d565b600060209050601f8311600181146133cd57600084156133bb578287015190505b6133c58582612e13565b86555061342d565b601f1984166133db86612805565b60005b82811015613403578489015182556001820191506020850194506020810190506133de565b86831015613420578489015161341c601f891682612df5565b8355505b6001600288020188555050505b505050505050565b60006134418284612b23565b915081905092915050565b7f4f776e61626c653a206e6577206f776e657220697320746865207a65726f206160008201527f6464726573730000000000000000000000000000000000000000000000000000602082015250565b60006134a8602683611d09565b91506134b38261344c565b604082019050919050565b600060208201905081810360008301526134d78161349b565b9050919050565b7f2c00000000000000000000000000000000000000000000000000000000000000815250565b6000613510828461298c565b915061351b826134de565b60018201915081905092915050565b7f7b2274726169745f74797065223a220000000000000000000000000000000000815250565b7f222c2276616c7565223a22000000000000000000000000000000000000000000815250565b7f227d000000000000000000000000000000000000000000000000000000000000815250565b60006135a8828661298c565b91506135b38261352a565b600f820191506135c38285612fb6565b91506135ce82613550565b600b820191506135de8284612fb6565b91506135e982613576565b600282019150819050949350505050565b7f2c22000000000000000000000000000000000000000000000000000000000000815250565b7f223a220000000000000000000000000000000000000000000000000000000000815250565b6000613651826135fa565b600282019150613661828461298c565b915061366c82613620565b60038201915081905092915050565b7f646174613a696d6167652f7376672b786d6c3b6261736536342c000000000000815250565b60008190508160005260206000209050919050565b600081546136c3816127d4565b6136cd8186612981565b945060018216600081146136e857600181146136fd57613730565b60ff1983168652811515820286019350613730565b613706856136a1565b60005b8381101561372857815481890152600182019150602081019050613709565b838801955050505b50505092915050565b7f2200000000000000000000000000000000000000000000000000000000000000815250565b600061376b828561298c565b91506137768261367b565b601a8201915061378682846136b6565b915061379182613739565b6001820191508190509392505050565b7f646174613a696d6167652f706e673b6261736536342c00000000000000000000815250565b60006137d3828561298c565b91506137de826137a1565b6016820191506137ee82846136b6565b91506137f982613739565b6001820191508190509392505050565b7f646174613a746578742f68746d6c3b6261736536342c00000000000000000000815250565b600061383b828561298c565b915061384682613809565b60168201915061385682846136b6565b915061386182613739565b6001820191508190509392505050565b600061387d828561298c565b915061388982846136b6565b915061389482613739565b6001820191508190509392505050565b60006138af82611c9b565b91506138ba83611c9b565b92508282019050808211156138d2576138d1612f01565b5b92915050565b7f4e487b7100000000000000000000000000000000000000000000000000000000600052601260045260246000fd5b600061391282611c9b565b915061391d83611c9b565b92508261392d5761392c6138d8565b5b828204905092915050565b7f4f776e61626c653a2063616c6c6572206973206e6f7420746865206f776e6572600082015250565b600061396e602083611d09565b915061397982613938565b602082019050919050565b6000602082019050818103600083015261399d81613961565b905091905056fe4142434445464748494a4b4c4d4e4f505152535455565758595a6162636465666768696a6b6c6d6e6f707172737475767778797a303132333435363738392b2fa26469706673582212207cdc0b9798b8d0addc038703acf077b25261f99f20d9b8cc1c463b089a17e08364736f6c63430008110033",
  "immutableReferences": {},
  "source": "// SPDX-License-Identifier: MIT\n//\n//    \n//             \n//              \n//              \n//              \n//          \n//        \n//      \n//\n// https://endlesscrawler.io\n// @EndlessCrawler\n//\n/// @title Endless Crawler Cards Store (v.3)\n/// @author Studio Avante\n/// @notice Contains token info for all Game Cards\n/// @dev Serves CardsMinter.sol\npragma solidity ^0.8.16;\nimport { Ownable } from '@openzeppelin/contracts/access/Ownable.sol';\nimport { Base64 } from '@openzeppelin/contracts/utils/Base64.sol';\nimport { ICardsStore } from './ICardsStore.sol';\n\ncontract CardsStore is ICardsStore, Ownable {\n\n\tuint8 constant DATA_URL = 0;\t// data is a URL\n\tuint8 constant DATA_SVG = 1;\t// data is Base64 encoded, no mime type\n\tuint8 constant DATA_PNG = 2;\t// data is Base64 encoded, no mime type\n\tuint8 constant DATA_HTML = 3;\t// data is Base64 encoded, no mime type\n\n\tuint8 constant TYPE_CLASS = 1;\n\tuint8 constant TYPE_PAINT = 2;\n\tuint8 constant TYPE_SKIN = 3;\n\tuint8 constant TYPE_LAYER = 4;\n\tuint8 constant TYPE_CHARACTER = 5;\n\tuint8 constant TYPE_ITEM = 6;\n\tuint8 constant TYPE_MUSIC = 7;\n\tuint8 constant TYPE_GAME = 8;\n\tuint8 constant TYPE_RENDERER = 9;\n\n\tstruct Attribute {\n\t\tbytes name;\n\t\tbytes value;\n\t}\n\n\tstruct Card {\n\t\tuint256 tokenId;\n\t\tuint256 price; // wei\n\t\tuint128 supply;\n\t\tuint8 cardType;\n\t\tuint8 imageDataType;\n\t\tuint8 animationDataType;\n\t\tbool listed;\n\t\tbool justOne;\n\t\tbytes imageData;\n\t\tbytes animationData;\n\t\tstring name;\n\t\tstring description;\n\t}\n\t\n\tuint256 private _tokenId; // last minted id\n\n\tmapping(uint256 => Card) private _cards;\n\n\tmapping(uint256 => Attribute[]) private _attributes;\n\n\tevent Created(uint256 indexed id, string indexed name);\n\tevent Listed(uint256 indexed id, bool indexed listed);\n\n\tconstructor() {}\n\n\tmodifier ifExists(uint256 id) {\n\t\trequire(exists(id), 'Card does not exist');\n\t\t_;\n\t}\n\n\t//---------------\n\t// Public\n\t//\n\n\tfunction getVersion() public pure override returns (uint8) {\n\t\treturn 3;\n\t}\n\n\tfunction exists(uint256 id) public view override returns (bool) {\n\t\treturn (id > 0 && _cards[id].tokenId == id);\n\t}\n\n\tfunction getCard(uint256 id) public view ifExists(id) returns (Card memory) {\n\t\treturn _cards[id];\n\t}\n\n\tfunction beforeMint(uint256 id, uint256 currentSupply, uint256 balance, uint256 value) public view override ifExists(id) {\n\t\tCard storage card = _cards[id];\n\t\trequire(currentSupply < card.supply, 'Sold out');\n\t\trequire(card.listed, 'Unlisted');\n\t\trequire(!card.justOne || balance == 0, 'One per wallet');\n\t\trequire(value >= card.price, 'Bad value');\n\t}\n\n\tfunction getCardCount() public view override returns (uint256) {\n\t\treturn _tokenId;\n\t}\n\n\tfunction getCardSupply(uint256 id) public view override ifExists(id) returns (uint256) {\n\t\treturn _cards[id].supply;\n\t}\n\n\tfunction getCardPrice(uint256 id) public view override ifExists(id) returns (uint256) {\n\t\treturn _cards[id].price;\n\t}\n\n\tfunction isCardListed(uint256 id) public view ifExists(id) returns (bool) {\n\t\treturn _cards[id].listed;\n\t}\n\n\tfunction getAttributes(uint256 id) public view ifExists(id) returns (Attribute[] memory) {\n\t\treturn _attributes[id];\n\t}\n\n\tfunction uri(uint256 id) public view override ifExists(id) returns (string memory) {\n\t\tCard storage card = _cards[id];\n\t\tbytes memory json = abi.encodePacked(\n\t\t\t'{'\n\t\t\t\t'\"name\":\"', card.name, '\",'\n\t\t\t\t'\"description\":\"', card.description, '\",'\n\t\t\t\t'\"external_url\":\"https://endlesscrawler.io\",'\n\t\t\t\t'\"background_color\":\"000000\",'\n\t\t\t\t'\"attributes\":[', _renderAttributes(id), ']',\n\t\t\t\t_renderDataProperty('image', card.imageDataType, card.imageData),\n\t\t\t\t_renderDataProperty('animation_url', card.animationDataType, card.animationData),\n\t\t\t'}'\n\t\t);\n\t\treturn string(abi.encodePacked('data:application/json;base64,', Base64.encode(json)));\n\t}\n\n\t//---------------\n\t// Internal\n\t//\n\n\tfunction _renderAttributes(uint256 id) internal view returns (bytes memory result) {\n\t\tfor (uint i = 0; i < _attributes[id].length; ++i) {\n\t\t\tif (_attributes[id][i].value.length > 0) {\n\t\t\t\tif(result.length > 0) {\n\t\t\t\t\tresult = bytes.concat(result, ',');\n\t\t\t\t}\n\t\t\t\tresult = bytes.concat(result,\n\t\t\t\t\t'{\"trait_type\":\"', _attributes[id][i].name, '\",\"value\":\"', _attributes[id][i].value, '\"}'\n\t\t\t\t);\n\t\t\t}\n\t\t}\n\t}\n\n\tfunction _renderDataProperty(bytes memory propName, uint8 dataType, bytes storage data) internal view returns (bytes memory result) {\n\t\tif(data.length > 0) {\n\t\t\tresult = bytes.concat(',\"', propName, '\":\"');\n\t\t\tif (dataType == DATA_SVG) {\n\t\t\t\tresult = bytes.concat(result, 'data:image/svg+xml;base64,', data, '\"');\n\t\t\t} else if (dataType == DATA_PNG) {\n\t\t\t\tresult = bytes.concat(result, 'data:image/png;base64,', data, '\"');\n\t\t\t} else if (dataType == DATA_HTML) {\n\t\t\t\tresult = bytes.concat(result, 'data:text/html;base64,', data, '\"');\n\t\t\t} else { // DATA_URL\n\t\t\t\tresult = bytes.concat(result, data, '\"');\n\t\t\t}\n\t\t}\n\t}\n\n\t//---------------\n\t// Admin\n\t//\n\n\tfunction list(uint256 id, bool listed) public onlyOwner ifExists(id) {\n\t\tif(_cards[id].listed != listed) {\n\t\t\t_cards[id].listed = listed;\n\t\t\temit Listed(id, listed);\n\t\t}\n\t}\n\n\tfunction createCard(\n\t\tstring memory name,\n\t\tstring memory description,\n\t\tuint256 pwei,\n\t\tuint256 supply,\n\t\tbool justOne,\n\t\tuint8 imageDataType,\n\t\tuint8 animationDataType,\n\t\tbytes calldata imageData,\n\t\tbytes calldata animationData\n\t) public onlyOwner returns (uint256) {\n\t\t_tokenId++;\n\t\t_cards[_tokenId] = Card(\n\t\t\t_tokenId,\n\t\t\tpwei * 1_000_000_000_000_000, // to wei\n\t\t\tuint128(supply),\n\t\t\tTYPE_CLASS,\n\t\t\timageDataType,\n\t\t\tanimationDataType,\n\t\t\tfalse, // listed\n\t\t\tjustOne,\n\t\t\timageData,\n\t\t\tanimationData,\n\t\t\tname,\n\t\t\tdescription\n\t\t);\n\t\temit Created(_tokenId, name);\n\t\treturn _tokenId;\n\t}\n\n\tfunction addAttributes(\n\t\tuint256 id,\n\t\tstring[] calldata names,\n\t\tstring[] calldata values\n\t) public onlyOwner ifExists(id) returns (uint256) {\n\t\trequire(names.length == values.length, 'Names != Values');\n\t\tfor (uint i = 0; i < names.length; ++i) {\n\t\t\t_attributes[id].push(\n\t\t\t\tAttribute(bytes(names[i]), bytes(values[i]))\n\t\t\t);\n\t\t}\n\t\treturn _attributes[id].length;\n\t}\n\n\tfunction editAttributes(\n\t\tuint256 id,\n\t\tstring[] calldata names,\n\t\tstring[] calldata values\n\t) public onlyOwner ifExists(id) {\n\t\trequire(names.length == values.length, 'Names != Values');\n\t\tfor (uint i = 0; i < names.length; ++i) {\n\t\t\tbytes32 nameHash = keccak256(bytes(names[i]));\n\t\t\tfor (uint j = 0; j < _attributes[id].length; ++j) {\n\t\t\t\tif (keccak256(_attributes[id][j].name) == nameHash) {\n\t\t\t\t\t_attributes[id][j].value = bytes(values[i]);\n\t\t\t\t\tbreak;\n\t\t\t\t}\n\t\t\t}\n\t\t}\n\t}\n\n}\n",
  "sourcePath": "/Users/roger/Dev/Blockchain/Truffle/ec-cards/contracts/CardsStore.sol",
  "compiler": {
    "name": "solc",
    "version": "0.8.17+commit.8df45f5f.Emscripten.clang"
  },
  "schemaVersion": "3.4.10",
  "updatedAt": "2022-11-24T18:31:47.757Z",
  "devdoc": {
    "kind": "dev",
    "methods": {
      "owner()": {
        "details": "Returns the address of the current owner."
      },
      "renounceOwnership()": {
        "details": "Leaves the contract without owner. It will not be possible to call `onlyOwner` functions anymore. Can only be called by the current owner. NOTE: Renouncing ownership will leave the contract without an owner, thereby removing any functionality that is only available to the owner."
      },
      "transferOwnership(address)": {
        "details": "Transfers ownership of the contract to a new account (`newOwner`). Can only be called by the current owner."
      }
    },
    "version": 1
  },
  "userdoc": {
    "kind": "user",
    "methods": {},
    "version": 1
  }
}