{
  "contractName": "CardsMinter",
  "abi": [
    {
      "inputs": [
        {
          "internalType": "address",
          "name": "store",
          "type": "address"
        }
      ],
      "stateMutability": "nonpayable",
      "type": "constructor"
    },
    {
      "anonymous": false,
      "inputs": [
        {
          "indexed": true,
          "internalType": "address",
          "name": "account",
          "type": "address"
        },
        {
          "indexed": true,
          "internalType": "address",
          "name": "operator",
          "type": "address"
        },
        {
          "indexed": false,
          "internalType": "bool",
          "name": "approved",
          "type": "bool"
        }
      ],
      "name": "ApprovalForAll",
      "type": "event"
    },
    {
      "anonymous": false,
      "inputs": [
        {
          "indexed": true,
          "internalType": "address",
          "name": "account",
          "type": "address"
        },
        {
          "indexed": true,
          "internalType": "uint256",
          "name": "id",
          "type": "uint256"
        },
        {
          "indexed": false,
          "internalType": "uint256",
          "name": "amount",
          "type": "uint256"
        }
      ],
      "name": "Burned",
      "type": "event"
    },
    {
      "anonymous": false,
      "inputs": [
        {
          "indexed": true,
          "internalType": "address",
          "name": "account",
          "type": "address"
        },
        {
          "indexed": true,
          "internalType": "uint256",
          "name": "id",
          "type": "uint256"
        },
        {
          "indexed": false,
          "internalType": "uint256",
          "name": "amount",
          "type": "uint256"
        }
      ],
      "name": "Minted",
      "type": "event"
    },
    {
      "anonymous": false,
      "inputs": [
        {
          "indexed": true,
          "internalType": "address",
          "name": "previousOwner",
          "type": "address"
        },
        {
          "indexed": true,
          "internalType": "address",
          "name": "newOwner",
          "type": "address"
        }
      ],
      "name": "OwnershipTransferred",
      "type": "event"
    },
    {
      "anonymous": false,
      "inputs": [
        {
          "indexed": true,
          "internalType": "bool",
          "name": "paused",
          "type": "bool"
        }
      ],
      "name": "Paused",
      "type": "event"
    },
    {
      "anonymous": false,
      "inputs": [
        {
          "indexed": true,
          "internalType": "address",
          "name": "store",
          "type": "address"
        },
        {
          "indexed": true,
          "internalType": "uint8",
          "name": "version",
          "type": "uint8"
        }
      ],
      "name": "SetStore",
      "type": "event"
    },
    {
      "anonymous": false,
      "inputs": [
        {
          "indexed": true,
          "internalType": "address",
          "name": "operator",
          "type": "address"
        },
        {
          "indexed": true,
          "internalType": "address",
          "name": "from",
          "type": "address"
        },
        {
          "indexed": true,
          "internalType": "address",
          "name": "to",
          "type": "address"
        },
        {
          "indexed": false,
          "internalType": "uint256[]",
          "name": "ids",
          "type": "uint256[]"
        },
        {
          "indexed": false,
          "internalType": "uint256[]",
          "name": "values",
          "type": "uint256[]"
        }
      ],
      "name": "TransferBatch",
      "type": "event"
    },
    {
      "anonymous": false,
      "inputs": [
        {
          "indexed": true,
          "internalType": "address",
          "name": "operator",
          "type": "address"
        },
        {
          "indexed": true,
          "internalType": "address",
          "name": "from",
          "type": "address"
        },
        {
          "indexed": true,
          "internalType": "address",
          "name": "to",
          "type": "address"
        },
        {
          "indexed": false,
          "internalType": "uint256",
          "name": "id",
          "type": "uint256"
        },
        {
          "indexed": false,
          "internalType": "uint256",
          "name": "value",
          "type": "uint256"
        }
      ],
      "name": "TransferSingle",
      "type": "event"
    },
    {
      "anonymous": false,
      "inputs": [
        {
          "indexed": false,
          "internalType": "string",
          "name": "value",
          "type": "string"
        },
        {
          "indexed": true,
          "internalType": "uint256",
          "name": "id",
          "type": "uint256"
        }
      ],
      "name": "URI",
      "type": "event"
    },
    {
      "inputs": [],
      "name": "_store",
      "outputs": [
        {
          "internalType": "contract ICardsStore",
          "name": "",
          "type": "address"
        }
      ],
      "stateMutability": "view",
      "type": "function",
      "constant": true
    },
    {
      "inputs": [
        {
          "internalType": "address",
          "name": "account",
          "type": "address"
        },
        {
          "internalType": "uint256",
          "name": "id",
          "type": "uint256"
        }
      ],
      "name": "balanceOf",
      "outputs": [
        {
          "internalType": "uint256",
          "name": "",
          "type": "uint256"
        }
      ],
      "stateMutability": "view",
      "type": "function",
      "constant": true
    },
    {
      "inputs": [
        {
          "internalType": "address[]",
          "name": "accounts",
          "type": "address[]"
        },
        {
          "internalType": "uint256[]",
          "name": "ids",
          "type": "uint256[]"
        }
      ],
      "name": "balanceOfBatch",
      "outputs": [
        {
          "internalType": "uint256[]",
          "name": "",
          "type": "uint256[]"
        }
      ],
      "stateMutability": "view",
      "type": "function",
      "constant": true
    },
    {
      "inputs": [
        {
          "internalType": "address",
          "name": "account",
          "type": "address"
        },
        {
          "internalType": "uint256[]",
          "name": "ids",
          "type": "uint256[]"
        },
        {
          "internalType": "uint256[]",
          "name": "values",
          "type": "uint256[]"
        }
      ],
      "name": "burnBatch",
      "outputs": [],
      "stateMutability": "nonpayable",
      "type": "function"
    },
    {
      "inputs": [
        {
          "internalType": "uint256",
          "name": "id",
          "type": "uint256"
        }
      ],
      "name": "exists",
      "outputs": [
        {
          "internalType": "bool",
          "name": "",
          "type": "bool"
        }
      ],
      "stateMutability": "view",
      "type": "function",
      "constant": true
    },
    {
      "inputs": [
        {
          "internalType": "address",
          "name": "account",
          "type": "address"
        },
        {
          "internalType": "address",
          "name": "operator",
          "type": "address"
        }
      ],
      "name": "isApprovedForAll",
      "outputs": [
        {
          "internalType": "bool",
          "name": "",
          "type": "bool"
        }
      ],
      "stateMutability": "view",
      "type": "function",
      "constant": true
    },
    {
      "inputs": [],
      "name": "owner",
      "outputs": [
        {
          "internalType": "address",
          "name": "",
          "type": "address"
        }
      ],
      "stateMutability": "view",
      "type": "function",
      "constant": true
    },
    {
      "inputs": [],
      "name": "renounceOwnership",
      "outputs": [],
      "stateMutability": "nonpayable",
      "type": "function"
    },
    {
      "inputs": [
        {
          "internalType": "address",
          "name": "from",
          "type": "address"
        },
        {
          "internalType": "address",
          "name": "to",
          "type": "address"
        },
        {
          "internalType": "uint256[]",
          "name": "ids",
          "type": "uint256[]"
        },
        {
          "internalType": "uint256[]",
          "name": "amounts",
          "type": "uint256[]"
        },
        {
          "internalType": "bytes",
          "name": "data",
          "type": "bytes"
        }
      ],
      "name": "safeBatchTransferFrom",
      "outputs": [],
      "stateMutability": "nonpayable",
      "type": "function"
    },
    {
      "inputs": [
        {
          "internalType": "address",
          "name": "from",
          "type": "address"
        },
        {
          "internalType": "address",
          "name": "to",
          "type": "address"
        },
        {
          "internalType": "uint256",
          "name": "id",
          "type": "uint256"
        },
        {
          "internalType": "uint256",
          "name": "amount",
          "type": "uint256"
        },
        {
          "internalType": "bytes",
          "name": "data",
          "type": "bytes"
        }
      ],
      "name": "safeTransferFrom",
      "outputs": [],
      "stateMutability": "nonpayable",
      "type": "function"
    },
    {
      "inputs": [
        {
          "internalType": "address",
          "name": "operator",
          "type": "address"
        },
        {
          "internalType": "bool",
          "name": "approved",
          "type": "bool"
        }
      ],
      "name": "setApprovalForAll",
      "outputs": [],
      "stateMutability": "nonpayable",
      "type": "function"
    },
    {
      "inputs": [
        {
          "internalType": "bytes4",
          "name": "interfaceId",
          "type": "bytes4"
        }
      ],
      "name": "supportsInterface",
      "outputs": [
        {
          "internalType": "bool",
          "name": "",
          "type": "bool"
        }
      ],
      "stateMutability": "view",
      "type": "function",
      "constant": true
    },
    {
      "inputs": [
        {
          "internalType": "uint256",
          "name": "id",
          "type": "uint256"
        }
      ],
      "name": "totalSupply",
      "outputs": [
        {
          "internalType": "uint256",
          "name": "",
          "type": "uint256"
        }
      ],
      "stateMutability": "view",
      "type": "function",
      "constant": true
    },
    {
      "inputs": [
        {
          "internalType": "address",
          "name": "newOwner",
          "type": "address"
        }
      ],
      "name": "transferOwnership",
      "outputs": [],
      "stateMutability": "nonpayable",
      "type": "function"
    },
    {
      "inputs": [],
      "name": "isPaused",
      "outputs": [
        {
          "internalType": "bool",
          "name": "",
          "type": "bool"
        }
      ],
      "stateMutability": "view",
      "type": "function",
      "constant": true
    },
    {
      "inputs": [
        {
          "internalType": "uint256",
          "name": "id",
          "type": "uint256"
        }
      ],
      "name": "getPrice",
      "outputs": [
        {
          "internalType": "uint256",
          "name": "",
          "type": "uint256"
        }
      ],
      "stateMutability": "view",
      "type": "function",
      "constant": true
    },
    {
      "inputs": [
        {
          "internalType": "uint256",
          "name": "id",
          "type": "uint256"
        },
        {
          "internalType": "uint256",
          "name": "value",
          "type": "uint256"
        }
      ],
      "name": "canPurchase",
      "outputs": [
        {
          "internalType": "bool",
          "name": "",
          "type": "bool"
        },
        {
          "internalType": "string",
          "name": "",
          "type": "string"
        }
      ],
      "stateMutability": "view",
      "type": "function",
      "constant": true
    },
    {
      "inputs": [
        {
          "internalType": "uint256",
          "name": "id",
          "type": "uint256"
        },
        {
          "internalType": "bytes",
          "name": "data",
          "type": "bytes"
        }
      ],
      "name": "purchase",
      "outputs": [],
      "stateMutability": "payable",
      "type": "function",
      "payable": true
    },
    {
      "inputs": [
        {
          "internalType": "uint256",
          "name": "id",
          "type": "uint256"
        },
        {
          "internalType": "uint256",
          "name": "amount",
          "type": "uint256"
        }
      ],
      "name": "burn",
      "outputs": [],
      "stateMutability": "nonpayable",
      "type": "function"
    },
    {
      "inputs": [
        {
          "internalType": "address",
          "name": "account",
          "type": "address"
        },
        {
          "internalType": "uint256",
          "name": "id",
          "type": "uint256"
        },
        {
          "internalType": "uint256",
          "name": "value",
          "type": "uint256"
        }
      ],
      "name": "burn",
      "outputs": [],
      "stateMutability": "nonpayable",
      "type": "function"
    },
    {
      "inputs": [
        {
          "internalType": "uint256",
          "name": "id",
          "type": "uint256"
        }
      ],
      "name": "uri",
      "outputs": [
        {
          "internalType": "string",
          "name": "",
          "type": "string"
        }
      ],
      "stateMutability": "view",
      "type": "function",
      "constant": true
    },
    {
      "inputs": [
        {
          "internalType": "address",
          "name": "store",
          "type": "address"
        }
      ],
      "name": "setStore",
      "outputs": [],
      "stateMutability": "nonpayable",
      "type": "function"
    },
    {
      "inputs": [
        {
          "internalType": "bool",
          "name": "paused_",
          "type": "bool"
        }
      ],
      "name": "setPaused",
      "outputs": [],
      "stateMutability": "nonpayable",
      "type": "function"
    },
    {
      "inputs": [
        {
          "internalType": "address",
          "name": "account",
          "type": "address"
        },
        {
          "internalType": "uint256",
          "name": "id",
          "type": "uint256"
        },
        {
          "internalType": "uint256",
          "name": "amount",
          "type": "uint256"
        },
        {
          "internalType": "bytes",
          "name": "data",
          "type": "bytes"
        }
      ],
      "name": "mint",
      "outputs": [],
      "stateMutability": "nonpayable",
      "type": "function"
    },
    {
      "inputs": [
        {
          "internalType": "address",
          "name": "account",
          "type": "address"
        },
        {
          "internalType": "uint256[]",
          "name": "ids",
          "type": "uint256[]"
        },
        {
          "internalType": "uint256[]",
          "name": "amounts",
          "type": "uint256[]"
        },
        {
          "internalType": "bytes",
          "name": "data",
          "type": "bytes"
        }
      ],
      "name": "mintBatch",
      "outputs": [],
      "stateMutability": "nonpayable",
      "type": "function"
    },
    {
      "inputs": [
        {
          "internalType": "uint256",
          "name": "eth",
          "type": "uint256"
        }
      ],
      "name": "checkout",
      "outputs": [],
      "stateMutability": "nonpayable",
      "type": "function"
    }
  ],
  "bytecode": "0x60806040523480156200001157600080fd5b50604051620050e0380380620050e08339818101604052810190620000379190620003c7565b6040518060200160405280600081525062000058816200009160201b60201c565b50620000796200006d620000a660201b60201c565b620000ae60201b60201c565b6200008a816200017460201b60201c565b506200084d565b8060029081620000a2919062000673565b5050565b600033905090565b6000600460009054906101000a900473ffffffffffffffffffffffffffffffffffffffff16905081600460006101000a81548173ffffffffffffffffffffffffffffffffffffffff021916908373ffffffffffffffffffffffffffffffffffffffff1602179055508173ffffffffffffffffffffffffffffffffffffffff168173ffffffffffffffffffffffffffffffffffffffff167f8be0079c531659141344cd1fd0a4f28419497f9722a3daafe3b4186f6b6457e060405160405180910390a35050565b62000184620002a260201b60201c565b80600560006101000a81548173ffffffffffffffffffffffffffffffffffffffff021916908373ffffffffffffffffffffffffffffffffffffffff160217905550600560009054906101000a900473ffffffffffffffffffffffffffffffffffffffff1673ffffffffffffffffffffffffffffffffffffffff16630d8e6e2c6040518163ffffffff1660e01b8152600401602060405180830381865afa15801562000233573d6000803e3d6000fd5b505050506040513d601f19601f8201168201806040525081019062000259919062000798565b60ff168173ffffffffffffffffffffffffffffffffffffffff167f51afda9b4ac82d00be6c486c0153ebc5bc042879b1d229255c12e804c469d56760405160405180910390a350565b620002b2620000a660201b60201c565b73ffffffffffffffffffffffffffffffffffffffff16620002d86200033360201b60201c565b73ffffffffffffffffffffffffffffffffffffffff161462000331576040517f08c379a000000000000000000000000000000000000000000000000000000000815260040162000328906200082b565b60405180910390fd5b565b6000600460009054906101000a900473ffffffffffffffffffffffffffffffffffffffff16905090565b600080fd5b600073ffffffffffffffffffffffffffffffffffffffff82169050919050565b60006200038f8262000362565b9050919050565b620003a18162000382565b8114620003ad57600080fd5b50565b600081519050620003c18162000396565b92915050565b600060208284031215620003e057620003df6200035d565b5b6000620003f084828501620003b0565b91505092915050565b600081519050919050565b7f4e487b7100000000000000000000000000000000000000000000000000000000600052604160045260246000fd5b7f4e487b7100000000000000000000000000000000000000000000000000000000600052602260045260246000fd5b600060028204905060018216806200047b57607f821691505b60208210810362000491576200049062000433565b5b50919050565b60008190508160005260206000209050919050565b60006020601f8301049050919050565b600082821b905092915050565b600060088302620004fb7fffffffffffffffffffffffffffffffffffffffffffffffffffffffffffffffff82620004bc565b620005078683620004bc565b95508019841693508086168417925050509392505050565b6000819050919050565b6000819050919050565b6000620005546200054e62000548846200051f565b62000529565b6200051f565b9050919050565b6000819050919050565b620005708362000533565b620005886200057f826200055b565b848454620004c9565b825550505050565b600090565b6200059f62000590565b620005ac81848462000565565b505050565b5b81811015620005d457620005c860008262000595565b600181019050620005b2565b5050565b601f8211156200062357620005ed8162000497565b620005f884620004ac565b8101602085101562000608578190505b620006206200061785620004ac565b830182620005b1565b50505b505050565b600082821c905092915050565b6000620006486000198460080262000628565b1980831691505092915050565b600062000663838362000635565b9150826002028217905092915050565b6200067e82620003f9565b67ffffffffffffffff8111156200069a576200069962000404565b5b620006a6825462000462565b620006b3828285620005d8565b600060209050601f831160018114620006eb5760008415620006d6578287015190505b620006e2858262000655565b86555062000752565b601f198416620006fb8662000497565b60005b828110156200072557848901518255600182019150602085019450602081019050620006fe565b8683101562000745578489015162000741601f89168262000635565b8355505b6001600288020188555050505b505050505050565b600060ff82169050919050565b62000772816200075a565b81146200077e57600080fd5b50565b600081519050620007928162000767565b92915050565b600060208284031215620007b157620007b06200035d565b5b6000620007c18482850162000781565b91505092915050565b600082825260208201905092915050565b7f4f776e61626c653a2063616c6c6572206973206e6f7420746865206f776e6572600082015250565b600062000813602083620007ca565b91506200082082620007db565b602082019050919050565b60006020820190508181036000830152620008468162000804565b9050919050565b614883806200085d6000396000f3fe6080604052600436106101805760003560e01c806387ee5f41116100d1578063bd85b0391161008a578063e9b5b66211610064578063e9b5b662146105b4578063f242432a146105d0578063f2fde38b146105f9578063f5298aca1461062257610180565b8063bd85b039146104fd578063e75722301461053a578063e985e9c51461057757610180565b806387ee5f41146103ec5780638da5cb5b1461042a578063a1203dd014610455578063a22cb46514610480578063b187bd26146104a9578063b390c0ab146104d457610180565b80632eb2c2d61161013e5780634f558e79116101185780634f558e79146103465780636b20c45414610383578063715018a6146103ac578063731133e9146103c357610180565b80632eb2c2d6146102b75780634c9ba852146102e05780634e1273f41461030957610180565b8062fdd58e1461018557806301ffc9a7146101c2578063087cbd40146101ff5780630e89341c1461022857806316c38b3c146102655780631f7fdffa1461028e575b600080fd5b34801561019157600080fd5b506101ac60048036038101906101a79190612da4565b61064b565b6040516101b99190612df3565b60405180910390f35b3480156101ce57600080fd5b506101e960048036038101906101e49190612e66565b610713565b6040516101f69190612eae565b60405180910390f35b34801561020b57600080fd5b5061022660048036038101906102219190612ec9565b6107f5565b005b34801561023457600080fd5b5061024f600480360381019061024a9190612ef6565b610918565b60405161025c9190612fb3565b60405180910390f35b34801561027157600080fd5b5061028c60048036038101906102879190613001565b6109c2565b005b34801561029a57600080fd5b506102b560048036038101906102b0919061322b565b610a25565b005b3480156102c357600080fd5b506102de60048036038101906102d991906132e6565b610ae2565b005b3480156102ec57600080fd5b5061030760048036038101906103029190612ef6565b610b83565b005b34801561031557600080fd5b50610330600480360381019061032b9190613478565b610bf1565b60405161033d91906135ae565b60405180910390f35b34801561035257600080fd5b5061036d60048036038101906103689190612ef6565b610d0a565b60405161037a9190612eae565b60405180910390f35b34801561038f57600080fd5b506103aa60048036038101906103a591906135d0565b610d1e565b005b3480156103b857600080fd5b506103c1610dbb565b005b3480156103cf57600080fd5b506103ea60048036038101906103e5919061365b565b610dcf565b005b3480156103f857600080fd5b50610413600480360381019061040e91906136de565b610e38565b60405161042192919061371e565b60405180910390f35b34801561043657600080fd5b5061043f610f8f565b60405161044c919061375d565b60405180910390f35b34801561046157600080fd5b5061046a610fb9565b60405161047791906137d7565b60405180910390f35b34801561048c57600080fd5b506104a760048036038101906104a291906137f2565b610fdf565b005b3480156104b557600080fd5b506104be610ff5565b6040516104cb9190612eae565b60405180910390f35b3480156104e057600080fd5b506104fb60048036038101906104f691906136de565b61100c565b005b34801561050957600080fd5b50610524600480360381019061051f9190612ef6565b61106a565b6040516105319190612df3565b60405180910390f35b34801561054657600080fd5b50610561600480360381019061055c9190612ef6565b611087565b60405161056e9190612df3565b60405180910390f35b34801561058357600080fd5b5061059e60048036038101906105999190613832565b61112c565b6040516105ab9190612eae565b60405180910390f35b6105ce60048036038101906105c99190613872565b6111c0565b005b3480156105dc57600080fd5b506105f760048036038101906105f291906138ce565b611313565b005b34801561060557600080fd5b50610620600480360381019061061b9190612ec9565b6113b4565b005b34801561062e57600080fd5b5061064960048036038101906106449190613965565b611437565b005b60008073ffffffffffffffffffffffffffffffffffffffff168373ffffffffffffffffffffffffffffffffffffffff16036106bb576040517f08c379a00000000000000000000000000000000000000000000000000000000081526004016106b290613a2a565b60405180910390fd5b60008083815260200190815260200160002060008473ffffffffffffffffffffffffffffffffffffffff1673ffffffffffffffffffffffffffffffffffffffff16815260200190815260200160002054905092915050565b60007fd9b67a26000000000000000000000000000000000000000000000000000000007bffffffffffffffffffffffffffffffffffffffffffffffffffffffff1916827bffffffffffffffffffffffffffffffffffffffffffffffffffffffff191614806107de57507f0e89341c000000000000000000000000000000000000000000000000000000007bffffffffffffffffffffffffffffffffffffffffffffffffffffffff1916827bffffffffffffffffffffffffffffffffffffffffffffffffffffffff1916145b806107ee57506107ed826114d4565b5b9050919050565b6107fd61153e565b80600560006101000a81548173ffffffffffffffffffffffffffffffffffffffff021916908373ffffffffffffffffffffffffffffffffffffffff160217905550600560009054906101000a900473ffffffffffffffffffffffffffffffffffffffff1673ffffffffffffffffffffffffffffffffffffffff16630d8e6e2c6040518163ffffffff1660e01b8152600401602060405180830381865afa1580156108ab573d6000803e3d6000fd5b505050506040513d601f19601f820116820180604052508101906108cf9190613a83565b60ff168173ffffffffffffffffffffffffffffffffffffffff167f51afda9b4ac82d00be6c486c0153ebc5bc042879b1d229255c12e804c469d56760405160405180910390a350565b6060600560009054906101000a900473ffffffffffffffffffffffffffffffffffffffff1673ffffffffffffffffffffffffffffffffffffffff16630e89341c836040518263ffffffff1660e01b81526004016109759190612df3565b600060405180830381865afa158015610992573d6000803e3d6000fd5b505050506040513d6000823e3d601f19601f820116820180604052508101906109bb9190613b51565b9050919050565b6109ca61153e565b80600460146101000a81548160ff021916908315150217905550600460149054906101000a900460ff1615157f0e2fb031ee032dc02d8011dc50b816eb450cf856abd8261680dac74f72165bd260405160405180910390a250565b610a2d61153e565b610a39848484846115bc565b60005b8351811015610adb57838181518110610a5857610a57613b9a565b5b60200260200101518573ffffffffffffffffffffffffffffffffffffffff167f25b428dfde728ccfaddad7e29e4ac23c24ed7fd1a6e3e3f91894a9a073f5dfff858481518110610aab57610aaa613b9a565b5b6020026020010151604051610ac09190612df3565b60405180910390a38080610ad390613bf8565b915050610a3c565b5050505050565b610aea6117e8565b73ffffffffffffffffffffffffffffffffffffffff168573ffffffffffffffffffffffffffffffffffffffff161480610b305750610b2f85610b2a6117e8565b61112c565b5b610b6f576040517f08c379a0000000000000000000000000000000000000000000000000000000008152600401610b6690613cb2565b60405180910390fd5b610b7c85858585856117f0565b5050505050565b610b8b61153e565b3373ffffffffffffffffffffffffffffffffffffffff166108fc610bc2670de0b6b3a764000084610bbc9190613cd2565b47611b11565b9081150290604051600060405180830381858888f19350505050158015610bed573d6000803e3d6000fd5b5050565b60608151835114610c37576040517f08c379a0000000000000000000000000000000000000000000000000000000008152600401610c2e90613d86565b60405180910390fd5b6000835167ffffffffffffffff811115610c5457610c53613033565b5b604051908082528060200260200182016040528015610c825781602001602082028036833780820191505090505b50905060005b8451811015610cff57610ccf858281518110610ca757610ca6613b9a565b5b6020026020010151858381518110610cc257610cc1613b9a565b5b602002602001015161064b565b828281518110610ce257610ce1613b9a565b5b60200260200101818152505080610cf890613bf8565b9050610c88565b508091505092915050565b600080610d168361106a565b119050919050565b610d266117e8565b73ffffffffffffffffffffffffffffffffffffffff168373ffffffffffffffffffffffffffffffffffffffff161480610d6c5750610d6b83610d666117e8565b61112c565b5b610dab576040517f08c379a0000000000000000000000000000000000000000000000000000000008152600401610da290613cb2565b60405180910390fd5b610db6838383611b2a565b505050565b610dc361153e565b610dcd6000611df8565b565b610dd761153e565b610de384848484611ebe565b828473ffffffffffffffffffffffffffffffffffffffff167f25b428dfde728ccfaddad7e29e4ac23c24ed7fd1a6e3e3f91894a9a073f5dfff84604051610e2a9190612df3565b60405180910390a350505050565b60006060600460149054906101000a900460ff1615610e925760006040518060400160405280600681526020017f506175736564000000000000000000000000000000000000000000000000000081525091509150610f88565b600560009054906101000a900473ffffffffffffffffffffffffffffffffffffffff1673ffffffffffffffffffffffffffffffffffffffff1663b1b9586885610eda8761106a565b610ee4338961064b565b876040518563ffffffff1660e01b8152600401610f049493929190613da6565b60006040518083038186803b158015610f1c57600080fd5b505afa925050508015610f2d575060015b610f7157610f39613df8565b806308c379a003610f655750610f4d613e1a565b80610f585750610f67565b6000819250925050610f88565b505b3d6000803e3d6000fd5b600160405180602001604052806000815250915091505b9250929050565b6000600460009054906101000a900473ffffffffffffffffffffffffffffffffffffffff16905090565b600560009054906101000a900473ffffffffffffffffffffffffffffffffffffffff1681565b610ff1610fea6117e8565b838361206e565b5050565b6000600460149054906101000a900460ff16905090565b611017338383611437565b813373ffffffffffffffffffffffffffffffffffffffff167f23ff0e75edf108e3d0392d92e13e8c8a868ef19001bd49f9e94876dc46dff87f8360405161105e9190612df3565b60405180910390a35050565b600060036000838152602001908152602001600020549050919050565b6000600560009054906101000a900473ffffffffffffffffffffffffffffffffffffffff1673ffffffffffffffffffffffffffffffffffffffff16636866537d836040518263ffffffff1660e01b81526004016110e49190612df3565b602060405180830381865afa158015611101573d6000803e3d6000fd5b505050506040513d601f19601f820116820180604052508101906111259190613ebf565b9050919050565b6000600160008473ffffffffffffffffffffffffffffffffffffffff1673ffffffffffffffffffffffffffffffffffffffff16815260200190815260200160002060008373ffffffffffffffffffffffffffffffffffffffff1673ffffffffffffffffffffffffffffffffffffffff16815260200190815260200160002060009054906101000a900460ff16905092915050565b600460149054906101000a900460ff1615611210576040517f08c379a000000000000000000000000000000000000000000000000000000000815260040161120790613f38565b60405180910390fd5b600560009054906101000a900473ffffffffffffffffffffffffffffffffffffffff1673ffffffffffffffffffffffffffffffffffffffff1663b1b95868836112588561106a565b611262338761064b565b346040518563ffffffff1660e01b81526004016112829493929190613da6565b60006040518083038186803b15801561129a57600080fd5b505afa1580156112ae573d6000803e3d6000fd5b505050506112bf3383600184611ebe565b813373ffffffffffffffffffffffffffffffffffffffff167f25b428dfde728ccfaddad7e29e4ac23c24ed7fd1a6e3e3f91894a9a073f5dfff60016040516113079190613f93565b60405180910390a35050565b61131b6117e8565b73ffffffffffffffffffffffffffffffffffffffff168573ffffffffffffffffffffffffffffffffffffffff16148061136157506113608561135b6117e8565b61112c565b5b6113a0576040517f08c379a000000000000000000000000000000000000000000000000000000000815260040161139790613cb2565b60405180910390fd5b6113ad85858585856121da565b5050505050565b6113bc61153e565b600073ffffffffffffffffffffffffffffffffffffffff168173ffffffffffffffffffffffffffffffffffffffff160361142b576040517f08c379a000000000000000000000000000000000000000000000000000000000815260040161142290614020565b60405180910390fd5b61143481611df8565b50565b61143f6117e8565b73ffffffffffffffffffffffffffffffffffffffff168373ffffffffffffffffffffffffffffffffffffffff16148061148557506114848361147f6117e8565b61112c565b5b6114c4576040517f08c379a00000000000000000000000000000000000000000000000000000000081526004016114bb90613cb2565b60405180910390fd5b6114cf838383612475565b505050565b60007f01ffc9a7000000000000000000000000000000000000000000000000000000007bffffffffffffffffffffffffffffffffffffffffffffffffffffffff1916827bffffffffffffffffffffffffffffffffffffffffffffffffffffffff1916149050919050565b6115466117e8565b73ffffffffffffffffffffffffffffffffffffffff16611564610f8f565b73ffffffffffffffffffffffffffffffffffffffff16146115ba576040517f08c379a00000000000000000000000000000000000000000000000000000000081526004016115b19061408c565b60405180910390fd5b565b600073ffffffffffffffffffffffffffffffffffffffff168473ffffffffffffffffffffffffffffffffffffffff160361162b576040517f08c379a00000000000000000000000000000000000000000000000000000000081526004016116229061411e565b60405180910390fd5b815183511461166f576040517f08c379a0000000000000000000000000000000000000000000000000000000008152600401611666906141b0565b60405180910390fd5b60006116796117e8565b905061168a816000878787876126bb565b60005b8451811015611743578381815181106116a9576116a8613b9a565b5b60200260200101516000808784815181106116c7576116c6613b9a565b5b6020026020010151815260200190815260200160002060008873ffffffffffffffffffffffffffffffffffffffff1673ffffffffffffffffffffffffffffffffffffffff168152602001908152602001600020600082825461172991906141d0565b92505081905550808061173b90613bf8565b91505061168d565b508473ffffffffffffffffffffffffffffffffffffffff16600073ffffffffffffffffffffffffffffffffffffffff168273ffffffffffffffffffffffffffffffffffffffff167f4a39dc06d4c0dbc64b70af90fd698a233a518aa5d07e595d983b8c0526c8f7fb87876040516117bb929190614204565b60405180910390a46117d2816000878787876126d1565b6117e1816000878787876126d9565b5050505050565b600033905090565b8151835114611834576040517f08c379a000000000000000000000000000000000000000000000000000000000815260040161182b906141b0565b60405180910390fd5b600073ffffffffffffffffffffffffffffffffffffffff168473ffffffffffffffffffffffffffffffffffffffff16036118a3576040517f08c379a000000000000000000000000000000000000000000000000000000000815260040161189a906142ad565b60405180910390fd5b60006118ad6117e8565b90506118bd8187878787876126bb565b60005b8451811015611a6e5760008582815181106118de576118dd613b9a565b5b6020026020010151905060008583815181106118fd576118fc613b9a565b5b60200260200101519050600080600084815260200190815260200160002060008b73ffffffffffffffffffffffffffffffffffffffff1673ffffffffffffffffffffffffffffffffffffffff1681526020019081526020016000205490508181101561199e576040517f08c379a00000000000000000000000000000000000000000000000000000000081526004016119959061433f565b60405180910390fd5b81810360008085815260200190815260200160002060008c73ffffffffffffffffffffffffffffffffffffffff1673ffffffffffffffffffffffffffffffffffffffff168152602001908152602001600020819055508160008085815260200190815260200160002060008b73ffffffffffffffffffffffffffffffffffffffff1673ffffffffffffffffffffffffffffffffffffffff1681526020019081526020016000206000828254611a5391906141d0565b9250508190555050505080611a6790613bf8565b90506118c0565b508473ffffffffffffffffffffffffffffffffffffffff168673ffffffffffffffffffffffffffffffffffffffff168273ffffffffffffffffffffffffffffffffffffffff167f4a39dc06d4c0dbc64b70af90fd698a233a518aa5d07e595d983b8c0526c8f7fb8787604051611ae5929190614204565b60405180910390a4611afb8187878787876126d1565b611b098187878787876126d9565b505050505050565b6000818310611b205781611b22565b825b905092915050565b600073ffffffffffffffffffffffffffffffffffffffff168373ffffffffffffffffffffffffffffffffffffffff1603611b99576040517f08c379a0000000000000000000000000000000000000000000000000000000008152600401611b90906143d1565b60405180910390fd5b8051825114611bdd576040517f08c379a0000000000000000000000000000000000000000000000000000000008152600401611bd4906141b0565b60405180910390fd5b6000611be76117e8565b9050611c07818560008686604051806020016040528060008152506126bb565b60005b8351811015611d54576000848281518110611c2857611c27613b9a565b5b602002602001015190506000848381518110611c4757611c46613b9a565b5b60200260200101519050600080600084815260200190815260200160002060008973ffffffffffffffffffffffffffffffffffffffff1673ffffffffffffffffffffffffffffffffffffffff16815260200190815260200160002054905081811015611ce8576040517f08c379a0000000000000000000000000000000000000000000000000000000008152600401611cdf90614463565b60405180910390fd5b81810360008085815260200190815260200160002060008a73ffffffffffffffffffffffffffffffffffffffff1673ffffffffffffffffffffffffffffffffffffffff168152602001908152602001600020819055505050508080611d4c90613bf8565b915050611c0a565b50600073ffffffffffffffffffffffffffffffffffffffff168473ffffffffffffffffffffffffffffffffffffffff168273ffffffffffffffffffffffffffffffffffffffff167f4a39dc06d4c0dbc64b70af90fd698a233a518aa5d07e595d983b8c0526c8f7fb8686604051611dcc929190614204565b60405180910390a4611df2818560008686604051806020016040528060008152506126d1565b50505050565b6000600460009054906101000a900473ffffffffffffffffffffffffffffffffffffffff16905081600460006101000a81548173ffffffffffffffffffffffffffffffffffffffff021916908373ffffffffffffffffffffffffffffffffffffffff1602179055508173ffffffffffffffffffffffffffffffffffffffff168173ffffffffffffffffffffffffffffffffffffffff167f8be0079c531659141344cd1fd0a4f28419497f9722a3daafe3b4186f6b6457e060405160405180910390a35050565b600073ffffffffffffffffffffffffffffffffffffffff168473ffffffffffffffffffffffffffffffffffffffff1603611f2d576040517f08c379a0000000000000000000000000000000000000000000000000000000008152600401611f249061411e565b60405180910390fd5b6000611f376117e8565b90506000611f44856128b0565b90506000611f51856128b0565b9050611f62836000898585896126bb565b8460008088815260200190815260200160002060008973ffffffffffffffffffffffffffffffffffffffff1673ffffffffffffffffffffffffffffffffffffffff1681526020019081526020016000206000828254611fc191906141d0565b925050819055508673ffffffffffffffffffffffffffffffffffffffff16600073ffffffffffffffffffffffffffffffffffffffff168473ffffffffffffffffffffffffffffffffffffffff167fc3d58168c5ae7397731d063d5bbf3d657854427343f4c083240f7aacaa2d0f62898960405161203f929190614483565b60405180910390a4612056836000898585896126d1565b6120658360008989898961292a565b50505050505050565b8173ffffffffffffffffffffffffffffffffffffffff168373ffffffffffffffffffffffffffffffffffffffff16036120dc576040517f08c379a00000000000000000000000000000000000000000000000000000000081526004016120d39061451e565b60405180910390fd5b80600160008573ffffffffffffffffffffffffffffffffffffffff1673ffffffffffffffffffffffffffffffffffffffff16815260200190815260200160002060008473ffffffffffffffffffffffffffffffffffffffff1673ffffffffffffffffffffffffffffffffffffffff16815260200190815260200160002060006101000a81548160ff0219169083151502179055508173ffffffffffffffffffffffffffffffffffffffff168373ffffffffffffffffffffffffffffffffffffffff167f17307eab39ab6107e8899845ad3d59bd9653f200f220920489ca2b5937696c31836040516121cd9190612eae565b60405180910390a3505050565b600073ffffffffffffffffffffffffffffffffffffffff168473ffffffffffffffffffffffffffffffffffffffff1603612249576040517f08c379a0000000000000000000000000000000000000000000000000000000008152600401612240906142ad565b60405180910390fd5b60006122536117e8565b90506000612260856128b0565b9050600061226d856128b0565b905061227d8389898585896126bb565b600080600088815260200190815260200160002060008a73ffffffffffffffffffffffffffffffffffffffff1673ffffffffffffffffffffffffffffffffffffffff16815260200190815260200160002054905085811015612314576040517f08c379a000000000000000000000000000000000000000000000000000000000815260040161230b9061433f565b60405180910390fd5b85810360008089815260200190815260200160002060008b73ffffffffffffffffffffffffffffffffffffffff1673ffffffffffffffffffffffffffffffffffffffff168152602001908152602001600020819055508560008089815260200190815260200160002060008a73ffffffffffffffffffffffffffffffffffffffff1673ffffffffffffffffffffffffffffffffffffffff16815260200190815260200160002060008282546123c991906141d0565b925050819055508773ffffffffffffffffffffffffffffffffffffffff168973ffffffffffffffffffffffffffffffffffffffff168573ffffffffffffffffffffffffffffffffffffffff167fc3d58168c5ae7397731d063d5bbf3d657854427343f4c083240f7aacaa2d0f628a8a604051612446929190614483565b60405180910390a461245c848a8a86868a6126d1565b61246a848a8a8a8a8a61292a565b505050505050505050565b600073ffffffffffffffffffffffffffffffffffffffff168373ffffffffffffffffffffffffffffffffffffffff16036124e4576040517f08c379a00000000000000000000000000000000000000000000000000000000081526004016124db906143d1565b60405180910390fd5b60006124ee6117e8565b905060006124fb846128b0565b90506000612508846128b0565b9050612528838760008585604051806020016040528060008152506126bb565b600080600087815260200190815260200160002060008873ffffffffffffffffffffffffffffffffffffffff1673ffffffffffffffffffffffffffffffffffffffff168152602001908152602001600020549050848110156125bf576040517f08c379a00000000000000000000000000000000000000000000000000000000081526004016125b690614463565b60405180910390fd5b84810360008088815260200190815260200160002060008973ffffffffffffffffffffffffffffffffffffffff1673ffffffffffffffffffffffffffffffffffffffff16815260200190815260200160002081905550600073ffffffffffffffffffffffffffffffffffffffff168773ffffffffffffffffffffffffffffffffffffffff168573ffffffffffffffffffffffffffffffffffffffff167fc3d58168c5ae7397731d063d5bbf3d657854427343f4c083240f7aacaa2d0f62898960405161268c929190614483565b60405180910390a46126b2848860008686604051806020016040528060008152506126d1565b50505050505050565b6126c9868686868686612b01565b505050505050565b505050505050565b6126f88473ffffffffffffffffffffffffffffffffffffffff16612cd1565b156128a8578373ffffffffffffffffffffffffffffffffffffffff1663bc197c8187878686866040518663ffffffff1660e01b815260040161273e959493929190614593565b6020604051808303816000875af192505050801561277a57506040513d601f19601f820116820180604052508101906127779190614610565b60015b61281f57612786613df8565b806308c379a0036127e2575061279a613e1a565b806127a557506127e4565b806040517f08c379a00000000000000000000000000000000000000000000000000000000081526004016127d99190612fb3565b60405180910390fd5b505b6040517f08c379a0000000000000000000000000000000000000000000000000000000008152600401612816906146af565b60405180910390fd5b63bc197c8160e01b7bffffffffffffffffffffffffffffffffffffffffffffffffffffffff1916817bffffffffffffffffffffffffffffffffffffffffffffffffffffffff1916146128a6576040517f08c379a000000000000000000000000000000000000000000000000000000000815260040161289d90614741565b60405180910390fd5b505b505050505050565b60606000600167ffffffffffffffff8111156128cf576128ce613033565b5b6040519080825280602002602001820160405280156128fd5781602001602082028036833780820191505090505b509050828160008151811061291557612914613b9a565b5b60200260200101818152505080915050919050565b6129498473ffffffffffffffffffffffffffffffffffffffff16612cd1565b15612af9578373ffffffffffffffffffffffffffffffffffffffff1663f23a6e6187878686866040518663ffffffff1660e01b815260040161298f959493929190614761565b6020604051808303816000875af19250505080156129cb57506040513d601f19601f820116820180604052508101906129c89190614610565b60015b612a70576129d7613df8565b806308c379a003612a3357506129eb613e1a565b806129f65750612a35565b806040517f08c379a0000000000000000000000000000000000000000000000000000000008152600401612a2a9190612fb3565b60405180910390fd5b505b6040517f08c379a0000000000000000000000000000000000000000000000000000000008152600401612a67906146af565b60405180910390fd5b63f23a6e6160e01b7bffffffffffffffffffffffffffffffffffffffffffffffffffffffff1916817bffffffffffffffffffffffffffffffffffffffffffffffffffffffff191614612af7576040517f08c379a0000000000000000000000000000000000000000000000000000000008152600401612aee90614741565b60405180910390fd5b505b505050505050565b612b0f868686868686612cf4565b600073ffffffffffffffffffffffffffffffffffffffff168573ffffffffffffffffffffffffffffffffffffffff1603612bc05760005b8351811015612bbe57828181518110612b6257612b61613b9a565b5b602002602001015160036000868481518110612b8157612b80613b9a565b5b602002602001015181526020019081526020016000206000828254612ba691906141d0565b9250508190555080612bb790613bf8565b9050612b46565b505b600073ffffffffffffffffffffffffffffffffffffffff168473ffffffffffffffffffffffffffffffffffffffff1603612cc95760005b8351811015612cc7576000848281518110612c1557612c14613b9a565b5b602002602001015190506000848381518110612c3457612c33613b9a565b5b6020026020010151905060006003600084815260200190815260200160002054905081811015612c99576040517f08c379a0000000000000000000000000000000000000000000000000000000008152600401612c909061482d565b60405180910390fd5b818103600360008581526020019081526020016000208190555050505080612cc090613bf8565b9050612bf7565b505b505050505050565b6000808273ffffffffffffffffffffffffffffffffffffffff163b119050919050565b505050505050565b6000604051905090565b600080fd5b600080fd5b600073ffffffffffffffffffffffffffffffffffffffff82169050919050565b6000612d3b82612d10565b9050919050565b612d4b81612d30565b8114612d5657600080fd5b50565b600081359050612d6881612d42565b92915050565b6000819050919050565b612d8181612d6e565b8114612d8c57600080fd5b50565b600081359050612d9e81612d78565b92915050565b60008060408385031215612dbb57612dba612d06565b5b6000612dc985828601612d59565b9250506020612dda85828601612d8f565b9150509250929050565b612ded81612d6e565b82525050565b6000602082019050612e086000830184612de4565b92915050565b60007fffffffff0000000000000000000000000000000000000000000000000000000082169050919050565b612e4381612e0e565b8114612e4e57600080fd5b50565b600081359050612e6081612e3a565b92915050565b600060208284031215612e7c57612e7b612d06565b5b6000612e8a84828501612e51565b91505092915050565b60008115159050919050565b612ea881612e93565b82525050565b6000602082019050612ec36000830184612e9f565b92915050565b600060208284031215612edf57612ede612d06565b5b6000612eed84828501612d59565b91505092915050565b600060208284031215612f0c57612f0b612d06565b5b6000612f1a84828501612d8f565b91505092915050565b600081519050919050565b600082825260208201905092915050565b60005b83811015612f5d578082015181840152602081019050612f42565b60008484015250505050565b6000601f19601f8301169050919050565b6000612f8582612f23565b612f8f8185612f2e565b9350612f9f818560208601612f3f565b612fa881612f69565b840191505092915050565b60006020820190508181036000830152612fcd8184612f7a565b905092915050565b612fde81612e93565b8114612fe957600080fd5b50565b600081359050612ffb81612fd5565b92915050565b60006020828403121561301757613016612d06565b5b600061302584828501612fec565b91505092915050565b600080fd5b7f4e487b7100000000000000000000000000000000000000000000000000000000600052604160045260246000fd5b61306b82612f69565b810181811067ffffffffffffffff8211171561308a57613089613033565b5b80604052505050565b600061309d612cfc565b90506130a98282613062565b919050565b600067ffffffffffffffff8211156130c9576130c8613033565b5b602082029050602081019050919050565b600080fd5b60006130f26130ed846130ae565b613093565b90508083825260208201905060208402830185811115613115576131146130da565b5b835b8181101561313e578061312a8882612d8f565b845260208401935050602081019050613117565b5050509392505050565b600082601f83011261315d5761315c61302e565b5b813561316d8482602086016130df565b91505092915050565b600080fd5b600067ffffffffffffffff82111561319657613195613033565b5b61319f82612f69565b9050602081019050919050565b82818337600083830152505050565b60006131ce6131c98461317b565b613093565b9050828152602081018484840111156131ea576131e9613176565b5b6131f58482856131ac565b509392505050565b600082601f8301126132125761321161302e565b5b81356132228482602086016131bb565b91505092915050565b6000806000806080858703121561324557613244612d06565b5b600061325387828801612d59565b945050602085013567ffffffffffffffff81111561327457613273612d0b565b5b61328087828801613148565b935050604085013567ffffffffffffffff8111156132a1576132a0612d0b565b5b6132ad87828801613148565b925050606085013567ffffffffffffffff8111156132ce576132cd612d0b565b5b6132da878288016131fd565b91505092959194509250565b600080600080600060a0868803121561330257613301612d06565b5b600061331088828901612d59565b955050602061332188828901612d59565b945050604086013567ffffffffffffffff81111561334257613341612d0b565b5b61334e88828901613148565b935050606086013567ffffffffffffffff81111561336f5761336e612d0b565b5b61337b88828901613148565b925050608086013567ffffffffffffffff81111561339c5761339b612d0b565b5b6133a8888289016131fd565b9150509295509295909350565b600067ffffffffffffffff8211156133d0576133cf613033565b5b602082029050602081019050919050565b60006133f46133ef846133b5565b613093565b90508083825260208201905060208402830185811115613417576134166130da565b5b835b81811015613440578061342c8882612d59565b845260208401935050602081019050613419565b5050509392505050565b600082601f83011261345f5761345e61302e565b5b813561346f8482602086016133e1565b91505092915050565b6000806040838503121561348f5761348e612d06565b5b600083013567ffffffffffffffff8111156134ad576134ac612d0b565b5b6134b98582860161344a565b925050602083013567ffffffffffffffff8111156134da576134d9612d0b565b5b6134e685828601613148565b9150509250929050565b600081519050919050565b600082825260208201905092915050565b6000819050602082019050919050565b61352581612d6e565b82525050565b6000613537838361351c565b60208301905092915050565b6000602082019050919050565b600061355b826134f0565b61356581856134fb565b93506135708361350c565b8060005b838110156135a1578151613588888261352b565b975061359383613543565b925050600181019050613574565b5085935050505092915050565b600060208201905081810360008301526135c88184613550565b905092915050565b6000806000606084860312156135e9576135e8612d06565b5b60006135f786828701612d59565b935050602084013567ffffffffffffffff81111561361857613617612d0b565b5b61362486828701613148565b925050604084013567ffffffffffffffff81111561364557613644612d0b565b5b61365186828701613148565b9150509250925092565b6000806000806080858703121561367557613674612d06565b5b600061368387828801612d59565b945050602061369487828801612d8f565b93505060406136a587828801612d8f565b925050606085013567ffffffffffffffff8111156136c6576136c5612d0b565b5b6136d2878288016131fd565b91505092959194509250565b600080604083850312156136f5576136f4612d06565b5b600061370385828601612d8f565b925050602061371485828601612d8f565b9150509250929050565b60006040820190506137336000830185612e9f565b81810360208301526137458184612f7a565b90509392505050565b61375781612d30565b82525050565b6000602082019050613772600083018461374e565b92915050565b6000819050919050565b600061379d61379861379384612d10565b613778565b612d10565b9050919050565b60006137af82613782565b9050919050565b60006137c1826137a4565b9050919050565b6137d1816137b6565b82525050565b60006020820190506137ec60008301846137c8565b92915050565b6000806040838503121561380957613808612d06565b5b600061381785828601612d59565b925050602061382885828601612fec565b9150509250929050565b6000806040838503121561384957613848612d06565b5b600061385785828601612d59565b925050602061386885828601612d59565b9150509250929050565b6000806040838503121561388957613888612d06565b5b600061389785828601612d8f565b925050602083013567ffffffffffffffff8111156138b8576138b7612d0b565b5b6138c4858286016131fd565b9150509250929050565b600080600080600060a086880312156138ea576138e9612d06565b5b60006138f888828901612d59565b955050602061390988828901612d59565b945050604061391a88828901612d8f565b935050606061392b88828901612d8f565b925050608086013567ffffffffffffffff81111561394c5761394b612d0b565b5b613958888289016131fd565b9150509295509295909350565b60008060006060848603121561397e5761397d612d06565b5b600061398c86828701612d59565b935050602061399d86828701612d8f565b92505060406139ae86828701612d8f565b9150509250925092565b7f455243313135353a2061646472657373207a65726f206973206e6f742061207660008201527f616c6964206f776e657200000000000000000000000000000000000000000000602082015250565b6000613a14602a83612f2e565b9150613a1f826139b8565b604082019050919050565b60006020820190508181036000830152613a4381613a07565b9050919050565b600060ff82169050919050565b613a6081613a4a565b8114613a6b57600080fd5b50565b600081519050613a7d81613a57565b92915050565b600060208284031215613a9957613a98612d06565b5b6000613aa784828501613a6e565b91505092915050565b600067ffffffffffffffff821115613acb57613aca613033565b5b613ad482612f69565b9050602081019050919050565b6000613af4613aef84613ab0565b613093565b905082815260208101848484011115613b1057613b0f613176565b5b613b1b848285612f3f565b509392505050565b600082601f830112613b3857613b3761302e565b5b8151613b48848260208601613ae1565b91505092915050565b600060208284031215613b6757613b66612d06565b5b600082015167ffffffffffffffff811115613b8557613b84612d0b565b5b613b9184828501613b23565b91505092915050565b7f4e487b7100000000000000000000000000000000000000000000000000000000600052603260045260246000fd5b7f4e487b7100000000000000000000000000000000000000000000000000000000600052601160045260246000fd5b6000613c0382612d6e565b91507fffffffffffffffffffffffffffffffffffffffffffffffffffffffffffffffff8203613c3557613c34613bc9565b5b600182019050919050565b7f455243313135353a2063616c6c6572206973206e6f7420746f6b656e206f776e60008201527f6572206e6f7220617070726f7665640000000000000000000000000000000000602082015250565b6000613c9c602f83612f2e565b9150613ca782613c40565b604082019050919050565b60006020820190508181036000830152613ccb81613c8f565b9050919050565b6000613cdd82612d6e565b9150613ce883612d6e565b9250828202613cf681612d6e565b91508282048414831517613d0d57613d0c613bc9565b5b5092915050565b7f455243313135353a206163636f756e747320616e6420696473206c656e67746860008201527f206d69736d617463680000000000000000000000000000000000000000000000602082015250565b6000613d70602983612f2e565b9150613d7b82613d14565b604082019050919050565b60006020820190508181036000830152613d9f81613d63565b9050919050565b6000608082019050613dbb6000830187612de4565b613dc86020830186612de4565b613dd56040830185612de4565b613de26060830184612de4565b95945050505050565b60008160e01c9050919050565b600060033d1115613e175760046000803e613e14600051613deb565b90505b90565b600060443d10613ea757613e2c612cfc565b60043d036004823e80513d602482011167ffffffffffffffff82111715613e54575050613ea7565b808201805167ffffffffffffffff811115613e725750505050613ea7565b80602083010160043d038501811115613e8f575050505050613ea7565b613e9e82602001850186613062565b82955050505050505b90565b600081519050613eb981612d78565b92915050565b600060208284031215613ed557613ed4612d06565b5b6000613ee384828501613eaa565b91505092915050565b7f5061757365640000000000000000000000000000000000000000000000000000600082015250565b6000613f22600683612f2e565b9150613f2d82613eec565b602082019050919050565b60006020820190508181036000830152613f5181613f15565b9050919050565b6000819050919050565b6000613f7d613f78613f7384613f58565b613778565b612d6e565b9050919050565b613f8d81613f62565b82525050565b6000602082019050613fa86000830184613f84565b92915050565b7f4f776e61626c653a206e6577206f776e657220697320746865207a65726f206160008201527f6464726573730000000000000000000000000000000000000000000000000000602082015250565b600061400a602683612f2e565b915061401582613fae565b604082019050919050565b6000602082019050818103600083015261403981613ffd565b9050919050565b7f4f776e61626c653a2063616c6c6572206973206e6f7420746865206f776e6572600082015250565b6000614076602083612f2e565b915061408182614040565b602082019050919050565b600060208201905081810360008301526140a581614069565b9050919050565b7f455243313135353a206d696e7420746f20746865207a65726f2061646472657360008201527f7300000000000000000000000000000000000000000000000000000000000000602082015250565b6000614108602183612f2e565b9150614113826140ac565b604082019050919050565b60006020820190508181036000830152614137816140fb565b9050919050565b7f455243313135353a2069647320616e6420616d6f756e7473206c656e6774682060008201527f6d69736d61746368000000000000000000000000000000000000000000000000602082015250565b600061419a602883612f2e565b91506141a58261413e565b604082019050919050565b600060208201905081810360008301526141c98161418d565b9050919050565b60006141db82612d6e565b91506141e683612d6e565b92508282019050808211156141fe576141fd613bc9565b5b92915050565b6000604082019050818103600083015261421e8185613550565b905081810360208301526142328184613550565b90509392505050565b7f455243313135353a207472616e7366657220746f20746865207a65726f20616460008201527f6472657373000000000000000000000000000000000000000000000000000000602082015250565b6000614297602583612f2e565b91506142a28261423b565b604082019050919050565b600060208201905081810360008301526142c68161428a565b9050919050565b7f455243313135353a20696e73756666696369656e742062616c616e636520666f60008201527f72207472616e7366657200000000000000000000000000000000000000000000602082015250565b6000614329602a83612f2e565b9150614334826142cd565b604082019050919050565b600060208201905081810360008301526143588161431c565b9050919050565b7f455243313135353a206275726e2066726f6d20746865207a65726f206164647260008201527f6573730000000000000000000000000000000000000000000000000000000000602082015250565b60006143bb602383612f2e565b91506143c68261435f565b604082019050919050565b600060208201905081810360008301526143ea816143ae565b9050919050565b7f455243313135353a206275726e20616d6f756e7420657863656564732062616c60008201527f616e636500000000000000000000000000000000000000000000000000000000602082015250565b600061444d602483612f2e565b9150614458826143f1565b604082019050919050565b6000602082019050818103600083015261447c81614440565b9050919050565b60006040820190506144986000830185612de4565b6144a56020830184612de4565b9392505050565b7f455243313135353a2073657474696e6720617070726f76616c2073746174757360008201527f20666f722073656c660000000000000000000000000000000000000000000000602082015250565b6000614508602983612f2e565b9150614513826144ac565b604082019050919050565b60006020820190508181036000830152614537816144fb565b9050919050565b600081519050919050565b600082825260208201905092915050565b60006145658261453e565b61456f8185614549565b935061457f818560208601612f3f565b61458881612f69565b840191505092915050565b600060a0820190506145a8600083018861374e565b6145b5602083018761374e565b81810360408301526145c78186613550565b905081810360608301526145db8185613550565b905081810360808301526145ef818461455a565b90509695505050505050565b60008151905061460a81612e3a565b92915050565b60006020828403121561462657614625612d06565b5b6000614634848285016145fb565b91505092915050565b7f455243313135353a207472616e7366657220746f206e6f6e204552433131353560008201527f526563656976657220696d706c656d656e746572000000000000000000000000602082015250565b6000614699603483612f2e565b91506146a48261463d565b604082019050919050565b600060208201905081810360008301526146c88161468c565b9050919050565b7f455243313135353a204552433131353552656365697665722072656a6563746560008201527f6420746f6b656e73000000000000000000000000000000000000000000000000602082015250565b600061472b602883612f2e565b9150614736826146cf565b604082019050919050565b6000602082019050818103600083015261475a8161471e565b9050919050565b600060a082019050614776600083018861374e565b614783602083018761374e565b6147906040830186612de4565b61479d6060830185612de4565b81810360808301526147af818461455a565b90509695505050505050565b7f455243313135353a206275726e20616d6f756e74206578636565647320746f7460008201527f616c537570706c79000000000000000000000000000000000000000000000000602082015250565b6000614817602883612f2e565b9150614822826147bb565b604082019050919050565b600060208201905081810360008301526148468161480a565b905091905056fea2646970667358221220416da30947dfce914c86073cc907ab3557655cbaee0c69f2f7ce645eb1663afd64736f6c63430008110033",
  "immutableReferences": {},
  "source": "// SPDX-License-Identifier: MIT\n//\n//    \n//             \n//              \n//              \n//              \n//          \n//        \n//      \n//\n// https://endlesscrawler.io\n// @EndlessCrawler\n//\n/// @title Endless Crawler Cards Minter\n/// @author Studio Avante\n/// @notice Mints new Game Cards for Endless Crawler\n/// @dev Depends on upgradeable ICardsStore contract, containing all the available cards data\npragma solidity ^0.8.16;\nimport { ERC1155 } from '@openzeppelin/contracts/token/ERC1155/ERC1155.sol';\nimport { ERC1155Supply } from '@openzeppelin/contracts/token/ERC1155/extensions/ERC1155Supply.sol';\nimport { ERC1155Burnable } from '@openzeppelin/contracts/token/ERC1155/extensions/ERC1155Burnable.sol';\nimport { Ownable } from '@openzeppelin/contracts/access/Ownable.sol';\nimport { Math } from '@openzeppelin/contracts/utils/math/Math.sol';\nimport { ICardsStore } from './ICardsStore.sol';\n\ncontract CardsMinter is ERC1155, ERC1155Burnable, ERC1155Supply, Ownable {\n\n\tbool private _paused;\n\n\t/// @notice The current ICardsStore contract\n\tICardsStore public _store;\n\n\t/// @notice Emitted when contract is paused/unpaused\n\t/// @param paused True if the contract was paused, False if it was unpaused\n\tevent Paused(bool indexed paused);\n\n\t/// @notice Emitted when the Store contract is updated\n\t/// @param store The new Store contract address\n\t/// @param version The new Store contract version\n\tevent SetStore(address indexed store, uint8 indexed version);\n\n\t/// @notice Emitted when a new card is minted\n\t/// @param account The owner of the new card\n\t/// @param id Token id\n\t/// @param id Amount minted\n\tevent Minted(address indexed account, uint256 indexed id, uint256 amount);\n\n\t/// @notice Emitted when a new card is burned\n\t/// @param account The owner of the burned card\n\t/// @param id Token id\n\t/// @param id Amount burned\n\tevent Burned(address indexed account, uint256 indexed id, uint256 amount);\n\n\tconstructor(address store) ERC1155('') {\n\t\tsetStore(store);\n\t}\n\n  function _beforeTokenTransfer(address operator, address from, address to, uint256[] memory ids, uint256[] memory amounts, bytes memory data) internal override(ERC1155, ERC1155Supply) {\n    super._beforeTokenTransfer(operator, from, to, ids, amounts, data);\n  }\n\n\t//---------------\n\t// Public\n\t//\n\n\t/// @notice Check if the purchases are paused\n\t/// @return bool True if paused, False if unpaused\n\tfunction isPaused() public view returns (bool) {\n\t\treturn _paused;\n\t}\n\n\t/// @notice Returns a Token unit price, not considering availability\n\t/// @param id Token id\n\t/// @return price Price of the token, in WEI\n\tfunction getPrice(uint256 id) external view returns (uint256) {\n\t\treturn _store.getCardPrice(id);\n\t}\n\n\t/// @notice Run all require tests for a successful purchase()\n\t/// @param id Token id\n\t/// @param value Value that will be sent to purchase(), in WEI\n\t/// @return bool True if purchase is allowed, False if not\n\t/// @return reason The reason when purchase now allowed\n\tfunction canPurchase(uint256 id, uint256 value) public view returns (bool, string memory) {\n\t\tif (_paused) {\n\t\t\treturn (false, 'Paused');\n\t\t}\n\t\ttry _store.beforeMint(id, totalSupply(id), balanceOf(msg.sender, id), value) {\n\t\t\treturn (true, '');\n\t\t} catch Error(string memory reason_) {\n\t\t\treturn (false, reason_);\n\t\t}\n\t}\n\n\t/// @notice Purchases 1 Token for the Sender. The message value must be equal or higher than getPrice(id)\n\t/// @param id Token id\n\t/// @param data Nevermind, use []\n  function purchase(uint256 id, bytes memory data) public payable {\n    require(!_paused, 'Paused');\n    _store.beforeMint(id, totalSupply(id), balanceOf(msg.sender, id), msg.value);\n    _mint(msg.sender, id, 1, data);\n    emit Minted(msg.sender, id, 1);\n  }\n\n\t/// @notice Burn tokens. Sender must be owner or approved\n\t/// @param id Token id\n\t/// @param amount The amount of tokens to burn\n\tfunction burn(uint256 id, uint256 amount) public {\n\t\tERC1155Burnable.burn(msg.sender, id, amount);\n\t\temit Burned(msg.sender, id, amount);\n\t}\n\n\t/// @notice Returns a token metadata, compliant with ERC1155Metadata_URI\n\t/// @param id Token id\n\t/// @return metadata Token metadata, as json string base64 encoded\n\tfunction uri(uint256 id) public view override returns (string memory) {\n\t\treturn _store.uri(id);\n\t}\n\n\t//---------------\n\t// Admin\n\t//\n\n\t///@notice admin function\n\tfunction setStore(address store) public onlyOwner {\n\t\t_store = ICardsStore(store);\n\t\temit SetStore(store, _store.getVersion());\n\t}\n\n\t///@notice admin function\n\tfunction setPaused(bool paused_) public onlyOwner {\n\t\t_paused = paused_;\n\t\temit Paused(_paused);\n\t}\n\n\t///@notice admin function\n  function mint(address account, uint256 id, uint256 amount, bytes memory data) public onlyOwner {\n    _mint(account, id, amount, data);\n    emit Minted(account, id, amount);\n  }\n\n\t///@notice admin function\n  function mintBatch(address account, uint256[] memory ids, uint256[] memory amounts, bytes memory data) public onlyOwner {\n   _mintBatch(account, ids, amounts, data);\n\t\tfor (uint256 i = 0; i < ids.length; i++) {\n\t\t\temit Minted(account, ids[i], amounts[i]);\n\t\t}\n  }\n\n\t///@notice admin function\n\tfunction checkout(uint256 eth) public onlyOwner {\n\t\tpayable(msg.sender).transfer(Math.min(eth * 1_000_000_000_000_000_000, address(this).balance));\n\t}\n}\n",
  "sourcePath": "/Users/roger/Dev/Blockchain/Truffle/ec-cards/contracts/CardsMinter.sol",
  "compiler": {
    "name": "solc",
    "version": "0.8.17+commit.8df45f5f.Emscripten.clang"
  },
  "schemaVersion": "3.4.11",
  "updatedAt": "2022-12-01T00:37:01.353Z",
  "networkType": "ethereum",
  "devdoc": {
    "events": {
      "Burned(address,uint256,uint256)": {
        "params": {
          "account": "The owner of the burned card",
          "id": "Amount burned"
        }
      },
      "Minted(address,uint256,uint256)": {
        "params": {
          "account": "The owner of the new card",
          "id": "Amount minted"
        }
      },
      "Paused(bool)": {
        "params": {
          "paused": "True if the contract was paused, False if it was unpaused"
        }
      },
      "SetStore(address,uint8)": {
        "params": {
          "store": "The new Store contract address",
          "version": "The new Store contract version"
        }
      }
    },
    "kind": "dev",
    "methods": {
      "balanceOf(address,uint256)": {
        "details": "See {IERC1155-balanceOf}. Requirements: - `account` cannot be the zero address."
      },
      "balanceOfBatch(address[],uint256[])": {
        "details": "See {IERC1155-balanceOfBatch}. Requirements: - `accounts` and `ids` must have the same length."
      },
      "burn(uint256,uint256)": {
        "params": {
          "amount": "The amount of tokens to burn",
          "id": "Token id"
        }
      },
      "canPurchase(uint256,uint256)": {
        "params": {
          "id": "Token id",
          "value": "Value that will be sent to purchase(), in WEI"
        },
        "returns": {
          "_0": "bool True if purchase is allowed, False if not",
          "_1": "reason The reason when purchase now allowed"
        }
      },
      "exists(uint256)": {
        "details": "Indicates whether any token exist with a given id, or not."
      },
      "getPrice(uint256)": {
        "params": {
          "id": "Token id"
        },
        "returns": {
          "_0": "price Price of the token, in WEI"
        }
      },
      "isApprovedForAll(address,address)": {
        "details": "See {IERC1155-isApprovedForAll}."
      },
      "isPaused()": {
        "returns": {
          "_0": "bool True if paused, False if unpaused"
        }
      },
      "owner()": {
        "details": "Returns the address of the current owner."
      },
      "purchase(uint256,bytes)": {
        "params": {
          "data": "Nevermind, use []",
          "id": "Token id"
        }
      },
      "renounceOwnership()": {
        "details": "Leaves the contract without owner. It will not be possible to call `onlyOwner` functions anymore. Can only be called by the current owner. NOTE: Renouncing ownership will leave the contract without an owner, thereby removing any functionality that is only available to the owner."
      },
      "safeBatchTransferFrom(address,address,uint256[],uint256[],bytes)": {
        "details": "See {IERC1155-safeBatchTransferFrom}."
      },
      "safeTransferFrom(address,address,uint256,uint256,bytes)": {
        "details": "See {IERC1155-safeTransferFrom}."
      },
      "setApprovalForAll(address,bool)": {
        "details": "See {IERC1155-setApprovalForAll}."
      },
      "supportsInterface(bytes4)": {
        "details": "See {IERC165-supportsInterface}."
      },
      "totalSupply(uint256)": {
        "details": "Total amount of tokens in with a given id."
      },
      "transferOwnership(address)": {
        "details": "Transfers ownership of the contract to a new account (`newOwner`). Can only be called by the current owner."
      },
      "uri(uint256)": {
        "params": {
          "id": "Token id"
        },
        "returns": {
          "_0": "metadata Token metadata, as json string base64 encoded"
        }
      }
    },
    "version": 1
  },
  "userdoc": {
    "events": {
      "Burned(address,uint256,uint256)": {
        "notice": "Emitted when a new card is burned"
      },
      "Minted(address,uint256,uint256)": {
        "notice": "Emitted when a new card is minted"
      },
      "Paused(bool)": {
        "notice": "Emitted when contract is paused/unpaused"
      },
      "SetStore(address,uint8)": {
        "notice": "Emitted when the Store contract is updated"
      }
    },
    "kind": "user",
    "methods": {
      "_store()": {
        "notice": "The current ICardsStore contract"
      },
      "burn(uint256,uint256)": {
        "notice": "Burn tokens. Sender must be owner or approved"
      },
      "canPurchase(uint256,uint256)": {
        "notice": "Run all require tests for a successful purchase()"
      },
      "checkout(uint256)": {
        "notice": "admin function"
      },
      "getPrice(uint256)": {
        "notice": "Returns a Token unit price, not considering availability"
      },
      "isPaused()": {
        "notice": "Check if the purchases are paused"
      },
      "mint(address,uint256,uint256,bytes)": {
        "notice": "admin function"
      },
      "mintBatch(address,uint256[],uint256[],bytes)": {
        "notice": "admin function"
      },
      "purchase(uint256,bytes)": {
        "notice": "Purchases 1 Token for the Sender. The message value must be equal or higher than getPrice(id)"
      },
      "setPaused(bool)": {
        "notice": "admin function"
      },
      "setStore(address)": {
        "notice": "admin function"
      },
      "uri(uint256)": {
        "notice": "Returns a token metadata, compliant with ERC1155Metadata_URI"
      }
    },
    "version": 1
  }
}