{
  "contractName": "FounderStore_v2",
  "abi": [
    {
      "inputs": [],
      "stateMutability": "nonpayable",
      "type": "constructor"
    },
    {
      "anonymous": false,
      "inputs": [
        {
          "indexed": true,
          "internalType": "uint256",
          "name": "id",
          "type": "uint256"
        },
        {
          "indexed": true,
          "internalType": "string",
          "name": "name",
          "type": "string"
        }
      ],
      "name": "Created",
      "type": "event"
    },
    {
      "anonymous": false,
      "inputs": [
        {
          "indexed": true,
          "internalType": "address",
          "name": "previousOwner",
          "type": "address"
        },
        {
          "indexed": true,
          "internalType": "address",
          "name": "newOwner",
          "type": "address"
        }
      ],
      "name": "OwnershipTransferred",
      "type": "event"
    },
    {
      "inputs": [],
      "name": "owner",
      "outputs": [
        {
          "internalType": "address",
          "name": "",
          "type": "address"
        }
      ],
      "stateMutability": "view",
      "type": "function",
      "constant": true
    },
    {
      "inputs": [],
      "name": "renounceOwnership",
      "outputs": [],
      "stateMutability": "nonpayable",
      "type": "function"
    },
    {
      "inputs": [
        {
          "internalType": "address",
          "name": "newOwner",
          "type": "address"
        }
      ],
      "name": "transferOwnership",
      "outputs": [],
      "stateMutability": "nonpayable",
      "type": "function"
    },
    {
      "inputs": [],
      "name": "getVersion",
      "outputs": [
        {
          "internalType": "uint8",
          "name": "",
          "type": "uint8"
        }
      ],
      "stateMutability": "pure",
      "type": "function",
      "constant": true
    },
    {
      "inputs": [
        {
          "internalType": "uint256",
          "name": "id",
          "type": "uint256"
        }
      ],
      "name": "exists",
      "outputs": [
        {
          "internalType": "bool",
          "name": "",
          "type": "bool"
        }
      ],
      "stateMutability": "pure",
      "type": "function",
      "constant": true
    },
    {
      "inputs": [
        {
          "internalType": "uint256",
          "name": "id",
          "type": "uint256"
        }
      ],
      "name": "getCard",
      "outputs": [
        {
          "components": [
            {
              "internalType": "uint256",
              "name": "price",
              "type": "uint256"
            },
            {
              "internalType": "uint128",
              "name": "supply",
              "type": "uint128"
            },
            {
              "internalType": "uint8",
              "name": "cardType",
              "type": "uint8"
            },
            {
              "internalType": "string",
              "name": "name",
              "type": "string"
            },
            {
              "internalType": "string",
              "name": "edition",
              "type": "string"
            },
            {
              "internalType": "string",
              "name": "description",
              "type": "string"
            },
            {
              "internalType": "bytes",
              "name": "imageData",
              "type": "bytes"
            }
          ],
          "internalType": "struct FounderStore_v2.Card",
          "name": "",
          "type": "tuple"
        }
      ],
      "stateMutability": "view",
      "type": "function",
      "constant": true
    },
    {
      "inputs": [],
      "name": "getCardCount",
      "outputs": [
        {
          "internalType": "uint256",
          "name": "",
          "type": "uint256"
        }
      ],
      "stateMutability": "pure",
      "type": "function",
      "constant": true
    },
    {
      "inputs": [
        {
          "internalType": "uint256",
          "name": "id",
          "type": "uint256"
        }
      ],
      "name": "getCardSupply",
      "outputs": [
        {
          "internalType": "uint256",
          "name": "",
          "type": "uint256"
        }
      ],
      "stateMutability": "view",
      "type": "function",
      "constant": true
    },
    {
      "inputs": [
        {
          "internalType": "uint256",
          "name": "id",
          "type": "uint256"
        }
      ],
      "name": "getCardPrice",
      "outputs": [
        {
          "internalType": "uint256",
          "name": "",
          "type": "uint256"
        }
      ],
      "stateMutability": "view",
      "type": "function",
      "constant": true
    },
    {
      "inputs": [
        {
          "internalType": "uint256",
          "name": "id",
          "type": "uint256"
        },
        {
          "internalType": "uint256",
          "name": "currentSupply",
          "type": "uint256"
        },
        {
          "internalType": "uint256",
          "name": "balance",
          "type": "uint256"
        },
        {
          "internalType": "uint256",
          "name": "value",
          "type": "uint256"
        }
      ],
      "name": "beforeMint",
      "outputs": [],
      "stateMutability": "view",
      "type": "function",
      "constant": true
    },
    {
      "inputs": [
        {
          "internalType": "uint256",
          "name": "id",
          "type": "uint256"
        }
      ],
      "name": "uri",
      "outputs": [
        {
          "internalType": "string",
          "name": "",
          "type": "string"
        }
      ],
      "stateMutability": "view",
      "type": "function",
      "constant": true
    }
  ],
  "bytecode": "0x60806040523480156200001157600080fd5b5062000032620000266200043e60201b60201c565b6200044660201b60201c565b6200013560016040518060e00160405280670de0b6b3a7640000815260200160106fffffffffffffffffffffffffffffffff168152602001600160ff1681526020016040518060400160405280600881526020017f4368616d70696f6e00000000000000000000000000000000000000000000000081525081526020016040518060400160405280600781526020017f466f756e6465720000000000000000000000000000000000000000000000000081525081526020016040518060600160405280603f815260200162002a6b603f91398152602001604051806103c00160405280610384815260200162002aaa61038491398152506200050a60201b60201c565b6200023960026040518060e001604052806702386f26fc10000081526020016101006fffffffffffffffffffffffffffffffff168152602001600160ff1681526020016040518060400160405280600481526020017f4865726f0000000000000000000000000000000000000000000000000000000081525081526020016040518060400160405280600781526020017f466f756e6465720000000000000000000000000000000000000000000000000081525081526020016040518060600160405280603b8152602001620026b8603b91398152602001604051806103a001604052806103788152602001620026f361037891398152506200050a60201b60201c565b6200033c60036040518060e00160405280662386f26fc1000081526020016104006fffffffffffffffffffffffffffffffff168152602001600160ff1681526020016040518060400160405280600781526020017f437261776c65720000000000000000000000000000000000000000000000000081525081526020016040518060400160405280600381526020017f3173740000000000000000000000000000000000000000000000000000000000815250815260200160405180606001604052806025815260200162002693602591398152602001604051806103800160405280610348815260200162002e2e61034891398152506200050a60201b60201c565b6200043860046040518060e001604052806000815260200160006fffffffffffffffffffffffffffffffff168152602001600160ff1681526020016040518060400160405280600a81526020017f416476656e74757265720000000000000000000000000000000000000000000081525081526020016040518060400160405280600781526020017f4c696d6974656400000000000000000000000000000000000000000000000000815250815260200160405180608001604052806055815260200162003176605591398152602001604051806103c0016040528061039c8152602001620031cb61039c91398152506200050a60201b60201c565b62000bb4565b600033905090565b60008060009054906101000a900473ffffffffffffffffffffffffffffffffffffffff169050816000806101000a81548173ffffffffffffffffffffffffffffffffffffffff021916908373ffffffffffffffffffffffffffffffffffffffff1602179055508173ffffffffffffffffffffffffffffffffffffffff168173ffffffffffffffffffffffffffffffffffffffff167f8be0079c531659141344cd1fd0a4f28419497f9722a3daafe3b4186f6b6457e060405160405180910390a35050565b80600160008481526020019081526020016000206000820151816000015560208201518160010160006101000a8154816fffffffffffffffffffffffffffffffff02191690836fffffffffffffffffffffffffffffffff16021790555060408201518160010160106101000a81548160ff021916908360ff16021790555060608201518160020190816200059f9190620008c3565b506080820151816003019081620005b79190620008c3565b5060a0820151816004019081620005cf9190620008c3565b5060c0820151816005019081620005e7919062000a1a565b509050506001600083815260200190815260200160002060020160405162000610919062000b9b565b6040518091039020827f8304eea71399999aba5c87c24c7fbc7cb6fce2f02b9b5983fda2636b86df8d0a60405160405180910390a35050565b600081519050919050565b7f4e487b7100000000000000000000000000000000000000000000000000000000600052604160045260246000fd5b7f4e487b7100000000000000000000000000000000000000000000000000000000600052602260045260246000fd5b60006002820490506001821680620006cb57607f821691505b602082108103620006e157620006e062000683565b5b50919050565b60008190508160005260206000209050919050565b60006020601f8301049050919050565b600082821b905092915050565b6000600883026200074b7fffffffffffffffffffffffffffffffffffffffffffffffffffffffffffffffff826200070c565b6200075786836200070c565b95508019841693508086168417925050509392505050565b6000819050919050565b6000819050919050565b6000620007a46200079e62000798846200076f565b62000779565b6200076f565b9050919050565b6000819050919050565b620007c08362000783565b620007d8620007cf82620007ab565b84845462000719565b825550505050565b600090565b620007ef620007e0565b620007fc818484620007b5565b505050565b5b81811015620008245762000818600082620007e5565b60018101905062000802565b5050565b601f82111562000873576200083d81620006e7565b6200084884620006fc565b8101602085101562000858578190505b620008706200086785620006fc565b83018262000801565b50505b505050565b600082821c905092915050565b6000620008986000198460080262000878565b1980831691505092915050565b6000620008b3838362000885565b9150826002028217905092915050565b620008ce8262000649565b67ffffffffffffffff811115620008ea57620008e962000654565b5b620008f68254620006b2565b6200090382828562000828565b600060209050601f8311600181146200093b576000841562000926578287015190505b620009328582620008a5565b865550620009a2565b601f1984166200094b86620006e7565b60005b8281101562000975578489015182556001820191506020850194506020810190506200094e565b8683101562000995578489015162000991601f89168262000885565b8355505b6001600288020188555050505b505050505050565b600081519050919050565b60008190508160005260206000209050919050565b601f82111562000a1557620009df81620009b5565b620009ea84620006fc565b81016020851015620009fa578190505b62000a1262000a0985620006fc565b83018262000801565b50505b505050565b62000a2582620009aa565b67ffffffffffffffff81111562000a415762000a4062000654565b5b62000a4d8254620006b2565b62000a5a828285620009ca565b600060209050601f83116001811462000a92576000841562000a7d578287015190505b62000a898582620008a5565b86555062000af9565b601f19841662000aa286620009b5565b60005b8281101562000acc5784890151825560018201915060208501945060208101905062000aa5565b8683101562000aec578489015162000ae8601f89168262000885565b8355505b6001600288020188555050505b505050505050565b600081905092915050565b6000815462000b1b81620006b2565b62000b27818662000b01565b9450600182166000811462000b45576001811462000b5b5762000b92565b60ff198316865281151582028601935062000b92565b62000b6685620006e7565b60005b8381101562000b8a5781548189015260018201915060208101905062000b69565b838801955050505b50505092915050565b600062000ba9828462000b0c565b915081905092915050565b611acf8062000bc46000396000f3fe608060405234801561001057600080fd5b50600436106100a95760003560e01c80637d620130116100715780637d620130146101665780638da5cb5b146101845780639188d312146101a257806396b1e502146101d2578063b1b9586814610202578063f2fde38b1461021e576100a9565b80630d8e6e2c146100ae5780630e89341c146100cc5780634f558e79146100fc5780636866537d1461012c578063715018a61461015c575b600080fd5b6100b661023a565b6040516100c39190610d30565b60405180910390f35b6100e660048036038101906100e19190610d86565b610243565b6040516100f39190610e43565b60405180910390f35b61011660048036038101906101119190610d86565b6103a1565b6040516101239190610e80565b60405180910390f35b61014660048036038101906101419190610d86565b6103bc565b6040516101539190610eaa565b60405180910390f35b610164610424565b005b61016e610438565b60405161017b9190610eaa565b60405180910390f35b61018c610441565b6040516101999190610f06565b60405180910390f35b6101bc60048036038101906101b79190610d86565b61046a565b6040516101c991906110ba565b60405180910390f35b6101ec60048036038101906101e79190610d86565b610798565b6040516101f99190610eaa565b60405180910390f35b61021c600480360381019061021791906110dc565b61082e565b005b6102386004803603810190610233919061116f565b610992565b005b60006002905090565b606061024e826103a1565b61028d576040517f08c379a0000000000000000000000000000000000000000000000000000000008152600401610284906111e8565b60405180910390fd5b600060016000848152602001908152602001600020905060008160020182600401836002018460030161034b8660050180546102c890611237565b80601f01602080910402602001604051908101604052809291908181526020018280546102f490611237565b80156103415780601f1061031657610100808354040283529160200191610341565b820191906000526020600020905b81548152906001019060200180831161032457829003601f168201915b5050505050610a15565b60405160200161035f9594939291906115e8565b604051602081830303815290604052905061037981610a15565b60405160200161038991906116c1565b60405160208183030381529060405292505050919050565b6000600182101580156103b5575060048211155b9050919050565b60006103c7826103a1565b610406576040517f08c379a00000000000000000000000000000000000000000000000000000000081526004016103fd906111e8565b60405180910390fd5b60016000838152602001908152602001600020600001549050919050565b61042c610b78565b6104366000610bf6565b565b60006004905090565b60008060009054906101000a900473ffffffffffffffffffffffffffffffffffffffff16905090565b610472610cc2565b61047b826103a1565b6104ba576040517f08c379a00000000000000000000000000000000000000000000000000000000081526004016104b1906111e8565b60405180910390fd5b600160008381526020019081526020016000206040518060e0016040529081600082015481526020016001820160009054906101000a90046fffffffffffffffffffffffffffffffff166fffffffffffffffffffffffffffffffff166fffffffffffffffffffffffffffffffff1681526020016001820160109054906101000a900460ff1660ff1660ff16815260200160028201805461055990611237565b80601f016020809104026020016040519081016040528092919081815260200182805461058590611237565b80156105d25780601f106105a7576101008083540402835291602001916105d2565b820191906000526020600020905b8154815290600101906020018083116105b557829003601f168201915b505050505081526020016003820180546105eb90611237565b80601f016020809104026020016040519081016040528092919081815260200182805461061790611237565b80156106645780601f1061063957610100808354040283529160200191610664565b820191906000526020600020905b81548152906001019060200180831161064757829003601f168201915b5050505050815260200160048201805461067d90611237565b80601f01602080910402602001604051908101604052809291908181526020018280546106a990611237565b80156106f65780601f106106cb576101008083540402835291602001916106f6565b820191906000526020600020905b8154815290600101906020018083116106d957829003601f168201915b5050505050815260200160058201805461070f90611237565b80601f016020809104026020016040519081016040528092919081815260200182805461073b90611237565b80156107885780601f1061075d57610100808354040283529160200191610788565b820191906000526020600020905b81548152906001019060200180831161076b57829003601f168201915b5050505050815250509050919050565b60006107a3826103a1565b6107e2576040517f08c379a00000000000000000000000000000000000000000000000000000000081526004016107d9906111e8565b60405180910390fd5b6001600083815260200190815260200160002060010160009054906101000a90046fffffffffffffffffffffffffffffffff166fffffffffffffffffffffffffffffffff169050919050565b610837846103a1565b610876576040517f08c379a000000000000000000000000000000000000000000000000000000000815260040161086d906111e8565b60405180910390fd5b60006001600086815260200190815260200160002090508060010160009054906101000a90046fffffffffffffffffffffffffffffffff166fffffffffffffffffffffffffffffffff168410610901576040517f08c379a00000000000000000000000000000000000000000000000000000000081526004016108f89061172f565b60405180910390fd5b60008314610944576040517f08c379a000000000000000000000000000000000000000000000000000000000815260040161093b9061179b565b60405180910390fd5b806000015482101561098b576040517f08c379a000000000000000000000000000000000000000000000000000000000815260040161098290611807565b60405180910390fd5b5050505050565b61099a610b78565b600073ffffffffffffffffffffffffffffffffffffffff168173ffffffffffffffffffffffffffffffffffffffff1603610a09576040517f08c379a0000000000000000000000000000000000000000000000000000000008152600401610a0090611899565b60405180910390fd5b610a1281610bf6565b50565b60606000825103610a3757604051806020016040528060008152509050610b73565b6000604051806060016040528060408152602001611a5a6040913990506000600360028551610a6691906118e8565b610a70919061194b565b6004610a7c919061197c565b67ffffffffffffffff811115610a9557610a946119be565b5b6040519080825280601f01601f191660200182016040528015610ac75781602001600182028036833780820191505090505b509050600182016020820185865187015b80821015610b33576003820191508151603f8160121c168501518453600184019350603f81600c1c168501518453600184019350603f8160061c168501518453600184019350603f8116850151845360018401935050610ad8565b5050600386510660018114610b4f5760028114610b6257610b6a565b603d6001830353603d6002830353610b6a565b603d60018303535b50505080925050505b919050565b610b80610cba565b73ffffffffffffffffffffffffffffffffffffffff16610b9e610441565b73ffffffffffffffffffffffffffffffffffffffff1614610bf4576040517f08c379a0000000000000000000000000000000000000000000000000000000008152600401610beb90611a39565b60405180910390fd5b565b60008060009054906101000a900473ffffffffffffffffffffffffffffffffffffffff169050816000806101000a81548173ffffffffffffffffffffffffffffffffffffffff021916908373ffffffffffffffffffffffffffffffffffffffff1602179055508173ffffffffffffffffffffffffffffffffffffffff168173ffffffffffffffffffffffffffffffffffffffff167f8be0079c531659141344cd1fd0a4f28419497f9722a3daafe3b4186f6b6457e060405160405180910390a35050565b600033905090565b6040518060e001604052806000815260200160006fffffffffffffffffffffffffffffffff168152602001600060ff168152602001606081526020016060815260200160608152602001606081525090565b600060ff82169050919050565b610d2a81610d14565b82525050565b6000602082019050610d456000830184610d21565b92915050565b600080fd5b6000819050919050565b610d6381610d50565b8114610d6e57600080fd5b50565b600081359050610d8081610d5a565b92915050565b600060208284031215610d9c57610d9b610d4b565b5b6000610daa84828501610d71565b91505092915050565b600081519050919050565b600082825260208201905092915050565b60005b83811015610ded578082015181840152602081019050610dd2565b60008484015250505050565b6000601f19601f8301169050919050565b6000610e1582610db3565b610e1f8185610dbe565b9350610e2f818560208601610dcf565b610e3881610df9565b840191505092915050565b60006020820190508181036000830152610e5d8184610e0a565b905092915050565b60008115159050919050565b610e7a81610e65565b82525050565b6000602082019050610e956000830184610e71565b92915050565b610ea481610d50565b82525050565b6000602082019050610ebf6000830184610e9b565b92915050565b600073ffffffffffffffffffffffffffffffffffffffff82169050919050565b6000610ef082610ec5565b9050919050565b610f0081610ee5565b82525050565b6000602082019050610f1b6000830184610ef7565b92915050565b610f2a81610d50565b82525050565b60006fffffffffffffffffffffffffffffffff82169050919050565b610f5581610f30565b82525050565b610f6481610d14565b82525050565b600082825260208201905092915050565b6000610f8682610db3565b610f908185610f6a565b9350610fa0818560208601610dcf565b610fa981610df9565b840191505092915050565b600081519050919050565b600082825260208201905092915050565b6000610fdb82610fb4565b610fe58185610fbf565b9350610ff5818560208601610dcf565b610ffe81610df9565b840191505092915050565b600060e0830160008301516110216000860182610f21565b5060208301516110346020860182610f4c565b5060408301516110476040860182610f5b565b506060830151848203606086015261105f8282610f7b565b915050608083015184820360808601526110798282610f7b565b91505060a083015184820360a08601526110938282610f7b565b91505060c083015184820360c08601526110ad8282610fd0565b9150508091505092915050565b600060208201905081810360008301526110d48184611009565b905092915050565b600080600080608085870312156110f6576110f5610d4b565b5b600061110487828801610d71565b945050602061111587828801610d71565b935050604061112687828801610d71565b925050606061113787828801610d71565b91505092959194509250565b61114c81610ee5565b811461115757600080fd5b50565b60008135905061116981611143565b92915050565b60006020828403121561118557611184610d4b565b5b60006111938482850161115a565b91505092915050565b7f4361726420646f6573206e6f7420657869737400000000000000000000000000600082015250565b60006111d2601383610dbe565b91506111dd8261119c565b602082019050919050565b60006020820190508181036000830152611201816111c5565b9050919050565b7f4e487b7100000000000000000000000000000000000000000000000000000000600052602260045260246000fd5b6000600282049050600182168061124f57607f821691505b60208210810361126257611261611208565b5b50919050565b600081905092915050565b7f7b226e616d65223a220000000000000000000000000000000000000000000000600082015250565b60006112a9600983611268565b91506112b482611273565b600982019050919050565b60008190508160005260206000209050919050565b600081546112e181611237565b6112eb8186611268565b94506001821660008114611306576001811461131b5761134e565b60ff198316865281151582028601935061134e565b611324856112bf565b60005b8381101561134657815481890152600182019150602081019050611327565b838801955050505b50505092915050565b7f222c226465736372697074696f6e223a22000000000000000000000000000000600082015250565b600061138d601183611268565b915061139882611357565b601182019050919050565b7f222c2265787465726e616c5f75726c223a2268747470733a2f2f656e646c657360008201527f73637261776c65722e696f222c226261636b67726f756e645f636f6c6f72223a60208201527f22394636373532222c2261747472696275746573223a5b7b2274726169745f7460408201527f797065223a2254797065222c2276616c7565223a22436c617373227d2c7b227460608201527f726169745f74797065223a22436c617373222c2276616c7565223a2200000000608082015250565b6000611471609c83611268565b915061147c826113a3565b609c82019050919050565b7f227d2c7b2274726169745f74797065223a2245646974696f6e222c2276616c7560008201527f65223a2200000000000000000000000000000000000000000000000000000000602082015250565b60006114e3602483611268565b91506114ee82611487565b602482019050919050565b7f227d5d2c22696d616765223a22646174613a696d6167652f7376672b786d6c3b60008201527f6261736536342c00000000000000000000000000000000000000000000000000602082015250565b6000611555602783611268565b9150611560826114f9565b602782019050919050565b600061157682610db3565b6115808185611268565b9350611590818560208601610dcf565b80840191505092915050565b7f227d000000000000000000000000000000000000000000000000000000000000600082015250565b60006115d2600283611268565b91506115dd8261159c565b600282019050919050565b60006115f38261129c565b91506115ff82886112d4565b915061160a82611380565b915061161682876112d4565b915061162182611464565b915061162d82866112d4565b9150611638826114d6565b915061164482856112d4565b915061164f82611548565b915061165b828461156b565b9150611666826115c5565b91508190509695505050505050565b7f646174613a6170706c69636174696f6e2f6a736f6e3b6261736536342c000000600082015250565b60006116ab601d83611268565b91506116b682611675565b601d82019050919050565b60006116cc8261169e565b91506116d8828461156b565b915081905092915050565b7f536f6c64206f7574000000000000000000000000000000000000000000000000600082015250565b6000611719600883610dbe565b9150611724826116e3565b602082019050919050565b600060208201905081810360008301526117488161170c565b9050919050565b7f4f6e65207065722077616c6c6574000000000000000000000000000000000000600082015250565b6000611785600e83610dbe565b91506117908261174f565b602082019050919050565b600060208201905081810360008301526117b481611778565b9050919050565b7f4261642076616c75650000000000000000000000000000000000000000000000600082015250565b60006117f1600983610dbe565b91506117fc826117bb565b602082019050919050565b60006020820190508181036000830152611820816117e4565b9050919050565b7f4f776e61626c653a206e6577206f776e657220697320746865207a65726f206160008201527f6464726573730000000000000000000000000000000000000000000000000000602082015250565b6000611883602683610dbe565b915061188e82611827565b604082019050919050565b600060208201905081810360008301526118b281611876565b9050919050565b7f4e487b7100000000000000000000000000000000000000000000000000000000600052601160045260246000fd5b60006118f382610d50565b91506118fe83610d50565b9250828201905080821115611916576119156118b9565b5b92915050565b7f4e487b7100000000000000000000000000000000000000000000000000000000600052601260045260246000fd5b600061195682610d50565b915061196183610d50565b9250826119715761197061191c565b5b828204905092915050565b600061198782610d50565b915061199283610d50565b92508282026119a081610d50565b915082820484148315176119b7576119b66118b9565b5b5092915050565b7f4e487b7100000000000000000000000000000000000000000000000000000000600052604160045260246000fd5b7f4f776e61626c653a2063616c6c6572206973206e6f7420746865206f776e6572600082015250565b6000611a23602083610dbe565b9150611a2e826119ed565b602082019050919050565b60006020820190508181036000830152611a5281611a16565b905091905056fe4142434445464748494a4b4c4d4e4f505152535455565758595a6162636465666768696a6b6c6d6e6f707172737475767778797a303132333435363738392b2fa264697066735822122003853f44d0a11fe0b7556e757237e40a129aefe6c7e67c610ef8c4d74c6ee07164736f6c63430008110033546865206b6565706572206f6620746869732063617264206973206120437261776c65722e546865206b6565706572206f66207468697320636172642069732061204865726f2e204772616e747320616c6c206e6174697665206361726473213c73766720786d6c6e733d22687474703a2f2f7777772e77332e6f72672f323030302f737667222073686170652d72656e646572696e673d2263726973704564676573222076696577426f783d2230202d302e35203136203136223e3c70617468207374726f6b653d22233161316131612220643d224d3220306831324d31203168326d3130203068324d31203268316d3120306831306d31203068314d31203368316d31203068316d31203068326d31203068356d31203068314d31203468316d31203068316d31203068326d31203068356d31203068314d31203568316d31203068316d31203068326d31203068356d31203068314d31203668316d31203068316d34203068326d32203068316d31203068314d31203768316d31203068316d31203068326d31203068316d31203068336d31203068314d31203868316d31203068316d31203068326d31203068316d31203068336d31203068314d31203968316d31203068316d31203068326d31203068316d31203068316d31203068316d31203068314d3120313068316d3120306831306d31203068314d3120313168326d31203068336d31203068316d31203068326d31203068324d3220313268326d31203068366d31203068324d3320313368326d31203068346d31203068326d2d39203168326d34203068326d2d3720316836222f3e3c70617468207374726f6b653d22236666626661362220643d224d3320316831304d32203268316d3130203068314d32203368316d3130203068314d32203468316d3130203068314d32203568316d3130203068314d32203668316d3130203068314d32203768316d3130203068314d32203868316d3130203068314d32203968316d3130203068314d3220313068316d3130203068314d3320313168316d38203068316d2d39203168316d36203068316d2d37203168316d34203068316d2d3520316834222f3e3c70617468207374726f6b653d22236632653963332220643d224d34203368316d32203068314d34203468316d32203068314d34203568316d32203068314d34203668346d32203068324d34203768316d32203068316d31203068314d34203868316d32203068316d31203068314d34203968316d32203068316d31203068316d3120306831222f3e3c70617468207374726f6b653d22233738346634302220643d224d3720313168316d3120306831222f3e3c2f7376673e546865206b6565706572206f66207468697320636172642069732061204368616d70696f6e2e204772616e747320616c6c206e6174697665206361726473213c73766720786d6c6e733d22687474703a2f2f7777772e77332e6f72672f323030302f737667222073686170652d72656e646572696e673d2263726973704564676573222076696577426f783d2230202d302e35203136203136223e3c70617468207374726f6b653d22233161316131612220643d224d3220306831324d31203168326d3130203068324d31203268316d3120306831306d31203068314d31203368316d31203068326d32203068326d31203068336d31203068314d31203468316d31203068316d31203068326d31203068316d31203068336d31203068314d31203568316d31203068316d31203068346d31203068336d31203068314d31203668316d31203068316d31203068346d32203068326d31203068314d31203768316d31203068316d31203068346d31203068316d31203068316d31203068314d31203868316d31203068316d31203068326d31203068316d31203068316d31203068316d31203068314d31203968316d31203068326d32203068326d31203068316d31203068316d31203068314d3120313068316d3120306831306d31203068314d3120313168326d31203068336d31203068316d31203068326d31203068324d3220313268326d31203068366d31203068324d3320313368326d31203068346d31203068326d2d39203168326d34203068326d2d3720316836222f3e3c70617468207374726f6b653d22236666626661362220643d224d3320316831304d32203268316d3130203068314d32203368316d3130203068314d32203468316d3130203068314d32203568316d3130203068314d32203668316d3130203068314d32203768316d3130203068314d32203868316d3130203068314d32203968316d3130203068314d3220313068316d3130203068314d3320313168316d38203068316d2d39203168316d36203068316d2d37203168316d34203068316d2d3520316834222f3e3c70617468207374726f6b653d22236632653963332220643d224d35203368326d32203068314d34203468316d32203068316d31203068314d34203568316d34203068314d34203668316d34203068324d34203768316d34203068316d31203068314d34203868316d32203068316d31203068316d31203068314d35203968326d32203068316d3120306831222f3e3c70617468207374726f6b653d22233738346634302220643d224d3720313168316d3120306831222f3e3c2f7376673e3c73766720786d6c6e733d22687474703a2f2f7777772e77332e6f72672f323030302f737667222073686170652d72656e646572696e673d2263726973704564676573222076696577426f783d2230202d302e35203136203136223e3c70617468207374726f6b653d22233161316131612220643d224d3220306831324d31203168326d3130203068324d31203268316d3120306831306d31203068314d31203368316d31203068326d32203068366d31203068314d31203468316d31203068316d31203068326d31203068356d31203068314d31203568316d31203068316d31203068386d31203068314d31203668316d31203068316d31203068356d32203068316d31203068314d31203768316d31203068316d31203068346d31203068336d31203068314d31203868316d31203068316d31203068326d31203068316d31203068336d31203068314d31203968316d31203068326d32203068326d31203068316d31203068316d31203068314d3120313068316d3120306831306d31203068314d3120313168326d31203068336d31203068316d31203068326d31203068324d3220313268326d31203068366d31203068324d3320313368326d31203068346d31203068326d2d39203168326d34203068326d2d3720316836222f3e3c70617468207374726f6b653d22236666626661362220643d224d3320316831304d32203268316d3130203068314d32203368316d3130203068314d32203468316d3130203068314d32203568316d3130203068314d32203668316d3130203068314d32203768316d3130203068314d32203868316d3130203068314d32203968316d3130203068314d3220313068316d3130203068314d3320313168316d38203068316d2d39203168316d36203068316d2d37203168316d34203068316d2d3520316834222f3e3c70617468207374726f6b653d22236632653963332220643d224d35203368324d34203468316d32203068314d34203568314d34203668316d35203068324d34203768316d34203068314d34203868316d32203068316d31203068314d35203968326d32203068316d3120306831222f3e3c70617468207374726f6b653d22233738346634302220643d224d3720313168316d3120306831222f3e3c2f7376673e546865206b6565706572206f662074686973206361726420697320616e20416476656e74757265722e20436c61696d61626c6520736f6f6e2077697468204c6f6f742028666f7220416476656e747572657273292e3c73766720786d6c6e733d22687474703a2f2f7777772e77332e6f72672f323030302f737667222073686170652d72656e646572696e673d2263726973704564676573222076696577426f783d2230202d302e35203136203136223e3c70617468207374726f6b653d22233161316131612220643d224d3220306831324d31203168326d3130203068324d31203268316d3120306831306d31203068314d31203368316d31203068326d32203068346d31203068316d31203068314d31203468316d31203068316d31203068326d31203068336d31203068316d31203068314d31203568316d31203068316d31203068326d31203068336d31203068316d31203068314d31203668316d31203068316d34203068326d32203068316d31203068314d31203768316d31203068316d31203068326d31203068316d31203068316d31203068316d31203068314d31203868316d31203068316d31203068326d31203068316d31203068316d31203068316d31203068314d31203968316d31203068316d31203068326d31203068326d31203068326d31203068314d3120313068316d3120306831306d31203068314d3120313168326d31203068336d31203068316d31203068326d31203068324d3220313268326d31203068366d31203068324d3320313368326d31203068346d31203068326d2d39203168326d34203068326d2d3720316836222f3e3c70617468207374726f6b653d22236666626661362220643d224d3320316831304d32203268316d3130203068314d32203368316d3130203068314d32203468316d3130203068314d32203568316d3130203068314d32203668316d3130203068314d32203768316d3130203068314d32203868316d3130203068314d32203968316d3130203068314d3220313068316d3130203068314d3320313168316d38203068316d2d39203168316d36203068316d2d37203168316d34203068316d2d3520316834222f3e3c70617468207374726f6b653d22236632653963332220643d224d35203368326d34203068314d34203468316d32203068316d33203068314d34203568316d32203068316d33203068314d34203668346d32203068324d34203768316d32203068316d31203068316d31203068314d34203868316d32203068316d31203068316d31203068314d34203968316d32203068316d3220306831222f3e3c70617468207374726f6b653d22233738346634302220643d224d3720313168316d3120306831222f3e3c2f7376673e",
  "immutableReferences": {},
  "source": "// SPDX-License-Identifier: MIT\n//\n//    \n//             \n//              \n//              \n//              \n//          \n//        \n//      \n//\n// https://endlesscrawler.io\n// @EndlessCrawler\n//\n/// @title Endless Crawler Founder Cards Store (v.2)\n/// @author Studio Avante\n/// @notice Contains token info for Founder Cards (ids 1, 2, 3, 4)\n/// @dev Serves CardsMinter.sol, will be upgraded to a generic store eventually\npragma solidity ^0.8.16;\nimport { Ownable } from '@openzeppelin/contracts/access/Ownable.sol';\nimport { Base64 } from '@openzeppelin/contracts/utils/Base64.sol';\nimport { ICardsStore } from './ICardsStore.sol';\n\ncontract FounderStore_v2 is ICardsStore, Ownable {\n\n\tuint8 constant TYPE_CLASS = 1;\n\n\tstruct Card {\n\t\tuint256 price;\n\t\tuint128 supply;\n\t\tuint8 cardType;\n\t\tstring name;\n\t\tstring edition;\n\t\tstring description;\n\t\tbytes imageData;\n\t}\n\t\n\tmapping(uint256 => Card) private _cards;\n\n\t/// @notice Emitted when a new card is created\n\t/// @param id Token id\n\t/// @param name The name of the card\n\tevent Created(uint256 indexed id, string indexed name);\n\n\tconstructor() {\n\t\t_createCard(1, Card(\n\t\t\t1_000_000_000_000_000_000, // 1 eth\n\t\t\t16,\n\t\t\tTYPE_CLASS,\n\t\t\t'Champion',\n\t\t\t'Founder',\n\t\t\t'The keeper of this card is a Champion. Grants all native cards!',\n\t\t\t'<svg xmlns=\"http://www.w3.org/2000/svg\" shape-rendering=\"crispEdges\" viewBox=\"0 -0.5 16 16\"><path stroke=\"#1a1a1a\" d=\"M2 0h12M1 1h2m10 0h2M1 2h1m1 0h10m1 0h1M1 3h1m1 0h2m2 0h2m1 0h3m1 0h1M1 4h1m1 0h1m1 0h2m1 0h1m1 0h3m1 0h1M1 5h1m1 0h1m1 0h4m1 0h3m1 0h1M1 6h1m1 0h1m1 0h4m2 0h2m1 0h1M1 7h1m1 0h1m1 0h4m1 0h1m1 0h1m1 0h1M1 8h1m1 0h1m1 0h2m1 0h1m1 0h1m1 0h1m1 0h1M1 9h1m1 0h2m2 0h2m1 0h1m1 0h1m1 0h1M1 10h1m1 0h10m1 0h1M1 11h2m1 0h3m1 0h1m1 0h2m1 0h2M2 12h2m1 0h6m1 0h2M3 13h2m1 0h4m1 0h2m-9 1h2m4 0h2m-7 1h6\"/><path stroke=\"#ffbfa6\" d=\"M3 1h10M2 2h1m10 0h1M2 3h1m10 0h1M2 4h1m10 0h1M2 5h1m10 0h1M2 6h1m10 0h1M2 7h1m10 0h1M2 8h1m10 0h1M2 9h1m10 0h1M2 10h1m10 0h1M3 11h1m8 0h1m-9 1h1m6 0h1m-7 1h1m4 0h1m-5 1h4\"/><path stroke=\"#f2e9c3\" d=\"M5 3h2m2 0h1M4 4h1m2 0h1m1 0h1M4 5h1m4 0h1M4 6h1m4 0h2M4 7h1m4 0h1m1 0h1M4 8h1m2 0h1m1 0h1m1 0h1M5 9h2m2 0h1m1 0h1\"/><path stroke=\"#784f40\" d=\"M7 11h1m1 0h1\"/></svg>'\n\t\t));\n\t\t_createCard(2, Card(\n\t\t\t160_000_000_000_000_000, // 0.16 eth\n\t\t\t256,\n\t\t\tTYPE_CLASS,\n\t\t\t'Hero',\n\t\t\t'Founder',\n\t\t\t'The keeper of this card is a Hero. Grants all native cards!',\n\t\t\t'<svg xmlns=\"http://www.w3.org/2000/svg\" shape-rendering=\"crispEdges\" viewBox=\"0 -0.5 16 16\"><path stroke=\"#1a1a1a\" d=\"M2 0h12M1 1h2m10 0h2M1 2h1m1 0h10m1 0h1M1 3h1m1 0h1m1 0h2m1 0h5m1 0h1M1 4h1m1 0h1m1 0h2m1 0h5m1 0h1M1 5h1m1 0h1m1 0h2m1 0h5m1 0h1M1 6h1m1 0h1m4 0h2m2 0h1m1 0h1M1 7h1m1 0h1m1 0h2m1 0h1m1 0h3m1 0h1M1 8h1m1 0h1m1 0h2m1 0h1m1 0h3m1 0h1M1 9h1m1 0h1m1 0h2m1 0h1m1 0h1m1 0h1m1 0h1M1 10h1m1 0h10m1 0h1M1 11h2m1 0h3m1 0h1m1 0h2m1 0h2M2 12h2m1 0h6m1 0h2M3 13h2m1 0h4m1 0h2m-9 1h2m4 0h2m-7 1h6\"/><path stroke=\"#ffbfa6\" d=\"M3 1h10M2 2h1m10 0h1M2 3h1m10 0h1M2 4h1m10 0h1M2 5h1m10 0h1M2 6h1m10 0h1M2 7h1m10 0h1M2 8h1m10 0h1M2 9h1m10 0h1M2 10h1m10 0h1M3 11h1m8 0h1m-9 1h1m6 0h1m-7 1h1m4 0h1m-5 1h4\"/><path stroke=\"#f2e9c3\" d=\"M4 3h1m2 0h1M4 4h1m2 0h1M4 5h1m2 0h1M4 6h4m2 0h2M4 7h1m2 0h1m1 0h1M4 8h1m2 0h1m1 0h1M4 9h1m2 0h1m1 0h1m1 0h1\"/><path stroke=\"#784f40\" d=\"M7 11h1m1 0h1\"/></svg>'\n\t\t));\n\t\t_createCard(3, Card(\n\t\t\t10_000_000_000_000_000, // 0.01 eth\n\t\t\t1024,\n\t\t\tTYPE_CLASS,\n\t\t\t'Crawler',\n\t\t\t'1st',\n\t\t\t'The keeper of this card is a Crawler.',\n\t\t\t'<svg xmlns=\"http://www.w3.org/2000/svg\" shape-rendering=\"crispEdges\" viewBox=\"0 -0.5 16 16\"><path stroke=\"#1a1a1a\" d=\"M2 0h12M1 1h2m10 0h2M1 2h1m1 0h10m1 0h1M1 3h1m1 0h2m2 0h6m1 0h1M1 4h1m1 0h1m1 0h2m1 0h5m1 0h1M1 5h1m1 0h1m1 0h8m1 0h1M1 6h1m1 0h1m1 0h5m2 0h1m1 0h1M1 7h1m1 0h1m1 0h4m1 0h3m1 0h1M1 8h1m1 0h1m1 0h2m1 0h1m1 0h3m1 0h1M1 9h1m1 0h2m2 0h2m1 0h1m1 0h1m1 0h1M1 10h1m1 0h10m1 0h1M1 11h2m1 0h3m1 0h1m1 0h2m1 0h2M2 12h2m1 0h6m1 0h2M3 13h2m1 0h4m1 0h2m-9 1h2m4 0h2m-7 1h6\"/><path stroke=\"#ffbfa6\" d=\"M3 1h10M2 2h1m10 0h1M2 3h1m10 0h1M2 4h1m10 0h1M2 5h1m10 0h1M2 6h1m10 0h1M2 7h1m10 0h1M2 8h1m10 0h1M2 9h1m10 0h1M2 10h1m10 0h1M3 11h1m8 0h1m-9 1h1m6 0h1m-7 1h1m4 0h1m-5 1h4\"/><path stroke=\"#f2e9c3\" d=\"M5 3h2M4 4h1m2 0h1M4 5h1M4 6h1m5 0h2M4 7h1m4 0h1M4 8h1m2 0h1m1 0h1M5 9h2m2 0h1m1 0h1\"/><path stroke=\"#784f40\" d=\"M7 11h1m1 0h1\"/></svg>'\n\t\t));\n\t\t_createCard(4, Card(\n\t\t\t0, // Free\n\t\t\t0, // Not released yet\n\t\t\tTYPE_CLASS,\n\t\t\t'Adventurer',\n\t\t\t'Limited',\n\t\t\t'The keeper of this card is an Adventurer. Claimable soon with Loot (for Adventurers).',\n\t\t\t'<svg xmlns=\"http://www.w3.org/2000/svg\" shape-rendering=\"crispEdges\" viewBox=\"0 -0.5 16 16\"><path stroke=\"#1a1a1a\" d=\"M2 0h12M1 1h2m10 0h2M1 2h1m1 0h10m1 0h1M1 3h1m1 0h2m2 0h4m1 0h1m1 0h1M1 4h1m1 0h1m1 0h2m1 0h3m1 0h1m1 0h1M1 5h1m1 0h1m1 0h2m1 0h3m1 0h1m1 0h1M1 6h1m1 0h1m4 0h2m2 0h1m1 0h1M1 7h1m1 0h1m1 0h2m1 0h1m1 0h1m1 0h1m1 0h1M1 8h1m1 0h1m1 0h2m1 0h1m1 0h1m1 0h1m1 0h1M1 9h1m1 0h1m1 0h2m1 0h2m1 0h2m1 0h1M1 10h1m1 0h10m1 0h1M1 11h2m1 0h3m1 0h1m1 0h2m1 0h2M2 12h2m1 0h6m1 0h2M3 13h2m1 0h4m1 0h2m-9 1h2m4 0h2m-7 1h6\"/><path stroke=\"#ffbfa6\" d=\"M3 1h10M2 2h1m10 0h1M2 3h1m10 0h1M2 4h1m10 0h1M2 5h1m10 0h1M2 6h1m10 0h1M2 7h1m10 0h1M2 8h1m10 0h1M2 9h1m10 0h1M2 10h1m10 0h1M3 11h1m8 0h1m-9 1h1m6 0h1m-7 1h1m4 0h1m-5 1h4\"/><path stroke=\"#f2e9c3\" d=\"M5 3h2m4 0h1M4 4h1m2 0h1m3 0h1M4 5h1m2 0h1m3 0h1M4 6h4m2 0h2M4 7h1m2 0h1m1 0h1m1 0h1M4 8h1m2 0h1m1 0h1m1 0h1M4 9h1m2 0h1m2 0h1\"/><path stroke=\"#784f40\" d=\"M7 11h1m1 0h1\"/></svg>'\n\t\t));\n\t}\n\n\tfunction _createCard(uint256 id, Card memory card) internal {\n\t\t_cards[id] = card;\n\t\temit Created(id, _cards[id].name);\n\t}\n\n\t//---------------\n\t// Public\n\t//\n\n\t/// @notice Returns the Store version\n\t/// @return version This contract version (1)\n\tfunction getVersion() public pure override returns (uint8) {\n\t\treturn 2;\n\t}\n\n\t/// @notice Check if a Token exists\n\t/// @param id Token id\n\t/// @return bool True if it exists, False if not\n\tfunction exists(uint256 id) public pure override returns (bool) {\n\t\treturn (id >= 1 && id <= 4);\n\t}\n\n\t/// @notice Returns a Token stored info\n\t/// @param id Token id\n\t/// @return card FounderStore_v2.Card structure\n\tfunction getCard(uint256 id) public view returns (Card memory) {\n\t\trequire(exists(id), 'Card does not exist');\n\t\treturn _cards[id];\n\t}\n\n\t/// @notice Returns the number of Cards maintained by this contract\n\t/// @return number 2\n\tfunction getCardCount() public pure override returns (uint256) {\n\t\treturn 4;\n\t}\n\n\t/// @notice Returns the total amount of Cards available for purchase\n\t/// @param id Token id\n\t/// @return number\n\tfunction getCardSupply(uint256 id) public view override returns (uint256) {\n\t\trequire(exists(id), 'Card does not exist');\n\t\treturn _cards[id].supply;\n\t}\n\n\t/// @notice Returns the price of a Card\n\t/// @param id Token id\n\t/// @return price The Card price, in WEI\n\tfunction getCardPrice(uint256 id) public view override returns (uint256) {\n\t\trequire(exists(id), 'Card does not exist');\n\t\treturn _cards[id].price;\n\t}\n\n\t/// @notice Run all the required tests to purchase a Card, reverting the transaction if not allowed to purchase\n\t/// @param id Token id\n\t/// @param currentSupply The total amount of minted Tokens, from all accounts\n\t/// @param balance The amount of tokens the purchaser owns\n\t/// @param value Transaction value sent, in WEI\n\tfunction beforeMint(uint256 id, uint256 currentSupply, uint256 balance, uint256 value) public view override {\n\t\trequire(exists(id), 'Card does not exist');\n\t\tCard storage card = _cards[id];\n\t\trequire(currentSupply < card.supply, 'Sold out');\n\t\trequire(balance == 0, 'One per wallet');\n\t\trequire(value >= card.price, 'Bad value');\n\t}\n\n\t/// @notice Returns a token metadata, compliant with ERC1155Metadata_URI\n\t/// @param id Token id\n\t/// @return metadata Token metadata, as json string base64 encoded\n\tfunction uri(uint256 id) public view override returns (string memory) {\n\t\trequire(exists(id), 'Card does not exist');\n\t\tCard storage card = _cards[id];\n\t\tbytes memory json = abi.encodePacked(\n\t\t\t'{'\n\t\t\t\t'\"name\":\"', card.name, '\",'\n\t\t\t\t'\"description\":\"', card.description, '\",'\n\t\t\t\t'\"external_url\":\"https://endlesscrawler.io\",'\n\t\t\t\t'\"background_color\":\"9F6752\",'\n\t\t\t\t'\"attributes\":['\n\t\t\t\t\t'{\"trait_type\":\"Type\",\"value\":\"Class\"},'\n\t\t\t\t\t'{\"trait_type\":\"Class\",\"value\":\"', card.name, '\"},'\n\t\t\t\t\t'{\"trait_type\":\"Edition\",\"value\":\"', card.edition, '\"}'\n\t\t\t\t'],'\n\t\t\t\t'\"image\":\"data:image/svg+xml;base64,', Base64.encode(card.imageData), '\"'\n\t\t\t'}'\n\t\t);\n\t\treturn string(abi.encodePacked('data:application/json;base64,', Base64.encode(json)));\n\t}\n}\n",
  "sourcePath": "/Users/roger/Dev/Blockchain/Truffle/ec-cards/contracts/FounderStore_v2.sol",
  "compiler": {
    "name": "solc",
    "version": "0.8.17+commit.8df45f5f.Emscripten.clang"
  },
  "schemaVersion": "3.4.10",
  "updatedAt": "2022-11-21T19:29:26.369Z",
  "networkType": "ethereum",
  "devdoc": {
    "events": {
      "Created(uint256,string)": {
        "params": {
          "id": "Token id",
          "name": "The name of the card"
        }
      }
    },
    "kind": "dev",
    "methods": {
      "beforeMint(uint256,uint256,uint256,uint256)": {
        "params": {
          "balance": "The amount of tokens the purchaser owns",
          "currentSupply": "The total amount of minted Tokens, from all accounts",
          "id": "Token id",
          "value": "Transaction value sent, in WEI"
        }
      },
      "exists(uint256)": {
        "params": {
          "id": "Token id"
        },
        "returns": {
          "_0": "bool True if it exists, False if not"
        }
      },
      "getCard(uint256)": {
        "params": {
          "id": "Token id"
        },
        "returns": {
          "_0": "card FounderStore_v2.Card structure"
        }
      },
      "getCardCount()": {
        "returns": {
          "_0": "number 2"
        }
      },
      "getCardPrice(uint256)": {
        "params": {
          "id": "Token id"
        },
        "returns": {
          "_0": "price The Card price, in WEI"
        }
      },
      "getCardSupply(uint256)": {
        "params": {
          "id": "Token id"
        },
        "returns": {
          "_0": "number"
        }
      },
      "getVersion()": {
        "returns": {
          "_0": "version This contract version (1)"
        }
      },
      "owner()": {
        "details": "Returns the address of the current owner."
      },
      "renounceOwnership()": {
        "details": "Leaves the contract without owner. It will not be possible to call `onlyOwner` functions anymore. Can only be called by the current owner. NOTE: Renouncing ownership will leave the contract without an owner, thereby removing any functionality that is only available to the owner."
      },
      "transferOwnership(address)": {
        "details": "Transfers ownership of the contract to a new account (`newOwner`). Can only be called by the current owner."
      },
      "uri(uint256)": {
        "params": {
          "id": "Token id"
        },
        "returns": {
          "_0": "metadata Token metadata, as json string base64 encoded"
        }
      }
    },
    "version": 1
  },
  "userdoc": {
    "events": {
      "Created(uint256,string)": {
        "notice": "Emitted when a new card is created"
      }
    },
    "kind": "user",
    "methods": {
      "beforeMint(uint256,uint256,uint256,uint256)": {
        "notice": "Run all the required tests to purchase a Card, reverting the transaction if not allowed to purchase"
      },
      "exists(uint256)": {
        "notice": "Check if a Token exists"
      },
      "getCard(uint256)": {
        "notice": "Returns a Token stored info"
      },
      "getCardCount()": {
        "notice": "Returns the number of Cards maintained by this contract"
      },
      "getCardPrice(uint256)": {
        "notice": "Returns the price of a Card"
      },
      "getCardSupply(uint256)": {
        "notice": "Returns the total amount of Cards available for purchase"
      },
      "getVersion()": {
        "notice": "Returns the Store version"
      },
      "uri(uint256)": {
        "notice": "Returns a token metadata, compliant with ERC1155Metadata_URI"
      }
    },
    "version": 1
  }
}